:02000000ff00ff
:080002004c6174746963650030
:17000a00694345637562653220323032302e31322e32373934330071
:15002100506172743a2069434534305550354b2d53473438002c
:1b003600446174653a2041707220313320323032352032303a35303a32340086
:0200510000ffae
:040053007eaa997e6a
:02005700510056
:0200590001059f
:03005b00920020f0
:03005e006202b388
:03006100720150d9
:0300640082000017
:02006700110086
:02006900010193
:20006b00000000000000000000000010000000000000400000000000010000000000000420
:20008b000000000000001000000000000040000000001000000000000040000000000001b4
:1600ab0000000000000004000000000000100000000000004000eb
:2000c1000000000000000000000000020000000000000800000000000020000000000000f5
:2000e10080000000000002000000000000080000000002000000000000080000000000006b
:1701010020000000000000800000000000020000000000000800003d
:200118000000000000000000000000000000000000000000000000000000000000000000c7
:200138000000000000000000000000000000000000000000000000000000000100000000a6
:160158000000000000000000000000000000000000000000000091
:20016e00000000000000000000000000000000000000000000000000000000000000000071
:20018e00000000000000000000000000000000000000000000000000000000000000000051
:1701ae0010000000000000000000000000000000000000000000002a
:2001c50000000000000000000000000000000000000000000000000000000000000000001a
:2001e5000000000000000000000000000000000000000000000000000000000000000000fa
:1602050000000000000000000000000000000000000000000000e3
:20021b000000000000000000000000000000000000000000000000000000000000000000c3
:20023b000000000000000000000000000000000000000000000000000000000000000000a3
:17025b0000000000000000000000000000000000000000000000008c
:2002720000000000000000000000000000000000000000000000000000000000000000006c
:200292000000000000000000000000000000000000000000000000000000000000000c0040
:1602b2000000000000000000000000000000000000000000000036
:2002c800000000000000000000000000000000000000000000000000000000000000000016
:2002e8000000000000000000000000000000000000000000000000000000000000000000f6
:170308000000000000000000000000000000000000000000000000de
:20031f000000000000000000000000000000000000000000000000000000000000000000be
:20033f000000000000401000000000000000000000401000000000010040000000000800b5
:16035f000000000000000000000000000000000000000000000088
:20037500000000000000000000000000000000000000000000000000000000000000000068
:20039500000000000000000000000000000000000000000000000000000000000000000048
:1703b500000000000000000000000000000000000000000000000031
:2003cc00000000000000000000000000000000000000000000000000000000000000000011
:2003ec000000100000000000000000000000000000000000004000000000000000000000a1
:16040c0000000000000000000000000000000000000000000000da
:200422000000000000000000000000000000000000000000000000000000000000000000ba
:2004420000000000000000000000000000000000000000000000000000000000000000009a
:1704620000000000000000000000000000000000000000000400007f
:20047900000000000000000000000000000000000000000000000000000000000000000063
:20049900000000000000000000000000000000000000000000000000000000000000000043
:1604b900000000000000000000000000000000000000000000002d
:2004cf0000000000000000000000000000000000000000000000000000000000000000000d
:2004ef000000010000000000000000000000010000000000000400000000000000000000e7
:17050f000000000000000000000000000000000000000000000000d5
:200526000000000000000000000000000000000000000000000000000000000000000000b5
:200546000000000000400000000000000000000000c0000000000001000000000000000094
:1605660000000000000000000000000000000000000080000000ff
:20057c0000000000000000000000000000000000000000000000000000000000000000005f
:20059c0000000000000000000000000000000000000000000000000000000000000000003f
:1705bc00000000000000000000000000000000000000180000000010
:2005d300000000000c302000000000000000000000000000000000000000000000000000ac
:2005f3000000000000000000000000000000000000000000000000000000000000000000e8
:1606130000000000000000000000000000000000000000000000d1
:200629000000000000c30000000000000000000000000000000000000000000000000000ee
:20064900000000000000000000000000000000000000000000000000000000000000000091
:1706690000000000000000000000000000000000000000000000007a
:20068000000000000c302000000000000000000000000000000000000000000000000000fe
:2006a00000000000000000000000000000000000000000000000000000000000000000003a
:1606c000000000000000000000000000000000000000014ea00035
:2006d6000000000000c3000000000000000000000000000000000000000000000000000041
:2006f6000000000000000000000000000000000000000000000000000000000000000000e4
:1707160000000000000000000000000000000000000000000a0000c2
:20072d00000000000c30200000000000000000000000000000000000000000000000000050
:20074d0000000000000000000000000000000000000000000000000000000000000000008c
:16076d000000000000000000000000000000000000140000000062
:200783000000000000c3000000000000000000000000000000000000000000000000000093
:2007a300000000000000000000000000000000000000000000000000000000000000000036
:1707c3000000000000000000000000000000000000002000000000ff
:2007da00000000000c302000000000000000000000000000000000000000000000000000a3
:2007fa000000000000000000000000000000000000000000000000000000000000000000df
:16081a0000000000000000000000000000000000000000000000c8
:200830000000000000c30000000000000000000000000000000000000000000000000000e5
:20085000000000000000000000000000000000000000000000000000000000000000000088
:17087000000000000000000000000000000000000000000000000071
:20088700000000000c302000000000000000000000000000000000000000000000000000f5
:2008a700000000000000000000000000000000000000000000000000000000000000000031
:1608c700000000000000000000000000000000000000000000001b
:2008dd000000000000c3000000000000000000000000000000000000000000000000000038
:2008fd000000000000000000000000000000000000000000000000000000000000000000db
:17091d000000000000000000000000000000000000000000000000c3
:20093400000000000c30200000000000000000000000000000000000000000000000000047
:20095400000000000000000000000000000000000000000000000000000000000000000083
:16097400000000000000000000000000000000000000000000006d
:20098a000000000000c300000000000000000000000000000000000000000000000000008a
:2009aa0000000000000000000000000000000000000000000000000000000000000000002d
:1709ca00000000000000000000000000000000000000000000000016
:2009e100000000000c3020000000000000000000000000000000000000000000000000009a
:200a01000000000000000000000000000000000000000000000000000000000000000000d5
:160a210000000000000000000000000000000000001c00000000a3
:200a37000000000000c30000000000000000000000000000000000000000000000000000dc
:200a570000000000000000000000000000000000000000000000000000000000000000007f
:170a7700000000000000000000000000000000000000000000000068
:200a8e00000000000c302000000000000000000000000000000000000000000000000000ec
:200aae00000000000000000000000000000000000000000000000000000000000000000028
:160ace000000000000000000000000000000000000000000000012
:200ae4000000000000c300000000000000000000000000000000000000000000000000002f
:200b04000000000000000000000000000000000000000000000000000000000000000000d1
:170b24000000000000000000000000000000000000000000000000ba
:200b3b00000000000c3020000000000000000000000000000000000000000000000000003e
:200b5b0000000000000000000000000000000000000000000000000000000000000000007a
:160b7b000000000000000000000000000000000000000000000064
:200b91000000000000c3000000000000000000000000000000000000000000000000000081
:200bb100000000000000000000000000000000000000000000000000000000000000000024
:170bd10000000000000000000000000000000000000002c00000004b
:200be800000000000c30200000000000000000000000000000000000000000000000000091
:200c0800000000000000000000000000000380000006bc1000000000000000000000000077
:160c28000000000000000000002800000000000e000023e9046010
:200c3e000000000000c30000000000000000000000000000000000000000000000000000d3
:200c5e0000000000000000000000000000002000000003c00400000000000000000000008f
:170c7e00000000000000000000010000000000008000002d90001011
:200c9500000000000c302000000000000000000000000000000000000000000000000000e3
:200cb50000000000000000000000000000000000000000000000000000000000000000001f
:160cd50000000000000000000000000000000000002000000000e9
:200ceb000000000000c3000000000000000000000000000000000000000000000000000026
:200d0b000000000000000000000000000000000000000000000000000000000000000000c8
:170d2b00000000000000000000000000000000000003c000000000ee
:200d4200000000000c30200000000000000000000000000000000000000000000000000035
:200d620000000000000000000000000000000007000000000000000000000000000000006a
:160d82000000000000000000000000000000000000060000000055
:200d98000000000000c3000000000000000000000000000000000000000000000000000078
:200db80000000000000000000000000000000000000000000000000000000000000000001b
:170dd800000000000000000000000000000000000000000000000004
:200def00000000000c30200000000000000000000000000000000000000000000000000088
:200e0f000000000000000000000000000000000000000000000000000000000000000000c3
:160e2f0000000000000000000000000000000000000000000000ad
:200e45000000000000c30000000000000000000000000000000000000000000000000000ca
:200e650000000000000000000000000000000000000000000000000000000000000000006d
:170e8500000000000000000000000000000000000000000000000056
:200e9c00000000000c302000000000000000000000000000000000000000000000000000da
:200ebc00000000000000000000000000000000000000000000000000000000000000000016
:160edc000000000000000000000000000000000000006000a540bb
:200ef2000000000000c300000000000000000000000000000000000000000000000000001d
:200f12000000000000000000000000000000000000000000000000000000000000000000bf
:170f3200000000000000000000000000000000000000001405a000ef
:200f4900000000000c3020000000000000000000000000000000000000000000000000002c
:200f6900000000000000000000000000000000000000000000000000000000000000000068
:160f8900000000000000000000000000000000040000000000004e
:200f9f000000000000c300000000000000000000000000000000000000000000000000006f
:200fbf00000000000000000000000000000000000000000000000000000000000000000012
:170fdf000000000000000000000000000000000000000000000000fb
:200ff600000000000c3020000000000000000000000000000000000000000000000000007f
:201016000000000000000000000000000000000000000000000000000000000000000000ba
:16103600000000000000000000000000000000000014001af04046
:20104c000000000000c30000000000000000000000000000000000000000000000000000c1
:20106c00000000000000000000000000000000000000000000000000000000000000000064
:17108c0000000000000000000000000000000000000020000f00001e
:2010a300000000000c302000000000000000000000000000000000000000000000000000d1
:2010c30000000000000000000000000000000000000000000000000000000000000000000d
:1610e30000000000000000000010000000000000000004000000e3
:2010f9000000000000c3000000000000000000000000000000000000000000000000000014
:201119000000000000000000000000000000000000000000000000000000000000000000b6
:1711390000000000000000000000000000000000000002000000009d
:20115000000000000c30200000000000000000000000000000000000000000000000000023
:2011700000000000000000000000000000000000000000000e000000000000000000000051
:161190000000000000000000038000180000000e00002800000078
:2011a6000000000000c3000000000000000000000000000000000000000000000000000066
:2011c600000000000000000000000000000000000000000000800000000000000000000089
:1711e600000000000000000000200001000000008000000000000051
:2011fd00000000000c30200000000000000000000000000000000000000000000000000076
:20121d000000000000000000000000000000000000000000000000000000000000000000b1
:16123d000000000000000000030080000000000000000018f040d0
:201253000000000000c30000000000000000000000000000000000000000000000000000b8
:2012730000000000000000000000000000000000000000000000000000000000000000005b
:1712930000000000000000000032000000000000000000010f000002
:2012aa00000000000c302000000000000000000000000000000000000000000000000000c8
:2012ca00000000000000000001000000000000000000000000000000000000000000000003
:1612ea0000000000000000000000000000000000001600000000d8
:201300000000000000c300000000000000000000000000000000000000000000000000000a
:2013200000000000000000000010000000000000000000000000000000000000000000009d
:17134000000000000000000000000000000000000000000000000096
:20135700000000000c3020000000000000000000000000000000000000000000000000001a
:20137700000000000000000000000000000000000000000000000000000000000000000056
:1613970000000000000000000000000100000000008000000000bf
:2013ad000000000000c300000000000000000000000000000000000000000000000000005d
:2013cd00000000000000000000000000000000000000000000000000000000000000000000
:1713ed00000000000000000000000000a00000000000000000000049
:20140400000000000c3020000000000000000000000000000000000000000000000000006c
:2014240000000000000000000000000000000000000000000000000200a5400000000000c1
:16144400000000000000000000000000fb2810000000000000005f
:20145a000000000000c30000000000000000000000000000000000000000000000000000af
:20147a000000000000000000000000000000000000000000000000001c05a0100000000081
:17149a000000000000000000000000000942bc000000000000000034
:2014b100000000000c302000000000000000000000000000000000000000000000000000bf
:2014d1000000000000000000000000000000000000000000000000000000000000000000fb
:1614f10000000000000000000000001c00000000000000000000c9
:201507000000000000c3000000000000000000000000000000000000000000000000000001
:201527000000000000000000000000000000000000000000000000000000000000000000a4
:1715470000000000000000000000000000000000000000000000008d
:20155e00000000000c30200000000000000000000000000000000000000000000000000011
:20157e0000000000000000000000000000000000000000000000000000000000000000004d
:16159e000000000000000000000001800000000400000368a04166
:2015b4000000000000c3000000000000000000000000000000000000000000000000000054
:2015d4000000000000000000000000000000000000000000000000c0000000000000000037
:1715f40000000000000000000000000000000000000000250af000c1
:20160b00000000000c30200000000000000000000000000000000000000000000000000063
:20162b0000000000000000000000000000000000000000000000000000000000300000006f
:16164b00000000000001af040000000000000000000000000000d5
:201661000000000000c30000000000000000000000000000000000000000000000000000a6
:20168100000000000000000000000000000000000000000000000000000000000000000049
:1716a10000000000000000f000000000000000000000000000000042
:2016b800000000000c302000000000000000000000000000000000000000000000000000b6
:2016d80000000000000000000000000000038000000000000000000000000000000000006f
:1616f8000000e00000000000000000000000000e000000000000ee
:20170e000000000000c30000000000000000000000000000000000000000000000000000f8
:20172e0000000000000000000000000000002000000000000000000000000000000000007b
:17174e000000080000000000000000000000000080000000000000fc
:20176500000000000c30200000000000000000000000000000000000000000000000000008
:20178500000000000000000000000000000000000100000000000000000000000000000043
:1617a50000000000000000000000000a000000000000074e554931
:2017bb000000000000c300000000000000000000000000000000000000000000000000004b
:2017db000000000000000000000000000000000000d000000000000000000000000000001e
:1717fb000000000000000000000000d1b00000000000037705a60031
:20181200000000000c3020000000000000000000000000000000000000000000000000005a
:20183200000000000000000000000000000000000000000000000000000000000000000096
:161852000000000200000000000000000000000000002800000056
:201868000000000000c300000000000000000000000000000000000000000000000000009d
:20188800000000000000000000000000000000000000000000000000000000000000000040
:1718a800000000001c0000000000000000000000000000000000000d
:2018bf00000000000c302000000000000000000000000000000000000000000000000000ad
:2018df00000000000000000000000000000000000002bc10400000000000000000000000db
:1618ff0000000000000000000000000000000000000000000000d3
:201915000000000000c30000000000000000000000000000000000000000000000000000ef
:2019350000000000000000000000000000000000000043c00100000000000000000000008e
:171955000000000000000000000000009000000001000000000000ea
:20196c00000000000c302000000000000000000000000000000000000000000000000000ff
:20198c0000000000000000000000000000000000000000000000000000000000000000003b
:1619ac000000000000000000000000000000000000000000000025
:2019c2000000000000c3000000000000000000000000000000000000000000000000000042
:2019e2000000000000000000000000000000000000000000000000000000000000000000e5
:171a02000000000000000000000000000000000000000000000000cd
:201a1900000000000c30200000000000000000000000000000000000000000000000000051
:201a390000000000000000000000000000000000000000000000000000000000000000008d
:161a5900000000000000000000000000529fc000000004000000c2
:201a6f000000000000c3000000000000000000000000000000000000000000000000000094
:201a8f00000000000000000000000000000000000000000000000000000000000000000037
:171aaf000000000000000000000000000b6ffc81080002000000001f
:201ac600000000000c302000000000000000000000000000000000000000000000000000a4
:201ae6000000000000000000000000000000040000000000001000000000000000000000cc
:161b060000000100000000000004000000000004100000000000b0
:201b1c000000000000c30000000000000000000000000000000000000000000000000000e6
:201b3c00000000000000000000000000000000000000000000000000000000000000000089
:171b5c00000000000000000000000000000000000000000000000072
:201b7300000000000c302000050000000000000000000000000000000000000000000000f1
:201b9300000000000000000000000000000000000000000000000000000000000000000032
:161bb300000000000000000000000000febd5800000020000000e9
:201bc9000000000000c3100000080000000000000000000000000000000000000000000021
:201be9000000000000000000000000000000000000000000000000000000000000000000dc
:171c090000000000140000000000000003829480000404000000000f
:201c2000000000000c30200800000000000000000000000000000000000000000000000040
:201c400000000000000000000000000000000000000000000000000000000038000000004c
:161c60000000e0000000cf041b80000ababc180e0000000000007a
:201c76000000000000c3100020000000000004200000000000000000000000000000000037
:201c960000000000000000000000000000000000000000000000000000000002000000002c
:171cb60000000800000000f0002000010943e8058000020000000043
:201ccd00000000000c3020000000000000000000000000000000000000000000000000009b
:201ced00000000000000000000000000000000000000000000000000000000300000076b35
:161d0d00d5000000000000000320000886ed580400006000000091
:201d23000000000000c31000000000000000000000000000000000000000000000000000cd
:201d4300000000000000000000000000000000000000000000000000000000010000007807
:171d63000140000000000000003000010b31e800c000000000000013
:201d7a00000000000c302000000000000000000000000000000000000000000000000000ed
:201d9a00000000000000000000000000000000000000000000000000000000040000000025
:161dba0000000000000000000000000cbebc10000004007cf50008
:201dd0000000000000c3100000000000000000000000000000000000000000000000000020
:201df00000000000000000000000000000000000000000000000000000000000400f000084
:171e10000000000000000000000000700543e8800a0020020f500010
:201e2700000000000c3220000000000000000000000000000000000000000000000000003d
:201e47000000000000000000000000000000000000000000000080000000000000000000fb
:161e67000000000200000000000000000000000000000000000063
:201e7d000000000000c300004000000000000100000000000004000000000000100000002d
:201e9d000000004000000000000000000000004000000000000114000000000004000e007e
:171ebd00000000101c000000000040000000000001000000000000a1
:201ed400000000000c302000400a0000000000000000000000000000000000000000000048
:201ef4000000000000000000000000000000000000000000000000000000000000000000ce
:161f140000000000060000000000000000000004000400000000a9
:201f2a000000000000c31000000100000000000000000000000000000000000000000000c3
:201f4a00000000000000000000000000000000000000000000000000000000000000000077
:171f6a0000000000000000000000001090000000000260000000005e
:201f8100000000000c302000001c171540400000000000000000000000000000000000001c
:201fa1000000000000000000000000000000000000000000000000000000000000501000c0
:161fc100000000000021ca000000001a0000000000007a5caf4838
:201fd7000000000000c3100000010f41540000000000000000000000000000000000000072
:201ff7000000000000000000000000000000000000000000000000000000000000000800c2
:17201700000000000003d0500040000000000000000000160a5200dd
:20202e00000000000c302004000000000000100000000000004000000000000100000000e1
:20204e0000000400000000000000000000000400000000000010000000000000400000001a
:16206e000000010006840a5409040001000000041000036ea04000
:202084000000000000c31001020000000000008000000000000000000000000000000000e6
:2020a40000000000000000000000000000000000000000000000000000000000000000001c
:1720c40000000000004000a520000000e00000000000000d970a0072
:2020db000100003fec30200000000000000000000000000000000000000000000000000069
:2020fb00000000000000000000000000000000000000000000001c000000000000000000a9
:16211b0000000000001caf540000030a00000000000000ea8160b7
:2021310040900002f0c31000000000000000000000000000000000000000000000000000f9
:202151000000000000000000000000000000000000000000000000000000000000000a0064
:17217100000000000001e00500400050a0000000008040178a1000d0
:2021880000000001cc302380001a07bc10200080000000000000000000000000000000000a
:2021a80000000000000000000000000000000000000000000e001400000000380000813408
:1621c8000102e00000000a54001000000383c00e00006bf8f060a9
:2021de004000000010c3102000000043c12100340000000000000000000000000000000045
:2021fe00000000000000000000000000000000000000000000800020000000020000003ae5
:17221e00480008000001405a0000000000403c04820002650a00004b
:2022350000000001ec3020000000000000000000000000000000000000000000000000004c
:20225500000000000000000000000000000000000000000000000000000000010000000068
:1622750000000000000000000000000000000005001e2a7b056026
:20228b000000000010c3100000000000000000000000000000000000000000000000000050
:2022ab00000000000000000000000000000000000000000000000000000000000000000013
:1722cb0000000000040000000000000000000000d00002ffe0e00c5b
:2022e20001000001cc3020000780dbb180200000000000000000000000000000000000000b
:202302000000000000000000000000000000000000000000000006000000000000000000b5
:16232200000000000000000000000000920200000000040000000d
:202338000000000010c3100002000938d80000000000000000000000000000000000000087
:20235800000000000000000000000000000000000000000000000000000000000000000065
:172378000000000000000000000000f0036400200000028000000055
:20238f00000000000c302000000000000000000000000000000000000000000000000000d2
:2023af000000000000000000000000000000000000000000000000000000000000580000b6
:1623cf00000000000000000000000000000000000000267ef04024
:2023e5000000000000c3100000000000000000000000000000000000000000000000000005
:2024050000000000000000000000000000000000000000000000000000000000000f0000a8
:17242500000000000000000000000050000000000000075f050200e3
:20243c00000000400c3020084000000000000000000000000000000000000000000000009c
:20245c00000000000000000000000000000000000000000000000001fbd140000000000053
:16247c000000000000000000000005800000000000003dfcf54057
:202492000000003000c3100020000000000000000000000000000000000000000000000007
:2024b20000000000000000000000000000000000000000000000000004852400000000005d
:1724d20000000000000000000000000080000000000006ad05a0908b
:2024e900000000000c302000018000000000000000000000000000000000000000000000f6
:202509000000000000000000000000000000000000000000000000000000001000000000a2
:1625290000000000604000000008000ef68080000080027ef040c0
:20253f000000000000c3100000d000000000000000000000000000000000000000000000d9
:20255f0000000000000000000000000000000000000000000000000000000000000000005c
:17257f00000000000024000000000001f7b000000010001e05020440
:2025960000000041cc302100001e00000000000000000000000000000000000000000000a9
:2025b6000000000000000000000000000000000000000000040004000000000000000000fd
:1625d600000050000000000000000780ff2d4004003c7becf040d5
:2025ec000000003010c300010000000000000080000000000000000000000000000000004b
:20260c0000000000000000000000000000000000000000000000002000000000000000008e
:17262c000000000000000000000000000561f800000362250a0004a1
:202643000000001cec3020000000000000000000000000000000000000000000000000001f
:20266300000000000000000000000000000000000000000000000000000000000001e00076
:16268300000000000000cf04000008005fbc1a1000003eda080001
:202699000010000370c30000000000000000000000000000000000000000000000000000db
:2026b900000000000000000000000000000000000000000000000000000000000000000001
:1726d90000000000000010f0500000f001b3e1010000c7f7f0000066
:2026f00000000014ac302000000000000000000000000000000000000000000000000000ba
:2027100000000000000000000000000000000000000000000e00000400000000005800003f
:162730000000e000000000000380070000000000000004580202c9
:202746000000000000c30000000000000000000000000000000000000000000000000000b0
:20276600000000000000000000000000000000000000000000800003c00000000000000010
:17278600000008000000000000200000000000000000c275000000dd
:20279d000000639cec302000000000000000000000000000000000000000000000000000e1
:2027bd000000000000000000000000000000000000000000000000000000000000000000fc
:1627dd00000000000000000000000000000000000080000e030253
:2027f3000000020030c30000000000000000000000000000000000000000000000000000d1
:202813000000000000000000000000000000000000000000000000000000000000000000a5
:1728330000000000000000000000000000000000041403000030083b
:20284a0001000014ac3020000000000000000000000000000000000000000000000000005d
:20286a0000000000000000000000000000000000000000000000000000000000000000004e
:16288a00000000000000ef0400000000000000000000381c0f20c2
:2028a0000000000000c3000000000000000000000000000000000000000000000000000055
:2028c0000000000000000000000000000000000000000000000000000000000000000000f8
:1728e00000000000000000f050000000f00000000000030100f000bd
:2028f7000000001cec30200000000000000000000000000000000000000000000000000069
:20291700000000000000000000000000000000000000000000000000000000000001e7f2c6
:162937008000000003000000000008000000000000806800000017
:20294d000000000030c3000000000000000000000000000000000000000000000000000077
:20296d0000000000000000000000000000000000000000000000000000000000000000004a
:17298d0028081000004000000000007000000000001004000000002f
:2029a40000000014ac30200100000000000000000000000000000000000000000000000002
:2029c40000000000000000000000000000000000000000000000463a7de240800018eff05d
:1629e400200000a00000000000000000ff70d82000000468080042
:2029fa000000000000c30000000000000000000000000000000000000000000000000000fa
:202a1a00000000000000000000000000000000000000000000000807efc5240000008eb671
:172a3a00400800a000000000000000f00d231d00000003e5e0000098
:202a51000000005cec302000100000000000000000000000000000000000000000000000bd
:202a710000000000000000000000000000000020000000000000000000000000000001b272
:162a910080000001e00000000000000000000000000023ee00308d
:202aa7008000003c30c3000000000000000000000000000000000000000000000000000060
:202ac7000000000000000000000000000000000500000000000000000000000000100004d6
:172ae700280800000000000000000000000000000000425d00a080e9
:202afe0000000000ac302000000000000000000000000000000000000000000000000000bc
:202b1e0000000000000000000000000000002800000000000400000000000000003000003b
:162b3e0000004000000000000100198000000000411c000000004a
:202b54000000000000c300000000000000000000000000000000000000000000000000009e
:202b740000000000000000000000000000000100000000000000000000000000000b000035
:172b9400000000000000000000000270000000000a08600000000046
:202bab00000000000c302000000000000000000000000000000000a7628000000000000025
:202bcb000000000000000000000000000000000000000000000000384d1b4040000009ab16
:162beb00e8001000005defa0000000005383e001008001eaa040ee
:202c01000010000000c3000000000000000000000000000000000d10f000000000000000d3
:202c21000000000000000000000000000000000000000000000000003680b41000030bfe0d
:172c4100140010000020f9500100000080003c08101000030a0500f8
:202c5800000000000c302000000000000000000000000000000050000000000000000000b0
:202c780000038000000000000000000000038000000000000e002400000000000001e10121
:162c98006800e0e2020080f0000800007203e00e00a00178a04026
:202cae000000000000c3000000000000000000000000000000000d8b0000000000000000ab
:202cce000000200000000000000000000000200000000000008000600000000000000000c6
:172cee00168018008440100f0041000090403c008011c0000a04048e
:202d0500000000000c3020000000000000000000000000000000d000000000000000000082
:202d2500000000000000000000000000000000000000000000000038000000000080077f50
:162d4500dc000000001d8056000008195783e00c000000000000c2
:202d5b000000000000c300000000000000000000000000000000018b000000000000000009
:202d7b000000000000000000000000000000000000000000000800040000000000050ffe1a
:172d9b00bfc000000003d00f4000001080803c00c40002400000002e
:202db200000000000c302000000000000001000000000000000000a12a8000000000000059
:202dd2000000680000000000000000000000000000000000000e0000cf80000280580173ce
:162df2009c08000000000000000000005603e0000004000e0f00cd
:202e08000000000000c300000000000000001000000000000000001000280000000000009f
:202e28000000050000000000000000000000000000000000000000003dc0000010000b5815
:172e48003ec00000000000000000000000c03c000000200000f00069
:202e5f000a0000000c3020000000000000000000000000000000000928680800000000004c
:202e7f00000000000000000000000000000000000000000000001c03d880020000040df0b9
:162e9f0020000000401cc5f6800000003a3c20000e003c0c0f006b
:202eb5000000000000c30000000000000000000000000000000000001c000000000000001e
:202ed5000000000000000000000000000000000000000000000002600c0002040100007fe9
:172ef500800040001e03c00f4000000000003c000000034100f00066
:202f0c00000000000c30200000000000000000000000000000000005e0800c0000000000d8
:202f2c00000000000003bc1040000000000000000000000000a06c014e1b6300388088015c
:162f4c0068000000068180f0000005007a3c28004000040c0f00ce
:202f62000000000000c30000000000000000006000000000000000005c0000400000000090
:202f820000000000000043c000000000000000000000000000040ae026007400000510f09f
:172fa20029404000003c000f0040000000003c000208034100f0006a
:202fb900000000000c3020000000000000000000000000000000008000000000000000001c
:202fd900000000001a0000000000000000000007807f815410001e6c0000000000f8d07809
:162ff9003c01000203c00000000009807a3c2000001c3000000015
:20300f000000000000c30000000000000000000000000000000007100000000000000000c7
:20302f00000000000100000000000000000000000807403d000001c3c0000000000b0e0057
:17304f0003c000001c7800000000009000803c000080000000000047
:20306600000000000c3020200000000000000040000000000000000000000000000000008e
:20308600000000000000000000000000000100080100000004000000000000000070e001cb
:1630a60068804402006edaa01013c59a7a3c20040e00001c0f0069
:2030bc000000000000c3000000000000000000000000000000000000000000000000000031
:2030dc000000000000000000000000000000000050c00000000000000000000008030e703b
:1730fc0029400020042aee5a00009090a0803c000000038100f000ce
:20311300000000000c3020000000000000000200000000000008000f2143000000005cb0b7
:20313300f8000000000000000000000000000008005aa8000000000000000000000019abb6
:16315300e8000001e6aeeaa00000200c123c2000000030080f007e
:203169000000000000c3000000000000000000000000000000000000d001508000002808b2
:203189000f0000000000000000000000000000009090028000000000000000000000085a13
:1731a900540000001c00485a0000000000803c500000000100f100ff
:2031c000000000000c302380401e0000000e0000000000003800500f214300000a005cb093
:2031e000f8000000000000000000000000000009801397c0000040001a0f00780081e02082
:163200003c00000207adc5f0000008005a3c20004e80780e5a00a5
:203216000000000000c300200290000000008000000000000200000010015000011c280fec
:203236000f0000000000000000000000000000007800817c00000bc00000f002000700042c
:1732560003c00000244258fa0100009000003c000217401c0a510049
:20326d00000000000c30200000009be91000001c000000000000019d214300000366d415e1
:20328d00a8000000000000000000000000000000011ab7c0800000001c0f000030800ff489
:1632ad009d800001e040e0f0000000180225a020000060180f0077
:2032c3000000000000c30000000001f9f10500002000000000000008d80150000014226c45
:2032e300a5000000000000000000000000000000f0e143fc00000003c100f0800007001bc0
:1733030007d400003e38000f00010001002da4000000000100f0008f
:20331a00000000000c3020000000000000002000601af040000019dd214300000366dcb01e
:20333a00f8000000000000000000000000004000001bb2c080a00c000000000000f80bb5ca
:16335a001d80001de04de5f0000003001a3c28000ea0000a5a000e
:203370000000000000c30000280000000000040000010f0c80000018180150000014203cc1
:203390000f000000000000000000000000000400f003436c4004000000000000000700f22b
:1733b00093da0001c03b59fa0040000000003c00001042dd0a510044
:2033c700000000000c3020000000000000000000001cf0410000000fa143000000039fb0f8
:2033e700f8000000000703c0000000000000000500000000002000001c0f004000780fb538
:163407001da40000e2b4e0f0100000007a3c2800000005da5a2041
:20341d000000000000c30000000000000000000000010f0400000000d001500000002c0d5e
:20343d000f0000000000003c010000000000000000000000000000000000f0000009003af0
:17345d0023d000003e414aff000000000003c0000000034005a000f2
:20347400000000000c302000500000000000a000300000000000000da143000000e2dfb05a
:20349400f80000010000000000000000000000000000168000011c380000000230d0000032
:1634b400000000c5c74eefa000000000723c2000000070180f0034
:2034ca000000000000c300000000000000000000040000000000000010015000001e740d1b
:2034ea000f00000000000000000000000000000000050294040000240000000010090900ce
:17350a0000000000be69cd50000000000083c000000002c000f00071
:20352100000000000c3020000001000000000000380000000000980da143000002663605c9
:20354100a800000000000000000000000000000788000000000000000a0f100000000fed0e
:16356100c9c000016000c0f00000059b723c20000026001a0f00fd
:203577000000000000c300000000d000000000000380000000000100d80150000004026d81
:20359700a500000000000000000000000000000001000000000000000100f000000000bbc2
:1735b7002d5020803c00000f08000000e083c0000002c00100f000b7
:2035ce00000000000c302120410000000004a00003cafa401000818fa143000002661fa049
:2035ee00f80000000000000000000000000000000e0783c040004000180f101100000000a5
:16360e000000000166adf5f010138800723c2000000000dd5f01f7
:203624000000000000c300000200000000000000027eff9c00000100180150000004343dc7
:203644000f0000000000000000000000000000300100403c000008000000f00028000e007c
:173664000000000000034dfa000280500003c0000000001fdf500022
:20367b00000000000c30240008019ead500000207af85a20000000072143000000001ca0f8
:20369b00f800000000033c1400200000000000030c000000000024216f80000102700102eb
:1636bb0095010402e0140008000000003a3c2000000001c05a8030
:2036d1000000000000c3000000d0f924d1040000443705000000000e900153000000000fd3
:2036f1000f040000000043c1000000000000000000000000000002e034c000802840800064
:17371100295000202e282900000000000003c0300000002c0a5020f0
:20372800000000000c3023800b003e16900000002800000038000007214101e0e0001ca06d
:20374800f80380000000000000000000000380100080295000a00001780a00380000006b94
:16376800c1000a014016896800000001723c280e0000000896d8dd
:20377e000000000000c310200090fff9290400414400000002000000d00150080000000cc7
:20379e000f002000000000000000000000002002000b0169040402402400000200000000d5
:1737be003c12000000000a9601000000e083c00080000000f69400d8
:2037d500000000000c302000000000000000000068000000000000007bc100000360008fe2
:2037f5000500000000000000000000000000000000023c10004000236c800000807007f02b
:163815001d8000000704896800000001523c280000000148f0c054
:20382b000000000000c30040000000000000000002c000000000000e003c3000001400002a
:20384b00f0400000000000000000000000000000000043c1000a00039ec00008100000574f
:17386b00ebd2110014680b9610000000e083c0000002428200f580ed
:20388200000000000c3020005f00f369500020363978a00001000000000000000000000017
:2038a200000000000000000000000000000000001a06bc1000000e00000000000058072d80
:1638c20061000010e7848968000000001a3c20000f4001c8f0c8dd
:2038d8000000000000c301001878033a8504000140020a0000080000000000000000000061
:2038f80000000000000000000000000000000000010043c1000003c3c00000000009803b61
:17391800ab12400000380d96008030f00083c001000803c200f5001a
:20392f00000000000c30300000007f30504001400348a002000000000000000001c00000de
:20394f00000000001c00000000000000000008000000000000002e040a0f20000078a7b0fa
:16396f001d80000262168968000000005a3c204040000148f0c902
:203985000004000000c300000050033f0d000000003f040000000000000000000000000079
:2039a5000000000000000000000000000000000000000000000002628100f00000000057d6
:1739c500ebd2100026002f96008000000003c0000800024000f400b2
:2039dc00000000000c302020458193695040a00e3a4e420200000000000000008000000003
:2039fc00000010000000000000000000000068000807bc10000c2000405a200005008f2cb2
:163a1c00d5800008400c89680028470c723c2040400001e8f0c890
:203a32000000000000c300401200a33a85000000040c08500000000d000000000000000088
:203a520000000080b00000000000000000000100010003c1000002c00005a0000000107a6d
:173a72008f96400302340c96000100080003c0000a00000000f490a3
:203a8900000000000c303000078e00000000009c00f91a00000098000000000002678000ec
:203aa9000000000000000000000000000000000000102950000020004f8000000001c000c4
:163ac90000000000020699680000039e3a3c200000203168f0c836
:203adf000000000000c300000011a00000000010201fb5a0000001000000000000040000aa
:203aff000000000000000000000000000000000000000295000001c3adf00080000010001f
:173b1f000000000000000b96100000000083c0000000474200f4100e
:203b3600000000000c30210008009efbd00000003b5a0a011100000073c10040000000007c
:203b56000001000000073c18000000000001000100000000008104281c0f001280000f2c4c
:163b7600d5400a00000e99680000001c7a3c2044001e79e8f0c0a6
:203b8c000000000000c300400050072a950500000416000000200700043c1000000000006a
:203bac0000000000000003c1000000000000000000000000000408200000f20010090a7b79
:173bcc00cf90600000002c96004000000083c0000000040200f49054
:203be3000100002fcc302000000000000000000c6afe000000000000000000000000000002
:203c030000000000000283c00000000000000003881059b8000000001c0f00000000f96329
:163c2300e80000000054896800000800323c2000000005c8f0c04b
:203c390000100001c0c310000000000000000000040e005000000000000000000000000065
:203c5900000000000000403c040000000000000098a0a999000000400100f0800000185a2e
:173c7900540000001c340d96040000700083c0100000038200f4505d
:203c900000000001ec3023800000d6a9100000006a0af500382800000000000000000000fc
:203cb00000000000000000000000000000038007007225b4000026600a0f203a8010000096
:163cd0000000000207c4896800000000323c200e000021c8f0c0eb
:203ce6000000000000c3102000000531f100000004240fa0030000000000000000000000ca
:203d0600000000000000000000000000000020000000ba59000002664000f0022010800020
:173d2600000000003c700f96080030000083c0008000040200f41030
:203d3d0000000001cc3020000f800000000000160248f70200000000000000000000000061
:203d5d00000000000000000000000000000000078a7225b400001e03f880000000008db88c
:163d7d0075840053c016896800000000723c2000000001e8f0c8ae
:203d93000000000000c3004000d800000000008820150ff000000000000000000000000079
:203db3000000000000f0000000000000000000000800aa59000002402d8000800000107204
:173dd300c350000016002c96080000000003c0000000000000f4101f
:203dea0001000001ec3220000f0056a91000209600000000000000007bc10000e000000089
:203e0a0000000020000383c01000000000001025083265b420000000f808000000f000008a
:163e2a00000000400384996800004000123c200000000048f0c80c
:203e40000000000000c3004010d8d531f10000142000000000008000043c1040000000003c
:203e6000000000050000403c000010000000030500a022590000140016e000000003800001
:173e80000000000000782f96000000000003c0000060000200f500d4
:203e9700000000000c302000070000000000000000000000000000000000000000000000a8
:203eb700000000000000000000000000000000280e7a25b200000028180f2000b850adb18f
:163ed7001d800a00004e89680000200e7a3c204000063868aa60fb
:203eed000000000000c30100000800000000000000000000000000000000000000000000e9
:203f0d0000000000000000000000000000000005f000ae59000800000100f000100000721d
:173f2d00d3d200401c3c2a9608000000c083c00002e007820aa590cb
:203f44000001c0000c302000000000000001002060000000000000000000000000000000bf
:203f640000000200000000000000000000000000005a65b20000006800000000380000002a
:163f840000000a01e2169968040003017a3c204000040000000001
:203f9a000000020000c301000000000000001009c000000000000000000000000000000068
:203fba00000000000000000000000000000000000000ae590000000280000000000000005e
:173fda000000004002002c9600011800c083c000000023c0000000cd
:203ff100000000000c302000100000000000000000685f00000000007bc100000000000041
:20401100000000000e00000000000000000000001f3225b0400034000000000000800db1a9
:164031001d00080200069968000028003a3c204004003c0cf040d1
:204047000000000000c301000800000000000020000305f000000000003c10200000000009
:2040670000000000010000000000000000000000f0d0a659040400c00000000000850076b6
:17408700d3de00602c382996000005700003c00000a003c00f0480c0
:20409e000001c001ec3021000000d6a910000000016adf02100000e0000000000000000038
:2040be0000000000000000000000000000010000001225b040a02003d880009282500d7cb2
:1640de00d1c00000000689680000081cba3e8044000000edb04186
:2040f4000000020000c3004000000d31f1200003c0040ff000000b10000000000000000077
:2041140000000028000000000000000000000000009022592004014005d000001005805b2e
:17413400af58000000200e9608000051d783d4000000c02fce040061
:20414b0000006624ec3020002000000000000000000000000000000000000000000000006e
:20416b000000000380daa0000000000000000000015265b400000020000000000000003378
:16418b00c1000060001e896800000000da97c0000000280af0405b
:2041a1000010024140c30000050000000000000000000000000000000000000000000000a3
:2041c10000000000f8f96000000000000000000000e0ba59300000078000000000000000e3
:1741e1003c14000000002c9614001850a773e800000044010f0500de
:2041f80000000015cc302000000a0000000000000000000000000003397c40000000000074
:204218000000280b81000000000000000003a010017265b00e000000000000381079ebecf1
:16423800d18400c1e39e996800000000f217c00e00142a4ec34072
:20424e000000000010c30000000000000000000000000000000000000c17c000000000009a
:20426e0000000100d0e000000000000000002102f0f0b65940801400000000020000803add
:17428e002f5600000040299600000000e5ffd4008000240dcc04005c
:2042a5000000401eec3020100b8a563dc000002c7d4cdf00000000000000000a0000000089
:2042c5000000004801000000000e000000000020013265b00000a0296e0a00000000007564
:1642e50049240001c01c896880000d0a00000000000000e8b04019
:2042fb000000000010c3000080b00d6bfc000000c69daff00000000000000000000000002a
:20431b000000000010e00000000000000000000500d0a659400012c00000a010000000b24a
:17433b00a850400002000a9600002870e0000000080002bd8d0400c1
:204352000100c60eec30200001800000000002003b6acf0a00000000000000000000000039
:204372000000000800167dc00000000000001000001265b000003c000000000002580bec0c
:16439200d1800000000e89680003091c9757c0002200024fc34079
:2043a8000000024010c30000000000000000008003b70cb0040000000000000000000000e6
:2043c8000000000070f1e3fc000000000000000000f0ae59400003c0000000000000003a61
:1743e8006f52400000000c9600000098057fd400000342cdac040069
:2043ff000000001fcc302000000000000000000660000000000000000000000a00000000f3
:20441f000000000000dabdc000000000000000070c7a65b800001c000000000002380bfd1e
:16443f001d800062e01e99680000080fb6dbc000000e00f8b0400b
:204455000000040010c300028000a00000000000240000000000000f00000000000000001b
:204475000000000000017ffc00000000000000020900a25900000020000000000150885755
:1744950053d050003e200e9600001d70fda67c000000203c8d040002
:2044ac000000078fac3020100000369680410000016ae7000000000000000000000000006f
:2044cc00000000000087a80000000000000000001e1a25b800001e015b8000000239abecc0
:1644ec00d1800000069c896a00005f09badec0000144024fc3407b
:2045020000003c6010c300000000008168000000000fbfb00c0000000000000000000000b7
:2045220000000000000d4140000000000000000000003e590000002026c002880017883bea
:174542006f5a00003c002f9600000070c572dc000808000dbc040038
:204559000000079e8c302000000000000000000600000000000000e00000000a00000000d1
:20457900000008000e12a000c00e0000000000001f3265b8000020014c07424000000bbd60
:164599001d001003668e89680060001fdf17c000000178f8b04160
:2045af000008046010c300000000000000000000200000000000001000000000000000007d
:2045cf000000000001090000000000000000000000c02259000003c02405f48000050053cf
:1745ef0053da110014242d9600040000e577e8000001c03d8d0400a5
:2046060000000000cc3020a1000000000000000000000000000000000000000000000000d7
:2046260000000000080000000000000000012007011a65b805000000000000100000107374
:16464600c180000bc25c99680010039dfa97c0040100024ec34199
:20465c0000003c0000c30040000000000000000000000000000000000000000000000000ff
:20467c000000000000000000000000000000013898d03a59000000000000000000100a00d0
:17469c003c1000005668089600028009f5abd4000008000dec04005b
:2046b300000000000c302000001c3059a00000160160008000000000000000000006000049
:2046d30000000000011b60000000000000000000003265b80020003aeda5400000001000c0
:1646f300000000000686896800000001dfbe82000000286100800b
:204709000010000000c300000001002d980000000000000020000000000000000000400097
:2047290000000000f0eba40000000000000000000000be59100000041fc854101000080063
:174749000000000000000a96040002008326800000000282e0000026
:20476000000000000c30200050003265a000000000e8f080b800000000000000000015ff32
:20478000708000080f1228000040000000038000007a65b00e0040007fc340380000017409
:1647a00020000000600c996883c0001a0000000001147868f080b4
:2047b6000000000000c308400000002e58000000000200f012000000000000000000027ad2
:2047d600ff09000010e0428000080000000020000000b259408008026edc16020000005e4c
:1747f60080080000362c0b9600200000000000000001478200f080c7
:20480d0000c000000c3020000b895a25a00000206dc8f0a000000000000000000002800055
:20482d000000000000daa0008000000000000000003a65b80c0000300000000000008f311e
:16484d001d810801429c996800000001fac75200009401689680a8
:204863000000000000c3000000b8c03a58000001428000f00000000000000000060040006f
:204883000000000000f740000000000000000000f000be5900c0000400000000000100769c
:1748a300d3d4004002402e9601000000dbf8350400000002a9608079
:2048ba00000000000c302000080e3225a000000000e8f0800000000000000000020000001b
:2048da0000000000010000000000000000000008017a65b000004000000000000080002045
:1648fa003c001401604e896800000581bed1d01040000448f080c7
:204910000000000000c30000003080a658000002400000f0100000000000000000240000b0
:2049300000000000f0e0000000001000000000007090be5940000800000000000001000423
:1749500003c00180003c099600000090afb23d04020003c200f00048
:20496700040800000c30200009193225a00001400148f081800000003bc100000000000038
:2049870000000027815abd4000000000000000001e7a65b800000038000000000001af79fb
:1649a7001d800000001e996800288000fed1d80000000048f08037
:2049bd0000a1400000c30000009190ae58000000000000f000000000043c120000000000cd
:2049dd000000000400e043d4000000000000000000003e5900008000000000000000007236
:1749fd00d3d2000814002a96000100d00bf93d4000c0000200f0001e
:204a1400021000000c30202859813a25a000000001c89681800000000000000000000000b3
:204a3400000000038000000000000000000000039c7a65b8000020235e0f4100000018019f
:164a5400680000014014996800004180bb51d44000000068f080d5
:204a6a000040800000c300000098902a58000003c3c2896000000700000000000000000087
:204a8a00000000000800000000000000000000000900ae590000c2c02f00540023800950f3
:174aaa002940000014002c96000002109fb23d400000000000f000e6
:204ac100000000000c30200001803a25a000002071489681808000100000000000000000f9
:204ae1000000000800777dc00000000000000000005a65b800000032e85a4000028000004c
:164b010000000a10000e996800000040fe51d040400e0068f080b0
:204b17000000000000c300000008002a58000001c402f9600010000d0000000000000000f4
:204b370000000000f0093bfc000020000000000000003e59000000003f0a04100013000007
:174b57000000004001280996000000000bf93d020000200000f000ec
:204b6e00080000000c30202000003a25a0000000014996809000000073c1000000068000fa
:204b8e000000000780963dc080000000000100800e7a25b0040004200000001002980000bd
:164bae0000000000400699680100018000000000001c01c8f080d3
:204bc4000000000000c30001000000ae580000000342f96000000000003c301000000000ed
:204be40000000000000d03fc000000000000020010f0aa59200000240000000003058000d4
:174c04000000000c00200c9600000030900000000000000000f0001b
:204c1b00000000000c30200008001a25a000200001e8f080800000000000000001c000007c
:204c3b0000000008000000000000000000000100003225b000000003deb04000040003046d
:164c5b000200000003e48f00000003983657c00000000168f0800a
:204c71000000000000c3000000b000aa58100000000000f04000000000000000000200006c
:204c91000000000070a00000000000000000000000003659500000000fde04000000000320
:174cb100800000000027600f040000080737d4000000000200f0c006
:204cc800000000000c302000080f3265a000000001e00080380000000000000001678000a1
:204ce800000380000e0000000000000000038000003225b40e000000ffb040000000072366
:164d0800c20000000001a0f003a8039c5383c200000001c8f08027
:204d1e000000000000c300000030c02e580000000000000002000000000000000002000038
:204d3e00000020007000000000000000000020010000ba59408000003ddd0410000000089b
:174d5e0003c000000000000f0020000000003c000000000200f0100e
:204d7500000000000c30200001003265a00000366de0008000000000000000000000078ff1
:204d9500500000000076e0000000000000000000005225b000400003ceb0400802d807a2a5
:164db5005a00000006000000000001803e1ec08000000148f0a092
:204dcb000000000000c30000000000265800000142820000000000000000000000000010b2
:204deb00f500000050013000000000000000000010003659400a00000ede04100045000301
:174e0b00a580000000400000000000000742dc000003c00000f00053
:204e2200000000000c302000439c1a25a000800001e00080000000000000000001e01dafc8
:204e420070200288001a2002800000000000008000323c180000000000000000000000264e
:164e62005a0000e3c240a0f0000000000383c040000000c8f080ad
:204e78000000000000c3000002008032580000000002000000000000000000000002004007
:204e9800ff000000700540002000000000000000000f803d22000000000000000000000335
:174eb8001a4000002464100f0000000009003c000000038000f0002a
:204ecf00000000000c30200009803225a00000000140008000000000000000000000000026
:204eef00000000000000000000000000000000038100000000000006ee002080007007a371
:164f0f00c20000000001a0f000002300171f8080221428c8f0804a
:204f25000000000000c3000040980022580000000000000000040000000000000000000053
:204f45000000000000000000000000000000004008d00000000100038f00a0140400800861
:174f650003c000000000100f0000400807439c000501428000f0006d
:204f7c00000000000c30200050005a25a00000000140008000000000000000000000000089
:204f9c00000000000000000000aa000000000000000000000000003800000000005007a319
:164fbc00c200009400000000000007090383c000000000c8f080fb
:204fd2000000000000c30000000000b25800000010000000000007000000000000000000db
:204ff20000000000f0000000000400000000000100000000000003c400000000000080085b
:1750120003c000000000000000000009e0003c000081400200f000ec
:20502900000000000c30200003803265a000000001400080000000007bc1000001e0000073
:205049000000000800063c1400000000000000000000000000000000000000000050a523d1
:16506900c20000000001a0f00000010000295000000078c8f080b4
:20507f000000000000c300000008002a580000000002000000000000043c10100002000060
:20509f0000000020700043c0000000000000000090900000000001424000000000001000ab
:1750bf0003c000000000000f00000000070169040000000200f000a1
:2050d600000000000c30200400007225a0000026654000801040001073c101000000000043
:2050f60000000400000000000000000000010400000000000410006c000000004070a52399
:16511600c2001060000080f00904000000000000100000e8f0806c
:20512c000000000000c300000000003258000002664200000000000d003c10000000000013
:20514c0000000000000000000000000000000000000000000000000280000000000d1b0099
:17516c0003c000000000100f00000000000000000000000000f0005a
:20518300000000000000000000003a658020000001e000800000000000000000000000006c
:2051a3000000000000000000000000000000000008004020000004006fb0400000000723f7
:1651c300c2000000000000000000001e5683c200400000e8f080c3
:2051d9000000000000000000000000325811000000000000400000000000000000000000db
:2051f9000000000000000000000000000000000000003800080000202e9e0410000000084e
:1752190003c10000000000000000000100003c200800000000f04025
:205230000000000000000000000037a98080000001e0008038005810000000e0000000009d
:2052500000000000000000000000000000000000007303e00e0000266eb040003000032300
:16527000c20000000006ca0000000b9e83968240000000e8f080ba
:205286000000000000000000000007c194000000000000000200008c000000080000000016
:2052a6000000000000000000000000000000000090907c3c00800007668d04100000000082
:1752c60003c00000340000a000001010050294000002400200f0004b
:2052dd000000000000000000001800000000000001e000800000001d77f9000000000000ab
:2052fd0000000000000000000000000000000008195343e0000006646fb0400000100323fb
:16531d00c2000000403de050000008180683c040000000e8550025
:2053330000000000000000000000000000000000000200000000000c5e7e3200000000003e
:20535300000000000000000000000000000000019080e03c000000266f9e0410000080083e
:1753730003c000000c03e000000000100b003c400000000205500083
:20538a000000000000000000001c3a968000800001e000800000581000000000000000004e
:2053aa0000000000000000000100000000000001815743e0000026026ab04000000003a3be
:1653ca00c2000000000000000000079882968000000000000000d4
:2053e0000000000000000000000000c168040000000200000000008c0000000000000000f2
:20540000000000000000000000000000000000001080a83c00000260268d040000000000ff
:1754200003c0000000000000000000100542942000000000000000a7
:2054370000000000000000000b800000000000000008f000000000a0000000000000000032
:20545700000000000000000000000000000000071a7f43e0000000006bb040028000a3a34f
:16547700c200000200000000000028018683c00000000000000069
:20548d000000000000000000001880000000010000000f0000040d10000000001000000026
:2054ad000000004000000000000000000000004018a0243c000100026f9e0400040d100012
:1754cd0003c000103c000000000041b081003c2001e000000000000a
:2054e40000000000000000000d8e00000000000000000000000500a36e15000000e001cf32
:205504000408000000000000000000000000040d9b5f03e0000000026ab040004050a3a35b
:16552400c20000000000000000005000fb57c000a0166c180f0004
:20553a0000000000000000002858800000000000000000000000201bd2e01200003600001c
:20555a00f0c0000000000000000000000000000050a0703c00000000278d0400000d9b087d
:17557a0003c0000000000000000002000523d4200400028000f08043
:2055910000000000000000400000000000000000000000000000000d36010200000001cfa4
:2055b10004000000000000000000000000000001805f03e0000014007bb04004000013a3da
:1655d100c200000000400000000001809a000400000000000000a3
:2055e7000000000000000004009000000000000000000000000000005e781000000000002a
:20560700f04800000000000000000000000000000080f03c00000142ae9e040040000908bb
:1756270003c00000003400000000000005c02842080000000000003e
:20563e000000000000000000001e5b6540001f266400000010c00001f7e900410010000083
:20565e000000040000000000000000000000040b187816a0041000027ab0400440000523e7
:16567e00c20001000380aa000004038086968020100100000000d2
:205694000000000000000000280103b66800000a6640000000118000de3db0400000000060
:2056b400000000000000000000000000000000001805a69400000000268d040000000000c8
:1756d40003c000002c0140500040080c054294000000000000000010
:2056eb0000000000000000000180faa5400000a0014ef08000005800000000000000000088
:20570b000000000000000000000000000000002f807056a0000006664ea140000000e723c4
:16572b00c20010006007ca000000001a00000000401e03dfa54026
:20574100000000000000000000000536680000014002c0f0000000000000000000000000b2
:2057610000000000000000000000000000000000f8fb3694100060267dba4400000010004a
:1757810003c10100000000a000020100000000000803e01f98548033
:20579800000000000000000000080303c00000006de8f080380001e0000000000000000045
:2057b80000000000000000000000000000000001017743e00e802604dc05000000800723f2
:1657d800c200e001e38dcc34200005800000000e000006dec3400e
:2057ee000000000000000000000101003c010004028200f0020000100000000000000000d2
:20580e000000000000000000000000000000000008d0343c00840262560f5000000f000086
:17582e0003c00800000060cb7100000000000000800003fcfc140865
:205845000000000000000000000a1aa54080040004c8f08000000009ee0100000000000082
:2058650000000000000000000008800000000080195016a0002000774ec342400071e72159
:165885005400000006000000000200001628000c000003dea540a1
:20589b0000100000000000000050038268000000028000f000000000fb34120000000000ed
:2058bb00000000000000000000000400000000000083a294000003c3bf0c040000009008e3
:1758db0015400000002800000000000000828000c000001fe854809c
:2058f20000000000000000000108000000004020000996800000d800000000000000000036
:2059120000000000000000000000000000000009995383e000200001e8b04000050003e636
:165932000000000063b5b85600000000000000000e0078000000b3
:20594800000000000000000000000000000000014000d69000000500000000000000000093
:20596800000000000000000000000000000000001080e03c000400003fbd040000200b93b1
:17598800400000000000e84740002000000000000000000000000039
:20599f0000000000000000000800bae5400000260068f0800000000966fd00000000000097
:2059bf000000000000000000000000000000010d005f83e000000007c8b040000001eb6ae3
:1659df00040000080346c502000000000000000040a001dea540f2
:2059f500000000000000000000b0dd3268000002600200f000000000f72d70000000000083
:205a1500000000000000000000000000000000005080243c000400023fbe04000180007f3a
:175a3500d0ca40000068305000000000000000000a00c287005408e9
:205a4c000000000000000000051d0000000000006048f080000000ebef81020000000000a3
:205a6c0000000000000000000000000000000000085fc3e000800001f8b040000000e52999
:165a8c0028480008c617ea762000100000000000400006ecf040bd
:205aa20000000000000000000091e00000000000040000f000000700936010000000000075
:205ac2000000000000000000000000000000000010a0203c000403403ebd0400000f10044f
:175ae20012820001264350814000000000000000022003bf0a04109c
:205af90000000000000000000000bafcc0000e200168f080000050000000000000000000c0
:205b1900000000000000000000000000000000099a5fc3e000000003d8b0400000999000d3
:165b3900000000000325cf040000200000000000002438000000df
:205b4f00000000000000000000b007bc0c000002400000f000000080000000000000000005
:205b6f00000000000000000000000000000000001000e43c000800023ebe0400000989004a
:175b8f000000000000435fc048000000000000000001e280000000f2
:205ba6000000000000000000011e3aa1000000003868f080100000ebbf810000000000009a
:205bc6000000000000000000000000000000000d9b5f83e004000021f8b0400000780000d0
:165be60000004000020000000000200000000004001e047a08019e
:205bfc000000000000000000005805fbb4000000000200f000000000936012000000000086
:205c1c000000000000000000000000000000000050a0f03c0000e0003fbd040000008000ec
:175c3c00000000000040000000000400000000000000235f8000000b
:205c5300000000000000000000017703e000000000089688000000000000000000000000b0
:205c7300000000000000000000000000000000a01e7243e000400004da014000000000005f
:165c930000000000001c850c0000700000000001000004000000d9
:205ca90000000000000000000000c0403c08000002c096904000000000000000000000006f
:205cc900000000000000000000000000000000000100643c10000003f690048000000000fd
:175ce900000000000000c005530000300000000010000380000000c9
:205d0000000000000000000007817703e00020200348960038000000000000000000000048
:205d200000000000000000000000000000000000017303e00e014002ca0040000058a000b9
:165d40000000e008001c850c0380000000000000000e21798310fa
:205d560000000000000000000008c0403c000400402cd33002000000000000000000000074
:205d76000000000000000000000000000000000000b0303c0080080017d8040000019000e5
:175d9600000008014002c00541600000000000000003643e8c3000e4
:205dad000000000000000000081f5283e000000e00000000000000000000000000000000ec
:205dcd0000000000000000000000000000000028195016a00c6014696d00480000000000d1
:165ded000000c0080616850e0301a000ff1698008000000e0f013a
:205e0300000000000000000000b180803c0000002000000000000000000000000000000072
:205e230000000000000000000000000000000100f08bbe9400c0002435f404000000000080
:175e430000000c004000c005401001000b8015000000000000f00056
:205e5a00000000000000000009817283e000000000000000000000000000000000000000c9
:205e7a0000000000000000000000000000000008005703e000003e235a0048128000000031
:165e9a00000000026054850c0000000017a954000000780000001f
:205eb000000000000000000000f080c03c0000000000000000000000000000000000000066
:205ed000000000000000000000000000000000001000a83c0000026416d804001000000056
:175ef000000000017c22e00549000000034015000000000000000076
:205f0700040800000000000000007e03e0000000360e0f000000b8100000000000000000f2
:205f27000000000000000000000000000000008380023c000000203ada0140400000100054
:165f470000000000039e850c00000701000000000000000000000a
:205f5d000021000000000000000000003c00000002c400f000000b8d000000000000000079
:205f7d0000000000000000000000000000000000188003c0040000c3f6b0040000000d002b
:175f9d00000000003c40c00541000000e00000000003400000000048
:205fb4000000000000000000001c5a03e00000063e0c0f0100000000000000000000000014
:205fd4000000000000000000000000000000000100000000000000034a00400000700f7828
:165ff400200000000016850c100023010000000000000400000098
:20600a000000000000000000000080403c000000020d00f00000000000000000000000007b
:20602a0000000000000000000000000000000000180000000000000016d806000000803793
:17604a00c00000800002c00540010500f000000000000340000000bf
:20606100040000000000000009985e83e0000020020e0f00000000133a81000000000000ac
:20608100000000000000000000000000000000099c3ea80000000068da014000387001e167
:1660a1000c0800026216850c10000000000000000000047f08002f
:2060b7000020000000000000001000803c000003432d00f010000009b72410200000000056
:2060d7000000000000000000000000000000000011000280200000040eb0040000008fb8e9
:1760f700204000000400e00540000000000000000002434fd0001095
:20610e00000000000000000008187e03e000000000000000100000000000000000000000e0
:20612e00000000000000000001000000000000000000000004000e3beab040000001c06008
:16614e003cc44002061e850c0100000b00000000008000080f00a1
:206164000000000000000000001000c03c000000000000000000000000000000000000000f
:2061840000000000000000000010000000000000000000000000000015df060000001000e1
:1761a40003c000000402e00541000000a00000000014038100f0804d
:2061bb000000000000000000001c7783e000000004000000000000000000000000000000ca
:2061db000000000000000000000000000000000001000000000000000000000008000bfa96
:1661fb0094000000003c850c00000800b7005000a036056a0800d1
:206211000000000000000000000000403c10000002c000000000000000000000000000001f
:206231000000000000000000000000000000000000b00000000003400000000000000090ca
:176251002a8000000001c005640000100b600c00000043d5f00000d3
:20626800000000000000000008007703e00e003e781e0f00000000000000000000000000c3
:2062880000001280000000000000000000038000000000000e00000041a55000000010008d
:1662a8000000e810003c850c03800f80f70014000000281a0f01ac
:2062be000000000000000000009000403c008001c40c00f000000000000000000000000073
:2062de000000008000000000000000000000200000900000008000001cc8100000000a00f2
:1762fe00000008408000c005412000180b7284400000078100f000ca
:2063150000000000000000000000323c200400407bdc9502000000000000000000000000a8
:206335000000000000000000000000000001000008f6a95000008000000000000059e00097
:166355000000c0000674850c0003800100000000003e016f240011
:20636b00000000000000000000000003c040c00a401e09a00000000000000000000000003e
:20638b0000000000000000000000000000003000010bc015200000000000000000001000b1
:1763ab00000004000021e00541000000d00000000001436ed25000ec
:2063c2000000000000000000038f5a3ea010020000000000000000000000000000000000df
:2063e20000000000000000000000000000000000001bb09000000000000000000000000040
:16640200000020006074850c0000000800000000000022588002fb
:20641800000000000000000000009b002800000000000000000000000000000000000000a1
:20643800000000000000000000000000000000000090ff092000000000000000001000007c
:17645800000000000020e00541000000000000000000c6dd00000044
:20646f000000000000000000078c5a3c2000000600000000000000000000000000000000be
:20648f0000000000000000000000000000000000000000000000200200a540800000000066
:1664af0000000008007e850c102087009afdd0400020044f0800e7
:2064c500000000000000000000080083c04000e0000000000000000000000000000000004c
:2064e5000000000000000000000000000000000070000000000801401c05a4000000000019
:17650500000000010031c005400000080d63d5200003c36cd00000d9
:20651c00000000000000000000005a3c2000000e0258014000000000000000000000000000
:20653c000000001000000000000000000000000001b7805000001e00000000000210000077
:16655c0000000001c036850c100000080000000000000400000085
:20657200000000000000000000008083c02000002026a0041000000000000000000000002c
:206592000000000200000000000000000000000000ad3c01040a002000000000004080000f
:1765b200000000000200c00540000001e000000000000340000000a7
:2065c90000000000000000000980123c2020000002780040000000000000000000000000e1
:2065e900000000000000000000000000000000001f00000000002000eeaf50000000000066
:16660900000010026036850c000001800000000040202000000041
:20661f00000000000000000000100083c000000002c5980410000000000000000000000095
:20663f000000000000000000000000000000000001e00000000002c00c05a01000000000d7
:17665f00000001000401e00541000000000000000802c4000000002a
:20667600000000000000000000001a3c202400160000000000000000000000000000000054
:206696000000020000000000000000000001000700fa001024000c0000000000280005284b
:1666b60028004003c63e850c01000000000000000c0000c91008e0
:2066cc00000000000000000000008003c0000000200000000000000000000000000000004b
:2066ec0000000000000000000000040000000000080d7d01000000000000000000070008e8
:17670c00028000000600e00541000000000000000002401590009849
