:02000000ff00ff
:080002004c6174746963650030
:17000a00694345637562653220323032302e31322e32373934330071
:15002100506172743a2069434534305550354b2d53473438002c
:1a003600446174653a204f6374203720323032352030303a32393a313500ad
:0200500000ffaf
:040052007eaa997e6b
:02005600510057
:020058000105a0
:03005a00920020f1
:03005d006202b389
:03006000720150da
:0300630082000018
:02006600110087
:02006800010194
:20006a00000000000000000000000010000000000000400000000000010000000000000421
:20008a000000000000001000000000000040000000001000000000000040000000000001b5
:1600aa0000000000000004000000000000100000000000004000ec
:2000c0000000000000000000000000020000000000000800000000000020000000000000f6
:2000e00080000000000002000000000000080000000002000000000000080000000000006c
:1701000020000000000000800000000000020000000000000800003e
:200117000000000000000000000000000000000000000000000000000000000000000000c8
:200137000000000000000000000000000000000000000000000000000000000100000000a7
:160157000000000000000000000000000000000000000000000092
:20016d00000000000000000000000000000000000000000000000000000000000000000072
:20018d00000000000000000000000000000000000000000000000000000000000000000052
:1701ad0010000000000000000000000000000000000000000000002b
:2001c40000000000000000000000000000000000000000000000000000000000000000001b
:2001e4000000000000000000000000000000000000000000000000000000000000000000fb
:1602040000000000000000000000000000000000000000000000e4
:20021a000000000000000000000000000000000000000000000000000000000000000000c4
:20023a000000000000000000000000000000000000000000000000000000000000000000a4
:17025a0000000000000000000000000000000000000000000000008d
:2002710000000000000000000000000000000000000000000000000000000000000000006d
:20029100000000000000000000000000000000000000000000000000000000010000040048
:1602b1000000000000000000000000000000000000000000000037
:2002c700000000000000000000000000000000000000000000000000000000000000000017
:2002e7000000000000000000000000000000000000000000000000000000000000000000f7
:170307000000000000000000000000000000000000000000000000df
:20031e000000000000000000000000000000000000000000000000000000000000000000bf
:20033e000000000000401000000000000000000000401000000000010040000000000800b6
:16035e000000000000000000000000000000000000000000000089
:20037400000000000000000000000000000000000000000000000000000000000000000069
:20039400000000000000000000000000000000000000000000000000000000000000000049
:1703b400000000000000000000000000000000000000000000000032
:2003cb00000000000000000000000000000000000000000000000000000000000000000012
:2003eb000000000000000000000000000000000000000000004000000000000000000000b2
:16040b0000000000000000000000000000000000000000000000db
:200421000000000000000000000000000000000000000000000000000000000000000000bb
:2004410000000000000000000000000000000000000000000000000000000000000000009b
:1704610000000000000000000000000000000000000000000c000078
:20047800000000000000000000000000000000000000000000000000000000000000000064
:20049800000000000000000000000000000000000000000000000000000000000000000044
:1604b8000000000000000000000000000000000000070000000027
:2004ce0000000000000000000000000000000000000000000000000000000000000000000e
:2004ee000000010000000000000000000000010000100000000400000000000000000000d8
:17050e000000000000000000000000000000000000000000000000d6
:200525000000000000000000000000000000000000000000000000000000000000000000b6
:20054500000000000040000000000000000000000040000000000001000000000000000015
:16056500000000000000000000000000010000000000000000007f
:20057b00000000000000000000000000000000000000000000000000000000000000000060
:20059b00000000000010000000000000000000000000000000000000000000000000000030
:1705bb00000000000000000000000000000000000000000000000029
:2005d200000000000c302000000000000000000000000000000000000000000000000000ad
:2005f2000000000000000000000000000000000000000000000000000000000000000000e9
:1606120000000000000000000000000000000000000000000000d2
:200628000000000000c30000000000000000000000000000000000000000000000000000ef
:20064800000000000000000000000000000000000000000000000000000000000000000092
:1706680000000000000000000000000000000000000000000000007b
:20067f00000000000c302000000000000000000000000000000000000000000000000000ff
:20069f0000000000000000000000000000000000000000000000000000000000000000003b
:1606bf000000000000000000000000000000000000000000000025
:2006d5000000000000c3000000000000000000000000000000000000000000000000000042
:2006f5000000000000000000000000000000000000000000000000000000000000000000e5
:170715000000000000000000000000000000000000000000000000cd
:20072c00000000000c30200000000000000000000000000000000000000000000000000051
:20074c0000000000000000000000000000000000000000000000000000000000000000008d
:16076c000000000000000000000000000000000000000000000077
:200782000000000000c3000000000000000000000000000000000000000000000000000094
:2007a200000000000000000000000000000000000000000000000000000000000000000037
:1707c200000000000000000000000000000000000000000000000020
:2007d900000000000c302000000000000000000000000000000000000000000000000000a4
:2007f9000000000000000000000000000000000000000000000000000000000000000000e0
:1608190000000000000000000000000000000000000000000000c9
:20082f000000000000c30000000000000000000000000000000000000000000000000000e6
:20084f00000000000000000000000000000000000000000000000000000000000000000089
:17086f00000000000000000000000000000000000000000000000072
:20088600000000000c302000000000000000000000000000000000000000000000000000f6
:2008a600000000000000000000000000000000000000000000000000000000000000000032
:1608c600000000000000000000000000000000000000000000001c
:2008dc000000000000c3000000000000000000000000000000000000000000000000000039
:2008fc000000000000000000000000000000000000000000000000000000000000000000dc
:17091c000000000000000000000000000000000000000000000000c4
:20093300000000000c30200000000000000000000000000000000000000000000000000048
:20095300000000000000000000000000000000000000000000000000000000000000000084
:16097300000000000000000000000000000000000000000000006e
:200989000000000000c300000000000000000000000000000000000000000000000000008b
:2009a90000000000000000000000000000000000000000000000000000000000000000002e
:1709c900000000000000000000000000000000000000000000000017
:2009e000000000000c3020000000000000000000000000000000000000000000000000009b
:200a00000000000000000000000000000000000000000000000000000000000000000000d6
:160a200000000000000000000000000000000000000000000000c0
:200a36000000000000c30000000000000000000000000000000000000000000000000000dd
:200a5600000000000000000000000000000000000000000000000000000000000000000080
:170a7600000000000000000000000000000000000000000000000069
:200a8d00000000000c302000000000000000000000000000000000000000000000000000ed
:200aad00000000000000000000000000000000000000000000000000000000000000000029
:160acd000000000000000000000000000000000000000000000013
:200ae3000000000000c3000000000000000000000000000000000000000000000000000030
:200b03000000000000000000000000000000000000000000000000000000000000000000d2
:170b23000000000000000000000000000000000000000000000000bb
:200b3a00000000000c3020000000000000000000000000000000000000000000000000003f
:200b5a0000000000000000000000000000000000000000000000000000000000000000007b
:160b7a000000000000000000000000000000000000000000000065
:200b90000000000000c3000000000000000000000000000000000000000000000000000082
:200bb000000000000000000000000000000000000000000000000000000000000000000025
:170bd00000000000000000000000000000000000000000000000000e
:200be700000000000c30200000000000000000000000000000000000000000000000000092
:200c07000000000000000000000000000000000000000000000000000000000000000000cd
:160c270000000000000000000000000000000000000000000000b7
:200c3d000000000000c30000000000000000000000000000000000000000000000000000d4
:200c5d00000000000000000000000000000000000000000000000000000000000000000077
:170c7d00000000000000000000000000000000000000000000000060
:200c9400000000000c302000000000000000000000000000000000000000000000000000e4
:200cb40000000000000000000000000000000000000000000000000000000004000000001c
:160cd400000000000000000000000000000000000000000000000a
:200cea000000000000c3000000000000000000000000000000000000000000000000000027
:200d0a000000000000000000000000000000000000000000000000000000000000000000c9
:170d2a000000000000000000000000000000000000000000000000b2
:200d4100000000000c30200000000000000000000000000000000000000000000000000036
:200d6100000000000000000000000000000000000000000000000000000000000000000072
:160d8100000000000000000000000000000000000000000000005c
:200d97000000000000c3000000000000000000000000000000000000000000000000000079
:200db70000000000000000000000000000000000000000000000000000000000000000001c
:170dd700000000000000000000000000000000000000000000000005
:200dee00000000000c30200000000000000000000000000000000000000000000000000089
:200e0e000000000000000000000000000000000000000000000000000000000000000000c4
:160e2e0000000000000000000000000000000000a000000000000e
:200e44000000000000c30000000000000000000000000000000000000000000000000000cb
:200e640000000000000000000000000000000000000000000000000000000000000000006e
:170e8400000000000000000000000000000000000000000000000057
:200e9b00000000000c302000000000000000000000000000000000000000000000000000db
:200ebb00000000000000000000000000000000000000000000000000000000000000000017
:160edb000000000000000000000000000000000000000000000001
:200ef1000000000000c300000000000000000000000000000000000000000000000000001e
:200f11000000000000000000000000000000000000000000000000000000000000000000c0
:170f31000000000000000000000000000000000000000000000000a9
:200f4800000000000c3020000000000000000000000000000000000000000000000000002d
:200f6800000000000000000000000000000000000000000000000000000000000000000069
:160f88000000000000000000000000000000000000000000000053
:200f9e000000000000c3000000000000000000000000000000000000000000000000000070
:200fbe00000000000000000000000000000000000000000000000000000000000000000013
:170fde000000000000000000000000000000000000000000000000fc
:200ff500000000000c30200000000000000000000000000000000000000000000000000080
:201015000000000000000000000000000000000000000000000000000000000000000000bb
:1610350000000000000000000000000000000000000000000000a5
:20104b000000000000c30000000000000000000000000000000000000000000000000000c2
:20106b00000000000000000000000000000000000000000000000000000000000000000065
:17108b0000000000000000000000000000000000000000000000004e
:2010a200000000000c302000000000000000000000000000000000000000000000000000d2
:2010c20000000000000000000000000000000000000000000000000000000000000000000e
:1610e20000000000000000000000000000000000000000000000f8
:2010f8000000000000c3000000000000000000000000000000000000000000000000000015
:201118000000000000000000000000000000000000000000000000000000000000000000b7
:171138000000000000000000000000000000000000000000000000a0
:20114f00000000000c30200000000000000000000000000000000000000000000000000024
:20116f0000000000000000000000000000000000000000000e00000200a5408000000000eb
:16118f000000e0000000000003800000002950000000000000006e
:2011a5000000000000c3000000000000000000000000000000000000000000000000000067
:2011c5000000000000000000000000000000000000000000008000001c05a00000000000c9
:1711e50000000800000000000020000003016804000000000000005b
:2011fc00000000000c30200000000000000000000000000000000000000000000000000077
:20121c000000000000000000000000000000000000000000000000000000000000000000b2
:16123c000000000040000a540000000000000000000000000000fe
:201252000000000000c30000000000000000000000000000000000000000000000000000b9
:2012720000000000000000000000000000000000000000000000000000000000000000005c
:17129200000000000001405a010000000000000000000000000000a9
:2012a900000000000c302000000000000000000000000000000000000000000000000000c9
:2012c900000000000000000001000000000000000000000000000000000000000000000004
:1612e90000000000000000000000000000000000000000000000ef
:2012ff000000000000c300000000000000000000000000000000000000000000000000000c
:20131f0000000000000000000010000000000000000000000000000000000000000000009e
:17133f00000000000000000000000000000000000000000000000097
:20135600000000000c3020000000000000000000000000000000000000000000000000001b
:20137600000010000000000000000000000000000000000000000000000000000000000047
:1613960000000000000000000000078000000000000000000000ba
:2013ac000000000000c300000000000000000000000000000000000000000000000000005e
:2013cc0000000280000000000000000000000000000000000000000000000000000000007f
:1713ec000000000000000000000000000000000000000000000000ea
:20140300000000000c3020000000000000000000000000000000000000000000000000006d
:201423000000000000000000000000000000000000000000000000000000000000000000a9
:161443000000000000000000000000000000000000000000000093
:201459000000000000c30000000000000000000000000000000000000000000000000000b0
:20147900000000000000000000000000000000000000000000000000000000000000000053
:1714990000000000000000000000000000000000000000000000003c
:2014b000000000000c302000000000000000000000000000000000000000000000000000c0
:2014d0000000000000000000000000000000000000000000000000000000000100000000fb
:1614f00000000000000000000000000000000000000000000000e6
:201506000000000000c3000000000000000000000000000000000000000000000000000002
:20152600000000000000000000000000000000000000000000000000000000002000000085
:1715460000000000000000000000000000000000000000000000008e
:20155d00000000000c30200000000000000000000000000000000000000000000000000012
:20157d0000000000000000000000000000000000000000000000000000000000000000004e
:16159d000000000000000000000000000000000000000000000038
:2015b3000000000000c3000000000000000000000000000000000000000000000000000055
:2015d3000000000000000000000000000000000000000000000000c0000000000000000038
:1715f3000000000000000000000000000000000000000000000000e1
:20160a00000000000c30200000000000000000000000000000000000000000000000000064
:20162a000000000000000000000000000000000000000000000000000000000000000000a0
:16164a00000000000000000000000000000000000000000000008a
:201660000000000000c30000000000000000000000000000000000000000000000000000a7
:2016800000000000000000000000000000000000000000000000000000000000000000004a
:1716a000000000000000000000000000000000000000000000000033
:2016b700000000000c302000000000000000000000000000000000000000000000000000b7
:2016d7000000000000000000000000000000000000000000000000000000000000000000f3
:1616f7000000e000000000000000000000000000000000000000fd
:20170d000000000000c30000000000000000000000000000000000000000000000000000f9
:20172d0000000000000000000000000000000000000000000000000000000000000000009c
:17174d0000000800000000000000000000000000000000000000007d
:20176400000000000c30200000000000000000000000000000000000000000000000000009
:20178400000000000000000000000000000000000000000000000000000000000000000045
:1617a400000000000000000000000000000000000000000000002f
:2017ba000000000000c300000000000000000000000000000000000000000000000000004c
:2017da000000000000000000000000000000000000000000000000000000000000000000ef
:1717fa00000000000c000000000000000000000000000000000000cc
:20181100000000000c3020000000000000000000000000000000000000000000000000005b
:20183100000000000000000000000000000000000000000000000000000000000000000097
:161851000000000000000000000000000000000000000000000081
:201867000000000000c300000000000000000000000000000000000000000000000000009e
:20188700000000000000000000000000000000000000000000000000000000000000000041
:1718a70000000000000000000000000000000000000000000000002a
:2018be00000000000c302000000000000000000000000000000000000000000000000000ae
:2018de000000000000000000000000000000000000000000000000000000000000000000ea
:1618fe00000000000000af04100000000000000000000000000011
:201914000000000000c30000000000000000000000000000000000000000000000000000f0
:20193400000000000000000000000000000000000000000000000000000000000000000093
:1719540000000000000000f00000000000000000000000000000008c
:20196b00000000000c30200000000000000000000000000000000000000000000000000000
:20198b0000000000000000000000000000000000000000000000000000000000000000003c
:1619ab000000000000000000000000000000000000000000000026
:2019c1000000000000c3000000000000000000000000000000000000000000000000000043
:2019e1000000000000000000000000000000000000000000000000000000000000000000e6
:171a01000000000000000000000000000000000000000000000000ce
:201a1800000000000c30200000000000000000000000000000000000000000000000000052
:201a380000000000000000000000000000000000000000000000000000000000000000008e
:161a58000000000000000000000000000000000000000000000078
:201a6e000000000000c3000000000000000000000000000000000000000000000000000095
:201a8e00000000000000000000000000000000000000000000000000000000000000000038
:171aae00000000000000000000000000000000000000000000000021
:201ac500000000000c302000000000000000000000000000000000000000000000000000a5
:201ae5000000000000000000000000000000000000000000001000000000000000000000d1
:161b050000000100000000000004000000000000000000000000c5
:201b1b000000000000c30000000000000000000000000000000000000000000000000000e7
:201b3b0000000000000000000000000000000000000000000000000000000000000000008a
:171b5b00000000000000000000000000000000000000000000000073
:201b7200000000000c302000000000000000000000000000000000000000000000000000f7
:201b9200000000000000000000000000000000000000000000000000000000000000000033
:161bb2000000000800000000000000000000000000000000000015
:201bc8000000000000c310000000000000000000000000000000000000000000000000002a
:201be8000000000000000000000000000000000000000000000000000000000000000000dd
:171c08000000000000000000000000000000000000000000000000c5
:201c1f00000000000c30200000000000000000000000000000000000000000000000000049
:201c3f0000000000000000000000000000000000000000000000000000000038000000004d
:161c5f000000e0000000000000000000000000000000000000008f
:201c75000000000000c310000000000000000000000000000000000000000000000000007c
:201c950000000000000000000000000000000000000000000000000000000002000000002d
:171cb5000000080014000000000000000000000000000000000000fc
:201ccc00000000000c30200005000000000000000000000000000000000000000000000097
:201cec000000000000000000000000000000000000000000000000000000003000000000a8
:161d0c0000000000000000000000000000000000000000000000c1
:201d22000000000000c30100000800000000000000000000000000000000000000000000d5
:201d4200000000000000000000000000000000000000000000000000000000010000000080
:171d620000000000000000000000000000000000000000000000006a
:201d7900000000000c302000000000000000000000000000000000000000000000000000ee
:201d99000000000000000000000000000000000000000000000000000000000000800000aa
:161db9000000000000000000000000003ba8001000000000000021
:201dcf000000000000c3010000000000000000000000000000000000000000000000000030
:201def000000000000000000000000000000000000000000000000000000000000090000cb
:171e0f000000000000000000000000000042800000000000000000fa
:201e2600000000000c30300000000000000000000000000000000000000000000000000030
:201e460000000000000000000000000000000000000000000000000000000000000010006c
:161e66000000000000000000000000000000000000000000000066
:201e7c000000000000c300004000000000000100000000000004000000000000100000002e
:201e9c000000004000000000000000000000004000000000000100000000000004000c0095
:171ebc000000001000000000000040000000000001000000000000be
:201ed300000000000c30300000007a95400000000000000000000000000000000000000034
:201ef3000000000000000000000000000000000000000000000000000000000000000000cf
:161f13000000000000018f04000000000000000000000000000024
:201f29000000000000c3000000000f81544000880000000000000000000000000000000029
:201f4900000000000000000000000000000000000000000000000000000000000000000078
:171f690000000000000000f0000000d00000000000000000000000a1
:201f8000000000000c303000000100000000000000000000000000000000000000000000d4
:201fa0000000000000000000000000000000000000000000000000000000000000000feb27
:161fc000d5000000000000000003001c0000000010000000000007
:201fd6000000000000c300000000c000000000000000000000000000000000000000000068
:201ff600000000000000000000000000000000000000000000000000000000000000007853
:17201600014000000000000000000001000000000000000000000071
:20202d00000000000c322004000a00000000110000000000004000000000000100000000d5
:20204d000000040000000000000000000000040000000000001000000000000040581000b3
:16206d000000410000000000000400000000000010000000000008
:202083000000000000c30000000100000000008000000000000000000000000000000000f9
:2020a300000000000000000000000000000000000000000000000000000000000000080015
:1720c300000000000000000000000000000000000000000000000006
:2020da0001000037ac322000000000000000000000000000000000000000000000000000b0
:2020fa000000000000000000000000000000000000000000000000000000000000000000c6
:16211a0000000001460000000000018000000000000000000000e7
:202130000010000040c300000000000000000000000000000000000000000000000000007c
:2021500000000000000000000000000000000000000000000000000000000000000000006f
:1721700000000000362c0000000000000000000000000000000000f6
:20218700000000018c322380000007bc100000000000000000800000000000000000000083
:2021a70000000000000000000000000000000000000000000e0000001ef060b800000000e4
:1621c7000000e000028480a0038800003f80100e00000000000014
:2021dd0000001c0000c3002000000003c1050000000000000000000000000000000000001a
:2021fd00000000000000000000000000000000000000000000800000000f000200000a0027
:17221d0000000800046c100a002000000180280080000000000000cf
:2022340000000001ac3023000000000000000000000000000000000000000000000000008a
:2022540000000000000000000000000000000000000000000000000000000000000000006a
:1622740000000000003684002000000083c4100c00000000000017
:20228a000000000000c3013000000000000000000000000000000000000000000000000040
:2022aa00000000000000000000000000000000000000000000000000000000000000000014
:1722ca00000000001c0250002940000007748000000000000000002b
:2022e100010000018c302000000000000000000000000000000000000000000000000000ff
:202301000000000000000000000000000000000000000000000000000000000000180000a4
:1623210000004001402ce080000000000000000000000000000099
:2023370000001c0000c3010000000000000000000000000000002000000000000000000086
:202357000000000000000000000000000000000000000000000000000000000000008000e6
:172377000000000034026800000000000000000000000000000000b1
:20238e00000000000c303000000000000000000000000000000000000000000000000000c3
:2023ae0000000000000000000000000000000000000000000000000000000000000000000f
:1623ce00000000e0007eb0040000000000000000001400000000d3
:2023e4000000000000c3000000000000000000000000000000000000000000000000000016
:202404000000000000000000000000000000000000000000000000000000000000000000b8
:172424000000000000296820000000000000000000014000000000af
:20243b00000000000c30300000000000000000000000000000000000000000000000000015
:20245b00000000000000000000000000000000000000000000000000000000000000000061
:16247b00000000140000000000000000000000000000000cf060db
:202491000000000000c3000000000000000000000000000000000000000000000000000068
:2024b10000000000000000000000000000000000000000000000000000000000000000000b
:1724d100000000008000000000000000e0000000000000000f040081
:2024e800000000000c30300000080000000000000000000000000000000000000000000060
:202508000000000000000000000000000000000000000000000000000000000000000000b3
:16252800000000016000000000000001000000000000000cf040ff
:20253e000000000000c30000000000000000000000000000000000000000000000000000ba
:20255e0000000000000000000000000000000000000000000000000000000000000100005c
:17257e0000000000000000000000000080000000000000000f048033
:20259500000000018c302100058000000000000000000000000000000000000000000000c3
:2025b500000000000000000000000000000000000000000000000c0000000010000005e302
:1625d500c1000a04004000000100070000000004000000000000d5
:2025eb000000000000c30040000800000000000000000000000000000000000000000000c5
:20260b0000000000000000000000000000000000000000000000000000000000000000743b
:17262b002a800040802400000000000000000000000000000000000a
:202642000000001fec3020014000000000000014000000000000000377dd40000000000031
:2026620000000000003840200000000000000000000000000000203b48e560000171adf1c8
:1626820054010002060ca0040002018006bc1020000001c066d0c9
:202698000010403e40c300000200000000000000200000000000000077fc7000000000008c
:2026b800000000000000b800000000000000000000000000000001c43d8fe010000090d069
:1726d800168440000400700a000000100003c00000000000d6640086
:2026ef0000000014ac30200000000000000e0020000000003800800778094000000000000d
:20270f000003800000723c302000000000038000000000000e000000000000000080000018
:16272f000000e806001ce00403800b81b702000e040401c896d099
:202745000000000000c300000000000000008003c00000000200050037a0d00000000000c0
:20276500000020000000003d00000000000020300000000000800000000000000007000020
:17278500000008409c035005002000188134000080002000d96480b7
:20279c000000601fec30200000000000000000000000000000000000000000000000000062
:2027bc000000000019523c3000000000000000000002bc18000020340000000400000000f8
:1627dc0000000000000ca004000001003f82800c000001e896c0aa
:2027f2000000020000c3000000000000000000000000000000000000000000000000000002
:20281200000000000080803d000000000000000000d043c1000003c6c000000040000000cc
:1728320000000000002ef00a000004000000280000000000d96500fd
:2028490001000014ac3020000000000000000020000000000000000000000000000000003e
:202869000000000180523c3000a00000000000000000000000000004000000000080a0004c
:1628890000000014661d84240000080a1e1fc080400001e896c0ec
:20289f000000000000c300000000000000000001c2c00000000000000000000000000000d3
:2028bf00000000000000803d0004000000000000000000000000000200000000000900002d
:1728df0000000000140369a0090002d10143fc000a000000d96480df
:2028f6000000001fec3020000000000000002000037bf740000078000000000000004000da
:2029160000000000007a3c30000000000000000000000000000000000000000000000000bb
:162936000000000002eca0040000058a7702800000006de996e0a5
:20294c000000000000c3000000000000000004000005df2c0000000000000000000028006c
:20296c00000000000000003d0000000000000000000000000000000000000000000000000e
:17298c00000000000020f00a000000500168100000000280d9640092
:2029a30000000014ac302000000000000000000000000000000000a0000000000160000003
:2029c300000000001c5a3c30000000000000000000000000000000600af06000005801f807
:1629e300200000e2007fa5540008059a7f02800000806de996e070
:2029f9000000000000c3000000000000000000000380000000000010000000000000000068
:202a1900000000000100003d0000000000000000000000000000e000010f0c0000000092d1
:172a390000000002042160a541800050a0c0280000140280d96400ee
:202a50000800001fec3020000000000000000000025ba741000070000000000000068000c8
:202a70000000100180723c20000000000000000000000000000000036a40400000000000fa
:162a90000000000062aca00400002801b38000800036006996c0ad
:202aa6000000000000c3000200000000000000000004df7c00000d8000000000000000005f
:202ac60000000200d000003c000000000000000000000000000000403f8a42040010000083
:172ae600000000000002f00a00000150ad40080000014000d9648891
:202afd0000000000ac302000000000000004000000000000100000e063c1800002003cd017
:202b1d008011000f187a3c30400000000001000000000000040000385f0760c000100000e7
:162b3d00000040100616e0040000080a00000004003621e996c086
:202b53000000040000c3000000000000000000000000000000000000003c3000001401fc1e
:202b7300000040001000803d000000000000000000000000000000041dd020041000800090
:172b93000000000000437005000000500000000000014402d964900f
:202baa00000000000c302000010000000000000001eef080000080000000000000001f941c
:202bca003400000000723c30000000000000000301000000000000000000000000001000c5
:162bea0000000002406eb0800008210a16000000000001c896c08d
:202c00000010000000c3000000000000000000000000c0f000000f0000000000000002d947
:202c2000c34000000000003d100000000000000000800000000000000000000000000f00b5
:172c4000000000001e2bcc0000000098fb60100000000000d965c067
:202c5700000000000c302000000e0000000001140068f0803800800761c104e00002c0007f
:202c770000038000003a3c200000000000038000000000000e000030000000000051b96ced
:162c970020000000002e820020000d881302800e040401c896e0b8
:202cad000004000000c30000000000000000000b624200f0020005003a84100800002400a0
:202ccd00000020000000803c000000000000200000000000008000040000000000000a3b22
:172ced00400000000001f0a5000000110040280080002000d9648024
:202d0400000000000c30200000000000000000800068f080000081b329c14000000000009d
:202d24000000000001523c3000000000000000000112bed4400000000000000000000de0fe
:162d44009408002a0045e0b2240000181ff0000c000001e896c046
:202d5a000000000000c300000000b0000000000002c000f000000f0af6081000000000000d
:202d7a00000000000080803d000000000000000000fb656c010000000000000000200050bf
:172d9a000fc000017c24d00f110000010f2b080000000000d96580c1
:202db100000400000c30200000007b0200000000000996800000580000000000000280002c
:202dd10000000005805a1540000000000000000000000000000020600000000280f00000bc
:162df10000000043e00cfc710000018116080880020001e896c0c7
:202e07000000000000c300000000076c3001000002c0b6900000000000000000000000003c
:202e27000000000000000154000000000000000000000000000001c00000000010078000de
:172e4700000000001c004fc3080000009980002100000000d96500c6
:202e5e00000000000c302040080800000000003c0148f080000078000000000000068000b5
:202e7e00000000000000000000000000000000000100000000000000000000000000000033
:162e9e0000000062005da0800000019a1300000000006de996c0e5
:202eb4000000000000c300000090e00000000000c00200f0000000000000000000002800f1
:202ed4000000000000000000000000000000000000f00000000000000000000000000000ee
:172ef40000000000143c4d0000000090a730800000000280d9650083
:202f0b00000000000c30202800003b20002000000068f0800000000729c10000000036c4e4
:202f2b0034000000000000000000000000000000000000000006000600a54002801080004f
:162f4b00000000a0e057c4302002001bbfa0000044006de996c118
:202f61000004000000c300000070ed6000000000000000f0000000003e841040000001fdcc
:202f8100c340000000b00000000000000000003800000000000000022405a50012019000d2
:172fa100000000003e2b404200000000abb800000a040280d96400fe
:202fb800000000000c302008080000000000002000c8f080000000a33bc500000000000092
:202fd800000000080000000000000000000040000000000000000003fa0040000000000054
:162ff80000000002600000000000051b37b040800036006996c1a4
:20300e000000000000c3000300b0000000000000c00000f000000d10f23ef000000000003f
:20302e000000000010000000000000000000000000000000000000002c00a00000010000a5
:17304e00000000001c00000000000050a083040000014000d964005a
:20306500081400000c3020000300bb350000001c01e8f0801000000769c1004000000000ea
:203085000001000000000000000000000001000000000000040020021b104000000001f4a3
:1630a500400400020700000000000d80d7820004003621e996c048
:2030bb000000000000c30000000809b45c010002c00000f0000000003a841020001400005c
:2030db000000000000000000000000000000000000000000000002c015e200000380007a1f
:1730fb0040000000047c0000000000500dbc000000014402d96480e1
:20311200000000000c30201020000000000000002009968000040005683e0000080000001b
:203132000000000000000000000000000000000900138018000020000000000002019b23e8
:16315200bd400000064000000000000000000000000001c896d8ed
:203168000000400000c3000000000000000000000400c690400020000403c0800100000042
:203188000000000000a0000000000000000000001001402800000140000000000051193f24
:1731a80023c4402000780000000000000000000000000000d96440d4
:2031bf00020000000c30238000000000000000142b68960000008007603e00e000000000cd
:2031df00000000001b1b280000000000000380500007bc1800000000000000380078000014
:1631ff000000e0060056ae05000000000000000e000401c896c09a
:203215000044000000c3002000000000000000002434d33000000b000003c0080000380009
:203235000000000000a082800000000000002002000043c1000000000000000200000000af
:17325500000008009c3e5c80804000000000000088042000d964807b
:20326c00000000000c3021000008f7691000000003f8e20000008195383e000000601dc9be
:20328c006404000001d6008080000000000000078000000000000000000000000001a7268e
:1632ac00bd00000402800000000000000000000c000001e896c07e
:2032c2000000000000c3003200010fb5f10400000217f8b0000001080803c0000002003076
:2032e2009640000050abc0000000000000000000080000000000000000000000000019df3b
:173302001bc0000080280000000000000000000000000000d96400f4
:20331900000400000c302000000000000000000e01ec000040001805303e0000000000006e
:2033390000000000000000000000000000000000095af818200000280000000000301ba4ca
:1633590005820021c01f810600088000ff420010408001e896c078
:20336f000000000000c300000000000000000060225ff0108000000e0c03c0000000380005
:20338f000000000000e00000000000000000000001f1ae00200000028000000000000fd617
:1733af0002c01000000359a1010100000f34000000000000d9648036
:2033c600000000000c30201000000000000000007b49e20000007807b03e00000000400028
:2033e600000000080056c080000000000000000000000000000000016f0820403080e802b7
:16340600950400006000000000000000000000000a006de996c001
:20341c000000000000c30000000000000000000006d7e8b00000000f0003c000000028005e
:20343c0000000000900978000000000000000000000000000000000007b000000001005057
:17345c0016900000003c0000000000000000000000000280d96400b8
:20347300000000000c302000078000000000a0b422fb9500010001e5f03e0000000641cf25
:20349300041000000000000000000000000000000000000000000000000000000001900074
:1634b300000000000004ee541000081a0000000040006de996c09f
:2034c9000004000000c300000008d00000000056c66ee9a00028000f0403c00000002410ff
:2034e900f0c0000000c000000000000000000000000000000000000000000000000f08003c
:1735090000000008003f79fe200000500000000000000280d96400be
:20352000000000000c302000000000000000000426f8e200040018e7f03e000000005fa4f7
:203540003400000000000000000000000000000000000000000000040000000008001d27e7
:163560008140000003a4b014100000000000000000b6006996c0a4
:203576000000000000c3000200008000000000036714e8b000400f100c03c000000022dab0
:20359600c340000000000000000000000000000000e0000000000002800000000000083f69
:1735b6006000500000407d0b200000000000000000014000d96400e8
:2035cd00001400000c302100001c0000000000447000000000008197b83e0040020026d156
:2035ed00c40000018000000000004000000100001e00000000010000000000128000017610
:16360d0085004001c61ec4041000058100000004003621e996c005
:203623000000000000c30000000100000000000166800000000001080c03c000001401fdf2
:203643003c40800008000000000008000000000000000000000008000000000010000093b0
:1736630040805000020379a400000000a000000000014402d96400fa
:20367a00000000000c3220000f803f70900080002a5a424000020005683e00000000400091
:20369a000000002001000000000000000000000000000000000000000000000000001000df
:1636ba00000000000285b0800000000000000000000001c896c024
:2036d0000000000000c3000200f8db6b69060000001fa8240003c70e0403c10000002400b9
:2036f0000000000100d00000000000000000000000000000000000000000000000050d00d7
:17371000000000000003fb00000000000000000000000000d9644027
:20372700000000000c3223800f80936d500e008000000000020059a7203e00040000349606
:2037470030038000000000000000000000000000000000000e0000000000000000000000a1
:1637670000000001403ec430200000000000000e000001c896c08c
:20377d000000000000c3002000f80bf0d12480124240000000018d000403c0002000017f58
:20379d00c301200000000000000000000000000000000000008000000000000000000000a8
:1737bd00000000080003e003000000000000000080000000d964004a
:2037d400000000000c30230000003f3090004014000000000000800723c280000007000030
:2037f40000000000000000000000000000004020000000000000000000000000009880003d
:163814000000000000000000000000000000000c000001e896c053
:20382a000000000000c3007000000b6369240a000000000000000100003c000000004000c9
:20384a000000000000a000000000000000000405000000000000000000000000000b80002a
:17386a000000000000000000000000000000000000000000d964000a
:20388100080000000c302000078000000000ac00040cf060000000a923ea2000ea00000070
:2038a1000000000000000000000000000000000000000000000000781af0400000f800004d
:1638c10000000401c28000000008000000000000000001e896c063
:2038d7000040000000c30040000000000000040002800f040000001e3002800001640000c0
:2038f700000000005000000000000000000000000000000000000004010f0400000d8e00ae
:173917000000000000280000000100000000000000000000d9640033
:20392e00000000000c302000000d1bbbd0000020000000000000000027c200000000000061
:20394e0000000000000000000040000000000000000000000000000000000000001085f490
:16396e0090440002004000000000081a0000000000006c08f04067
:203984000000000000c300400001f73695240040400000000000000002fc000000000000bb
:2039a400000000000000000000080000000000000000000000000400000000000000009f58
:1739c400c9404000242400000000005000000000001002800f0490d6
:2039db00000000000c3020000308000000000c0662180f000000380027c200100800000091
:2039fb000000000001000000000000000000000000000000000000000000000000718d6845
:163a1b0020000200000000000000000073020000000000000000fe
:203a31000000000000c300400009000000000000000c00f000000000023c000001400000ee
:203a5100000000000080000000000000000000000000000000000003c000000000808033df
:173a71004000004000000000000000000f3400240000000000000057
:203a8800000000000c30300007883f70904000000000000000051801a3c200000000000021
:203aa80000000000005ad8d04000000000000280000000000000000000000000005805aa33
:163ac800940800000600000000000581000000000036000000008a
:203ade000000000000c3000000980b63692400000000000000002f00083c000000000000ff
:203afe00000000000009770d0000000000000000040000000000000000000000000000d047
:173b1e00290000000440000000000000a00000000001400000000042
:203b3500000000000c302100001e77b05044000e02180f0000000001a3c204040000400055
:203b5500000100000000000000a000000000000000000000040000001cf040000001a13a83
:163b750014080000064db8000000000000000004003600000000d9
:203b8b000000000000c3004000000b630d800000002d00f000000000003c0000200028007b
:203bab00000000000000000000040000000000000000000000000000010f0c0000000030aa
:173bcb00028000000065e800000008000000000000014000000000cb
:203be200010000278c3220000100777050000000000000000000580123c200000000000047
:203c02000000000000bab8d000000000000000000000000000400000000000003700053ca8
:163c22003e0000020724e08000000d81172000000020047ef74023
:203c38000010000370c3000000f087730d0000000000000000000000003c010000000000f2
:203c5800000000000009b3cd040000000000000000000000000240024000000000570e03d3
:173c780043c000001c7a780000000050a1240000000043268f118086
:203c8f0000000301ac322380000e000000000000001e0f0000009803a3c20000000066a04f
:203caf00000bd007803600102100000000000100000000000e40000000000000020087054f
:163ccf006a000005c73780800000000073a0008e00007000000061
:203ce5000000000010c300200001000000000000000c00f000000100083c00000200256003
:203d050050112480f0f57009001000000000000000000000008ae00000000000001010336e
:173d2500694000809c786d00000000000042004580000000000000d6
:203d3c00000000018c302300000000000000200003dc950a00055001a3c2000001400000ed
:203d5c0000030000000000000040000000000000000000000400043afa00404000b99538c2
:163d7c003e0000000027a0800000001c0000000000000000000090
:203d92000000000010c300702800000000000000001c09a000002080003c00000000000005
:203db2000000300070f0000000020000000000000000000000c000002c0504000001880ed3
:173dd20043c00000000179000000000100000000000000000000005c
:203de90001000301ac322000000000000000000078000000000000a023c02000600000003c
:203e09000000000000360010000000000000000000000000000020000000000010999538bd
:163e29003e00000843c00000000000010000000000000000000039
:203e3f000000000010c3000000000000000000000000000000008d1b003c0000002c000080
:203e5f00000000000005014104001000000000000000000000000240000000000001080f8e
:173e7f0043c000004034000000000000c000000000000000000000f5
:203e9600000000000c302000080077305000800603fc950000000008683c000000c00def2f
:203eb6005000000f087a80101000000000000000000000000000000400000000005185f899
:163ed6003e0000000380000000000000f68280000000000000001d
:203eec000000000000c3200000b007630d000400002ee9a0800300001003c2000002001087
:203f0c00f5000000f90302810000000000000000000000000000000380000000000010028c
:173f2c0003c00000800000000000000007c000000000000000000074
:203f4300000000000c302000080800000000000e0000000000800198683c800000032fcfa6
:203f6300703000000e1b001040000000000002800000000000001c074c5a4000007995fc90
:163f83003e0000000000000000000180fa908080020000000000dd
:203f99000000000000c3200000b1000000000a0022800000000000081403c000001c36d0c7
:203fb900ff1000300105b40900000000000000000000000000000022cd00550028001e025a
:173fd90043c00000000000000000000007c20c0000000000000000f9
:203ff000020000000c302000111e00000000003606efe20000050008683c00000000000066
:20401000000000001c9a801040000000000000000000000000000000fa0a40000018a5f811
:164030003e000000004000000000071c00000000000000000000d9
:204046000000000000c3200000b900000000000142b5f47080002000b403c000000000004b
:204066000000000004093081000000000000000000000000000000002405a50000050a0e91
:1740860083c000000030000000000008f000000000000000000000b8
:20409d0000000001ac3021000000b216902000142c00000000000008283c000000000000e1
:2040bd0000012000001b3d5020000000000000000000000004000000000000000050a5fc05
:1640dd003e000020000000000000278e00000004000000000000b6
:2040f300000e000010c3080000000961290000400280000000000000b003c20008003800ba
:20411300000001009005afc9000080000000000000000000000000000000000000050a0fe0
:1741330003c0000000000000000000f0000000000000400000000082
:20414a0000c0002fac322000480000000000001c384066800000580300020000e000400029
:20416a0000000007811e2c182000000000000000009b821000080005ce0040000000053ca2
:16418a003e000000001c850c00000d9b000000000000000000008c
:2041a00000100003c0c3000002300000000000000000f6600000000000000080000034002d
:2041c0000000000008f567810000000000000000000db46104000003ae0a0404000000020f
:1741e00003c100000002c00542000050a0000000000000000000000b
:2041f70000000614ec322000000a16694000000000c8968000000003a3c220000000000021
:20421700000380579e97ac1020080000000380078e0000000e000000dc0040390080053c58
:164237003e00e080001c850c00000d8136a8000e000000000000ac
:20424d000000004010c300000000e56a8400000003809960000000000003c000000000002c
:20426d00000020020901e341400000000000200208000000008000001e05050200070003c3
:17428d0043c0088c4003c00540000050a34000008000000000000088
:2042a400040a4016ac32200000005e000080000001c896800005f5b0265a20000000000091
:2042c400000000479e1b2c100000000000030000001b801804000028000000000098002301
:1642e400c10400000654850c000000009e80408000000000000036
:2042fa000021240020c3000000500bc1480600000002e9600000050a03da4000000000009b
:20431a0000000000790527810400000000003000000b028100c000040000000000010000d6
:17433a003c1000000022e005400000000900000000000000000000d0
:204351000102000ecc322000000100000000000000e896800000000723c220000000000012
:20437100000000000e96ac1000000000000010479c000000020e00000000000200000000c7
:16439100000000206054850c0000081a122800000006000000004f
:2043a7000000242020c300000150c000000000000000d960000000000803c00000000000ba
:2043c700000000000001e341200014000000008001000000000008000000000000000000f4
:1743e700000000000023e005400000100042800000000000000000a5
:2043fe0000c200178c302000000100000000003e7de99680000070c523c2000001c0000054
:20441e00000000078c1b2c184000000000000000010000000020000000000000000000002b
:16443e0000000000005e850c0000050092028080001c00000000c4
:2044540000003c2030c320000000b00000000003c382e960000000000003c20000020000d1
:204474000000000001056781000000000000000000e0000000040002000000000000000054
:1744940000000000002ac005400000d8014010000000200000000099
:2044ab000001e04ecc302000200000000000002001e8968000000005225a000000000000e6
:2044cb00000000000093ac18000000000000030000000000004c8000c85a41000201c00085
:1644eb00000000000016850c0000000000000000000001da505099
:204501000000063c30c320000000000000000003c002e96000000900022580000000000087
:20452100000000000001e341000a00000000000000000000000213c01f050400000000004e
:17454100000000004003c00540000000000000000000000c0f0c00f4
:2045580004080717ec302000000000000000003c3cc89680000000e5225a000001c0000065
:20457800000000000e1aac1000000000000000000a7b829040000000000000000050000018
:16459800000000026056850c0000000000000000000400000000c0
:2045ae000021000020c320000000000000000001e7c0d960000000000aa5800000000000b9
:2045ce0000000000010527812000000000000000f00b829500000043c000000000050000e5
:1745ee0000000000042ae00540000000000000000000200000000043
:2046050000000381cc302040000000000000003c3c69968000000085225a000000003c8001
:20462500011100000e92ac10000100000001100000369690440e0000000000101000000027
:1646450000004002061e850c000040000000000402000000000022
:20465b000000040000c308040100000000000001e7c2e960000000100b658000000401dc97
:20467b00800100000101e34102002000000000a0008781410000000000000000000000006d
:17469b00000000040403e005400000000000000000000000000000d8
:2046b20000c000000c322000018800000000004000c9968000000007a3c220000000000096
:2046d200000003000a58002000000000000000000078002000001401dab0600000000000ac
:1646f20000000000605c850c000000000000000004000000000061
:204708000010000000c3000000010000000000600000c960400000000003c1000000000030
:204728000000000030e0000008000000000000007000b0000000036007ad04000000080016
:174748000000000000264005440000000000000000000000000000ab
:20475f00000000000c32200000010683c000000000c996800000000780020000000000002a
:20477f00000000050a7603e0000000000000000000723c200e0000005ab0603800380000fc
:16479f000000e0000004850400000000000000000000006e052004
:2047b5000000000000c300400000e1003c2000000000c9600000000000000000000000007b
:2047d5000000000050a0283c00000000000000000000803c4080000005fe0482000000006b
:1747f500000008000000600a40000000000000000003c01c05f10026
:20480c00000800000c302000000000000000014001c896800000d9b78002000000000000f6
:20482c0000000048195203e00000000000000000003225a000001401ceb040100801a00053
:16484c000000000000000000000000000000000004000000000052
:204862000001400000c3000000000000000000000002e9600000050a0800000000000000d0
:2048820000000100b080e43c00000000000000000000a2582000002006ad04830000000051
:1748a2000000000000000000000000000000000008000000000000f7
:2048b900000000000c302000038000000000000071e8968000000007800200040000000004
:2048d90000000001815303e000000000000000078e7a3c200000006c4a00000000000000e6
:1648f90000000000000000000000000000000000000000000000a9
:20490f000000000000c3000000080000000000000000f9600000000008000000200000003c
:20492f00000000007080bc3c000a0000000000040900803c04000002bc00a110000000003a
:17494f00000000000000000000000000000000000000000000000051
:2049660004c000000c302000000093ce0000003e01c896800000000500020000000000008c
:20498600000000001e7e43e000008000000000070a323c28000000000000000000000f60bc
:1649a60021200000000000000000000000000000000000000000ba
:2049bc0000a0000000c3000000000be4f0200003c002f9600000000000000000000000005b
:2049dc0000000000d100343c00001400000000007800003c00000000000000000000003a78
:1749fc0046100000000000000000000000000000000400000000004a
:204a1300000000000c302000000100000000000401e896800000000500020000000000001c
:204a330000000000005e03e00000000000000000005a3c200000006000000000000009788b
:164a5300010000000000000000000000000000000000000000004c
:204a69000000000000c300000000f0000000000043c2f9600000000000000000000000001c
:204a89000000000000c0743c00080000000000000000003c010000024000000000010c1ced
:174aa9001414000000000000000000000000000000000000000000ce
:204ac000040800000c302000000000000000001c7dc99680000000050002000000000000ef
:204ae00000000021805e03e000000000000000081e723c2000000e000000000000001000c2
:164b000000000002000000000000000000000001001e000000007e
:204b160000a1400000c30000000080000000000023c2d96000000000080000000000000035
:204b36000000002400c0e03c00000000000000205000003c000003438000000000000e00df
:174b5600000000000400000000000000000000000002e00000000062
:204b6d00000000000c302000000000000000009c3968968000009995000200000000000049
:204b8d000000000f197fc3e000000000000000001c5a3c2004000003dc00401000008970c0
:164bad0001004000000000000001000000000000000000000000b0
:204bc3000000000000c3000000000000000000142402f960000009990800000004000000ce
:204be3000000000018e0bc3c000000000000000001e0803c000000002d00a0900000101c9c
:174c0300141200000000000000000000000000000000000000000074
:204c1a00000000000c302000000072a8000000207e68f008000000078002000813c3d5bb0f
:204c3a00060000091a7603e0000000000000000000523c20000006024e0250000000000082
:164c5a00000000000600000000000000000000000000000cf04002
:204c70004000000000c300000800000280000001460e00f0440000000000010000b66e4f9a
:204c9000e040000078f0283c10000000000000000000803c100000001ca52010000000004b
:174cb00000000000000000000000000000000000000000000f0500d9
:204cc700000000000c30200000000000000000003b69300800000007800200e00963800040
:204ce700000000079b7683e0000000000000008000723c240e0000055e045000000000001b
:164d07000000e00000000000038000000000000e00000000000025
:204d1d000000000000c3000000000000000000000037c380000000000000000801024000ee
:204d3d000000000070a0703c00000000000000000000003c008804039c88901000100000fb
:174d5d00000008000000000000200000000000008000000000000097
:204d7400000000000c302000080000000000002071dda008000000078002000003e0559b49
:204d940004000007997283e000000000000000100d323c200c0014000000000008000000b3
:164db40000000000020dca0000000000033c100400003800000085
:204dca000000000000c3000000f00000000000004007f800000000000800000000342e4f1e
:204dea00e060000000a0e43c00000000000000020090803c40c0002000000000000000003b
:174e0a0000000000000000a0000000000043c005c000000000000029
:204e2100000000000c30200000000000000000007400000000000007800200000bc005ea5e
:204e4100540000099f5016a00000000000000000007a3c2000000001fea0000000000000da
:164e6100000000100015ef342410100000000000000000000000af
:204e77000000000000c300000000000000000003420000000000000008000000017e005b31
:204e9700486000005089a294000000000000000000f0003c40000003020a000000000000c9
:174eb70000000000000260fb410082000000000000000000000000c4
:204ece00000000000c3020100000000000000000004a95008000000023c000000000149b67
:204eee0004000007097e83e000000000000010001e3a3c2000000001fb426100000000004c
:164f0e0000000000e00000000000001a00000000001e0000000075
:204f24000000000000c30002c000000000000061c01eb65000000000003c00001000025ff6
:204f4400e060004009c0203c00000000000002400100803c400100036d9a0000040000005a
:174f6400000000100000000000000001000000000100200000000004
:204f7b00000000000c302000000000000000003c70000000000000000000000840001faff8
:204f9b0006000020185f83e000000000000000001e523c200000000000000000000000002a
:164fbb00000000014000000000000000000000000000000000009f
:204fd1000000000000c3000000000000000000016400000000000000000000000000036a2b
:204ff100c06000040000743c000000000000000001a0803c4000000000000000001000001f
:17501100000000000000000000000000000000000000000000000088
:20502800000000000c302000000000000000000601da5a01000000000000000a1400159b02
:205048000500100981d856a00000000000000007805a3c200000202000000000000000005e
:1650680000000000000000000040000000000000000000000000f2
:20507e000000000000c30000009000000000000023ce050000000000000000000a00025f5e
:20509e00e04002801089a29400000000000000000800803c4000004000000000000000003d
:1750be000000000000000000000000000000000000000000000000db
:2050d500000000000c302004000000000000000038000000000099900000004100071eafe5
:2050f500040004081eb056a00000000000001407803a3c20001024280000000040000000fa
:1651150000004100e000000000040000000000041000000000004b
:20512b000000000000c3000000000000000000000400000000000999000000000000036a8e
:20514b00c06000001009b69400000000000000000800803c000000440000000000000000b9
:17516b0000000000020000000000000000000000000000000000002b
:2051820000000000000000000000000000000000000000000000000000000000000000000d
:2051a20000000b03807056a0000000000000000800723c20100000061ea00000000010003f
:1651c200000000000000000000000000000000000000000af0409d
:2051d80000000000000000000000d0000000000000000000000000000000000000000000e7
:2051f8000000010000052a9410000000000000009000003c10000143fd05000000000b0096
:1752180000000000000000000000000000000000000000010f04006b
:20522f00000000000000000000000000000000200000000000000000000000e0e00000007f
:20524f00000000039c7383e00000000000000000005a3c200e00000168f042380000000033
:16526f000000080000000000038000000000000e0080001ef040c2
:2052850000000000000000000000000000000003c00000000000000000000008000000003e
:2052a5000000000000f07c3c00000000000000010000803c208800000f0f848200000000b8
:1752c500000000403c3000000020280000000000801000010f04003a
:2052dc00000000000000000000000000000000000000000000000000000000c000000000f2
:2052fc0000000007995743e000000000000000018032154000001400000000040081800057
:16531c0000000000028000000000000cf68158040000040ef060b8
:20533200000000000000000000000000000000000000000000000000000000040600000051
:20535200000000000080b03c0000000000000000080001542000000000000000000b100037
:175372000000000000000000000000000f817d04800003800f0404f9
:2053890000000000000000000000000000000000047c5f0000000000000000000000000025
:2053a9000000000f805056a001000000000000800e7b280000000038000000000001b000f4
:1653c9000000000160618f5008201d01dbe9d850000000000000fb
:2053df000000000000000000000000000000000003c105f0000000000000000000000000f5
:2053ff00000000001001a69400000000000000000000828020000004000000000000080015
:17541f0000000000023b50fa000102d8f32e9504000000000000005a
:20543600000000000000000000007f800020001c016cdf02000000000000000000000000cd
:205456000000000000023c00000000000000000f00000000000006000000000301000000df
:1654760000000000000000000000000000000000008000000000a0
:20548c0000000000000000000000094014000100203e0ff080000000000000001000300085
:2054ac0000000040000003c080000000000000407800000000010000000000000420000080
:1754cc0000000000003c000000004000000000000500000000000048
:2054e30000000000000000000000000000000000000000000000000000000014000001cfc5
:20550300040000030000000000a000000000000000000000000000600000000000019000f0
:16552300000000000015aa00000001805794100010000000000027
:205539000000000000000000000000000000000003c000000000000000000000200400006b
:20555900f0410000f000000000000000000000000000000000000004000000000000080005
:1755790000000000000020a010000000008143400000000000000047
:20559000000000000000000000000000000000007800000000000000000000000000000083
:2055b000000000098c9e814020000000000000000000000001000000dcb0400100000fae3c
:1655d00095000000000000000000078100000000000000000000a8
:2055e6000000000000000000000000000000000000000000000000000000000000000000a5
:205606000000000010f903d40000000000000000100000000010000005ad0500000000ba13
:17562600d19200000000000000000000800000000002400000000048
:20563d00000000000000000008000000000010000000000000000000000000410c000000e8
:20565d0000001420000000000000000000000400181281480410006c4a00001040001d27a4
:16567d0089040004000d8f500924019c0000000410007800000044
:205693000000000000000000005090000000000000000000000000000000000001400000d6
:2056b3000000028500000000000040000000000000000014800000028c05000000000edffc
:1756d30068502000800020f50001000100000000000004000000004d
:2056ea000000000000000000000000000000000000000000000000000000000000000000a0
:20570a000000000001000000000200000000000000374200000036005cbc40403058016646
:16572a000000000a063fd990000000003b94180000007800000052
:20574000000000000000000000000000000000000000000000000000000000000000000049
:205760000000000800e000000000000000000001d0076000000003c00d858410000000b36d
:17578000000200011c7268662000000000c14064000000000000002e
:205797000000000000000000000000000000000000000000000000000000000000000000f2
:2057b700000380000006bc10000000000000028800928040ae0e00005e85408000500000f2
:1657d70000000800c7b48aa00b900800073c100e0000000000000b
:2057ed0000000000000000000000000000000000000000000000000000000000000000009c
:20580d0000002038000003c10000000000000000700f400044800002c5dc76000000800043
:17582d00000000400c325aaa002200b00003c00080000000000000cd
:20584400000000000000000000000000000000000000000000000000000000000000000044
:2058640000030000000000000000000000000000080000000400203a5cbc4000040010004f
:1658840000000001e016daa008000000033c100000000000000046
:20589a000010000000000000000000000000000000000000000000000000000000000000de
:2058ba00000030000000000000000000000000010100000000c003c02585848000200e003d
:1758da00000000000e03caaa000000000003c000000000000000006f
:2058f100000000000000000000000000000000000000000000000000000000000000000097
:205911000000000f00fa2b50000000000000000000000000000080297ebc4040820000000d
:1659310000000007e0148f500820000000000000000e60000000f0
:20594700000000000000000000000000000000000000000000000000000000000000000040
:2059670000000000780570712000000000000000000000000000074407aa44000000000062
:1759870000000000b43c10f5000100000000000000002000000000f3
:20599e000000000000000000000000000000000000000000000000000000000000000000e9
:2059be00000000070000000000000000000000058000000000000038000000000000000005
:1659de0000000001e0178aa01000218000000000000000000000e0
:2059f40000000000000000000000000000000000000000000000000000000000080000008b
:205a14000000000008000000000000000000000000000000000001c00000000000000f009a
:175a3400000000000001e8aa000000000000000000000000000000c8
:205a4b0000000000000000000000000000000000000000000000000000000000000000003b
:205a6b00000000000000000000000000000000000e0000000004202800000000328000000f
:165a8b0000000001e01fe001004000187e280000e00601dda3407f
:205aa1004000000000000000000000000000000000000000000000000000000000000000a5
:205ac1000000000000000000000000000000000001000000000002c40000000000470000b7
:175ae1000000000e0002600a20400050008280000a024024c0320020
:205af80000000000000000000000000000000000000000000000000000000000000000008e
:205b18000000000008000000000000000000000700000000000000025ca741000000053ad9
:165b380080040001c79fcf501000000100000000001c0000000020
:205b4e00000000000000000002000000000000000000000000000000000000000000000035
:205b6e000000000001000000000000000000000000000000000000000d84349000010008b8
:175b8e0028002000000020f50000000080000000000003c000000060
:205ba5000000000000000000000000000000000000000000000000000000000014000000cc
:205bc5000001002100000000000000000000000000000000040000285f854000000000004e
:165be50000002a00e70000000000101a002950044021037a85414e
:205bfb0000000000000000000000000000000000000000000000000000000000008000000a
:205c1b0000000034000000000000000000000000008000000000000405ac7480000000000c
:175c3b0000000040007c0000000000000f0168000a15c01ef47400b9
:205c520000000000000000000000000000000200000000000400700ffbdc0000026054061a
:205c72006c0000000a86420000000000000000051896a00000002001db60c0000200000063
:165c9200000000004034f800000000007af458004000000000008a
:205ca800000000000000000000000000000000004000000000400080fb7fc000001e2c0850
:205cc8006640400000052c1000000000000000005803ec00000015c3c1e6060000000000c9
:175ce800000000000203ec000000000005ad49040040000000000075
:205cff000000000000000000000000000000000003fc800800000000000000e00000449941
:205d1f006c0000079e3617c00000000000001320019280008e00002fc984d03802000000ec
:165d3f000000040007c00000038380000000000e08400000000027
:205d550000000000000000000000000000000000003ec000000009000000000800002c2ec5
:205d750096480000f000817c0000000000000084d093000400820402b4a124020040000015
:175d9500000000ae0038000000201800000000008008000000000051
:205dac00000000000000000000000000000001000000000000007800000000c801c6168930
:205dcc006c04000b0e1a37c0800000000000002d0e0000000400002bc984d0110801ebff12
:165dec008d000401c065aaa008000b8000000000820401cc05486d
:205e0200000000000000000000000000000000000000000000000f090000000c003c7c0e96
:205e220096400000f10dc3fc0000000000000000f900000000400002a6c12403000010b73d
:175e4200e856002082294eaa000000f0000000000000200e05f480b1
:205e590000000000000000000000000000000014025bf700000000e5a82040000bc006996a
:205e79006c0000059a5336c8800000000000400f809e420000006007c9ded000120000008e
:165e990000000008e026e08000000018000000010000000000006c
:205eaf0000000000000000000000000000000000200ceff0800000105a0000000136002f78
:205ecf00964800000905038c000000000000040070d5b800000015c2b6fb7400200000001b
:175eef000000000d3e027d0010003001000000001020000000000061
:205f06000000000000000000000000000000001400000000000080100000000409400c99e5
:205f26006e000008001a3dc0000100000000000001bbc20000ce1c00699680000000e00006
:165f460000000000070000000000000000000000001e380cf0509c
:205f5c00000000000000000000000000000000000000000000000f0f000000000140000abc
:205f7c009640000010fbeffc000000000000000000eba8000006000002f960000000000045
:175f9c00000000002c00000000000000000000000000e7c10f040007
:205fb300000000000000000000000000000000160000000000000001bbdc000ae000548959
:205fd3006c0c005000563dc0800000000000030b9c7b600000802024e996810100501ff268
:165ff30015040002000000000000500000000000004602cba34037
:2060090000000000000000000000000000000001400000000000000972ffc00000003c2898
:2060290096400002000503cc800000000000000019f17000000002c7c2d9600028008eff38
:1760490071d000003c0000000000020000000000001c003ec03084f3
:206060000000000000000000000000000000000000000000000090087a80000001c7148929
:206080006c040020000000000000000000000001807ab9408040e665489680000100000012
:1660a00000000003c38000000000000000000000000004000000a0
:2060b600000000000000000000000000000000000000000000000f80b01400000016002a37
:2060d6009648000400000000000000000000020090078300000a1c42028960000000000059
:1760f600000000017e00000000000000000000000000020000000012
:20610d0000000000000000000000000000000000680000000000008f3200084000000e896a
:20612d006c0000000000000000a000000000100f017b20004400043d489680100000d000c8
:16614d0000000004038caf50110000000000000400000000000095
:2061630000000000000000000000000000000002424000000000051af00000000414282e1b
:2061830096490005000000000004000000000280b8f560008000002342c9600000000d006a
:1761a3000000000c804000f500000000d000000000c0038000000011
:2061ba000000000000000000000000000000000000000000000010000000000415e3d4994c
:2061da006c9000000006bc100000000000000000010000000000206d4996800000000000ea
:1661fa00000002000300000000001000000000000000000000007a
:2062100000000000000000000000000000000000000000000000008800000000a0007c0fbb
:20623000964c0000000003c1000000000000000000d00000000001c240c960c000000000ec
:176250000000000014200000000002000000000000000200000000ff
:20626700000000000000000000000000000000200400000000000007720000e000004499bd
:206287006c13800000033c100000000000038000005a38d000082001e89680380000000065
:1662a7000000000060400000039088000000000e0e000400000006
:2062bd0000000000000000000000000000000001c3800000000000001b000008003d3c2db4
:2062dd0096486000000003c10000000000002280000ff94922000143c0b96002001000005b
:1762fd0000000000003400000020907000000000800002c0000000f4
:20631400000000000000000000000000000000200000000000000007720000c00200049971
:206334006c0300001e00000000000000000300000000000000442004489680100000e00003
:1663540000000000006ed80003000000000000040080036af540c4
:20636a000000000000000000000000000000000243c00000000000007740000c021c002eff
:20638a009650300001000000000000000000300000000000000802c3c28961030000000030
:1763aa00000000003c22e90000300000000000004002c0140a5204ef
:2063c1000000000000000000000000000000000000000000000000017a80000001c39699ce
:2063e1006c0000280000000000000000000000000a5a38d0000416046996800000000000ff
:1664010000000a04403ee8000003800c9ebd5c00009c000000002f
:20641700000000000000000000000000000000000000000000000000082800000002400ee5
:20643700965000017000000000000000000000050003f949c40001c280f960000000000044
:17645700000000400025ff00000018000f4294040404e000000000e1
:20646e0000000000000000000000000000000000014ef50000007007ba00080002000499f2
:20648e006c0000080103bc1000000000000000071a73691040001c016996800000001000b1
:1664ae0000000001439588003000000000000000000074000000d3
:2064c4000000000000000000000000000000000000020f500000098a3c000000003c000943
:2064e4009640000070e003c1000000000000000008096fd14000000002f9600000000d00b5
:17650400000000000200600000000000000000000000078000000097
:20651b00000000000000000000000000000000000078f702000001a00000000001668c99c2
:20653b006e0000070002bc1000000000000003001ada38d0400080004896800000180b3984
:16655b00d18008140745c80000035000000000004080027ea14035
:206571000000000000000000000000000000000000160ff000000900000000000000000fdd
:2065910096400000080043c10000000000000005000bf949c002024002e960000000003b2c
:1765b100d688004cb476e90000000200000000000a10003fd81808c3
:2065c8000000000000000000000000000000020000000000000051b0000000000003ce9946
:2065e8006c00000008073c1000000000000000080877e91410020001699680000070000046
:166608000000000007dcaf5008000008000000000000000000008a
:20661e000000000000000000000000000000000040000000000005080000000000003808cf
:20663e0096400000f00003c1000000000000000031a92fd1400002400099608000008d0050
:17665e0000000000247800f500000000000000000000000000000094
:20667500000000000000000000000000000000000000000000005800000000400147168986
:206695006c01000000033c1000000000000101a8000000000080943d6896800000000000b0
:1666b50000000a01c7bfaaa001500001000000044080756cf041cc
:2066cb00800000000000000000000000000000000000000000000009000000000024242faf
:2066eb0096400000000043c10000000000000005500000000004102340c9600000000000c0
:17670b00000000403e4340aa00428000f0000000001403950fa004bb
