:02000000ff00ff
:080002004c6174746963650030
:17000a00694345637562653220323032302e31322e32373934330071
:15002100506172743a2069434534305550354b2d53473438002c
:1b003600446174653a204d617220313420323032352032313a30313a33380086
:0200510000ffae
:040053007eaa997e6a
:02005700510056
:0200590001059f
:03005b00920020f0
:03005e006202b388
:03006100720150d9
:0300640082000017
:02006700110086
:02006900010193
:20006b00000000000000000000000010000000000000400000000000010000000000000420
:20008b000000000000001000000000000040000000001000000000000040000000000001b4
:1600ab0000000000000004000000000000100000000000004000eb
:2000c1000000000000000000000000020000000000000800000000000020000000000000f5
:2000e10080000000000002000000000000080000000002000000000000080000000000006b
:1701010020000000000000800000000000020000000000000800003d
:200118000000000000000000000000000000000000000000000000000000000000000000c7
:200138000000000000000000000000000000000000000000000000000000000100000000a6
:160158000000000000000000000000000000000000000000000091
:20016e00000000000000000000000000000000000000000000000000000000000000000071
:20018e00000000000000000000000000000000000000000000000000000000000000000051
:1701ae0010000000000000000000000000000000000000000000002a
:2001c50000000000000000000000000000000000000000000000000000000000000000001a
:2001e5000000000000000000000000000000000000000000000000000000000000000000fa
:1602050000000000000000000000000000000000000800000000db
:20021b000000000000000000000000000000000000000000000000000000000000000000c3
:20023b000000000000000000000000000000000000000000000000000000000000000000a3
:17025b0000000000000000000000000000000000000070000000001c
:2002720000000000000000000000000000000000000000000000000000000000000000006c
:20029200000000000000000000000d0000000000000000000000000000000000000004003b
:1602b2000000000000000000000000000000000000000000000036
:2002c800000000000000000000000000000000000000000000000000000000000000000016
:2002e8000000000000000000000000000000000000000000000000000000000020000000d6
:170308000000000000000000000000000000000000000000000000de
:20031f000000000000000000000000000000000000000000000000000000000000000000be
:20033f000000000000401000000000000000000000401000000000010040000000000800b5
:16035f000000000000000000000000000000000000000000000088
:20037500000000000000000000000000000000000000000000000000000000000000000068
:20039500000000000000000000000000000000000000000000000000000000000000000048
:1703b500000000000000000000000000000000000000000000000031
:2003cc00000000000000000000000000000000000000000000000000000000000000000011
:2003ec00000010000000000000000000008000000000000000000000000000000000000061
:16040c00000000000000000000000000000000000000000080005a
:200422000000000000000000000000000000000000000000000000000000000000000000ba
:20044200000000000000000000000000000400000000000000000000000000000000000096
:1704620000000000000000000000000000000000000000000c000077
:20047900000000000000000000000000000000000000000000000000000000000000000063
:200499000000000000000000000000000000100000000000004000000000000000000000f3
:1604b900000000000000000000000000000000000000000000002d
:2004cf0000000000000000000000000000000000000000000000000000000000000000000d
:2004ef000000010000000000000000000000010000000000000400000000000000000000e7
:17050f000000000000000000000000000000000000000000000000d5
:200526000000000000000000000000000000000000000000000000000000000000000000b5
:20054600000000000040000000000000000000000040000000000001000000000000000014
:16056600000000000000000000000000000000000000000000007f
:20057c0000000000000000000000000000000000000000000000000000000000000000005f
:20059c0000000000000000000000000000000000000000000000000000000000000000003f
:1705bc00000000000000040000000000000000000000000000000024
:2005d300000000000c302000000000000000000000000000000000000000000000000000ac
:2005f3000000000000000000000000000000000000000000000000000000000000000000e8
:1606130000000000000000000000000000000000000000000000d1
:200629000000000000c30000000000000000000000000000000000000000000000000000ee
:20064900000000000000000000000000000000000000000000000000000000000000000091
:1706690000000000000000000000000000000000000000000000007a
:20068000000000000c302000000000000000000000000000000000000000000000000000fe
:2006a00000000000000000000000000000000000000000000000000000000000000000003a
:1606c0000000000000000000000000000000000000000000000024
:2006d6000000000000c3000000000000000000000000000000000000000000000000000041
:2006f6000000000000000000000000000000000000000000000000000000000000000000e4
:170716000000000000000000000000000000000000000000000000cc
:20072d00000000000c30200000000000000000000000000000000000000000000000000050
:20074d0000000000000000000000000000000000000000000000000000000000000000008c
:16076d000000000000000000000000000000000000000000000076
:200783000000000000c3000000000000000000000000000000000000000000000000000093
:2007a300000000000000000000000000000000000000000000000000000000000000000036
:1707c30000000000000000000000000000000000000000000000001f
:2007da00000000000c302000000000000000000000000000000000000000000000000000a3
:2007fa000000000000000000000000000000000000000000000000000000000000000000df
:16081a0000000000000000000000000000000000000000000000c8
:200830000000000000c30000000000000000000000000000000000000000000000000000e5
:20085000000000000000000000000000000000000000000000000000000000000000000088
:17087000000000000000000000000000000000000000000000000071
:20088700000000000c302000000000000000000000000000000000000000000000000000f5
:2008a700000000000000000000000000000000000000000000000000000000000000000031
:1608c700000000000000000000000000000000000000000000001b
:2008dd000000000000c3000000000000000000000000000000000000000000000000000038
:2008fd000000000000000000000000000000000000000000000000000000000000000000db
:17091d000000000000000000000000000000000000000000000000c3
:20093400000000000c30200000000000000000000000000000000000000000000000000047
:20095400000000000000000000000000000000000000000000000000000000000000000083
:16097400000000000000000000000000000000000000000000006d
:20098a000000000000c300000000000000000000000000000000000000000000000000008a
:2009aa0000000000000000000000000000000000000000000000000000000000000000002d
:1709ca00000000000000000000000000000000000000000000000016
:2009e100000000000c3020000000000000000000000000000000000000000000000000009a
:200a01000000000000000000000000000000000000000000000000000000000000000000d5
:160a210000000000000000000000000000000000000000000000bf
:200a37000000000000c30000000000000000000000000000000000000000000000000000dc
:200a570000000000000000000000000000000000000000000000000000000000000000007f
:170a7700000000000000000000000000000000000000000000000068
:200a8e00000000000c302000000000000000000000000000000000000000000000000000ec
:200aae00000000000000000000000000000000000000000000000000000000000000000028
:160ace000000000000000000000000000000000000000000000012
:200ae4000000000000c300000000000000000000000000000000000000000000000000002f
:200b04000000000000000000000000000000000000000000000000000000000000000000d1
:170b24000000000000000000000000000000000000000000000000ba
:200b3b00000000000c3020000000000000000000000000000000000000000000000000003e
:200b5b0000000000000000000000000000000000000000000000000000000000000000007a
:160b7b000000000000000000000000000000000000000000000064
:200b91000000000000c3000000000000000000000000000000000000000000000000000081
:200bb100000000000000000000000000000000000000000000000000000000000000000024
:170bd10000000000000000000000000000000000000000000000000d
:200be800000000000c30200000000000000000000000000000000000000000000000000091
:200c08000000000000000000000000000000000000000000000000000000000000000000cc
:160c280000000000000000000000000000000000000000000000b6
:200c3e000000000000c30000000000000000000000000000000000000000000000000000d3
:200c5e00000000000000000000000000000000000000000000000000000000000000000076
:170c7e0000000000000000000000000000000000000000000000005f
:200c9500000000000c302000000000000000000000000000000000000000000000000000e3
:200cb50000000000000000000000000000000000000000000000000000000000000000001f
:160cd5000000000000000000000000000000000000000000000009
:200ceb000000000000c3000000000000000000000000000000000000000000000000000026
:200d0b000000000000000000000000000000000000000000000000000000000000000000c8
:170d2b000000000000000000000000000000000000000000000000b1
:200d4200000000000c30200000000000000000000000000000000000000000000000000035
:200d6200000000000000000000000000000000000000000000000000000000000000000071
:160d8200000000000000000000000000000000000000000000005b
:200d98000000000000c3000000000000000000000000000000000000000000000000000078
:200db80000000000000000000000000000000000000000000000000000000000000000001b
:170dd800000000000000000000000000000000000000000000000004
:200def00000000000c30200000000000000000000000000000000000000000000000000088
:200e0f000000000000000000000000000000000000000000000000000000000000000000c3
:160e2f0000000000000000000000000000000000000000000000ad
:200e45000000000000c30000000000000000000000000000000000000000000000000000ca
:200e650000000000000000000000000000000000000000000000000000000000000000006d
:170e8500000000000000000000000000000000000000000000000056
:200e9c00000000000c302000000000000000000000000000000000000000000000000000da
:200ebc00000000000000000000000000000000000000000000000000000000000000000016
:160edc000000000000000000000000000000000000000000000000
:200ef2000000000000c300000000000000000000000000000000000000000000000000001d
:200f12000000000000000000000000000000000000000000000000000000000000000000bf
:170f32000000000000000000000000000000000000000000000000a8
:200f4900000000000c3020000000000000000000000000000000000000000000000000002c
:200f6900000000000000000000000000000000000000000000000000000000000000000068
:160f89000000000000000000000000000000000000000000000052
:200f9f000000000000c300000000000000000000000000000000000000000000000000006f
:200fbf00000000000000000000000000000000000000000000000000000000000000000012
:170fdf000000000000000000000000000000000000000000000000fb
:200ff600000000000c3020000000000000000000000000000000000000000000000000007f
:201016000000000000000000000000000000000000000000000000000000000000000000ba
:1610360000000000000000000000000000000000000000000000a4
:20104c000000000000c30000000000000000000000000000000000000000000000000000c1
:20106c00000000000000000000000000000000000000000000000000000000000000000064
:17108c0000000000000000000000000000000000000000000000004d
:2010a300000000000c302000000000000000000000000000000000000000000000000000d1
:2010c30000000000000000000000000000000000000000000000000000000000000000000d
:1610e30000000000000000000000000000000000000000000000f7
:2010f9000000000000c3000000000000000000000000000000000000000000000000000014
:201119000000000000000000000000000000000000000000000000000000000000000000b6
:1711390000000000000000000000000000000000000000000000009f
:20115000000000000c30200000000000000000000000000000000000000000000000000023
:2011700000000000000000000000000000000000000000000000000000000000000000005f
:161190000000000000000000000000000000000000000000000049
:2011a6000000000000c3000000000000000000000000000000000000000000000000000066
:2011c600000000000000000000000000000000000000000000000000000000000000000009
:1711e6000000000000000000000000000000000000000000000000f2
:2011fd00000000000c30200000000000000000000000000000000000000000000000000076
:20121d000000000000000000000000000000000000000000000000000000000000000000b1
:16123d00000000200000000000000000000000000000000000007b
:201253000000000000c30000000000000000000000000000000000000000000000000000b8
:2012730000000000000000000000000000000000000000000000000000000000000000005b
:17129300000000000000000000000000000000000000000000000044
:2012aa00000000000c302000000000000000000000000000000000000000000000000000c8
:2012ca00000000000000000001000000000000000000000000000000000000000000000003
:1612ea0000000000000000000000000000000000000000000000ee
:201300000000000000c300000000000000000000000000000000000000000000000000000a
:2013200000000000000000000010000000000000000000000000000000000000000000009d
:17134000000000000000000000000000000000000000000000000096
:20135700000000000c3020000000000000000000000000000000000000000000000000001a
:20137700000000000000000000000000000000000000000000000000000000000000000056
:161397000000000000000000000000000000000000000000000040
:2013ad000000000000c300000000000000000000000000000000000000000000000000005d
:2013cd00000000000000000000000000000000000000000000000000000000000000000000
:1713ed00000000000000000000000000000000000000038000000066
:20140400000000000c3020000000000000000000000000000000000000000000000000006c
:201424000000000000000000000000000000000000000000000000000000000000000000a8
:1614440000000000000000000000000000000000000000eca00006
:20145a000000000000c30000000000000000000000000000000000000000000000000000af
:20147a00000000000000000000000000000000000000000000000000000000000000000052
:17149a00000000000000000000000000000000000003c0010a0080ed
:2014b100000000000c302000000000000000000000000000000000000000000000000000bf
:2014d1000000000000000000000000000000000000000000000000000000000000000000fb
:1614f10000000000000000000000000000000000000000000000e5
:201507000000000000c3000000000000000000000000000000000000000000000000000001
:201527000000000000000000000000000000000000000000000000000000000000000000a4
:1715470000000000000000000000000000000000000000000000008d
:20155e00000000000c30200000000000000000000000000000000000000000000000000011
:20157e0000000000000000000000000000000000000000000000000000000000000000004d
:16159e000000000000000000000000000000000000000000000037
:2015b4000000000000c3000000000000000000000000000000000000000000000000000054
:2015d4000000000000000000000000000000000000000000000000000000000000000000f7
:1715f4000000000000000000000000000000000000000000000000e0
:20160b00000000000c30200000000000000000000000000000000000000000000000000063
:20162b0000000000000000000000000000000000000000000200000000000000000000009d
:16164b000000000000000000001000000603c000000000000000b0
:201661000000000000c30000000000000000000000000000000000000000000000000000a6
:20168100000000000000000000000000000000000000000000000000000000000000000049
:1716a10000000000000000000000000000403c0400000000000000b2
:2016b800000000000c302000000000000000000000000000000000000000000000000000b6
:2016d8000000000000000000000000000000000000000000000000000000000000000000f2
:1616f8000000e000001780540000000c000000000000001c0f00da
:20170e000000000000c30000000000000000000000000000000000000000000000000000f8
:20172e00000000000000000000000000000000000000000000000000000000000380000018
:17174e00000008002400c00f51400000f00000000000000000f00018
:20176500000000000c30200000000000000000000000000000000000000000000000000008
:20178500000000000000000000000000000000000000000000000000000000000000000044
:1617a500000020000000000000000000000000000000001c0f00e3
:2017bb000000000000c300000000000000000000000000000000000000000000000000004b
:2017db000000000000000000000000000000000000000000000000000000000000000000ee
:1717fb00000000000000000000000000000000000014000100f000d2
:20181200000000000c3020000000000000000000000000000000000000000000000000005a
:20183200000000000000000000000000000000100000000000000000000000000000000086
:1618520000000001e000000000000000000000002000000000007f
:201868000000000000c300000000000000000000000000000000000000000000000000009d
:2018880000000000000000000000000000000002000000000000000000000000000000003e
:1718a800000000000200000000000000000000000000000000000027
:2018bf00000000000c302000000000000000000000000000000000000000000000000000ad
:2018df000000000000000000000000000000000000000000000000000000000002000000e7
:1618ff0000000001e000000000000000000000000000300c0f00a7
:201915000000000000c30000000000000000000000000000000000000000000000000000ef
:20193500000000000000000000000000000000000000000000000000000000000000000092
:17195500000000100000000000000000000000000000040100f00076
:20196c00000000000c302000001d00000000000000000000000000000000000000000000e2
:20198c0000000000000000000000000000000000000000000000000000000000000000003b
:1619ac0000000000000000000000000100000000000c30000000e8
:2019c2000000000000c300000001d000000000000000000000000000000000000000000071
:2019e2000000000000000000000000000000000000000000000000000000000000000000e5
:171a0200000000000000000000000000c00000000001e40000000028
:201a1900000000000c3020000000bb954020000000000000000000000000000000000000a1
:201a390000000000000000000000000000000000000000000000000000000000000000008d
:161a59000000000000000000001000009fe2c0400000001c0f00bb
:201a6f000000000000c3000000b00b81540000000000000000000000000000000000000004
:201a8f0000000000000000000000000000000000000000000008000000000000000000002f
:171aaf000000000000000000000000000ba51c000000000000f00064
:201ac600000000000c302000000000000000000000000000000000000000000000000000a4
:201ae6000000000000000000000000000000000000000000000000000000000000000000e0
:161b06000000410000000000000000000000000000000000000088
:201b1c000000000000c30000000000000000000000000000000000000000000000000000e6
:201b3c00000000000000000000000000000000000000000000000000000000000000000089
:171b5c000000000000000000000000900000000000000000000000e2
:201b7300000000000c302000000000000000000003c850c00000000000000000000000001b
:201b9300000000000000000000000000000000000000000000000000000000000000000032
:161bb30000000000000000000000200100000000001e04000000d9
:201bc9000000000000c300400000000000000000002c005430000000000000000000000049
:201be9000000000000000000000000000000000000000000000000000000000000000000dc
:171c090000000000000000000000010080000000000003c000000080
:201c2000000000000c30200000000000000e000003c850c00000000000000000000000005f
:201c400000000000000000000000000000000000000000000e00000000000038000000003e
:161c60000000e00000400000038000000203c00000007efab800d6
:201c76000000000000c300400000000000008000003c005404020000000000000000000035
:201c96000000000000000000000000000000000000000000008000000000000200000000ac
:171cb600000008000028000000200000f0403c000001c26ef74010e3
:201ccd00000000000c3020000000000000000000674850c0000000000000000000000000dc
:201ced00000000000000000000000000000040000000000001000068000000000019a00075
:161d0d00000000000000000000000100338f9000008002fab80039
:201d23000000000000c300400000000000000000022e005500000000000000000000000018
:201d43000000000000000000000000000000040000000000001000040000000000009000d8
:171d63000000008000000000000000080538612400000006cb8000ce
:201d7a00000000000c3020000000000000000006074850c000000000000000000000000088
:201d9a000000000000000000000000000000000000000000000000000000000000000038f1
:161dba003c0000e0000000000000000000000000002603de8b0065
:201dd0000000000000c300400000000000000000023e005404000000000000000000000058
:201df0000000000000000000000000000000000000000000000000000000000000000000d3
:171e100003c200000000000000000000000000000002602f84700071
:201e2700000000000c302400000000000000000003e850c000000000000000000000000040
:201e4700000000000000000000000000000000000000000000000000000000000000080271
:161e670095000000000000000000038000000000000030fdb80068
:201e7d000000000000c300004000000000000100002c0054040400000000000010000000a9
:201e9d000000004000000000000000000000004000000000000100000000000004000b3065
:171ebd00168040100000000000004000000000000102c026eb801084
:201ed400000000000c3020000000000000000000036850c000000000000000000000000017
:201ef4000000000000000000000000000000000000000000000000000af0400000000d3057
:161f14002800000000018f040800000000000000001636f9d800d6
:201f2a000000000000c30040000000000000000003bc00540400000000000000000000007d
:201f4a00000000000000000000000000000000000000000000000000010f000400030074ec
:171f6a0000000000000010f000000000000000000002c765dd8000d5
:201f8100000000000c3024000000000000000026036850c00000000000000000000000003f
:201fa100000000000000000000000000000000200000000000000000000000000078000286
:161fc100950000000000000000000700000000000000380c0f001b
:201fd7000000000000c300000000000000000000402e005404000000000000000000000061
:201ff70000000000000000000000000000000000000000000000000000000000000080d07a
:17201700168000000000000000000010000000000000074100f000d4
:20202e00000000000c302404000000000004102063e850c00040000000000001000000005e
:20204e0000000400000000000000000000000400000000000010000000000000400000001a
:16206e000000010000000000010400000603c000100c301e0f0014
:202084000000000000c30000000000000000000043be005414000000000000000000000010
:2020a40000000000000000000000000000000000000000000000000000000000000100001b
:1720c40000000000000000000000000000403c010000200100f00077
:2020db000100003cec302000000000000000000601c850c00000000000000000000000008d
:2020fb0000000000000000000000000000000000000000000000000000000000000011f6be
:16211b0000c2004000000000000000187000200042067a686f006b
:2021310000100003f0c30040000000000000000000340054440000000000000000000000bc
:202151000000000000000000000000000000000000000000000000000000000000000ada8a
:17217100c0085000002c0000000000b100b4000000002657a9f00098
:2021880000000001ec30238000000000000e0000014850400100000000000000000000008f
:2021a8000000000000000000000000000003a008010000000e001600000000000000a000a7
:1621c8000000000000000000001001811225a4000020707c8b00fd
:2021de000000000010c300600000000000008000000600a404080000000000000000000078
:2021fe0000000000000000000000000000002100d0b000000080c0200000000000001000b0
:17221e00000000000000000000008078a02e58000001c667d4700019
:2022350000000000ec30200000000000000000002800000000000000000000000000000025
:20225500000000000000000000000000000000000000000000000003d805400000f98001cf
:1622750068c000000040a0f200000d013265a200007e00080f007d
:20228b000000000010c300400000000000000000040000000000000000000000000000001c
:2022ab000000000000000000000000000000000000000000000000000c00f410000d8090e6
:1722cb00294000000034100f000000b0903e5800000a400100f0002f
:2022e20001000001ec3020000000000000000000000000000000000000000000000000009e
:20230200000000000000000000000000000028000000000000000000000000000051cfbcb7
:16232200200000014001a0f00000801a1a65a400081438da8b003d
:202338000000000010c3004000000000000000000000000000000000000000000000000072
:2023580000000000000000000000000000000130000000000000c00000000000000f1057fe
:17237800c0000000023c000f0000000000a258000000242784700008
:20238f00000000000c302000000000000000000000000000000000000000000000000000d2
:2023af00000000000000000000000000000000000000000000000000000000000079c000d5
:1623cf00000004000000e0f00010079b5265a0000280244ab80073
:2023e5000000000000c30040000000000000000000000000000000000000000000000000d5
:202405000000000000000000000000000000000000000000000000000000000000001000a7
:17242500000000800000000f00410000a02258040044c25ecb800003
:20243c00000000000c3020000040000000000000000000000000008f76900002000000004d
:20245c0000001000000000000000000000000000000000000000000000000000001985bff3
:16247c002c00000000000000000000005a65a0000000001c0f0094
:202492000000000000c300400000000000000000000000000000001fb7a0001000000000a1
:2024b2000000028000000000000000000000000000000000000001c000000000000000f3d4
:1724d20079c00000000000000002800000ba58000000030100f00032
:2024e900000000000c302000000003bc1020002000000000000070e0000000000000000018
:20250900000000000000000000000000000000000000000000002000000000000238c33164
:162529007c000a020001a0f00000001f3225a000803c03c86f0176
:20253f000000002400c3004000f00003c180000040000000000000000000000000000000e1
:20255f000000000000000000000000000000000000000000000001400000000000405a0879
:17257f0017c000402c00100f00000000a0aa58040402e00599f000c9
:2025960000000201ec3021000000000000040000000000000000800f76900000000000004c
:2025b60000000000000000000000000000010000009e015044000000000000000050857b81
:1625d6007c080000000080f0001008087225a04000000000000064
:2025ec000000000010c300c000000000000000000000000000000700bfa0001000000000c6
:20260c00000000000000000000000000000000009007403d800000000000000000001f54a7
:17262c003fc000000000100f0000005000a65800000000000000002b
:2026430000000037ac302000000000000000003400000000000010e7643e00000000000077
:20266300000000000000000000000000000000000000000000041e3800000000000003f802
:162683002800000000000000000000003225a0000446605b7e009f
:202699000010000370c300400000000000000002c0000000000009800343c000000000004a
:2026b900000000000000000000000000000000000000000000000023c0000000000000041a
:1726d90002800000000000000000280000aa583000c8273c9e7000d5
:2026f000000000478c3020000000000000000000044aa000000079c72c3e0000000000000f
:2027100000038000008029500000000000000000000000000000000000000000020011e238
:162730000028e000600000000000001e7a65a4004000641e0f00b9
:202746000000002430c30000000000000000000003000a00000000990703c00000000000ec
:2027660000002000000701682000000000000000000000000000000000000000001d08d8a6
:1727860000000800020000000000000100a658000000078100f000bb
:20279d0000000017ac302028000000000000000400ec1a02000071d5343e0000000000001d
:2027bd00000000000000000000000000000000000000000000000000000000000001e0001b
:1627dd0000000008000d82740400098c5a65a0000020041a0f0096
:2027f3000000000030c300000000000000000001601f0000000000180a43c000000000002e
:202813000000000000000000000000000000000000000000000000000000000020000b007a
:17283300000000000000ee2f4140009900ba58010002438000f0008f
:20284a00010002478c302000500000000000000003ee20020000f0ff016a0000000000008b
:20286a000000000000000000000000000000005000000000000000385c800000800000006a
:16288a0000000000000cf356000180017225a000002001ee6f00ac
:2028a0000000006430c300000000000000000000001d0000800001089a2940000000000018
:2028c000000000000000000000000000000000320000000000000000268000001000000010
:1728e000000000000002cc3e40400000e03258200001c20d99f00072
:2028f70000000017ac3020000000000000000080224aa00000003805856a000001c04000f5
:20291700000000000000000000000000000000000000000000000023ec8002000001c0004e
:1629370000000002038000000000090f3a25a000001c794e7d008e
:20294d000000000030c3000000000000000000100024000000000000532940000000300057
:20296d000000000000000000000000000000000000000000000000043700000000001d00f2
:17298d00000000802400000000000059e02e58000000201ff7d000ca
:2029a400000000078c30200040000000000000002000000000005197816a000000400000bd
:2029c400000000000000000000000000000000000000000000014078000000000051a02821
:1629e4003c000001668cf356000003003265a0000006060e0f0002
:2029fa000000000030c300000200000000000000000000000000050a93e9400000020000fb
:202a1a00000000000000000000000000000000000000000000000a400000000000000a0444
:172a3a0003c800000002cd3e4000000000be5800000003cd00f00097
:202a510000000017ac3020000000000000000004200000000000998d816a000000038dcac3
:202a7100400000000000000000000000000000000000000000000001dca00000000083bc49
:162a910020000411c0000000000005997225a010201e376a7d00f9
:202aa7000000000030c300000000000000000000000000000000010a5a294000000002cf7d
:202ac700800000000000000000000000000000000000000000000040010a000000051abf46
:172ae700400000008200000000000001a0b25800040006aef7d000ec
:202afe00000000018c302028100000000000002400000000000018a7ec3e00000000000096
:202b1e0000000008000000000000000000000000000000000000000400000000000005384e
:162b3e0020004000000cf355000007897225a000001c284f6f0004
:202b54000000000010c30000280000000000000040000000000000000f43c0000000000014
:202b740000000000d00000000000000000000000000000000000000200000000000008bfa8
:172b9400800000001402ce3e50800000a0aa58000000202f99f0003e
:202bab00000000000c3020000000000000000000014e0f8000080007056a0000000027e843
:202bcb00120000000000000000000000000000078110168400000c000ef050000001eb6ef2
:162beb0000000000001ea356000007001225a00001467df87d00a6
:202c01000010000000c300000000000000000000000000f020000000536941000000027f52
:202c21004100000000000000000000000000000000e0016800000000010f0000000310fbeb
:172c41000000000000016b3d400280f0002e58100003e726c7d000e4
:202c5800000000000c302008000000000000000479ce0f80380070072c3e000002070000fc
:202c780000000000000000000000000000000000000000000ea07e04d8800002850000002d
:162c98000000e2e20035e27400010b005265a800080605cc0f007e
:202cae000000000000c300010000000000000000240100f0020000800603c000001c6c005a
:202cce000000000000000000000000000000000000000000008409e3eda0000010000000d9
:172cee00000008e02403ca1f50400090002a58000000224000f000e3
:202d0500000000000c3020000000000000000020654c0f80000039c023c14000000027f8b6
:202d25001000000000000000000000000000000000000000000024697e801b000000017067
:162d450020000000e21ea354000023183265a0000020605e7e0291
:202d5b000080400000c300000000000000000000420200f000000090003c10000000027e45
:202d7b00410000000000000000000000000000000000000000000343f50000904020007e4e
:172d9b00000000002e416f3d610004b1003258000002440c0e700096
:202db200000000000c302008000000000000000667405a80000000000000001000002f9b3c
:202dd200f000000000000000000000000000601800fa600000800c000000000003f0003868
:162df2003c80000000358274000027191265a000062000d97b0013
:202e08000000000000c30001000000000000000002060a5000000000000000010000027f02
:202e2800a7080000000000000000000000000502d00768000004e14000000000007d80046f
:172e480003c000000003ca1f704001f1e02e58000221c3e5b7b0800a
:202e5f00042800000c302000000000000000000401fc0f800000000000000000000027f81c
:202e7f00100003000000000000000000000000000000000000200e224cf700000001ab6c75
:162e9f0020000002005ea354100027801a65a0000100076e7d00dd
:202eb5000000000000c300000000000000000000200000f000000000000000000000027cac
:202ed5004100000000000000000000000000000000000000000003c40ceff000000000fbef
:172ef5000000000014296c3d49028500002e58000002c2adc7d00082
:202f0c00000000000c302000000000000000001c017e0f80000000100000000000003d9b37
:202f2c00f0000000000000000000000000000040000000000000200358f702000080a000c1
:162f4c00000000000035c276000028007a65a40040002fea7d0081
:202f62000000000000c30000000000000000000023c100f00000000a0000000000342e5fed
:202f8200a700000000000000000000000000000200000000000000c0040f3000000500007e
:172fa20000000000002bda1f4040005000be5800020003afebe0008f
:202fb900000000000c302000800000000000002639780f8000009800000000000143a7fd36
:202fd900b00000000000000000000000000000000000000000003c07ca8002000458b03855
:162ff9003c800000069eb355100820017265a000000601ca5f007a
:20300f000000000000c300000000000000000001c40300f0000001000000000000020278a9
:20302f00eb0000000000000000000000000000000000000000008163d500000000000a04cf
:17304f0003c0000080016f3d50010400a0aa58800002c204dfa000bc
:20306600000000000c3020081000000000000020397c0f8010000000000000000142ff9b85
:20308600f000000000000000000000000000000f0000000000400004000000000001a068de
:1630a6003c00480146f4c2741003201b1a25a0000020200c0f0097
:2030bc000000000000c300011800000000000000440300f000000000000000000002727fee
:2030dc00a7000000000000000000000000000000f80000000008e00200000000000000004b
:1730fc0003c200000033da1f68000100a02a58000001460100f00009
:20311300000000000c302000000000000000041c214e0f80000001e3a7c2010011e7a49f99
:20313300f00000000000000000000000000000071c1819b000000000000000000000000088
:16315300000000000781af050000080e3a65a0000000014e0f80f7
:203169000000000000c300000000000000000002600000f0400000100603c000008001d9be
:203189007f01000000f00000000000000000000001002999200000000000000000000000d3
:1731a90000000000000000f040000091f0aa58500002400000f020ba
:2031c000000000000c3023a0500000000000000001cc0f80000080a523c2000002004000f8
:2031e00000000000010000000000000000038007005a25b04e00000018f0403800000078cf
:163200003c00e000000000000000000a1225a00e000000c8f0c035
:203216004000000000c300210000000000000000000100f0000007100803c000002c340041
:203236000000008400d0000000000000000020000800a259008000c3000f040200000000a9
:1732560003c0480000000000001000d100a658408000000200f500c0
:20326d00000000000c30200000000000000004200168f080000001a7a3c2200000000000bb
:20328d00000000000000000000000000000000011a1225b0000000000af040000080100055
:1632ad000000040002c00000000005001a25a000002001e8f0c0a8
:2032c3004000000000c300000000c0000000000040000f00000010000003c0000000000006
:2032e300000000000000000000000000000000000100ae59200000c3000f040000070e00b8
:17330300000000200078000000000008b0a258000000400000f50034
:20331a00000000000c30200840000000000000000048fa8000007005a3c220081400000017
:20333a00000000000000000000000000000000038d3a65b010008004000000000000000000
:16335a0000000002002ea726000001803225a800000001e8f0d037
:203370004000000000c300000200000000000003400400a000000d800003c000409c3800ed
:203390000000000000000000000000000000000008d0325940000402c000000000000000b4
:1733b000000000001c01dcb5410000d800b658000000000200f4003b
:2033c700000800000c30200007800000000004803cc8f08100000001a3c2000003c02ecfdc
:2033e7003000000000000000000000000000000d807265b8000000001af040000000d00060
:1634070000000001e2000a54000087887a25a000000400c8f0c89c
:20341d008000000000c30000280000000000080003820f00000000000803c000001e02ecb1
:20343d0003000000000000000000000000000000f000aa5904000000010f04000000090058
:17345d00000000000003c05a50000200e0ba58000000238000f40060
:20347400000000000c30200050013bb0924000003809f0810000d003a3c200000143ef8f22
:2034940070000000001a17c0000000000000000f013a65b80000000018f040000000000008
:1634b40000000000e01cb0a6100000081a25a00000040448f0c8b1
:2034ca008000000000c300002800c3ef950000000000df00000005800003c0000c3c794ff9
:2034ea00ff0000000000c17c000000000000000050a0ae5940000000010f0400000000003b
:17350a00000000001e02dcad48000001002e58000000234000f400db
:20352100004000000c302000001c0000000000260048f08000000005a3c2000000404fae4d
:2035410070200000000000000000000000000000013225b0004000000af040010000a3288c
:163561009d020001e200af04800001005a25a000000000e8f0c8df
:203577008000000000c300000000000000000001c0020f00000000000003c000000039d053
:20359700fb00800000000000000000000000000070a0325960020000010f0400282000fb45
:1735b70047d24000004010f040000008002a58000001c00000f400e5
:2035ce00000000000c302122c00000000000000071e8f080080000a7a3c200000160000060
:2035ee0000000000000000000000000000011005807a25b204000000000000100038073053
:16360e00d5464002001cb524000000001a25a004000020e8f0c8b1
:203624000000000000c30000120000000000000004020f02000807100803c00100000000af
:203644000000000000000000000000000000028000003a594000000000000000000080bed3
:17366400cf50000014025cf540400000f03258200001c40200f410e4
:20367b00000000000c30200000003ee9500000860068f080001081b7a3c2000008028000c7
:20369b000000000000000000000000000000000f0c5a25b40000000000000000007001024e
:1636bb0095000002000000000000001c7a3c0000000001c8f0c116
:2036d1000000000000c3010000000f3e8504000742800f0040100d0b0003c1400c4040006f
:2036f10000000000000000000000000000000000f0f03a59100000000000000000008000b6
:17371100295400001c000000000200010f803c100000c00000f54035
:20372800000000000c30238007810000000000340448f080010001f5275001e000000000db
:203748000003a810000000000000000000039005811a65b4000400000000003800580000c6
:163768000000e063e0000a55000000000283c00e000000c8f0d8e6
:20377e000000000000c301200008d0000000000063800f000028000d9345c00800000000a8
:20379e0000002102000000000000000000002281f8e03a5940000000000000020000800018
:1737be00000008003401405a4000000000403c008000000200f400eb
:2037d500000000000c3220000001b6e95000002005c8f0800005f000000000000000000034
:2037f50000000800000000000000000000000008085225b001000000000000000000e00094
:1638150000000000060000000000000e0203c000000001e8f0c12a
:20382b000000000000c300000000f5bd4904000142800f00000025800000000040003c00c8
:20384b000000003800000000000000000000000071002e59201000000000000000001000ed
:17386b00000000003c0000000000000000403c000000000000f50099
:20388200000000000c3220400b001fce180000000008f000010018096bdc80000007cfae13
:2038a200040000001e00000000000000000000380e1225b000040000000000000000e06b68
:1638c200c1000000003583578400001c0683c040000000e8f0c15e
:2038d8000000000000c3000000f0ffb4f100000000000f000028400fdbbfc00000002a7ef1
:2038f800f05000000100000000000000000000027100b659200000000000000000001004b9
:173918003c14000040206e3d5000000100403c000000000200f50079
:20392f00000000000c302000080e72f450100000021e0f000000800bae10000000000000c8
:20394f00000000000000000000000000000000001c1a65b800000000000000000000000005
:16396f00000000000001af04800800000783c000000420c8f0e000
:203985000080000000c301000071036695810000000500f00000070ebbb7800000000000f2
:2039a5000000000000000000000000000000000000002e590000000000000000000000007b
:1739c50000000000000010f05000000000403c0000a0278000f48460
:2039dc00000000000c3020000708367090000a20025c95020200d9c102940000e20021e5f1
:2039fc00f000280000febe900000000000000000001a25b800000000000000000000002b25
:163a1c00c180000000040a540000800000000000002000e8f0c0b9
:203a32008000000000c3010000080d7f69840002c03e09a00010571ef03fc000005c2fd037
:203a5200af000380000fffc504000000000006000000a25900000000000000000000000446
:173a72003c100000000000a560000000000000000002d38000f500a2
:203a8900000000000c302400000f1af450000000334a0a0002000009f3f8000a04000000c5
:203aa90000000000000000000000000000000007801265b0000000000000000000000063ec
:163ac900c1800002000000000000001e00000000000004c8aa40d0
:203adf008000000000c3000000f1f36695840001c4260002001009093b3fc00040b40000e4
:203aff000000000000b0000000000000000000000800ba59020000000000000000200000ba
:173b1f003c1000001400000000000000000000000001c2420aa680fa
:203b3600000400000c3021280389367090000020004ff3000000501b669800440167bfcb23
:203b5600d01100000a0000000000000000012809001225b8400400000000001000000000ef
:163b760000005000000000000000001b0783c004001e065e34408a
:203b8c000000800000c301010008dd6f69c40002c3c5e30000000d89ff594000a000774b56
:203bac007a000000058000000000000000000100700026590000000000000000000000000a
:173bcc00000000000000000000000000a0403c000001c3fcf7e4101b
:203be30001000037ac30200003811859a0000100015e0f00000000a92e80800003e05d8fe4
:203c0300500000081997e0000000000000000000007265b000000000000000000000000032
:163c230000002000000000000000000000000000000039d9f080e9
:203c39000010000040c301000008d03d98010003400000f000000000ff50000000163800d9
:203c5900f500000070f7f000000000000000000000003e5954000000000000000000000014
:173c79000000000000000000000000000000000000000403c0f080fd
:203c9000000000018c30200003805225a000000000000000000000000000000001605eefef
:203cb000702020001e36a0008040000000039000011a25b400008000000000000000000089
:163cd0000000000000000000038000000683c000000079e8aa8087
:203ce6000000240000c30100007000ba5801000000000000000000000000000000023870a9
:203d0600ff00010030fd8000c00800000000200000f0ba59200004000000000000000000e1
:173d260000000000400000000020000000403c20000004020aa0805a
:203d3d0000000001ac302008081c5a25a0000020000000000280001d3968800003e02daf7f
:203d5d007020000800d6e00000000000000000079e7225b800000000000000010000000003
:163d7d000000000800000000000000000000000140207048aa80e5
:203d93000000000000c3010000b100ba580100004280000000000f0ef7290000002c00c09d
:203db300ff110000f0b17c00000000000000000009002e592000000000000000080000000b
:173dd30000000000000000000000000000000000000344020aa08066
:203dea00010000018c322000000f5a25a000000600000000000000000000000003e3c58179
:203e0a00002000051f1a600000000000000000a39e5a25b00000000000000000100000005a
:163e2a0000000080000000000000000e03bc180000000148aa80aa
:203e40004000240000c300000000d0be5801000000000000000080000000000000047ed082
:203e6000a501000008e7e400000000000000000400003a59600004000000000000000000ce
:173e80000000000000000000000000000043c001000000020aa0007b
:203e9700000000000c30200800001225a000000005eaa600000000000000000001470fbf25
:203eb700700000078fd3fdc00000000000000000007225ba00000000000000000000000004
:163ed70000000010000000000000000100000000000005e8aa80ad
:203eed000000000000c301001800003e580100000347e65000000100000000000000017b45
:203f0d00ff00000000893ffc000000000000000000003e590000000000000000000000003a
:173f2d00000000008000000000000000e0000000000002c00aa008a9
:203f4400000000000c30200000001a65a000000000da5a000000001000000000020280001a
:203f640000000003800000000000000000000000005225b000000000000000000000000093
:163f8400000000000000000000000000f7014840014000e8aa8054
:203f9a000000000000c301000000003a58010000000205a00000000a0000000000140000eb
:203fba0000000000f80000000000000000000000f0003a594000000000000000000000002c
:173fda000000008000000000000000b00702bc04000b43420aa00895
:203ff100000000000c302000050a5265a000000e000000000001001838080400000220ca97
:20401100000000000033280000014000000000000c7265b000000000000000003800000028
:1640310000000000000000000000830e0000000000000148aa8075
:204047000000000000c3010000d9b03a58010020000000000000200af7004000003c41502b
:204067005000000010008280000008000000000071002e5960000400000000000000000073
:1740870000000080000000000000000900000000000002c00aa00825
:20409e00000000018c302000050e1265a000002004000000000001e000000000800685a04b
:2040be00a00002871d16fdc00000000000011020083a25b8000c000000000000000000006d
:1640de000000000800000000000000000303c000000028c8aa80e4
:2040f4000000000000c3004000d8b0be58010002c340000000000010000000000000016094
:204114005a200000098373fc000000000000000500003a590000000000000000000000007e
:174134000000000000000000000000d000403c020002c4020aa08034
:20414b0000000017ec30200000005225a0000000020a5a0000000000000000000000000084
:20416b00000000000000000000000000000000000e3265b8000000000000000000000000d7
:16418b0000000000000000000000000000000000000000e8aa800c
:2041a10000100001c0c300000070003e5811000002f40a5080000000000000000000000083
:2041c100000000000000000000000000000000000100ba5910000002400000000000000078
:1741e10000000000000000000000000000000000000000000aa0c05d
:2041f8000000031dcc302000a7005225a000000e70180f0800000000000000000000000000
:2042180000000000017bfdc00000000000038000007a25b000000000000000380000100033
:164238000000e000000000000380080000000000000001e8aa80f2
:20424e000000004020c30006000000ba58010003400c00f080000000000000000000000055
:20426e0000000000f0ed6bfc000000000000220100002a59400000000000000200000f00f5
:17428e0000000800800000000020001000000000000000020aa08035
:2042a50000000006cc302000085c1a25a00000346000000000000000000000000000000000
:2042c500000000000bf3e0000000000000000000001265b0000000000000000000001000c4
:1642e500000000000000000000000000bf968000000079c8aa8083
:2042fb000000000020c300000031e03a5801000060000000000000000000000000000000bc
:20431b000000000001e1a40000000800000000001080ba59400000000000000000000c0005
:17433b0000000000000000000000000003415400000000000aa080a9
:2043520001000316cc302040001c1225a0000000294a5a080000000000000000000000000d
:2043720000000008000000000000000000000000017a65b000000000000000000200000091
:1643920000000402000000000000000006259280000000c8aa80e0
:2043a8000000044030c300000001e03258010000040105a0000000000000000000000000a8
:2043c8000000000070000000000000000000000010e02e59400000000000000000000000ae
:1743e8000000000004000000000200000001a500100000000aa080d8
:2043ff0000004746cc30200005005225a0000006006e9502000000000000000000000000ce
:20441f00000000000000000000000000000000039e5a65b0400000000e0f01000000002be4
:16443f00c10000000037c504100000000783c041000000e8aa80f9
:204455000000027c30c30000000800ba58010000001409a0080000000000000000000000f6
:204475000000000000000000000000000000000008003a59000000000000f0100000000488
:174495003c0040000003c0f54000000000403c000001c0020aa008ab
:2044ac0000000017ec30201200005a25a000000602080f0000001808383c040000000000b5
:2044cc0000000080003ae0000000000000000007007a25b000000000083a2200000000601c
:1644ec003c00000163c000000000070000000000001e7948aa00ca
:204502000000040030c30000000000b258010800000d00f0800000003403c000000000001b
:204522000000000000fde800000000000000020008002e59010000001d035004000000048a
:1745420003c800000220000000000070e0000000000024020aa0084d
:2045590000004787ec302000050e5a25a0000000006e9502000000a0000000000000000061
:20457900000000001e0000000000000000000000003a65b8000000000000000000000000ad
:1645990000000000003dc0548800000000000000000000003c02f5
:2045af000000004030c3000000d900ba58010003402609a0080000100000000000000000a3
:2045cf0000000000f0f00000000000000000000000003a59000004c0000000000000000095
:1745ef00000000000402d0af40000100000000000013400003c08059
:204606000003e781ec30200000007265a00000000000000000000000000000000000000076
:2046260000000003801e3d400000000000010023807a3c10000000000000000002000000ea
:16464600000040000200000001000301bf97c000000030000000d1
:20465c0000001c3c00c3200000b0003a5801000000000000000000000000000000000000c0
:20467c0000000000080043d400000000000000000003003d2500000000000000000000009a
:17469c00000000000040000000000008ff8028000000000000000018
:2046b300000000000c30200003803a3c0000000e716000800005000000000000000000002e
:2046d3000000000000000000000000000000000000000000000016007df0800000008366db
:1646f300e0000000001610080000001e97968000040060e8e2406a
:204709000010000000c3000000080f003c52000027c00000200020000000000000000000f1
:204729000000000000000000000000000000020000000000000000000280f0000000099360
:17474900ae00400000200f0002000001bf82a8000000026dca140003
:20476000000000000c302000000000000000000e70e8f08000000000000000e00000000027
:2047800000000000000000000000800000000080000303c000000068c8f08000005811a2a8
:1647a0006400000360441008000300000000000e010600cca0005c
:2047b6000000000000c300400000000000000000240200f0000000000000000000000000ca
:2047d600000000000000000000001000000000300000403c000001400200f08400000aff47
:1747f600294000001428280000000000000000008000c0020a010092
:20480d0000c000000c302000058100000000000001c8f08000000000000000000006000aa0
:20482d0055000000000000000000000000000005000303c00000006d68f080000081b33e94
:16484d002c800001668c100800005000000000000000636c8340bc
:204863000000000000c300000000d00000000000000000f00000000000000000000003406f
:204883005a4000000000000000000000000000010800003c000000028000f20000050a961d
:1748a30062c0000000000c0000000200000000000000002cda340094
:2048ba00000000000c302000000000000000000000e8f0800000000000000000000000a08a
:2048da00f6000000007728000000000000000080000703c00000360168f080800080812a25
:1648fa00e000000006860008000000000000000000200358f04188
:204910000000000000c300000000000000000002400000f00800000000000000000000107a
:204930000f4000000000028000000000000000080000003c0000c1400000f2000005103e0c
:174950005d00010025002c0000000000000000001002c00e0f5480de
:20496700040800000c30200000000000000000000048f08000000000000000000000000010
:2049870000000000000000000000000000001003800783c00000000448f089000070036a91
:1649a700e0000000e00c00080000001e737e8040003e0400000015
:2049bd0000a1400000c300000000000000000000000000f0800000000000000000000000c6
:2049dd0000000000000000000000000000000000b0d0403c000000030000f000000f8093a9
:1749fd002e00008002000b000000000109f940000000420000000063
:204a1400000000000c302000018057b0000040000048968000000000000000000000000000
:204a340000000000000000000000000000000000000303c000002e00e8f08080000005f29f
:164a54002c000000000600080000000000000000000401e90660be
:204a6a000000000000c300000000016cfc000a03c3c29960880000000000000000000000ed
:204a8a0000000000f000000000000000000000007400003c000002c00000f00000010f3a70
:174aaa0091c0004014000c0000000000000000000000024d80341031
:204ac100000000000c302000001e000000000020006896808000000000000000000000003d
:204ae10000000007000000000000000000000000000000000000000148f080000000032ec4
:164b0100e0000000000c100800000000000000000000000000009a
:204b17000000000000c300000001000000000001c000996080000000000000000000000080
:204b37000000000008000000000000000000000400000000000000000200f00400000897bd
:174b57006e00000000000b000000000090000000000000000000003e
:204b6e00000000000c302000000c0000000000000049968000000000000000400000000020
:204b8e0000000000000000000000000000000000000283c00000000148f0a000007007a7cb
:164bae006c000000029400080000010c00000004201c000000009a
:204bc4000000000000c3000000010000000000000002996080000000000000000000000092
:204be4000000000000000000000000000000000000c0003c000000000200f080000080368d
:174c04001080000000000c0000000099000000000000200000000044
:204c1b00000000000c302000000000000000000e0568f08000000000000000000000000032
:204c3b000000000000000000000000000000008900d2ebc010000001e8f0804100d80d2e96
:164c5b00e0000002001c00080000010053b28020021e02f8e54058
:204c71000000000000c300000000000000000000234000f0480000000000000000000000c5
:204c91000000000000000000000000000000000078016c14000000000000f0400805007756
:174cb1002e00000e14002b0004000000b5fb14000080602cdfa60018
:204cc800000000000c302000000000000000000e046000800000000000000000000000007e
:204ce800000000000000000000000000000380080e002958000000000996800000d807e2b2
:164d0800e00000020056000803a800007226400e005c025a0060ac
:204d1e000000000000c300000000000000000000230200000000000000000000000000008d
:204d3e0000000000000000000000000000002000d10701690000000000f690800005005395
:174d5e005d00000094280f0000210000017e94048020000c05040029
:204d7500000000000c30200000000000000000207140008000000000000000000000000071
:204d9500000000000000000000000000000100080100000000000000c8f0b0000239b73a60
:164db500bc000001669c10080101010000295c44000039fc0040d0
:204dcb000000000000c300000000000000000002c40000000000000000000000000000003f
:204deb000000000000000000000000000000000090f00000000000000000f00000038a5457
:174e0b00014010000000290000000008bf016944c04000060a04107d
:204e2200000000000c302000000000000000002070400080000000000000000000000000c4
:204e4200000000000000000000000000000028001c00000000000001c8f08000000017befe
:164e62002c000a016684000800030000136e000000040000000089
:204e78000000000000c300000000000000000000c402000000000000000000000000000091
:204e98000000000000000000000000000000010001000000000000000000f01000000f5693
:174eb800d1c0004000000f00000100000ff1d0000002c00000000070
:204ecf00000000000c302000000000000000000000400080000000000000000000000000a7
:204eef000000000000000000000000000000040000000000004c1429c8f080810011ed66f9
:164f0f00e0001000001c10080014001f3baa8000000000000000d0
:204f25000000000000c3000000000000000000000000000000000000000000001000000099
:204f45000000000000000000000000000000004000000000000a0026c000f2000000807337
:174f65006e00001034002b0000024001fb656800010003c000000089
:204f7c00000000000c302000000000000000000001400080000000000000000000000000f8
:204f9c00000000000000000000000000000000000000000000200000c8f0a0000000817e7e
:164fbc00f4000000101400080013a7413fabc000201c00000000de
:204fd2000000000000c30000000000000000000000020000000000000000000000000000fa
:204ff2000000000000000000000000000000000000000000000400000200f004000f0f5334
:175012004900000000000f00000084008f801400000023c0000000a5
:20502900000000000c3020000000000000000000006000800000000000000000000000002b
:205049000000000000000000000000000000002000963fc000000e00c8f0810080f0d92ad8
:16506900b0000000001c10080000039d0303c0000080785afa207b
:20507f000000000000c300000000000000000000000000000000000000000000000000004e
:20509f000000000000000000000000000000000490016294040007600200f00010098f73ee
:1750bf00ab000000002828000000000980403c000010043c05000085
:2050d600000000000c3020000000000000000000016000800000000000000000000000007d
:2050f600000000000000000000000000000104000000000000001401e8f08080401007aaa7
:16511600e0000900000c00080104070007a2c0a41000000000005d
:20512c000000000000c300000000000000000000000200000000000000000000100000008e
:20514c000000000000000000000000000000000000000000000000e24000f20000000057d8
:17516c001d00004e00000f00000000080f011c00000002000000007c
:20518300000000000000000000000000000000000560008000000000000000000000000027
:2051a30000000000000000000000000000000000000303c0000e4001c8f0908002008b7e04
:1651c300e0000074005c10080000078010402000008005dab810f0
:2051d900000000000000000000000000000000000340000040000000000000000000000033
:2051f9000000000000000000000000000000002a0000003c000000000200f044005010b7e3
:17521900dd0000008c3c2e0004000070802800000012c2a7db8000b9
:2052300000000000000000000000000000000000046000800000000000000000000000007a
:205250000000000000000000000000000000000f000783c00000000468f0800000d81dbb59
:16527000e80202020004000800002000f056aa00000038000000e6
:20528600000000000000000000000000000000000302000000000000000000000000000003
:2052a60000000000000000000000000000000000b000003c000000028200f30000050a7cfa
:1752c6002800004034000f0000000000033694000082c40000000013
:2052dd000000000000000000000000000000002001400080000000000000000000000000d0
:2052fd0000000000000000000000000000004000000603c000000001e8f0910030580b6229
:16531d00e0800800069c10080000000a7703e810210039ca8b101d
:2053330000000000000000000000000000000002c000000000000000000000000000000098
:20535300000000000000000000000000000000000000003c000000000200f010000009b340
:175373001d00000400002a000000100000ac3c050408032788b0006d
:20538a00000000000000000000000000000000200040008000000000000000000000000023
:2053aa0000000000000000000100000000000000000603c000000001e8f0a0000080a3e29b
:1653ca00e0000001668400080000050038002000000e044eb80085
:2053e00000000000000000000000000000000000c0020000000000000000000000000000eb
:20540000000000000000000000000000000000000000003c000000000200f000000d103f02
:17542000ee00000000002f000000000000bc0000000023fed7400064
:20543700000000000000000000000000000000000008f0000000000000000000000000005d
:20545700000000000000000000008000000005030000000000141c00c8f0800040900db3b5
:165477006c000014001c99680000500070002000080e7ddeb80079
:20548d000000000000000000000000000000000000000f00100000000000000000000000e0
:2054ad000000000000000000000000000000004108000000000103400000f000040700b3a4
:1754cd00908000080000289600804000f0a0000005002366bb8000d9
:2054e4000000000000000000000000000000000000000000000000000000000000000000a8
:2055040000000000000000000000000000000000000783c000014000e8f08142007803aa3c
:16552400e0000400001689680020071f7800200000000059b80097
:20553a00000000000000000000000000000000000000000000000000000000000000000051
:20555a00000000000000000000000000000000000000403c00000803c200f0000180893ab4
:17557a006e00002e00002f9600812001a0bc00000002c03ef7410083
:205591000000000000000000000000000000000000000000000000000000000000000000fa
:2055b10000000000000000000000000000004080000783c0000e0001e8f080c000b99bbb9a
:1655d100e8040009e05c89680000018170002001001e05cdb800e7
:2055e7000000000000000000000000000000000000000000000000000000000000000000a4
:20560700000000000000000000000000000000000000003c00000002c000f00000091ed09e
:175627001400004040282e962002040080b4000000002266ab8000df
:20563e0000000000000000000000000000000000000000000000000000000000000000004c
:20565e000000000000000000000000000000040b0c00000000100074c8f080c04000f3e280
:16567e00e0000000c01489680004001a100020001020045db800da
:205694000000000000000000000000000000000000000000000000000000000000000000f6
:2056b40000000000000000000000000000000000b10000000000a1c34000f0000001193a3d
:1756d400ee00000002002f962000020000bc000000e2c33e97400072
:2056eb0000000000000000000000000000000000000000000000000000000000000000009f
:20570b0000000000000000000000000000000000000703c001020030e8f080000001a5f390
:16572b006c0000000014996a0000800050402000a000001af060ab
:20574100000000000000000000000000000000000000000000000000000000000000000048
:20576100000000000000000000000000000000280000403c000860040000f050000000dbfd
:17578100d080400000002c960400003000b4001004e003410f04107c
:205798000000000000000000000000000000000000000000000000000000000000000000f1
:2057b8000000000000000000000000000000000000b73e8000000000e8f080b800000f2e0f
:1657d800a80000000016896a000008005000200e001e0000000066
:2057ee0000000000000000000000000000000000000000000000000000000000000000009b
:20580e00000000000000000000000000000000000005b540800000000000f012000000df1f
:17582e002948000000000b960004009000ac00008008200000000069
:20584500000000000000000000000000000000000000000000000000000000000000000043
:2058650000000000000000000000000000001300180783c00000000168f0a010000085a37d
:16588500e8000000c0548968000000185000200000000000000098
:20589b000010000000000000000000000000000000000000000000000000000000000000dd
:2058bb00000000000000000000000000000000010100403c000000000200f000000010dc71
:1758db001400400000242a9601000001a0bc00000000000000000020
:2058f200000000000000000000000000000000000000000000000000000000000000000096
:205912000000000000000000000000000000000900fabe8000000e05c8f0a0000001882a16
:16593200a8800010c78c89680000400010002000800004000000ef
:2059480000000000000000000000000000000000000000000000000000000000000000003f
:2059680000000000000000000000000000000000bc05f540800000028000f0000180093479
:175988001540000080002b9600400000002c0000042003c00000001f
:20599f000000000000000000000000000000000000000000000000000000000000000000e8
:2059bf00000000000000000000000000000000181c5bebc400620070c8f081000000e3b6e6
:1659df002c800000001499681008000050002000a00000000000c9
:2059f500000000000000000000000000000000000000000000000000000000000000000092
:205a15000000000000000000000000000000000051df7428000400078200f010000010d731
:175a350011c0000000202b96000000d000b0000004e0000000000044
:205a4c0000000000000000000000000000000000000000000000000000000000000000003a
:205a6c000000000000000000000000000000000b8dbbf6040000146808f0000000900000c9
:165a8c0000000002001e896a0000000018002000000023e9e44089
:205aa200800000000000000000000000000000000000000000000000000000000000000064
:205ac2000000000000000000000000000000000051c7ab9000000360000f009000098000e6
:175ae2000000000024002b9600010050b02c000000000405da440470
:205af90000000000000000000000000000000000000000000000000000000000000000008d
:205b1900000000000000000000000000000028059c0703c00080140008cf02000001eb7b05
:165b3900e8040801e71489680020500a504020008000021e50401b
:205b4f00c00000000000000000000000000000000000000000000000000000000000000076
:205b6f000000000000000000000000000000000000c0003c00000020010cf004000000d821
:175b8f001400000002002e960801020000b000000000003d0a0c080f
:205ba6000000000000000000000000000000000000000000000000000000000000000000df
:205bc600000000000000000000000000000000000cdb3e8400000002dafa001000f0007bc5
:165be600c1040000079c80f0002055007800200500062400000095
:205bfc00000000000000000000000000000000000000000000000000000000000000000089
:205c1c000000000000000000000000000000000030d53540000000002e0500000009800032
:175c3c003c105000010360f000410208002c000000000600000000e4
:205c53000000000000000040000000000000000000000000000000000000000000000000f1
:205c730000000000000000000001000000002000000783c010400e3a5eaf00013858070465
:165c930002000010001edfa00000000058002000002079d9db0087
:205ca9000000000000000004000000000000000000000000000000000000000000000000d7
:205cc900000000000000000000000000000000000000403c00000420350050002a00000b61
:175ce9004000808080014c5000000000002c00100003c034c4201020
:205d0000000000000000000000000000000000000000000000000000000000000000000083
:205d200000000000000000000000000000000000000783c0000020637cfa00000001a380fc
:165d4000020000100235ddb00001080050402000002e074cb80085
:205d560000000000000000000000000000000000000000000000000000000000000000002d
:205d7600000000000000000000000000000000000000403c000001c40f0a000000000002b1
:175d9600800000000043ca81000000500028000000e3e3069b800089
:205dad000000000000000000000000000000000000000000000000000000000000000000d6
:205dcd000000000000000000000000000000000000003fcc01410002eafa000102000784f5
:165ded0002000002400000000000059a5840200000803efe5a01ee
:205e030000000000000000000000000000000000000000000000000000000000000000007f
:205e230000000000000000000000000000000000000003fc801a0802870500040841000bd8
:175e4300000000002c00000000000000002000000004c3de0aa000ad
:205e5a000000000000000040000000000000000000000000000000000000000000000000e8
:205e7a0000000000000000000000000000000000000703c0004020617eaf00000080138439
:165e9a00020000020055ddb00008080078402000001c034c8b002e
:205eb0000000000000000004000000000000000000000000000000000000000000000000ce
:205ed000000000000000000000000000000000000000003c020200c42600a00000050a02d7
:175ef000800000003c31cc81000020b000a800000003e007c8b00087
:205f070000000000000000000000000000000000000000000000000000000000000000007a
:205f2700000000000000000000000000000028200c0303c000400e3edafa000000000104db
:165f470002000011e3b5cd80000010005a25a000802e007cb8003b
:205f5d00000000000000000000000000000000000000000000000000000000000000000024
:205f7d00000000000000000000000000000000000000403c000800237605000000000003df
:175f9d0000000000807cdad800000270003e58040403c3b4f740007e
:205fb4000000000000000000000000000000000000000000000000000000000000000000cd
:205fd40000000000000000000000000000000000000703c000003c72ecfa000000819384b7
:165ff400020000e0470ebac0000000003265a020003e735b8b00f8
:20600a00000000000000000000000000000000000000000000000000000000000000000076
:20602a000000000000000000000000000000000030d0403c000002c725050004000f1c03b5
:17604a00400000000402c95c00000000002a58000001c406f8b000df
:2060610000000000000000000000000000000000000000000000000000000000000000001f
:20608100000000000000000000000000000003800000000000428476cefa000105001584d9
:1660a10002000000005dbfa00000058e5a65a0000000735a080064
:2060b700400000000000000000000000000000000000000000000000000000000000000089
:2060d7000000000000000000000000000000000000000000000a0026f505000008000f0b5d
:1760f700000000003c397c5000000000003a58010053c00680000025
:20610e00000000000000000000000000000000000000000000000000000000000000000071
:20612e00000000000000000000000000000000000c00000000000e03cefa000000000384e5
:16614e00020000000000c0f00000059a7265a011001407588b0064
:2061640000000000000000000000000000000000000000000000000000000000000000001b
:206184000000000000000000000000000000000000c0000000000023a605000000000b0260
:1761a400400000401c20100f01003800002a58001001e387a8b0007b
:2061bb000000000000000000000000000000000000000000000000000000000000000000c4
:2061db000000000000000000000000000000100000000000004420036efa000002800380c0
:1661fb0002000000e045ffa000000b811265a0000000254aa7000f
:2062110000000000000000000000000000000000000000000000000000000000000000006d
:206231000000000000000000000000000000001800000000000203c03e0a00000055080bc0
:17625100c00100000231caa000000050a03a58100003c2e5efb000fd
:20626800000000000000000000000000000000000000000000000000000000000000000016
:2062880000000000000000000000000000000000000783c000001c066efa00000000050419
:1662a8000200000003800000000000011a25a00e0040601a0302ae
:2062be000000000000000000000000000000000000000000000000000000000000000000c0
:2062de00000000000000000000000000000000000000403c02000003f70500000000000320
:1762fe00400000000000000000000000a0a2580080000401003008f2
:20631500000000000000000000000000000000000000000000000000000000000000000068
:206335000000000000000000000000000000006000000000000f0e001c0f010005380384db
:16635500020000000224eb800000001a1225a00c002002d8f14275
:20636b00000000000000000000000000000000000000000000000000000000000000000012
:20638b000000000000000000000000000000008200000000000008000100f0000000800bec
:1763ab004000000000014db800003800002258004043c3d50f360083
:2063c2000000000000000000000000000000000000000000000000000000000000000000bb
:2063e2000000000000000000000000000000100000000000000000720bb80000000003044f
:1664020002001000e016dfa00000000e3225a000000438fa08407a
:20641800000000000000000000000000000000000000000000000000000000000000000064
:2064380000000000000000000000000000000280d00000000000600234f740000000000b1a
:176458004000000002004cf5000000900022580000002026c0541036
:20646f0000000000000000000000000000000000000000000000000000000000000000000d
:20648f0000000000000000000000000000000010000783c00002800178fa00000080038497
:1664af0002000203e067efa0002841001225a0000034064c1040e4
:2064c5000000000000000000000000000000000000000000000000000000000000000000b7
:2064e500000000000000000000000000000001000000403c02001740060a00000009080b95
:17650500800000401c3af0a000010238f036580000014356c1841031
:20651c0000000000000000000000000000000000000000000000000000000000000000005f
:20653c0000000000000000000000000000000000000703c0000c002efafa000000009104b2
:16655c0002000200477e8fa0000000001225a0000000016e40416a
:20657200000000000000000000000000000000000000000000000000000000000000000009
:206592000000000000000000000000000000000000c0403c020001c6f505000000001c03cb
:1765b20040000040023a50500102000000a2580000000365ca040043
:2065c9000000000000000000000000000000000000000000000000000000000000000000b2
:2065e90000000000000000000000000000000140000683c0100620316efa00000001838035
:1666090002000001c024dfa0000010001225a0200006724c4041c9
:20661f0000000000000000000000000000000000000000000000000000000000000000005b
:20663f00000000000000000000000000000000010000003c000803420f0a00000000100a7e
:17665f00400000003e03caa000000200002e580000000016842400f3
:20667600000000000000000000000000000000000000000000000000000000000000000004
:20669600000000000000000000000000000000001c00000000004e77fcfa000000300304d6
:1666b60002000001e396bb8008000100da2680040000000000008a
:2066cc000000000000000000000000000000000000000000000000000000000000000000ae
:2066ec00000000000000000000000000000000000190000000000823750500000000000355
:17670c00400000003c605d740000000005b1640200e40000000000c9
