:02000000ff00ff
:080002004c6174746963650030
:17000a00694345637562653220323032302e31322e32373934330071
:15002100506172743a2069434534305550354b2d53473438002c
:1b003600446174653a204d617220323420323032352032323a32303a3132008b
:0200510000ffae
:040053007eaa997e6a
:02005700510056
:0200590001059f
:03005b00920020f0
:03005e006202b388
:03006100720150d9
:0300640082000017
:02006700110086
:02006900010193
:20006b00000000000000000000000010000000000000400000000000010000000000000420
:20008b000000000000001000000000000040000000001000000000000040000000000001b4
:1600ab0000000000000004000000000000100000000000004000eb
:2000c1000000000000000000000000020000000000000800000000000020000000000000f5
:2000e10080000000000002000000000000080000000002000000000000080000000000006b
:1701010020000000000000800000000000020000000000000800003d
:200118000000000000000000000000000000000000000000000000000000000000000000c7
:200138000000000000000000000000000000000000000000000000000000000100000000a6
:160158000000000000000000000000000000000000000000000091
:20016e00000000000000000000000000000000000000000000000000000000000000000071
:20018e00000000000000000000000000000000000000000000000000000000000000000051
:1701ae0010000000000000000000000000000000000000000000002a
:2001c50000000000000000000000000000000000000000000000000000000000000000001a
:2001e5000000000000000000000000000000000000000000000000000000000000000000fa
:1602050000000000000000000000000000000000000800000000db
:20021b000000000000000000000000000000000000000000000000000000000000000000c3
:20023b000000000000000000000000000000000000000000000000000000000000000000a3
:17025b00000000000000000000000000000000000000f0000000009c
:2002720000000000000000000000000000000000000000000000000000000000000000006c
:20029200000000000000000000000d0000000000000000000000000000000000000004003b
:1602b2000000000000000000000000000000000000000000000036
:2002c800000000000000000000000000000000000000000000000000000000000000000016
:2002e8000000000000000000000000000000000000000000000000000000000020000000d6
:170308000000000000000000000000000000000000000000000000de
:20031f000000000000000000000000000000000000000000000000000000000000000000be
:20033f000000000000401000000000000000000000401000000000010040000000000800b5
:16035f000000000000000000000000000000000000000000000088
:20037500000000000000000000000000000000000000000000000000000000000000000068
:20039500000000000000000000000000000000000000000000000000000000000000000048
:1703b500000000000000000000000000000000000000000000000031
:2003cc00000000000000000000000000000000000000000000000000000000000000000011
:2003ec00000000000000000000000000008010000000000000000000000000000000000061
:16040c00000000000000000000000000000000000000000080005a
:200422000000000000000000000000000000000000000000000000000000000000000000ba
:20044200000000000000000000000000000400000000000000000000000000000000000096
:1704620000000000000000000000000000000000000000000c000077
:20047900000000000000000000000000000000000000000000000000000000000000000063
:20049900000000000000000000000000000000000000000000400000000000000000000003
:1604b900000000000000000000000000000000000000000000002d
:2004cf0000000000000000000000000000000000000000000000000000000000000000000d
:2004ef000000010000000000000000000000010000000000000400000000000000000000e7
:17050f000000000000000000000000000000000000000000000000d5
:200526000000000000000000000000000000000000000000000000000000000000000000b5
:20054600000000000040000000000000000000000040000000000001000000000000000014
:16056600000000000000000000000000000000000000000000007f
:20057c0000000000000000000000000000000000000000000000000000000000000000005f
:20059c000000000000400000000000000000000000000000000000000000000000000000ff
:1705bc00000000000000040000000000000000000000000000000024
:2005d300000000000c302000000000000000000000000000000000000000000000000000ac
:2005f3000000000000000000000000000000000000000000000000000000000000000000e8
:1606130000000000000000000000000000000000000000000000d1
:200629000000000000c30000000000000000000000000000000000000000000000000000ee
:20064900000000000000000000000000000000000000000000000000000000000000000091
:1706690000000000000000000000000000000000000000000000007a
:20068000000000000c302000000000000000000000000000000000000000000000000000fe
:2006a00000000000000000000000000000000000000000000000000000000000000000003a
:1606c0000000000000000000000000000000000000000000000024
:2006d6000000000000c3000000000000000000000000000000000000000000000000000041
:2006f6000000000000000000000000000000000000000000000000000000000000000000e4
:170716000000000000000000000000000000000000000000000000cc
:20072d00000000000c30200000000000000000000000000000000000000000000000000050
:20074d0000000000000000000000000000000000000000000000000000000000000000008c
:16076d000000000000000000000000000000000000000000000076
:200783000000000000c3000000000000000000000000000000000000000000000000000093
:2007a300000000000000000000000000000000000000000000000000000000000000000036
:1707c30000000000000000000000000000000000000000000000001f
:2007da00000000000c302000000000000000000000000000000000000000000000000000a3
:2007fa000000000000000000000000000000000000000000000000000000000000000000df
:16081a0000000000000000000000000000000000000000000000c8
:200830000000000000c30000000000000000000000000000000000000000000000000000e5
:20085000000000000000000000000000000000000000000000000000000000000000000088
:17087000000000000000000000000000000000000000000000000071
:20088700000000000c302000000000000000000000000000000000000000000000000000f5
:2008a700000000000000000000000000000000000000000000000000000000000000000031
:1608c700000000000000000000000000000000000000000000001b
:2008dd000000000000c3000000000000000000000000000000000000000000000000000038
:2008fd000000000000000000000000000000000000000000000000000000000000000000db
:17091d000000000000000000000000000000000000000000000000c3
:20093400000000000c30200000000000000000000000000000000000000000000000000047
:20095400000000000000000000000000000000000000000000000000000000000000000083
:16097400000000000000000000000000000000000000000000006d
:20098a000000000000c300000000000000000000000000000000000000000000000000008a
:2009aa0000000000000000000000000000000000000000000000000000000000000000002d
:1709ca00000000000000000000000000000000000000000000000016
:2009e100000000000c3020000000000000000000000000000000000000000000000000009a
:200a01000000000000000000000000000000000000000000000000000000000000000000d5
:160a210000000000000000000000000000000000000000000000bf
:200a37000000000000c30000000000000000000000000000000000000000000000000000dc
:200a570000000000000000000000000000000000000000000000000000000000000000007f
:170a7700000000000000000000000000000000000000000000000068
:200a8e00000000000c302000000000000000000000000000000000000000000000000000ec
:200aae00000000000000000000000000000000000000000000000000000000000000000028
:160ace000000000000000000000000000000000000000000000012
:200ae4000000000000c300000000000000000000000000000000000000000000000000002f
:200b04000000000000000000000000000000000000000000000000000000000000000000d1
:170b24000000000000000000000000000000000000000000000000ba
:200b3b00000000000c3020000000000000000000000000000000000000000000000000003e
:200b5b0000000000000000000000000000000000000000000000000000000000000000007a
:160b7b000000000000000000000000000000000000000000000064
:200b91000000000000c3000000000000000000000000000000000000000000000000000081
:200bb100000000000000000000000000000000000000000000000000000000000000000024
:170bd10000000000000000000000000000000000000000000000000d
:200be800000000000c30200000000000000000000000000000000000000000000000000091
:200c08000000000000000000000000000000000000000000000000000000000000000000cc
:160c280000000000000000000000000000000000000000000000b6
:200c3e000000000000c30000000000000000000000000000000000000000000000000000d3
:200c5e0000000018000000000000000000000000000000000000000000000000000000005e
:170c7e0000000000000000000000000000000000000000000000005f
:200c9500000000000c302000000000000000000000000000000000000000000000000000e3
:200cb50000000000000000000000000000000000000000000000000000000000000000001f
:160cd5000000000000000000000000000000000000000000000009
:200ceb000000000000c3000000000000000000000000000000000000000000000000000026
:200d0b000000000000000000000000000000000000000000000000000000000000000000c8
:170d2b000000000000000000000000000000000000000000000000b1
:200d4200000000000c30200000000000000000000000000000000000000000000000000035
:200d6200000000000000000000000000000000000000000000000000000000000000000071
:160d8200000000000000000000000000000000000000000000005b
:200d98000000000000c3000000000000000000000000000000000000000000000000000078
:200db80000000000000000000000000000000000000000000000000000000000000000001b
:170dd800000000000000000000000000000000000000000000000004
:200def00000000000c30200000000000000000000000000000000000000000000000000088
:200e0f000000000000000000000000000000000000000000000000000000000000000000c3
:160e2f0000000000000000000000000000000000000000000000ad
:200e45000000000000c30000000000000000000000000000000000000000000000000000ca
:200e650000000000000000000000000000000000000000000000000000000000000000006d
:170e8500000000000000000000000000000000000000000000000056
:200e9c00000000000c302000000000000000000000000000000000000000000000000000da
:200ebc00000000000000000000000000000000000000000000000000000000000000000016
:160edc000000000000000000000000000000000000000000000000
:200ef2000000000000c300000000000000000000000000000000000000000000000000001d
:200f12000000000000000000000000000000000000000000000000000000000000000000bf
:170f32000000000000000000000000000000000000000000000000a8
:200f4900000000000c3020000000000000000000000000000000000000000000000000002c
:200f6900000000000000000000000000000000000000000000000000000000000000000068
:160f89000000000000000000000000000000000000000000000052
:200f9f000000000000c300000000000000000000000000000000000000000000000000006f
:200fbf00000000000000000000000000000000000000000000000000000000000000000012
:170fdf000000000000000000000000000000000000000000000000fb
:200ff600000000000c3020000000000000000000000000000000000000000000000000007f
:201016000000000000000000000000000000000000000000000000000000000000000000ba
:1610360000000000000000000000000000000000000000000000a4
:20104c000000000000c30000000000000000000000000000000000000000000000000000c1
:20106c00000000000000000000000000000000000000000000000000000000000000000064
:17108c0000000000000000000000000000000000000000000000004d
:2010a300000000000c302000000000000000000000000000000000000000000000000000d1
:2010c30000000000000000000000000000000000000000000000000000000000000000000d
:1610e30000000000000000000000000000000000000000000000f7
:2010f9000000000000c3000000000000000000000000000000000000000000000000000014
:201119000000000000000000000000000000000000000000000000000000000000000000b6
:1711390000000000000000000000000000000000000000000000009f
:20115000000000000c30200000000000000000000000000000000000000000000000000023
:2011700000000000000000000000000000000000000000000000000000000000000000005f
:161190000000000000000000000000000000000000000000000049
:2011a6000000000000c3000000000000000000000000000000000000000000000000000066
:2011c600000000000000000000000000000000000000000000000000000000000000000009
:1711e6000000000000000000000000000000000000000000000000f2
:2011fd00000000000c30200000000000000000000000000000000000000000000000000076
:20121d000000000000000000000000000000000000000000000000000000000000000000b1
:16123d00000000000000000000000000000000000000000000009b
:201253000000000000c30000000000000000000000000000000000000000000000000000b8
:2012730000000000000000000000000000000000000000000000000000000000000000005b
:17129300000000000000000000000000000000000000000000000044
:2012aa00000000000c302000000000000000000000000000000000000000000000000000c8
:2012ca00000000000000000001000000000000000000000000000000000000000000000003
:1612ea0000000000000000000000000000000000000000000000ee
:201300000000000000c300000000000000000000000000000000000000000000000000000a
:2013200000000000000000000010000000000000000000000000000000000000000000009d
:17134000000000000000000000000000000000000000000000000096
:20135700000000000c3020000000000000000000000000000000000000000000000000001a
:20137700000000000000000000000000000000000000000000000000000000000000000056
:161397000000000000000000000000000000000000000000000040
:2013ad000000000000c300000000000000000000000000000000000000000000000000005d
:2013cd00000000000000000000000000000000000000000000000000000000000000000000
:1713ed000000000000000000000000000000000000000000000000e9
:20140400000000000c3020000000000000000000000000000000000000000000000000006c
:201424000000000000000000000000000000000000000000000000000000000000000000a8
:161444000000000000000000000000000000000000000000000092
:20145a000000000000c30000000000000000000000000000000000000000000000000000af
:20147a00000000000000000000000000000000000000000000000000000000000000000052
:17149a0000000000000000000000000000000000000000000000003b
:2014b100000000000c302000000000000000000000000000000000000000000000000000bf
:2014d1000000000000000000000000000000000000000000000000000000000000000000fb
:1614f10000000000000000000000000000000000000000000000e5
:201507000000000000c3000000000000000000000000000000000000000000000000000001
:201527000000000000000000000000000000000000000000000000000000000000000000a4
:1715470000000000000000000000000000000000000000000000008d
:20155e00000000000c30200000000000000000000000000000000000000000000000000011
:20157e0000000000000000000000000000000000000000000000000000000000000000004d
:16159e000000000000000000000000000000000000000000000037
:2015b4000000000000c3000000000000000000000000000000000000000000000000000054
:2015d4000000000000000000000000000000000000000000000000000000000000000000f7
:1715f4000000000000000000000000000000000000000000000000e0
:20160b00000000000c30200000000000000000000000000000000000000000000000000063
:20162b0000000000000000000000000000000000000000000000000000000000000000009f
:16164b000000000000000000000000000000000000000000000089
:201661000000000000c30000000000000000000000000000000000000000000000000000a6
:20168100000000000000000000000000000000000000000000000000000000000000000049
:1716a100000000000000000000000000000000000000000000000032
:2016b800000000000c302000000000000000000000000000000000000000000000000000b6
:2016d8000000000000000000000000000000000000000000000000000000000000000000f2
:1616f80000000000000000000000000000000000000000000000dc
:20170e000000000000c30000000000000000000000000000000000000000000000000000f8
:20172e0000000000000000000000000000000000000000000000000000000000000000009b
:17174e00000000000000000000000000000000000000000000000084
:20176500000000000c30200000000000000000000000000000000000000000000000000008
:20178500000000000000000000000000000000000000000000000000000000000000000044
:1617a500000000000000000000000000000000000000000000002e
:2017bb000000000000c300000000000000000000000000000000000000000000000000004b
:2017db000000000000000000000000000000000000000000000000000000000000000000ee
:1717fb000000000000000000000000000000000000000000000000d7
:20181200000000000c3020000000000000000000000000000000000000000000000000005a
:20183200000000000000000000000000000000000000000000000000000000000000000096
:161852000000000000000000000000000000000000000000000080
:201868000000000000c300000000000000000000000000000000000000000000000000009d
:20188800000000000000000000000000000000000000000000000000000000000000000040
:1718a800000000000000000000000000000000000000000000000029
:2018bf00000000000c302000000000000000000000000000000000000000000000000000ad
:2018df000000000000000000000000000000000000000000000000000000000000000000e9
:1618ff0000000000000000000000000000000000000000000000d3
:201915000000000000c30000000000000000000000000000000000000000000000000000ef
:20193500000000000000000000000000000000000000000000000000000000000000000092
:171955000000000000000000000000000000000000800000000000fb
:20196c00000000000c302000000000000000000000000000000000000000000000000000ff
:20198c0000000000000000000000000000000000000000000000000000000000000000003b
:1619ac000000000000000000000000000000000000000000000025
:2019c2000000000000c3000000000000000000000000000000000000000000000000000042
:2019e2000000000000000000000000000000000000000000000000000000000000000000e5
:171a02000000000000000000000000000000000000000000000000cd
:201a1900000000000c30200000000000000000000000000000000000000000000000000051
:201a390000000000000000000000000000000000000000000000000000000000000000008d
:161a59000000000000000000000000000000000000000000000077
:201a6f000000000000c3000000000000000000000000000000000000000000000000000094
:201a8f00000000000000000000000000000000000000000000000000000000000000000037
:171aaf00000000000000000000000000000000000000000000000020
:201ac600000000000c302000000000000000000000000000000000000000000000000000a4
:201ae6000000000000000000000000000000000000000000000000000000000000000000e0
:161b060000000000000000000000000000000000000000000000c9
:201b1c000000000000c30000000000000000000000000000000000000000000000000000e6
:201b3c00000000000000000000000000000000000000000000000000000000000000000089
:171b5c00000000000000000000000000000000000000000000000072
:201b7300000000000c302000000000000000000000000000000000000000000000000000f6
:201b93000000000000000000000000000000000000000000000000000ef0400000000000f4
:161bb300000000000000000000000000000000000000000000001c
:201bc9000000000000c30040000000000000000000000000000000000000000000000000f9
:201be900000000000000000000000000000000000000000000000000000f020000000000cb
:171c09000000000000000000000000000000000000000000000000c4
:201c2000000000000c30200000000000000000000000000000000000000000000000000048
:201c400000000000000000000000000000000000000000000e000000000000000000000076
:161c6000000000000000000000000000000000000000000000006e
:201c76000000000000c300400000000000000000000000000000000000000000000000004b
:201c96000000000000000000000000000000000000000000008000000000000000000000ae
:171cb600000000000000000000000000000000000000000000000017
:201ccd00000000000c30240000000000000000000000000000000000000000000000000097
:201ced000000000000000000000000000000000000000000000000000000000400000000d3
:161d0d0000000000000000000000000000000000000000000000c0
:201d23000000000000c30000000000000000000000000000000000000000000000000000dd
:201d4300000000000000000000000000000000000000000000000000000000000000000080
:171d6300000000000000000000000000000000000000000000000069
:201d7a00000000000c302000000000000000010000000000000000000000000000000000ec
:201d9a00000000000000000000000000000000000000000000000000000000000000000029
:161dba000000000000000000000000000000000001000000000012
:201dd0000000000000c30040000000000000000000000000000000000000000000000000f0
:201df0000000000000000000000000000000000000000000000000000000000000000000d3
:171e10000000000000000000000000000000000000000000000000bb
:201e2700000000000c3220000000000000000000000000000000000000000000000000003d
:201e470000000000000000000000000000000000000000000000000000000000000000007b
:161e67000000000000000000000000000000000000000000000065
:201e7d000000000000c300004000000000000000000000000004000000000000100000002e
:201e9d000000004000000000000000000000004000000000000100000000000004000000a0
:171ebd000000000000000000000040000000000001000000000000cd
:201ed400000000000c30200000000000000000000000000000000000000000000000000092
:201ef4000000000000000000000000000000000000000000000000000000000000000000ce
:161f140000000000000000000000000000000000000000000000b7
:201f2a000000000000c3004000000000000000000000000000000000000000000000000094
:201f4a00000000000000000000000000000000000000000000000000000000000000000077
:171f6a00000000000000000000000000000000000000000000000060
:201f8100000000000c302400000000000000000000000000000000000000000000000000e0
:201fa100000000000000000000000000000000000000000000002000000000000000000000
:161fc100000000000000000000000000000000000000000000000a
:201fd7000000000000c3000000000000000000000000000000000000000000000000000027
:201ff700000000000000000000000000000000000000000000000340000000000000000087
:172017000000000000000000000000000000000000000000000000b2
:20202e00000000000c302404000000000000000000000000004000000000000100000000ed
:20204e0000000400000000000000000000000400000000000010000000000000400000001a
:16206e000000010000000000000400000000000010000000000047
:202084000000000000c3000000000000000000000000000000000000000000000000000079
:2020a40000000000000000000000000000000000000000000000000000000000000000001c
:1720c400000000000000000000000000000000000000000000000005
:2020db000100000ccc302000000000000000000000000000000000000000000000000000bc
:2020fb00000000000000000000000000000000000003bc1800000000000000000031852810
:16211b003e0000000000000000000001f214300000000000000039
:2021310000100001c0c300400000000000000000000000000000000000000000004000007a
:2021510000000000000000000000000000000000000003c30000000000000000000f8d0a02
:1721710083c020000000000000000000f9001548000000000000009e
:2021880000000000ec30238000000000000000000000000038000000000000e00000000060
:2021a8000003900000073c140000000000038000000000000e000000000000000018c17053
:1621c8003e00000000000000038000019214380000000000000061
:2021de000000000000c30060000000000000000000000000020000000000000800000000b4
:2021fe0000002280000003c3000000000000200000000000008000000000000000030f0f98
:17221e0003c000000000000000200000ad8015000000000000000084
:2022350000000000cc30240000000000000000000000000001080000000000000000000060
:202255000000000000000000000000000000000000000000000000000ef040000090016832
:162275003e0000000600000000000019d2143000000000000000e0
:20228b000000000000c3000000f00000000000000000000000000000000000000040000040
:2022ab00000000000000000000000000000000000000000000000000010f001000070c03dd
:1722cb0043c00000000000000000000089801540000000000000009b
:2022e20001000000ec302400001a0000000000000000000000000000000000000000000081
:20230200000000000000000000000000000000000000000000000000000000000081e5b89d
:162322003e000000038dea0000000981d21430000000000000004d
:202338000000000000c300001800000000000000000000000000000b00000000000000009f
:202358000000000000000000000000000000000000000000000000000000000000071c0a38
:1723780043c000a00040d00000000070ad8015800000000000000069
:20238f000000c0000c302400000000000000000000000000000000006bc1400000000000a2
:2023af00000003800000000000000000000000000000000000000000000000000099f305fa
:1623cf006a000001401cea0000000000fa14380000000000000001
:2023e5000000000000c3000000000000000000000000000000000000043c100000000000c5
:2024050000000000000000000000000000000000000000000000000000000000000f081b85
:1724250029400000140020a000000000090015000000000000000045
:20243c00000000000c30200000010000000000000000000000000000000000000000000023
:20245c00000000000003bc140000000000000000000000000000000000000000008019856f
:16247c006a000001603da1a020000000da143200000000000000c1
:202492000000000000c30040000080000000000000000000000000000000000000000000a7
:2024b20000000000f00043c1000000000000000000000000000000000000000000010ed235
:1724d200294000000001f000000000000d0015000000000000000077
:2024e9000000c0000c302400000002bc10000000000000000000000000000000034000efb3
:20250900050000000e000000000000000000002800000000000a000400000000007807f8f2
:162529003e00000206dfc20020000800da1430000000000000006f
:20253f000000000000c3000000000003c1060000000000000000000000000000002e0000c1
:20255f00f0c00000010000000000000000000000f000000000000003c00000000000000bed
:17257f0003c00000142b600000000010090015800000000000000035
:2025960000000000ec3021000000df1540200000000000001000000000000040000000ef55
:2025b60005010000000000000000000000010000000000000000000000000000008197e402
:1625d6003e00000206c0000001100818fa14380000000000000072
:2025ec000000000000c300400000efc15400000000000000000000000000000000000000c8
:20260c00f0400000000000000000000000000000000000000000000000000000000f080e59
:17262c0043c000a014280000000200100d8015000000000000000004
:2026430000000037ac302000001e5783e000400000000000000050a0000000004000200ad2
:20266300550000000000000000000000000000000000000000000000000000000080d12889
:162683003e0000000000000000000180f21430000000000000004c
:2026990000100002f0c30040000100003c0802000000000000000090000000000000014004
:2026b9005ac0000000000000000000000000000100000000000000000000000000011e0abd
:1726d90003c1000000000000000000000b00155000000000000000b6
:2026f000000000478c3020080001f016a00000000000000038005005fa0100e0016000002f
:202710000000000000000000000000000003800000000000000000000000003800000320cb
:162730003e00000000000000038000003a14100000000000000074
:202746000000002430c300010000ef0294000000000000000200008072f09008000000005a
:20276600000000000000000000000000000020000000000000000000000000020000000f22
:1727860003c00000000000000020000001802940000000000000006f
:20279d0004000017ac30200008195383e0000000000000000000000f6fe9000000000000c7
:2027bd00000000000000000000000000000000000000000000000000000000000080002359
:1627dd00c102000000000000000000000000000000000000000023
:2027f3000000000030c30000001080803c0000000000000000000d0b76be701000000000bb
:2028130000000000000000000000000000000000000000000000000000000000000700009e
:172833003c1000000000000000000000000000000000000000000042
:20284a00010000478c30200019815303e00000000000000000007805fa01000001400000c1
:20286a0000000000000000000000000000000000000000000000000000000000000000004e
:16288a000000000000000000000000000000000000000000000038
:2028a0000000002430c30000181080c03c000000000000000000000b72b09040000200005e
:2028c0000000000000000000000000000000000000000000000000000000000000000000f8
:1728e0000000000000000000000000000000000000000000000000e1
:2028f70000000017ac3020000000d816a00000000000000000000000000000000000000020
:20291700000000000000000000000000000000000000000000000000000000000018000088
:16293700000000000000000000000000000000000000000000008a
:20294d000080000030c300000000e30294000000000000000000000000000000000000007e
:20296d000000000000000000000000000000000000000000000000000000000000000f003b
:17298d00000000000000000000000000000000000000000000000033
:2029a400000000478c30202800005f03e00000000000000000000005fa0100000000000086
:2029c4000000000000000000000000000000000800000000000000000000000000000000eb
:1629e40000000000000000000000000100000000000000000000dc
:2029fa000000002c30c300001070e0403c0000000000000000000000727090000000000050
:202a1a0000000000000000000000000000000000700000000000000000000000000000002c
:172a3a000000000000000000000000009000000000000000000000f5
:202a510000000017ac30200001805a03e0000000000000000000800f668100000000018f8e
:202a7100041000000000000000000000000000000000000000000000000000000000000031
:162a91000000000000000000000008000000000000000000000027
:202aa7000000000030c30000007000c03c0000000000000000000b0072981000000000008b
:202ac700f040000000000000000000000000000000000000000000000000000000000000bf
:172ae7000000000000000000000000100000000000000000000000c8
:202afe00000000018c30200018197e03e00000000000000010001005fb7d04400000000068
:202b1e000000000000000000000000000001000000073c10400000000000001000000000f3
:162b3e000000000000000000010000000000000000000000000080
:202b54000000000010c3000000b0d0c03c00000000000000000000807231f00000000000ff
:202b740000000000000000000000000000000000000003c10000000000000000000000007d
:172b940000000000000000000000000000000000000000000000002a
:202bab00000000000c30200000007783e00000000400000000000015abc20000000000004e
:202bcb00000000000000000000000000000000000c000000000000000000000000000000de
:162beb0000000000000000000000000000000000000000000000d4
:202c01000010400000c30000000000003c100000038000000000000f0e43c00000000000b1
:202c2100000000000000000000000000000000000000000000000000000000000000000093
:172c410000000000000000000000000000000000000000000000007c
:202c5800000000000c302028400a5703e00020003800000000000003a3c200e002000000b2
:202c78000000000000000000000000000003800000000000000000000000000000000000b9
:162c98000000000000000000000000000000000e00000000000018
:202cae000000000000c300000201b0403c00000004000000000000000803c0080014000029
:202cce000000000000000000000000000000200000000000000000000000000000000000c6
:172cee0000000000000000000000000000000000800000000000004f
:202d0500000000000c30200001803a3c200000000400000000000017a3c2000000003cf887
:202d250004000000000000000000000000000000000000000000000000000000000000008a
:162d45000000000000000000000000000000000000000000000078
:202d5b000000000000c3000000000003c0000000028000000000000f0803c000000000e88e
:202d7b00c24100000000000000000000000000000000000000000000000000000000000035
:172d9b00000000000000000000000000000000000001c00000000060
:202db200000000000c30200050003a3ea800000068000000000001b323c2000000068000ae
:202dd2000000000000000000000000000000000000000000000000000000000000000000e1
:162df20000000000000000000000000000000000000000000000cb
:202e08000000000000c3000028000f0028000000000000000000000a0803c00000000000b3
:202e280000000000000000000000000000000000000000000000000000000000000000008a
:172e4800000000000000000000000000000000000000000000000073
:202e5f00000000000c302001000a323c2000080003eea6000000000723c2000000003cfd9a
:202e7f00f4000000000000000000000000000000000000000000000000000000000000003f
:162e9f00000000000000000000000000000000000000000af041e2
:202eb5000000000000c3000000000083c000000003cf96500000000b0003c000003400eb52
:202ed500c7c80000000000000000000000000000000000000000000000000000000000004e
:172ef50000000000000000000000000000000000000000000f0000b7
:202f0c00000000000c3020204581723c20000e06020c0f0000005015a3c2000000000ecfbd
:202f2c00a400000000000000000000000000000000000000000000000000000000000000e1
:162f4c00000000000000000000000000000000000000000000006f
:202f62000000000000c300002a70d003c000000342cd00f00000008f0803c000003401cfff
:202f8200f9c000000000000000000000000000000000000000000000000000000000000076
:172fa200000000000000000000000000000000000000000000000018
:202fb900000000000c3020000d011a3c200006200158950200000003a3c2000003407ce8f3
:202fd9001500000000000000000000000000000000023c1040000000000000000000000035
:162ff90000000000000000000000000000000000000000000000c2
:20300f000000000000c300000010f083c0000002c2ef09a000000d000003c000002e3cde27
:20302f0082400000000000000000000000000000000043c1000000000000000000000000bb
:17304f0000000000000000000000000000000000000000000000006a
:20306600000000000c30200008001a3c20000000077ce200000000a7a3c2004000000000bf
:20308600000000000000000000000000000100000000000000000000000000000000000029
:1630a6000000000000000000000000000000000000010000000013
:2030bc000000000000c3000018b00083c00000000367e8b00000001b0803c000000000003e
:2030dc000000000000000000000000000000000000000000000000000000000000000000d4
:1730fc000000000000000000000000000000000000000000000000bd
:20311300000000000c30200000007a3c20000036627ef300000001e7a3c200000000000014
:203133000000000000000000000000000000000000000000000c0000000000000000000070
:16315300000000000000000000000000000000000000384a500094
:203169000000000000c3000000000003c010000142eeb030000000000003c10000000000db
:20318900000000000000000000000000000000000000000000000000000000000000000026
:1731a900000000000000000000000000000000000000c003050084c3
:2031c000000000000c30200050005a3c2000001468080f000000500f235000000000000028
:2031e00000000000000000000000000000000000000000000e0000000000000000000000c1
:163200000000e00000000000000000000000000e00000040a56085
:20321600c000000000c3000028000003c000000022cd00f00000008bf3c5c0000000000048
:203236000000000000000000000000000000000000000000008000000000000000000000f8
:1732560000000800000000000000000000000000800000000a50007f
:20326d00000000000c30200000005a3c2000001428fe95020000000000000000000000005e
:20328d00000000000000000000000000000040000000000000000068000000000000000079
:1632ad00000000000000000000000000000000000000000000000b
:2032c3000000000000c3000000000003c0000000242409a00000000b000000000000000069
:2032e3000000000000000000000000000000040000000000000000040000000000000000c3
:1733030000000000000000000000000000000000000002c0000000f1
:20331a00000000000c3020000998023c08000036000a0f00000000a5e02800000000000054
:20333a00000000200000000000000000000000000000000000000000000000000000000053
:16335a00000000000000000000000000000000000000000000005d
:203370000000000000c3000000100003c0000000402400f000000010dc0000000000000067
:20339000000000040000000000000000000000000000000000000000000000000000000019
:1733b0000000000000000000000000000000000000014000000000c5
:2033c700000000000c30200000003e9680000006007a5a0000008001f2bc08000000000025
:2033e70000000000000000000000000000000000000000000000000000a5500000000000d1
:1634070000000001c000cf048000000000000000000001daa00020
:20341d000000000000c300000000008168000000000005a000000b003416c2000000000027
:20343d000000000000000000000000000000000000000000000000003405a0000000000096
:17345d0000000000020000f00000000000000000000000000a00005c
:20347400000000000c302000000a5f03c0000126065e9502000001c000000000014000008c
:20349400000000000000000000000000000000000000000000000000000000000000000018
:1634b4000000000000000000000000000000000000000000000002
:2034ca000000000000c300000050a0403c00000a624409a000000010000000000000280022
:2034ea000000000000000000000000000000000000000000000000000000000000000000c2
:17350a000000000000000000000000000000000000000000000000aa
:20352100000000000c302000d00a879680000000025ef300000238100000000000001dc538
:20354100f0000000000000000000000000000000000000000000000000000000000000007a
:163561000000000000000000000000000000000000200000000034
:203577000000000000c300000000034294000000000ea0300000000e000000000024242044
:203597005f00000000000000000000000000000000000000000000000000000000000000b5
:1735b700000000000000000000000000000000000002c0000000003b
:2035ce00000000000c302020080176968000002e0179f3000000f1b7f968000000029fcdba
:2035ee00f0300000000000000000000000000000000000000000000000000000000000009d
:16360e0000000000000000000000000000000000000000000000a6
:203624000000000000c30000005080c168000002e005e3000000098f94280000000001f0bb
:20364400ff0000000000000000000000000000000000000000000000000000000000000067
:1736640000000000000000000000000000000000000000000000004f
:20367b00000800000c30200007801859a000001668c00080000000100000000000606ffc9a
:20369b00240000081e3859b000000000000000000007bc10000000000000000000000000b1
:1636bb000000000000000000000000000000000000940000000065
:2036d1000000000000c300800008e03d98000000000200002000000e00000000000020ddac
:2036f100e5410000700025994000000000000000000003c140000000000000000000000021
:17371100000000000000000000000000000000000005e000000000bc
:20372800000000000c302000039c1a25a000000070c8f080380050b9fd0800e000002fbded
:2037480004038000007225b00000000000038000000000000e0000000000003800000000ca
:163768000000e0000001af06000020000000000e00000000000087
:20377e000000000000c300800009e0b258000000040200f00200008e9a128008000000df5c
:20379e00da412000f0c03e59400000000000200400000000008000000000000200000000a3
:1737be0000000800000010f0000005000000000080c1400000000066
:2037d500044000000c30200000005a25a00000200468f0800000800d6a95080002002fec68
:2037f50024000000005a25b000000000000000000000000000000000000000000000000061
:16381500000000000016ca0000000000000000000000636fb550e6
:20382b000000000000c300800070003e58000001428200f00000070054285400000400dcc8
:20384b00e5500000f000b259400000000000000000000000000000000000000000000000ed
:17386b0000000000000020a0080000000000000000000005f5a400e0
:20388200000000000c302000081e3265a000001601c8f0800000d0000000000001621e8f3e
:2038a20070000007015a25b000000000000000000007bc100000000000000000000000008c
:1638c2000000000806c000000000000000000000007c034c854092
:2038d8008000000000c300800030f0b258000000200000f00000078b000000000000407a87
:2038f800ff00000008e036594000100000000000000043c1400000000000000000000000a6
:17391800000000014038000000000000000000000001403f847500a6
:20392f00100000000c30200007011a65a00000003d48f08000000000000000000003adcf71
:20394f0070200808085225b040000000000000000c033c18000000000ef0400000000000a8
:16396f000000000060000000000005007b28000020000400000016
:203985000000000000c300820000d0ba58000000078000f08000000000000000001401707f
:2039a500f3080100f1003e590400000000000000010043c100000000010f05000000000060
:1739c50000000000000000000000000000828000000003c000000026
:2039dc00000000000c30200007013a65a00000000168968000000009fef5010003c24000a7
:2039fc00000000030e1a65b0400000000000038300000000000000000000000000000000a5
:163a1c000000100000000000000000000000000001000000000083
:203a3200000e000000c300803800c0ae5800000000008960000000009a2d5000003c2800c1
:203a52000000000031003e5900000000000000000800000000000000000000000000000084
:173a7200000000000000000000000000000000000008000000000035
:203a8900042000000c302000000e5265a000001e0149968000001805ee950000000000001a
:203aa90000000003083a65b0000000000000000000073c1800000004000000000001a000a3
:163ac900000000000000000000000000000000000000045fd14073
:203adf000000000000c308000000002e580000000002a9600000000076a8504000000000bd
:203aff000000000009f0b2590000000000000000000003c10000000340000000000010008c
:173b1f000000000000000000000000000000000000000205a52400bf
:203b3600100000000c302000010a1225a000000001689680100010093e9500400002400024
:203b560000011000001225b040000000000100000c00000004000000000000000200003bc9
:163b7600c10000000000000000000001003fc22400007c000000d6
:203b8c000100000000c30800000900a2580000000000996080000080da285040000034008b
:203bac000000028000902659000000000000000070000000000000000000000000500004a4
:173bcc003c0000000000000000000000a003fc4000000600000000c1
:203be3000100003fec30200017005265a000004001e8f08000001810000000000006000011
:203c030000000058017225b000000000000000010010295000000000000000000000000077
:163c23000000000000000000000000000000000000860000000005
:203c390000100002f0c300800000003e58100008000000f048000089000000000000400077
:203c59000000000270b0b6593000000000000000000002954000000000000000000008000b
:173c790000000000000000000000000000000000000003c000000071
:203c900000000001cc30200007005a25a000000001e000800000000000000004006000000c
:203cb00000038007811225b000000000000380000007bc100040000000000000000000006c
:163cd0000000000000000000001000000000000e002e0169814067
:203ce6000000000010c30080000000b2580000000000000000000000000000002002380007
:203d060000002000f0f0ba592000000000002080000043c1400a000000000000000000007c
:173d2600000000000000000000028000000000008003c005e5b40023
:203d3d0000000001ec30200000005a25a00000366de00080000080000000000000000dafcb
:203d5d0050000000015265b000000000000000000007bc10000000000000000000000000bb
:163d7d000000040000000000000000000703c0000000636df26040
:203d93004000000010c308000070003e580000014282000000000900000000000000001011
:203db300f5000000f0e0b6590400000000000000000003c104000000000000000000000050
:173dd300000000a0000000000000000000403c040000003f8f0400e7
:203dea0001000001cc302000081d7265a000000001e0008000000003317c0000020676cfa1
:203e0a0070200001001265b00000000000000000000000000000000000000000300003218c
:163e2a007c000000000000000000000000000000001e07ebb54001
:203e40000000000010c311000031c0ae5800000000020000000000000817c00000246460be
:203e6000ff00000008002259010000000000000000000000000000000000000000000004bb
:173e800017c000003400000000000000000000000000028dd30400ba
:203e9700000000000c30300027001225a000000001400080000081d12b7c08000360168adc
:203eb70000000000005225b040000000000000000c033c18000000000000000000000078a9
:163ed7003c0100000001a0f01000001a0000000000003a7af760d2
:203eed000000000000c300000000003e58000000000000000000071e903fc2000014001082
:203f0d00a000000090d032590000000000000200010043c1000000000000000000070004f7
:173f2d0003c000000000000f00000000000000000003c40dcfa480e4
:203f4400000000000c32200005807225a000000001400080000000077e800000000000007d
:203f640000002800005a25b0000a00000000000000000000000000000000000000000000dc
:163f840000000000000000000000000c00000000a00478000000ff
:203f9a000000003400c30000000800be580000000000000000000000bf900000000024007f
:203fba000000010000802a59040000000000000000000000000000000000000000000000df
:173fda00000000000000000000000000000000000402640000000066
:203ff100000000000c303029000f1a25a000000001400080000001ab79400000020036f5da
:20401100a0000000015265b040000000000000000000000000000e00000000000000000039
:1640310000000000000000000000000173280000000000000000dd
:204047000000000000c300010000c03e5800000000020000000000007c000000002c02c9ca
:20406700a4000030f0f022590000000000000000000000000000000000000000000000000a
:17408700000000000000000000000000e0c280000000000000000000
:20409e0000000001cc302000000a7265a0000026654000800000f8a0000000000000000081
:2040be0000010000001a25b040000000000100030c07bc14000080000e0f008000000000ae
:1640de0000000008000000000000000000000004002c2000000074
:2040f4000000003410c30000000100b25800000266420000000005080000000000000000e3
:20411400000000000000aa590000000000000000b00003c1000010000000f00000000f0005
:17413400000000014000000000000000000000000002e4000000004d
:20414b0000000067cc3024000000b23c0000000001e0008000000180000000000006469819
:20416b0000000000003265b0000000000000008f9e000000000020016a5000000000a03015
:16418b003c000000000000000000000000000000000004000000de
:2041a10000100039f0c30000000003003c3200000000000040000010000000000000275cbe
:2041c100000000000000ae591400000000000001f1000000000003c27c000000000000048c
:1741e10003c0100000380000000000000000000000000200000000ba
:2041f800000162458c3024100000f6350000000001e000803800000ff869610003464000f1
:2042180000038000005a25b0000000000000100000d7200000003e02fa80020000700bebab
:16423800dc40e0c0000000000010000000000000400001e8a000db
:20424e000000027c30c30000007005285c0000000000000002000000d669500000266400cb
:20426e000000200000003659040000000000008000976800000201e00c00000000000017f8
:17428e00ffc00800000000000002a00000000000020000030a0000a1
:2042a5000002038fac302400080000000000000001e00080000000000000000000061defea
:2042c50070000007803225b000000000000000058e37a00080000061ccc002000000a068fa
:1642e5003c000000004000000000000000000000000001fcfa0050
:2042fb0000001c4000c300000030000000000000000200000000000000000000003441efee
:20431b00ff0000000800aa590404000000000001f90fc00000000340370c200000001000f1
:17433b0003c01000003c00000000000000000000000002830fa01018
:2043520001020216ac302000080000000000000001e0008000000010000000040060068ac7
:20437200000020078e3a25b000000000000000080b32e000000c3607df1f00020001e3eb2a
:16439200fc0004080000000000100000000000000000001ec0021d
:2043a80000003c0030c3004000b000000000000000020000000000090000000000020010b9
:2043c800a00001010900b6590000000000000285b1b1e800000003c37cb0f000180d0097ac
:1743e800dfc00021000000000000800000000000000000010c000071
:2043ff000000000f8c30240001800000000000000008f000000000000000000002069d8a07
:20441f00000000000e3265b000000000000000001f57828000001e6a005a00801039cb3cfe
:16443f00200000000014f3f410000000000000000000000000003c
:204455000000140000c30000000000000000000000000f000000000000000000000400104d
:20447500a0000000f000be59000000000000000000d00028000000003c0a500000008073ff
:174495004000000000027f1a400000000000000000000000000000f5
:2044ac000001e716cc302000080000000000000000000000000000000000000008005dc8a1
:2044cc0000200000007225b00000000000001280095690008000b4600000000038819028e3
:1644ec003c0004006005f3f600032000000000000000700e050086
:204502004000000020c30100005000000000000000000000000000000000000000142bd016
:204522000000000000f0b659040000000000020000d94000000015400000000000050e04ef
:1745420003c0102000037e2540400400000000000000043500a20466
:204559000001400eac30200005000000000000000000000000000000000000000346adf804
:20457900000000000e3265b0000000000000000018bebd4000001c386c80000000f0107941
:16459900680400000001c0f00000000000000000000038000000b7
:2045af000000000000c301000008000000000000000000000000000000000000001429697a
:2045cf00000000000100ba5904000800000000000007e3ec000040228490000000078e7457
:1745ef00294040002c38000f00800000000000000000000000000019
:204606000000c000ec302000000000000000002664000000100071a00000000042601ec865
:20462600002100070e3225b0000000000000000f810603c000005c72180f008002701838a7
:164646003c0244080785e3050013a00e0783c0000000380000001d
:20465c000000020000c30000000000000000000266400000002010800000000000140140cc
:20467c0000080000090036590000000000000000b0a0403c010008262c00f004004088b0eb
:17469c0003c000a15c037e7a6000850000403c40000007c0000000e4
:2046b300000000000c3024000000de3090000000000000000002000000000000006005e89a
:2046d30000000000007a25b0000000000000000f00baa0000001002e6908000018019000c6
:1646f30000000010030c000800002000dbee080000002cc000802d
:204709000010000000c3000000f005a36904000000000000000000000000000000022bdab1
:20472900000000000000ba59100000000000002018ab3c000000a3c7959000000003080094
:174749000000000000002f00000001000375d0000001c200a000007e
:20476000000000000c3027800780d6f450000000000000000000000000000000000780002e
:2047800000038020007265b000000000000003850192a008800014001e0f00380080002093
:1647a0003c00e002000e821c0ba180010000000e060001c850c01f
:2047b6000000000000c300a000080da2950400000000000000000000000000000000000030
:2047d600000022000000be59000000000000000008bd800080000022c000f00600010004e8
:1747f60003c008001c026e4850200030a000000080000014005408dd
:20480d00000000000c302000001e00000000000000000000000000000000000000400000d1
:20482d00000000000e7a25b00000000000000005010683c0002020600a0f0000000007708f
:16484d000d800001630c821c04000001fade98000014604812c0b7
:204863000000000000c3000000000000000000000000000000000000000000000002000070
:20488300000000000000ae5900000800000000003890003c800001c00000f010000300ba04
:1748a30016d4000000034e4841003000f1e6e1010001c006984404aa
:2048ba00000000000c302000070000000000000000000000000000000000000000667ddfb9
:2048da0070000000003a65b000000000000010080a0383c020061c020a5a208000001378c4
:1648fa000d000001c046921e000058009b8954000c06054850c0a5
:204910000000000000c300000008c00000000000000000000000000000000000000263e9ae
:20493000ff0000000000be590000140000000280f1a0003c000003600d0a5000000008fa22
:17495000a9d4000a062e4c48480002f00f2c75040000021600541097
:20496700000000000c3020000000000000000000000000000000000000000000000296cf6d
:2049870070200000017a65b00021000000000000000603c0400400001a0f00000500077815
:1649a7000d040081429697be10000000fa895240000401e850c118
:2049bd000000000000c30000000000000000000000000000000000000000000000000270a5
:2049dd00ff19000000e0b25900000000000000000000003c000000000000f01000000ebeaf
:1749fd0016d4000c02036eed4000000001fc754000002004005400e3
:204a1400000000000c3020000000000000000000000000000000000000000000036017b8f4
:204a340000000000017a65b000000000000000050012a80000000400405a10000058a9b0b4
:164a54002000000142d499680003d8019f8950400000016850c106
:204a6a000000000000c300000000000000000000000000000000000000000000005401ec28
:204a8a000000000090d03e59000000000000000000af0000000000200005a000000000d6cb
:174aaa004000000006780d9600000ab0ff2c7580001400140054003e
:204ac100000000000c30200000000000000000000000000000040000000000000206bdffb1
:204ae100700000870e7a25b000014000000008078a5abc44c0000000000000000000977066
:164b01000d000001429699680000039dfac950400006016850c144
:204b17000000000000c3000000000000000000000000000000000000000000000014034f55
:204b3700ff0000000900b65900000800000001000899c3c0010004000000000000201fbe18
:174b570016d2400034000a9600000009f1fc75000000000600540086
:204b6e00000000000c30210000000000000000000000000000000000000000000007c00003
:204b8e00000100271dfa3c1a0000000000000180009e820000000e00080f0010005009ba89
:164bae0000044000e00e99680100039c00000004002061e850c0a1
:204bc4000000000000c30000000000000000000000000000000000000000000000042800e2
:204be4000000000001cf803d20000000000000000001e000000000200100f20000000ad630
:174c0400400000203e000e96004000099000000000004016005404d0
:204c1b00000000000c30200000000000000000000400000000000000000000000000000019
:204c3b00000000081d00000000000000000000050800000000000004fed800003000bbbaa8
:164c5b0034000042031c89680000000a0703c000002001c850c0f0
:204c71008000000000c30000000000000000000003c000000000000000000000000000001d
:204c910000000000b1d0000000000000000000000000000000000042278d81000050093f73
:174cb100138000001c4028961400000000403c200002c00400544035
:204cc800000000000c30200000000000000000200000000000000000000000000000000050
:204ce8000000000d0000000000000000000380071e5e4c101e000020080f20008070093699
:164d0800b0000008e0169968000005000303c00e000e03c850c024
:204d1e008000000000c300000000000000000003c00000000000000000000000000000006f
:204d3e0000000000b0000000000000000000200008a1e2d5008000040100f0001000003a66
:174d5e001700000142000d9608000000a0403c0080600004005400e5
:204d7500000000000c302000000000000000000000000000000000000000000000000000c2
:204d95000000000380163dc00000000000000000000303c4000420006b3f400280780db9d0
:164db500f400000003ce8968000000000603c0000000654850c0ac
:204dcb000000000000c3000000000000000000000000000000000000000000000000000005
:204deb00000000000081abfc00000000000000000000003c000001c01ed1a40c10008afb4f
:174e0b002f80000000280e960800000000003c000000020600540471
:204e2200000000000c30200000000000000000000068f500000000000000000000000000b7
:204e420000000003807ebdc080000000000000000800000000000003dc30480000d80068b3
:164e62003c000062e00c8968000000000383c0000006074850c014
:204e78000000000000c30000000000000000000000010f50040000000000000000000000f3
:204e980000000000000d03fc0000000000000000010000000000000025e7a484000f0a00a0
:174eb80003c0000014000e960080000000003c000000020600541040
:204ecf00000000000c30200000000000000000000000000000000000000000000000000067
:204eef0000000000000783c040000000000000019c9640d000001e006f03404000f88179d4
:164f0f00f400000000049968000007010303c000000001e850c1cb
:204f25000000000000c3000040000000000000000000000000040000000000000000000065
:204f4500000001400000403c0000000000000040000d656d050100001fda74080403005b93
:174f65002f80001114002e961000400890003c000100000400540020
:204f7c00000000000c302000000000000000000000000000000000000000000000000000b9
:204f9c0000000080001a3d400000000000000000005e0c104000003fdd304000055183b20d
:164fbc00b0000002429499680010001e0603c0000000036850c1e3
:204fd2000000000000c30000000000000000000000000000000000000000000000000000fc
:204ff20000000000000043d400000000000000000001e6d52000000265e7a41402ad9bbba1
:175012002b00000016402a960002800100403c0000000004005400ef
:20502900000000000c3020000000000000000000000000000000000000000000000000000b
:20504900000000000000000000000000000010800097c0d0404406006d034000007010785e
:165069003c00000342c68968000003800203c0000026016850c111
:20507f000000000000c300000000000000000000000000000000000000000000000000004e
:20509f0000000000000000000000000000000000000d656d200000621eda751400070e04f6
:1750bf0003c010002e7c0f960000000000403c0000004006005400a2
:2050d600000000000c3020040000000000000000000000000040000000000000000000001a
:2050f60000000401810000000000000000014400015e0c1804100000000000004080e33e57
:16511600e0000d09400e89680004000000000004102063e850c0bb
:20512c000000000000c30000000000000000000000000000000000000000000000000000a0
:20514c000000020000f00000000010000000040000c1f6d5220003c380000000000b0fd25d
:17516c00ae0000a002000b9600002800000000000000400600540475
:2051830000000000000000000000000000000000000000000000000000000000000000000c
:2051a300000000000d023c100000000000000000007603e00040a039dc0f8000000010386c
:1651c3003c000000079e896a000000000603c000010e03c850c04f
:2051d900800000000000000000000000000000000000000000000000000000000000000036
:2051f9000000000000e043c180000000000000003000403c080207c40000f02000090d0487
:1752190003c000000078099604000030e0403c000008000c0054406c
:2052300000000000000000000000000000000000000000000000000000000000000000005e
:205250000003800000033c1040000000000380000c323c3000000001ca0f8000003801fd6f
:16527000f4000000000c896a0000058a0283c40f002003c850c053
:20528600800000000000000000000000000000000000000000000000000000000000000088
:2052a60000002000000003c100000000000020000000803d400000000000f00000008bbab2
:1752c6001f400000000009960000007900403c009000401c0054009e
:2052dd000000000000000000000000000000000000000000000000000000000000000000b1
:2052fd0000004000000000000000000000000000017a3c30400e166dca0f80000031e9f92d
:16531d00ec010001e3dc89680000000c0283c800000003c8504028
:2053330000000000000000000000000000000000000000000000000000000000000000005a
:205353000000000000000000000000000000000000b0803d000000028300f000002710b66b
:175373005ec0000000640f960100007000003c000000000e005404e9
:20538a00000000000000000000000000000000000000000000000000000000000000000003
:2053aa000000000000023c1041000000000000000e123c3011000001ca0f80000011e13d2e
:1653ca00f4000000604e99680000200010168000001e0000000046
:2053e0000000000000000000000000000000000000000000000000000000000000000000ad
:2054000000000000000043c100000000000000000000003d001000000300f000000d0056e5
:175420001f40000002240d96010000000001684000000000000000a3
:20543700000000000000000000000000000000000000000000000000000000000000000055
:2054570000000008000000000000000000000000003a3c346044202048f080010501e7e019
:165477003c00000000168968000007800603c2000000025f0640e3
:20548d000000000000000000000000000000000000000000000000000000000010000000ef
:2054ad000000004010000000000000000000004000d0003d000301400200f00006200000e6
:1754cd0003c000003c2c2d960080400000003c00010000148034080d
:2054e4000000000000000000000000000000000000000000000000000000000000000000a8
:20550400000004000007bc102000000000000007805a3c3820009e00c8f0800005000d79ba
:16552400ec08000142949968000001808383c80010200000000026
:20553a00000000000000000000000000000000000000000000000000000000000000000051
:20555a0000000000000043c100000000000000001800803d800014000000f000002d081c83
:17557a002dc000001e400c960080000003403c000002c0000000006c
:205591000000000000000000000000000000000000000000000000000000000000000000fa
:2055b1000000000000000000000000000000000800523c3060402664c8f080010000ff634f
:1655d10028000000061489680000081bf79f40000026040000006e
:2055e7000000000000000000000000000000000000000000000000000000000000000000a4
:20560700000000000000000000000000000000001000803d020000420200f00008010ed297
:17562700b140200034402b96008008b1f13df4000000420000000089
:20563e0000000000000000000000000000000000000000000000000000000000000000004c
:20565e0000010400080000000000000000010400003a3c300000000048f0900040d0adf5fa
:16567e00ec0000000056996800040800139bc00410200000000025
:205694000000000000000000000000000000000000000000000000000000000010000000e6
:2056b400000000400000000000000000000000000080003d450000000000f00003019b12f3
:1756d400adc000003c280f96008001f003fe7c800002c00000000019
:2056eb0000000000000000000000000000000000000000000000000000000000000000009f
:20570b0000004000000000000000000000000000011a3c380000000068f080420000036d25
:16572b00f4000001c0149968000100005b3600100020747a0f805f
:20574100000000000000000000000000000000000000000000000000000000000000000048
:2057610000000402000000000000e000000000000080803d110004000000f040100000ded2
:175781001f40000000002e9605040000eb2b60000000420280f000bb
:205798000000000000000000000000000000000000000000000000000000000000000000f1
:2057b800000000000000000000000000000380031e5a3c305000366c68f080000071d078e4
:1657d8003c000002068e996803a0059a00000000002e3ddc0f80d0
:2057ee0000000000000000000000000000000000000000000000000000000000000000009b
:20580e00000000000000000000000000000020000900003d000002428200f080004b180477
:17582e0003c4000034402e96102114000000000000004383c0f000a9
:20584500000000000000000000000000000000000000000000000000000000000000000043
:2058650000000000000000000000000000000000007a3c344120000068f080000080e3f5a8
:16588500f4000000c6848968000003813acfd640000e01ea0f80b3
:20589b000010000000000000000000000000000000000000000000000000000000000000dd
:2058bb00000000000000000000000000000001000000003d001000000200f2000003003652
:1758db001f400040006c0d9610000000d97869000000600290f0005c
:2058f200000000000000000000000000000000000000000000000000000000000000000096
:2059120000000000000000000000000000000007807a3c3010000001e8f080012481e9bd53
:16593200ec000001c00699680000200197cc1a00000075e05a80de
:2059480000000000000000000000000000000000000000000000000000000000000000003f
:20596800000000000000000000000000000000000800003d000000000000f08020010e97a4
:17598800dec020001c000a96100000b0a3a1e90000014224da500010
:20599f000000000000000000000000000000000000000000000000000000000000000000e8
:2059bf0000000040000000000000000000000809801a2a9a20008001e8f0800000f1c869fe
:1659df006800020000068968080007813ec0d800000660f90f80fd
:2059f500000000000000000000000000000000000000000000000000000000000000000092
:205a150000000000000000000000000000000200100002a920009000000f0000008700105e
:175a350029400000002c2f9600000008897a9d240000020280f000c0
:205a4c0000000000000000000000000000000000000000000000000000000000000000003a
:205a6c000000000000000000000a000000000000000303c000000004e8f080048070a5f85d
:165a8c00f00000000054896800000180978c1800001471fa0fa0e5
:205aa2000000000000000000000000000000000000000000000000000000000000000000e4
:205ac200000000000000000000000000000000000000003c00000002820f00005001103a5a
:175ae200bfc00001003c0e960000090003b9e94200036603f0f00011
:205af90000000000000000000000000000000000000000000000000000000000000000008d
:205b190000000000000000000000000000000020000303c000000001e8f080000000a80481
:165b3900f0000000079c9968000000013e40d000000071615a80c7
:205b4f00000000000000000000000000000000000000000000000000000000000000000036
:205b6f00000000000000000000002000000000250000003c00000400020f000000071092d7
:175b8f000f00000004000a96000000d0d97a9da0000007d6ca5000f5
:205ba6000000000000000000000000000000000000000000000000000000000000000000df
:205bc60000000000000000000000000000010003000203c00000360468f080000070ebe1a8
:165be600bc000060e014896801000780978c1000000e386d0f80ab
:205bfc00000000000000000000000000000000000000000000000000000000000000000089
:205c1c0000000000000000000000000000000000f800403c00000162c00f000000008f1320
:175c3c009bc000011e002e960000000803bde980000022c3c0f2004b
:205c5300000000000000000000000000000000000000000000000000000000000000000031
:205c730000000000000000000000000000000380005683c01000160548f0800000198779f9
:165c9300f4000409e3268f0000000000f340900000366dcc0f80a1
:205ca9000000000000000000000000000000000000000000000000000000000000000000db
:205cc900000000000000000000000000000000000000003c00000002800f00482000007313
:175ce9001f40100e0000c00f04000000c13c010000014281c0f040a2
:205d0000000000000000000000000000000000000000000000000000000000000000000083
:205d200000000000000000000000000000000008018396880000166948f0804000700030a2
:165d40003c000000603cb5000380001b1e041000002e05de0f8050
:205d560000000000000000000000000000000000000000000000000000000000000000002d
:205d76000000000000000000000000000000000010f5029400000000020f00000000401011
:175d960003c00000023dcd81012000d0e37801000001c2c0f0f000f6
:205dad000000000000000000000000000000000000000000000000000000000000000000d6
:205dcd0000000000000000000000000000000008000683c00000206868f08001000005b14e
:165ded00f80804006000e0f003000580f3009000000e754a0f8005
:205e030000000000000000000000000000000000000000000000000000000000000000007f
:205e230000000000000000000000000000000000100b003c04000140000f000800000c3868
:175e430039c000003438100f00300000013401000004620280f00086
:205e5a00000000000000000000000000000000000000000000000000000000000000000028
:205e7a0000000000000000000000000000000001988616880000000048f0800000b80030ab
:165e9a003c0000000627cdb2000000001f501000000071ca0f80c1
:205eb0000000000000000000000000000000000000000000000000000000000000000000d2
:205ed000000000000000000000000000000000005005429400000000020f000000058e9053
:175ef00003c000000000f88100000000e36c01000000000380f0009c
:205f070000000000000000000000000000000000000000000000000000000000000000007a
:205f270000000000000000000000000000000000018683c00000000068f080000079e1f965
:165f4700ec080002003c87b00000038e9b001000002031f80f80c7
:205f5d00000000000000000000000000000000000000000000000000000000000000000024
:205f7d00000000000000000000000000000002000081003c80000640020f00000007003433
:175f9d002dc020001c00fcb701000009b1c281000000420090f00051
:205fb4000000000000000000000000000000000000000000000000000000000000000000cd
:205fd400000000000000000000000000000000500186968800000000e8f080000001cbf99b
:165ff40048840000c70000000000038f1a8010000006647b0f8054
:20600a00000000000000000000000000000000000000000000000000000000000000000076
:20602a00000000000000000000000000000000020085029400000002020f0008000510b356
:17604a00604000002460000000000008fb014100000002c3c0f00061
:2060610000000000000000000000000000000000000000000000000000000000000000001f
:2060810000000000000000000000000000001001808683c4000e000048f0804428f000007f
:1660a10000000005e7f4a5a0104005083b79d000000660415a8062
:2060b7000000000000000000000000000000000000000000000000000000000000000000c9
:2060d70000000000000000000000000000000080000b003c00000400000f00000207800046
:1760f700000000009c7befda000400f8e7fb8d000023c3d68a5200af
:20610e00000000000000000000000000000000000000000000000000000000000000000071
:20612e00000000000000000000000000000000000086968400000000c8f08000007005b54f
:16614e00bc000000023da5001100250a105f8c00402c00ed0f8078
:2061640000000000000000000000000000000000000000000000000000000000000000001b
:20618400000000000000000000000000000000000005429400000000000f0000000d0bd227
:1761a400a7c040002441de81000005090fb090000a004003d0f0000f
:2061bb000000000000000000000000000000000000000000000000000000000000000000c4
:2061db00000000000000000000000000000000080000000000000060c8f0804000000000c4
:1661fb00000000000637800000000180977d8000000605ec0f8036
:2062110000000000000000000000000000000000000000000000000000000000000000006d
:2062310000000000000000000000000000000000f0f0000000000004000f0040000000001a
:176251000000000034035a0400000000032bd40000005203c0f0405a
:20626800000000000000000000000000000000000000000000000000000000000000000016
:2062880000000000000000000000000000038000000000000000040168f08038000000005e
:1662a800000000000781802023802d0e0380c4800000005e0f8026
:2062be000000000000000000000000000000000000000000000000000000000000000000c0
:2062de00000000000000000000000000000020000000000000000022420f0082000000008b
:1762fe00000000003441c0010020051800000c000000000080f0009a
:20631500000000000000000000000000000000000000000000000000000000000000000068
:20633500000000000000000000000000000100001e77840000040600e8f08030000197798b
:1663550068000003407ca5020300058076bd5080000000ca0f8080
:20636b00000000000000000000000000000000000000000000000000000000000000000012
:20638b0000000000000000000000000000003000000b640084000020000f0083000f0eb050
:1763ab003d4000000421fe4200310000b543f5010000400090f0001a
:2063c2000000000000000000000000000000000000000000000000000000000000000000bb
:2063e200000000000000000000000000000000000000000000000020e8f08003800013f994
:166402004808000be29ed01000000501d642901000000008f00013
:20641800000000000000000000000000000000000000000000000000000000000000000064
:20643800000000000000000000000000000000000000000000000000020f001030000bf4f4
:176458001408400104025c0b01000008af38090000c000000f00801b
:20646f0000000000000000000000000000000000000000000000000000000000000000000d
:20648f00000000000000000000000000000000000000000000000e01e8f080000010056a07
:1664af009c080001e795c08020000500d6500800c02e3000000005
:2064c5000000000000000000000000000000000000000000000000000000000000000000b7
:2064e5000000000000000000000000000000000000a0000000000020000f000000008b0439
:1765050029c80082022870000000000801b928010400600000000023
:20651c0000000000000000000000000000000000000000000000000000000000000000005f
:20653c00000000000000000000000000000000070000000000000c0548f0800280001f735b
:16655c00cd08000046178a5000000501d7011080000000000000af
:20657200000000000000000000000000000000000000000000000000000000000000000009
:20659200000000000000000000000000000000000000000000000002400f000810050ad49d
:1765b2003dd0100026014ca7000000789f4031020800000000000009
:2065c9000000000000000000000000000000000000000000000000000000000000000000b2
:2065e900000000000000000000000000000000000e3b94900000000048f080000059e52906
:1666090061000001e034d20000004f9eb7801000000000000000ff
:20661f0000000000000000000000000000000000000000000000000000000000000000005b
:20663f0000000000000000000000000000000000510f229580000000020f0000000d0f7601
:17665f00c01010a02428c80000000279016a85020000000000000023
:20667600000000000000000000000000000000000000000000000000000000000000000004
:2066960000000000000000000000000000010000000000000000200268fa00100080a72800
:1666b60041000801402de400110021409ad01000408c000000007b
:2066cc000000000000000000000000000000000000000000000000000000000000000000ae
:2066ec000000000000000000000000000000000000a0000000000240060f501000051057cb
:17670c00091010400002ed4a00000558ff250902021403c00000006f
