:02000000ff00ff
:080002004c6174746963650030
:17000a00694345637562653220323032302e31322e32373934330071
:15002100506172743a2069434534305550354b2d53473438002c
:1b003600446174653a204d617220313820323032352032333a35313a30360080
:0200510000ffae
:040053007eaa997e6a
:02005700510056
:0200590001059f
:03005b00920020f0
:03005e006202b388
:03006100720150d9
:0300640082000017
:02006700110086
:02006900010193
:20006b00000000000000000000000010000000000000400000000000010000000000000420
:20008b000000000000001000000000000040000000001000000000000040000000000001b4
:1600ab0000000000000004000000000000100000000000004000eb
:2000c1000000000000000000000000020000000000000800000000000020000000000000f5
:2000e10080000000000002000000000000080000000002000000000000080000000000006b
:1701010020000000000000800000000000020000000000000800003d
:200118000000000000000000000000000000000000000000000000000000000000000000c7
:200138000000000000000000000000000000000000000000000000000000000100000000a6
:160158000000000000000000000000000000000000000000000091
:20016e00000000000000000000000000000000000000000000000000000000000000000071
:20018e00000000000000000000000000000000000000000000000000000000000000000051
:1701ae0010000000000000000000000000000000000000000000002a
:2001c50000000000000000000000000000000000000000000000000000000000000000001a
:2001e5000000000000000000000000000000000000000000000000000000000000000000fa
:1602050000000000000000000000000000000000000000000000e3
:20021b000000000000000000000000000000000000000000000000000000000000000000c3
:20023b000000000000000000000000000000000000000000000000000000000000000000a3
:17025b0000000000000000000000000000000000000000000000008c
:2002720000000000000000000000000000000000000000000000000000000000000000006c
:20029200000000000000000000000d0000000000000000000000000000000000000004003b
:1602b2000000000000000000000000000000000000000000000036
:2002c800000000000000000000000000000000000000000000000000000000000000000016
:2002e8000000000000000000000000000000000000000000000000000000000020000000d6
:170308000000000000000000000000000000000000000000000000de
:20031f000000000000000000000000000000000000000000000000000000000000000000be
:20033f000000000000401000000000000000000000401000000000010040000000000800b5
:16035f000000000000000000000000000000000000070000000081
:20037500000000000000000000000000000000000000000000000000000000000000000068
:20039500000000000000000000000000000000000000000000000000000000000000000048
:1703b500000000000000000000000000000000000000000000000031
:2003cc00000000000000000000000000000000000000000000000000000000000000000011
:2003ec00000000000000000000000000008010000000000000000000000000000000000061
:16040c00000000000000000000000000000000000000000040009a
:200422000000000000000000000000000000000000000000000000000000000000000000ba
:20044200000000000000000000000000000400000000000000000000000000000000000096
:1704620000000000000000000000000000000000000000000c000077
:20047900000000000000000000000000000000000000000000000000000000000000000063
:200499000000100000000000000000000000000000000000004000000000000000000000f3
:1604b900000000000000000000000000000000000000000000002d
:2004cf0000000000000000000000000000000000000000000000000000000000000000000d
:2004ef000000010000000000000000000000010000000000000400000000000000000000e7
:17050f000000000000000000000000000000000000000000000000d5
:200526000000000000000000000000000000000000000000000000000000000000000000b5
:20054600000000000040000000000000000000000040000000000001000000000000000014
:16056600000000000000000000000000000000000000000000007f
:20057c0000000000000000000000000000000000000000000000000000000000000000005f
:20059c0000000000000000000000000000000000000000000000000000000000000000003f
:1705bc00000000000000040000000000000000000000000000000024
:2005d300000000000c302000000000000000000000000000000000000000000000000000ac
:2005f3000000000000000000000000000000000000000000000000000000000000000000e8
:1606130000000000000000000000000000000000000000000000d1
:200629000000000000c30000000000000000000000000000000000000000000000000000ee
:20064900000000000000000000000000000000000000000000000000000000000000000091
:1706690000000000000000000000000000000000000000000000007a
:20068000000000000c302000000000000000000000000000000000000000000000000000fe
:2006a00000000000000000000000000000000000000000000000000000000000000000003a
:1606c0000000000000000000000000000000000000000000000024
:2006d6000000000000c3000000000000000000000000000000000000000000000000000041
:2006f6000000000000000000000000000000000000000000000000000000000000000000e4
:170716000000000000000000000000000000000000000000000000cc
:20072d00000000000c30200000000000000000000000000000000000000000000000000050
:20074d0000000000000000000000000000000000000000000000000000000000000000008c
:16076d000000000000000000000000000000000000000000000076
:200783000000000000c3000000000000000000000000000000000000000000000000000093
:2007a300000000000000000000000000000000000000000000000000000000000000000036
:1707c30000000000000000000000000000000000000000000000001f
:2007da00000000000c302000000000000000000000000000000000000000000000000000a3
:2007fa000000000000000000000000000000000000000000000000000000000000000000df
:16081a0000000000000000000000000000000000000000000000c8
:200830000000000000c30000000000000000000000000000000000000000000000000000e5
:20085000000000000000000000000000000000000000000000000000000000000000000088
:17087000000000000000000000000000000000000000000000000071
:20088700000000000c302000000000000000000000000000000000000000000000000000f5
:2008a700000000000000000000000000000000000000000000000000000000000000000031
:1608c700000000000000000000000000000000000000000000001b
:2008dd000000000000c3000000000000000000000000000000000000000000000000000038
:2008fd000000000000000000000000000000000000000000000000000000000000000000db
:17091d000000000000000000000000000000000000000000000000c3
:20093400000000000c30200000000000000000000000000000000000000000000000000047
:20095400000000000000000000000000000000000000000000000000000000000000000083
:16097400000000000000000000000000000000000000000000006d
:20098a000000000000c300000000000000000000000000000000000000000000000000008a
:2009aa0000000000000000000000000000000000000000000000000000000000000000002d
:1709ca00000000000000000000000000000000000000000000000016
:2009e100000000000c3020000000000000000000000000000000000000000000000000009a
:200a01000000000000000000000000000000000000000000000000000000000000000000d5
:160a210000000000000000000000000000000000000000000000bf
:200a37000000000000c30000000000000000000000000000000000000000000000000000dc
:200a570000000000000000000000000000000000000000000000000000000000000000007f
:170a7700000000000000000000000000000000000000000000000068
:200a8e00000000000c302000000000000000000000000000000000000000000000000000ec
:200aae00000000000000000000000000000000000000000000000000000000000000000028
:160ace000000000000000000000000000000000000000000000012
:200ae4000000000000c300000000000000000000000000000000000000000000000000002f
:200b04000000000000000000000000000000000000000000000000000000000000000000d1
:170b24000000000000000000000000000000000000000000000000ba
:200b3b00000000000c3020000000000000000000000000000000000000000000000000003e
:200b5b0000000000000000000000000000000000000000000000000000000000000000007a
:160b7b000000000000000000000000000000000000000000000064
:200b91000000000000c3000000000000000000000000000000000000000000000000000081
:200bb100000000000000000000000000000000000000000000000000000000000000000024
:170bd10000000000000000000000000000000000000000000000000d
:200be800000000000c30200000000000000000000000000000000000000000000000000091
:200c08000000000000000000000000000000000000000000000000000000000000000000cc
:160c280000000000000000000000000000000000000000000000b6
:200c3e000000000000c30000000000000000000000000000000000000000000000000000d3
:200c5e00000000000000000000000000000000000000000000000000000000000000000076
:170c7e0000000000000000000000000000000000000000000000005f
:200c9500000000000c302000000000000000000000000000040000000000000000000000df
:200cb50000000000000000000000000000000000000000000000000000000000000000001f
:160cd5000000000000000000000000000000000000000000000009
:200ceb000000000000c3000000000000000000000000000000000000000000000000000026
:200d0b000000000000000000000000000000000000000000000000000000000000000000c8
:170d2b000000000000000000000000000000000000000000000000b1
:200d4200000000000c30200000000000000000000000000000000000000000000000000035
:200d6200000000000000000000000000000000000000000000000000000000000000000071
:160d8200000000000000000000000000000000000000000000005b
:200d98000000000000c3000000000000000000000000000000000000000000000000000078
:200db80000000000000000000000000000000000000000000000000000000000000000001b
:170dd800000000000000000000000000000000000000000000000004
:200def00000000000c30200000000000000000000000000000000000000000000000000088
:200e0f000000000000000000000000000000000000000000000000000000000000000000c3
:160e2f0000000000000000000000000000000000000000000000ad
:200e45000000000000c30000000000000000000000000000000000000000000000000000ca
:200e650000000000000000000000000000000000000000000000000000000000000000006d
:170e8500000000000000000000000000000000000000000000000056
:200e9c00000000000c302000000000000000000000000000000000000000000000000000da
:200ebc00000000000000000000000000000000000000000000000000000000000000000016
:160edc000000000000000000000000000000000000000000000000
:200ef2000000000000c300000000000000000000000000000000000000000000000000001d
:200f12000000000000000000000000000000000000000000000000000000000000000000bf
:170f32000000000000000000000000000000000000000000000000a8
:200f4900000000000c3020000000000000000000000000000000000000000000000000002c
:200f6900000000000000000000000000000000000000000000000000000000000000000068
:160f89000000000000000000000000000000000000000000000052
:200f9f000000000000c300000000000000000000000000000000000000000000000000006f
:200fbf00000000000000000000000000000000000000000000000000000000000000000012
:170fdf000000000000000000000000000000000000a000000000005b
:200ff600000000000c3020000000000000000000000000000000000000000000000000007f
:201016000000000000000000000000000000000000000000000000000000000000000000ba
:1610360000000000000000000000000000000000000000000000a4
:20104c000000000000c30000000000000000000000000000000000000000000000000000c1
:20106c00000000000000000000000000000000000000000000000000000000000000000064
:17108c0000000000000000000000000000000000000000000000004d
:2010a300000000000c302000000000000000000000000000000000000000000000000000d1
:2010c30000000000000000000000000000000000000000000000000000000000000000000d
:1610e30000000000000000000000000000000000000000000000f7
:2010f9000000000000c3000000000000000000000000000000000000000000000000000014
:201119000000000000000000000000000000000000000000000000000000000000000000b6
:1711390000000000000000000000000000000000000000000000009f
:20115000000000000c30200000000000000000000000000000000000000000000000000023
:2011700000000000000000000000000000000000000000000000000000000000000000005f
:161190000000000000000000000000000000000000000000000049
:2011a6000000000000c3000000000000000000000000000000000000000000000000000066
:2011c600000000000000000000000000000000000000000000000000000000000000000009
:1711e6000000000000000000000000000000000000000000000000f2
:2011fd00000000000c30200000000000000000000000000000000000000000000000000076
:20121d000000000000000000000000000000000000000000000000000000000000000000b1
:16123d00000000000000000000000000000000000000000000009b
:201253000000000000c30000000000000000000000000000000000000000000000000000b8
:2012730000000000000000000000000000000000000000000000000000000000000000005b
:17129300000000000000000000000000000000000000000000000044
:2012aa00000000000c302000000000000000000000000000000000000000000000000000c8
:2012ca00000000000000000001000000000000000000000000000000000000000000000003
:1612ea0000000000000000000000000000000000000000000000ee
:201300000000000000c300000000000000000000000000000000000000000000000000000a
:2013200000000000000000000010000000000000000000000000000000000000000000009d
:17134000000000000000000000000000000000000000000000000096
:20135700000000000c3020000000000000000000000000000000000000000000000000001a
:20137700000000000000000000000000000000000000000000000000000000000000000056
:161397000000000000000000000000000000000000000000000040
:2013ad000000000000c300000000000000000000000000000000000000000000000000005d
:2013cd00000000000000000000000000000000000000000000000000000000000000000000
:1713ed000000000000000000000000000000000000000000000000e9
:20140400000000000c3020000000000000000000000000000000000000000000000000006c
:201424000000000000000000000000000000000000000000000000000000000000000000a8
:161444000000000000000000000000000000000000000000000092
:20145a000000000000c30000000000000000000000000000000000000000000000000000af
:20147a00000000000000000000000000000000000000000000000000000000000000000052
:17149a0000000000000000000000000000000000000000000000003b
:2014b100000000000c302000000000000000000000000000000000000000000000000000bf
:2014d1000000000000000000000000000000000000000000000000000000000000000000fb
:1614f10000000000000000000000000000000000000000000000e5
:201507000000000000c3000000000000000000000000000000000000000000000000000001
:201527000000000000000000000000000000000000000000000000000000000000000000a4
:1715470000000000000000000000000000000000000000000000008d
:20155e00000000000c30200000000000000000000000000000000000000000000000000011
:20157e0000000000000000000000000000000000000000000000000000000000000000004d
:16159e000000000000000000000000000000000000000000000037
:2015b4000000000000c3000000000000000000000000000000000000000000000000000054
:2015d4000000000000000000000000000000000000000000000000000000000000000000f7
:1715f4000000000000000000000000000000000000000000000000e0
:20160b00000000000c30200000000000000000000000000000000000000000000000000063
:20162b0000000000000000000000000000000000000000000000000000000000000000009f
:16164b000000000000000000000000000000000000000000000089
:201661000000000000c30000000000000000000000000000000000000000000000000000a6
:20168100000000000000000000000000000000000000000000000000000000000000000049
:1716a100000000000000000000000000000000000000000000000032
:2016b800000000000c302000000000000000000000000000000000000000000000000000b6
:2016d8000000000000000000000000000000000000000000000000000000000000000000f2
:1616f80000000000000000000000000000000000000000000000dc
:20170e000000000000c30000000000000000000000000000000000000000000000000000f8
:20172e0000000000000000000000000000000000000000000000000000000000000000009b
:17174e00000000000000000000000000000000000000000000000084
:20176500000000000c30200000000000000000000000000000000000000000000000000008
:20178500000000000000000000000000000000000000000000000000000000000000000044
:1617a500000000000000000000000000000000000000000000002e
:2017bb000000000000c300000000000000000000000000000000000000000000000000004b
:2017db000000000000000000000000000000000000000000000000000000000000000000ee
:1717fb000000000000000000000000000000000000000000000000d7
:20181200000000000c3020000000000000000000000000000000000000000000000000005a
:20183200000000000000000000000000000000000000000000000000000000000000000096
:161852000000000000000000000000000000000000000000000080
:201868000000000000c300000000000000000000000000000000000000000000000000009d
:20188800000000000000000000000000000000000000000000000000000000000000000040
:1718a800000000000000000000000000000000000000000000000029
:2018bf00000000000c302000000000000000000000000000000000000000000000000000ad
:2018df000000000000000000000000000000000000000000000000000000000000000000e9
:1618ff0000000000000000000000000000000000000000000000d3
:201915000000000000c30000000000000000000000000000000000000000000000000000ef
:20193500000000000000000000000000000000000000000000000000000000000000000092
:1719550000000000000000000000000000000000000000000000007b
:20196c00000000000c302000000000000000000000000000000000000000000000000000ff
:20198c0000000000000000000000000000000000000000000000000000000000000000003b
:1619ac000000000000000000000000000000000000000000000025
:2019c2000000000000c3000000000000000000000000000000000000000000000000000042
:2019e2000000000000000000000000000000000000000000000000000000000000000000e5
:171a02000000000000000000000000000000000000000000000000cd
:201a1900000000000c30200000000000000000000000000000000000000000000000000051
:201a390000000000000000000000000000000000000000000000000000000000000000008d
:161a59000000000000000000000000000000000000000000000077
:201a6f000000000000c3000000000000000000000000000000000000000000000000000094
:201a8f00000000000000000000000000000000000000000000000000000000000000000037
:171aaf00000000000000000000000000000000000000000000000020
:201ac600000000000c302000000000000000000000000000000000000000000000000000a4
:201ae6000000000000000000000000000000000000000000000000000000000000000000e0
:161b060000000000000000000000000000000000000000000000c9
:201b1c000000000000c30000000000000000000000000000000000000000000000000000e6
:201b3c00000000000000000000000000000000000000000000000000000000000000000089
:171b5c00000000000000000000000000000000000000000000000072
:201b7300000000000c302000000000000000000004000000000000000000000000000000f2
:201b9300000000000003bc102000000000000000000000000000000000000000000000380b
:161bb3003c020000000000000000000000000000000000000000de
:201bc9000000000000c30100000000000000000002800000000000000000000000000000b6
:201be90000000000000003c000000000000000000000000000000000000000000000000019
:171c090003c000000000000000000000000000000000000000000001
:201c20000a0000000c302b800000b6f090000000000000000000000000000000000000007d
:201c400000039020000000000000000000000000000000000e000000000000380000080281
:161c600095000000000000000000000000000000000001faa0003e
:201c76000040000000c3002000009b7f6904000000000000000000000000000000000000a4
:201c9600000020840000000000000000000000000000000000800000000000020000007098
:171cb60016840000000000000000000000000000000000010a0080f2
:201ccd00000000000c3028000000d3e9500000000000000000000000000000000000000087
:201ced000000000000000000000000000000000000000000000000000000000000000000d7
:161d0d0000000000000000000000000000000000000000000000c0
:201d23000000000000c3000000f0fbe6850400000000000000000000000000000000000083
:201d4300000000000000000000000000000000000000000000000000000000000000000080
:171d6300000000000000000000000000000000000000000000000069
:201d7a00000000000c3028800008000000000080065e0a000000000000000000000000006f
:201d9a00000000000000000000000000000000000000000000002000000000000000000009
:161dba0000000000000000000000000000000000000028000000eb
:201dd0000000000000c30000000000000000001002b6000004000000000000010000000063
:201df000000000000000000000000000000000000000000000000040000000000000000093
:171e10000000000000000000000000000000000000000400000000b7
:201e2700000000000c30a000080e00000000000000000000000000000000000000000000a9
:201e47000000000000000000000000000000000000000000000000000ef04000000000003d
:161e67000000000000000000000000000000000000000000000065
:201e7d000000000000c3000040f000000000016000000000000400000000000000000000ed
:201e9d00000000400000000000000000000000400000000000010000000f00000400000091
:171ebd000000001000000000000000000000000001000000000000fd
:201ed400000000000c30a000000e0000000000000000000000000000000000000000000004
:201ef4000000000000000000010000000000000000000000000000000000000000000000cd
:161f140000000000000000000000000000000000000000000000b7
:201f2a000000000000c3000000009000000000000000000000000000000000000000000044
:201f4a00000000000000000000100000000000000000000000000000000000000000000067
:171f6a0000000000000000000000000000000000010000000000005f
:201f8100000000000c3030000000d3e9504000000000000000000000000000000000000088
:201fa1000000000800000000000000000000000000000000000020001af04080000000002e
:161fc100000000000000000000000000000000000000000000000a
:201fd7000000000000c300000000ab66850000000000000000000000000000000000000091
:201ff70000000000d000000000000000000000000000000000000340000f000000070000a1
:172017000000000000000000000000000000000000000000000000b2
:20202e00000000000c3031040001b6b09001101400000000004000000000000000000000c5
:20204e00000004000000000001000000000004000000000000100000000000004000000019
:16206e0000000100000000000000000000000000100c000000003f
:202084000000000000c300000000db7769041000200000000040000000000000000000004a
:2020a400000000000000000000100000000000000000000000010000000000000403000004
:1720c4000000000000000000000020000000000000002000000000c5
:2020db000100002fcc3020000000b62f50000000280000000000000000000000000000003c
:2020fb00000000000002bc10200000000000000000000000000000000000000000000000d7
:16211b0000000000000000000000000000000000000000000000ae
:2021310000100001c0c3010000000b3ed504000004000000000000000000000000000000d3
:2021510000000000000003c1000000000000000000000000000000000000000000000000aa
:17217100000000000000000000000000000000000000000000000057
:2021880000000001ec302b8007805ff8900000000000000000000000000000000000000001
:2021a80000038000000000000000000000000000000000000e00000000000038000000004e
:1621c8000000000000000000000000000000000a00800000000077
:2021de000000000000c300200008072295000408000000000000000000000000000000002c
:2021fe000000200000000000000000000000000000000000000000000000000000000000a1
:17221e00000000000000000000000000000000000010000000000099
:2022350000000001cc302000078ef634d010001607685000000000000000000000000000f8
:20225500000000080000000000000000000000000000000000000000000000000000000061
:162275000000000000000000000000000000000000000000000053
:20228b000000000000c301000001072d4900000002adc580000000000000000000000000fd
:2022ab0000000000f000000000000000000000000000000000000000000000000000000023
:1722cb000000000000000000000000000000000000000000000000fc
:2022e20001000001ec32200001080000000008000000000000020000000000000000000089
:202302000000100000000000000e0000000000000000000000008000000000020018000003
:16232200000000000000000000400000000000004006000000001f
:202338000000000000c300000009000000001003c00000000000d000000000000000000016
:202358000000008000000000000000000000000000000000000004000000000010000000d1
:17237800000000000000000000040000000000000a00000000000040
:20238f00000000000c322000078b000000000020000000000000000000000000000000001e
:2023af000000000000000000000000000000000000000000000000001cf0410000000000c1
:1623cf0000000000000000000000000000000000000000000000f8
:2023e5000000000000c300000008a00000000001c0000000000000000000000000000000ac
:20240500000000000000000000000000000000000000000000000000000f040000000000a4
:172425000000000000000000000000000000000000000000000000a0
:20243c000000e0000c322000000ad32950000000654ef7000000000000000000080000003a
:20245c000000000000000000000000000000000000000000000016000000000000000068e2
:16247c003d04000000000000000001998703c0200000001a0f4894
:202492000000020000c3000000009b7685000000075cbff00000000000000000014000007c
:2024b20000000000000000000000000000000000000000000000000000000000000000000a
:1724d20003d000000000000000000000e3403c000000000000f400cd
:2024e900000000000c30a000000af7c2d0000006015c5f00000000000000000000000000a2
:202509000000000000000000000000000000000000000000000000000000000000000000b2
:1625290000000001e000000000000000000000004000000000007b
:20253f000000000000c300000090a7ec3d000003600305f0000000000000000000000000fe
:20255f00000000000000000000000000000000000000000000080000000000000000000054
:17257f00000000000000000000000000000000000000000000000045
:202596000000e001ec3021000700000000000000014edf02000000000000000000000000d0
:2025b6000001100000000000000000000000000000000000040000000000001000000000e0
:1625d600000000000000e0f0000000008703c0240e00001af04851
:2025ec000000020000c310000208c00000000000001c0ff004000000000000000000000011
:20260c0000000080000000000000000000000000000000000000c00000000000000000006e
:17262c00000000000000000f200000000b403c04000000000f0600c8
:202643000000001dec3020100000d6215000000000000000000000000000000000000000c7
:20266300000000000e0000000000000000000000080000000000007add8000000001e93c44
:162683009d000003e015c0f00000000000000000000001ea5a2097
:2026990000100020c0c30042809005a13d00000340000000000000000000000000000000f6
:2026b900000000000100000000000000000000000000000000000406dd900000000000dfaa
:1726d90087d240001638000f00400000000000000000000005a0000f
:2026f00000006015cc3023800100000000000214000000000000000000000000000000009f
:202710000000002000000000000000000003a8000000000000000000000000380000006b3b
:16273000c1000000430000000010000e0000000000000000000071
:202746000000020000c3006000080000000000000240000000000000000000000000000004
:2027660000000004000000000000e0000000210000000000000000024000000210400000ba
:172786003c18000006000000000280b00000000000000000000000b0
:20279d000000601d8c302000000100000000001e00eaf700000000000000000000000000c3
:2027bd00000000000000000000000000000000000007bc102000002a1e5f2000080000003a
:1627dd00000000020024d080000000007b9680000020000c0f00a4
:2027f3000000020020c300400000f00000000001e014fff0000000000000000000000000cd
:2028130000000000000000000000000000000000000003c0000003440c0af0000000000095
:17283300000000000403dc0000000000004168040000400000f004ca
:20284a0001000045ec302000070000000000001e0058a00a00000007b3d400000000000037
:20286a00000003200e00000000000000000000000000000000000004000000050579c7b01f
:16288a0015004000602fa80220000000000000000000000000008a
:2028a0000006002420c30100000800000000000002fd040000000000043d4000000000007e
:2028c000000000040100000000100000000000000000000000000003c00000006820809484
:1728e00003d80000002e60000900000000000000000000000000006f
:2028f7000002001dac302000000000000000002001f9f7090000000000000000000000008c
:2029170000000000000000000000000000000000000203c800000c70ec800000100009785a
:1629370015200000031eeff0000007800303c040001e04000000a6
:20294d0000000c0030c300400000000000000002424eaf300000000f0000000000000000ab
:20296d00000000007000000000000000000000000000403c000001e37de0000002800e7c11
:17298d0003d050000c2cd9bf0000000000003c00000023c000000021
:2029a40000000784ec3020100000000000000016200000000000000000000000c000000046
:2029c4000000205000000000000000000000000000000000000014324c800200300005fc3e
:1629e400d5000001e064ccb0200000000603c0000080000c0f01c2
:2029fa000000044030c3004000000000000000002000000000000000000000000000000026
:202a1a000000013200000000000000000000000000000000000000c4370000000800009bcb
:172a3a008f5c1000343b50db0000000000003c040010000100f000af
:202a51000003c79dcc302000000000000000000069fcfd01800000000000000000000000ff
:202a7100000000000017c20400000000000000000000000000000422c90800010000100060
:162a910000000000002005a1000000010603c4000000000000009b
:202aa7000000166430c300400000000000000000032fc5a0040000000000000000000000c7
:202ac700000000000003ec00000000000000000000000000000000243de00000000b0d00a7
:172ae70000000000003c40a50000000080403c0000000000000000bb
:202afe0000004000ec30210100000000000000003c1f02000000700000000000000000006d
:202b1e00000000000000000000000000000000080000000000000c314c800210005005f827
:162b3e00d5800002032005a00000700000000000000000000000f2
:202b54000000040000c310000200000000000000067db01080000080000000000000000045
:202b74000000000000e000000000000000000000d0000000000001e01600020000078e9b68
:172b94008f5050003c4040a501000790000000000001c00000000041
:202bab00000000000c3020000000000000000000015aa000000000000000000000000000b3
:202bcb00000000000000000000000000000000078076fdc00000002ece0800000071916fbb
:162beb0060000000028000000000059e7203e0000000000e0f00dd
:202c01000010000000c31000000000000000000000020a00000000000000000000000000c4
:202c210000000000000000000000000000000000000baffc00000007de900000000098963a
:172c410036000000000000000000000180403c080000000100f1004f
:202c5800000000000c30200000000000000006207800000000000000000000000000000062
:202c7800000003a0000000000000000000000008009bbdc080a0260000000038008000205b
:162c98003c00e0020001c0f0000050005203e0000c0006005a0066
:202cae000000000000c310000000000000000021c000000000000000000000000000000052
:202cce0000000005000000000000000000000000700303cc000403e00000000200070004ab
:172cee0003c008008400100f0000000090403c000000023c0a5000bd
:202d0500000000000c3020000000000000000000040000000000000000000000000000004e
:202d2500000000000000000000000000000000000000000000001679dea000000800096907
:162d45007d0000000000c0f0000001995683e000000002005a009c
:202d5b000000000000c30001000000000000000813800000000000000000000000000000f9
:202d7b00000000000000000000000000000000000000000000000140020a00000000005893
:172d9b0003d600000000100f0000000080803c000000003c0a501047
:202db200001400000c302000001e00000000203c0400000000000000000000000000000013
:202dd200000010200000000000008000000000001e00000000001460cb08000007580768fe
:162df200d5800000003dcfa0200000005603e00001000000000070
:202e08000006000000c300000001000000000003e38000000000000000000000000000007a
:202e280000000285000000000000140000000000910000000000e00025800000002d0f930a
:172e48008f5200000003e0a00000009000c03c000000000000000083
:202e5f00000000000c302008000000000000000004000000000000000000000000000000eb
:202e7f00000000000000000000000000000000030100000000001e3acf8000001000013c3b
:162e9f009d0000000644e05600000000123c20000a1e300c0f011e
:202eb5000000000000c3000000000000000000e002c0000000000000000000000000000098
:202ed5000000000000000000000000000000000000f00000000000c00ee000000000007ec1
:172ef50087d8500a007af00f4100000000003c000000240000f00003
:202f0c00000000000c30200008003ed68020000001785f00000000000000000000000000b5
:202f2c000000000000000000000000000000000700000000000e00017a8022803800876ca8
:162f4c00d5040006000180f000030000723c20004000041c0f10cf
:202f62000006000000c300000070077e90000000000005f00000000000000000000000000c
:202f82000000000000000000000000000000000008000000000000c01500020000001093ad
:172fa2008f501000943c000f0000000000803c000a00028100f00011
:202fb900000000000c302000000000000000000c0178df0200000000000000000000000036
:202fd9000000000000000000000000000000000100130280100000045880000000f01174e1
:162ff9009d040000023ec0a000000d8a7a3c20000000060c0f01f2
:20300f000000000000c300000810000000000000002f0ff000000000000000000000000098
:20302f000000000000000000000000000000000008a00028000002c3ceb00000000b0d7ed8
:17304f0087d05000006c50000000281000003c00000003e500f004b7
:20306600000000000c3020000001000000000000000e0b020000000000000000c000000012
:203086000000100000000000000e0000000000000000000000003c006a8002100080000054
:1630a600000044e60000000000100000723c2800001e241e0f0095
:2030bc000000000000c300000000a0000000008000340070800000000000000000000000ed
:2030dc0000000280000000000000c0000000000000000000000001400c000000000b00003a
:1730fc0000000020243c00000000805000003c000000274000f100d9
:20311300000000000c30200000000000000000000000000000000000000000000000000040
:2031330000000007805859b2000000000000000000073c180000043d48b80000005193848e
:163153000200000006afe7d0000000000265a000000003ddb80059
:203169000000000000c3000000000000000000000000000000000000000000000000000083
:2031890000000000f0f035990000000000000000000043c10000002627bb800000051903cb
:1731a9008000000000425dbe000000000039a41000000004a7420058
:2031c000000000000c302388000006bc122000000000000000000000000000000000000014
:2031e000000380071a7225b2000a00000003800000073c100e000400080f0000001801229e
:163200005a0000e1e02ecca0000800003a3c20000c86000c0f00b8
:203216000004000000c3002100000003c1600000000000000000000000000000000000008c
:2032360000002000f900ba59000000000000200000c003c1408000200100f0000000800a4d
:17325600658200000231feca0001280400003c040215c00000f0004b
:20326d00000000000c302000000000000000000000000000000000000000000000003c0a9f
:20328d00500000081f1a25b000000000000000000102bc1000a000246f1b5000080001a69f
:1632ad005a000001c001c0f000005000723c20000000001e0f00f4
:2032c3000000000000c300000000000000000000000000000000000000000000000003c065
:2032e3000000000071e02259200000000000000000f043c140000007bca074800000000252
:17330300a58000000000000f0000020000003c040000000100f0004c
:20331a00000000000c302000010000000000000000000000000000077a00a00000003dc810
:20333a0000200058001225b010000000000000000000000000005403da356000007807a21d
:16335a005a000000006ccb8000000000323c20000014001a0f0081
:203370000000000000c3000000000000000000000000000000000000fb800200000002c03b
:20339000000000027000a259040000000000000000000000000000000683d500001f000b24
:1733b000258200003c246fb80000080000803c40000022c000f00002
:2033c700000000000c30200000000000000100000000000000000000000000000000000089
:2033e70000000003805265b000000000000000000080295800000000000000000a79a12295
:163407005a000003e34080f100000581323c20400020001a0f0021
:20341d000000000000c30000000000000000100000000000000000000000000000000000bc
:20343d0000000000000022590100000000000000000f016900000000000000000043000235
:17345d00258000001478100f00000100a0003c000002c00100f00078
:20347400001400000c302000000000000000000000000000000000000000000000020000c6
:2034940000000008013a25b040000000000000091e063c18004000000000000002d0032208
:1634b4005a0008a0c68005a010008d817a3c20014c0602180f089d
:2034ca000000000000c30000000000000000000000000000000000000000000000244000bb
:2034ea000000000070c032590400000000000000f90043c1000200000000000001070003f9
:17350a0065820000023ec0a500000070a0803c000a00200400f00034
:20352100000000000c302000000000000000000000000000000001a000000000004000004d
:20354100000000000c5265b0400000000000000000073c180000003000000000007005a215
:163561005a040000060dad80000008003a3c20000000021e5a207e
:203577000000000000c300000000000000000008000000000000090a000000000026000030
:20359700000000001000be590400000000000000000003c1000001440000000000000003dd
:1735b700a5800000247d5dd8100000b00003c0000001c0040a500060
:2035ce00000000000c3021001000000000000000000000000000500000000000000280009e
:2035ee0000012800085265b400000000000100000800000004060000000000010250f3a622
:16360e005a00000a007cd6f00040010e3a3c20004e0000000000cd
:203624000000000000c30000000000000000000000000000000200000000000000000000c1
:20364400000001000100a659200000000000000000000000000200000000000000001f0321
:17366400e580100174297d9f000400090083c0000203c38000000088
:20367b00000000000c302000000800000000000e000000000000000000000000004037bf87
:20369b007000000d8c5a25b0000000000000000000033c1000000000000000010019d32279
:1636bb005a000001c394d6f0000000007a3c2000000001c05a8010
:2036d1000000000000c300400000000000000000200000000000000000000000000602ecc2
:2036f100ff00000078e0ba593400000000000000000003c140000000000000000800890383
:173711002581000000217f9f080000000003c0100000000c0a50205b
:20372800000000000c30200040000000000e800001db8040380000006bc10000000635af6d
:2037480070a3800f1b1a65b0000c000000038000010000000e001c0000000000000007a212
:163768005a000401c02ee7d000000000323c280e0e0001c8f0c814
:20377e000000000000c3100022000000000080600004ec2402000000043c3000000002408e
:20379e00ff09600071e02659010014000000200090e0000000800020000000000000000a84
:1737be00258000002427ddbe00000000e083c0008000000000f400d2
:2037d500000000000c3020000500000000000000025ea040000058102bc1000001463fe871
:2037f500000000478e3a65b0000100000000000000002950000a1c39ee3e58000080112280
:163815005a0000004244d6f000000380723c2000000001c8f0c825
:20382b000000000000c3100000000000000000000015e6040000000a043c1000002601df4b
:20384b00000000000100a6590000000000000000000b0169400000241ed2448000090f0bad
:17386b00e58000002c377b9f010000000003c0000000000200f400aa
:20388200000000000c302028000000000000210e00000000000001a02bc1000003404eca8b
:2038a20000000007811225b000000000000000030806bc10000020000a0f000101018122db
:1638c2005a01040063ddad80000000001a3c2000400001c8f0c8ed
:2038d8008000000000c3004002000000000000880000000000010000003c1010003e2010f8
:2038f800a000000008f03a590400000000000000019043c1400001400000f004202f100a0e
:17391800a580000002714dd8000000000083c0000a00000200f40098
:20392f00000000000c302000070000000000000000000000000000000000000001c065c827
:20394f0000000000001a25b0000000000000000101df49d80000000400a54802809815a6a1
:16396f005a00000203e6c6f0000000013a3c2000000001e8f0c017
:203985000000000000c31000000000000000000000000000000000000000000000162bc846
:2039a5000000000000002e59000000000000000008b9a0bd000000029405a40010098e0275
:1739c500e5820000146a5d9f00000000b083c0400001400000f41092
:2039dc00000000000c302000500000000000000000000000000000000000000003468ea8a0
:2039fc00002028001e1225b000000000000000010006bc10000086020a0f0000000007a63d
:163a1c005a000400000005a00000039f3a3c2000048001e8f0c13b
:203a32000000000000c300402800000000000000000000000000000000000000001424f021
:203a5200000001000000a6590000000000000000000003c1010010000d00f2000009000374
:173a7200e58200203c02c0a500000009b083c0000014000000f4000f
:203a8900000000000c3220000000b23500200006000000000000000000000000000285cf5c
:203aa90070000001001225b000000000000000000000000000000401787b02028001a5265d
:163ac9005a000001c6a4c6f0000000003a3c2000803429e8f0c160
:203adf000000000000c3000000000f685c000000234000000000000000000000000002dcf0
:203aff00ff00000270002a5900000000000000000000000000000040340b70000000000bb9
:173b1f002582000002005c9f000000b00003c0000000428200f400c0
:203b3600001400000c302008400a00000004000001dadf4010040000000000000162ffef4a
:203b560070014010005a25b0000000000001100000000000040080040af0500002b8b326e9
:163b76005a00000166a5e7d000008000523c2004001429e8f0c80d
:203b8c004000000000c300410201000000000002c344fc7c000020000000000000142bda18
:203bac00ff0004020000225900000000000002800000000000000402c10f040020451a0b93
:173bcc00a580200000236d7d000000700003c0000001428200f48024
:203be3000100001cec3020000000000000000000001ef04000009983383e000000001df874
:203c030000000020007a25b00000000000000000000283c80020060558d8004000f1e5a2d2
:163c23005a00000003a6f7d200000000323c2400000005c8f0c0b0
:203c390000100000c0c30040000000000000000000010f0e0000010a0a03c0000024007b03
:203c59000008002000d0be5930000000000000000000003c0008002227ad8000000f900aa9
:173c7900a581012104017c7d000000000083c0100000020000f45055
:203c900000000000cc302000401a0000000e00000000000000001985383e000000002cef61
:203cb00070038008015265b80000000000039000000303c40e0e0078080f0000007003a668
:163cd0005a800003e7cef7b00002001e023c200e000001c8f0d090
:203ce6000000000000c31000220000000000800000000000000000000203c000000001fc87
:203d0600ff00200070f03e5900000000000020000000003c008000040100f0040000890326
:173d2600e58000003e7e487b000000000033c0008000000000f4003b
:203d3d0000000000ec30200000000000000000000000000000005005383e0000000000005f
:203d5d0000000001007a65b800000000000000080000000000001e077f1f4900001801265b
:163d7d005a000000001db7d000004000723c2000000029c8f0c083
:203d93000000000000c31000000000000000000000000000000000090f43c0000000000022
:203db300000000000000a25900008000000000003000000000000022dea0a5001180800ae5
:173dd300e58040003c005cbe000002000083c0000000040200f4801f
:203dea0001000000cc3020000000ff15402020000000000000007811383e00000003800086
:203e0a0000000000003265b00000000000000000003b3d4001000503fa34680080118122c6
:163e2a005a000001606fc5f00001855e5a3c2000008001c8f0c010
:203e40000004000000c31000000009c2a800000000000000000000080e43c00000004000bf
:203e60000000000000003e590000000000000000500043d404000002f4f7e48010001c03c0
:173e8000e58000002627dafa000008090003c0000000000200f5805a
:203e9700000200000c302000000000000000000000000000000039b37c3e0000014001efd6
:203eb70050000020007a25b00000000000004000010000000000002b6d076040000007267f
:163ed7005a02000003cff7d00008411e3a3c2000000001e8f0c04a
:203eed0000002c0000c3100000000000000000000000000000000d180303c0000000285053
:203f0d00fa000000f000ba59000000000000040050f00000000000001faaf4800000000214
:173f2d00a5800000017accbe000000000083c0000000000000f4908c
:203f4400000000000c302000400100000000000000000000000080a7fc3e000000406fefc1
:203f640070200000001a65b000a14000000000080000000001000407fb3460800081a1a6b2
:163f84005a000002404180f00400031f5a3c200000140148f0c1f0
:203f9a000000000000c310002000d0000000000000000000000001000a03c000000228e06c
:203fba00ff00000000e0be590004080000000000f00000000000002234c7e4080007000bda
:173fda00658200001c28000f0000000da083c0000800000200f400a8
:203ff100000200000c302400000000000000000000000000000050a5f83e00000006c0005d
:20401100000000038e7a25b00000000000000000000683c0010000025b0a68002ad8112261
:164031005a000001604080f0000000013a3c2000001428e8aa4168
:2040470080002c0000c300000000000000000000000000000000050a0f03c00000002800e1
:20406700000000000800a65920000000000000000000003c800000029da5e480001f0a0382
:17408700a58000003c28100f20000400e003c000000142800aa694ac
:20409e0000000000cc302000000800000004000000000000000050cd856a0000036000006b
:2040be0000010000003a65b0000000000000000000802950440096001c0f0000001017a6c7
:1640de005a0000020027c6f000090000ba3e8004060000080f00f1
:2040f4000000000000c300000800000000000000030000000000051ab26940000014280028
:204114000000000000d0be59000000000000000030070168000014600100f0000000490254
:174134002580000414216d6f000100000983e8200001400100f200f1
:20414b0000e002248c3024000000000000000000001cf04004008003b83e000000003c85e4
:20416b000c000000003a25b2000000000000000000000000000020036e354100008197a256
:16418b005a800000075ee8b00008000a06bc1020001438c80a0025
:2041a1000010000170c30000000000000000000000010f0c000001000a03c100000001c00e
:2041c1000542000000f03a59100000000000000000000000000002400d83d410020d1e0a17
:1741e100258101000072da8b080100f00003c0000000000100a004e8
:2041f8000a000014ac30200800000000000e00000000000038000005383e00e000003c8523
:204218000c0380000d1a65b20000000000000000000000000e000006fa275000020013a679
:164238005a00e0016680c0f0038000008016800e000000dc0a0012
:20424e000000000030c30001000000000000800000000000020000000303c008000000c04c
:20426e000540200000f0b2590000000000000000000000000080000254f1f48400100e0271
:17428e00a58008000000100f082000000d0294408004000300a00497
:2042a500000002048c3020000000000000000000000000000000180023c104000006748518
:2042c5000c000007803a25b20000000000000000000383c0000000636e356100000013264f
:1642e5005a0000004064a1b4800003000683c200000000000000a2
:2042fb000000004030c3000000000000000000000000000000000000003c1000000021e023
:20431b000540000000003e5900000000000000000000403c800000040de3d40000000e0aca
:17433b00658000000034f907400000080b403c200001400000000022
:204352000101c014ac30200000000000000000000000000000000000000000000060748520
:204372000c0000001a7a65b000000000000000000a00000000003c62fa27418000f80722cb
:164392005a000020004e935600100d0116df40000200001e0f00e2
:2043a8000000000030c300000000000000000000000000000000000000000000000020e002
:2043c8000540000001003259200000000000000000000000000001e415f1f4080009800272
:1743e80065800000002a583d40c000b0932df4400000000000f00086
:2043ff00000000048c302000000000000001000068000000000030000000000000003e8562
:20441f000c000000003a25b0100000000000400000000000000000036f3561800001e3a204
:16443f005a000a000065a2748000070100000000001c000a0f00cb
:204455000000000030c300000000000000001000040000000000008000000000000001c0ff
:204475000540000000002659040000000000040000000000000021400d93d4000000100373
:17449500e58040400020f91f4180000080000000000023c000f0805f
:2044ac0000000014ac302000000000000000200060000000000000c00000000201403685a2
:2044cc000c000003005a65b000000000000000000000000000000002ea2741800038c1265f
:1644ec005a00004203800000000000008796800000000000a54019
:204502000000000030c300000000000000000400000000000000001000000000000200c0d0
:20452200054000000800b259200000000000000070000000000003c015f1f408000f000bb2
:17454200658000a01c000000000000000d029400001003d405a4107e
:20455900000800048c302000000000000000000e00000000000050000000000002603685df
:204579000c000007883a25b0000000000000000001000000002016076e3548800010f526a4
:164599005a00000000258274080000005a1ec480000000405a0039
:2045af000001400030c300000000000000000000000000000000050000000000000401e0ce
:2045cf000540000001002a59000000000000000000a0000000000002cdc3d60400001f0ace
:1745ef00a5800000003cf91f6000000005c1ec000000000005a08005
:2046060000000000ac302000000000000004a00021efdf40100000000000004003463e8569
:204626000c010001008265940000000000000000003ea8000400800000000000000011224e
:164646005a004000000e935508000180000000040016000000002b
:20465c000000000010c300000000000000000001c02eec7c0000000000000000008600e0ae
:20467c0005400000080325a5000000000000008000004280000000000000000028000d0b82
:17469c00e580000024025d3d410100000000000000000000000000a0
:2046b300000000000c3020000000000000000000001ef040000000052a80000000603c856d
:2046d3000c000000005283c0000000000000000800fe3c90000000035805008000780923d0
:1646f300c00000000007d100080000000000000000000000000011
:204709000010000000c30000000000000000000000010f0408000000082800000000014030
:20472900054400000000403c04000000000000001003e3c1240000003605f010000d80b054
:1747490003c100000003f93000000000000000000000000000000069
:20476000000000000c30202000000000000e0020000000000000000d286808e0000016856f
:20478000040000000000000000000000000380000a00000000000e0000000000000000007a
:1647a0000000e00266000000038000010000000e0000035c024088
:2047b6000000000000c300002800000000008002c000000000000000580000080000004016
:2047d6000a40000000000000000000000000200000000000000060000000000020000000d9
:1747f600000008000424000000200000a00000008000003cf0a40468
:20480d00000000000c30200000000000000000000000000000009990000000000000000006
:20482d000000000801000000000000000000000000f3941000000004000000000000e000e7
:16484d0000004000002db100030000000000000c001c000000000c
:204863000000000000c30000000000000000000000000000000009990000000000000000d0
:204883000000000010f000000000000000000000000583d501000002800000000000100025
:1748a300000008020002cf000010000000000000c000000000000053
:2048ba00000000000c302000500000000000000000000000000099900000000001600000a8
:2048da000000400180000000000000000000000100000000000000200000000000000000dc
:1648fa0000000003603fc0102000200000000000040000000000f2
:204910000000000000c3000000000000000000000000000000000999000000000000000022
:20493000000000000000000000000000000000000000000000000000000000000000000067
:17495000000000003c00400001000500b0000000000000000000001e
:2049670000e000000c3020000000000000000000300000000000580f3280000000000000ab
:204987000000000000000000000000000000000000000000000000000000000038000000d8
:1649a70000000002e727e2400000050000000000200000000000a3
:2049bd000000000000c3000000000000000000000600000000000000d00000000000000041
:2049dd000000000000000000000000000000000000000000000000000000000000000000ba
:1749fd00000000003e407c2800000078900000000400000000000075
:204a1400000000000c3020204000000000000000000000000000000db804080000000000f5
:204a34000000000000069680000000000000000800000000000600000000000000001128ff
:164a5400148000034201a3f020000000b600900000200000000059
:204a6a000000000000c3000002000000000000000000000000000000d0000000080000008f
:204a8a0000000000000d02940400000000000000d000000000000000000000000000090488
:174aaa00014000002c64003f000000000d7029000001c0000000007e
:204ac100000000000c302000000000000000002003cca04000009800000000000200000010
:204ae1000000000000000000000000000000000001000000000000000000000000000000b4
:164b010000000000076ef3c0000280000000000000007000000084
:204b17000000000000c3000000000000000000034005d60400000500000000000004000090
:204b370000000000000000000000000000000000f0800000000000000000000020000000ce
:174b570000000000002158bc200000000000000000000600000000ec
:204b6e00000000000c30200010000000000400000400000000000000000000400000000073
:204b8e00000000000000000000000000000100000000000000000000000000028000000084
:164bae000000400143800a5401000000000000040000000000008a
:204bc4000000000000c30000180000000000000002000000000000000000000000000000f4
:204be4000000000000000000000000000000000000a0000000000000000000001000000001
:174c0400000000000032c05a4000300000000000000002c00000001b
:204c1b00000000000c302000039d7019a00000366d600080000000000000000000000000d1
:204c3b00000000000000000000000000000000000000000000000033fcf70000000003e749
:164c5b00dc0000000225a5f00000058033c20000002665ee0f8029
:204c71000000010000c300000001c02598000000c28000002000000000000000000000007f
:204c91000000000000000000000000000000000030000000000000000ddf1100000000f3e3
:174cb100f8c000000000e05a00000500f37400040000420380f000d5
:204cc800000000000c302000039d5265a000000e0048f080000400000000000000000000af
:204ce800000380000000000000000000000380000100000000000068000000380050900025
:164d08000000e000400d80722b8001800000000000206dfe0f8030
:204d1e000000010000c300000000f0b258000040000000f010002000000000000000000057
:204d3e0000002038000000000000000000002000008000000000000000000002000f1e002e
:174d5e00000008023e2ff00500200000000000000001c34180f0003d
:204d7500000000000c3020000b881265a00000200068f080000001a000000000000000007f
:204d9500000000000000000000000000000000279c5bb4502004000000000030007809b750
:164db5009d02c041c2cf8f2021002580000000000020056c0f8022
:204dcb000000000000c3000000b8003658000001400000f01000000000000000000000007e
:204deb0000000000000000000000000000000004010d6a85200000000000000100008012f4
:174e0b0078d00c00023c20f2001000000000000000c3c3c090f00016
:204e2200000000000c30200000007a25a000000000c8f08000001800000000000000000085
:204e42000000000000000000000000000000000800000000000000000000000000000f77c2
:164e6200c40000000034af3620000f80fb794000002604ee0f8053
:204e78000000000000c30000001000aa58000000400000f100000000000000000000000014
:204e980000000000000000000000000000000000100000000000000000000000038f007ade
:174eb8007ec000001c02d0f7400000780f6294400001438390f0007c
:204ecf00000000000c30200000001a65a00000000148f0810000000000000000000000008e
:204eef0000000000000000000002000000000000005ff010000000000000000000581801d1
:164f0f0008080400000000000002a70196b9d080001c355d0f80f2
:204f25000000000000c300000000002658000100c00000f000040000000000001000000066
:204f45000000004000000000000000000000024000052795000100024000000004000ff0c3
:174f6500204800b040380000000041709f034d0001000702c0f0004b
:204f7c00000000000c3020000b807265a000000004e89681000400056968040000000000d6
:204f9c00000000000c0000000000000000000000190000000000002000000000201005601b
:164fbc00290801000200000000000b01df040000003c3f615a8006
:204fd2000000000000c3000000b8e0a65800000002c2896000028000081680000000000099
:204ff2000000000001000000000000000000000000a000000000024400000000030700307e
:175012000098000e24400000000000b0d3380000000043ac9a5000e9
:20502900000800000c302000080e5a25a000000001e89681000000000000000000000000ce
:205049000000000000073c10400000000000000001fffdd02000000058a00000000080004f
:165069000000000007c000000000081c078088800000394d0f80a2
:20507f000001000000c300000030002a5800000000029960000000000000000000000000a0
:20509f0000000000000043c08000000000000000008b67e904000000030a00000000100072
:1750bf00000000000074000000000071ef400480000002c180f2000d
:2050d600000000000c302000000e3a25a000100004e89681004000000000000100000000fd
:2050f600000004000000000000000000000104080112f890001000000000001040b8e7ac43
:1651160015024100003584040114238e578310801006746d0f80b8
:20512c000000000000c30000000000265800000002c2996000000000000000000000000065
:20514c000000000000000000000000000000000070bf7549000000c00000000000018032e3
:17516c008050000000004ba060008400b7002100000027c3b0f20029
:20518300000000000000000003813a25a000000001e8f08080000007303e0000000000003b
:2051a30000000000000000000000000000004000001b280410008003c850c00000001000ea
:1651c30000000800001dd0800080000152a80000002661da0f80f6
:2051d90000000100000000000000c02658100000000000f0400000000003c08000000000f4
:2051f90000000000000000000000000000000000d001416800001403dc00552000010900aa
:17521900000000002427cf000000000080428001000443c380f04067
:205230000000000000000000001c5265a000000001e00080000001a7303e00000000000074
:2052500000000000000000000000000000000005000000000e020005c850c038000007ec21
:165270000102000002bde2000390080000000000000604fe0f8052
:205286000000000000000000000000ba5800000000000000000000100403c000000000001f
:2052a600000000000000000000000000000000005800000000800003b4005502000000778b
:1752c600c8100000b46fdd3400208010000000000000020180f000a2
:2052dd0010c000000000000008091225a00000366de0008000000195603e000000000000c2
:2052fd0000000000000000000000000000000009000703c0040080676850e03000180fbb29
:16531d00dd000201e626af7020000700529090002000054d0f80d5
:20533300010000000000000000b0d03e5800000142820000000009080c03c000000000009e
:2053530000000000000000000000000000000000b800003c014000029c005403000080b6da
:1753730076d010403438e0ff000000b0b3a485010401c202d0f0002c
:20538a00000000000000000000007225a000000001e0008000001815703e00000000000090
:2053aa000000000000000000010000000000280000000000000026054850e0012800812845
:1653ca0001020202001494020003800000000000800000ce0f80bc
:2053e0000000000000000000000000aa5800000000020000000000080803c00000000000d6
:205400000000000000000000000000000000010030000000000003c2360054002000107369
:17542000e85000000402ffa401000000000000000400038190f0008b
:2054370000e000000000000000005225a00000000140008000007817a83e00000000000028
:20545700000000000000000000000000000000000e7a940400000003e850c000000000001a
:16547700000000014237e200000808003af4d801401c31fc0f8094
:20548d000000000000000000400000be58000000000000000004008f0003c0001000000043
:2054ad000000000000000000000000000000004001000140800100001c0056000400000066
:1754cd00000000100042c834000140f005a28d001901c780d0f000f4
:2054e400000000000000000003807265a00000000140008000008005f83e00000000000032
:205504000000000000000000000000000000000100862800003000016850e000000000000f
:1655240000000100c0018f302008400b00000000003c7e415a80a8
:20553a000000000000000000000000a6580000000000000000000f000003c0000000000081
:20555a0000000000000000000000000000000000000501400000000034005400000008005b
:17557a0000000000963810f30000000080000000000ac77e8a5000a0
:20559100040000000000000008087225a000a0000140008000009885f83e000000000000fb
:2055b1000000000000000000000000000000000000000000000026036850c00010008000a9
:1655d10000000834636cef7020002000bab1524000403ced0f8025
:2055e70000a000000000000000b0003e5800000000020000000001000c03c00000000000ec
:205607000000000000000000000000000000000000000000000000401e005600000f1900a7
:17562700000000801c6050ff084001000ba929000054038390f000a1
:20563e00000000000000000400007265a0000026654000800040d987b83e000100000000ef
:20565e00000000100000000000a00000000004100082a80004112e006850c01040501000d3
:16567e00000001000300a0a00104000000000000102471e00080c8
:2056940000000000000000000010c0be5800000266420000000001880c03c000000000000e
:2056b40000000002000000000004000000000002f00301408000086036005600004f4a008d
:1756d400000000002c3b4005008000000000000000204640a000004d
:2056eb0000000000000000000000f23c0400000001e0008000000007303e00000010000087
:20570b0000000000000000000000000000000000009bbc9000000005c850c00000001b6b34
:16572b00dc00000202868020000180003a840000018000c1008061
:205741000000000000000000000003003c51000000000000400000000403c10000000000b0
:2057610000000000000000000000000000000001000f73c100000003ec0055400000087bdd
:17578100bc8000000462585200000000e73d480000080002a000406f
:205798000000000000000000000000000000002001e0008000000005303e000000000000fd
:2057b80000000000000000000000000000038005000000000e0000004850e03800800068a3
:1657d8000c0a000342a1805200008980be3dc0800e0000600080bb
:2057ee0000000000000000000000000000000002c3800000000000000403c000000000008f
:20580e000000000070000000000000000000200000000000008000003e005402038700004c
:17582e0000c04042067a500a00800010bbc3fc0000000242000000f9
:205845000000000000000000000000000000000005e000800000180323c2000000000000de
:2058650000000000000000000000000000000000000000000c0000616850e0300081f06914
:165885004908008047aea80000001f0c33be8000014000e0008062
:20589b0000100000000000000000000000000000034200000000000e003c0200000000004c
:2058bb00000000000000000000000000000000000000000000c000002c005401000f1ff46a
:1758db00285000001640cf0000003819b5afdc000008000000000080
:2058f2000000000000000000000000000000000001e00080000001bfa3ea000000000000e8
:205912000000000000000000000000000000295000000000000026054850e0000050192ac6
:16593200b48000006635eef02040200007b00080008c00010080ee
:2059480000000000000000000000000000000000000200000000030a580280400000000016
:205968000000000000000000000000000000010200000000000003c23e0054000007893ef7
:175988008f8000000001f0db000425000043000000100000d00000e1
:20599f0004e000000000000000000000000000000008f000000051f5a3c2800000000000e1
:2059bf00000000000000000000000000000000080000000000000005e850e0000000a3a858
:1659df0094000000006684000000051f7f41c000000070000080a0
:2059f50000a0000000000000000000000000000000000f000000001f083c00000000000080
:205a15000000000000000000000000000000000010000000000000026c00540000000f92fe
:175a3500c348000600305e4a00000008df20040000000400e0000082
:205a4c000000000000000028080000000000000666180f0100000005a3c20000000000000c
:205a6c0000000000003e2800000000000000000000033c10000000016850e00000181f791c
:165a8c00410000034076a40010000518f25080404e0421c0008084
:205aa20000000000000000010050000000000000020d00f000002000083c00000000000030
:205ac20000000000f00002808000000000000000000003c1800000003c005400000008dc1a
:175ae200169000021c2049a4088020d8b3e28000020024020000001f
:205af90000000000000000000800000000000000020a0f000000d00523c2000000000000b0
:205b19000000000000000000000000000000000001000000000e20356850e0000019c76927
:165b390041800000c32694000000070ab28200c0010421c9f088ac
:205b4f00000000000000000000d0000000000000002d00f000000180083c00000000000084
:205b6f000000000000000000000000000000000000e00000000000426e00540001001afc1b
:175b8f00295000000202de4a00000091034000200009e400ef00008a
:205ba6000000000000000000000000000000002666180f01000001c723c20000000000007e
:205bc600000000000000000000000000000100000c00000004002061e850c01000f081f7bd
:165be600f0400a00c6ada1000000081eb3c9000000040008f000bd
:205bfc0000000000000000000000000000000042666c00f000000000003c00000000000049
:205c1c000000000000000000000000000000000001000000000000403e005500002b90d702
:175c3c009e00000e2e4079a1000000b10bf0a000000020000f0000a2
:205c53000000000000000000000100000000000e016fe200000001a123c2000000600000e9
:205c7300000000000000000000000000000000000000000000000003c850c000049803b9de
:165c930008210049464e94008000001b523dc00000000460008093
:205ca90000000000000000000000f00000000000000fe8b000000000083c010000240000db
:205cc90000000000000000000000000000000000000000000000000014005540018180f21e
:175ce900140000000c3cdc4a0000000087e96c0000000200a00000a4
:205d00000000000000000000000000000000000e63c05a0000000005a3c200e0000001a00d
:205d2000f1000000000000000000000000000005000000000e000e07c850c0000018837067
:165d4000200800036224e40204000d810300c28e000e01c850c8e2
:205d56000000000000000000000000000000000004040a5000001000003c00080000005027
:205d76000f0000000000000000000000000000000000000000800023c4005500038080f44b
:175d9600000000000400e9a40001007080400c048000203c005400f4
:205dad00000000000000000000005afcc000000e6078d10200000003a3c200c000000000df
:205dcd0000000000000000000000000000000000000000000c0000036850e000005180300e
:165ded000828000002a18050082011809a008820200e60c812c8d2
:205e0300000000000000000000500fbc0c000000200e0b8000000000003c004c00003800df
:205e2300000000000000000000000000000000005000000000c00000140054000000905007
:175e4300004000000001c00a00402800936548000000202e9844006b
:205e5a0000000000000000000581000000000006755a0f000000580023c00000000700007c
:205e7a00000000000000000000000000000000000000000000002e066850e0000501a57120
:165e9a00fc0000100004aaf29000079ebb9000400006054850c81b
:205eb00000000000000000000008900000000001e24300f000000000003c004000000000a8
:205ed0000000000000000000000000000000000000000000000003e206005400002010370c
:175ef000ffc06006000010af0800000801e690040000023e00540098
:205f07000000000000000000000000000000003673da950200000000000000000000000060
:205f2700000000000000000000000000000040000000000000000003e850e00000b00160ee
:165f4700d0890002002fc0502000000dffc20000000065e850c05f
:205f5d0000000000000000000000000000000002443409a000000000000000000000000001
:205f7d00000000000000000000000000000000000000000000000000140054000005800017
:175f9d000d0000004400600908001001e1a800000000076c0054804a
:205fb40000000000000000000000000000000006020a0f000010180000000000400005c07f
:205fd400040000000000000000000000000000000000000000000003e850e00000599d6830
:165ff400140400026764aa50000848017fa000800000016850c04f
:20600a0000000000000000000000000000000060000c00f000000080000000000004034053
:20602a00a04040000000000000000000000000000000000000000000040054000000089c3a
:17604a00000a20028c6250f5008000b0db8000000000003c00548045
:206061000000000000000000000ef2bcc0000026056c84020000000000000000000700007f
:2060810000000000000000000000000000000000001a9400500026736850c0100081b0703f
:1660a100c0084001c3be82402028079c9a5000000006056850c045
:2060b70080000000000000000000f5a40c00000143d40de00000000000000000000040005f
:2060d7000000000000000000000000000000000000000140200000441600560000030a0487
:1760f7000c0210000002d02800000001096d28000000036e00540016
:20610e0000000000000000000008000000010004016cf300000000000000004000000000c4
:20612e00000000000000000001000000000000000000000004002663e850c00200800f6bcf
:16614e00dc080c004004ee500000038e00000004002061e850c1ba
:2061640000000000000000000001000000000000002c80300000000000000000000000003e
:2061840000000000000000000000000000000000000000000000004006005600100f007cc4
:1761a4003c8000e80e0059fd00013a70e00000000000403e0054007f
:2061bb0000000000000000000000000000000c0021e8f080000080000000000000000000bf
:2061db00000000000000000000014000000000000000000000002001c850c000300010002a
:1661fb0000000004028000000000100a52c01000000003c850c0f1
:20621100000000000000000000040000000000000683c0f00000050000000000000000002b
:206231000000000000000000000000000000000000000000000000c00400554000000d00e7
:176251000000000000000000000010000fb811020000003400545074
:206268000000000000000380000000000000000000e8f0813800d801669100000000000032
:2062880000000000000000000000000000000000000000000e000001c850c038000005686a
:1662a8001401e80140000000038008087b80900e00003bc850c85b
:2062be0000000000000000200000000000000000028200f002000780d220100000000000a1
:2062de000000000000000000000000000000000000000000008000001400550200000000b5
:1762fe00014048020000000000200011057401028000002400540059
:206315000000000000000000010000000000000001c8f0810000001000000000000000001d
:206335000000000000000000000000000000000000000000040020396850e0300010000013
:166355000000c010074000000100580e7ac010000000674850c8a3
:20636b0000000000000000000000000000000001400200f00000000c0000000000000000d3
:20638b00000000000000000000000000000000000000000000c080c0040054030000000097
:1763ab0000000400943c0000003282b5ef38110200000236005400d8
:2063c200000000000000000000000000000000002968f0810004580000000000000000005d
:2063e200000000000000000000000000000000000000000000002001c850c000055000004d
:1664020000000010070000000000000177c09000a0063f4850c860
:2064180000000000000000000000000000000001400200f000002000000000000000000011
:206438000000000000000000000000000000000000000000000003c01600560000200000f5
:176458000000000e0000000000000000c5ac0102040002260054002b
:20646f00000000000000000005800000000000000148f0808000180073c102000000000001
:20648f00000000000000000000400000000003800000000000000001e850e00030100000d1
:1664af0000000800004000000000070c53141010000003e850c0fa
:2064c50000000000000000000008000000001002400000f000000000043c10000800000015
:2064e5000000000000000000000000000000000000000000000000000400540000008000bf
:17650500000000402c3c0000000000090f0295000000003400548020
:20651c000000000000000000000e0000000000000048f08000080180000000000000000010
:20653c0000000000000000000000000000000000000000000086060248506000000013a105
:16655c00410000000057c0540000080e1f5c00000000036850c071
:2065720000000000000000000001000000000000020200f000000000000000000000000014
:206592000000000000000000000000000000000000000000000400000c00a40002800a3c6d
:1765b2001690100200217b02408000310f2690020000002400540844
:2065c900000000000000004000000000000000000568f0800000000033c10200000000009f
:2065e900000000000000000000000000000000000000000000002660000000000001e0002b
:1666090000002080000690228400001e3a0010000026036850c096
:20661f0080000000000000040000000000000000024000f080000000003c100000000000d9
:20663f000000000000000000000000000000000000000000000000400000000000201000cb
:17665f00000000000000dd5200802800afc28102000040360054008f
:206676000000000000000100001afaafd20080000468f08010000005e69100000000000086
:206696000000000000000000000000000000000000000000040020000000001000000000b0
:1666b600000040000000a20421000b8000000004002063e850c0bd
:2066cc00000000000000000000000bb29f000000024200f000000000d2201000000000001c
:2066ec0000000000000000000000000000000000000000000000004000000000000000004e
:17670c00000000000003501050010098000000000000402600541060
