:02000000ff00ff
:080002004c6174746963650030
:17000a00694345637562653220323032302e31322e32373934330071
:15002100506172743a2069434534305550354b2d53473438002c
:1a003600446174653a204f6374203820323032352032333a35393a303400a6
:0200500000ffaf
:040052007eaa997e6b
:02005600510057
:020058000105a0
:03005a00920020f1
:03005d006202b389
:03006000720150da
:0300630082000018
:02006600110087
:02006800010194
:20006a00000000000000000000000010000000000000400000000000010000000000000421
:20008a000000000000001000000000000040000000001000000000000040000000000001b5
:1600aa0000000000000004000000000000100000000000004000ec
:2000c0000000000000000000000000020000000000000800000000000020000000000000f6
:2000e00080000000000002000000000000080000000002000000000000080000000000006c
:1701000020000000000000800000000000020000000000000800003e
:200117000000000000000000000000000000000000000000000000000000000000000000c8
:200137000000000000000000000000000000000000000000000000000000000100000000a7
:160157000000000000000000000000000000000000000000000092
:20016d00000000000000000000000000000000000000000000000000000000000000000072
:20018d00000000000000000000000000000000000000000000000000000000000000000052
:1701ad0010000000000000000000000000000000000000000000002b
:2001c40000000000000000000000000000000000000000000000000000000000000000001b
:2001e4000000000000000000000000000000000000000000000000000000000000000000fb
:1602040000000000000000000000000000000000000000000000e4
:20021a000000000000000000000000000000000000000000000000000000000000000000c4
:20023a000000000000000000000000000000000000000000000000000000000000000000a4
:17025a0000000000000000000000000000000000000000000000008d
:2002710000000000000000000000000000000000000000000000000000000000000000006d
:20029100000000000000000000000000000000000000000000000000000000000000040049
:1602b1000000000000000000000000000000000000000000000037
:2002c700000000000000000000000000000000000000000000000000000000000000000017
:2002e7000000000000000000000000000000000000000000000000000000000020000000d7
:170307000000000000000000000000000000000000000000000000df
:20031e000000000000000000000000000000000000000000000000000000000000000000bf
:20033e000000000000401000000000000000000000401000000000010040000000000800b6
:16035e000000000000000000000000000000000000000000000089
:20037400000000000000000000000000000000000000000000000000000000000000000069
:20039400000000000000000000000000000000000000000000000000000000000000000049
:1703b400000000000000000000000000000000000000000000000032
:2003cb00000000000000000000000000000000000000000000000000000000000000000012
:2003eb000000100000000000000000000000100000000000000000000000000000000000d2
:16040b00000000000000000000000000000000000000800040001b
:200421000000000000000000000000000000000000000000000000000000000000000000bb
:2004410000000000000000000000000000000000000000000000000000000000000000009b
:17046100000000000000000000000000000000000000580004000028
:20047800000000000000000000000000000000000000000000000000000000000000000064
:20049800000000000000000000000000000000000000000000000000000000000000000044
:1604b800000000000000000000000000000000000000000000002e
:2004ce0000000000000000000000000000000000000000000000000000000000000000000e
:2004ee000000010000000000000000000000010000000000000400010000000000000000e7
:17050e000000000000000000000000000000000000000000000000d6
:200525000000000000000000000000000000000000000000000000000000000000000000b6
:20054500000000000040000000000000000000000040000000000001000000000000000015
:160565000000000000000000000000000000000000000000000080
:20057b00000000000000000000000000000000000000000000000000000000000000000060
:20059b00000000000000000000000000000000000000000000000000000000000000000040
:1705bb00000000000000000000000000000000000000000000000029
:2005d200000000000c302000000000000000000000000000000000000000000000000000ad
:2005f2000000000000000000000000000000000000000000000000000000000000000000e9
:1606120000000000000000000000000000000000000000000000d2
:200628000000000000c30000000000000000000000000000000000000000000000000000ef
:20064800000000000000000000000000000000000000000000000000000000000000000092
:1706680000000000000000000000000000000000000000000000007b
:20067f00000000000c302000000000000000000000000000000000000000000000000000ff
:20069f0000000000000000000000000000000000000000000000000000000000000000003b
:1606bf000000000000000000000000000000000000000000000025
:2006d5000000000000c3000000000000000000000000000000000000000000000000000042
:2006f5000000000000000000000000000000000000000000000000000000000000000000e5
:170715000000000000000000000000000000000000000000000000cd
:20072c00000000000c30200000000000000000000000000000000000000000000000000051
:20074c0000000000000000000000000000000000000000000000000000000000000000008d
:16076c000000000000000000000000000000000000000000000077
:200782000000000000c3000000000000000000000000000000000000000000000000000094
:2007a200000000000000000000000000000000000000000000000000000000000000000037
:1707c200000000000000000000000000000000000000000000000020
:2007d900000000000c302000000000000000000000000000000000000000000000000000a4
:2007f9000000000000000000000000000000000000000000000000000000000000000000e0
:1608190000000000000000000000000000000000000000000000c9
:20082f000000000000c30000000000000000000000000000000000000000000000000000e6
:20084f00000000000000000000000000000000000000000000000000000000000000000089
:17086f00000000000000000000000000000000000000000000000072
:20088600000000000c302000000000000000000000000000000000000000000000000000f6
:2008a600000000000000000000000000000000000000000000000000000000000000000032
:1608c600000000000000000000000000000000000000000000001c
:2008dc000000000000c3000000000000000000000000000000000000000000000000000039
:2008fc000000000000000000000000000000000000000000000000000000000000000000dc
:17091c000000000000000000000000000000000000000000000000c4
:20093300000000000c30200000000000000000000000000000000000000000000000000048
:20095300000000000000000000000000000000000000000000000000000000000000000084
:16097300000000000000000000000000000000000000000000006e
:200989000000000000c300000000000000000000000000000000000000000000000000008b
:2009a90000000000000000000000000000000000000000000000000000000000000000002e
:1709c900000000000000000000000000000000000000000000000017
:2009e000000000000c3020000000000000000000000000000000000000000000000000009b
:200a00000000000000000000000000000000000000000000000000000000000000000000d6
:160a200000000000000000000000000000000000000000000000c0
:200a36000000000000c30000000000000000000000000000000000000000000000000000dd
:200a5600000000000000000000000000000000000000000000000000000000000000000080
:170a7600000000000000000000000000000000000000000000000069
:200a8d00000000000c302000000000000000000000000000000000000000000000000000ed
:200aad00000000000000000000000000000000000000000000000000000000000000000029
:160acd000000000000000000000000000000000000000000000013
:200ae3000000000000c3000000000000000000000000000000000000000000000000000030
:200b03000000000000000000000000000000000000000000000000000000000000000000d2
:170b23000000000000000000000000000000000000000000000000bb
:200b3a00000000000c3020000000000000000000000000000000000000000000000000003f
:200b5a0000000000000000000000000000000000000000000000000000000000000000007b
:160b7a000000000000000000000000000000000000000000000065
:200b90000000000000c3000000000000000000000000000000000000000000000000000082
:200bb000000000000000000000000000000000000000000000000000000000000000000025
:170bd00000000000000000000000000000000000000000000000000e
:200be700000000000c30200000000000000000000000000000000000000000000000000092
:200c07000000000000000000000000000000000000000000000000000000000000000000cd
:160c270000000000000000000000000000000000000000000000b7
:200c3d000000000000c30000000000000000000000000000000000000000000000000000d4
:200c5d00000000000000000000000000000000000000000000000000000000000000000077
:170c7d00000000000000000000000000000000000000000000000060
:200c9400000000000c302000000000000000000000000000000000000000000000000000e4
:200cb400000000000000000000000000000000000000000000000000000000000000000020
:160cd400000000000000000000000000000000000000000000000a
:200cea000000000000c3000000000000000000000000000000000000000000000000000027
:200d0a000000000000000000000000000000000000000000000000000000000000000000c9
:170d2a000000000000000000000000000000000000000000000000b2
:200d4100000000000c30200000000000000000000000000000000000000000000000000036
:200d6100000000000000000000000000000000000000000000000000000000000000000072
:160d8100000000000000000000000000000000000000000000005c
:200d97000000000000c3000000000000000000000000000000000000000000000000000079
:200db70000000000000000000000000000000000000000000000000000000000000000001c
:170dd700000000000000000000000000000000000000000000000005
:200dee00000000000c30200000000000000000000000000000000000000000000000000089
:200e0e000000000000000000000000000000000000000000000000000000000000000000c4
:160e2e0000000000000000000000000000000000000000000000ae
:200e44000000000000c30000000000000000000000000000000000000000000000000000cb
:200e640000000000000000000000000000000000000000000000000000000000000000006e
:170e8400000000000000000000000000000000000000000000000057
:200e9b00000000000c302000000000000000000000000000000000000000000000000000db
:200ebb00000000000000000000000000000000000000000000000000000000000000000017
:160edb000000000000000000000000000000000000000000000001
:200ef1000000000000c300000000000000000000000000000000000000000000000000001e
:200f11000000000000000000000000000000000000000000000000000000000000000000c0
:170f31000000000000000000000000000000000000000000000000a9
:200f4800000000000c3020000000000000000000000000000000000000000000000000002d
:200f6800000000000000000000000000000000000000000000000000000000000000000069
:160f88000000000000000000000000000000000000000000000053
:200f9e000000000000c3000000000000000000000000000000000000000000000000000070
:200fbe00000000000000000000000000000000000000000000000000000000000000000013
:170fde000000000000000000000000000000000000000000000000fc
:200ff500000000000c30200000000000000000000000000000000000000000000000000080
:201015000000000000000000000000000000000000000000000000000000000000000000bb
:1610350000000000000000000000000000000000000000000000a5
:20104b000000000000c30000000000000000000000000000000000000000000000000000c2
:20106b00000000000000000000000000000000000000000000000000000000000000000065
:17108b0000000000000000000000000000000000000000000000004e
:2010a200000000000c302000000000000000000000000000000000000000000000000000d2
:2010c20000000000000000000000000000000000000000000000000000000000000000000e
:1610e20000000000000000000000000000000000000000000000f8
:2010f8000000000000c3000000000000000000000000000000000000000000000000000015
:201118000000000000000000000000000000000000000000000000000000000000000000b7
:171138000000000000000000000000000000000000000000000000a0
:20114f00000000000c30200000000000000000000000000000000000000000000000000024
:20116f00000000000000000000000000000000000000000000000000000000000000000060
:16118f00000000000000000000000000000000000000000000004a
:2011a5000000000000c3000000000000000000000000000000000000000000000000000067
:2011c50000000000000000000000000000000000000000000000000000000000000000000a
:1711e5000000000000000000000000000000000000000000000000f3
:2011fc00000000000c30200000000000000000000000000000000000000000000000000077
:20121c000000000000000000000000000000000000000000000000000000000000000000b2
:16123c00000000000000000000000000000000000000000000009c
:201252000000000000c30000000000000000000000000000000000000000000000000000b9
:2012720000000000000000000000000000000000000000000000000000000000000000005c
:17129200000000000000000000000000000000000000000000000045
:2012a900000000000c302000000000000000000000000000000000000000000000000000c9
:2012c900000000000000000001000000000000000000000000000000000000000000000004
:1612e90000000000000000000000000000000000000000000000ef
:2012ff000000000000c300000000000000000000000000000000000000000000000000000c
:20131f0000000000000000000010000000000000000000000000000000000000000000009e
:17133f00000000000000000000000000000000000000000000000097
:20135600000000000c3020000000000000000000000000000000000000000000000000001b
:20137600000000000000000000000000000000000000000000000000000000000000000057
:161396000000000000000000000000000000000100000000000040
:2013ac000000000000c300000000000000000000000000000000000000000000000000005e
:2013cc00000000000000000000000000000000000000000000000000000000000000000001
:1713ec000000000000000000000000000000000000000000000000ea
:20140300000000000c3020000000000000000000000000000000000000000000000000006d
:201423000000000000000000000000000000000000000000000000000000000000000000a9
:161443000000000000000000000000000000000000000000000093
:201459000000000000c30000000000000000000000000000000000000000000000000000b0
:20147900000000000000000000000000000000000000000000000000000000000000000053
:1714990000000000000000000000000000000000000000000000003c
:2014b000000000000c302000000000000000000000000000000000000000000000000000c0
:2014d0000000000000000000000000000000000000000000000000000000000000000000fc
:1614f00000000000000000000000000000000000000000000000e6
:201506000000000000c3000000000000000000000000000000000000000000000000000002
:201526000000000000000000000000000000000000000000000000000000000000000000a5
:1715460000000000000000000000000000000000000000000000008e
:20155d00000000000c30200000000000000000000000000000000000000000000000000012
:20157d0000000000000000000000000000000000000000000000000000000000000000004e
:16159d000000000000000000000000000000000000000000000038
:2015b3000000000000c3000000000000000000000000000000000000000000000000000055
:2015d3000000000000000000000000000000000000000000000000000000000000000000f8
:1715f3000000000000000000000000000000000000000000000000e1
:20160a00000000000c30200000000000000000000000000000000000000000000000000064
:20162a000000000000000000000000000000000000000000000000000000000000000000a0
:16164a00000000000000000000000000000000000000000000008a
:201660000000000000c30000000000000000000000000000000000000000000000000000a7
:2016800000000000000000000000000000000000000000000000000000000000000000004a
:1716a000000000000000000000000000000000000000000000000033
:2016b700000000000c302000000000000000000000000000000000000000000000000000b7
:2016d7000000000000000000000000000000000000000000000000000000000000000000f3
:1616f70000000000000000000000000000000000000000000000dd
:20170d000000000000c30000000000000000000000000000000000000000000000000000f9
:20172d0000000000000000000000000000000000000000000000600000000000000000003c
:17174d00000000000000000000000000000000000000000000000085
:20176400000000000c30200000000000000000000000000000000000000000000000000009
:20178400000000000000000000000000000000000000000000000000000000000000000045
:1617a400000000000000000000000000000000000000000000002f
:2017ba000000000000c300000000000000000000000000000000000000000000000000004c
:2017da000000000000000000000000000000000000000000000000000000000000000000ef
:1717fa000000000000000000000000000000000000000000000000d8
:20181100000000000c3020000000000000000000000000000000000000000000000000005b
:20183100000000000000000000000000000000000000000000000000000000000000000097
:161851000000000000000000000000000000000000000000000081
:201867000000000000c300000000000000000000000000000000000000000000000000009e
:20188700000000000000000000000000000000000000000000000000000000000000000041
:1718a70000000000000000000000000000000000000000000000002a
:2018be00000000000c302000000000000000000000000000000000000000000000000000ae
:2018de000000000000000000000000000000000000000000000000000000000000000000ea
:1618fe0000000000000000000000000000000000000000000000d4
:201914000000000000c30000000000000000000000000000000000000000000000000000f0
:20193400000000000000000000000000000000000000000000000000000000000000000093
:1719540000000000000000000000000000000000000000000000007c
:20196b00000000000c30200000000000000000000000000000000000000000000000000000
:20198b0000000000000000000000000000000000000000000000000000000000000000003c
:1619ab000000000000000000000000000000000000000000000026
:2019c1000000000000c3000000000000000000000000000000000000000000000000000043
:2019e1000000000000000000000000000000000000000000000000000000000000000000e6
:171a01000000000000000000000000000000000000000000000000ce
:201a1800000000000c30200000000000000000000000000000000000000000000000000052
:201a380000000000000000000000000000000000000000000000000000000000000000008e
:161a58000000000000000000000000000000000000000000000078
:201a6e000000000000c3000000000000000000000000000000000000000000000000000095
:201a8e00000000000000000000000000000000000000000000000000000000000000000038
:171aae00000000000000000000000000000000000000000000000021
:201ac500000000000c302000000000000000000000000000000000000000000000000000a5
:201ae5000000000000000000000000000000000000000000000000000000000000000000e1
:161b050000000000000000000000000000000000000000000000ca
:201b1b000000000000c30000000000000000000000000000000000000000000000000000e7
:201b3b0000000000000000000000000000000000000000000000000000000000000000008a
:171b5b00000000000000000000000000000000000000000000000073
:201b7200000000000000000000000000000000000000000000000000000000000000000053
:201b9200000000000000000000000000000000000000000000000000000000000000000033
:20308500000000000000000000000000000000000000000000a0000000000000000000008b
:1630a5000000000000000000000000000000000000000000000015
:2030bb000000000000000000000000000000000000000000000000000000000000000000f5
:2030db000000000000000000000000000000000000000000000000000000000000000000d5
:1730fb000000000000000000000000000000000000000000000000be
:20311200000000000c30200000000000000000000000000000000000000000000000000041
:2031320000000000000000000000000000000000000000000000000000000000000000007d
:163152000000000000000000000000000000000000000000000067
:203168000000000000c3000000000000000000000000000000000000000000000000000084
:20318800000000000000000000000000000000000000000000000000000000000000000027
:1731a800000000000000000000000000000000000000000000000010
:2031bf00000000000c30200000000000000000000000000000000000000000000000000094
:2031df000000000000000000000000000000000000000000000000000000000000000000d0
:1631ff0000000000000000000000000000000000000000000000ba
:203215000000000000c30000000000000000000000000000000000000000000000000000d6
:20323500000000000000000000000000000000000000000000000000000000000000000079
:17325500000000000000000000000000000000000000000000000062
:20326c00000000000c302000000000000000000000000000000000000000000000000000e6
:20328c000000000000000000000000000000400000000000000000000000000000000000e2
:1632ac00000000000000000000000000000000000000000000000c
:2032c2000000000000c3000000000000000000000000000000000000000000000000000029
:2032e2000000000000000000000000000000040000000000000000000000000000000000c8
:173302000000000000000000000000000000000000000000000000b4
:20331900000000000c30200000000000000000000000000000000000000000000000000038
:20333900000040000000000000000000000000000000000000000000000000000000000034
:16335900000000000000000000000000000000000000000000005e
:20336f000000000000c300000000000000000000000000000000000000000000000000007b
:20338f0000000000000000000000000000000000000000000000000000000000000000001e
:1733af00000000000000000000000000000000000000000000000007
:2033c600000000000c3020000000000000000000000000000000000000000000000000008b
:2033e6000000000000000000000000000000000000000000000000000000000000000000c7
:1634060000000000000000000000000000000000000000000000b0
:20341c000000000000c30000000000000000000000000000000000000000000000000000cd
:20343c00000000000000000000000000000000000000000000000000000000000000000070
:17345c00000000000000000000000000000000000000000000000059
:20347300000000000c302000000000000000000000000000000000000000000000000000dd
:20349300000000000000000000000000000000000000000000000000000000000000000019
:1634b3000000000000000000000000000000000000000000000003
:2034c9000000000000c3000000000000000000000000000000000000000000000000000020
:2034e9000000000000000000000000000000000000000000000000000000000000000000c3
:173509000000000000000000000000000000000000000000000000ab
:20352000000000000c3020000000000000000000000000000000000000000000000000002f
:2035400000000000000000000000000000000000000000000000000000000000000000006b
:163560000000000000000000000000000000000000000000000055
:203576000000000000c3000000000000000000000000000000000000000000000000000072
:20359600000000000000000000000000000000000000000000000000000000000000000015
:1735b6000000000000000000000000000000000000000000000000fe
:2035cd00000000000c30200000000000000000000000000000000000000000000000000082
:2035ed00000000000000000000000000000000000000000000a0000000000000000000001e
:16360d0000000000000000000000000000000000000000000000a7
:203623000000000000c30000000000000000000000000000000000000000000000000000c4
:20364300000000000000000000000000000000000000000000040000000000000000400023
:17366300000000000000000000000000000000000000000000000050
:20367a00000000000000000000000000000000000000000000000000000000000000000030
:20369a00000000000000000000000000000000000000000000000000000000000000000010
:1636ba0000000000000000000000000000000000000000000000fa
:203c380000000000000000000000000000000000000000000020000000000000000000004c
:203c580000000000000000000000000000000000000000000000000000000000000000004c
:173c7800000000000000000000000000000000000000000000000035
:203c8f00000000000000000000000000000000000000000000000000000000000000000015
:203caf000000000000000000000000000000000000000000000000000000000000000000f5
:163ccf0000000000000000000000000000000000000000000000df
:203ce5000000000000000000000000000000000000000000000000000000000000000000bf
:203d050000000000000000000000000000000000000000000000000000000000000000009e
:173d2500000000000000000000000000000000000000000000000087
:203d3c00000000000000000000000000000000000000000000000000000000000000000067
:203d5c00000000000000000000000000000000000000000000000000000000040000000043
:163d7c000000000000000000000000000000000000000000000031
:203d9200000000000000000000000000000000000000000000000000000000000000000011
:203db2000000000000000000000000000000000000000000000000000000000040000000b1
:173dd2000000000000000000000000000000000000000000000000da
:203de9000000000000000000000000000000000000000000000000000000000000000000ba
:203e0900000000000000000000000000000000400000000000000000000000000000000059
:163e29000000000000000000000000000000000000000000000083
:203e3f00000000000000000000000000000000000000000000000000000000000000000063
:203e5f00000000000000000000000000000000000000000000000000000000000000000043
:173e7f0000000000000000000000000000000000000000000000002c
:203e960000000000000000000000000000000000000000000000000000000000000000000c
:203eb6000000000000000000000000000000000000000000000000000000000000000000ec
:163ed60000000000000000000000000000000000000000000000d6
:203eec000000000000000000000000000000000000000000000000000000000000000000b6
:203f0c00000000000000000000000000000000000000000000000000000000000000000095
:173f2c0000000000000000000000000000000000000000000000007e
:203f430000000000000000000000000000000000000000000000000000000000000000005e
:203f630000000000000000000000000000000000000000000000000000000000000000003e
:163f83000000000000000000000000000000000000000000000028
:203f9900000000000000000000000000000000000000000000000000000000000000000008
:203fb9000000000000000000000000000000000000000000000000000000000000000000e8
:173fd9000000000000000000000000000000000000000000000000d1
:203ff0000000000000000000000000000000000000000000000000000000000000000000b1
:20401000000000000000000000000000000000000000000000000000000000000000000090
:16403000000000000000000000000000000000000000000000007a
:2040460000000000000000000000000000000000000000000000000000000000000000005a
:2040660000000000000000000000000000000000000000000000000000000000000000003a
:17408600000000000000000000000000000000000000000000000023
:20409d00000000000000000000000000000000000000000000000000000000000000000003
:2040bd000000000000000000000000000000000000000000000000000000000000000000e3
:1640dd0000000a00000000000000000000000000000000000000c3
:2040f3000000000000000000000000000000000000000000000000000000000000000000ad
:2041130000000000000000000000000000000000000000000000000000000000000000008c
:17413300000000400000000000000004000000000000000000000031
:20414a0000000000000000000000000000000000000000000000180000000000000000003d
:20416a0000000008000000000000000000000000000000000000000000000000000000002d
:16418a0000000000001eea0100000000000000000000041cf040c6
:2041a0000000000000000000000000000000000000000000000000000000000000003800c7
:2041c00000000000d00000000000000000000000000000000000000000000000000000000f
:1741e00000000000000010a00000000000000000000002800f000087
:2041f70000000000000000000000000000000000000000003800000b2b8902e004003ccac5
:20421700040380000000000000000000000380000e0000000e000000000000000000000061
:164237000000e00000000000038008000000000e002000000000d8
:20424d00000000000000000000000000000000000000000002000000b6108208008001700e
:20426d00f02020000000000000000000000020000000000000800000000000000000000061
:17428d00000008000000000000200010000000008001c000000000a1
:2042a40000000000000000000000000000000000000000000000008000000040000017ca59
:2042c40004000100000029500000000000030000008328100000000000000000000000009e
:1642e400000000000000000000000001ba95540000000000000020
:2042fa0000000000000000000000000000000000000000000000001000000004000003c0cd
:20431a00f0210000000f01680000000000003000000b414104000000000000000000000039
:17433a00000000000000000000000000814295000000000000000014
:204351000000000000000000000000000000000000000000000000000000000000003cca46
:204371000400000000000000010000000000000000bb32d00000000000000000000000006a
:16439100000000100000000000000000000000000036036855010f
:2043a700000000000000000000000000000000000000000000000000000000000034016061
:2043c700f02100000000000000100000000000000007bf6d010001c0000000004000000080
:1743e70000000000000000000000000000000000000140150a50000f
:2043fe0000000000000000000000000000000000000000000000000000000000400000005f
:20441e00000000200003bc1200000000000000081f872810200000001af06000000000001d
:16443e0000000001e000000000000000f380100000000000000004
:2044540000000000000000000000000000000000000000000000050000000000000c300007
:2044740000000000000043c0000000000000000071fb414100000000000f00000000000028
:17449400000000000000000000000000ab42800000000000000000a4
:2044ab000000000000000000000000000000000000000000000018ab7f89840000c00000e2
:2044cb00000000000000000000000000000000001f3f28100000000000000000000000003b
:1644eb000000000000000a54000001813700100000060018f04046
:20450100000000000000000000000000000000000000000000000000b31080000002000055
:2045210000000008000000000000000000000000f0c08281010000000000000000000000be
:17454100000000000000c05a0000000087c02800000000000f0000cb
:2045580000000000000000000000000000000000000000000000000000000000000700003c
:20457800000001000d00000000000000000000079f7e3c1000400000000000000000000065
:1645980000000000004000000000080003bc1000000000000000f6
:2045ae0000000000000000000000000000000000000000000000000000000000800040002d
:2045ce000000000001800000000000000000000008eb43d50102000000000000000000003e
:1745ee00000000000028000000000050a003c00000000000000000db
:20460500000000000000000000000000000000000000000010001000000000400000000035
:2046250000000000001016802000000000010008003ba81040000000000000000200000071
:16464500000000020000000001000000000000000000000000005c
:20465b000000000000000000000000000000000000000000000000800000000000000000bf
:20467b0000000000000001680100000000000000f000828100000000000000000050000072
:17469b000000000014000000000000000000000000000000000000f4
:2046b20000000000000000000000000000000000780000000000580bfe8180000142e5c026
:2046d200800000050a16c608000a0000000000001e3af81000000039fdb0400000d9b380b9
:1646f2000200000000000000000008005bbfc800000000000000c6
:204708000000000000000000000000000000000000000000000000001af80000000228dc79
:204728000c000000090b60d0200000000000000001d3b3c10000000435fe040000050a036c
:17474800c000000000000000000000900ba3f4000001400000000027
:20475f00000000000000000000000000000e0040001cf0403a00000de68540000140018fdd
:20477f003020000d805f4200000000000003800800fb29500e000003fcb040003081a1a3ab
:16479f00c200e00000000000000000000000000e00000000000054
:2047b5000000000000000000000000000000800800000f0402100d00db5080000006380041
:2047d500f3290000d0092800000000000000200070d38141008000001e9d0400000500003e
:1747f50003c008000000000000000000000000008000000000000062
:20480c000000000000000000000000000004000000000000300000087f1d80000142af80c2
:20482c00000000000072c200000600000001000f893aa81000008039edb04000000001a66a
:16484c005a00000000000000000000000000000c000001dea04031
:20486200000000000000000000000000000080000000000001000000b7f2c01000006a4092
:204882000500000000bb60000000040000003000f9e3c3c10408000435fe04000000000b10
:1748a20065800000000000000000000000000000400000070af000d9
:2048b9000000000000000000000000000000000000000000000001dde20540400140000059
:2048d90000000005017b80008000000000000000009b695000000003fcb04000005801237f
:1648f900c20000014001af040800000000000000000000000000ea
:20490f0000000000000000000000000000000000000000000000001aba30a00000020000e2
:20492f0000000000d8af02000000000000000000000b3a85040000001f9d04000000000849
:17494f0003c00000000000f000000000a000000000000000000000fe
:204966000000000000000000000000000000000000000000003001cf7d09440022028ff0c4
:20498600b00000080116900880400000000000080177f9500000166dedb04000100001238d
:1649a600c2000000000000000080000100000000000004000000b4
:2049bc00000000000000000000000000000000000000000000000019bf900010021c03ca78
:2049dc000300000010e041008008000000000000f0fb670100000002b4fe040000000000f4
:1749fc0003c000000000000000000000a0000000000003c00000007e
:204a13000000000000000000000000000000000000000000000001af73dd040001c29e9787
:204a3300f2100008017f0280000000000000000b9ed228104000206ffeb04000007005a3cf
:164a5300c20000e8000000000000000000000000000000000000a3
:204a690000000000000000000000000000000001c00000000000000dfff9c80000346adf22
:204a8900ff210000f0e0c0280000100000000000710f7841000001429e9d040000000e005c
:174aa90003c0000040000000000000000000000000000000000000f3
:204ac000000000000000000000000000000000000008f0400000009bbe810000000384b08d
:204ae0008000000980f6900080000000000001880077a95000000000000000000000e123aa
:164b0000c2000000000000000000080000000000000004000000d1
:204b16000000000000000000000000000000000000010f040400091a1af828000000017d8c
:204b360000014000f0e1c000a000000000000030700543d500000000000000000000000828
:174b560003c0000000000000000000f0000000000000020000000093
:204b6d0000000000000000000000000000040000000000001000108de16d0000174066bfad
:204b8d00700000218e833dc080008000000100081fbb12900400363becb04000000001236f
:164bad00c200080000000000000000000000000000000400000024
:204bc300000000000000000000000000000000000000000000000998bb51c80000ac3df87c
:204be300a5000005010103eca00410000000000071eb2509000001c41f9d04000000000054
:174c030003c000400000000000000000000000000000024000000055
:204c1a00000000000c3020000000000000000020000000000000000de2bc000020002fc044
:204c3a0000000000010000000000000000000005195b83e000000002eeb040000001b523c4
:164c5a00c200000000000000000000000000000000000000000082
:204c70000000000000c30000000000000000000240000000000000005016880000342fd8f6
:204c90001000000000f0000000000000000000005090703c000000000ecd040000000a008f
:174cb00003c100000000000000000000000000000000000000000029
:204cc700000000000c30238000000000000e003e666ba0400000500bb828a0000162b7807c
:204ce7000023810000bb72d00000000000000009997e03e00e000002dcc340000001b52341
:164d0700c200e000000000000000000000000000000000000000f4
:204d1d000000000000c300200000000000008081e646c1040000000a3400000000344040af
:204d3d000200200000053f0c24000000000000009180b03c008000002ccc040000000a003d
:174d5d0003c008000000000000000000000000000000000000000074
:204d7400000000000c30230000003b80904c0026636bc1400100500df100080a01401d90e5
:204d940080010000003b28140000000000000009985e03e000000002ecb0404000d805a387
:164db400c200000000000000000000000000000000000000000027
:204dca000000000000c3001000000f7148414003e43cbc3410000000fc000000000202dcae
:204dea00000010000003b78001000000000000009900f43c000000000fcd040001050000af
:174e0a0003c0000000000000000000000000000000000000000000ce
:204e2100000000000c3020000000000000000020685fa54000001801a97c000015402de4a5
:204e4100a020002800fbbd5800000000000000018a1203e000000002ddc3400000d80123fb
:164e6100c200000000000000000000000000000000000000000079
:204e77000000000000c300000000000000000001c415aa14040005890817c01000822f503e
:204e97000a0000007005c294000000000000000058a0643c000020402cfc040000050008f5
:174eb70003c000001c00000000000000000000000000000000000005
:204ece00000000000c302000080000000000000004f8e540000000b83c400000c200000049
:204eee000000000d015fbc1040000000000028099d3056a00000366aeeb04000000001a315
:164f0e00c2000000000000000000000000000000000000000000cb
:204f24000000000000c3000000b0e00000000100037cbc040004050877c80800102c38000e
:204f44000000004078ff03e804000000000001401085b294000101c00fcd040000000008e1
:174f640003c000000000000000004000000000000000000000000033
:204f7b00000000000c302000070000000000100400000000000051a77100000000665fd79a
:204f9b00f000038f18fbbd504000000000000008185ec3e00000163adff04000000001a3f0
:164fbb00c2000008004000000000000000000000000000000000d6
:204fd1000000000000c300000000000000000000200000000000050a77400000001c37dee6
:204ff100ff0000019105429404000000000000001000a03c000002402dac0400000000081d
:1750110003c0000100200000000000000000000000000000000000a4
:20502800000000000c30200000090000000000006af8a540000098b77c40000010007ef033
:20504800800000000edf28100000000000000003801056a000002006fcb0400000000123e4
:16506800c20000000001af040000000000000000000000000000bc
:20507e000000000000c30000000180000000000000240f5400000b8a374c0000009c36de7f
:20509e0000000000010303c0240000000000000000ad2694000001428ecd040000000008f6
:1750be0003c00000000000f000000000000000000000000000000028
:2050d500000000000c302004000000000004100071f90b40004030f37804080102e204a022
:2050f500a001040b9c00000000000000000004001c7056a00410206eddc34000000005a39f
:16511500c20001000001cf041804000000000000100000000000c1
:20512b000000000000c300000000000000000000041690340000009af8000000002e4020a3
:20514b000a000000b9b0000000000000000000000005369400000142acec04000000000023
:17516b0003c00000000010f00000000000000000000000000000006a
:2051820000000000000000000000000000000026656c0f80000000156f2d000008000606c2
:2051a2006c00000000721438100000000000000b995283e000000028000000000001a5a3e9
:1651c200c200000000000000000000000000000000000000000015
:2051d80000000000000000000000000000000000420080f00000050e13f9d0000100000d08
:2051f80066480000000b001508000000000000011180a03c100002460000000000000000fb
:1752180003c1000000000000000000000000000000000000000000bb
:20522f0000000000000000000000000000000006055e0f8038000000000000e001c01c89e9
:20524f006c038000007214300000000000000001995283e00e000002ceb04001080005234c
:16526f00c200e00000000000000000000000000000000000000087
:2052850000000000000000000000000000000000020080f002000000000000080002000d7e
:2052a500964020000003001501000000000000000190b03c008000003cfd04002000000080
:1752c50003c0080000000000000038000000000000000000000000cf
:2052dc0000000000000000000000000000000014017e0f80100010807281004000001e8916
:2052fc006c0300001952143000000000000000099c1683e000000001e8b0404000580121c3
:16531c005400c000001cca06000000000000000200000000000079
:2053320000000000000000000000000000000000024290f001000700141410480000000d02
:2053520096480000008b801500000000000000009980243c000e000007ce040000000008d5
:1753720015400c00000020a0400000000000000000000000000000c3
:205389000000000000000000000000000000000029de0f80000001c17281000000001e8912
:2053a9006e000001815214300100000000000009807383e000001e02ccb0400000800000a2
:1653c90000000000000000000000000000000000000000000000ce
:2053df0000000000000000000000000000000001428190f000000100042812000000000d1e
:2053ff00964000000083801500000000000000009880b43c00000022fdfd04000005000073
:17541f00000000000000000000000000000000000000000000000076
:2054360000000000000000000000000000000014294f0f8000000080020500000006de9937
:205456006c000003007a14300000000000000001985e43e000000005eeb04000000000000c
:1654760000000000e0000000000000000000000000000000000040
:20548c00000000000000000040000000000001036603c0f000041010521090001000280d48
:2054ac0096480040008b0015000000000000004410d0f03c000101c286ce040000000000b6
:1754cc00000000100200000000004000000000000000000000000077
:2054e30000000000000000000000000000000020617d0f80000000807b8100010006de9922
:205503006c100100005a14300000000000000008193643e0000e0060000000000000000085
:165523000000000000000000000000000000000000000000000072
:205539000000000000000000000000000000000042c380f00000000fb3f412000000280de0
:20555900964002000003001500000000000000001080603c00000000000000000000000016
:1755790000000000000000000000000000000000000000000000001b
:205590000000000000000000000000000000000e01ed0f800000000f3295000001601c9984
:2055b0006c000409805a143000000000000000071a7243e0000a360400000000000000004a
:1655d0000000000003c00000000000000000000000000000000002
:2055e6000000000000000000000000000000000002c390f000002008dc1410000014000d17
:2056060096400000100b80150000000000000000f900743c000001434000000000000000d1
:175626000000000000780000000000000000000000000000000000f5
:20563d00000000000000000400000000000010142ccd0f80104030e12a81004103621e9934
:20565d006c090408187a143000000000000006800036c3e00410000369a5410040000000d1
:16567d0000004100000000000004000000000000000000000000d2
:20569300000000000000000000000000000000036682d0f000000010042810000014402d7f
:2056b300964000001003801500000000000000000000b43c00000002adb464100000000092
:1756d3000000000000000000000000000000000000000000000000c0
:2056ea0000000000000000000900d73c10200020655e0f80000000100000000000001c892d
:20570a006c10000000f21430000000000000000d195683e0000000000000000000000000ee
:16572a00000000086015ba440000000000000000000000000000ee
:20574000000000000000000000d0056301000000420080f04000000f000000000a00000df8
:20576000964c0000000b001510000000000000001980a03c100000028000000000000e0002
:17578000000000004000dd7440000000000000000000000000000041
:20579700000000000000038000005aac10200026646c0f8038003800000000e000401c897f
:2057b7006c13800000f214300000000000000005805283e0000014340000003800000000e3
:1657d7000000e0020015ba550000000000000000000000000000b6
:2057ed0000000000000000200000012b410000024600c0f002000000000000080002000dfe
:20580d0096482000000f001504000000000000003800b03c00000022c0000002000000004d
:17582d000000080034007dad480000000000000000000000000000b6
:2058440000000000000000400d00d3bc10000024006e0f801800000073c1004000001e8904
:205864006c07000019d2143000000000000000018a1203e00000006a7e000010000000000a
:16588400000000020280000000000000000000000000000000008a
:20589a0000100000000000040078052301010002600390f001000100003c10080000000df0
:2058ba0096480000008b8015000000000000000009b0643c000000002d00a0190000000091
:1758da0000000000047c000000000000000000000000000000000037
:2058f100000000000000000007005f2c1000001e014c0f80000011c06bc1000000001e8957
:205911006c84000181d21430000400000000000800023c08000000034855000000001000ec
:1659310000000000028000000000000000000000000000000000de
:2059470000000000000000000000012b41040000000190f000000080003c10000000000d75
:2059670096400001008f80150000000000000000900003c0000003401f0f00000000080059
:17598700000000000078000000000000000000000000000000000091
:20599e0000000000000000000001d7bc1040002620df0f80000000102bc180000006de9958
:2059be006c04000000fa143000000000000000018007b008800000007e50100280000000fb
:1659de0000000000000000000000000000000000000000000000b3
:2059f40000000000000000000200c52301000002c383c0f00000000f003c10000000280d20
:205a140096480000000b001500000000000000000000030000000000010500001009000052
:175a3400000000001c0000000000000000000000000000000000003f
:205a4b00000000000000000008095b2c1042003665fd0f80000070e8328100004006de9962
:205a6b006c00408001da1430000000000000000000000000000000000ac002000000000004
:165a8b0000000410024000000000000000000000000000000000af
:205aa100000000000000000000b1c16b41000000434380f000000090141410000000280dd4
:205ac1009648040000bf001500000000000000005000000000000003c10c000800000000e7
:175ae100000000a0806000000000000000000000000000000000002e
:205af80000000000000000000801d3bc1000200004ef0f800000000073c10000036006990e
:205b18006c00000980da1430000000000000000000864402400000037805000000000df9c8
:165b380009000000003eba740000000000000000000000000000e2
:205b4e00000000000000000000b0d563010100c1c34090f000000000043c10000014000d98
:205b6e0096488000100b801500000000000000000001308000000000250000000000007fb4
:175b8e00280240000002f8424000000000000000000000000000001a
:205ba500000000000000010000005f2c10400624697f0f801000000b6bc1004003621e99c0
:205bc5006c01000819fa1430000000000000028800000000000021061d4000000050100086
:165be500000040000040000000000000000000000000000000002a
:205bfb0000000000000000000070016b41000002e380d0f0000300001c3e90000014402dda
:205c1b009648800010bf801500000000000000005000000000000042bd88020000008f003f
:175c3b0000000000003800000000000000000000000000000000001a
:205c520000000000000000000000000000000020057e0f80000000000000000000001c895b
:205c72006c8003a000f21430000000000000000001000000000000000000000001001580b6
:165c9200020000000716aa00000000000000000000000000000033
:205ca80000000000000000000000000000000000420380f040000000000000000000000dda
:205cc8009644800100070015300014000000000000900000000000000000000000200f0b37
:175ce800c0000006344020a0000000000000000000000000000000ab
:205cff000000000000000000000002dc40000020014c0f8000008000000000e000401c8926
:205d1f006c03800000f2143000000000000380080003bc100e00200400000000000007a309
:165d3f00c200e003400000000380000000000000000000000000e6
:205d5500000000000000000000000b32c80000034003c0f000000100000000080002000d1b
:205d750096402000000300150400000000002000f00043c1008000424000000000000000e6
:175d950003c008000600000000200000000000000000000000000006
:205dac0000000000000000010500000000000020655e0f80000000000000004008001e8970
:205dcc006c03000019d21430004000000001000000033c100c40400000000000000007a650
:165dec005a00000140008a00000000180000000000000000000064
:205e020000000000000000000000000000000000c64290f000000000000000080000000de3
:205e220096400000008780150000000000001200000003c1004009c0000000000000000b84
:175e42006580000016005050000000000000000000000000000000ae
:205e5900000000000000000000000000000080000408f028000000a00000000000001e893e
:205e79006c00000181d2143000400000000000000003bc100000000000000000000013a340
:165e9900c2000000000f8a000000001e5a9410000000000000007c
:205eaf000000000000000000000000000000040002400f0000000010000000000000000d61
:205ecf0096400000008380150008000000000000000003c1000000000000000000000e00eb
:175eef0003c00000002800a00000000100c14300000000000000000c
:205f06000000000000000000401a3b2800004006041cc002000059abffdc00000006de993a
:205f26006c00018000fa143000000000000000070000000000440007dd0068000000a323d3
:165f4600c20000000001cf040800000000000000000000000000a7
:205f5c0000000000000000002800004280000a0003400c0000000000b3ffc0000000280d3b
:205f7c00964000000007001500000000000000000800000000020003c7f4700003001008c0
:175f9c0003c00000000000f00000000000000000000000000000003b
:205fb300000000000000000005800000000001460018050040005810000000000006de99c0
:205fd3006c00000580da14300000000000000000000000000000067a6e0040000000172337
:165ff300c2000041c00000000000000000000000000000000000d5
:2060090000000000000000000000000000000000001400a00000000a000000000000280d84
:206029009640000008030015000000000000000000000000000000000fa47088000d0e009b
:1760490003c000000c3c000000000000000000000000000000000035
:206060000000000000000000000000000000000000000000000000133bd4000003600699fc
:206080006c00002980da143000400000000000011e00000000000060000000000050e723b4
:1660a000c20000000007ea00000000000000000000000000000037
:2060b60000000000000000000000000000000000000000000000000a0c3d40000014000d16
:2060d600964000051007801500020000000000000000000000000007c0000000000d9000bd
:1760f60003c00000000010a000000000000000000000000000000020
:20610d000000000000000000000000000000002004000000000081a5e3dc0a4003621e9903
:20612d006c01000d98fa1430000000000001000000063c10200000380000000000500123e3
:16614d00c2040000000eaa000100000000000000000000000000bd
:2061630000000000000000000000000000000002d340000000000500383fc2100014402d38
:2061830096400000180380150000000000000000000003c1000000040000000000008b081b
:1761a30003c00000003020a000000000000000000000000000000032
:2061ba0000000000000000000000584020000004025ef040000000000000000000001c89d4
:2061da006c00008000721430000000000000000000b341d000000060dbb04000000007a36a
:1661fa00c2000002061fea74080000000000000000000000000040
:2062100000000000000000000000e03400000000202dac0480000000000000000000000dd0
:2062300096440000000b001530000000000000000091703d000000040ddd040000000000f4
:1762500003c10000046ad803480000000000000000000000000000e2
:2062670000000000000000000000123c220e000002eeb04000000000000000e000001c8934
:206287006c038000007214300000000000038000000000000e002002dab04000000007a32b
:1662a700c200e002063ced140000000082a80000000000000000d0
:2062bd0000000000000000000050e0803c008000000f8d0480000000000000080000000d20
:2062dd0096402000000f001504001c000000200090000000008002403cce040003000000e4
:1762fd0003c00800042aee524000000005414000000000000000008b
:20631400000000000000000000005265a000000e025dc340400000000000004000001e897b
:206334006c0300001952143000000000000100001e000000000306040000000000000323d9
:16635400c2000000063df8540000000a00000000000000000000d8
:20636a0000000000000000000070002258200000002cfc0400000000000000080000000dc8
:20638a0096400000008b80150000000000003000010000000000002240000000000000006a
:1763aa0003c00000142dea4740000000000000000000000000000067
:2063c100000000000000000008011a3c2200000002fcb040000000000000000000001e89a6
:2063e1006c0000000052143000000000000000000000000000000606d8b04000180003a308
:16640100c200000060148a54000008000000000000000000000069
:2064170000000000000000000090d0803c000000000e8d0480000000000000000000000d1d
:2064370096400000000f8015000000000000000000000000000000227cce04000000000853
:1764570003c000003403f95e400000b00000000000000000000000ed
:20646e00000000000000000000003a3c20000000025cc340000081a0000000000006c08fa1
:20648e0004100000017a143000000000000000071fb3549000001e00c9b04000005003a391
:1664ae00c20000016044ba76100000000000000000000000000031
:2064c4000000000000000000000000003c20000342ecec048000050000000000800028000e
:2064e400f048000000bb0015000000000000000009e1bd69000002e00ddd0400000d80081b
:1765040003c000000022685a49000000000000000000000000000090
:20651b00000000000000000001007a3c2000001c06ecb0400000000000000000000000008b
:20653b000000000180b21410000000000000000b8073401000000002cab040000000a32319
:16655b00c200040006d7ee74000000000000000000000000000025
:2065710000000000000000000030c0003c200003434f8d0480000000000000000000000018
:2065910000000000000380290000000000000000b803f201000000037cce040003801b00a1
:1765b10003c0002000614cdf404000000000000000000000000000e4
:2065c800000000000000000000005a3c200000142a5cc34000005810000000000360000095
:2065e800000000898100000000000000000000000c00000000008000cbb040000000a72378
:16660800c200000067e5ba74100000000000000000000000000030
:20661e000000000000000000000000803c200000242ccc048000000a0000000000140000c2
:20663e000000000010b00000000000000000000001000000000010000ddd040000001b085a
:17665e0003c0000024226d5a600000000000000000000000000000f5
:20667500000000000000000001003a3c200400142afeb0400000000733dc00400360000085
:20669500000100080000000000000000000100001c134010040000000000000000500723de
:1666b500c2004000c05cfe2410000000000000000000000000007f
:2066cb000000000000000000000000003c02000026ce8d0480000000f37fc0000014000026
:2066eb00000000001000000000000000000000000103f2010000000340000000000d8008b0
:17670b0003c000003c2f69a1c18000000000000000000000000000fe
:20672200000000000c30200000195a3c2000000000000000000071938002000001e004ead7
:20674200040000000077a81800000000000000001900402000000067f9b04000000003a38d
:16676200c2000000028000000000000000000000000000000000dd
:206778000000000000c30000000190803c100000000000000000008800000080000200c017
:206798000040000000030001000000000000000050802800080000065cce04000000000069
:1767b80003c100000000000000000000000000000000000000000006
:2067cf00000000000c30200009801a3c200e00000000000000009815b83e00e001e02fd5d9
:2067ef0024039000005b281800000000000000218b1783e00e00a603e8b04000000013a3cd
:16680f00c2000000000000000000000000000000000000000000b1
:206825000000000000c30000009800003c00800000000000000001080703c008000201dc82
:20684500a54022000007800100000000000000045890703c008012601dfd040000000900f3
:1768650003c000000000000000000000000000000000000000000059
:20687c00000000000c30200009801a3c200000000000000000000003383e00c0000794eae3
:20689c00040100078e0000000000000000000009981e03e000002603fbb040000004072160
:1668bc005400000040008a000000000000000000000000000000a8
:2068d2000000000000c30000009800003c00000000000000000000000e43c00400007ce09e
:2068f200004030000100000000000000000000009900a43c000002601dce0400000000004b
:17691200154000000029505000000000000000000000000000000050
:20692900000000000c3020000019523c200000000000000000007817783e000000078ed081
:20694900040000001e000000000000000000038d001e03e0000c0067fab040010000e0003d
:166969000000000000000000000000000000000000000000000018
:20697f000000000000c30000000190003c000000000000000000000d0243c000003c01ca4f
:20699f00404000000000000000000000000000009000643c000000065dfd0410080010009c
:1769bf000000000000000000000000000000000000000000000000c1
:2069d600000000000c3020000000123c2000001470000000000099b7bc3e000000002ff0ea
:2069f60076000000000000000000000000000009817ec3e000000003ebb04000080000007a
:166a1600000000000014ea0000000000000000000000000000006c
:206a2c000000000000c30000000000803c000003600000000000050a0a03c000002424cb79
:206a4c000f400000700000000000000000000000f0f0b03c000004001cce040000000000ad
:176a6c0000000000000020a000000000000000000000000000000053
:206a8300000000000c30200000005a3c2000000001ee834000005983743e000001e04ed0a2
:206aa300040000000053941000000000000010299932c3e000000003eab04000005009e813
:166ac30000020000000000000000000000000000000000000000bb
:206ad9000000000000c30000000000803c000000001fcc2480000d000203c000002c3dc88c
:206af9004040000000ff416980000000000002841080703c000002401cfd0400000d807caa
:176b1900014010000000000000000000000000000000000000000014
:206b3000000000000c3020000000523c2000002071cfb040000058a16c3e000000020fe552
:206b5000040010080c0000000000000000000000017056a000000003e9b0400000000000ba
:166b7000000000020000000000000000000000000000000000000d
:206b86000000000000c30000000000003c000002c2fdfe0480000d1b0643c000002403c095
:206ba6005a600000b1800000000000000000000000e5b694000000025dce0400000d000077
:176bc600000000001c0000000000000000000000000000000000009c
:206bdd00000000000c3020000000123c2004000021ecb040000050a37c3e004002000caa28
:206bfd0004110020003b281000000000000000000b3056a004000c03f8b0400000000000a4
:166c1d000000000000000000000000000000000000000000000061
:206c33000000000000c30000000000803c000000001edd04800000990f43c000002c01d09b
:206c530000400004f0078001800000000000000000e5b694000002601cfd04000007000030
:176c730000000000000000000000000000000000000000000000000a
:206c8a00000000000c30200000001a3c20000000015fb0408000f191783e000000003eeae8
:206caa0004800000005e28100000000000000009993303e000000460ebb0400000000000b9
:166cca000000000060000000000000000000000000000000000054
:206ce0000000000000c30000000000803c10000040059d04000001880203c100000000c010
:206d000000400000d081000140000000000000011080a03c1000000267bd040000000000fa
:176d200000000000000000000000000000000000000000000000005c
:206d3700000000000c30200000185a3c200e0000024cb04080009813b83e00e000000000c5
:206d570000038007000000000000000000000009893603e00e00000768c340000001a000c6
:166d77000000e00007adca74000000000000000000000000000034
:206d8d000000000000c30000000100003c0080000275ae04080001080703c008000000005a
:206dad00000020000800000000000000000000009980203c008000022fdc04800000000018
:176dcd0000000800007a780340000000000000000000000000000072
:206de400000000000c30200000005a1540000000014fb040800001e5b83e00c00003aeea8d
:206e0400048100200000000000000000000000299f1e03e00000260400000000000001f0e5
:166e2400140000000006bc0400000000000000000000000000007e
:206e3a000000000000c300000000008154000000c0059d04000001000243c00c000040e008
:206e5a00004010000000000000000000000000009890a43c0000a26240000000000000b8c4
:176e7a003d400000002af9d840000000000000000000000000000049
:206e9100000000000c3020000181000000000000025cb040000001e5b83e000000000eca01
:206eb10006000000000000000000000000000000197283e000400020fda54080000000000b
:166ed10000000000000000000000000000000000000000000000ab
:206ee7000000000000c3000000089000000000000275ae04100001000a43c000000001c028
:206f070000400000d000000000000000000000000190243c0002000426c4641000000b00fa
:176f2700000000000000000000000000000000000000000000000053
:206f3e00000000000c3020000000000000000000054fb041000098a57c3e00000200000099
:206f5e00000028000000000000000000000000058b7ec3e0000000245c8340000058073a5e
:166f7e00800000000040000000000000000000000000000000003d
:206f94000000000000c30000000000000000000003449d0400000b000603c000001c000042
:206fb4000000000000000000000040000000000050e0f03c00000002a5ac240000000f0893
:176fd40028000000002000000000000000000000000000000000005e
:206feb00000000000c3020000000000000000020025eb041000001857c3e000000070eaaba
:20700b00060010000097a81000008000000000099836c3e00000162368c3400000700fb82b
:16702b00140000000000000000000000000000000000000000003b
:207041000000000000c300000000000000000002c2b4ae04000005000a03c000001425d067
:20706100004002800005000180001400000000001000f03c00000346efac04000000807897
:1770810000000000002c0000000000000000000000000000000000cc
:20709800000000000c302000000000000000002004000000000010b33c3e00000007a0f87c
:2070b80004000000000000000000000000000021007ac3e00080007bfea548403838136a63
:1670d8008000000000000000000000000000000000000000000022
:2070ee000000000000c300000000000000000002c300000000000d9d0e43c000001442cc1d
:20710e00406000000000000000000000000000010000243c0000000025fad48000038a045c
:17712e00280000000000000000000000000000000000000000000022
:20714500000000000c3020000000000000040004025cb040800011b7b43e004002038fea80
:2071650004010007800000000000000000000008005056a0040020064cb040000001c00009
:1671850000004000000000000000000000000000000000000000b4
:20719b002000000000c30000000000000000000023b4ae0400000d8d0b43c000000c01d0e3
:2071bb0000400000080000000000000000000000b0adb69400000142af8e048000011000b0
:1771db0000000000400000000000000000000000000000000000015c
:0271f20000009b
:0371f4007200b076
:0271f700110184
:0271f900010192
:2071fb0000000000000000000000001000000000000040000000000001000000000000041f
:20721b00000000000000100000000000004000000000100000800000000000020000000071
:16723b0000000000800004000000000000100000000000000000a9
:207251000000000000000000000000020000000000000800000000000020000000000000f3
:20727100800000000000020000000000000800000000020000000000000800000000000069
:17729100200000000500008000000000000200000000000008000037
:2072a8000000000000000000000000000000000000000000000000000000000000000000c6
:2072c800000000000000000000000000000000000000000000400000000000010000000065
:1672e8000000000000000000000000000000000040000000000050
:2072fe00000000000000000000000000000000000000000000000000000000000000000070
:20731e0000000000000000000000000000000000000000000000000000040000000000004b
:17733e00100000000000000000000000000000000000000000000028
:20735500000000000000000000000000000000000000000000000000000000000000000018
:20737500000000000000000000000000000000000000000000800800020000020020000844
:1673950000000000000000000000000000000000000000000000e2
:2073ab000000000000000000000000000000000000000000000000000000000000000000c2
:2073cb000000000000000000000000000000000000000000000000700030000000034000bf
:1773eb00c000000000000000000000000000000000000000000000cb
:2074020000000000000000000000000000000000000000000000000000000000000000006a
:2074220000000000000000000000000000000000000000000000000000000000000000004a
:167442000000000000000000000000000000000000000000000034
:20745800000000000000000000000000000000000000000000000000000000000000000014
:207478000000000000000000000000000000000000000000000000000000000000000000f4
:177498000000000000000000000000000000000000000000000000dd
:2074af000000000000000000000000000000000000000000000000000000000000000000bd
:2074cf00000000000000000000000000000000000000000000000002000000000000080093
:1674ef000000000000000000000000000000000000000000000087
:20750500000000000000000000000000000000000000000000000000000000000000000066
:20752500000000000000000000000000000000000000040000000000000000000000000042
:1775450000000000000000000000000000000000000000000000002f
:20755c0000000000000000000000000000000000000000000000000000000000000000000f
:20757c000000000000000000000000000000000000000000000000000000000000000000ef
:16759c000000000000100c0000000000400000000000000000007d
:2075b2000000000000000000000000000000000000000000000000000000000000000000b9
:2075d200000000000000000000000000000c0000000000000000000000000000000000008d
:1775f20000000000000000c0000000000000000000000000000000c2
:20760900000000000000000000000000000000000000000000000000000000000000000061
:2076290000000000000000000000030000000000000000000000000000000000000000003e
:1676490000000000000000000000000080000000000001000000aa
:20765f0000000000000000000000000000000000000000000000000000000000000000000b
:20767f000000000000000000000000000000000000000000000000000000000000000000eb
:17769f000000000000000000000000000400000000000000000000d0
:2076b6000000000000000000000000000000000000000000000000000000000000000000b4
:2076d600000000000000000000000000000000000000000000000000000000000000000094
:1676f600000000000000000000000000000000000000000000007e
:20770c0000000000000000000000000000000000000000000000000000000000000000005d
:20772c0000000000000000000000000000000000000000000000000000000000000000003d
:17774c00000000000000000000000000040000000000000000000022
:20776300000000000c3000000000003fc000000000000000000000000000000000000000cb
:207783000000000000000000000000000000000000000000000000000000000000000000e6
:1677a30000000000000000000000000000000000000000000000d0
:2077b9000000006800c3020000000003fc0200000000000000000000000000000000000082
:2077d900000000000000000000000000000000000000000000000000000000000000000090
:1777f900000000000000000000000000000000000000000000000079
:20781000000000000c30000000099428000000000000000000000000000000000000000057
:20783000000000000000000000000000000000000000000000000000000000000000000038
:167850000000000000000000000000000000000000000000000022
:207866000000000000c30200000008394000000000000000000000000000000000000000bc
:207886000000000000000000000000000000000000000000000000000000000000000000e2
:1778a6000000000000000000000000000000000000000000000000cb
:2078bd00000002800c300000000000000000000000000000000000000000000000000000ed
:2078dd0000000000000000000000000000000000000000000000000000000000000000008b
:1678fd000000000000000000000000000000000000000000000075
:207913000000000400c302100000000000000000000000000000000000000000000000007b
:20793300000000000000000000000000000000000000000000000000000000000000000034
:1779530000000000000000000000000000000000000000000000001d
:20796a00000000000c300000000000000000000000000000000000000000000000000000c1
:20798a00000000000010168000000000000000000000000000000000000000000000000037
:1679aa0000000000000000000000000000000000000000000000c7
:2079c0000400000040c302000000000000000000000000000000000000000000000000009e
:2079e000000000000008029480000000000000000000000000000000000000000000000069
:177a000000000000000000000000000000000000000000000000006f
:207a1700010000020c30000000000000000000000000000000000000000000000000000010
:207a370000010000000000000000000000000000000000000000000000000000000000002e
:167a57000000000000000000000000000000000000000000000019
:207a6d0000100000e0c3020000000000000000000000000000000000000000000000000044
:207a8d000000100000000000000000000000000000000000000000000000000000000000c9
:177aad000000000000000000000000000000000000000000000000c2
:207ac400010000000c30000000000000000000000000000000000000000000000000000065
:207ae400000000000000000000000000000000000000000000000000000000000000000082
:167b0400000000000000000000000000000000000000000000006b
:207b1a000010000060c3020000000000000000000000000000000000000000000000000016
:207b3a0000000000000000000000000000000000000000000000000000000000000000002b
:177b5a00000000000000000000000000000000000000000000000014
:207b7100010000020c300000000800000000000000000000000000000000000000000000ad
:207b91000000000100000000000000000000100000000000000000000000000000000000c3
:167bb10000000000000000000000000000000000000000000000be
:207bc70000100401e0c30200000000000000000000000000000000000000000000000000e4
:207be70000000000000000000000000000000000000000000000000000000000000000007e
:177c0700000000000000000000000000000000000000000000000066
:207c1e00010020000c300000000000000000000000000000000000000000000000000000e9
:207c3e00000000000000000000000000000000000000000000000000000000000000000026
:167c5e000000000000000000000000000000000000000000000010
:207c74000010060000c3020000000000000000000000000000000000000000000000000015
:207c94000000000000000000000000000000000000000000000000000000000000000000d0
:177cb4000000000000000000000000000000000000000000000000b9
:207ccb00000000010c3000000000000000000000000000000000000000000000000000005c
:207ceb0000000000000000000000000000000000000000000006140000000000001000004f
:167d0b000000000000000000000000000000000000000000000062
:207d2100000000281ec3020000000000000000000000000000000000000000000000000037
:207d4100000000000000000000000000000000000000000000400360000000010008000076
:177d6100000000020000000000000200000000000000000000000007
:207d7800000000000c300000000000000000000000000000000000000000000000000000af
:207d98000000000000000000000000000000000500b3c0000000140000000000001000002f
:167db80000000000000000000000000000000000000000000000b5
:207dce000000000000c30200000000000000000000000000000000000000000000000000d0
:207dee000000000000000000000000000000000081a33820000003600000000000099e00ef
:177e0e0000000000000000000000000000000000000000000000005d
:207e2500000000000c300000000000000000040000000000000000000000000000000000fd
:207e4500000000000000000000000000000000000000000000000000000000000001030019
:167e650029000000000000000000000000000000000000000000de
:207e7b000000002800c30200000000000000000000000000000000000000000000000000fa
:207e9b000000000000000000000000000000000000000000000000000000000000019eda4e
:177ebb0014100000000000000000000000000000000000000000008c
:207ed200000000000c30000000000000000000000000000000000000000000000000000054
:207ef200000000000000000000000000000000000a0000000000002800f041000000050008
:167f12001500000000000000000000000000000000000000000044
:207f28000000000000c3020000000000000000000000000000000000000000000000000074
:207f4800000000000000000000000000000000005810000000000006c08f0400000000fa5e
:177f68001430000000000000000000000000000000000000000000be
:207f7f00010000000c300000000000000000000000000000000000000000000000000000a5
:207f9f000000000000000000000000000000000000000000000000000d96400000000b8054
:167fbf001500000000000000000000000000000000000000000097
:207fd5000010000000c3021000008000000000000000000000000000000000000000000027
:207ff5000000000000000000000000000000000000000000000000001e896c00000100d286
:17801500143000000000000000000000000000000000000000000010
:20802c00010000000c300000000000000000000000000000000000000000000000000000f7
:20804c000000000000000000000000000000000000000000000000000d96403000008580fc
:16806c0015000000000000000000000000000000000000000000e9
:208082000010000000c3020000000000000000000000000000000000000000000000000009
:2080a2000000000000000000000000000000000000000000004000001e896c03000019d27d
:1780c200143000000000000000000000000000000000000000000063
:2080d900010000000c3000000100082a800000000000000000000000000000000000000097
:2080f9000000000000000000000000000000000000000000080000000d96402000000b0051
:168119001504000000000000000000000000000000000000000037
:20812f000010000000c30200000005e2a800000000000000000000000000000000000000cc
