:02000000ff00ff
:080002004c6174746963650030
:17000a00694345637562653220323032302e31322e32373934330071
:15002100506172743a2069434534305550354b2d53473438002c
:1a003600446174653a20417072203520323032352032313a31373a303100b7
:0200500000ffaf
:040052007eaa997e6b
:02005600510057
:020058000105a0
:03005a00920020f1
:03005d006202b389
:03006000720150da
:0300630082000018
:02006600110087
:02006800010194
:20006a00000000000000000000000010000000000000400000000000010000000000000421
:20008a000000000000001000000000000040000000001000000000000040000000000001b5
:1600aa0000000000000004000000000000100000000000004000ec
:2000c0000000000000000000000000020000000000000800000000000020000000000000f6
:2000e00080000000000002000000000000080000000002000000000000080000000000006c
:1701000020000000000000800000000000020000000000000800003e
:200117000000000000000000000000000000000000000000000000000000000000000000c8
:200137000000000000000000000000000000000000000000000000000000000100000000a7
:160157000000000000000000000000000000000000000000000092
:20016d00000000000000000000000000000000000000000000000000000000000000000072
:20018d00000000000000000000000000000000000000000000000000000000000000000052
:1701ad0010000000000000000000000000000000000000000000002b
:2001c40000000000000000000000000000000000000000000000000000000000000000001b
:2001e4000000000000000000000000000000000000000000000000000000000000000000fb
:1602040000000000000000000000000000000000000000000000e4
:20021a000000000000000000000000000000000000000000000000000000000000000000c4
:20023a000000000000000000000000000000000000000000000000000000000000000000a4
:17025a0000000000000000000000000000000000000000000000008d
:2002710000000000000000000000000000000000000000000000000000000000000000006d
:20029100000000000000000000000d0000000000000000000000000000000000000004003c
:1602b1000000000000000000000000000000000000000000000037
:2002c700000000000000000000000000000000000000000000000000000000000000000017
:2002e7000000000000000000000000000000000000000000000000000000000000000400f3
:170307000000000000000000000000000000000000000000000000df
:20031e000000000000000000000000000000000000000000000000000000000000000000bf
:20033e000000000000401000000000000000000000401000000000010040000000000800b6
:16035e000000000000000000000000000000000000038000000006
:20037400000000000000000000000000000000000000000000000000000000000000000069
:20039400000000000000000000000000000000000000000000000000000000000000000049
:1703b400000000000000000000000000000000000000000000000032
:2003cb00000000000000000000000000000000000000000000000000000000000000000012
:2003eb00000010000000000000000000008000000000000000000000000000000000000062
:16040b00000000000000000000000000000000000000000040009b
:200421000000000000000000000000000000000000000000000000000000000000000000bb
:20044100000000000000000000000000000400000000000000000000000000000000000097
:1704610000000000000000000000000000000000000000000c000078
:20047800000000000000000000000000000000000000000000000000000000000000000064
:20049800000000000000000000000000000000000000000000000000000000000000000044
:1604b800000000000000000000000000000000000000000000002e
:2004ce0000000000000000000000000000000000000000000000000000000000000000000e
:2004ee000000010000000000000000000000010000000000000400010000000000000000e7
:17050e000000000000000000000000000000000000000000000000d6
:200525000000000000000000000000000000000000000000000000000000000000000000b6
:200545000000000000400000000000000000000000c0000000000001000000000000000095
:160565000000000000000000000000000000000000000000000080
:20057b00000000000000000000000000000000000000000000000000000000000000000060
:20059b00000000000000000000000000000000000000000000000000000000000000000040
:1705bb00000000000000040000000000000000000000000000000025
:2005d200000000000c302000000000000000000000000000000000000000000000000000ad
:2005f2000000000000000000000000000000000000000000000000000000000000000000e9
:1606120000000000000000000000000000000000000000000000d2
:200628000000000000c30000000000000000000000000000000000000000000000000000ef
:20064800000000000000000000000000000000000000000000000000000000000000000092
:1706680000000000000000000000000000000000000000000000007b
:20067f00000000000c302000000000000000000000000000000000000000000000000000ff
:20069f0000000000000000000000000000000000000000000000000000000000000000003b
:1606bf000000000000000000000000000000000000000000000025
:2006d5000000000000c3000000000000000000000000000000000000000000000000000042
:2006f5000000000000000000000000000000000000000000000000000000000000000000e5
:170715000000000000000000000000000000000000000000000000cd
:20072c00000000000c30200000000000000000000000000000000000000000000000000051
:20074c0000000000000000000000000000000000000000000000000000000000000000008d
:16076c000000000000000000000000000000000000000000000077
:200782000000000000c3000000000000000000000000000000000000000000000000000094
:2007a200000000000000000000000000000000000000000000000000000000000000000037
:1707c200000000000000000000000000000000000000000000000020
:2007d900000000000c302000000000000000000000000000000000000000000000000000a4
:2007f9000000000000000000000000000000000000000000000000000000000000000000e0
:1608190000000000000000000000000000000000000000000000c9
:20082f000000000000c30000000000000000000000000000000000000000000000000000e6
:20084f00000000000000000000000000000000000000000000000000000000000000000089
:17086f00000000000000000000000000000000000000000000000072
:20088600000000000c302000000000000000000000000000000000000000000000000000f6
:2008a600000000000000000000000000000000000000000000000000000000000000000032
:1608c600000000000000000000000000000000000000000000001c
:2008dc000000000000c3000000000000000000000000000000000000000000000000000039
:2008fc000000000000000000000000000000000000000000000000000000000000000000dc
:17091c00000000000000000000000000000000000080000000000044
:20093300000000000c30200000000000000000000000000000000000000000000000000048
:20095300000000000000000000000000000000000000000000000000000000000000000084
:16097300000000000000000000000000000000000000000000006e
:200989000000000000c300000000000000000000000000000000000000000000000000008b
:2009a90000000000000000000000000000000000000000000000000000000000000000002e
:1709c900000000000000000000000000000000000000000000000017
:2009e000000000000c3020000000000000000000000000000000000000000000000000009b
:200a00000000000000000000000000000000000000000000000000000000000000000000d6
:160a200000000000000000000000000000000000000000000000c0
:200a36000000000000c30000000000000000000000000000000000000000000000000000dd
:200a5600000000000000000000000000000000000000000000000000000000000000000080
:170a7600000000000000000000000000000000000000000000000069
:200a8d00000000000c302000000000000000000000000000000000000000000000000000ed
:200aad00000000000000000000000000000000000000000000000000000000000000000029
:160acd000000000000000000000000000000000000000000000013
:200ae3000000000000c3000000000000000000000000000000000000000000000000000030
:200b03000000000000000000000000000000000000000000000000000000000000000000d2
:170b23000000000000000000000000000000000000000000000000bb
:200b3a00000000000c3020000000000000000000000000000000000000000000000000003f
:200b5a0000000000000000000000000000000000000000000000000000000000000000007b
:160b7a000000000000000000000000000000000000000000000065
:200b90000000000000c3000000000000000000000000000000000000000000000000000082
:200bb000000000000000000000000000000000000000000000000000000000000000000025
:170bd00000000000000000000000000000000000000000000000000e
:200be700000000000c30200000000000000000000000000000000000000000000000000092
:200c07000000000000000000000000000000000000000000000000000000000000000000cd
:160c270000000000000000000000000000000000000000000000b7
:200c3d000000000000c30000000000000000000000000000000000000000000000000000d4
:200c5d00000000000000000000000000000000000000000000000000000000000000000077
:170c7d00000000000000000000000000000000000000000000000060
:200c9400000000000c302000000000000000000000000000000000000000000000000000e4
:200cb400000000000000000000000000000000000000000000000000000000000000000020
:160cd400000000000000000000000000000000000000000000000a
:200cea000000000000c3000000000000000000000000000000000000000000000000000027
:200d0a000000000000000000000000000000000000000000000000000000000000000000c9
:170d2a000000000000000000000000000000000000000000000000b2
:200d4100000000000c30200000000000000000000000000000000000000000000000000036
:200d610000000000000000000000000000000000000000000000000000000000050000006d
:160d8100000000000000000000000000000000000000000000005c
:200d97000000000000c3000000000000000000000000000000000000000000000000000079
:200db70000000000000000000000000000000000000000000000000000000000000000001c
:170dd700000000000000000000000000000000000000000000000005
:200dee00000000000c30200000000000000000000000000000000000000000000000000089
:200e0e000000000000000000000000000000000000000000000000000000000000000000c4
:160e2e0000000000000000000000000000000000000000000000ae
:200e44000000000000c30000000000000000000000000000000000000000000000000000cb
:200e640000000000000000000000000000000000000000000000000000000000000000006e
:170e8400000000000000000000000000000000000000000000000057
:200e9b00000000000c302000000000000000000000000000000000000000000000000000db
:200ebb00000000000000000000000000000000000000000000000000000000000000000017
:160edb000000000000000000000000000000000000000000000001
:200ef1000000000000c300000000000000000000000000000000000000000000000000001e
:200f11000000000000000000000000000000000000000000000000000000000000000000c0
:170f31000000000000000000000000000000000000000000000000a9
:200f4800000000000c3020000000000000000000000000000000000000000000000000002d
:200f6800000000000000000000000000000000000000000000000000000000000000000069
:160f88000000000000000000000000000000000000000000000053
:200f9e000000000000c3000000000000000000000000000000000000000000000000000070
:200fbe00000000000000000000000000000000000000000000000000000000000000000013
:170fde000000000000000000000000000000000000000000000000fc
:200ff500000000000c30200000000000000000000000000000000000000000000000000080
:201015000000000000000000000000000000000000000000000000000000000000000000bb
:1610350000000000000000000000000000000000000000000000a5
:20104b000000000000c30000000000000000000000000000000000000000000000000000c2
:20106b00000000000000000000000000000000000000000000000000000000000000000065
:17108b0000000000000000000000000000000000000000000000004e
:2010a200000000000c302000000000000000000000000000000000000000000000000000d2
:2010c20000000000000000000000000000000000000000000000000000000000000000000e
:1610e20000000000000000000000000000000000000000000000f8
:2010f8000000000000c3000000000000000000000000000000000000000000000000000015
:201118000000000000000000000000000000000000000000000000000000000000000000b7
:171138000000000000000000000000000000000000000000000000a0
:20114f00000000000c30200000000000000000000000000000000000000000000000000024
:20116f00000000000000000000000000000000000000000000000000000000000000000060
:16118f00000000000000000000000000000000000000000000004a
:2011a5000000000000c3000000000000000000000000000000000000000000000000000067
:2011c50000000000000000000000000000000000000000000000000000000000000000000a
:1711e5000000000000000000000000000000000000000000000000f3
:2011fc00000000000c30200000000000000000000000000000000000000000000000000077
:20121c000000000000000000000000000000000000000000000000000000000000000000b2
:16123c00000000000000000000000000000000000000000000009c
:201252000000000000c30000000000000000000000000000000000000000000000000000b9
:2012720000000000000000000000000000000000000000000000000000000000000000005c
:17129200000000000000000000000000000000000000000000000045
:2012a900000000000c302000000000000000000000000000000000000000000000000000c9
:2012c900000000000000000001000000000000000000000000000000000000000000000004
:1612e90000000000000000000000000000000000000000000000ef
:2012ff000000000000c300000000000000000000000000000000000000000000000000000c
:20131f0000000000000000000010000000000000000000000000000000000000000000009e
:17133f00000000000000000000000000000000000000000000000097
:20135600000000000c3020000000000000000000000000000000000000000000000000001b
:20137600000000000000000000000000000000000000000000000000000000000000000057
:161396000000000000000000000000000000000000000000000041
:2013ac000000000000c300000000000000000000000000000000000000000000000000005e
:2013cc00000000000000000000000000000000000000000000000000000000000000000001
:1713ec000000000000000000000000000000000000000000000000ea
:20140300000000000c3020000000000000000000000000000000000000000000000000006d
:201423000000000000000000000000000000000000000000000000000000000000000000a9
:161443000000000000000000000000000000000000000000000093
:201459000000000000c30000000000000000000000000000000000000000000000000000b0
:20147900000000000000000000000000000000000000000000000000000000000000000053
:1714990000000000000000000000000000000000000000000000003c
:2014b000000000000c302000000000000000000000000000000000000000000000000000c0
:2014d0000000000000000000000000000000000000000000000000000000000000000000fc
:1614f00000000000000000000000000000000000000000000000e6
:201506000000000000c3000000000000000000000000000000000000000000000000000002
:201526000000000000000000000000000000000000000000000000000000000000000000a5
:1715460000000000000000000000000000000000000000000000008e
:20155d00000000000c30200000000000000000000000000000000000000000000000000012
:20157d0000000000000000000000000000000040000000000000000000000000000000000e
:16159d000000000000000000000000000000000000000000000038
:2015b3000000000000c3000000000000000000000000000000000000000000000000000055
:2015d3000000000000000000000000000000000200000000000000000000000000000000f6
:1715f3000000000000000000000000000000000000000000000000e1
:20160a00000000000c30200000000000000000000000000000000000000000000000000064
:20162a000000000000000000000000000000000000000000000000000000000000000000a0
:16164a00000000000000000000000000000000000000000000008a
:201660000000000000c30000000000000000000000000000000000000000000000000000a7
:2016800000000000000000000000000000000000000000000000000000000000000000004a
:1716a000000000000000000000000000000000000000000000000033
:2016b700000000000c302000000000000000000000000000000000000000000000000000b7
:2016d7000000000000000000000000000000000000000000000000000000000000000000f3
:1616f70000000000000000000000000000000000000000000000dd
:20170d000000000000c30000000000000000000000000000000000000000000000000000f9
:20172d0000000000000000000000000000000000000000000000600000000000000000003c
:17174d00000000000000000000000000000000000000000000000085
:20176400000000000c30200000000000000000000000000000000000000000000000000009
:20178400000000000000000000000000000000000000000000000000000000000000000045
:1617a400000000000000000000000000000000000000000000002f
:2017ba000000000000c300000000000000000000000000000000000000000000000000004c
:2017da000000000000000000000000000000000000000000000000000000000000000000ef
:1717fa000000000000000000000000000000000000000000000000d8
:20181100000000000c3020000000000000000000000000000000000000000000000000005b
:20183100000000000000000000000000000000000000000000000000000000000000000097
:161851000000000000000000000000000000000000000000000081
:201867000000000000c300000000000000000000000000000000000000000000000000009e
:20188700000000000000000000000000000000000000000000000000000000000000000041
:1718a70000000000000000000000000000000000000000000000002a
:2018be00000000000c302000000000000000000000000000000000000000000000000000ae
:2018de000000000000000000000000000000000000000000000000000000000000000000ea
:1618fe0000000000000000000000000000000000000000000000d4
:201914000000000000c30000000000000000000000000000000000000000000000000000f0
:20193400000000000000000000000000000000000000000000000000000000000000000093
:1719540000000000000000000000000000000000000000000000007c
:20196b00000000000c30200000000000000000000000000000000000000000000000000000
:20198b0000000000000000000000000000000000000000000000000000000000000000003c
:1619ab000000000000000000000000000000000000000000000026
:2019c1000000000000c3000000000000000000000000000000000000000000000000000043
:2019e1000000000000000000000000000000000000000000000000000000000000000000e6
:171a01000000000000000000000000000000000000000000000000ce
:201a1800000000000c30200000000000000000000000000000000000000000000000000052
:201a380000000000000000000000000000000000000000000000000000000000000000008e
:161a58000000000000000000000000000000000000000000000078
:201a6e000000000000c3000000000000000000000000000000000000000000000000000095
:201a8e00000000000000000000000000000000000000000000000000000000000000000038
:171aae00000000000000000000000000000000000000000000000021
:201ac500000000000c302000000000000000000000000000000000000000000000000000a5
:201ae5000000000000000000000000000000000000000000000000000000000000000000e1
:161b050000000000000000000000000000000000000000000000ca
:201b1b000000000000c30000000000000000000000000000000000000000000000000000e7
:201b3b0000000000000000000000000000000000000000000000000000000000000000008a
:171b5b00000000000000000000000000000000000000000000000073
:201b7200000000000c302000000000000000000000000000000000000000000000000000f7
:201b9200000000000000000000000000000000000000000000000000000000000000000033
:161bb200000000000000000000000000000000000000000000001d
:201bc8000000000000c3080000000000000000000000000000000000000000000000000032
:201be8000000000000000000000000000000000000000000000000000000000000000000dd
:171c08000000000000000000000000000000000000000000000000c5
:201c1f00000000000c30200000000000000000000000000000000000000000000000000049
:201c3f00000000000000000000000000000000000000000000000000000000000000000085
:161c5f00000000000000000000000000000000000000000000006f
:201c75000000000000c3080000000000000004000000000000000000000000000000000080
:201c950000000000000000000000000000000000000000000000000000000000000000002f
:171cb500000000000000000000000000000000000000000000000018
:201ccc00000000000c3020000000000000000000000000000000000000000000000000009c
:201cec000000000000000000000000000000000000000000000000000000000000000000d8
:161d0c0000000000000000000000000000000000000000000000c1
:201d22000000000000c30800000000000000000000000000000000000000000000000000d6
:201d4200000000000000000000000000000000000000000000000000000000000000000081
:171d620000000000000000000000000000000000000000000000006a
:201d7900000000000c302000000000000000000000000000000000000000000000000000ee
:201d990000000000000000000000000000000000000000000000000000000000000000002a
:161db9000000000000000000000000000000000000000000000014
:201dcf000000000000c3080000000000000010000000000000000000000000000000000019
:201def000000000000000000000000000000000000000000000000000000000000000000d4
:171e0f000000000000000000000000000000000000000000000000bc
:201e2600000000000c3220000000000000000000000000000000000000000000000000003e
:201e460000000000000000000000000000000000000000000000000000000000000000007c
:161e66000000000000000000000000000000000000000000000066
:201e7c000000000000c300004000000000000000000000000004000000000000100000002f
:201e9c000000004000000000000000000000000000000000000100000000000004000000e1
:171ebc000000001000000000000040000000000000000000000000bf
:201ed300000000000c3028000000000000000000000000000000000000000000000000008b
:201ef3000000000000000000000000000000000000000000000000000000000000000000cf
:161f130000000000000000000000000000000000000000000000b8
:201f29000000000000c30000000000000000000000000000000000000000000000000000d5
:201f4900000000000000000000000000000000000000000000000000000000000000000078
:171f6900000000000000000000000000000000000000000000000061
:201f8000000000000c30a00000000000000000000000000000000000000000000000000065
:201fa000000000000000000000000000000000000000000000000000000000000000000021
:161fc000000000000000000000000000000000000000000000000b
:201fd6000000000000c3000000000000000000000000000000000000000000000000000028
:201ff6000000000000000000000000000000000000000000000000000000000000000000cb
:172016000000000000000000000000000000000000000000000000b3
:20202d00000000000c302004000000000000000000000000004000000000000100000000f2
:20204d0000000400000000000000000000000000000000000010000000000000400000001f
:16206d00000001000000000000000000000000000000000000005c
:202083000000000000c3080000000000000000000000000000000000000000000000000072
:2020a30000000000000000000000000000000000000000000000000000000000000000001d
:1720c3000000000000000000000040000000000000000000000000c6
:2020da00010002048c30200000000000000000000000000000000000000000000000000003
:2020fa000000000000000000000000000000000000000000000000000000000000000000c6
:16211a0000000000000000000000000000000000000000000000af
:202130000010004170c3080000000000000000000000000000000000000000000000000003
:2021500000000000000000000000000000000000000000000000000000000000000000006f
:17217000000000000000000000000000000000000000000000000058
:2021870000000000ac302380000000000000000000000000000000000000000000000000b9
:2021a700000380000000000000000000000000000000000000000000000000000000000095
:1621c7000000e000000000000000000000000000016000000000c1
:2021dd000000000000c30820000000000000040000000000000000000000000000000000f3
:2021fd000000200000000000000000000000000000000000000000000000000000000000a2
:17221d00000008000000000000000000000000000009c000000000d9
:20223400000040008c3020000000000000000000000000000000000000000000000000006e
:20225400000000000000000000000000000000000000000000000000000000000200000068
:16227400000000020000af04080000000000000000000000000097
:20228a000000020010c3080000000000000000000000000000000000000000000000000057
:2022aa000000000000000000000000000000000000000000000000000000000000400000d4
:1722ca00000000003c0000f0000000000000000000000000000000d1
:2022e10001000000ac302000000000000000000000000000000000000000000000000000e0
:202301000000000000000000000000000000000000000000000000000000000000000000bc
:162321000000000000000000000000000000000080000000000026
:202337000000000000c30800000000000000100000000000000000000000000000000000ab
:20235700000000000000000000000000000000000000000000000000000000000000000066
:1723770000000000000000000000000000000000040000000000004b
:20238e00000000000c322000000000000000000000000000000000000000000000000000d1
:2023ae0000000000000000000000000000000000000000000000000000000000000000000f
:1623ce0000000000000000000000000000000000000000000000f9
:2023e4000000000000c3000000000000000000000000000000000000000000000000000016
:202404000000000000000000000000000000000000000000000000000000000000000000b8
:17242400000000000000000000000000000000000800000000000099
:20243b00021000000c302800001c00000000000000000000000000000000000000000000ef
:20245b00000000000000000000000000000000000000000000000000000000000000000061
:16247b0000000000000000000000000000000000000000180f081c
:202491000044800000c30000000100000000000000000000000000000000000000000000a3
:2024b10000000000000000000000000000000000000000000000000000000000000000000b
:1724d100000000000000000000003800000000000000000000f000cc
:2024e800000000000c30a0000000073c104000000000000000000000000000000000000065
:202508000000000000000000000000000000000000000000000000000000000000000000b3
:16252800000000000000000000000000000000000000000000009d
:20253e000000000000c3000000000043c12400000000000000000000000000000000000092
:20255e0000000000000000000000000000000000000000000000000000000000000000005d
:17257e00000000000000000000000000000000000000000000000046
:2025950008040000ac3021000000000000000000000000000000000000000000000000001d
:2025b500000000001a07bc10200000000000000000000000010000000000000000000000f8
:1625d50000000000000000000000000000000000000000000000f0
:2025eb000000000000c30040000000000000000000000000000000000000000000000000cd
:20260b0000000000010043c00000000000000000000000000010000000000000000000009b
:17262b00000000000000000000000000000000000000000000000098
:2026420000000037ac3020030000000000000000000000000000108feafd000000000000bc
:20266200000000000007bc1020000000000000000000000000000000000000000000000065
:16268200000000000000000000000000000000000400000000003e
:2026980000100000f0c31000000000000000000000000000000000981fa9f00000000000ff
:2026b80000000000000003c30000000000000000000000000000000000000000000000003c
:1726d8000000000000000000000000000000000000000000000000eb
:2026ef00000000478c30200000000000000000000000000038000000000000000000000070
:20270f0000038000000000000000000000000000000000000e000000000000000000000019
:16272f00000000000000000003800000000000000000000e0f00f4
:202745000000002430c300000000000000000020000000000200070900000000000000002b
:202765000000200000000000000000000000000000000000008000000000000000000000b4
:17278500000000000000000000003000000000000000000100f0100c
:20279c0000000017ac30200000000000000000000000000000000007ba80000000000000c9
:2027bc000000000000000000000000000000002000000000000020000000000000000000bd
:1627dc0000000000000000000000000000000000040000000000e3
:2027f2000000000030c30000000000000000000000000000000000000028000000000000ac
:202812000000000000000000000000000000000500000000000003c00000000000000000de
:1728320000000000000000000000000000000000000000000000008f
:20284900010000478c30200000000000000000000000000000000001a0680800000000003a
:2028690000000000000000000000000000000000000000000100000000000000000000004e
:162889000000000000000000000000000000000000000000000039
:20289f000000002430c30000000000000000000000000000000000089c000000000000005e
:2028bf000000000000000000000000000000000000000000001000000000000000000000e9
:1728df000000000e00000000000000000000000000000000000000d4
:2028f60000000017ac3020000000000000000000380000000000780930800802000000003c
:202916000000000000000000000000000000000000000000000000000000000000000000a1
:162936000000000000000000000000000000000004800000000007
:20294c000000000030c30000000000000000000000000000000000003000001040000000f8
:20296c0000000000000000000000000000000000000000000000000000000000000000004b
:17298c00000000000000000000000000000000000000000000000034
:2029a300001000078c302000000000000000000000000000000000a00000000000e00000a1
:2029c3000000000000000000000000000000000000000000000000000000000205000000ed
:1629e30000000000000000000000000000000000000000000000de
:2029f9000004840030c3000000000000000000000000000000000910000000000002000028
:202a19000000000000000000000000000000000000000000000000000000000013a00000ea
:172a3900000000000000000000000000000000000000000000000086
:202a500000000017ac302000000000000000000000de5a004000700beafd000000002fea60
:202a70000000000000000000000000000000000000000000000000000af04000000000000c
:162a90000000000000000000000000000783d2200200780000003a
:202aa6000000000030c300000000000000000000000305a0040009801fa9f800000003d055
:202ac600001000000000000000000000000000000000000000000000000f000400000000cd
:172ae60000000000000000000000000000403d00000000000000005c
:202afd00080400018c30200000000000000000000400000010000000000000000007400075
:202b1d0000010008000000000000000000000000000000000000000000000000000000008f
:162b3d000000000000000000010000010000000000000000000080
:202b53000000000010c300000000000000000000020000000000090b000000000000740005
:202b73000000000070000000000000000000000000000000000000000000000000000000d2
:172b93000000000000000000000000008000000000000000000000ab
:202baa00000000000c30200000007af09820400000eaf0a0001059ab36818000000000cfb9
:202bca00040000000007bc1000000000000000000000000000000000000000000000000014
:162bea0000000000000000000000000006bc18200000040a0f00be
:202c00004010000000c300001800c9bf9501000002c0c0f000000500bb1810000000000011
:202c2000f0400000000003c1000000000000000000000000000000000000000000000000a0
:172c40000000000000000000000000000043c100080003c100f000bd
:202c5700000000000c30238000000000000000142868f08038305801029500e002003dc82b
:202c7700040380000000000000000000000000000000000000014000000000000000000075
:162c9700000000000000000003800000000000000060001c0f0019
:202cad000000000000c300200000000000000002664200f002000000002972080014015e72
:202ccd00c240200000000000000000000000000000000000000008000000000000000000bd
:172ced0000000000000000000000000000000000000bc30000f10011
:202d0400000000000c30200308000000000000000068f0800000001b2681800000068000a8
:202d240000000000000000000000000000000000000000000000000000000000000000008f
:162d4400000000000000000000000000000000000000380e0f0024
:202d5a000000000000c300000070000000000003c00000f00000000abf1810000000000082
:202d7a00000000000000000000000000000000000000000000000000000000000000000039
:172d9a0000000000000000000000000000000000000007c100f0105a
:202db100000000000c30200000000000000000000009968000000003f6010000020001ef9b
:202dd1000400000000000000000000000000000000000000000000000000000001000000dd
:162df1000000000400000000000000000000000000006000000068
:202e07000000000000c3000000700000000000034000a69000000000b6309000001c00105d
:202e2700f040400000c000000000000000000000000000000000000000000000002000003b
:172e4700000000008000000000000000a00000000000c20000000092
:202e5e00000000000c30200047000000000000000068f080000050cb2e81000000600000af
:202e7e00000000080006bc102000000000000000000000000000000000000000000000003a
:162e9e00000000000000000000000000000000004020737a800051
:202eb4000000000000c300000258000000000000c00200f000000090bf18100000000000b8
:202ed40000000000f00043c3000000000000000000000000000000000000000000000000e8
:172ef400000000000000000000020000000000000001c025b000002f
:202f0b00000000000c30200008003fe91000000e0048f08001000003f37d0000000040afe1
:202f2b000400002000033c10400000000000000000000000010000000000000000000000d2
:162f4b0000000000000000000000000000000000004002ce8002de
:202f61000000000000c300002850032a01800000200200f000080f09b631f8000000341012
:202f8100f0400005000003c100000000000000000000000000000000000000000000000037
:172fa10000000000000000000000300000000000001bc01c000000f2
:202fb800000000000c302000000000000000000001c8f080028000000000000003e00000ff
:202fd800000000000103bc1000000000000000000000000000000000000000000000000009
:162ff80000000000000000000000000000000000401603ec8001fd
:20300e000000000000c300000000000000000002c00000f00000000000000000003e0000ef
:20302e000000000000e043c30000000000000000000000000000000000000000000000009c
:17304e00000000000000000000000000000000000000024790000092
:20306500001400000c302100031c37efd40000000068f08010000000000000400007818f82
:20308500040100080000000000000000000000000000000000a0000000000002000000007c
:1630a500000000000000000001000000000000000000041a5a019b
:2030bb000000800000c300000008f32a9f000000000000f0000000000000000000004000be
:2030db00f0400000f0000000000000000000000000000000000000000000000010000000a5
:1730fb00000000000000000000000000000000000001c3bd0a5100e2
:20311200004000000c302000c0003800200000166009968000380007683e000001c01c850d
:203132000c0000019b7283e000000000000000000000000000000000000000000000000000
:16315200000000000000000000000780000000000200040a0f00c1
:203168000080000000c3000002000080000800000000f690400000000403c080000001402c
:20318800054a00005080303c0000000000000000000000000000000000000000000000009c
:1731a800000000000000000000000008000000000000028000f01086
:2031bf00000000000c3020080000723c201000206ec8d40000008005603e00e010001c85d0
:2031df000c80000d981a83e000000000000000000000000000000000000000000000000022
:1631ff00000000000000000000000f003e7dc000a034200000003c
:203215000000000000c30001280000003c0000014234c17000000b000003c00800000040b3
:203235000540000010a0a03c00000000000000000000000000000000000000000380000025
:173255000000000000000000000000f80137fc0004004400000000ee
:20326c00042000000c30200000000225a80000006ae9a60000001995783e000001c65485f6
:20328c000c00000d813a83e0000000000000000000000000000000000000000000000000eb
:1632ac000000000000000000000000001abdc0800e2000000000c7
:2032c2000000000000c300000000003da40000000007e9a0000000080803c0000000216064
:2032e2000548000050a0e43c0000000000000000000000000000000000000000000000006f
:17330200000000000000000000000000e743cc040003c000000000f7
:20331900000000000c30200000007a3c2000200400180f0000309805703e00000060548563
:203339000c8000081b1016a0000000000000000000000000000000000000000000000000ff
:163359000000000000000000000000000000000000007a005a008a
:20336f000000000000c30000000000003c040400026400f00000010e0c03c0000000206083
:20338f000540000050a9369400000000000000000000000000000000000000000300000013
:1733af0000000000000000000000000000000000000004240a508005
:2033c600000000000c302000050a723c2000001e02eee20000007005f03e000000001e8578
:2033e6000c00000f1876c3e00000000000000000000000000000000000000000000000007b
:1634060000000000000000000000000000000000001c02180f204b
:20341c000000000000c30000007000003c000003601ce8b0000000800403c0000000014082
:20343c00054800009800a03c000000000000000000000000000000000000000000000000af
:17345c00000000000000000000000000000000000000200500f00044
:20347300000000000c302000000e3225a00000142b7ef300000001f5f83e00000800168559
:203493000c00000199f856a000000000000000000000000000000000000000000500000080
:1634b300000000000000000000000008000000000000716f80019a
:2034c9000000000000c300000000003258050000029c80300000001e0003c0000100004021
:2034e9000548000031813294000000000000000000000000000000000000000000200000de
:173509000000000000000000000000f0000000000000040fd00000d8
:20352000002000000c302000039c7225a040003e02180f010000f807b03e000002601685a7
:203540000c0000080136c3e00000000000000000000000000000000000000000000000007d
:16356000000000000000000000000380000000000000787e800359
:203576000000000000c300000059a0b258000001c02500f0040001800803c00000040160e4
:203596000548000010c0743c00000000000000000000000000000000000000000000000048
:1735b600000000000000000000000000000000000000002500009049
:2035cd00000000000c30200003803225a000000e76eaf3000002f997b83e004002061e8534
:2035ed000c000001803ec3e000000000000000000000000000000000000000000000000050
:16360d000000000010000000000000000000000000400000000057
:203623000000000000c30000000800365801000167ffc300000047080803c0000004006085
:20364300054800000800643c0000000000000000000000000000000000000000030000006f
:17366300000000000000000000000000000000000008020000000046
:20367a00000000000c32200000007a3c2000000021c1668000000007683e000000603c8566
:20369a000c800008007a83e000000000000000000000000000000005c066c0000000002b89
:1636ba00c1000000000000000000000000000000000001d98b00d4
:2036d0000001400000c30000000000003c1000024000c6600003800e0403c1000000004089
:2036f0000544000010e0203c10000000000000000000000000000003c0f6641000000004e4
:173710003c1000000000000000000000000000000000000ee8b08030
:20372700000000000c32200000007800200000007de9968000000005203e00e00200068540
:2037470004838000001283e00000000000000000000000000e004400e896c038018010008d
:163767000000e0000000000000000000000000000094001a0f00af
:20377d000000000000c3000000000000000000000782a960000000000403c008000c30408c
:20379d000a4020380000b03c0000000000000000000000000080082002f96406002f0f0033
:1737bd00000008000000000000000000000000000004200000f08059
:2037d400042800000c302010000078002000000000c896800000980723c200000000000043
:2037f4000000000d80023c14000000000000000000000000000000016896c1000080100086
:163814000000000000000000000000000783c4000080001a0f00a7
:20382a000001400000c3010000000080000000000000d96000010b00083c0040000c000024
:20384a0000000000500003c1000000000000000000000000000003c002c96400000f0f003a
:17386a0000000000000000000004000000403c000014000100f000c2
:20388100000000000c302000000078002000203601e8968000000003a3ea200001400000ed
:2038a100000000500000000000000000000000000000000000800005e996d00000000000e3
:1638c10000000000000000000000000000000000489e000000000b
:2038d7000000000000c301000000008000000403e00099600000000e3802800000020000e3
:2038f7000000000200000000000000000000000000000000000403c3c0a9640000000f0009
:1739170000000000000000000000000000000000081022c00000009f
:20392e0004c800000c303000000070002000001e05e896800000700523c20000000014f131
:20394e00a60000018000000000000000000000000000000000002030c996c8000000002b90
:16396e00c100000000000a56000000000000000000a00000000082
:203984000021000000c3000020000000000000000382896000000500003c0000000001da95
:2039a400a5410000000000000000000000000000000000000000014402c964100000000099
:1739c4003c1000000003c05a40000000000000000002c00000000081
:2039db00040000000c303000000070002000a000316896800005001323c200000000000080
:2039fb000000020000000000000000000000000000000000000020004996c0000100006387
:163a1b00c10000000000000000010000000000000e00000c0f08a2
:203a310000a0000000c300000000000000000403c3c0f9600000200e003c000000002400a1
:203a510000000000000000000000000000000000000000000000014202f9650000000000b2
:173a71003c1000000000000000000000000000000000000000f00002
:203a8800144000000c302010850a70002000002000e9968000058187a3c2000002403efc32
:203aa8002410000000000000000000000000000000000000000004254896c1000000006b97
:163ac800c1000000020000000000000000000000040000180f00fa
:203ade000120000000c300400050a08000000001c3c299600000211c083c0000000626f90f
:203afe00da410000000000000000000000000000000000000000016300e9640000000004d8
:173b1e003c1000000000000000000000000000000000020000f00052
:203b3500000000000c3030400d9b70002000801c3ce996800000000723c200400010000079
:203b550000010008000000000000000000000000000000000400166de996c8100000006306
:163b7500c10040000000000000002000000000004094781e0f00a0
:203b8b004000000000c300040050a08000000000274299600000000e083c000000002400cb
:203bab0000000000d0000000000000000000000000000000000000028289650000000004b4
:173bcb003c1000000000000000000100900000000a10000100f000fb
:203be2000100001cec322000278078002000200001c8968000000003a3c20000020040e0a0
:203c0200f00000000c0000000000000000000000187ba800000016384896c000000000730c
:163c2200c1000000000000000000000007bc1800000001cc0f8094
:203c380000100002f0c300020400e000001004000000f96040000000083c010000042c504f
:203c58000f0100000000000000000000000000000100428000000027c2d964d00000000083
:173c78003c10000000000000000000000003c1000003c00000f02052
:203c8f0000000000cc322000001e78002000001601e9968000007005a3c200000000000051
:203caf0000000005010000000000000000000000000000000e0080004896d038000010006b
:163ccf000000e000000000000380000003bc100e000001e8f0c006
:203ce5000000000010c3000000010000000000002002e96000000d00003c00000000000037
:203d05000000000008e00000000000000000000000000000008010c002c9641200000d0018
:173d25000000080000000000002000000003c1408000000000f400e7
:203d3c0000a80000ec302000010078002000000000c8968000000001a3c2000801c00000dd
:203d5c00000000000e000000000000000000000000000000000004004896c0008080000097
:163d7c0000000000000000000000000000000000000000e8f0e079
:203d92000001400010c3090000000080000000000000d96000000000003c000040000000bf
:203db20000000000010000000000000000000000000000000000002000a96400000f0000b4
:173dd200000000000000000000000000000000000000000000f410d6
:203de90001000000cc302400050078002000001601e896800000d00023c020000000000014
:203e090000000000000000000000000000000008007b7dc000000c21c996c000000000632a
:163e2900c10000000380000000000000033c1000008000e8f0c0d8
:203e3f000000000010c3010000080080000000000000f96000000980003c000000000000e9
:203e5f0000000000000000000000000000000000900fb7fc4000000002d96500000000046d
:173e7f003c10000000000000000000000003c1400010000000f410c8
:203e960000c800000c302000038c023c0010001e05e896800000000000000000000721efd3
:203eb600500000000000000000000000000000000000000000001e01e896c8000000002b0c
:163ed600c1040000000000000008000000000000001c00e8f0c154
:203eec000001003800c3008000000003c00000000382d9600003000f00000000000040d097
:203f0c00fa000000000000000000000000000000500000000000004240c96400000000009c
:173f2c003c1000000000000000000050a00000000000000200f4004c
:203f4300000800000c3020000000f2154000000030c99680000001800000000000079e8fef
:203f6300702000000000000000000000000000001e000000000000206996c0000078000039
:163f8300000000080001af06000000000000000000142848f0c036
:203f99000001000000c300800000094154000000000289600000000e00000000002441f0d8
:203fb900ff000000000000000000000000000000000000000000000400e964000000800018
:173fd90000000000400010f040000000000000000001e70000f40471
:203ff000144800000c30200083883635000000207ce896800005000f6f3c020000e04dcf2c
:2040100070000000000000000000000000000000015a280000000069e996c00000000000f5
:164030000000000000000000000005800000000000a001e8f0c0bc
:204046000120003800c3008000010564ac000001c382d96000002f001372c200002431fa64
:20406600ff10000000000000000000000000000000a042802000000000b96400000000008c
:17408600000000000000000000000000000000000010400000f600dd
:20409d0000000000cc3030000d9b5bb9c020001c3d68968000000008303c000000074000a9
:2040bd0000000000009abdc000000000000000081a000000040020016996c01000000000b6
:1640dd00000040000000000001000000033c1404002e00e8f0c16e
:2040f3000000000010c300000050a177ec800003e740f96000000000b403c00000003000dc
:20411300000000000001e7fc0000000000000000500000000000014000e9640800000000c2
:174133000000008000000000000000b00043c1000000e00200f4006b
:20414a000000003eec302000000db638100000207fe8f009400051800000000000001fc55b
:20416a00a00400078156a00000000000000000001877bdc0000000316996d0000000000007
:16418a00000000000000000000000000f2955000001e6968f0c0a9
:2041a00000100003c0c300400000e1abc1800002424600f04000000000000000003c007aec
:2041c0005800000030f9ec000000000000000000010fbbfc4000000000896440000000003e
:1741e0000000000000000000000000000783c0200000200000f54009
:2041f7000001c39ccc3023800f8e0000000000200148a60a00000011f828000000000000c2
:20421700000000058fb620068000000000000101810000000e403e386996d000020000007f
:164237000000e00000000000038008000000000e002001c8f0c05f
:20424d000000020010c301200079e00000000002c3f509a00010000d381684002000000090
:20426d0000000000f8c70000200000000000000008900000009002640099640000000000c7
:17428d000000080000000000002000f0000000008001400000f5103c
:2042a4000401e70ecc3220101581b6381000002e040000000280800b680000000140000056
:2042c4000000000d1a0000000000000000000000009ebdc400000004c996c0000000000071
:1642e4000000000000000000000088000000000000000048f0c044
:2042fa0040a0004010c300008008b1ebc180000063400000001005009401440000020000b9
:20431a000000000079f000000000000000000000500f73fc00000003c0896500100000008b
:17433a00000000000000000000000010000000000000000200f50065
:2043510001000217ec322000001e1ab05800014064d8500000001800383c00000340000018
:204371000000000b0b000000000000000000280001772800000000006996c000000000008f
:16439100000000040000cf04000000000303c00000000068f0c859
:2043a7000000000020c300000001cb270d000008070d95800000000f9403c200005c00001e
:2043c70000000000f0e00000000000000000010000904280400000c000c964000000000086
:1743e70000000000000000f00140000000003c000003400000f5001a
:2043fe00000006cf8c302000001adaf098400016015bd10080005007f828000000000000f8
:20441e0000000808005e60000000000000000000007e6000000004706996c000000000009f
:16443e0000000001e0000000000000010016800000000048aa619d
:204454000000002800c30100000009ef950000024005b74000100f0034000000000000003e
:2044740000000000700724000000000000000000500f2400200000000089640000000000fd
:17449400000000000c000000000000b0bb029400000000000aa60450
:2044ab0000004016ac302400030092f3d040000000000000000000076968000000068000a5
:2044cb000000028000863d400000000000000025017fe000000e8c006896c8000000000067
:1644eb000000000000000a54000100010783c0000200000000000f
:204501000000000030c3000000080db32d00000040000000000000000016800001000000db
:2045210000000000000143e8000000000000000050a7b0000000000000b96400000000008a
:17454100000000000000c05a00400400d0403c0000000000000000b9
:204558000003400f8c30241000000000000000003bcaf301000178e12a54080001600000c7
:204578000000000100167dc000000000000000051a92a008804000004996c0000000000017
:1645980000000400000000000000000000000000001c00000000ed
:2045ae000000140010c300008000000000000000064ef0300000201070268040000000008c
:2045ce000000000000056bfc000000000000000050a38000000200000289650000000000fc
:1745ee00000000080000000000000000e000000000000000000000ce
:2046050000036700ac3031000000000000000000040000000000781000000000800036fae2
:20462500030000080016bdca800000000000000d9a000000044200006896c00002000000a0
:1646450000000000000000000110038c0703c004000000000000f1
:20465b000000140000c3000000000000000000000240000000000f0f00000000800023ca9b
:20467b0040000000100543fc600000000000000050000000000a000000d964000000000094
:17469b0000000000000000000012800900403c0000000000000000f1
:2046b200000000000c302000000072f098000000000000000000000000000000000020a5cd
:2046d200f000000000000000000000000000000780d7429800000001c896c000000003007e
:1646f2000200000066cca0f80000000130402000002001d8055007
:204708000010000000c301000000052b950000000000000000000000000000000e003cd0de
:20472800af00000000000000000000000000000000e3bc080000000000a964400050000b73
:174748004000000024280c0f0000000080a40000080040070fa00091
:20475f00000000000c302380000056b4180000000000000000000000000000000000148d98
:20477f00f02000000052bd40000000000003800d00d009101e0200016896c0380000072301
:16479f00c30000c1679ea0f803802000723c300e00002000000034
:2047b5000000000000c301200000076b69000001c00000000000000000000000804001d0d3
:2047d500ff000200000043d40000000000002000780bacf0008007c300e9640200000000d4
:1747f50003c000400000280f00228c0090003c018000040000000074
:20480c00000000000c302000030000000000000000000000000001a00000000001c040008b
:20482c00000000078e00000000000000000100000bf2c01000000c01c996c0000001952621
:16484c005b000003604e05a8000100183225b0000014000c0f0846
:204862000000000000c3000000f00000000000000000000000100000000000000002380039
:204882000000000001000000000080000000100001ff68102000000000b964100000080aae
:1748a200e5800000243a4da500000000002658010001400000f0009a
:2048b900000000000c302000079e00000000000000d85f000000000b2bf800000000000079
:2048d90000000000000000000000000000000005007f441800001c706896c00000189523c5
:1648f900c300000206de15a800438181523c30000200000000003e
:20490f000000000000c300000001000000000000000205f0000000003fbfc200000000000d
:20492f0000000000000000000000000000000080d80de0000000002402e96510000018087f
:17494f0003c00022142a4da50040000080803c0100040000000000bb
:20496600000000000c302000000000000000000000000000000000100000000200000000c3
:204986000000000000000000000000000000000000ba809000000001c996c0000000b7a3cd
:1649a600c3000003e7cda0f80040051e7a3c3000010e001e0f0064
:2049bc000000000000c30000000000000000000003c000000000000f000000000200000044
:2049dc000000000000000000000000000000000070e5f4008000004000f9650000001e0036
:1749fc0003c0000006602e0f0040000000003c010008200000f000a9
:204a1300000000000c302000000000000000000000000000000038000000000000000000ef
:204a33000000000000000000000000000000000d1c7b4414000000006896c000000005a301
:164a5300c30000c8426405a8001008005a3c301000000000000081
:204a69000000000000c30000000000000000000000000000000000800000000000040000e6
:204a890000000000000000000000000000000000b1eda0000000000000e964100000000072
:174aa90003c0000126604ba52000803000003c0000000000000000b0
:204ac000000000000c302000000000000000000000000000000080000000000014000000e6
:204ae0000000000000000000000000000000000840d6d01000000039c896e000001805a381
:164b0000c30010004007b0f8000001805a3c30000000000a0f007d
:204b16000002000000c3000002900000000000000000000000000f00000000000084000095
:204b36000000000a000000000000000000000000b00fb8002000004400f965000000000814
:174b560003c0000002003d0f0000000000803c010000024000f00048
:204b6d00000000000c3021000000000000000000000000000000000000000000800000004b
:204b8d00000040000000000000000000000100071c06081804040070c8f048b000f987a333
:164bad00c3000001e78fb0f8131088187a3c300c003e000a0f0004
:204bc3000000000000c300000000000000000000000000000000000000000000000000000f
:204be3000000000400000000000000000000000001012c40000000041c00f703000180089d
:174c030003c0000200381f0f0010801000803c01c002e00000f00080
:204c1a00000000000c302000000000000000000000000000000059e00000000000000000e5
:204c3a00000000000000000000000000000000001837f94020400004000000000000072344
:164c5a00c300000266cea0f800100000723c30000000001e0f0890
:204c70000000000000c30000000000000000000000000000000000900000000000000000d1
:204c900000000000000000000000000000000000900137f4000a00038000000000000000bb
:174cb00003c100000428280f0400000000003c140000000100f00081
:204cc700000000000c30200000000000000000000000000038000000303c040008000000c1
:204ce7000000000000000000000000000000000000df39c000002401d8fa1038000007236c
:164d0700c3001003634ea0f803800000723c3000002001eea00067
:204d1d000000000000c300000000000000000000000000000200000c3403c200014000006b
:204d3d0000000000000000000000000000000000900bf3ac40000160000fa00200000000ca
:174d5d0003c000000420280f0020007000003c010003c0010a000086
:204d7400000000000c302000000000000000000000000000100080c0000000000000000073
:204d9400000000000000000000000000000010000e326d4000000000000000000001952349
:164db400c3000003600c05a800000019523c30100000620a0f2088
:204dca000000000000c30000000000000000000000000000030007000000000000000000fc
:204dea0000000000000000000000000000000280000d77dc000000000000000000000808b7
:174e0a0003c0000014024da50000000080803c000041c00400f00095
:204e2100000000000c302000000000000000000000000000000030000000000000000000e5
:204e4100000000000000000000000000000000001c0600c8800e1600cea000000018152305
:164e6100c300040266ce05a800001181523c30000026000a5a00b7
:204e77004000000000c3000000000000000000000000000000000000000000000000000018
:204e9700000000000000000000000000000000000100000c00000000010a000000000808d3
:174eb70003c00020142a4da50000020080803c010001c0150a500062
:204ece0000e000000c30200000000000000000000000000000001811243d400000000000be
:204eee000000000000000000000000000000038f80fb9fc08000207000000000000007a37e
:164f0e00c3000001c64fb0f8001000007a3c30000100020a0f01f9
:204f24000002000000c300004000000000000000000000000004000ff642c000000000005d
:204f4400000000000000000000000000000002d0b80f83fc040101c6400000000400000025
:174f640003c000103c20080f0000400000003c010b00000c00f0006c
:204f7b00000000000c30200000000000000000000000000000000005b941000000000000bb
:204f9b000000000000000000000000000000002008830d0081002004da0a0000010005a30c
:164fbb00c3000008e3f615a8000000005a3c30100020001a5a0114
:204fd1000000000000c30000000000000000000000000000000000009429480000000000f8
:204ff1000000000000000000000a000000000004019b00e0000000c36e00000000000000e5
:1750110003c00001263849a50000000000003c00000040140a50008e
:20502800000000000c302000000000000000000000000000000011c12941000000000000d0
:20504800000000000000000000000000000000000000000000042e3beee30080009805a34a
:16506800c3000000005db0f8000009805a3c30008000396a0f00e9
:20507e000000000000c3000000000000000000000000000000000080f8168200000000003f
:20509e000000000000000000000000000000000070000000000002e42e9f70000001000856
:1750be0003c00000003c390f0000001000803c010000000000f200d5
:2050d500000000000c3020040000000000000000000000001040000739410000000000008a
:2050f500000000000000000000000000000004001a000000001000021c050830409187a317
:16511500c30001c0000db0fa010448187a3c3010101e04000000bc
:20512b000000000000c30000000000000000000000000000000000009429420000000000a2
:20514b0000000000000000000000000000000000b0900000000000038400a017020180083b
:17516b0003c00000803c1f0f0010001000803c000000034000000061
:2051820000000000000000000000000000000000000000000000000000000000000000000d
:2051a200000000000000000000000000000010510193d4000000142a4f0f404000000723de
:1651c200c3000002004ca0f800090000723c3000003e65e05a80ea
:2051d8000000000000000000000000000000000000000000000000000000000000000000b7
:2051f8000000000000000000000000000000000008fb3204200000042de0b000000000007d
:1752180003c100000420280f0401000000003c11000043ce8a500023
:20522f0000000000000000000000000000000000000000000000000000000000000000005f
:20524f0000000000000000000000000000038005013b94000e0020017f584138000007233e
:16526f00c300e000001ea0f803a80000723c3000003c3c4b0fa0d5
:20528500000000000000000000000000000000000000000000000000000000000000000009
:2052a5000000000000000000000000000000200000d1bd08208001403cb000020000000064
:1752c50003c0080000002c0f002100f000003c01400343c3d0f00075
:2052dc000000000000000000000000000000000000000000010000000000000000000000b1
:2052fc000000000000000000000000000001000018de00908c00006bdf004040100007217d
:16531c0055000003605ea0f80020000072155000009c77415a80a8
:20533200000000000000000000000000000000000000000000080000000000000000000053
:2053520000000000000000000000000000001000f00d8000204000000ee100000000000857
:17537200154000001428390f0000200000815401006006169a5000ef
:20538900000000000000000000000000000000000000000000000000000000000000000004
:2053a9000000000000000000010000000000000d1d3a940000001405e0244000001000007e
:1653c9000000000000008f000800000000000000200e75fa0f800b
:2053df000000000000000000000000000000000000000000000000000000000000000000ae
:2053ff000000000000000000000000000000000019d1e908200000029cf3c20000008000c0
:17541f0000000000002000f001800000000000000060278190f0005d
:2054360000000000000000000000000000000000000000000038000000000000000000001e
:20545600000000000000000000000000000038000096d40000000067c85040400200000093
:1654760000000000678000000000000000000000a01e28c15a80b8
:20548c00000000000000000000000000000000000000000000000000000000000000000000
:2054ac0000000000000000000000000000000240000b3a04200100079f05a0000c000000dd
:1754cc000000001601400000000040000000000000016414ca50009f
:2054e3000000000000000000000000000000000000000000000000000000000000000000a9
:20550300000000000000000000000000000004038072820080000601e02440004000000002
:165523000000008000200a561000000000000000002628e15a8059
:20553900000000000000000000000000000000000000000000000000000000000000000052
:205559000000000000000000000000000000000038a74000040003636cf3c2000000000088
:17557900000000000003405a000000040000000004204606ca5000f0
:205590000000000000000000000000000000000000000000000000000000000000000000fb
:2055b000000000000000000000000000000001898087008080000003dd0240000098100080
:1655d00000000400000000000008498100000000e01400d90f9083
:2055e6000000000000000000000000000000000000000000000000000000000000000000a5
:205606000000000000000000000000000000000010c50004200003421e8000080001080097
:17562600000000a00000000000000310800000000a00200280f0009e
:20563d0000000000000000000000000000000000000000000000000000000000000000004d
:20565d000000040000000000000000000001040300de009804103403ea10401040000000d6
:16567d0000000160078000000104000000000000001e03c15a806e
:205693000000000000000000000000000000000000000000000000000000000000000000f7
:2056b300000000000000000000000000000000000801f800000002400df0000b000000008c
:1756d30000000000006400000010180000000000000022e4ba520022
:2056ea000000000000000000000000000000000000000000000000000000000000000000a0
:20570a000000000000000000000000000000100180138148006414280cf50001020183bc2e
:16572a0020000001403d9e32000a000c00000000002c745a0f805c
:20574000000000000000000000000000000000000000000000000000000000000000000049
:205760000000000000000000000000000000008200004014240e0826340fa00008590bdaca
:17578000c00000000e03ddf700011800000000000060420080f04002
:205797000000000000000000000000000000000000000000000000000000000000000000f2
:2057b7000000000000000000000000000000002800b2b9c080000022f90000000078f93142
:1657d7000008e0000685e02203808980d7801000003c75ea0f802a
:2057ed0000000000000000000000000000000000000000000000000000000000000000009c
:20580d000000000000000000000000000000000470b383d40000034224b4000000008a94c2
:17582d0000000806006edb5209a008f40d0140000016c3c1c0f0007e
:20584400000000000000000050000000000000000000000000800000000000000000000074
:2058640000000000000000000000000000005121197bd0000000006bfef70a400081af6c08
:165884008000400143fc02462100059e93d40000001c70e05a8055
:20589a000010000000000000000000000000000000000000000000000000000000000000de
:2058ba000000000000000000000000000000028118e3240000000000250f32000025007e23
:1758da004d000c00027d403c003000010ff108200000041c9a500000
:2058f100000000000000000000000000000000000000000000000000000000000000000097
:205911000000000000000000000000000000000800d7004000003400002402000001b1fd4e
:165931000000000362c0000000400001828050800020747a0f808b
:20594700000000000000000000000000000000000000000000000000000000000000000040
:20596700000000000000000000000000000000001003e81c00000162dc01808000000f9b1f
:17598700928000003460000000000000ad0008000001c783d0f000a3
:20599e000000000000000000000000000000000000000000000000000000000000000000e9
:2059be000000000000000000000000000000038000bed40000055c005a0a10000278077be3
:1659de00dc08000007c0000000000500be7d4000000661e15a8066
:2059f400000000000000000000000000000000000000000000000000000000000000000093
:205a140000000000000000000000000000000200909b3a04a60004238000a00002578b3cfa
:175a34003fc00000007c000000000008bf22f40000000016ca5000d3
:205a4b0000000000000000000000000000000000000000000000000000000000000000003b
:205a6b00000000000000000000000000000000050f07140004000062c98100000070a7a382
:165a8b00dc880801e03faf5400000d800380c080003e7de05aa091
:205aa1000000000000000000000000000000000000000000000000000000000000000000e5
:205ac1000000000000000000000000000000000030af0280020003401f9a10000000905c6a
:175ae1003fc20040002358f10040007800000c0400006366fa500026
:205af80000000000000000000000000000000000000000000000000000000000000000008e
:205b1800000000000000000000000000000001000fd749000500000268f7324038801ff49a
:165b380080000008000fb340000007815fbd5080001c00f90f80b5
:205b4e00000000000000000000000000000000000000000000000000000000000000000037
:205b6e000000000000000000000000000000000050a1b4a0801010c0070f3090000f087a0b
:175b8e004d0000817c02ca3c080005088583f800000003c280f080e4
:205ba5000000000000000000000000000000000000000000000000000000000000000000e0
:205bc5000000000000000000000000000000028f00d3c20000009c037e20020000519ff873
:165be50090004000e386a08421000508d3009000001e7ae15a8069
:205bfb0000000000000000000000000000000000000000000000000000000000000000008a
:205c1b0000000000000000000000000000000000b0ef7400000015c3ac038008000f881b95
:175c3b000500000002436005200000d80d70280000000666ba52008e
:205c5200000000000000000000000000000000000000000000000000000000000000000032
:205c7200000000000000000000000000000010200eff3dc000001e01ca5f0000221985b51b
:165c9200010000026057d1000000000037d29000003e71c05a808f
:205ca8000000000000000000000000000000000000000000000000000000000000000000dc
:205cc80000000000000000000000000000000004f1036ffc000000228105f0000047005a20
:175ce800e040408004267a0000000000e5640004000046168a50405e
:205cff00000000000000000000000000000000000000000000000000000000000000000085
:205d1f0000000000000000000000000000000001009ea940000004605e5008b808001df1f4
:165d3f0008000000600fe02023a0081b3a841200002e00e05a8039
:205d550000000000000000000000000000000000000000000000000000000000000000002e
:205d75000000000000000000000000000000000008b58280000003c2c305000200000ef6bc
:175d9500280000000200000200210050a3ac90004003e026ca500018
:205dac000000000000000000000000000000000000000000000000000000000000000000d7
:205dcc00000000000000000000000000000011081ebbbd4080640001fc0802300018096b21
:165dec00dc080013401fc0f00100058f37901200800e38f90fa0bf
:205e020000000000000000000000000000000000000000000000000000000000020000007e
:205e220000000000000000000000000000000000100b03c8000000024000800300008078bd
:175e42003fc000000401e84f00100001a57d08000000240280f0003d
:205e5900000000000000000000000000000000000000000000000000000000000000000029
:205e7900000000000000000000000000000000050a133d400000002af8f5000000d9b36c5b
:165e990090000006604fe0100000059c5710120000406808f008fc
:205eaf000000000000000000000000000000000000000000000000000000000000000000d3
:205ecf0000000000000000000000000000000000d90943fc00000006850500000001099365
:175eef00ca0000009c216c0000000001037e0400000804000f0010f8
:205f060000000000000000000000000000000000000000000000000000000000001000006b
:205f2600000000000000000000000000000000000cb2bdc0840e00065c4000003858eb6809
:165f4600d000000467858c702000018e37d010400006065eaa006f
:205f5c008000000000000000000000000000000000000000000000000000000000000000a5
:205f7c000000000000000000000000000000020071cf83fc000001c245d00000000f105af3
:175f9c0008000000820000c700000009006900000000031d0a5000b1
:205fb3000000000000000000000000000000000000000000000000000000000000000000ce
:205fd300000000000000000000000000000000019d36fdc0000026601a0c1b00001809ec49
:165ff30008000001479fa500000000015e7dd000000026cafa006e
:20600900000000000000000000000000000000000000000000000000000000000000000077
:206029000000000000000000000000000000000031cf63fc000000e40100c28000000ffbc7
:1760490028400001642bed420000001093bfe8200000073f05000064
:20606000000000000000000000000000000000000000000000000000000000000000000020
:206080000000000000000000000000000000000800db8200800014001e0a0000000085b5a5
:1660a00001000000605da0500000001efe3d50400000040000004f
:2060b6000000000000000000000000000000000000000000000000000000000000000000ca
:2060d60000000000000000000000000000000001b0e50000000007600d0050000040105ba5
:1760f600e04040000638000500800000f3ebc80000c003c000000047
:20610d00000000000000000000000000000000000000000000000000000000000000000072
:20612d00000000000000000000000000000000000e0000000000a627ef20001000199000af
:16614d00000000006395ea50010000097abe8800001e065afa00c8
:2061630000000000000000000000000000000000000000000000000000000000000000001c
:2061830000000000000000000000000000000000900000000000024364b381000000190076
:1761a30000000000026d4ca7000400009bc14000000023bf050000fc
:2061ba000000000000000000000000000000000000000000000000000000000000000000c5
:2061da0000000000000000000000000000000000007019b800003602ed80000000000b2c88
:1661fa00d00000000727ba500800070000000000002001e10080f6
:2062100000000000000000000000000000000000000000000000000000000000000000006e
:20623000000000000000000000000000000000000000b1990000a0402ee00000000d007a8f
:17625000880200000000e8ad008000000000000000c3c000d0000045
:20626700000000000000000000000000000000000000000000000000000000000000000017
:2062870000000000000000000000000000038000007225b000000403ca8002000059a92bad
:1662a700dc20e0000200000000001001ff014000000028400080ca
:2062bd000000000000000000000000000000000000000000000000000000000000000000c1
:2062dd00000000000000000000000000000020000000b259000001c2b70000840001005324
:1762fd00bfc008003400000000000200e382bc2100000000d00000bb
:20631400000000000000000000000000000000000000000000000000000000000000000069
:2063340000000000000000000000000000010000007a25b0100c066e7e80020000d0000099
:1663540000000000070000000000001872a808000000054100802c
:20636a00000000000000000000000000000000000000000000000000000000000000000013
:20638a00000000000000000000000000000020000090365900000002a5000000000180008c
:1763aa00000000000000000000000001b0c2800000400242d0000095
:2063c1000000000000000000000000000000000000000000000000000000000000000000bc
:2063e10000000000000000000000000000000000007a25b0000020060e02021000b810003d
:16640100000000020006aa00000001801aa80010015401c10080e9
:20641700000000000000000000000000000000000000000000000000000000000000000065
:206437000000000000000000000000000000000000003659a00001c29c001080000508001a
:1764570000000000040010a00800000000c28000000803c0e0000085
:20646e0000000000000000000000000000000000000000000000000000000000000000000e
:20648e00000000000000000000000000000000050a7a65b014001c204af500000081e9fa5d
:1664ae00940000d00025b4040023878e0303c00000007c6100803c
:2064c4000000000000000000000000000000000000000000000000000000000000000000b8
:2064e4000000000000000000000000000000002050a0b25900000004010f5080000f001872
:176504001400000080006c8a0005200800403c0210000782d00000e2
:20651b00000000000000000000000000000000000000000000000000000000000000000060
:20653b0000000000000000000000000000000005007a65b00000002a6e40080001000fb309
:16655b008c080000062f9c30180203803e940000a00001610080a4
:2065710000000000000000000000000000000000000000000000000000000000000000000a
:20659100000000000000000000000000000000005000b25901000006d4d5a080000000d0ef
:1765b1003ec000001c0149cf000000b8d3a2040004000240e0000049
:2065c8000000000000000000000000000000000000000000000000000000000000000000b3
:2065e800000000000000000000000000000000278a7a25b02000162defbd000000800060a4
:166608000c0840000021aa0000000001078fc080001c0161008088
:20661e0000000000000000000000000000000000000000000000000000000000000000005c
:20663e000000000000000000000000000000000000a0ba5920000006459fd200000f00009e
:17665e0000c820000000c05000000000e000fc0000a02002d00000bf
:20667500000000000000000000000000000000000000000000000000000000000000000005
:20669500000000000000000000000000000100050a7a25b0200034046af702010098000032
:1666b500000040000026aa5528000b0c0783c200000000c100809e
:2066cb000000000000000000000000000000000000000000000000000000000000000000af
:2066eb000000000000000000000000000000000050a0ae5900000262400f700008098000e4
:17670b000000000a0002d0460000387800003c0000024002e0000045
