:02000000ff00ff
:080002004c6174746963650030
:17000a00694345637562653220323032302e31322e32373934330071
:15002100506172743a2069434534305550354b2d53473438002c
:1a003600446174653a204d6172203220323032352032333a35313a333100ba
:0200500000ffaf
:040052007eaa997e6b
:02005600510057
:020058000105a0
:03005a00920020f1
:03005d006202b389
:03006000720150da
:0300630082000018
:02006600110087
:02006800010194
:20006a00000000000000000000000010000000000000400000000000010000000000000421
:20008a000000000000001000000000000040000000001000000000000040000000000001b5
:1600aa0000000000000004000000000000100000000000004000ec
:2000c0000000000000000000000000020000000000000800000000000020000000000000f6
:2000e00080000000000002000000000000080000000002000000000000080000000000006c
:1701000020000000000000800000000000020000000000000800003e
:200117000000000000000000000000000000000000000000000000000000000000000000c8
:200137000000000000000000000000000000000000000000000000000000000100000000a7
:160157000000000000000000000000000000000000000000000092
:20016d00000000000000000000000000000000000000000000000000000000000000000072
:20018d00000000000000000000000000000000000000000000000000000000000000000052
:1701ad0010000000000000000000000000000000000000000000002b
:2001c40000000000000000000000000000000000000000000000000000000000000000001b
:2001e4000000000000000000000000000000000000000000000000000000000000000000fb
:1602040000000000000000000000000000000000000000000000e4
:20021a000000000000000000000000000000000000000000000000000000000000000000c4
:20023a000000000000000000000000000000000000000000000000000000000000000000a4
:17025a0000000000000000000000000000000000000000000000008d
:2002710000000000000000000000000000000000000000000000000000000000000000006d
:20029100000000000000000000000d0000000000000000000000000000000001000004003b
:1602b1000000000000000000000000000000000000000000000037
:2002c700000000000000000000000000000000000000000000000000000000000000000017
:2002e7000000000000000000000000000000000000000000000000000000000000000000f7
:170307000000000000000000000000000000000000000000000000df
:20031e000000000000000000000000000000000000000000000000000000000000000000bf
:20033e000000000000401000000000000000000000401000000000010040000000000800b6
:16035e000000000000000000000000000000000000000000000089
:20037400000000000000000000000000000000000000000000000000000000000000000069
:20039400000000000000000000000000000000000000000000000000000000000000000049
:1703b400000000000000000000000000000000000000000000000032
:2003cb00000000000000000000000000000000000000000000000000000000000000000012
:2003eb00000000000000000000000000008000000000000000000000000000000000000072
:16040b0000000000000000000000000000000000000000000000db
:200421000000000000000000000000000000000000000000000000000000000000000000bb
:20044100000000000000000000000000000400000000000000000000000000000000000097
:1704610000000000000000000000000000000000000000000c000078
:20047800000000000000000000000000000000000000000000000000000000000000000064
:200498000000000000000000000000000000100000000000004000000000000000000000f4
:1604b80000000000000000000000000000000000000380000000ab
:2004ce0000000000000000000000000000000000000000000000000000000000000000000e
:2004ee00000001000040000000000000000001000010000000040000000000000000000098
:17050e000000000000000000000000000000000000000000000000d6
:200525000000000000000000000000000000000000000000000000000000000000000000b6
:20054500000000000040000000000000000000000040000000000001000000000000000015
:16056500000000000000000000000000010000000000000000007f
:20057b00000000000000000000000000000000000000000000000000000000000000000060
:20059b00000000000000000000000000000000000000000000000000000000000000000040
:1705bb00000000000000040000000000000000000000000000000025
:2005d200000000000c302000000000000000000000000000000000000000000000000000ad
:2005f2000000000000000000000000000000000000000000000000000000000000000000e9
:1606120000000000000000000000000000000000000000000000d2
:200628000000000000c30000000000000000000000000000000000000000000000000000ef
:20064800000000000000000000000000000000000000000000000000000000000000000092
:1706680000000000000000000000000000000000000000000000007b
:20067f00000000000c302000000000000000000000000000000000000000000000000000ff
:20069f0000000000000000000000000000000000000000000000000000000000000000003b
:1606bf000000000000000000000000000000000000000000000025
:2006d5000000000000c3000000000000000000000000000000000000000000000000000042
:2006f5000000000000000000000000000000000000000000000000000000000000000000e5
:170715000000000000000000000000000000000000000000000000cd
:20072c00000000000c30200000000000000000000000000000000000000000000000000051
:20074c0000000000000000000000000000000000000000000000000000000000000000008d
:16076c0000000000000000000000000000000000800000000000f7
:200782000000000000c3000000000000000000000000000000000000000000000000000094
:2007a200000000000000000000000000000000000000000000000000000000000000000037
:1707c200000000000000000000000000000000000000000000000020
:2007d900000000000c302000000000000000000000000000000000000000000000000000a4
:2007f9000000000000000000000000000000000000000000000000000000000000000000e0
:1608190000000000000000000000000000000000000000000000c9
:20082f000000000000c30000000000000000000000000000000000000000000000000000e6
:20084f00000000000000000000000000000000000000000000000000000000000000000089
:17086f00000000000000000000000000000000000000000000000072
:20088600000000000c302000000000000000000000000000000000000000000000000000f6
:2008a600000000000000000000000000000000000000000000000000000000000000000032
:1608c600000000000000000000000000000000000000000000001c
:2008dc000000000000c3000000000000000000000000000000000000000000000000000039
:2008fc000000000000000000000000000000000000000000000000000000000000000000dc
:17091c000000000000000000000000000000000000000000000000c4
:20093300000000000c30200000000000000000000000000000000000000000000000000048
:20095300000000000000000000000000000000000000000000000000000000000000000084
:16097300000000000000000000000000000000000000000000006e
:200989000000000000c300000000000000000000000000000000000000000000000000008b
:2009a90000000000000000000000000000000000000000000000000000000000000000002e
:1709c900000000000000000000000000000000000000000000000017
:2009e000000000000c3020000000000000000000000000000000000000000000000000009b
:200a00000000000000000000000000000000000000000000000000000000000000000000d6
:160a200000000000000000000000000000000000000000000000c0
:200a36000000000000c30000000000000000000000000000000000000000000000000000dd
:200a5600000000000000000000000000000000000000000000000000000000000000000080
:170a7600000000000000000000000000000000000000000000000069
:200a8d00000000000c302000000000000000000000000000000000000000000000000000ed
:200aad00000000000000000000000000000000000000000000000000000000000000000029
:160acd000000000000000000000000000000000000000000000013
:200ae3000000000000c3000000000000000000000000000000000000000000000000000030
:200b03000000000000000000000000000000000000000000000000000000000000000000d2
:170b23000000000000000000000000000000000000000000000000bb
:200b3a00000000000c3020000000000000000000000000000000000000000000000000003f
:200b5a0000000000000000000000000000000000000000000000000000000000000000007b
:160b7a000000000000000000000000000000000000000000000065
:200b90000000000000c3000000000000000000000000000000000000000000000000000082
:200bb000000000000000000000000000000000000000000000000000000000000000000025
:170bd00000000000000000000000000000000000000000000000000e
:200be700000000000c30200000000000000000000000000000000000000000000000000092
:200c07000000000000000000000000000000000000000000000000000000000000000000cd
:160c270000000000000000000000000000000000000000000000b7
:200c3d000000000000c30000000000000000000000000000000000000000000000000000d4
:200c5d00000000000000000000000000000000000000000000000000000000000000000077
:170c7d00000000000000000000000000000000000000000000000060
:200c9400000000000c302000000000000000000000000000000000000000000000000000e4
:200cb400000000000000000000000000000000000000000000000000000000000000000020
:160cd400000000000000000000000000000000000000000000000a
:200cea000000000000c3000000000000000000000000000000000000000000000000000027
:200d0a000000000000000000000000000000000000000000000000000000000000000000c9
:170d2a000000000001000000000000000000000000000000000000b1
:200d4100000000000c30200000000000000000000000000000000000000000000000000036
:200d6100000000000000000000000000000000000000000000000000000000000000000072
:160d8100000000000000000000000000000000000000000000005c
:200d97000000000000c3000000000000000000000000000000000000000000000000000079
:200db70000000000000000000000000000000000000000000000000000000000000000001c
:170dd700000000000000000000000000000000000000000000000005
:200dee00000000000c30200000000000000000000000000000000000000000000000000089
:200e0e000000000000000000000000000000000000000000000000000000000000000000c4
:160e2e0000000000000000000000000000000000000000000000ae
:200e44000000000000c30000000000000000000000000000000000000000000000000000cb
:200e640000000000000000000000000000000000000000000000000000000000000000006e
:170e8400000000000000000000000000000000000000000000000057
:200e9b00000000000c302000000000000000000000000000000000000000000000000000db
:200ebb00000000000000000000000000000000000000000000000000000000000000000017
:160edb000000000000000000000000000000000000000000000001
:200ef1000000000000c300000000000000000000000000000000000000000000000000001e
:200f11000000000000000000000000000000000000000000000000000000000000000000c0
:170f31000000000000000000000000000000000000000000000000a9
:200f4800000000000c3020000000000000000000000000000000000000000000000000002d
:200f6800000000000000000000000000000000000000000000000000000000000000000069
:160f88000000000000000000000000000000000000000000000053
:200f9e000000000000c3000000000000000000000000000000000000000000000000000070
:200fbe00000000000000000000000000000000000000000000000000000000000000000013
:170fde000000000000000000000000000000000000000000000000fc
:200ff500000000000c30200000000000000000000000000000000000000000000000000080
:201015000000000000000000000000000000000000000000000000000000000000000000bb
:1610350000000000000000000000000000000000000000000000a5
:20104b000000000000c30000000000000000000000000000000000000000000000000000c2
:20106b00000000000000000000000000000000000000000000000000000000000000000065
:17108b0000000000000000000000000000000000000000000000004e
:2010a200000000000c302000000000000000000000000000000000000000000000000000d2
:2010c20000000000000000000000000000000000000000000000000000000000000000000e
:1610e20000000000000000000003000000000000000000000000f5
:2010f8000000000000c3000000000000000000000000000000000000000000000000000015
:201118000000000000000000000000000000000000000000000000000000000000000000b7
:171138000000000000000000000000000000000000000000000000a0
:20114f00000000000c30200000000000000000000000000000000000000000000000000024
:20116f0000000000000000000000000000000000000000000e00000200a541380000000032
:16118f00000000000000000000000000000000000034020ea00066
:2011a5000000000000c3000000000000000000000000000000000000000000000000000067
:2011c5000000000000000000000000000000000000000000008000001c05a00200000000c7
:1711e500000000001c00000000000000000000000001e005050010dc
:2011fc00000000000c30200000000000000000000000000000000000000000000000000077
:20121c00000000000000000000000000000000000000000000000000000000140000e000be
:16123c00000000000000000000000000000000000000000000009c
:201252000000000000c30000000000000000000000000000000000000000000000000000b9
:20127200000000000000000000000000000000000000000000000000000000030000000059
:17129200000000000000000000000000000000000000000000000045
:2012a900000000000c302000000000000000000000000000000000000000000000000000c9
:2012c9000000000000000000010000000000000000000000000000000000000000100000f4
:1612e90000000000000000000000000000000000000003d9e5002e
:2012ff000000000000c300000000000000000000000000000000000000000000000000000c
:20131f0000000000000000000010000000000000000000000000000000000000000000009e
:17133f000000000000000000000000000000000000000006fc000095
:20135600000000000c3020000000000000000000000000000000000000000000000000001b
:20137600000000000000000000000000000000000000000000000000000000000000000057
:161396000000000000000000000000000000000000000000000041
:2013ac000000000000c300000000000000000000000000000000000000000000000000005e
:2013cc00000000000000000000000000000000000000000000000000000000000000000001
:1713ec000000000000000000000000000000000000000000000000ea
:20140300000000000c3020000000000000000000000000000000000000000000000000006d
:201423000000000000000000000000000000000000000000000000000000000000580dba8a
:1614430095040000606f8a50000000000000000000000000000051
:201459000000000000c30000000000000000000000000000000000000000000000000000b0
:2014790000000000000000000000000000000000000000000000000000000000000000341f
:171499002a900000002ce0aa0040000000000000000000000000008c
:2014b000000000000c302000000000000000000000000000000000000000000000000000c0
:2014d000000000000000000000000000000000000000000000000000000000000000c0003c
:1614f00000000000000000000000000000000000000030000000b6
:201506000000000000c3000000000000000000000000000000000000000000000000000002
:20152600000000000000000000000000000000000000000000000000000000000000100095
:1715460000000000000000000000000000000000000004000000008a
:20155d00000000000c30200000000000000000000000000000000000000000000000000012
:20157d0000000000000000000000000000000000000000000000200000000010000000001e
:16159d000000000000000000000000000000000000000000000038
:2015b3000000000000c3000000000000000000000000000000000000000000000000000055
:2015d3000000000000000000000000000000000000000000000003400000000000000000b5
:1715f30000000000000000000000000000000000000003800000005e
:20160a00000000000c30200000000000000000000000000000000000000000000000000064
:20162a0000000000000000000000000000000000000000000000000000000000000003e2bb
:16164a0095000000000000000000000000000000001428000000b9
:201660000000000000c30000000000000000000000000000000000000000000000000000a7
:201680000000000000000000000000000000000000000000000000000000000000000b94ab
:1716a0002a9000000000000000000000000000000000000000000079
:2016b700000000000c302000000000000000000000000000000000000000000000000000b7
:2016d700000000000000000000000000000000000000000000000600000000380001e000d4
:1616f7000000e00000000000000000000000000e001600000000d9
:20170d000000000000c30000000000000000000000000000000000000000000000000000f9
:20172d0000000000000000000000000000000000000000000000002000000002000010006a
:17174d000000080000000000000000000000000080000000000000fd
:20176400000000000c30200000000000000000000000000000000000000000000000000009
:20178400000000000000000000000000000000000000000000000000000000110000e00054
:1617a40000004a00073cea54000000000000000000000000000064
:2017ba000000000000c300000000000000000000000000000000000000000000000000004c
:2017da000000000000000000000000000000000000000000000000000000000300001000dc
:1717fa0000000c000003d0aa4100000000000000000000000000000e
:20181100000000000c3020000000000000000000000000000000000000000000000000005b
:20183100000000000000000000000000000000000000000000000000000000000000000097
:1618510000000000000000000000000000000000000600dea740b6
:201867000000000000c300000000000000000000000000000000000000000000000000009e
:20188700000000000000000000000000000000000000000000000000000000000000000041
:1718a7000000000000000000000000000000000000000025d5a40488
:2018be00000000000c302000000000000000000000000000000000000000000000000000ae
:2018de000000000000000000000000000000000000000000000000026ff80100a8000000d8
:1618fe000000000000000000000000000000000000006400000070
:201914000000000000c30000000000000000000000000000000000000000000000000000f0
:201934000000000000000000000000000000000000000000000000001cdb50001400000038
:171954000000001000000000000000000000000001014340000000e7
:20196b00000000000c30200000000000000000000000000000000000000000000000000000
:20198b00000000000000000000000000000000000000000000000004000000000010000028
:1619ab0000000000000000000000000e87a80000000004dab54016
:2019c1000000000000c3000000000000000000000000000000000000000000000000000043
:2019e100000000000000000000000000000000000000000000000003400000000000800023
:171a01000000000000000000000000010b0140000000023ee304005a
:201a1800000000000c30200000000000000000000000000000000000000000000000000052
:201a380000000020000000000000000000000000000000000002200000000000000000004c
:161a580000000a0200400000000000000000000000000659f2409b
:201a6e000000000000c3000000000000000000000000000000000000000000000000000095
:201a8e000000000500000000000000000000000000000000000001400000000000000000f2
:171aae00000000002c38000000000000000000000002c3fcdf040415
:201ac500000000000c302000000000000000000000000000000000000000000000000000a5
:201ae500000000000000000000000000000000000000000001100e00000000104000000072
:161b050000004100070000000000058000000004100020000000c9
:201b1b000000000000c30000000000000000000000000000000000000000000000000000e7
:201b3b0000000000000000000000000000000000000000000000002000000000000000006a
:171b5b0000000000004000000000000800000000000000000000002b
:201b7200000000000c302800000000000000000000000000000000000000000000000000ef
:201b920000000000000000000000000000000000000000000000000061008000000083a926
:161bb20048020000000000000000001e0000000000003400000081
:201bc8000000000000c300000000000000000000000000000000000000000000000000003a
:201be8000000000000000000000000000000000000000000000000000290000000091e7aaa
:171c0800780000000000000000000001000000000000034000000009
:201c1f00000000000c30200000000000000000000000000000000000000000000000000049
:201c3f0000000000000000000000000000000000000000000e00007bc850c08000000000a4
:161c5f000000e00000000000038000000000000e000000000000fe
:201c75000000000000c3100000000000000004080000000000000000000000000000000070
:201c95000000000000000000000000000000000000000000008000067c00540000000000d9
:171cb500000008000000000000200000000000008000000000000070
:201ccc00000000000c3220000000000000000000000000000000000000000000000000009a
:201cec000000000000000000000000000000400000000000000000674912c08000000f2265
:161d0c008000c000000000000100000e13a9500000006000000006
:201d22000000000000c30000000000000000000000000000000000000000000000000000de
:201d42000000000000000000000000000000040000000000000000022ee844000005003ce0
:171d62003d40040000000000002000000dc2a900040002400000000b
:201d7900000000000c322000000000000000000000000000000000000000000000000000ec
:201d99000000000000000000000000000000000000000000000006074850c00000000000c5
:161db9000000000160000000000000000000000000006148f040da
:201dcf008000000000c3000000000000000010000000000000008000000000000000000021
:201def000000000000000000000000000000000000000000000000023e0054100000000030
:171e0f0000000000000000000000000000000000000000270f5480b2
:201e2600000000000c3220000000000000000000000000000000000000000000000000003e
:201e4600000000000000000000000000000000000000000000000003e850c0800000000001
:161e660000000400003fea5600000000000000000000280af04081
:201e7c000000000000c3000000000000000000000000000000000000000000000000000083
:201e9c000000004000000000000000000000004000000000000100002c0054000400000021
:171ebc0000000010003960aa4000400000000000010000010f040423
:201ed300000000000c3220000000000000000000000000000004000000000000000000008d
:201ef300000000000000000000000000000000000000000000a000036850c0804018a972c1
:161f1300940101000000000000040000000000001000000000000e
:201f29000000000000c30000000000000000000000000000000000000000000000000000d5
:201f49000000000000000000000000000000000000000000000400027c0054000009103059
:171f69002a80000000000000000000000000000000000000000000b7
:201f8000000000000c30a00000000000000000000000000000000000000000000000000065
:201fa0000000000000000000000000000000010000000000000006036850c080007010009f
:161fc000000000000000000000000000000000000000000000000b
:201fd6000000000000c3000000000000000000000000000000000000000000000000000028
:201ff6000000000000000000000000000000000000000000000000002e0054000000080041
:17201600000000000000000000000000900000000000000000000023
:20202d00000000000c30200000000000000000000000000000000000000000000000000037
:20204d00000004000000000000000000000004000000000004103c63e850c0804000000000
:16206d0000004102000000000104000000000004b000015ab54011
:202083000000000000c32000000000000000008000000000001000000000000000000000ca
:2020a3000000000000000000000000000000000000000000000000427e0054000000000009
:1720c300000000002c340000000000000000000004000027d30400a4
:2020da00010000218c302800000000000000000000000000000000000000000000000000e0
:2020fa00000000000000000000000000000000000000000000000021c850c0810010073500
:16211a000c000000006d8f54000000005a8c00000020000000004d
:202130000010000350c3000000000000000000000000000000000000000000000000000069
:2021500000000000000000000000000000000000000000000000024004005440000000bbda
:17217000128040000038d05041000000036e940400024000000000a2
:20218700000002000c302000000000000000000000000000000400000000000000000000d6
:2021a700000000000000000000000000000000091e0000000e000001c850c0b8000003bb94
:1621c700d400e401c7c6af5403800808563f000e002064000000ff
:2021dd000000004000c31000000000000000000000000000000000000000000000000000cf
:2021fd00000000000000000000000000000000001900000000800000240054020000001897
:17221d00280008203c74c0a0402000510db9e0048003c64000000066
:20223400000000018c322000000000000000000000000000000000000000000000000000ab
:202254000000000000000000000000000000002000000000000000654850c0b000000903d1
:162274009d084021600cea040110000e00000000000007f906606f
:20228a000000000010c3000000000000000000000000000000000000000000000000000061
:2022aa0000000000000000000000000000000000000000000000000206005403000000b005
:1722ca00109008000000c0fa40200001a0000000000242e5803400bd
:2022e100010002000c3220000000000000000100000000000000000000000000000000007b
:202301000000000000000000000000000000000000000000000006054850c00000198000c0
:1623210000000001e68fea04080008010000000000000000000031
:202337000000004000c3000000000000000000800000000000000000000000000000000003
:202357000000000000000000000000000000000000000000000000022600560000000000e8
:17237700000000000078f0f540000050b000000000000000000000b2
:20238e00000000000c322000000000000000000000000000000000000000000000000000d1
:2023ae0000000000000000000000000000000000009e294440000001e850c08000501737ad
:1623ce002c041016e04d8a040040000000000000000000000000a8
:2023e4000000000000c3000000000000000000000000000000000000000000000000000016
:2024040000000000000000000000000000000000000182a80000000004005400000088bbf2
:1724240016c000003c26c0fa4004003000000000000000000000003b
:20243b00000000000c32200000000000000000000000000000000000000000000000000023
:20245b000000000000000000000000000000000000000000008000016850c080000417ebe2
:16247b00d4400002105daf5400000000000000000000005ef75020
:202491000000000000c3000000000000000000200000000000000000000000000000000048
:2024b10000000000000000000000000000000000000000000004e0002400540000010f1887
:1724d100280000002d34c0a0400000009000000000000015bf548093
:2024e800000000000c32200000000000000000000000000000000000000000000000000076
:202508000000000000000000000000000000000000000000000026016850c0801019c9039f
:162528009d080040e036ca5400000000de295040000000000000ed
:20253e000000000000c30000000000000000000000000000000000000000000000000000ba
:20255e000000000000000000000000000000000000000000000000400600540000001bf0b8
:17257e00109800002e0260aa410000300bc1550000000000000000d2
:20259500000000000c302000000000000000000000000000000000000000000000000000ca
:2025b500000000000000000000000000000000000000000004002061e850c010007885fa82
:1625d500800040c802168a0409400000000000040000380000003d
:2025eb000000000000c300400000000000000080000000000000200000000000000000002d
:20260b0000000000000000000000000000000000000000000000004026005480000000185d
:17262b003d4020010040f0f540040000000000000001400000000050
:202642000000001fec3020000000000000000000000000000000000000000000000000001d
:20266200000000000000000000000000000000000000000000000003c850c84000180130ec
:162682000c000800621de0f80000001877e2000000000000000066
:2026980000100035e0c30040000000000000000000000000000000000000000000000000fa
:2026b8000000000000000000000000000000000000000000000000002c005440000080764c
:1726d800e1c040000028190f000000000b6c88000000038000000038
:2026ef000000000e8c302000000000000001000000000000000000000000000000000000e0
:20270f0000000000000000000000000000000008010000000f000003c850c0380078a72b35
:16272f00f000100366c605a80383800177bf808e008000000000ed
:202745000000003410c300402000000000000000000000000000000000000000000000000d
:202765000000000000000000000000000000000010800000008060003c00540200008017bb
:172785005e0010001420c8a500200000898368008014000000000006
:20279c000000c78fac302000000000000000000000000000000000000000000000000000cb
:2027bc000000000000000000000000000000000000000000000000674850c01000018000ad
:1627dc00000000080006e0f8000000000730008c0000000000003e
:2027f20000000c4000c31000000000000000000000000000000000000000000000000000a8
:202812000000000000000000000000000000000000000000000000022e0054020000000020
:172832000000000000001d0f0000000000430000c000000000000060
:202849002101e0558c3020000000000000000000000000000000000000000000000000003c
:202869000000000000000000000000000000000018000000004006074850c00400100bf281
:1628890081000001405cf0fa0010001cbb494800000000000000b9
:20289f0000002c3810c30040000000000000000000000000000000000000000000000000a2
:2028bf000000000000000000000000000000000000000000000a00023e0054100000809437
:1728df003e900040003c1b0f00028001077cb00000000000000000b8
:2028f6000002068cac30200000000000000000000000000000000000000000000000000032
:202916000000000000000000000000000000000000f7a80040000003e850c1020000ef6273
:16293600810000154347f0f8000001803b2800000000000000009f
:20294c0000000c4020c300000000000000000000000000000000000000000000000000003c
:20296c0000000000000000000000000000000000000143e8000004002c0054000000103853
:17298c003d50000000602c0f00000000d0828000000000000000003a
:2029a3000002400dac30204000000000000000000000000004000000000000000000000085
:2029c30000004000000000000000000000000008007f2800410000036850c00000108bfab4
:1629e300810000027297f0f80040001ebb6b4040001c03e8a5407a
:2029f90000000e0000c30000000000000000000000000000000000000000000000000000ed
:202a190000000000000000000000000000000000f00703d4800000023c0054000001097043
:172a39003e90000004280c0f000000b0077cf4000000200f055400c2
:202a50000000501dac302000000000000000000000000000000000000000000000000000fd
:202a70000000000000000000000000000000000000fba940000026036850c00030701ff210
:162a900081000003c2a415a800000808b7509000000020000000c2
:202aa6000000002430c30000000000000000000000000000000000000000000000000000f9
:202ac60000000000000000000000000000000000100902a8800000402e00540000008e3c21
:172ae6003d580000062ae9a5000000b10f64850000000000000000dd
:202afd0000000000ac302000000000000000000000000000000000000000000000000000bd
:202b1d00000000000000000000000000000000018f5fa80004402063e850c11000901beb9b
:162b3d00d5000005467e05a801000b880000000400007800000027
:202b53000000252010c300000000000000000000000000000000000000000000000000004a
:202b73000000000000000000000000000000000070e7c3d4800a00423e00540000078e3031
:172b930014100000942aeda5000000b9e0000000000004000000001a
:202baa00100000000c3020000000000000000000000000000000000000000000000000009f
:202bca00000000000000000000000000000000000000000000000003c850c00000000bf80d
:162bea000c800a26661580f800001100504020000000036c3000c6
:202c00000010000000c30000000000000000000000000000000000000000000000000000e1
:202c20000000000000000000000000000000000000000000000000002c0054500000087745
:172c4000e1c000040424080f0400010800a400000000c01787820008
:202c5700000000000c302000000000000000000000000000000000000000001000000000f1
:202c7700000000000000000000000000000380000056a9502e800003c850c0b800000f7e9d
:162c9700b480100a405e05a8038000007214300e00000400000043
:202cad000000000000c3000000000000000000000000000000000000000000000000000044
:202ccd0000000000000000000000000000002030500582a9008400003c0054020000003bc6
:172ced00cf4000010e20e8a500200050a1001500820003c00000009a
:202d0400000000000c30200000000000000000000000000000000000000000000000000053
:202d2400000010000000000000000000000300000c000000000040674850c0920001c73add
:162d4400940000020054f0f8000000187244b00c000003eef50037
:202d5a000000000000c3000010000000000000000000000000000000000000000000000086
:202d7a000000000000000000000000000000300071000000000000022e005403100000b849
:172d9a00154000002c203d0f00000000aba21100c0000027050010db
:202db100000000000c302000000000000000000000000000000000000000000000000000a6
:202dd10000000000000000000000000000000001009ea950000026034850d0000080003306
:162df100890800000004e0f8000001805214300000140218e242f6
:202e07000000000000c30000000000000000000000000000000000000000000000000000e8
:202e27000000000000000000000000000000000000a70155000001c03e00540010010074b6
:172e4700345000000000390f00000000018015000000037d0d140071
:202e5e00000000000c302000000000000000000000000000000000000000000000000000f8
:202e7e00000000000000000000020000000000000000000000004003e850d0010000076b74
:162e9e00d4000001422e05a8000000407a1430000000636cfc0162
:202eb4000000000000c3000028000000000000000000000000000000000000000000000013
:202ed4000000000000000000000000000000000000000000000000002c00540020000890a6
:172ef4001400008c0020eea5004000009b0015000060001787800006
:202f0b00000000000c3020000000000000000000000000000000000000000000000000004a
:202f2b000000000000000000000000000000000000000000002000076850c10000180023ab
:162f4b0089080001e207e0f8000020005a143000000003def50089
:202f61000000000000c300000000000000000000000000000000000000000000000000008d
:202f810000000000000000000000000000000000000000000004c003bc00540000000974dc
:172fa10034500000166c0d0f00800000010015000000003c0a00001b
:202fb800000000000c3020000000000000020000000000000000000000000000000000009b
:202fd800000000000000000000000000000000038e00000000002603685040000501900091
:162ff80000000200429ff0f8000021817a143000001c7c1ea342fd
:20300e000000000000c30000020000000000000000000000000000000000000000000000dd
:20302e000000000000000000000000000000000009000000000000402c00560000030800ac
:17304e00000000400228190f000000008b8015000000261d053480bd
:20306500000000000c302000000000000000000000000000000000000000000000000000ef
:203085000000000000000000000000000001000000f6a95004016004000000100419f3fab8
:1630a50081000001428c1008010008197a143004000600000000c3
:2030bb000000000000c3000000000000000000000000000000000000000000000000000032
:2030db0000000000000000000000000000000000900d02a900000843800000000020897c9d
:1730fb003d50000004682c000000001081801500000003c0000000b0
:20311200020000000c3020000000000000000000000000000000000000000000000000003f
:2031320000000000000000000000000000000008000000000000bc60da0f80000200e339d2
:16315200488000016704100800000000f2143000000001de2510d1
:203168000040000000c3000000000000000000000000000000000000000000000000000044
:20318800000000000000000000000000000000009080000000000063c380f00000501bf620
:1731a800f040000400402b00040000000f00153000000036f0e00013
:2031bf00000000000c302000000000000000004000000000008000000000000000000000d4
:2031df00000000000000000000000000000380000092f68000002065ec0f80380000072bdb
:1631ff00e0000002028600080383a000f214300e040005cbfc000e
:203215000000000000c3001028000000000000a000000000001000000000000000000000ee
:2032350000000000000000000000000000002000000f37c80100014203c0f002018000ffd2
:173255001e80000034400b00002005000b001500800002ffe7810017
:20326c00000000000c302000000000000000000000000000000000000000000000000000e6
:20328c00000000000000000000000000000100051800000000000000ff0f805000018bebaf
:1632ac00d5000a154044100800000019d2143004200062fea540e4
:2032c2000008000000c3000000000000000000000000000000000000000000000000000021
:2032e2000000000000000000000000000000100000f000000000000002e0f00220000a3896
:1733020028100000b6380e00000100008f8015008400002d05540051
:20331900000000000c302000500000000000200000000000000000000000000000000000c8
:2033390000000000000000000000000000000000007abd48000026616e0f8000000003f27c
:16335900950004000794000800100199d21430000014027ea040ee
:20336f000000000000c3000000000000000004000000000000010000000000000000000076
:20338f0000000000000000000000000000000000000dc140000000464390f000000500d82a
:1733af002a90002000000a00000280008b8015000000003f0f5400df
:2033c600000000000c3020000000000000000000000000000000000000000000000000008b
:2033e600000000000000000000000000000000000082b89080002661615a80000071e0006a
:1634060000000a000006000800000000fa1430000000000000005a
:20341c000000000000c30000000400000000000000000000000000000000000000000000c9
:20343c0000000000000000000000000000000000000f4345000003470c8a50000000900019
:17345c000000000000002e00000000000f0015000000000000000007
:20347300000000000c302000000000000000000000000000000000000000000000000000dd
:20349300000000000000000000000000000000001e00000001802061605a8000000080003f
:1634b30000000400100e000800000008da143000000c00000000a7
:2034c9000000000000c3000018000000000000000000000000000000000000000000000008
:2034e9000000000000000000000000000000000001000000000003443cea500000090900f3
:17350900000000a000382e00000000000b0015000000220000000063
:20352000000000000c3020000000000000000000000000000000000000000000000000002f
:2035400000000000000000000000000000000000000000000000003e415a80040000f932e3
:1635600081000002471c8f0800000980da14300040002c000000c5
:203576000000000000c3000000000000000000000000000000000000000000000000000072
:20359600000000000000000000000000000000180000000000000042cc9a50000000183cb1
:1735b6003d5000002e602ff0008018100f80150002a00600000000d0
:2035cd00000000000c3020000000000000000000000000000004000000000000000000007e
:2035ed000000000000000000000000000001000008000000000c042e415a801000001ba38e
:16360d00d5000001c0008f0001000808da143004000e23faf540ef
:203623000000000000c30000000000000000000000000000000020000000000000000000a4
:203643000000000000000000000000000000000001800000000000c6fe9a500000000ef436
:1736630014100000020000f0008000100b801520000363bc0a0600b8
:20367a00000000000c302008000000000000000000000000000000000000000000000000cc
:20369a00000000000000000000000000000000011872148000002665e05a800280108bf49b
:1636ba0020000815403ef030000001007214304000406000000088
:2036d0000000000000c30040000000000000000000000000000000000000000000000000d7
:2036f00000000000000000000000000000000000080d7b40000000420e8a50400000903bb5
:17371000400000000203ed87000028080b0015100000000000000089
:20372700000000000c302000000000000000a0000000000000000000000000000000000086
:20374700000380001900000000000000000380000053af0001012075cc0f8038009809e195
:163767000008e000006fead0038000007214300e000000000000f4
:20377d000000000000c31000000000000000006000000000000000000000000000000000f9
:20379d000000200000f0000000000000000020000009b9e800000ac30380f002000109588e
:1737bd0000004800003ffe3d0020000001001520800340000000001a
:2037d400000000000c30200000000000000200000000000000000000000000000000000077
:2037f400000000000a00000000000000000300078800000000000000fe0f80300110083a09
:16381400c4004200000000000000001952143000000003c9e441f8
:20382a000000000000c30100000000000000000000000000000000000000000000000000ba
:20384a000000000001000000000000000000300008000000000000000290f003000080b66a
:17386a009c80084000000000000000008b801520000000178a4400be
:20388100000000000c3020004000000000000000000000000000000000000000000000008b
:2038a100000000000000000000000000000000001c32a81000008600f80f8000000003aa47
:1638c1008d0800c0000000000000218152143000001e0200a54857
:2038d7008000000000c310000200000000000000000000000000000000000000000000007c
:2038f70000000000000000000000000000000000000183d5000060000390f0000009000864
:1739170028d000000000000000000500818015000000203c05a40081
:20392e00000000000c3020000000000000000000000000000000000000000000000000001d
:20394e00000000000000000000000000000000000100000000001438ce0f8000000001208e
:16396e0028000004e02eca54000020007a1430000000000000000d
:203984000000000000c3004010000000000000000000000000000000000000000000000010
:2039a4000000000000000000000000000000000000e00000000000c300e0f0040000000488
:1739c40002800000000260aa408005008b00150000000000000000f9
:2039db00000000000c302000400000000000a0000000000000000000000000000000000090
:2039fb00000000000800000000000000000000000000000000002469605a800000108d72ce
:163a1b008000000007400000000000005a14304000460179d3401d
:203a31000000000000c3004000000000000000400000000000000000000000000000000032
:203a5100000000000100000000000000000000000080000000000362bcda500000099910d7
:173a71003e820000246c0000000000000100150000080024ca3400ae
:203a8800000000000c302000000000000000000000000000000000000000000000000000c2
:203aa80000000000000000000000000000000009080000000000246e615a80000001d83a0d
:163ac8008d08001540000000000049805a14304000000400000053
:203ade000000000000c30040000000000000000000000000000000000000000000000000c5
:203afe0000000000000000000000000000000108f800000000000362ceea500400170830e7
:173b1e0014d0000014280000000002100b801500006002000000005c
:203b3500000000000c30200000000000000000000000000000010000000000000000000013
:203b550000010000009af4d00000000000010000005f281000008404610080103000efaa17
:163b750095004000068eead0011008187a14300400000000000024
:203b8b000000000000c30040180000000000008000000000000180000000000000000000fe
:203bab0000000000000be68d00000000000000000001c3d5000010e280c000000000003879
:173bcb001550000000304f3e00008010018015000000020000000099
:203be20001000001ec302000000000000000000000000000000000000000000000023e8abb
:203c0200f4000000000000000000000000000001800000000000c075e0008001008003aa6a
:163c220095200a006024c25004004000f214300000003400000089
:203c380000100001d0c3004000000000000000000000000000000000000000000000005038
:203c58005a4140000000000000000000000000000000000000000c0782a00040000f0b9052
:173c78002a9000000002ca2c000002000700151000000380000000d2
:203c8f00000000000c302000001a0000000000000000000000000000000000e002000000bd
:203caf0000000000000000000000000000000008009e894800000e69c000803800000bf391
:163ccf00d500e400e00daf5403800000f214300e0434026a065075
:203ce5000000000000c31000000000000000000000000000000000000000000800340000b0
:203d050000000000000000000000000000000000b00378b00000082380e0000200000074c2
:173d2500141008a00001c05040200000030015008003400cc034006f
:203d3c0000000001ec302000004000000001000000000000000000000000000000000000e9
:203d5c00000000000000000000000000000000000086a80010200401410080100001e72a01
:163d7c0095004011e046af5400000019d2143800001c2a4e5040c7
:203d92000000000010c30040000000000000000000000000000000000000000000000000fe
:203db20000000000009000000000000000000000000b01400004002382900003000d1910a3
:173dd2002a900806a420c0a0400000008780150000002017921500b4
:203de900010000000c3020000000000000000000000000000000000000000000000000005d
:203e0900000000000a5f3c080000000000000008089ea20000001401e00080080000a0007f
:163e290000000003e00fef8000000180d2143000008c00000000ff
:203e3f000000000000c3004000000000000000000000000000000000000000000000000060
:203e5f0000000000000d8280000000000000000010037844000003600090000000101b0047
:173e7f00000000000c3f4d7a08000000038015000014200000000046
:203e9600000000000c30200000001b954000000000000000000000000000000000000000c0
:203eb600000000000000000000000000000000000017bf848000000161008000800005aa01
:163ed60095040401669eb52000000000fa1430000006206cf0009f
:203eec000000000000c30040000000815401000000000000000000000000000000000000dd
:203f0c000000000000000000000000000000000000db43940004000000a00000000000f847
:173f2c0015500000342fdec20800000007001500000000350a008033
:203f4300000000000c30200000000000000000000000000000000000000000000000000002
:203f6300000000000000000000000000000000070107300080000000410080000078000046
:163f830000000002402cef5400102500da143020001c00000000e8
:203f99000000000000c3004000000000000000000000000000000000000000000000000005
:203fb9000000000070000000000000000000000008f04300040000000280000000010f00a7
:173fd90000000000142bc050400285000300150000000000000000a3
:203ff000000040000c30300000000000000000000000000000000000000000000000000005
:20401000000000000000000000000000000000080000000000a0260069f080000080ad2a92
:1640300095000001c697cf5400000980fa1410200a00040000008f
:204046000000000000c3000000700000000000000000000000000000000000000000000027
:2040660000000000000000000000000000000000b00000000000026002ff0000000700d848
:174086002a9000000e00c0a0404000100780150000000200000000cd
:20409d00000000000c3020280000000000000000000000000000000000000040000000003f
:2040bd0000000000400714040000000000000000019eab400000143808f0011000000000a5
:1640dd0000004002602cca5401000d0100000004020000000000cc
:2040f3000000002000c300000000000000000080000000000000000000000000000c00003e
:2041130000000000000d0280220000000000000000a378f400000026000f0080000900000e
:17413300000000001423605540c000108000000000000000000000f9
:20414a00000000278c3020000000000000000000280000000000000000000000000000002a
:20416a00000000000000000000000000000000001a9742080000000400000000001c0d61ac
:16418a006884000007de066d00200000000000008a000000000031
:2041a00000100000f0c3000000000000000000000400000000000000000000000000000038
:2041c000000000000000000000000000000000000103a800000000024000000020000b7a4c
:1741e0004942200000780c66414100000000000004000000000000ad
:2041f70000000217ac30200800000000000e0000000000000000000000000000000000007d
:204217000003800f800000000000000000002000000000000e0000000000000000181063bc
:16423700900ae001e00c996d838000000000000000000000000001
:20424d000000004030c300010000000000008000000000000000000000000000000000009d
:20426d00000020001800000000000000000001000000000000800000000000000009081057
:17428d0036004800000028964060000000000000000000000000003e
:2042a400000000078c30200000000000000000000000000000000000000000000000000017
:2042c400000000000a00000000000000000000000000000004001e25caf500000080102b0f
:1642e4001400420207dc996c8500000000000000001c00000000e3
:2042fa000000000030c30000000000000000000000000000000000000000000000000000b1
:20431a00000000000000000000000000000000000090000000c0082215050004001f0db30c
:17433a00f28004403c7c0c96402000000000000000002000000000dc
:2043510001000217ac30200000000000000000000000000000000000000000000000000036
:204371000000000000000000000000000000000580000000000000000ae24200008187f081
:1643910020000001e00c996c800300000000000000002000000061
:2043a7000000004030c3000000000000000000034000000000000000000000000000000080
:2043c7000000000000000000000000000000000098000000000000001c0d14000001007f81
:1743e7000000000002002f96400000d00000000000080400000000dc
:2043fe00000000078c302000000000000000000000000000000000000000000000000000bc
:20441e0000000000009f391000000000000000000000000000000061ecf8000008f9bdaae9
:16443e00948000000004996e000008000000000000000000000041
:204454000000000030c3000000000000000000000000000000000000000000000000000055
:204474000000000000016d61010000000000000000c000000000000325d7a000201f087042
:17449400154000001c382c96480200f0b00000000000034000000079
:2044ab0000020017ac302000000000000000000023eec540000000000000000000000000c6
:2044cb0000001000080000000000000000000001007b4c00000140004d250000000083b407
:1644eb0040000a000016996e0000001c000000000000620c0500c5
:2045010080003c0030c300000000000000000000042c9c7414000000000000000000000097
:2045210000000280000000000000000000000000980d6ad000000c002fe1c000000f1a0311
:17454100440000001c000f9648000001000000000000003d00a090a8
:20455800000000078c302000400000000000000c037c89414000000000000000000000008b
:204578000000000000000000000000000000000000000000000020000000000000d08b2a7e
:16459800940000400014896c002840007f281000014000000000d0
:2045ae000000000030c300000000000000000000001dea540000000000000000000000009f
:2045ce000000000000000000000000000000000000000000000021400000000000031098c1
:1745ee002a8040001c000b964800020003c3d5200008000000000002
:2046050000000017ac302010000000000004000c0000000000000000000000000000000062
:20462500000100000000000000000000000000050000000004014000000000000010a5babb
:16464500800040020016896c01100000b32950400000036aa50003
:20465b008000000030c30002000000000000000000000000000000000000000000000000ca
:20467b000000000000000000000000000000000000000000000008c000000000000080587f
:17469b003d4040002c380b96480080009582a9000020026e0aa08004
:2046b20000c000000c30200000013819a000002e04e10080000000000000000000001f9c8c
:2046d200b60000000000000000010000000000000000000000000000000000000200a0006f
:1646f20000000000079c996c802050000000000080002800000072
:204708000010000000c300000070d02998000001c380800000000000000000000000034da9
:20472800425000000000000000000800000000000080000000000000000000000005000052
:1747480000000000004008964401000000000000040004000000002f
:20475f00000000000c3020000b8f7a65a000002000c896a001000000000000e0004035d879
:20477f00b6000380000000000000000000038000000000000e000001fea0480000180f340e
:16479f002000e001e014996c800028000000000000000000000062
:2047b5000000000000c300103830c0a2580400034002896000022000000000080202006b24
:2047d500835100000000000000000000000020000000000000800000160f54000000007f58
:1747f500000008003e000b9640000010000000000000000000000076
:20480c00100000000c3020000b805a65a000002075c9968080000000000000000002000040
:20482c00000020000000000000000000000100001e0000000c002038eaa5480008000d22bb
:16484c000008c043e79c996c0000000100000000000000000000c2
:204862000100000000c3000000b0002e58010003c300e9600000000000000000000000002c
:20488200000000000000000000000000000010000100000000400244340aa400001d09d4a3
:1748a200000004003e400c9648000000a000000000000000000000f3
:2048b900000000000c3020005f1c5a25a00000140169968000010000000000000000400014
:2048d900000000700000000000000000000000000000000000000078000000000098a17a24
:1648f90080000001e794996c100000000000000040000000000058
:20490f000000000000c3000000700032580100004280a960000220000000000000002c00b1
:20492f0000000005000000000000000000000000000000000000000000000000000190b022
:17494f003e802000023c0f9640000000000000000000000000000050
:20496600000000000c30200003801a65a00000002568968000000000000000000000000090
:2049860000000000000000000000000000000000003fa95000000004000000000081956b54
:1649a600d48204000004996e08000000d3a940000a0000000000c8
:2049bc000000000000c30000000800a258010000c302b96000000000000000000000000037
:2049dc0000000000000000000000000000000000000d4155200000030000000020150a189e
:1749fc002800000000382c96400000000182a80408600000000000ab
:204a1300000000000c30200003801a65a80000140048969000000000000000000a004000b1
:204a3300000000000000000000000000000000038000000001000401daa04000005989320c
:164a5300800004000016996c08000000000000000000000e0f0089
:204a69000000000000c30000000800a6580000000002b9600003000000000000001c3800f2
:204a8900000000000000000000000000000000000800000000000000170f548000000010fb
:174aa9003e8200a01c000f9648000000000000000000000000f0009d
:204ac000020000000c30200000005225a800002001489680000000000000000000000000da
:204ae000000000000000000000000000000000000000000000000068000000000001a000ad
:164b0000000000000014896c00000000000000000214004e8b1295
:204b16000000010000c300000000002258000001c000c9600800000000000000000000004f
:204b360000000000000000000000000000000000000000000000000000000000000000005f
:174b5600000000001c000b9641000090000000000001400208b000bf
:204b6d00000000000c30200000081265a000001e00489680000000000000004002000000ef
:204b8d00000000000000000000000000000100000000000004001c680000000000d0096a3c
:164bad00800440000016996c000000000000000000800000000093
:204bc3000000000000c30000000000a6580400000000d9620000000000000000001c0000b6
:204be30000000000000000000000000000000000009000000000000000000000000500b06d
:174c03003e800000003828964800000000000000001400000000008a
:204c1a00000000000c30200000017265a00000a0006996800100000f7f1500000146aef0fe
:204c3a00a00000000000000000000000000000000000000000000000000000008278097047
:164c5a0020000000079c896c800008010000000000000000000003
:204c70000000000000c300020000c02a58100010c000896240080000beb2d010001400dacc
:204c90000d0000000000000000000000000000000000000000000003800000002000003321
:174cb000c000010000400a9644400070e00000000000000000000078
:204cc700000000000c30200000017a25a000003670e99680380501bbb3050000000017cff5
:204ce700b02b80000037729c0000000000000000000000000f0000000000000000000000fe
:164d07000000e0000056896e0000001e167e800e00000000000029
:204d1d000000000000c300000000c0ae580400836002b9600200200afef9d0100e0000f0ea
:204d3d00ff002000000ff30500400000000000000000000000800000000000000000000070
:174d5d000000080000380f96400000f00b254000800000000000003a
:204d7400140000000c30200008015265a002000e00c896800000581000000000036004dfb3
:204d940070000000000000000000000000000000000000000400000000000001000000008a
:164db4000000c003e79c996e8000000000000004001c6400000098
:204dca0001a0000000c300000030d02a584000000000d9600000000a000000000014004ffd
:204dea00ff000000000000000000000000000000000000000040000000000000001000005a
:174e0a00000004003c400c964000000000000000000023800000008c
:204e2100000000000c3020000b811225a000000005e896a00001d80bb70500000163c000cb
:204e4100000000000000000000000000000000000000000000000000000000000000000051
:164e610000000001e7ce896c8000501a000000000000001cf0603a
:204e77004000000000c300000030e0ae584004400302d96000000500fe79d80000003c00b0
:204e97000000000000000000000000000000000000000000000000000000000000000000fb
:174eb7000000000000382f964000020100000000000000010f06048a
:204ece00000000000c30200000005a65a010003620e896800000000f7f150000016004b0ed
:204eee00800000000000000000000000000000000000000000000000000000000000a00084
:164f0e00000000000044996c0800001a9b2b0000100001eab800a9
:204f24000000000000c300002000002a580001014202a9600004000abe72d8001000016e24
:204f44000000004000b00000000000000000004000000000000100000000000024000000f8
:174f64000000001000342c96410040000de5700001000035a740042c
:204f7b00000000000c30200000001a25a00000006cc996800200001fb591000003e6c00080
:204f9b000000100781000000000000000000000000000000000000000000000000d8100076
:164fbb00000001000006996c00040000000000000000014baa00da
:204fd1000000000000c30000000000ae58010000028099600010000df7989050002c2000a3
:204ff1000000008000d00000000000000000000000000000000000000000000000050a0041
:17501100000000001c382f96404000000000000000000275e5a000f3
:20502800000000000c30200000005a65a000002069e896800002000f7b150400000017c5a5
:20504800f000080000000000000000000000000000000000000000000ef048000001a00069
:16506800000000000014896c080000000000000000000000000021
:20507e000000000000c30000007000aa58010002400089600000500abeb2d00000003c706b
:20509e00ff000000f0e0000000000000000000000000000000000140000f048000000a0045
:1750be00000000801c380b9640000000000000000000000000000026
:2050d500000000000c3020001008023c0000102071c896801040980bb705000100e6800074
:2050f500000104000037329040000000000004000000000004100000000000004001a7f06d
:16511500200041000016996c0004000000000004b0000000000050
:20512b000000000000c3000002000003c00100014002e96000000b0ffeb9d010000000009e
:20514b0000000000000ffb050100000000000000000000000000000000000000000000bf75
:17516b00c000000000382b964080000000000000040240000000006e
:205182000000000000000000000000000000011c00c89680000400100000000000002ed000
:2051a200800000000000000000000000000000001a000000000000000cf0480400000f21db
:1651c20043000002001c896c1400000c0000000000200061008060
:2051d800000000000000000000000000000000080200a9604000000a000000000000004a10
:2051f800000000000000000000000000000000000100000000000403c00f0400000000308c
:175218000150a0003c00089644000000000000000003c0028000200b
:20522f000000000000000380000000000000002e00699680380101fdb79d00000206beb02e
:20524f0080000000000000000000000000038000000000000e0000000000003800000f21c6
:16526f004300e000000e896c8000050006280000002061c000808f
:2052850000000000000000203000000000000001600089600200201a3e685800001401ff21
:2052a50000000000b00000000000000000002000000000000080000000000002000000f0a7
:1752c5000152080000002f96400000b80901404100024402e0000007
:2052dc00000000000000000387003ff91400001e79e99680000001a000000000016316a883
:2052fc000230000000000000000000000000000000139414040000000000003002019d21b0
:16531c004300c000001c996c0400000000000000001678c1008084
:205332000000000000000000000805abd12000002400b960000000000000000000006dd038
:20535200001080000000000000000000000000000000c14300400000000000010000083826
:175372000150240000000c96400000000000000000002400a0000009
:205389000000000000000000070000000000000071e89680028059a00000000001603ef87c
:2053a9000000002800000000010000000000000000000000000000000000000000181d2165
:1653c90043000000001e896c8000000000000000001401c00080a3
:2053df0000000000000000000008000000000002440289600010000000000000001401ff51
:2053ff0000000005500000000000400000000000000000000000000000000000000008f8f9
:17541f000150200000000f96400000000000000000000000c0000060
:20543600000000000000001005803b791020001401c8968001000011f315020001402ed887
:205456000000000001000000000000000000000000000000000016000000000000001fa15f
:165476004300000000008f04000100001f11c810000400c00080fd
:20548c000000000000000000c00005abd180010000029960000c000aba71d00010022c4aaa
:2054ac000000004000900000000000000000004000000000000120000000000004000d306e
:1754cc0001502010003c00f049004000e0351c0000002000b0000092
:2054e3000000000000000000001c00000000000001e996800000700db79d020001e00cb815
:205503000000000b80bb7d40000000000000000000000000000000000000000000800da157
:16552300430001000040000000000398ffa940000020004000808b
:20553900000000000000000000000000000000000000a9600000008036685000000203e9ed
:2055590000000000f0037fdc0000000000000000000000000000000000000000000300f0f1
:17557900015020101c340000000040090b41540200024000c000005d
:205590000000000000000000000000000000443601e8968000000001f715020000c640006d
:2055b0000000000000fea000800000000000000001000000000000000000000000980da176
:1655d0004300000000000000008000001f280010002638c000800d
:2055e600000000000000000000000000000002024282b96000000000ba71d8000002780047
:205606000000000000010000000000000000000000800000000000000000000000010038ca
:17562600015200001c38000000000000000280200001e400a000009f
:20563d00000000000000010400000000000010366dc8968010c0000d379d020102064000bb
:20565d000000040800000000000000000001040000000000041000000000001040818fa107
:16567d0043004100400000000004018800000000100000e0008056
:20569300000000000000000000500000000000014280e960001000003e685000002464000d
:2056b3000000000070f000000000000000000000000000000000000000000000000109f875
:1756d3000152000002000000000000000000000000000000c00000ab
:2056ea000000000000000040000000000000001401e89680000059b56391020080e706a03c
:20570a00a000000000003fc620000000000000000000000000000000000000000000072192
:16572a0043211002000000000000000000000000000005e000808e
:20574000000000000000000400000000000000002000a9604000000b7a7e10000016401063
:205760000a000000000003fc000000000000000000000000000000100000000000000ef012
:17578000015101003c000000000000000000000000000240e0004021
:205797000000000000000380000000000000001c39e89680380158013b45020013601f84f2
:2057b700002000058000000000000000000000000000000000001e000000003800000721af
:1657d7004321e000000000000390000000000000002005610080df
:2057ed0000000000000000200000c000000000000400c96002000000dbb4d000088400e0c2
:20580d000000000000a000000000000000000000000000000000000000000002000000b029
:17582d000150080000000000002280000000000000024240e0000005
:205844000000000000000003800000000000001e39689680000080157b91000017c2dde0b5
:2058640000200000000000000000000000000000000000000000000000000010020195213b
:1658840043004000000000000000000000000000000061e00080ca
:20589a00001000000000000000000000000000002002f960000005097a7e104000962870df
:2058ba0002000000000000000000000000000000000000000000000000000001005008f87b
:1758da000150280000000000000000000000000000000400b000008a
:2058f100000000000000000050003e31580000003de99680000000000000000016e68000c8
:20591100000000001a0000000000000000000000000000000000000000000000001815210e
:1659310043000000004000000000000000000000a0066041008016
:205947000000000000000000000003772d0200000282996000000000000000000014000006
:2059670000000000000000000000000000000000000000000000000000000000000008b860
:175987000152000000300000000000000000000004002402e000007c
:20599e000000000000000000051c000000010e2e01c89680000000052b910000006036a0b5
:2059be00800000000000000000000000000000000000000000000000000000000000a7a101
:1659de00430000600016ea550000080000000000002001e1008031
:2059f400000000000000000000010000000010014002b960000000007a7e18000002034ac7
:205a140000000000000000000000000000000000000000000000000000000000000000f082
:175a340001502008000070aa40000030000000000001400090000087
:205a4b000000000000000000080000000000002000c996800001000723150200000036b804
:205a6b0000000001800000000000000000000000000000000000002800000000000005a1cc
:165a8b00430000000000000000005180fb01504000000161008083
:205aa100000000000000000000b0000000000000c000896000002000d631d0000000006a2b
:205ac10000000000080000000000000000000000000000000000000400000000000000b009
:175ae1000150200000000000000002000382bd0000000002e0000017
:205af80000000000000000000001b3f810000000764933000000d000000000000000048a82
:205b1800000000000000000000000000000000000000000000000000f8a021000098a5a1d6
:165b380043000000004000000000000000000000000e01e0008065
:205b4e0000000000000000000000a973d58000000274ccc00000098000000000000020100b
:205b6e00a00000000000000000000000000000000000000000000000020a0000000100f872
:175b8e000152000e00380000000000000000000000002000c0000087
:205ba50000000000000001000000000000010036680000001000800723150200000656a86b
:205bc5000020000000de60064000000000000000000000000000000000000010008187a163
:165be50043004000000000000100001c0000000102010061008025
:205bfb00000000000000000000000000000010014000000000000900d671d00000806550e4
:205c1b00000000000001f0002400000000000000000000000000000000000000000100b89b
:175c3b000152000000000000000000000000000000004000e00000df
:205c520000000000000000000380000000000000200000000018700780020000000001afce
:205c7200040000000000000000000000000000000000000000000000000000000001f721f5
:165c9200432100000006e5020000078000000000000004c10080df
:205ca80000000000000000000000000000000000000000000000008f03c00000000000008a
:205cc800f040000000000000000000000000000000000000000002400000000000000df04d
:175ce800015100000003d0f500000070000000000000024080004019
:205cff000000000000000380000072a9500e000001d9e461388039d1225b00e0000000004b
:205d1f0000038000000000000000000000038000000000000e408000000000382800072108
:165d3f004320e000c001ef06000000003fb6080000a005600080d3
:205d55000000000000000020000001414161800002a5ff451a10000e0a2592080a000000b4
:205d75000000200000000000000000000000200000000000008a10000000000200000090a2
:175d950001520800000010f0000000000fab600000164240c000002a
:205dac000000000000000000000e0000000000000000000000001005a25b0200000001cfe5
:205dcc000400000000000000000000000000000000000000000000000000001000019521ec
:165dec00430000000034a5a20000000c00000000000c60c000802b
:205e020000000000000000000001000000000000000000000000070002a59200003c3c10b7
:205e2200f0400000000000000000000000000000000000000000000000000001008008f8af
:175e4200015020003c3150aa0000007100000000000004009000006c
:205e5900000000000000004000000000000000000000000000000007a25b82000000000063
:205e7900000010000000000000000000000000000003bc18400c00005cf0500100181521eb
:165e990043000a01c02005a20000000000000000001e61400080df
:205eaf000000000000000004000000000000000000000000000003000b259000003c0000d0
:205ecf0000000000000000000008000000000000000043c1000000000000f40020000898f3
:175eef0001502040020040a5080000000000000000000402c0000036
:205f060000000000000000400000000000000000000000000000b815265b0400000000af3a
:205f2600040000000003bc12000000000000000000000000000e000000000000000007a1d0
:165f460043000000000000000000000000000000000400c996a0ff
:205f5c0000000000000000042000000000000000000000000000058a03259040000000106a
:205f7c00f0400030000003c10000000000000000000000000000000000000000038000f06e
:175f9c00015020000000000000000000000000000000000099600084
:205fb300000000000000000000000000000000000000000000008003265b0504000680003b
:205fd300000000000003bc180000000000000000180000000000200000000000800005a179
:165ff30043000000000000000000000000000000000001489680f6
:2060090000000000000000000000000000000000000000000000050002659000000040003b
:2060290000000000000003c1000000000000000000e00000000003c0000000000000009060
:176049000150200e00000000000000009000000000000000c9600008
:206060000000000000000000038000000000000600000000000001e7a65b4600000000afb9
:206080000400000b8000000000000000000000000e00000000000000000000000099a5a184
:1660a00043000000020000000000000013b6c000000000c996803d
:2060b6000000000000000000000000000000000000000000000000100a65900000000000bb
:2060d600f0400000b00000000000080000000000010000000000000000000000008100f848
:1760f60001520000007c000000000000f16d080000000000f9600005
:20610d000000000000000140000000000004004000000000100080b3265b064400000000df
:20612d00000100000000000000000000000100001eff0154040a000000000012008187a115
:16614d0043000a00038000000000070000000001a000396896800d
:20616300000000000000000400000000000000080340000000000f0a0a25900028000000cd
:2061830000000000000000000000000000000000010bc2bd000000000000000018010098c0
:1761a3000152004000400000000000000000000004000402c96000df
:2061ba00000000000000000000000000000000000000000000000007225b0200000000af90
:2061da000400000000000000000000000000000000000000000000000000000000058721f4
:1661fa0043200000000000000000001a023c1200000001e89680c3
:206210000000000000000000000000000000000000000000000000080aa593000000001014
:20623000f0400000000000000000000000000000000000000000000000000000000010d03e
:176250000153000000000000000000000043c1000000c000b96040c6
:20626700000000000000038000000000000e01400000000038001007a65b00e0000000af66
:20628700040000000000000000000000000000000000000000008000000000380000072113
:1662a7004320a000000000000280000000000000000004e9968059
:2062bd000000000000000020000000000000800800000000020000800325900800003c108b
:2062dd00f040000000000000000000000000000000000000000010000000000200000090cf
:1762fd000150200000000000000000000000000000000382e960004b
:20631400000000000000000000000000000000000000000000001013225b0000000201af17
:2063340004000000000000000000000000000000000000000000000000000030000195215e
:1663540043000000060000000000000000000000000639e99680ac
:20636a0000000000000000000000000000000000024000000000000c0265904000007c0012
:20638a00f0400000000000000000000000000000000000000000000000000003000018d8d0
:1763aa0001502000000000000000000000000000000024009960004e
:2063c100000000000000000000000000000000000000000000000017225b000001c0018fd7
:2063e1000400000000000000000000000000000000000000000e800000000000000085a1e4
:16640100430000000000a0f40000000000000000000000e99680af
:2064170000000000000000000000000000000003c00000000000000c0b659040003e001008
:20643700f0400000000000000000000000000000000000000000100000000000000000986d
:17645700015020000000100f408000000000000000000000e9600095
:20646e000000000000000000000007bc10000000016a554000005887265b040000000000d7
:20648e0000000000000000000000000000000000000000000000000000000000000007a146
:1664ae0043000000000000000000500000000000000001e9968045
:2064c400000000000000000000000043c1010000000105560000001003259000000000008f
:2064e40000000000000000000000000000000000000000000000000000000000000000d0c8
:176504000150200000000000000002000000000000000000e96000c4
:20651b00000000000000000000000000000000000000000000003807a65b0400000200001a
:20653b000000000000000000000000000000000000000000004000000000000000180d21ba
:16655b004180000000000000000000000000000000000549968005
:206571000000000000000000000000000000000000000000000009800a25900000000000c2
:206591000000000000000000000000000000000000000000000a00000000000000000038a8
:1765b1000290000e0000000000000000000000000001c240e96000e7
:2065c8000000000000000000000000000000000000000000000081b5265b0400000001cf28
:2065e800061000000000000000000000000000000000000000000000000000000098e00005
:1666080000000000000000000000200000000000000001e896805d
:20661e0000000000000000000000000000000000000000000000050a0be5900000000010bd
:20663e00f0400000000000000000000000000000000000000000000000000000000100000b
:17665e00000000000000000000000500000000000000000089600037
:206675000000000000000100000000000004000000000000120050a7a65b0440000001af02
:20669500040000000000000000000000000000000000000000000000000000100080000051
:1666b50000004000000000000140000000000000000423e80f0030
:2066cb0040000000000000000000d0000000000000000000000280000ae59000000000009e
:2066eb00f0400000000000000000000000000000000000000000000000000000000100005e
:17670b00000000000000000000000000000000000002641e0f0000e4
