:02000000ff00ff
:080002004c6174746963650030
:17000a00694345637562653220323032302e31322e32373934330071
:15002100506172743a2069434534305550354b2d53473438002c
:1a003600446174653a204f6374203820323032352032333a31393a333900a2
:0200500000ffaf
:040052007eaa997e6b
:02005600510057
:020058000105a0
:03005a00920020f1
:03005d006202b389
:03006000720150da
:0300630082000018
:02006600110087
:02006800010194
:20006a00000000000000000000000010000000000000400000000000010000000000000421
:20008a000000000000001000000000000040000000001000000000000040000000000001b5
:1600aa0000000000000004000000000000100000000000004000ec
:2000c0000000000000000000000000020000000000000800000000000020000000000000f6
:2000e00080000000000002000000000000080000000002000000000000080000000000006c
:1701000020000000000000800000000000020000000000000800003e
:200117000000000000000000000000000000000000000000000000000000000000000000c8
:200137000000000000000000000000000000000000000000000000000000000100000000a7
:160157000000000000000000000000000000000000000000000092
:20016d00000000000000000000000000000000000000000000000000000000000000000072
:20018d00000000000000000000000000000000000000000000000000000000000000000052
:1701ad0010000000000000000000000000000000000000000000002b
:2001c40000000000000000000000000000000000000000000000000000000000000000001b
:2001e4000000000000000000000000000000000000000000000000000000000000000000fb
:1602040000000000000000000000000000000000000000000000e4
:20021a000000000000000000000000000000000000000000000000000000000000000000c4
:20023a000000000000000000000000000000000000000000000000000000000000000000a4
:17025a0000000000000000000000000000000000000000000000008d
:2002710000000000000000000000000000000000000000000000000000000000000000006d
:20029100000000000000000000000000000000000000000000000000000000000000140039
:1602b1000000000000000000000000000000000000000000000037
:2002c700000000000000000000000000000000000000000000000000000000000000000017
:2002e7000000000000000000000000000000000000000000000000000000000000000000f7
:170307000000000000000000000000000000000000000000000000df
:20031e000000000000000000000000000000000000000000000000000000000000000000bf
:20033e000000000000401000000000000000000000401000000000010040000000000800b6
:16035e000000000000000000000000000000000000000000000089
:20037400000000000000000000000000000000000000000000000000000000000000000069
:20039400000000000000000000000000000000000000000000000000000000000000000049
:1703b400000000000000000000000000000000000000000000000032
:2003cb00000000000000000000000000000000000000000000000000000000000000000012
:2003eb000000000000000000000000000000000000000000000000000000000000000000f2
:16040b0000000000000000000000000000000000000000000000db
:200421000000000000000000000000000000000000000000000000000000000000000000bb
:2004410000000000000000000000000000000000000000000000000000000000000000009b
:1704610000000000000000000000000000000000000000000c000078
:20047800000000000000000000000000000000000000000000000000000000000000000064
:20049800000000000000000000000000000010000000000000000000000000000000000034
:1604b80000000000000000000000000000000000000380000000ab
:2004ce0000000000000000000000000000000000000000000000000000000000000000000e
:2004ee000000010000000000000000000000010000000000000400000000000000000000e8
:17050e000000000000000000000000000000000000000000000000d6
:200525000000000000000000000000000000000000000000000000000000000000000000b6
:20054500000000000040000000000000000000000040000000000001000000000000000015
:160565000000000000000000000000000000000000000000000080
:20057b00000000000000000000000000000000000000000000000000000000000000000060
:20059b0000000000001000000000000000000000000000000000000100000000000000002f
:1705bb00000000000000000000000000000000000000000000000029
:2005d200000000000c302000000000000000000000000000000000000000000000000000ad
:2005f2000000000000000000000000000000000000000000000000000000000000000000e9
:1606120000000000000000000000000000000000000000000000d2
:200628000000000000c30000000000000000000000000000000000000000000000000000ef
:20064800000000000000000000000000000000000000000000000000000000000000000092
:1706680000000000000000000000000000000000000000000000007b
:20067f00000000000c302000000000000000000000000000000000000000000000000000ff
:20069f0000000000000000000000000000000000000000000000000000000000000000003b
:1606bf000000000000000000000000000000000000000000000025
:2006d5000000000000c3000000000000000000000000000000000000000000000000000042
:2006f5000000000000000000000000000000000000000000000000000000000000000000e5
:170715000000000000000000000000000000000000000000000000cd
:20072c00000000000c30200000000000000000000000000000000000000000000000000051
:20074c0000000000000000000000000000000000000000000000000000000000000000008d
:16076c0000000000000000000000000000000000a00000000000d7
:200782000000000000c3000000000000000000000000000000000000000000000000000094
:2007a200000000000000000000000000000000000000000000000000000000000000000037
:1707c200000000000000000000000000000000000000000000000020
:2007d900000000000c302000000000000000000000000000000000000000000000000000a4
:2007f9000000000000000000000000000000000000000000000000000000000000000000e0
:1608190000000000000000000000000000000000000000000000c9
:20082f000000000000c30000000000000000000000000000000000000000000000000000e6
:20084f00000000000000000000000000000000000000000000000000000000000000000089
:17086f00000000000000000000000000000000000000000000000072
:20088600000000000c302000000000000000000000000000000000000000000000000000f6
:2008a600000000000000000000000000000000000000000000000000000000000000000032
:1608c600000000000000000000000000000000000000000000001c
:2008dc000000000000c3000000000000000000000000000000000000000000000000000039
:2008fc000000000000000000000000000000000000000000000000000000000000000000dc
:17091c000000000000000000000000000000000000000000000000c4
:20093300000000000c30200000000000000000000000000000000000000000000000000048
:20095300000000000000000000000000000000000000000000000000000000000000000084
:16097300000000000000000000000000000000000000000000006e
:200989000000000000c300000000000000000000000000000000000000000000000000008b
:2009a90000000000000000000000000000000000000000000000000000000000000000002e
:1709c900000000000000000000000000000000000000000000000017
:2009e000000000000c3020000000000000000000000000000000000000000000000000009b
:200a00000000000000000000000000000000000000000000000000000000000000000000d6
:160a200000000000000000000000000000000000000000000000c0
:200a36000000000000c30000000000000000000000000000000000000000000000000000dd
:200a5600000000000000000000000000000000000000000000000000000000000000000080
:170a7600000000000000000000000000000000000000000000000069
:200a8d00000000000c302000000000000000000000000000000000000000000000000000ed
:200aad00000000000000000000000000000000000000000000000000000000000000000029
:160acd000000000000000000000000000000000000000000000013
:200ae3000000000000c3000000000000000000000000000000000000000000000000000030
:200b03000000000000000000000000000000000000000000000000000000000000000000d2
:170b23000000000000000000000000000000000000000000000000bb
:200b3a00000000000c3020000000000000000000000000000000000000000000000000003f
:200b5a0000000000000000000000000000000000000000000000000000000000000000007b
:160b7a000000000000000000000000000000000000000000000065
:200b90000000000000c3000000000000000000000000000000000000000000000000000082
:200bb000000000000000000000000000000000000000000000000000000000000000000025
:170bd00000000000000000000000000000000000000000000000000e
:200be700000000000c30200000000000000000000000000000000000000000000000000092
:200c07000000000000000000000000000000000000000000000000000000000000000000cd
:160c270000000000000000000000000000000000000000000000b7
:200c3d000000000000c30000000000000000000000000000000000000000000000000000d4
:200c5d00000000000000000000000000000000000000000000006000000000000100000016
:170c7d00000000000000000000000000000000000000000000000060
:200c9400000000000c302000000000000000000000000000000000000000000000000000e4
:200cb400000000000000000000000000000000000000000000000000000000000000000020
:160cd400000000000000000000000000000000000000000000000a
:200cea000000000000c3000000000000000000000000000000000000000000000000000027
:200d0a000000000000000000000000000000000000000000000000000000000000000000c9
:170d2a000000000000000000000000000000000000000000000000b2
:200d4100000000000c30200000000000000000000000000000000000000000000000000036
:200d6100000000000000000000000000000000000000000000000000000000000000000072
:160d8100000000000000000000000000000000000000000000005c
:200d97000000000000c3000000000000000000000000000000000000000000000000000079
:200db70000000000000000000000000000000000000000000000000000000000000000001c
:170dd700000000000000000000000000000000000000000000000005
:200dee00000000000c30200000000000000000000000000000000000000000000000000089
:200e0e000000000000000000000000000000000000000000000000000000000000000000c4
:160e2e0000000000000000000000000000000000000000000000ae
:200e44000000000000c30000000000000000000000000000000000000000000000000000cb
:200e640000000000000000000000000000000000000000000000000000000000000000006e
:170e8400000000000000000000000000000000000000000000000057
:200e9b00000000000c302000000000000000000000000000000000000000000000000000db
:200ebb00000000000000000000000000000000000000000000000000000000000000000017
:160edb000000000000000000000000000000000000000000000001
:200ef1000000000000c300000000000000000000000000000000000000000000000000001e
:200f11000000000000000000000000000000000000000000000000000000000000000000c0
:170f31000000000000000000000000000000000000000000000000a9
:200f4800000000000c3020000000000000000000000000000000000000000000000000002d
:200f6800000000000000000000000000000000000000000000000000000000000000000069
:160f88000000000000000000000000000000000000000000000053
:200f9e000000000000c3000000000000000000000000000000000000000000000000000070
:200fbe00000000000000000000000000000000000000000000000000000000000000000013
:170fde000000000000000000000000000000000000000000000000fc
:200ff500000000000c30200000000000000000000000000000000000000000000000000080
:201015000000000000000000000000000000000000000000000000000000000000000000bb
:1610350000000000000000000000000000000000000000000000a5
:20104b000000000000c30000000000000000000000000000000000000000000000000000c2
:20106b00000000000000000000000000000000000000000000000000000000000000000065
:17108b0000000000000000000000000000000000000000000000004e
:2010a200000000000c302000000000000000000000000000000000000000000000000000d2
:2010c20000000000000000000000000000000000000000000000000000000000000000000e
:1610e20000000000000000000000000000000000000000000000f8
:2010f8000000000000c3000000000000000000000000000000000000000000000000000015
:201118000000000000000000000000000000000000000000000000000000000000000000b7
:171138000000000000000000000000000000000000000000000000a0
:20114f00000000000c30200000000000000000000000000000000000000000000000000024
:20116f00000000000000000000000000000000000000000000000000000000000000000060
:16118f00000000000000000000000000000000000000000000004a
:2011a5000000000000c3000000000000000000000000000000000000000000000000000067
:2011c50000000000000000000000000000000000000000000000000000000000000000000a
:1711e5000000000000000000000000000000000000000000000000f3
:2011fc00000000000c30200000000000000000000000000000000000000000000000000077
:20121c000000000000000000000000000000000000000000000000000000000000000000b2
:16123c00000000000000000000000000000000000000000000009c
:201252000000000000c30000000000000000000000000000000000000000000000000000b9
:2012720000000000000000000000000000000000000000000000000000000000000000005c
:17129200000000000000000000000000000000000000000000000045
:2012a900000000000c302000000000000000000000000000000000000000000000000000c9
:2012c900000000000000000000000000000000000000000000000000000000000000000005
:1612e90000000000000000000000000000000000000000000000ef
:2012ff000000000000c300000000000000000000000000000000000000000000000000000c
:20131f000000000000000000000000000000000000000000000000000000000000000000ae
:17133f00000000000000000000000000000000000000000000000097
:20135600000000000c3020000000000000000000000000000000000000000000000000001b
:20137600000010000000000000000000000000000000000000000000000000000000000047
:161396000000000000000000000000000000000000000000000041
:2013ac000000000000c300000000000000000000000000000000000000000000000000005e
:2013cc0000000280000000000000000000000000000000000000000000000000000000007f
:1713ec000000000000000000000000000000000000000000000000ea
:20140300000000000c3020000000000000000000000000000000000000000000000000006d
:201423000000000000000000000000000000000000000000000000000000000000000000a9
:161443000000000000000000000000000000000000000000000093
:201459000000000000c30000000000000000000000000000000000000000000000000000b0
:20147900000000000000000000000000000000000000000000000000000000000000000053
:1714990000000000000000000000000000000000000000000000003c
:2014b000000000000c302000000000000000000000000000000000000000000000000000c0
:2014d0000000000000000000000000000000000000000000000000000000000000000000fc
:1614f00000000000000000000000000000000000000000000000e6
:201506000000000000c3000000000000000000000000000000000000000000000000000002
:201526000000000000000000000000000000000000000000000000000000000000000000a5
:1715460000000000000000000000000000000000000000000000008e
:20155d00000000000c30200000000000000000000000000000000000000000000000000012
:20157d0000000000000000000000000000000000000000000000000000000000040000004a
:16159d000000000000000000000000000000000000000000000038
:2015b3000000000000c3000000000000000000000000000000000000000000000000000055
:2015d3000000000000000000000000000000000000000000000000000000000000000000f8
:1715f3000000000000000000000000000000000000000000000000e1
:20160a00000000000c30200000000000000000000000000000000000000000000000000064
:20162a000000000000000000000000000000000000000000000000000000000000000000a0
:16164a00000000000000000000000000000000000000000000008a
:201660000000000000c30000000000000000000000000000000000000000000000000000a7
:2016800000000000000000000000000000000000000000000000000000000000000000004a
:1716a000000000000000000000000000000000000000000000000033
:2016b700000000000c302000000000000000000000000000000000000000000000000000b7
:2016d7000000000000000000000000000000000000000000000000000000000000000000f3
:1616f70000000000000000000000000000000000000000000000dd
:20170d000000000000c30000000000000000000000000000000000000000000000000000f9
:20172d0000000000000000000000000000000000000000000000000000000000000000009c
:17174d00000000000000000000000000000000000000000000000085
:20176400000000000c30200000000000000000000000000000000000000000000000000009
:20178400000000000000000000000000000000000000000000000000000000000000000045
:1617a400000000000000000000000000000000000000000000002f
:2017ba000000000000c300000000000000000000000000000000000000000000000000004c
:2017da000000000000000000000000000000000000000000000000000000000000000000ef
:1717fa000000000000000000000000000000000000000000000000d8
:20181100000000000c3020000000000000000000000000000000000000000000000000005b
:20183100000000000000000000000000000000000000000000000000000000000000000097
:161851000000000000000000000000000000000000000000000081
:201867000000000000c300000000000000000000000000000000000000000000000000009e
:20188700000000000000000000000000000000000000000000000000000000000000000041
:1718a70000000000000000000000000000000000000000000000002a
:2018be00000000000c302000000000000000000000000000000000000000000000000000ae
:2018de000000000000000000000000000000000000000000000000000000000000000000ea
:1618fe0000000000000000000000000000000000000000000000d4
:201914000000000000c30000000000000000000000000000000000000000000000000000f0
:20193400000000000000000000000000000000000000000000000000000000000000000093
:1719540000000000000000000000000000000000000000000000007c
:20196b00000000000c30200000000000000000000000000000000000000000000000000000
:20198b0000000000000000000000000000000000000000000000000000000000000000003c
:1619ab000000000000000000000000000000000000000000000026
:2019c1000000000000c3000000000000000000000000000000000000000000000000000043
:2019e1000000000000000000000000000000000000000000000000000000000000000000e6
:171a01000000000000000000000000000000000000000000000000ce
:201a1800000000000c30200000000000000000000000000000000000000000000000000052
:201a380000000000000000000000000000000000000000000000000000000000000000008e
:161a58000000000000000000000000000000000000000000000078
:201a6e000000000000c3000000000000000000000000000000000000000000000000000095
:201a8e00000000000000000000000000000000000000000000000000000000000000000038
:171aae00000000000000000000000000000000000000000000000021
:201ac500000000000c302000000000000000000000000000000000000000000000000000a5
:201ae5000000000000000000000000000000000000000000000000000000000000000000e1
:161b050000000000000000000000000000000000000000000000ca
:201b1b000000000000c30000000000000000000000000000000000000000000000000000e7
:201b3b0000000000000000000000000000000000000000000000000000000000000000008a
:171b5b00000000000000000000000000000000000000000000000073
:201b7200000000000c3020000000db6910000020680000000000000000000000000000001b
:201b9200000000000000000000000000000000000000000000000000000000000000000033
:161bb200000000000000000000000000000000000000000000001d
:201bc8000000000000c301000000f1f5f1040001400000000000000000000000000000001d
:201be8000000000000000000000000000000000000000000000000000000000000000000dd
:171c08000000000000000000000000000000000000000000000000c5
:201c1f00000000000c30238008003bfc90000000000000000000000000000000c000000037
:201c3f0000000020000000000000000000000000000000000e00000000000038008000009f
:161c5f00000000000000000000000000000000000000000000006f
:201c75000000000000c3012000700bad4904000000000000000000000000000000000000f6
:201c95000000000400000000000000000000000000000000008000000000000200050000a4
:171cb500000000000000000000000000000000000000000000000018
:201ccc00000000000c32210007005b6918000016040000000000000000000000000000009c
:201cec00000000000000000000000000000040000000000000000068000000000000000030
:161d0c0000000000000000000000000000000000000000000000c1
:201d22000000000000c30010000005f5f10000000280000000000000000000000000000061
:201d4200000000000000000000000000000004000000000000000004000000000000000079
:171d620000000000000000000000000000000000000000000000006a
:201d79000a0000000c322000001e3f7c90000000004a8000000000000000000000000000af
:201d990000000000000000000000000000000000000000000000000000000000000000002a
:161db9000000000000000000000000000000000000000000000014
:201dcf000040000000c3000000019bad490400000024b00000008000000000000000000007
:201def000000000000000000000000000000000000000000000000000000000000000000d4
:171e0f000000000000000000000000000000000000000000000000bc
:201e2600000000000c302000000cdb6910600014000000000000000000000000000000006c
:201e460000000000000000000000000000000000000000000000000000a540000000000097
:161e66000000000000000000000000000000000000000000000066
:201e7c000000000000c3010040010df5f101000022c0000000040000000000001000000057
:201e9c000000004000000000000000000000004000000000000100003405a00004000000c8
:171ebc0000000010000000000000000000000000018000000000007e
:201ed300000000000c3020000800000000000000000000000000000000000000000000008b
:201ef3000000000000000000000000000000000000000000000000000000000000000000cf
:161f130000000000000000000000000000000000000000000000b8
:201f29000000000000c3010000b0d000000000000000000000000000000000000000000054
:201f4900000000000000000000000000000000000000000000000000000000000000000078
:171f6900000000000000000000000000000000000000000000000061
:201f8000000000000c302400030000000000000000000000000000000000000000000000de
:201fa000000000000000000000000000000000000000000000000000000000000000000021
:161fc000000000000000000000000000000000000000000000000b
:201fd6000000000000c3000000080000000000000000000000000000000000000000000020
:201ff6000000000000000000000000000000000000000000000000000000000000000000cb
:172016000000000000000000000000000000000000000000000000b3
:20202d00000000000c3025040000000000000000004c18000040000000000001c0000000c9
:20204d000000040000000000000000000000040000000000001000000000000040000063b8
:16206d00c124010000000000000400000000000010000000000063
:202083000000000000c300000000000000000000000d90800010000000000000000000004d
:2020a30000000000000000000000000000000000000000000000000000000000000000001d
:1720c3003c00010000000000000000000000000000000000000000c9
:2020da000100001cec3020000001beb0500000362c0000000000000000000000000000006c
:2020fa000000000000000000000000000000000000000000000c00000000000000000000ba
:16211a0000000000000000000000000000000000000000000000af
:2021300000100002f0c301000000f3670d000001428000000000000000000000000000009f
:2021500000000000000000000000000000000000000000000000000000000000000000006f
:17217000000000000000000000000000000000000000000000000058
:2021870000000000cc3023800000dbb6d000008028cf000080000000000000000800000039
:2021a70000000000000000000000000000000000000000000e0000000000003800000000d2
:1621c700000000000000000003800000000000000000000000007f
:2021dd000000000010c3012000f00d6b8d000014003c901100000000000000000100000007
:2021fd00000000000000000000000000000000000000000000800000000000020000000040
:17221d0000000000000000000020000000000000000000000000008a
:2022340000000000ec3021000f8efbd69000000068000000000000007a80000000000000ed
:2022540000000000000000000000000000000000000000000000000000000000000000006a
:162274000000000000000000000000000000000000000000000054
:20228a000000000010c3017028f1013a150000000000000000000000f4140000000000007f
:2022aa00000000000000000000000000000000000000000000000000000000000000000014
:1722ca000000000000000000000000000000000000000000000000fd
:2022e10001000000cc3220000781d76950000020000000000030000bf280080208000000c7
:2023010000000000000000000000000000000000000000000000000000000000008000003c
:1623210000000000000000000000000000000000000000000000a6
:202337000000000010c300400000ed328500000140000000000000007820040001400000b1
:202357000000028000000000000000000000000000000000000000000000000000070000dd
:1723770000000000000000000000000000000000000000000000004f
:20238e00000000000c3020000000beb05000000079fc5a2000000000000000000000000026
:2023ae00000001000000000000000000000000000000000000000000000000003800006b6b
:1623ce00c100000000000000000000000000000000000000000038
:2023e4000000003c00c30040007003730d00000343ed0a000000000000000000000000006a
:202404000000000000000000000000000000000000000000000000000000000000000000b8
:172424003c0000000000000000000000000000000000000000000065
:20243b00000000000c3020000d8000000000000021ee5202000081c000000000e000000014
:20245b0000000000000000000000000000000000000000000000000200a548000000000072
:16247b0000000000000000000000000e000000000000000000003d
:202491000000000000c300400030000000000000042f0a0000000d19000000004000000055
:2024b1000000000000000000000000000000000000000000000000003c05a000000000002a
:1724d1000000000000000000000000010000000000000000000000f3
:2024e800000000000c30300000080000000000066c5aa50000001093bce080000000000030
:202508000000000000000000000000000000000000000000000000000000000000000000b3
:16252800000000000000000000000000073c10200000000000002a
:20253e000000003c00c3000000b000000000000022748a100000009c7f4f00000000000034
:20255e0000000000000000000000000000000000000000000000000000000000000000005d
:17257e000000000000000000000000000043c0000000000000000043
:2025950000000000cc302100010000000000002030c8002280000000000000000800000046
:2025b5000000100000000000000000000000000000000000000000000000000000000000f6
:1625d50000000000000000000000000000000000000000000000f0
:2025eb000000000010c3004000f8000000000002c425052000002309000000000100000088
:20260b0000000080000000000000000000000000000000000000000200000000000000002d
:17262b00000000000000000000040000000000000000000000000094
:202642000008002cac302000000003bc1800000005ce0f80000000056a59800002001600af
:202662000800000718f24950000000000000000000000000000000000000000000000000a6
:1626820000000000001eea0000000000000000000000000000003a
:202698000011400260c300400000c043c100000003c100f02000000b0025900000140008f8
:2026b800000000000809f56900000000000000000000000000000000000000000000000093
:1726d80000000000000020a00000000000000000000000000000002b
:2026ef000001c04eac302380000000000000000001cc0f8038000013244080e000001c8f27
:20270f000c0380000b0000000000000000000000000000000006000000000000000000000a
:16272f000000e000000000000000100000000000000000000000a4
:202745000000023430c300600000000000000002400100f00200000ef74000080000000069
:202765000f40200001a0000000000000000000000000000000000000000000000000000044
:172785000000080000000000000002000000000000c0000000000073
:20279c0000026647ac3021002000000000000020654c0f8000008010000000000006548f78
:2027bc000c00000d801aa80000000000000000001a00000000000000000000000000000088
:1627dc0000000000000000000000000000000000000000000000e7
:2027f2000000266400c300500400000000000003c20200f000000f0f000000000000202011
:202812000f4000001000828000000000000000000100000000000000000000000000000044
:1728320000000000000000000000000000000000000000000000008f
:202849000107c016ac302000000000000000000605580f800000800f342080000260148f3b
:202869000c0000001853008081000000000040000000000000000000000000000000000097
:1628890000000000000000000000000000000000800000000000b9
:20289f000000a60000c300400000000000000000020200f0000001007f00000000140020c8
:2028bf000f400000000700006010200000000400000000000000000000000000000000000f
:1728df000000000000000000000000000000000004000000000000de
:2028f60004080706ac302003000000000000802405fe0f800000001da969080000001e8f90
:202916000c00000801f78940800000000000000000fb8004000000000000000000000000cd
:16293600000000000000000000000000000000000000000000008b
:20294c0000a1442010c300400000000000000001e38100f00000050a9406980000000000bd
:20296c000f40000070fdc36880000000000000000003ad000400040000000000000000002c
:17298c00000000000000000000000000000000000000000000000034
:2029a30000000016cc3020000000000000000000016c0f80000059a0000000000000168f48
:2029c3000c0000000106804ae000000000000008000000000000000000000000000000002f
:1629e30000000002000000000028000000000000000000000000b4
:2029f9000000002000c300400000000000000000000000f0000000000000000000000000ab
:202a19000f40000000f1400804008000000000087000000000000000000000000000000019
:172a390000000000240000000001000000000000040000000000005d
:202a500000c00006ec3020000000000000000026016a0f80000001a00000000002601c8f96
:202a700008000008010000000000000000000008000000000000000000000000000000002d
:162a9000000000020000000000000000000000000000000000002e
:202aa6000000040000c300400000d0000000000043c200f00000000a000000000014000026
:202ac6000f000000f0f0000000000010000000007000000000000000000000000000000081
:172ae600000000001c000000000000000000000000000000000000bd
:202afd0000000000cc302100000000000000002061e80f80100080000000004002061e8f1f
:202b1d000c01000001db095000000000000000000100000000000000000000000000000055
:162b3d00000000000001cf06100000000000000006000000000096
:202b53000000000010c30040000000000000000043c300f000000500000000000004002030
:202b73000f40000000ffe795800000000000000000e0000000100000000000000000000008
:172b930000000000003000f00000000000000000000000000000000b
:202baa00000800000c302000018a00000000001601ce0f80040450a00000000000005c8fc5
:202bca000c0000000a00000000000000000000000002bc140040003808f040000a998538f3
:162bea003e0004000014aa0000000000380020000000000000007d
:202c00000011400000c300401801000000000002400100f04000200b000000000000280081
:202c20000f440000000000000000000000000000000043c300000000010f040000050d0213
:172c400003c00000000020a0000000000034000000000000000000c6
:202c5700000000000c30200000000683c0000000014c0f803800000d6fd540e000001e8f86
:202c77000803800000073c140000000000038000000000000e00000000000000007803014e
:162c97006a0000014034a1a0200000003a3c200000000000000051
:202cad000000000000c30040000001003c010003400100f002000000df3db008000000209c
:202ccd000f002000000043c1000000000000200000000000008000000000000000030032df
:172ced0029400000020160000000000000803c040000000000000044
:202d04000a0000000c30200020003714020000060048f08000000081249500040000548ffd
:202d24000c0000058000000000000000000000000000000000000000000000001080153821
:162d44003e00000142b78200280000007265a80000000000000018
:202d5a000000000000c3000004000f400000000000000f0010000010f71690000000202037
:202d7a000f40000000000000000000000000000000d0000000000000000000002001080ee3
:172d9a0043c00000366fe0000100000000325800000000000000000f
:202db100000000000c3020000b800000000000202848fa80000000a00000000000000485e8
:202dd10050000080000000000000000000000000000000000000000000000000001813b82f
:162df1003e00001402800000000001005a3c2800800000000000b9
:202e07000000000000c300000018000000000001440c00a0000000190000000000000020a6
:202e2700550000000000000000000000000000000000000000000000000000000000080e20
:172e470043c00000b46c00000000000800003c000400000000000009
:202e5e00000000000c302000030016968010001c0409f0810000000000000000000000001f
:202e7e00000000000000000000000000000000000007bc10000280000000000100d001f815
:162e9e003e0000000000000000000101323c200000000000000050
:202eb4000000000000c30000000800816800000003808f0000000000000000000000000038
:202ed40000000000000000000000000000000000000043c38000000000000000000700034e
:172ef40083c010001c00000000000008f0003c040000000000000020
:202f0b00000000000c302000001c00000000000001e8f08100007000000000000010000054
:202f2b0000000000010000000000000000000000000000000000000000000000007185fc93
:162f4b003e0000000000000000028780723c20000000000000005b
:202f61000000000000c3000000010000000000a000000f0000000f8000000000000000004e
:202f81000000000000e00000000000000000003000000000000000000000000001870b038a
:172fa10003c0000000000000000000f8f0003c04000000000000002e
:202fb80000c000000c30200000080000000000200168f080000001a0000000000200000039
:202fd800000000010000000000000000000000000000000000000000000000000010a5fc27
:162ff8003e0000000000000000000f0e723c20000000000000009a
:20300e000000000000c30000000100000000000043c00f00040000000000000000040000c4
:20302e000000000008900000000000000000000000000000000000000000000000058a0f4c
:17304e0003c000000038000000000099f0803c040000000000000027
:20306500000000000c302000000000000000000c0168f0801000000d2541004000068000c1
:20308500000100000053895000000000000100000100000004000000000000000050a1fc0b
:1630a5003e000800060daa0000000000723c200000000000000044
:2030bb000000000000c30000000000000000000020020f0004000000df24180000000000e2
:2030db0000000008000f2695000000000000000000e00000000000000000000000050a070d
:1730fb0043c000400003d0000000000000803c0400000000000000e8
:20311200000000000c30200000005000200000160168f0800001000567c20000000695b068
:203132004400100000000000000000000000000000000000000000001cf040000000053c9c
:163152003e000000001c850c00000000723c2000002001caef6074
:203168000000000000c30000000000800008006002c20f00400000000283c0000a00035bdc
:20318800856000000000000000000000000000000000000000000000000f0c040000000320
:1731a80043c10000002a40054200000000803c100000403f84f0108c
:2031bf00000000000c30200808011a3c200000360048f08000007000225a00e00206b59105
:2031df0004000000000000000000000000038000000000000e0000000000003a8000053c40
:1631ff003e00e000001c850c000000007a3c240e00000000000007
:203215000000000000c300010030e0003c01000140020f0000000000035a40080014426bd0
:203235007060000000000000000000000000200000000000008000c0000000021000000235
:1732550083c00800000340054000000000803c008000000000000053
:20326c00040000000c30204000015a3c200000000009f0800000800723c200080363800018
:20328c000000000000000000000000000000000000073c1000000000000000000098002314
:1632ac00c1000000061c850c000000000225a000000004000000cd
:2032c20000a0000000c300040200c0803c0100040000af0000000f000003c0000614000067
:2032e20000000000000000000000000000000000000043c1010000000000000000010000c6
:173302003c101000002a6005400000000035a400000003800000002d
:20331900000000000c30200000011a3c201000340408f00000007003a3c200000006f4bff0
:20333900740000200000000000000000000000000000000000001638000000000080000012
:16335900000000006054850c000003000265a0000e000000000001
:20336f000000000000c300000000c0803c00000062000f0000000d000003c0000000766bdd
:20338f00f1c1000400000000000000000000000000000000000003e400000000000f000072
:1733af000000000000236005400000000035a4000000000000000066
:2033c600000000000c302000070e3a3c20000101005a5a0100000185a3c200080000000036
:2033e600000000000000000000000000000000000000000000a02e000000000000000000f9
:1634060000000000001e850c0000000a3a3c200000000000000061
:20341c000000000000c30000000000003c000008000005a000000d100003c0000000000004
:20343c000000000000000000000000000000000000000000000402e000000000000000008a
:17345c00000000000002400540000001b0003c0000000000000000e5
:20347300000000000c302028039c7a65a000000060000000000000a323c2000000000000af
:20349300000000000000000000000000000000501e00000000001e00dbb0410000001000b1
:1634b300000000000016850c0000250a5a3c200000000000000077
:2034c9000000000000c3000018090036580000000000000000000d100003c0000000000091
:2034e9000000000000000000000000000000000000000000000000000cae060000000f00f4
:173509000000000000034005400001d900003c4000000000000000cd
:20352000000000000c30200000003265a0000000007a5a00000000a3a3c200001000169561
:2035400005000000000000000000000000000000000000000000000200a54000005000002f
:16356000000000026056850c00000000323c20000000700000000e
:203576000000000000c300000000003a58000000000105a0000007100803c0000080037b5a
:203596009040000000000000000004000000000000000000000800000405a4000005000087
:1735b600000000000422600540000000a0803c00000003c000000014
:2035cd000a0000000c30200001007a25a000000002180f000001000723c2004000000000e2
:2035ed00000000000000000000000000000100200000000004000000dbb0511000000000ad
:16360d0000004002061e850c0000001e3a3c2004000000000000f8
:203623000000000000c300000000003658010000002c00f0000020000803c000000000002e
:203643000000001800000000000000000000000100000000000000000dae0400000000008f
:1736630000000000040360054000000100003c000000000000000067
:20367a00000000000c3020000000723c2400000003f9950000000180265a00001407000055
:20369a0000000000000000000000000000000000000000000000000000000000007801bed9
:1636ba00c1000002001c850c000000003a3c2000002001da854034
:2036d0000000000000c30040200000003c10000003b4f65000000000025a410006000000cb
:2036f0000000000000000000000000000000000000000000000000000000000000008057e3
:17371000f41040003c00c0054c00000000003c1000004007b8b4040e
:20372700000000000c302000400030002000002e000000000000001f265800e000000000eb
:2037470000038300010000000000000000038000000000000e0000000000003a00700ff39e
:16376700c100e002067c850403802000323c200e0000000000005f
:20377d000000000000c300400300008000000003e28000000000000a3a8cc00800000000a9
:20379d000000200000a00000000000000000200000000000008003c0000000021300801e36
:1737bd003010480c246540054820000000803c0080000000000000ef
:2037d400000000000c3024000000780020000014021e0f200000001f23dc2400020717ef29
:2037f4007400000000000000000000000000000000000000000000000af04040007801f658
:16381400c18000080656bf06000000005a154000015428ceb0404a
:20382a000000000000c300000100000000000001428500f00000000fffbfc000001402fb64
:20384a00f1c040000000000000000000000000000000000000000003010f04000000805383
:17386a00f410000140647cc040000000008154000008240eae050060
:20388100000000000c30240000003800200000072aea8402000071e7f3d40004000040006b
:2038a1000000280000000000000000000000000000000000000000000000000285100feb4e
:1638c100c180080200659b0600010001000000000c00040000008e
:2038d7000000000000c30000100000800000000000060ed000000310043d400020003000b6
:2038f700000000000000000000000000000000000000000000000000000000001020801ae7
:17391700301000402c35dbd040020100a000000000000280000000a8
:20392e00000000000c3024000701004020000e0005d895000001000d765400000000000059
:20394e00000003000000000000000000000000000007bc1000000000000000000010000073
:16396e000000000000179f04100000000000000000203800000021
:203984000000000000c300000000d03000000000035e965000000000daa6800000002400f5
:2039a40000000000000000000000000000000000000043c1010001c00000000000008000bd
:1739c400000000002c007cc040000000b00000000003c000000000d1
:2039db00000000000c3020285001780020000000661a5a000000701000000000e8002de10f
:2039fb000500000000063c100000000000000000000000000000003ad9a1400000700ff3ef
:163a1b00c100000000259b040010550000000000000000000000ab
:203a31000000000000c301000890d08000000060066c0a500000008e000000000140036962
:203a5100b0400010000043c3010000000000000000000000000000001cd58414020f8f1a0b
:173a7100301040003c01cbd04100020800000000000000000000009b
:203a8800000000000c3020000800300020000c0c046a84020000719000000000040016af94
:203aa800740008000000000000000000000000000000000000000000000000000000e1b6eb
:163ac800c10000226056ff041000000007bc104080200400000085
:203ade000000000000c3010000b0900000000000226d0de00000009f00000000000002ebbc
:203afe00f1c0010000000000000000000000000000000000000000000000000000001f5384
:173b1e00f410400004287cc0400000000003c0040402438000000014
:203b3500000000000c302408481c00002000002627f88400000078800000004000604000e3
:203b55000001000000000000000000000001000000000000040000000000001000008fbbf0
:163b7500c10040000024bb0400000800000000040000000000004a
:203b8b000000000000c300011ab1003c000000026245aed000000090000000000002240072
:203bab00000000000000000000000000000000000080000000000240000000000000001e1a
:173bcb00301040003c01dbd0410000d000000000000000000000006a
:203be20001000014ac302000000030002000a00000ea424000001000000000000000000046
:203c0200000000000000000000000000000001800000000000401e640100800000000000de
:163c220000000002600000000000000000000000000064daa0004c
:203c38000010003a70c300400200000000100000001da41500000080000000000000000047
:203c58000000000000000000000000000000000000e000000000002640c000200003000023
:173c780000000000260000000000000000000000000002030a000000
:203c8f00000000008c30200000013000200e010000000000000000000000000000000000d9
:203caf00000380000000000000000000000383000012801000000665da0f803800300fec13
:163ccf001180e00200000000000020010000000e000007c8c34269
:203ce5000000000010c301002000f080000080080000000000038000000000000000000050
:203d050000002000000000000000000000002000000d8281010000264080f002000000175e
:173d2500001008000400000000000000c00000008000030d0c75108a
:203d3c0000000000ac302000000078002000000600000000000000000000000000000000cd
:203d5c000003000000033c1800000000000302830000000000202065580f80300000ebe0de
:163d7c00010002000044ba56000001003a8280000000004ea000af
:203d92000000003810c3100000000000000000402380000000000000000000000000000013
:203db20000001000000003c1000000000000300000f000000004024203c0f003000010b03f
:173dd200141200000038dc844000007003000000000000020a00005d
:203de900010400008c302000001a38002000000e00000000000000000000000a0800000047
:203e090000000000000000000000000000000000000000000000343d590f80000001e874e3
:163e2900810000000000000000000000d61088800e0005d8e260e7
:203e3f000000000010c3100018000080000000002000000000000000000000004100000087
:203e5f000000000000000000000000000000028000000000000001c603a0f0000000101344
:173e7f0004120000000000000000000007420c000000031f9a1400f1
:203e9600000000000c3020000101023c0040400000000000000080090168000000000000fe
:203eb600000000070100000000000000000000000000000000000001e90f8000008009f0f2
:163ed60001000002003cfa54100000000000000000002800000011
:203eec000000000000c301000008d003c00000000000000000001f00b03fc0000000000089
:203f0c000000000008b0000000020000000000000000000000000a4001b0f000000300d31a
:173f2c00005000001c006d46600000100000000000000000000000ef
:203f4300000000000c302028401dde1540000116600000000000008b737c880000000000d1
:203f6300000000000000000000000000000002800000000000403669e90f80000038090420
:163f8300910000000024ca140000d700000000000094000000002a
:203f99000000000000c310002001dbc1540100082000000000000919b03fc04000000000ea
:203fb900000000000000000000000000000000100000000000020143c1c0f000000989137c
:173fd900001000003c39cba44100020000000000001000000000008a
:203ff000000800000c3020000000f7750000000c00000000000800000000000008000000c5
:20401000000000000000000000000000000000001e000000002046016b0f80000079c3e0f5
:164030000104000000000000000000000000000000262800000027
:204046000001400000c3010000d0096c5c0100000000000000000000000000000040000073
:2040660000000000000000000000000000000000010000000000080002d0f00000001070ef
:17408600141000083c38000000000000000000000001c000000000c2
:20409d00000000008c302000080000000004a000021a0f008280000000000000000000004e
:2040bd00000100000000000000000000000100000000000000002663e15a80120010082c47
:1640dd00810040000000000000400800000000040e0000000000b2
:2040f3000000000010c3000000b0000000000000002c00f0001000000000000000000000fe
:2041130000000000000000000000000000000028000000000000004006da500010000017cd
:17413300041000003c000000000681b000000000001c0000000000d2
:20414a000000001cec302000039c1019a20000000000000000000000000000000000000093
:20416a0000000000000000000000000000000000007beb5000001c71c15a80000000e00077
:16418a0000000000020000000000000000000000001e0240a540d8
:2041a0008010003e40c300000009002d980000000000000000000000000000000000000060
:2041c000000000000000000000000000000000000007b471200000266c9a504000000000d7
:1741e00000000000007400000000000000000000000003e400040069
:2041f7000000000ccc302000079c5a25a200000000000000000000000000000008000000b4
:204217000003800000063c100000000000038300003ef69000000471cb0f80003800000061
:164237000000e001c005e5a4038000000000000e0040006aa04027
:20424d000000000000c30000000800265800000000000000000000000000000001400000c7
:20426d0000002000900003c104000000000020000007bf412400002380a0f000000000003b
:17428d00000008000202e0506020000000000000800802430a04047f
:2042a4000000001cec302000038e5225a200000000000000000500000000000000000000f3
:2042c400000300000000000000000000000300000000000000000425580f800000000b2198
:1642e4005400c0000000000003030008b780100400007a0ea040ef
:2042fa000000000000c300000200e0ba5800000000000000000000000000000000000000ed
:20431a000000300000000000000000000000100000000000000003e60390f0002000003483
:17433a003c020c00000000000030020005428140480000240504046f
:204351000100000ccc302000039e3225a20000000000000000000000000000000000000089
:20437100000000200000000000000000000000078000000000000665ca0f8002800000003f
:164391000000000800000000000003000000000000000018a04013
:2043a7000000000000c300000009003658000000000000000000000000000000000000009c
:2043c7000000000500000000000000000000000008000000000003c203a0f0000000000071
:1743e7000000000040000000000000080000000000c2c03d050404ab
:2043fe000008001cec3020000b8e7225a0000000000000000000000000000000000000006f
:20441e000000000700033c1040000000000000000000000000010479ed0f8000005000009e
:16443e00000000100206c00600000700000000000000297ca040fe
:2044540000035c0000c3000000b800aa58200000000000000000000000000000000000004c
:2044740000000000080003c1000000000000000000e000000000000201d0f00000000000b9
:1744940000000000004250a04000000800000000000002810a040402
:2044ab000000000ccc30200008003a65a00001000000000000000000000000000000000081
:2044cb000000000000000000000000000000030000000000000000057e0f800000000000bc
:1644eb00000000280000000000000000000000000000380c0f013f
:204501000000000000c3000000300022582000080000000000000000000000000000000005
:204521000000000000000000000000000000000000c0000000000003c1c0f000000d000039
:17454100000000010000000000000000000000000001440100f0002c
:2045580000e0001cec302000071d3265a000000000000000000400000000000000000000ac
:20457800000000001c000000000000000000000f000000000000a661690f800000500000a9
:164598000000000007a4c0860000000e000000000000000c0f01f2
:2045ae0000001c0000c300000001d02e582000000000000000002000000000000000000077
:2045ce0000000000000000000000000000000000b80000000000004003e0f0000000000002
:1745ee00000000000003f92440000001000000000002424100f000e0
:2046050000000000cc30200000007265a00000000000000000000000000000000000000002
:20462500000100000e07bc1000000000000100000100000000003c3b605a80000200077265
:16464500800040004200000001000000da9690040000001c0f002d
:20465b000000000000c30000000000a658200000000000000000000000000000000000005e
:20467b0000000000010043c1000000000000000000d0000000000064068a50000000000006
:17469b00280800004200000000000000df4141200000000000f01015
:2046b200040000000c302000078e1225a0000004694e9508000000000000000001e00606d7
:2046d2006c0000200003bc1000400000000013a8087f7f0000001e3dcf0f80000000077933
:1646f20083000000000000000000000102bc100000000000000060
:204708000030000000c300000008e0aa58120000073ee9a000000000000000000002000cc6
:204728006648000100e003c1000000000000000011c9abd0000804078180f04000000e0770
:17474800181400000000000000000000b003c10000000000000000ba
:20475f00000000000c302000001c1225a20e00200000000000000000000000e001e6568915
:20477f006c07800f00063c1000000000000013078076bdc0004e203ddf0f803800780f223f
:16479f0013800000001fc50013880000023c100f00000000000095
:2047b5000000000000c30000000100a25800800343c00000000000000000000800027c2ded
:2047d50096402000f00003c10000000000000080000febfc0008034781b0f002000f00f32d
:1747f500c490000040001050082100000043c100800000000000000c
:20480c0004e000000c30200003801a25a20401000000000000000000000000c800039489fb
:20482c006c01000001033c100000000000000105011fbdc0800000654d0f801010018da6f7
:16484c0013800000000000000100080003bc100c0e8002de0a5017
:2048620000a0000000c30000000800ba58004000038000000000000000000004003c400f67
:204882009640900000e003c18000000000000000588903cc000008020290f001000000b39c
:1748a2000490000000000000002000d00003c1804000003f0a54005a
:2048b900000000000c302000079e3265a000000000784060000000000000000001639699fc
:2048d9006c80000800033c1000000000000001878e00000000401c054d0f80000081fd2784
:1648f9007b400008001fc0500010000000295000408003fc5a50c5
:20490f000000000000c300000001002658020000000d900400000000000000000002400f52
:20492f0096480030700043c1000000000000000000b0000000020022c3c0f000000f0ffa87
:17494f002dd000004003d00008003000070169000804023f05040042
:20496600000000000c30204008001a65a000000420000000000000000000000002071c899c
:204986006e00000701063c100000800000000000007797c00000240008f000802d70a3a679
:1649a6005a04000000000000000000000000000000007400000029
:2049bc000000000000c3000400b000aa580200002000000000000000000000000014200efe
:2049dc009648000008e003c100000000000000000000817c00000163c00f0010002f900230
:1749fc00e58000000000000000000000000000000403c7c0000000b1
:204a1300000000000c30200000007a65a00000040078e540400000000000000000400699e8
:204a33006c0028000000295000000000000000018076b7c080081c0000000000007817268f
:164a53005a040020000000000000000000000000000007ec5a6022
:204a69000000000000c30000000000a658200000000d8fa4000000000000000000020029e1
:204a890096480000000d016900021400000000040005c3fc0000002000000000000f0e0a93
:174aa900e5800020003c00000000000400000000020003b600a400d2
:204ac00000e000000c30200003881a65a000000e3adda54040000000000000000366849920
:204ae0006c0800000006bc1000000000000000250a12e0000000a604580a00000199e326a0
:164b00005a0000000040000000000000000000000036000e0f00b2
:204b16000000000000c30000000000ae5820000364248f740000000000000000001c000ede
:204b360096480000f00003c1000000000000000500a7f800000080438d00000000210f02a7
:174b5600258010000038000000001070000000000001400000f000aa
:204b6d00000000000c302000001c7265a004000000780840000000000000004001605499e7
:204b8d006d0100000000000000000000000003c30192a840804000385a000910387817a285
:164bad005a040021c000000001000000000000040400200e0f006d
:204bc3000000000000c30000000000a658200000002dc18410000000000000000000282c1b
:204be3009648001000000000000000000000000650ad0388800200042600511400008e0394
:174c03006580000002000000000000000000000000c003c000f00040
:204c1a00000000000c30204000001a3c0210000003cb9500000010a00000000000001499b6
:204c3a006c00000000033c100002000000001000000000000040000000000000000015a296
:164c5a005a000002061c80f80000000a7a3c2000003e0459006073
:204c70000000000000c30004000003003c5000000034a9a00410001000000000003c0008e9
:204c9000964c8000f00003c1000000000000000000a00000000802424000000000000a03b5
:174cb000258100000440180f0200080000ec3c400003c3c5f4721069
:204cc700000000000c30200003800000000000000000000000000007f28000ea02000489fc
:204ce7006c8380000003bc1000004000000000051edf10000e00006be9a4400001b80126f7
:164d07005a000000001cc0f8000000017a3c200e0040704e4260e3
:204d1d004000000000c3000000000000000000000000000000000d00082800084024000ebc
:204d3d0096406000000043c10000080000000280d909b800008a0000179f4580002f800b39
:174d5d006580000000001c0f0000000090803c40800a443fca0010bc
:204d7400000000000c302000000000000000002000000000000000057a00084000024e8903
:204d94006c0100001c36e91800000000000000000b3fe0000c0000007bad40000000e5a21a
:164db4005a400042005c10080000070a0265a004000020ce22600d
:204dca000000000000c3000000000000000000014000000000000900b400000c000c382f89
:204dea00964030000001f7d100004000000000005187bc00004000001ef1c6000000000be6
:174e0a00a58000001c382b00000000080025a404c020003d92100455
:204e2100000000000c302000000000000000001c700000000000000ffbdc000000000c890e
:204e41006c00000801033c100006000000001380080000000000207a5f8f400000f9b5a2d4
:164e61005a400000039c1008000280185a3c20000020000000007a
:204e77000000000000c3000000000000000000000400000000000000b63fc000000c302f34
:204e970096400000d0b043c1000000000000008001000000000001401598541000050f03b7
:174eb700658000003c7c2a000000000180803c04000042400000005a
:204ece00000000000c3020000000000000000000000000000001001000000008020016999e
:204eee006c1000178907bc100000000000000083809a8008400020007bad48000001e1a638
:164f0e005a0004296016100800000000723c20400004037ca04106
:204f24000000000000c300000010000000000100000000000000200c000000001014200e1b
:204f44009640004039e003c100000000000000405803b100200101430ef1c400040f0002d1
:174f6400258000101c382c000000400000803c040100200d0af000d9
:204f7b00000000000c302000000000000000000000000000000081afba00000003668e9940
:204f9b006c00280001033c1000000000000000201b9f200000002003ffa460000000e5a26b
:164fbb005a80000206de0008000400000265a80000203bf8f5407d
:204fd1004000000000c3000000000000000000000000000000000500760000000014200b03
:204ff1009640010000f003c1000000000000000410e17c00000a0140169f460000001b0b38
:17501100e580000e14280a00000000000039a4040000c034005000aa
:20502800000000000c302000000000000000002000000000000000bf22004a000006ce9954
:205048006c0000080e03bc1040000000000001010132a000804016027be3480000781726af
:165068005a00004266d41008000000005a3c20000026240e0f0027
:20507e000000000000c300000000000000000002c0000000000000081c0000000004280d30
:20509e0096410000710003c1000000000000020158dd4000000014000ef5240800030e0317
:1750be006580000014282d000000000080803c840002660000f00075
:2050d500000000000c302000000000000000100000000000000050b00000004100c00c89b9
:2050f5006c010400009729d000a00000000007890afa2000841e1473fba448004280052649
:165115005a000b01600c10080004001b523c22001006700e0f0028
:20512b000000000000c300000000000000000000000000000000050a000000000002000b85
:20514b0096400028f005750d8004140000000000f0094000a4000000179f44800337000b9b
:17516b00a582004000000d0000000010a0003c801000040000f00049
:20518200000000000000000000000000000000000000000000000183628000000060568968
:2051a2006c0000079e76020000020000000010200100000000000005cd0800000001b1a203
:1651c2005a000002079e0008000007803a3c20200100601c0f0005
:2051d800000000000000000000000000000000000000000000000d1000280000003e2c2cdc
:2051f80096440000f0a53400000000000000002800d000000000e003f6a0000000000a0b6e
:17521800258100001c242c000400000000803c500000040000f00069
:20522f0000000000000000000000000000000000000000000000198b3bdc00e002004499e5
:20524f006c0000070156a00880000000000383800a0000000e000007dea7500001d9a522b2
:16526f005a00000000040008000000003a3c2020002000180f00c6
:205285000000000000000000000000000000000000000000000000903bffc00800342c2aed
:2052a5009640000008ef8000000000000000200001b00000008800025dd83400002f0003a6
:1752c500e58000003c002c000000000000003c400002400000f00057
:2052dc000000000000000000000000000000000061fcf70140000017620000c000001c893f
:2052fc006c0038071837420000000000000100050a56a00004000060dfa55000005803229b
:16531c005a000040005c10080000001e723c28000026000a0f003a
:2053320000000000000000000000000000000000041fbff00000000977400004000030286d
:205352009640010000fffc000000000000001000d9b57c00204000003ef744000000000373
:17537200a582000000382b000000000100803c040062600000f00027
:205389000000000000000000000000000000000000000000000000af3200080000c00689cc
:2053a9006c0000018a1a020000000000000010018b9ea00000400602fea750000000112287
:1653c9005a000a0003860008000000007a3c20000000600c0f0088
:2053df000000000000000000000000000000000000000000000000107800000000243008ca
:2053ff00964000000001e40000000000000002805899ac00000000001dd8340003100f0b5e
:17541f006580004000400d000000000000003c040000040000f000d0
:2054360000000000000000000000000000000000000000000000d1b92e00000000500c99a9
:205456006c0000070e00000000400000000003001ef6b8d800002629cd800002c019f12640
:165476005a00002b6684100800000580123c20400020001e0f0019
:20548c0000000000000000000000000000000000000000000000010a7f40000010162409e3
:2054ac0096400040099000000000000000000040010d2e850101014436a00080140f8e0ad8
:1754cc002580000014002c000000000000003c000109400100f0006d
:2054e300000000000000000000000000000000006800000000009008039c000000e01c9975
:205503006c00000008168200000000000000038000d6a15a00402006fea74800010007a627
:165523005a00000366c41008000008093a3c28400016000a0f00b5
:2055390000000000000000000000000000000000000000000000050a13b6c0000002000cac
:2055590096400000010d700000000000000000000005f71d800801429fd83400003000021d
:17557900e580000014280c0000000051a0803c000000000000f000d1
:2055900000000000000000000000000000000016000000000000d8a92bdc08000140149967
:2055b0006c0000001f00000000000000000000080e0000000040966edfa540000079e1a236
:1655d0005a0000400054100800000001323c2840000000080f00d1
:2055e60000000000000000000000000000000000000000000000050adc3fc0000000282f64
:2056060096480000108000000000000000000201710000000000000226f7451000001f030c
:17562600e580000040282d0000000000a0003c000080000100f00026
:20563d0000000000000000000000000000000000040000000000500173dc00410002969937
:20565d006c0004000e00000000000000000104200000000004102062dea748004098032626
:16567d005a000000e01e100800000580523c20201000001a0f001b
:20569300000000000000000000000000000000000280000000000500337fc0000014000edc
:2056b3009640008001000000000000000000000400000000000002441dd835000307800b77
:1756d300a588000002240d000000000000803c000000020100f000b1
:2056ea00000000000000000000000000000000000000000000040007b3d4000000001c8969
:20570a006c80000000073c10000000000000000001dab8d8000020204af50000000007a2ad
:16572a005a400029c39c10080000081e123c28200000040e0f0052
:20574000000000000000000000000000000000000000000000000000043d40000000000eba
:2057600096440100009003c10000000000000028f0fbbd49000003c0020f500000000d02ae
:17578000e5810000027c09000400009100803c100000024100f00091
:20579700000000000000000000000000000000000000000000000000000000e000001c995d
:2057b7006c03800000073c1000080000000380080a13ed540000243000000004010003a2a1
:1657d7005a800000001c0008000007805a3c28000080600a0f0080
:2057ed00000000000000000000000000000000000000000000000000000000080000002c68
:20580d0096402000000003c10000000000002000d1f56ec1400003e40000000000200c0b4e
:17582d00a580000e3c242c000000000000803c000000040100f000f4
:20584400000000000000000000000000000000000000000000000000000000c000c00e991d
:205864006e0100000e033c10000000000001000008dab8d800003c3ce0a500000079e72662
:165884005a800040001c0008000040180225a800000660180f001c
:20589a00001000000000000000000000000000000000000000000000000000040000000ecc
:2058ba009640303800c043c100000800000030007103bd49040003e7f40ff0100000100316
:1758da00258000800000290000000001002da4400000240100f00042
:2058f1000000000000000000000000000000000000000000000000000000000001638c990e
:205911006c000007009738d010000000000010200176691c400004235caa00020200032292
:165931005a800a0400060008000000187a3c28210000040c0f0034
:20594700000000000000000000000000000000000000000000000100000000000002400cf1
:20596700964000003805ed49840014000000028400c5efd10200002425faa0100300000339
:17598700a580004080000d000000010100803c4010e0024000f000f7
:20599e000000000000000040000000000000000000000000000001a00000000002000e995f
:2059be006c0000010e802950000000000000000000063c1800000001dcf50100008017266b
:1659de005a800001668e1008000000003a3c20400020680c0f0053
:2059f40000000000000000040000000000000000000000000000000000000000001c240a45
:205a140096400000090701690000000000000010000043c100080000010f5000000f0e0287
:175a34006580000000002c000000000000003c000001400100f000dc
:205a4b0000000000000000000000000000000000000000000000001000000000014016993b
:205a6b006c000007010000000000800000000008017269104000042179aa000200801322f4
:165a8b005a000002e25e000800008580723c2840800000080f00af
:205aa10000000000000000000000000000000000000000000000000a000000000000242c8b
:205ac1009640000098c000000000040000000000f0f5efd1e0000026768aa000100f0e0b10
:175ae100a5840000166808000000000000003c000420000100f000ae
:205af8000000000000000000000000000000000000000000000000000000000001c78e999f
:205b18006c00000008d36150000000000000000018dab8d0400000064aaa00010080072217
:165b38005a20000207441008000005801a3c28000000041a0f0048
:205b4e00000000000000000000000000000000000000000000000100000000000016000d13
:205b6e0096400000010bab1d02000800000000000001bd4980000243978550002003000206
:175b8e00a580000014682d000000000000003c000000028100f00083
:205ba50000000000000000000000000000000000000000000000d803ffdc004001c0348f66
:205bc500050102010003bc1000000000000100001e77e91040060000eaf500800080012310
:165be500c0800065669e10080000001a123c28000100000a0f003f
:205bfb000000000000000000000000000000000000000000000005007abfc000000200c0ca
:205c1b000f490000080043c100001400000000000105efd180021000020f500000070078b9
:175c3b0003c0000080002c000002000000003c010008000000f000ac
:205c5200000000000000000000000000000000000000000000000000000000000000000032
:205c72000000000001063c100000000000000000003abc320000000540008000001989a18f
:165c920054000029c7d40008001000195a3c2000004001caa02032
:205ca80080000000000000000000000000000000000000000000000000000000000000005c
:205cc8000000000000d043c100000000000000280000a83c00000143c2900000000000fc4a
:175ce8002a80000003380c000400800190803c100000002d00021094
:205cff00000000000000000000000000000000000000000000000000000000e00000400065
:205d1f00000380001e000000000000000003800000323c3200003e01d90f80380000e033ae
:165d3f00c10000c1c01c100800010800123c20000004001c0f1022
:205d55000000000000000000000000000000000000000000000000000000000800003c00ea
:205d7500000020000100000000000000000020000000003c040001f3c1f0f00200000004f2
:175d95003c100000020008000000009000803c000000000100f00064
:205dac00000000000000000000000000000000000000000000000000000000c00000000017
:205dcc00000100001e00000000000000000100059c323c3201000005c100801000000925d1
:165dec0060000017e014000800030800123c2000000600000000af
:205e020000000000000000000000000000000000000000000000000000000004000000007c
:205e220000001000010000000000000000003000f900003c00100003c0f0000003000037ed
:175e4200e9c000005c3c2d000000009000803c040000220000000069
:205e5900000000000000000000000000000000000000000000000000000000000000000029
:205e79000000000000000000000000000000000000323c3000001400610080000000103333
:165e9900c10000000014000800012801723c20200000000a0f00e5
:205eaf000000000000000000000000000000000000000000000000000000000000000000d3
:205ecf00000000000000000000000000000000000000803c0200000280e0000000000d0086
:175eef003c10200000000d000000003090803c040000000000f000b3
:205f060000000000000000000000000000000000000000000000000000000000000000007b
:205f2600000000000000000000010000000000050a323c3000000004615a800000700137c6
:165f46009c000003e6c4100800000000523c28040000000000002a
:205f5c00000000000000000000000000000000000000000000000000000000000000200005
:205f7c000000000000000000000000000000000050a0803c02000002acca500000038d7b84
:175f9c00c600000056282c000000000000003c04000002000000003c
:205fb3000000000000000000000000000000000000000000000000000000000000000000ce
:205fd300000000000002bc1000000000000000051a3a3c3040403604e100800280f003fb90
:165ff300bc000002e01e0008000180001a3c204000000400000099
:20600900000000000000000000000000000000000000000000000000000000000000000077
:2060290000000000000043c1000000000000001850a0003c020a004282c000001007809652
:176049003fc00000160008000000290000003c00000003800000003b
:20606000000000000000000000000000000000000000000000000000000000000000000020
:2060800000000000000000000000000000000000003a3c380000270160008000001805f23b
:1660a000a8080041601e00080020001a5a2a8040000000180f11bd
:2060b6000000000000000000000000000000000000000000000000000000000000000000ca
:2060d600000000000000000000000000000000000000003c00000142828000000000000821
:1760f6002a80008040002900000008000002a8000003c00000f00893
:20610d00000000000000000000000000000000000000000000000000000000400000018fa2
:20612d0004090000000000000000000000000030003a3c30000e2021686980100000e000df
:16614d0000000001675e93320000000000000000000000000000b1
:2061630000000000000000000000000000000000000000000000000000000000000000100c
:20618300f04000000000000000000000000000050000803c8000014200f6900000001000b2
:1761a300000000000028eccc200000000000000000000000000000e5
:2061ba000000000000000000000000000001000000000000000000000000000000000000c4
:2061da0000004000000000000000000000000000003a3c3200000c68e9698002900080372e
:1661fa00cc000240000c00080000051cd72a84000000000ef500c4
:2062100000000000000000000000000000001000000000000000000000000000000000005e
:20623000000004000000000000000000000000000000803c5000000402f690406007000308
:17625000bcc000402c002000020000500f3ea8000800000d0fa01014
:20626700000000000000000000000000000000000000000000000000000000000000000017
:206287000000000000000000000000000003800000323c3200801601e86980000038f93605
:1662a700a8000000001c89688000001f82bd440e000001edcc0042
:2062bd000000000000000000000000000000000000000000000000000000000000000000c1
:2062dd00000000000000000000000000000020000000003c0404e02000e6900000000df7c3
:1762fd005540000000000a9600000151e543e8008a00000fbcc010ce
:20631400000000000000000000000000000100000000000000000000000000000000000068
:206334000000000000000000000000000003200000323c3200001c7849698002850011ab7d
:16635400d4000400001e896880000f1c8079c0010000020cf500e4
:20636a00000000000000000000000000000000000000000000000000000000000000000013
:20638a00000000000000000000002000000030000000003c000001e002a6900000000c043e
:1763aa003d4000006c000896000000f005276c400000003c0fa200a0
:2063c1000000000000000000000000000000000000000000000000000000000000000000bc
:2063e1000000000000000000000000000000000000323c3a00001c20e869800200008f76e0
:16640100a8000001e016896880005b9ddeea8400a0003cfef50062
:20641700000000000000000000000000000000000000000000000000000000000000000065
:20643700000000000000000000000000000000000000803c0000002402d690001000003eaf
:176457005540000a00000a9600000070e96d5400040002c20f5100ad
:20646e0000000000000000000000000000000000000000000000000000000000000000000e
:20648e00000000000000000000010000000000450a323c3040000069e969800000108b27c3
:1664ae00fc000000061c89680028000c3b3d400040260400000073
:2064c4000000000000000000000000000000000000000000000000000000000000000000b8
:2064e4000000000200000000000000000000000250a0803c0200000002b6900001831f3ebd
:1765040040000000007808960800000000c3d4400002724000000097
:20651b00000000000000000000000000000000000000000000000000000000000000000060
:20653b00000000000000000000000000000000051a3a3c3000000069496980010030e06b64
:16655b00d4000400400c89680001031c763d40000000216daa00ca
:2065710000000000000000000000000000000000000000000000000000000000000000000a
:206591000000000000000000000000000000000050a0003c200000028286900030019ff440
:1765b1003e8400a002382a96080201050003d4400000027ed550109b
:2065c8000000000000000000000000000000000000000000000000000000000000000000b3
:2065e800000000000000000000000000000000001a3a3c3600003600486980040881ebbb33
:1666080030000030600e89681000170d13aa80000000000ef0400e
:20661e0000000000000000000000000000000000000000000000000000000000000000005c
:20663e00000000000000000000000000000000000100003c0000014000a69000000719b3b5
:17665e00330000009e00089600000208e562a8040000c3000f0000e7
:20667500000000000000000000000000000000000000000000000000000000000000000005
:2066950000000000000000000000000000000000003a3c300000143dc8698000007007eadc
:1666b50064000002000e89680040001cde2a8000a0067800000068
:2066cb000000000000000000000000000000000000000000000000000000000000000000af
:2066eb00000000000000000000000000000000000000803c8000000680a6900000000cf794
:17670b00264000002c002a96100000010566a8400400240000000099
