:02000000ff00ff
:080002004c6174746963650030
:17000a00694345637562653220323032302e31322e32373934330071
:15002100506172743a2069434534305550354b2d53473438002c
:1b003600446174653a204a756c20313020323032352032303a32323a3438007c
:0200510000ffae
:040053007eaa997e6a
:02005700510056
:0200590001059f
:03005b00920020f0
:03005e006202b388
:03006100720150d9
:0300640082000017
:02006700110086
:02006900010193
:20006b00000000000000000000000010000000000000400000000000010000000000000420
:20008b000000000000001000000000000040000000001000000000000040000000000001b4
:1600ab0000000000000004000000000000100000000000004000eb
:2000c1000000000000000000000000020000000000000800000000000020000000000000f5
:2000e10080000000000002000000000000080000000002000000000000080000000000006b
:1701010020000000000000800000000000020000000000000800003d
:200118000000000000000000000000000000000000000000000000000000000000000000c7
:200138000000000000000000000000000000000000000000000000000000000100000000a6
:160158000000000000000000000000000000000000000000000091
:20016e00000000000000000000000000000000000000000000000000000000000000000071
:20018e00000000000000000000000000000000000000000000000000000000000000000051
:1701ae0010000000000000000000000000000000000000000000002a
:2001c50000000000000000000000000000000000000000000000000000000000000000001a
:2001e5000000000000000000000000000000000000000000000000000000000000000000fa
:1602050000000000000000000000000000000000000000000000e3
:20021b000000000000000000000000000000000000000000000000000000000000000000c3
:20023b000000000000000000000000000000000000000000000000000000000000000000a3
:17025b0000000000000000000000000000000000000000000000008c
:2002720000000000000000000000000000000000000000000000000000000000000000006c
:20029200000000000000000000000000000000000000000000000000000000000000040048
:1602b2000000000000000000000000000000000000000000000036
:2002c800000000000000000000000000000000000000000000000000000000000000000016
:2002e8000000000000000000000000000000000000000000000000000000000020000000d6
:170308000000000000000000000000000000000000000000000000de
:20031f000000000000000000000000000000000000000000000000000000000000000000be
:20033f000000000000401000000000000000000000401000000000010040000000000800b5
:16035f000000000000000000000000000000000000000000000088
:20037500000000000000000000000000000000000000000000000000000000000000000068
:20039500000000000000000000000000000000000000000000000000000000000000000048
:1703b500000000000000000000000000000000000000000000000031
:2003cc00000000000000000000000000000000000000000000000000000000000000000011
:2003ec000000000000000000000000000000000000000000000000000000000000000000f1
:16040c0000000000000000000000000000000000000000000000da
:200422000000000000000000000000000000000000000000000000000000000000000000ba
:2004420000000000000000000000000000000000000000000000000000000000000000009a
:1704620000000000000000000000000000000000000000000400007f
:20047900000000000000000000000000000000000000000000000000000000000000000063
:20049900000000000000000000000000000010000000000000000000000000000000000033
:1604b900000000000000000000000000000000000000000000002d
:2004cf0000000000000000000000000000000000000000000000000000000000000000000d
:2004ef000000010000000000000000000000010000000000000400010000000000000000e6
:17050f000000000000000000000000000000000000000000000000d5
:200526000000000000000000000000000000000000000000000000000000000000000000b5
:20054600000000000140000000000000000000000040000000000001000000000000000013
:16056600000000000000000000000000000000000000000000007f
:20057c0000000000000000000000000000000000000000000000000000000000000000005f
:20059c0000000000000000000000000000000000000000000000000000000000000000003f
:1705bc000000000000000000000000000000000000007000000000b8
:2005d300000000000c302000000000000000000000000000000000000000000000000000ac
:2005f3000000000000000000000000000000000000000000000000000000000000000000e8
:1606130000000000000000000000000000000000000000000000d1
:200629000000000000c30000000000000000000000000000000000000000000000000000ee
:20064900000000000000000000000000000000000000000000000000000000000000000091
:1706690000000000000000000000000000000000000000000000007a
:20068000000000000c302000000000000000000000000000000000000000000000000000fe
:2006a00000000000000000000000000000000000000000000000000000000000000000003a
:1606c0000000000000000000000000000000000000000000000024
:2006d6000000000000c3000000000000000000000000000000000000000000000000000041
:2006f6000000000000000000000000000000000000000000000000000000000000000000e4
:170716000000000000000000000000000000000000000000000000cc
:20072d00000000000c30200000000000000000000000000000000000000000000000000050
:20074d0000000000000000000000000000000000000000000000000000000000000000008c
:16076d000000000000000000000000000000000000000000000076
:200783000000000000c3000000000000000000000000000000000000000000000000000093
:2007a300000000000000000000000000000000000000000000000000000000000000000036
:1707c30000000000000000000000000000000000000000000000001f
:2007da00000000000c302000000000000000000000000000000000000000000000000000a3
:2007fa000000000000000000000000000000000000000000000000000000000000000000df
:16081a0000000000000000000000000000000000000000000000c8
:200830000000000000c30000000000000000000000000000000000000000000000000000e5
:20085000000000180000000000000000000000000000000000000000000000000000000070
:17087000000000000000000000000000000000000000000000000071
:20088700000000000c302000000000000000000000000000000000000000000000000000f5
:2008a700000000000000000000000000000000000000000000000000000000000000000031
:1608c700000000000000000000000000000000000000000000001b
:2008dd000000000000c3000000000000000000000000000000000000000000000000000038
:2008fd000000000000000000000000000000000000000000000000000000000000000000db
:17091d000000000000000000000000000000000000000000000000c3
:20093400000000000c30200000000000000000000000000000000000000000000000000047
:20095400000000000000000000000000000000000000000000000000000000000000000083
:16097400000000000000000000000000000000000000000000006d
:20098a000000000000c300000000000000000000000000000000000000000000000000008a
:2009aa0000000000000000000000000000000000000000000000000000000000000000002d
:1709ca00000000000000000000000000000000000000000000000016
:2009e100000000000c3020000000000000000000000000000000000000000000000000009a
:200a01000000000000000000000000000000000000000000000000000000000000000000d5
:160a210000000000000000000000000000000000000000000000bf
:200a37000000000000c30000000000000000000000000000000000000000000000000000dc
:200a570000000000000000000000000000000000000000000000000000000000000000007f
:170a7700000000000000000000000000000000000000000000000068
:200a8e00000000000c302000000000000000000000000000000000000000000000000000ec
:200aae00000000000000000000000000000000000000000000000000000000000000000028
:160ace000000000000000000000000000000000000000000000012
:200ae4000000000000c300000000000000000000000000000000000000000000000000002f
:200b04000000000000000000000000000000000000000000000000000000000000000000d1
:170b24000000000000000000000000000000000000000000000000ba
:200b3b00000000000c3020000000000000000000000000000000000000000000000000003e
:200b5b0000000000000000000000000000000000000000000000000000000000000000007a
:160b7b000000000000000000000000000000000000000000000064
:200b91000000000000c3000000000000000000000000000000000000000000000000000081
:200bb100000000000000000000000000000000000000000000000000000000000000000024
:170bd10000000000000000000000000000000000000000000000000d
:200be800000000000c30200000000000000000000000000000000000000000000000000091
:200c08000000000000000000000000000000000000000000000000000000000000000000cc
:160c280000000000000000000000000000000000000000000000b6
:200c3e000000000000c30000000000000000000000000000000000000000000000000000d3
:200c5e00000000000000000000000000000000000000000000000000000000000000000076
:170c7e0000000000000000000000000000000000000000000000005f
:200c9500000000000c302000000000000000000000000000000000000000000000000000e3
:200cb5000000400000000000000000000000000000000000000000000000000000000000df
:160cd5000000000000000000000000000000000000000000000009
:200ceb000000000000c3000000000000000000000000000000000000000000000000000026
:200d0b000000000000000000000000000000000000000000000000000000000000000000c8
:170d2b00000000000000000000000000000000000080000000000031
:200d4200000000000c30200000000000000000000000000000000000000000000000000035
:200d6200000000000000000000000000000000000000000000000000000000000000000071
:160d8200000000000000000000000000000000000000000000005b
:200d98000000000000c3000000000000000000000000000000000000000000000000000078
:200db80000000000000000000000000000000000000000000000000000000000000000001b
:170dd800000000000000000000000000000000000000000000000004
:200def00000000000c30200000000000000000000000000000000000000000000000000088
:200e0f000000000000000000000000000000000000000000000000000000000000000000c3
:160e2f0000000000000000000000000000000000000000000000ad
:200e45000000000000c30000000000000000000000000000000000000000000000000000ca
:200e650000000000000000000000000000000000000000000000000000000000000000006d
:170e8500000000000000000000000000000000000000000000000056
:200e9c00000000000c302000000000000000000000000000000000000000000000000000da
:200ebc00000000000000000000000000000000000000000000000000000000000000000016
:160edc000000000000000000000000000000000000000000000000
:200ef2000000000000c300000000000000000000000000000000000000000000000000001d
:200f12000000000000000000000000000000000000000000000000000000000000000000bf
:170f32000000000000000000000000000000000000000000000000a8
:200f4900000000000c3020000000000000000000000000000000000000000000000000002c
:200f6900000000000000000000000000000000000000000000000000000000000000000068
:160f89000000000000000000000000000000000000000000000052
:200f9f000000000000c300000000000000000000000000000000000000000000000000006f
:200fbf00000000000000000000000000000000000000000000000000000000000000000012
:170fdf000000000000000000000000000000000000000000000000fb
:200ff600000000000c3020000000000000000000000000000000000000000000000000007f
:201016000000000000000000000000000000000000000000000000000000000000000000ba
:1610360000000000000000000000000000000000000000000000a4
:20104c000000000000c30000000000000000000000000000000000000000000000000000c1
:20106c00000000000000000000000000000000000000000000000000000000000000000064
:17108c0000000000000000000000000000000000000000000000004d
:2010a300000000000c302000000000000000000000000000000000000000000000000000d1
:2010c30000000000000000000000000000000000000000000000000000000000000000000d
:1610e30000000000000000000000000000000000000000000000f7
:2010f9000000000000c3000000000000000000000000000000000000000000000000000014
:201119000000000000000000000000000000000000000000000000000000000000000000b6
:1711390000000000000000000000000000000000000000000000009f
:20115000000000000c30200000000000000000000000000000000000000000000000000023
:2011700000000000000000000000000000038000000000000e0000000000000000000000ce
:161190000000000000000000000000000000000000000000000049
:2011a6000000000000c3000000000000000000000000000000000000000000000000000066
:2011c600000000000000000000000000000020000000000000800000000000000000000069
:1711e6000000000000000000000000000000000000000000000000f2
:2011fd00000000000c30200000000000000000000000000000000000000000000000000076
:20121d000000000000000000000000000000000000000000000000000af040000000000077
:16123d00000000000000000000000000000000000000000000009b
:201253000000000000c30000000000000000000000000000000000000000000000000000b8
:201273000000000000000000000000000000000000000000000001c0000f0000000000008b
:17129300000000000000000000000000000000000000000000000044
:2012aa00000000000c302000000000000000000000000000000000000000000000000000c8
:2012ca00000000000000000001000000000000000000000000000000000000000000000003
:1612ea0000000000000000000000000000000000000000000000ee
:201300000000000000c300000000000000000000000000000000000000000000000000000a
:2013200000000000000000000010000000000000000000000000000000000000000000009d
:17134000000000000000000000000000000000000000000000000096
:20135700000000000c3020000000000000000000000000000000000000000000000000001a
:20137700000000000000000000000000000000000100000000000000000000000000000055
:161397000000000000000000000000000000000000000000000040
:2013ad000000000000c300000000000000000000000000000000000000000000000000005d
:2013cd000000000000000000000000000000000000a0000000000000000000000000000060
:1713ed000000000000000000000000000000000000000000000000e9
:20140400000000000c3020000000000000000000000000000000000000000000000000006c
:201424000000000000000000000000000000000000000000000000000000000000000000a8
:161444000000000000000000000000000000000000000000000092
:20145a000000000000c30000000000000000000000000000000000000000000000000000af
:20147a00000000000000000000000000000000000000000000000000000000000000000052
:17149a0000000000000000000000000000000000000000000000003b
:2014b100000000000c302000000000000000000000000000000000000000000000000000bf
:2014d1000000000000000000000000000000000000000000000000000000000000000000fb
:1614f10000000000000000000000000000000000000000000000e5
:201507000000000000c3000000000000000000000000000000000000000000000000000001
:201527000000000000000000000000000000000000000000000000000000000000000000a4
:1715470000000000000000000000000000000000000000000000008d
:20155e00000000000c30200000000000000000000000000000000000000000100000000001
:20157e000000000000000000000000000000000000033c14000000000000000000000000fa
:16159e000000000000000000000000000000000000000000000037
:2015b4000000000000c3000000000000000000000000000000000000000000010000000053
:2015d40000000000000000000000000000000000000043c0040000000000000000000000f0
:1715f4000000000000000000000000000000000000000000000000e0
:20160b00000000000c302000001e976918000000000000000000000000000000000000002d
:20162b0000000000000000000000000000000000000000000000000000000000000000009f
:16164b000000000000000000000000000000000000000000000089
:201661000000000000c30000000007f1f100000000000000000000000000000000000000bd
:20168100000000000000000000000000000000000000000000000000000000000000000049
:1716a100000000000000000000000000000000000000000000000032
:2016b800000000000c30238000000000000000000000000000000000000000000000000033
:2016d80000000000000000000000000000038000000000000000000000000000000000006f
:1616f80000000000000000000000000000000000000000000000dc
:20170e000000000000c30020000000000000000000000000000000000000000000000000d8
:20172e0000000000000000000000000000002000000000000000000000000000000000007b
:17174e00000000000000000000000000000000000000000000000084
:20176500000000000c30200000000000000000000000000000000000000000000000000008
:20178500000000000000000000000000000000000000000000000000000000000000000044
:1617a500000000000000000000000000000000000000000000002e
:2017bb000000000000c300000000000000000000100000000000000000000000000000003b
:2017db000000000000000000000000000000000000000000000000000000000000000000ee
:1717fb000000000000000000000000000000000000000000000000d7
:20181200000000000c30200000080000000000000000000000000000000000000000000052
:20183200000000000000000000000000000000000000000000000000000000000000000096
:161852000000000000000000000000000000000000000000000080
:201868000000000000c300000001000000000000000000000000000000000000000000009c
:20188800000000000000000000000000000000000000000000000000000000000000000040
:1718a800000000000000000000000000000000000000000000000029
:2018bf00000000000c302000000000000000000000000000000000000000000000000000ad
:2018df000000000000000000000000000000000000000000000000000000000000000000e9
:1618ff0000000000000000000000000000000000000000000000d3
:201915000000000000c30000400000000000000000000000000000000000000000000000af
:20193500000000000000000000000000000000000000000000000000000000000000000092
:1719550000000000000000000000000000000000000000000000007b
:20196c00000000000c302000080800000000000000000000000000000000000000000000ef
:20198c0000000000000000000000000000000000000000000000000000000000000000003b
:1619ac000000000000000000000000000000000000000000000025
:2019c2000000000000c3000000310000000000000000000000000000000000000000000011
:2019e2000000000000000000000000000000000000000000000000000000000000000000e5
:171a02000000000000000000000000000000000000000000000000cd
:201a1900000000000c30200000009769104000000000000000000000000000000000000001
:201a3900000000000000000000000000000000001a00000000000000000000000000000073
:161a59000000000000000000000000000000000000000000000077
:201a6f000000000000c3000000000df1f100000000000000000000000000000000000000a5
:201a8f00000000000000000000000000000000000100000000000000000000000000000036
:171aaf00000000000000000000000000000000000000000000000020
:201ac600001400000c30210403800000000000000000000000000000000000000000000008
:201ae600000000200000000000000000000004000003bc10001000000000000000000000dd
:161b060000000000000000000000000000000000000000000000c9
:201b1c000000800000c3000000000000000000000000000000000000000000000000000066
:201b3c0000000004000000000000000000000000000043c000000000000000000000000082
:171b5c00000000000000000000000000000000000000000000000072
:201b7300000000000c302000030017a81000000078dff700000000000000000000000000d6
:201b9300000000000000000000000000000000000000000000000000000000000000000032
:161bb300000000000000000000000000000000000000000000001c
:201bc9000000000000c301000000804281040002440eeff0000000000000000000000000be
:201be9000000000000000000000000000000000000000000000000000000000000000000dc
:171c09000000000000000000000000000000000000000000000000c4
:201c2000000000000c30238000019a46980000163fdee722400000000000000000000000d0
:201c4000000000000000000000000000000380000006bc102000000000000000000000000f
:161c600000000000000000000380080000000000000000000000e3
:201c76000000000000c310200000ebf16904000002bf0fb000000000000000000000000092
:201c960000000000000000000000000000002000000043c00000000000000000000000000b
:171cb6000000000000000000002000100000000000000000000000e7
:201ccd00000000000c302000081e00000000002003580a00000000b0000000000000000040
:201ced00000000000000000000000000000000000003bc1000000000000000000000000008
:161d0d0000000000000000000000000000000000000000000000c0
:201d23000000000000c300400070000000000001402400000000001a0000000000000000ae
:201d430000000000000000000000000000000000000043c004000000000000000000000079
:171d6300000000000000000000000000000000000000000000000069
:201d7a00000000000c30200000007f2bd800008e01ec5f000000800d74e0000000000000b0
:201d9a00000000000000000000000000000000000a0000000000000000000001020000001c
:161dba00000000000000000000000000063c1000000000000000c1
:201dd0000000000000c30040000007416904000002c005f0000005003bcf04000000000071
:201df00000000000000000000000000000000000000000000000000000000000284000006b
:171e10000000000000000000000000300003c02400000000000000a4
:201e2700000000000c30200000000000000000202becdf0200000010000000000000000017
:201e470000000000000000000000000000000000000000000000000000000000000000007b
:161e670000000000000000000000000006bc100000000000000093
:201e7d000000000000c300404000000000000002442d0ff00004000f00000000100000006d
:201e9d000000004000000000000000000000004000000000000000000000000004000000a1
:171ebd000000001000000000000040000003c00001000000000000fa
:201ed400000000000c302000051a82a810400000664e0c000000f010000000000000000039
:201ef40000001020000000000000000000002000000000000000000000000004000000007a
:161f140000000000000000000000000000000000000000000000b7
:201f2a000000000000c300400001af41410004000264904000000f0f00000000000000000a
:201f4a00000000a100000000000000000000000000000000000000000000000000000000d6
:171f6a000000000e0000000000000000000000000000000000000052
:201f8100000000000c302400080057a81040001e7afaf702000000000000000000000000fe
:201fa10000000380000000000000000000000000010000000000000000000000000000009c
:161fc100000000000000000000000000000000000000000000000a
:201fd7000000000000c3000000f000428100000000170f50000000000000000000000000fe
:201ff7000000000000000000000000000000000000e00000000000000000000000000000ea
:172017000000000000000000000000000000000000000000000000b2
:20202e00000000000c32210405810000000000143c4e00000040000bb2bc0201000000004f
:20204e000000040000000000000000000000040000000000004000000000000040000000ea
:16206e000000010000000000000400000000000010000000000047
:202084000000000000c300000000a00000000083666400500000000f5ed6c0102000000009
:2020a4000000000500000000000000000000000000000000000a000000000000000000000d
:1720c400000000000000000000000000000000000000000000000005
:2020db00010000278c302000001e00000000001e015ca000000000000000000000000000a8
:2020fb000000000000000000000000000000000000000000000000000000000000000000c5
:16211b0000000000000000000000000000000000001c0000000092
:202131000010000370c30100000000000000000020020a000000000000000000000000001b
:2021510000000000000000000000000000000000000000000000000000000000000000006e
:17217100000000000000000000000000000000000000200000000037
:2021880000000781ac30238808000029582000013c00000000073000000000020000000009
:2021a8000000000000000000000000000000000000000000000000000000003802000000dd
:1621c8000000e000000000000380000000000000000001f8f700ae
:2021de000000000010c3006000f009016904400007c00000000050000000000000000000f0
:2021fe000000028500000000000000000000000000000000000000000000000200410f00e8
:17221e00000008000000000000200000000000000000c02c8ff00016
:20223500000000018c302000001e0000000000200400000000000015397c000000000000a0
:202255000000000000000000000000000000000000000000000000000000000000000bfc62
:162275000100c000060000000000000a000000000000075ee70234
:20228b000000000010c301000af1f00000000003c38000000000000f0817c0000000000040
:2022ab00000000000000000000000000000000000000000000000000000000000000009281
:1722cb0008021c00004000000000000000000000000002fe0fb000d7
:2022e20001000781ac302000000056291000001e780000000000000b7b7c08000000000028
:20230200000000200000000000000000000000000000000000000000000000143000000057
:16232200000000c000000000000080000000000000000000000065
:202338000000000010c3100102f005a5f10000000000000000000000183fc20000000000fb
:20235800000000010000000000000000000000000000000000000000000000004000000024
:1723780000000000000000000000000000000000000000000000004e
:20238f00000000000c302000000096bc900000000158f500000000000000000000000000a2
:2023af0000000000000000000000000000000000000000000000000000000000000000000e
:1623cf0000000000000000000000000000000000000020000000d8
:2023e5000000000000c31000000001ad4900008000010f500000000f00000000000000001f
:202405000000000000000000000000000000000000000000000000000000000000000000b7
:1724250000000000000000000000000000000000000004000000009c
:20243c00000000000c3020000000562910000016697af702000000000000000000000000a3
:20245c00000000000000000000060000000000000000000000400000000000050558003b7d
:16247c00c10400e006beaf540000000000000000000000000000de
:202492000000000000c3100000000da5f100000024060ff000000000000000002800000063
:2024b2000000000000000000000000000000000000000000000200000000000008200004dc
:1724d2003c0000000002d005000000000000000000000000000000e0
:2024e900000000000c302000000000000000002003dca002000000000000000000000000d6
:20250900000000000000000000000000000000000000000000000000000000000000c000f2
:162529000000000007000000000000000000000000000000000095
:20253f000000000000c3100000000000000000804025040000000f000000000000000000b1
:20255f0000000000000000000000000000000000000000000000000000000000000000005c
:17257f00000000000040000000000000000000000000000000000005
:2025960000000001ac302100000000000000000000000000000070000000000000000000b7
:2025b60000000020000000000006000000000000000000000040000000000000000000009f
:1625d60000000000600000000100000002bc18000004780000003c
:2025ec000000000010c3080100000000000000000000000000000080000000002000000053
:20260c0000000005000000000000000000000000000000000002000000000000000f000098
:17262c000000000000000000000000000043c0000000600000000034
:202643000008662dec302000001e7603e000008000000000000000000000000000000000a9
:20266300000000000000000000000000000000000000000000000000000000000000000057
:162683000000000000000000000001000000000000000000000040
:2026990000114241c0c31000000000403c0800000000000000000000000000000000000076
:2026b900000000000000000000000000000000000000000000000000000000000000000001
:1726d900000000000000000000000008000000000000028000000060
:2026f00000020006cc302000039e7303e000000000000000000400000000000000000000ab
:20271000000000000000000000000000000000000000000000000000000000380100000070
:162730000000e0014601af040380000000000000000c02e88000bf
:202746000000243800c31000000890403c0000000000000000000000000000000000000030
:20276600000000000000000000000000000000000000000000000000000000020020000031
:1727860000000800004010f040203000000000000000002ff0000045
:20279d0000006004ec322000070f5603e0000000000000000000000000000000000000002b
:2027bd000000000000000000000000000000000000000000000000000000000000000000fc
:1627dd000000000000000000000000000000000000007ef88000f0
:2027f3000000020010c30000000080803c00000000000000000000000000000000000000b5
:202813000000000000000000000000000000000000000000000000000000000000000000a5
:17283300000000000000000000000000000000000000020ce00000a0
:20284a0001006015cc322000019d7683e000018000000000000000000000000000000000e2
:20286a00000000000000000000000000000000000000000000000000000000000500000049
:16288a0000000000078000000000000000000000000000000000b1
:2028a0000000020010c30002000180c03c0000040000000000008000000000000000000040
:2028c0000000000000000000000000000000000000000000000000000000000003000000f5
:1728e0000000000000400000000000000000000000000000000000a1
:2028f70000004005ec32200000007816a00000000000000000000000000000000000000010
:20291700000000000000000000000000000000000000000000000000000000000000007b25
:16293700c1000000000000000000000000000000040600000000bf
:20294d000000040010c3000000009502940000000000000000000000000000000000000068
:20296d00000000000000000000000000000000000000000000000000000000000000000446
:17298d003c10400000000000000000f0000000000002c340000000b2
:2029a400000000158c32200000005a83e00000000000000000000000000000000000000063
:2029c4000000000000000000000000000000000000000000000000000000000000000000f3
:1629e4000000000000000000000000013b01580000246acd80006d
:2029fa000000002010c30000000000403c0000280000000000000000000000000000000026
:202a1a0000000000000000000000000000000000000000000000000000000000000000009c
:172a3a00000000000020000000003800a1803d800003c7bee00000e7
:202a5100000000048c32200029985a03e00000000000000000000000000000000000000085
:202a7100000000000000000000000000000000000000000000000000000000000000000045
:162a91000000000000278f040800000000000000001c054c80037d
:202aa7008000002010c30000051000c03c000000000000000000000000000000000000008b
:202ac7000000000000000000000000000000000000000000000000000000000000000000ef
:172ae700000000000002e0aa0000000000000000000422b6000280ee
:202afe000015c041ac30200008187e03e00020000000000000000000000000000000000005
:202b1e00000000000000000000000000000000000000000000000000000000100000100077
:162b3e00000040140000000001000000000000000000000000002c
:202b54000000063800c30800001000c03c00008000000000000000000000000000000000cc
:202b74000000000000000000000000000000000000000000000000000000000000000d0034
:172b9400000000008000000000000000000000000003c340000000a4
:202bab00000800000c30204000007603e000000002f9d10000000007bbc20000000040007d
:202bcb000000000000f2143020000000000000000000000000000000000000000001e701ab
:162beb009b0000000000af0400000000000000000c000200a56073
:202c01000011400000c31004000000403c100000002d8b80000000000b03c00000003400c5
:202c210000000000000b00150c0000000000000000000000000000400000000000000f0a0e
:172c410099920000000000f04000000000000000000003ec05a40089
:202c5800000000000c302000051e5283e000003679fd950000000013a3c200e0000000008f
:202c78000003800000f2143020000000000380000002bc10200004005ff700380501a7a211
:162c98005b02e80402000000000200000703c00e001c00000000e5
:202cae000000000000c310002808b0403c000001442d86500000000a0803c0080a000000a8
:202cce0000002000000f00150400000000002000000003c0000000203deff00200201f0b33
:172cee0065900840804000000000000000003c0480002000000000f2
:202d0500000000000c302000019c3a3c20000000600000000000d80523c200000006ddae6c
:202d25000400000019d214300000000000000003800000000000000000000000001803a617
:162d45005b000001e0018f040000000000000000001e04fa1d501f
:202d5b004000000000c3000000010003c000000000000000000005000003c000000020e9c0
:202d7b0080400000008b80150100000000000000000000000000034000000000028f800af9
:172d9b0065920000260010f040000000000000000000039fd0e6006c
:202db200000000000c3020000000f23ea80000006d5e0f000000800523c200000200000087
:202dd2000000000181d21430000000000000100000000000000000280000000000000722e8
:162df2005b4000000780af040000000000000000000003ca4740a2
:202e08000000000000c3000000000f8028000000028300f0000005000003c00000140000df
:202e280000000000008f80150400000000000200000000000000004400000000000000021a
:172e480065900000004000f040000400000000000000032cf4f48073
:202e5f00000000000c302000001a1a3c2001000e737cd10200040005a3c200000200000026
:202e7f000000000000fa1430400000000000000000000000000000000000000000f1b522ed
:162e9f005ba10000000000000000000000000000000004f847617d
:202eb5000000000000c3000000000003c0001000202f0b800000070b0003c000000c0000ac
:202ed50000000000000b0015000000000000000000000000000000028000000000058a03a9
:172ef500259000000000000000000000000000000000031ed8f60022
:202f0c00020000000c30202805007a3c200000147000000000000011a3c20000000000004a
:202f2c000000000000da143040000000000000000000000000000000ecf500000071a32210
:162f4c005b0000000041af040000000000000000000073c847613d
:202f62000040000000c3000000000083c0000008238000000000000f0803c0000000000084
:202f82000000000000ef001500000000000000000000000000000002430f50000000800bfc
:172fa20025904000003010f040000070000000000000066df4f400e8
:202fb900000000000c302001081c323c2000000003edd10000000007a3c20000020000af0b
:202fd9000410000980da14304000000000000000000000000000062178f70200007001a62e
:162ff9005b000004000000000000000000000000000e04ea4740e0
:20300f000000000000c3000000100083c0000000002ebb80000007000003c000000c20101c
:20302f00f0400002100b8015000000000000000000000000000000067c0ff0000000080b0b
:17304f00a59040000000000000000000000000000000331fd8f49047
:20306600000000000c302000000a1a3c2000000e700000000000000323c20040000004aa1a
:203086000411000818fa143000000000000000000000000000000029daf702100059c1266b
:1630a6005b0040000001cf04000000000000000400000200a540ba
:2030bc000000000000c3000000009083c000008002c000000000070b0803c000000003fe3e
:2030dc006040000010ef801505000000000000000000000000000240150ff1900000100b99
:1730fc0025904000000010f040000000000000000000027c05a50060
:2031130000c000000c30200080007a3c20010036616df30000000000265a000000003ef87c
:20313300040000018072143020000000000000000000000000001e02edf70000008001a6f6
:163153005b01000007808f0400000000000000000c0028000000bc
:203169000000000000c3000000000003c01010014005e03004000000021a41000000014b9d
:20318900e0400000000d0015140000000000000000000000000000001ddff00000030003de
:1731a90065910000044010f040000000000000000000000000000095
:2031c000000000000c3020000500723c20000000001c0f000000800fa25800e000e000004c
:2031e00000038000005214102000000000038000000000000000142b5e80003800708722c5
:163200005b02e00207818f0403800000000000000014026b080052
:203216000000000000c3000000080003c0000000000d00f000000500f30cc008000200003f
:203236000000200000018029000000000000200000000000000000240f8000020380100b3b
:17325600e59008003c0000f040200000000000000003428fd00000b4
:20326d00000000000c3020000500323c20000000064c9502000000000000000000003fdf4b
:20328d00e40000080a00000000000000000000000000000000001420788012000001e1a269
:1632ad005b80000000000000000000000703c0000080287b08003b
:2032c3000000000000c3000000080083c000000002ad09a000000000000000000000015b29
:2032e300f8c0000051000000000000000000000000000000000002643d0000800000100a85
:17330300e5900000000000000000000000003c800017403cd000001f
:20331a00000000000c3020000180023c08000026001e0f00000000000000000000e237df25
:20333a00a40000000000000000014000000000000007bc1820000000dd8000000579e7a22f
:16335a005b000001e001af040000000080295000000c28d8400226
:203370000000000000c3000000d00003c0000001402500f00000000000000000000201f896
:20339000f6c00000000000000000080000000000000043c0000000002cf000000020800b95
:1733b000a5900000020000f041000000030169200003c41e0000002c
:2033c700000000000c302000001a7e03c0000006734c9502000070000000000000603edfe6
:2033e700e40000000002bc1040000000000000000000000000000068000000000081e326e2
:163407005b000020000000000000000000000000001e074e0002bf
:20341d000000000000c30000000000003c00000006ff09a000000080000000000002014b14
:20343d00f8c00100000003c100000000000000000000000000000240000000000005100a91
:17345d00e5940000000000000000000000000000000003d5001000f7
:20347400000000000c3020000001569680000000616e0f000000000000000000000677fa1a
:20349400041000000000000000000000000000000000000000001c6efe800001101085a6b0
:1634b4005b00001400040a560000270000000000408e3b6e8012ff
:2034ca000000000000c30000000080016800000002c000f00000000000000000000065e837
:2034ea00904000000000000000000000000000000000000000000262aee00000080099035c
:17350a00e59000a0000000a540000508000000000a04067e00009879
:20352100000000000c30200005808683c000001c05cc9502000000000000000002007ef8e4
:20354100041000080000000000000000000000000000000000000061eef500000080c3a225
:163561005b00000000018f040000000000000000040624eea000a9
:203577008000000000c3000000000b003c000000225f09a000000000000000000024255bdc
:20359700e04000001000000000000000000000000000000000000142410f500000071902df
:1735b70025900000000010f04000000000000000000443810a000036
:2035ce00000000000c30200008000000000000142a0c0f0000003810000000400260000036
:2035ee00000100000000000000000000000008000e00000000001629eaf702100001d3267a
:16360e005b004800000000000100000000000000000e007e8000f6
:203624008000000000c300000010000000000000242d00f08000000f00000000002e000035
:20364400000000000000000000000000000001000100000000000242560ff00000001a03ae
:17366400659000400000000000000000000000000000220e9000005a
:20367b00000000000c302000001c100020000000000000000000000d730500000000000002
:20369b00000000050000000000000000000000000000000000000000000000000079e5a20a
:1636bb005b200000000000000000000007bc1401013e7bd908000b
:2036d1000000000000c3080000000080000800000000000000000500daa0100000002800cf
:2036f1000000000070e000000000000000000000000000000000000000000000000f0f0249
:1737110065910000003c0000000100000003c100180343aeb00000ee
:20372800000000000c30200000005a3c2000000000000000380000096afd00e00000018f57
:20374800040000070100000000000000000380080000000000000003dff7003800f1f1a235
:163768005b0000e00000000003800818073c14000094040000007e
:20377e000000000000c30800000000003c040008000000000200000036ed70080014000067
:20379e00f0c0000070d00000000000000000200070000000000003401efff002000d8b029f
:1737be002592000000000000002000d00043c10000042380000000a2
:2037d500000000000c3020000b80523c20000000000000000000501000000000000280005d
:2037f500000000080116280000000000000000001e0000000000000000000004011801a28f
:163815005b0000000600000000000000033c10004c0005edc700e8
:20382b000000000000c30800003800003c020000000000000000000c000000000000000030
:20384b0000000002b0d9000000000000000000000100000000000000000000001000800a37
:17386b00a592000000000000000000000003c1010a00c3beacf01013
:20388200000000000c3024000380523c20000100000000000002008000000000000000af63
:2038a20004000000199e804080000000000000000000000000001400000000000280032250
:1638c2005b000000001480f100000001bff89800003e2e6c0400e4
:2038d8000000000000c30000000000003c020000000000000000400000000000000000107f
:2038f800f0c0000000cd40002000000000000000000000000000000000000000005f000b69
:17391800659000000000300f00000000fb6e040400e3e7d7b0001092
:20392f00000000000c3220000500723c200000000000000000040000000000000000000043
:20394f000000000000000000000000000000000300000000000016041ea000000001e12675
:16396f005b0002000000000000000f0003bc1800003c04e80a00cd
:203985000000000000c30000000000003c0200000000000000002000000000000000000001
:2039a500000000000000000000000000000000000000000000000002bc05000000000e0a27
:1739c500659000000000000000000878e043c1000000c30100a0002e
:2039dc00000000000c32200007007a25a00000000000000000005800000000000000008f40
:2039fc0004000001000000000000000000000001801af89020000000da800200009003a6ce
:163a1c005b000414602080f100000008033c1800000400080f10a6
:203a32000000000000c300000008003258000000000000000000008000000000000000108f
:203a5200f0c0000000000000000000000000000000037285000000000e000000000b00038e
:173a7200259000808000d00f00000091f003c1000000224100f00011
:203a8900000000000c302000000a7265a00000000000000000000000000000000000000040
:203aa900000000000052a80000000000000000000000000000001468000000000000a1a244
:163ac9005b0000000000000000030001000000000000741a0f00eb
:203adf000000000000c300800050a0ba580000000000000000000000000000000000000082
:203aff00000000000000828000000000000000000000000000000002800000000000000221
:173b1f00259000000000000000000000e00000000008078100f0007a
:203b3600000000000c30200007007265a00000000000000010000000000000400000000045
:203b5600000000000096028080000000000100000000000000003605d980001000000726e5
:163b76005b000a0400000000012820089b6950200000004c0800b7
:203b8c000000000000c30800000800b258000000000000000000000000000000000000003c
:203bac00000000000003402000000000000000000000000000000142bcf000000009000b93
:173bcc00a590004080000000000100f0d97d198008000394800000ee
:203be30001e0002fcc30200000007a3c2000013e00e066800000500000000000000000006b
:203c0300000000059b7303e0000000000000000000000000000000000000000000f801a210
:163c23005b200200000000000000010c03bc10000000040000002e
:203c390000100001c0c30800000000003c14000ae000f66000000000000000000000380007
:203c59000000000070a0603c00000000000000000000000000000000000000000007000a8e
:173c7900259100000030000000010000c043c1400000c2c0000000c7
:203c900000000001ec30200000007800200000007048968038020000000000e00000008fc8
:203cb0000400000b817783e000000000000000070000000000000600000000380000e7a6b8
:163cd0005b00e0000041af040380081c03bc180e0080001e0f0076
:203ce6000000000000c3080000000000000000080000c960020000000000000800000010a8
:203d0600f0400000f0f0303c000000000000000008000000000000200000000200001002e5
:173d2600e5920800003c00f0482030100003c10080e4000100f0100a
:203d3d0004080001cc302003800078002000000e7d4896800005000000000000000701af7d
:203d5d00040000039d5283e000000000000000000076280020000000000000008000012688
:163d7d005b000000400000000000001e0000000000000400000073
:203d93000021000000c3080000000080000000002742e960000000000000000000004000b2
:203db300f04000001880a43c00000000000000000000828000000000000000000000000343
:173dd30065920000000000000000000190000000000243000000000c
:203dea0001000001ec302000000078002000018e01e896800000000000000000000000afa6
:203e0a00040000019d1a83e80000000000000005000000000000000000000000008003a643
:163e2a005b20000360018f040000000000000000000600fa800888
:203e40000000000000c308000000008000000014400289600000000000000000001c0010ac
:203e6000f04000000080e43c0000000000000000000000000000000000000000000f0f0b49
:173e8000e5920000063c10f0400000000000000000000016e000003c
:203e9700000000000c322010000070002000001c3968968000000000000000000200000038
:203eb700000000018c7e43e000000000000000000000000000000001d8a00000000083269b
:163ed7005b040000003da5540400000112e8d04000000000000031
:203eed000000000000c300028000000000000001e400c9600000000000000000002400003e
:203f0d00000000000880203c00000000000000000000000000000000000a00000000000b9b
:173f2d00659200020000c05a50000000f9600c0400000000000000b1
:203f44000001c0000c322000000070002000001c716996800000000000000000000000cfd3
:203f640004000001805e83e00000000000000000000000000000000000000000005813a6e6
:163f84005b000003c3b494740010100007bc1000022000e94741c4
:203f9a000000020000c3000000000000000000002400d960000000000000000000000000e5
:203fba00f04000000800603c000000000000000000000000000000000000000000000a0aff
:173fda00a59800003542db4f610202f00043c104000343f5f4f7006f
:203ff100040800000c302000050a70002000011e78689680000000010295000400000000f8
:2040110000000009985816a000000000000000000187a8000000200000000000000003a6e7
:164031005b0000020001cf04000007001a11d00000000000000046
:204047000021000000c300800050a080000000080002b960000000000029720020000000a7
:20406700000000001105be94000000000000000000e5414000000140000000000000000327
:17408700659200002c0000f040010008fbed3d4200224000000000fd
:20409e000001c001ec3020000d9b70002000000079489680100000000000004000000000a5
:2040be000000000b187b43e0000000000000000001000000000000000000001008b80ba3a2
:1640de00c1044400000000000100001e073c1804a000285d53408d
:2040f4008000020000c300400050a080000000000000d9600000000000000000000000007e
:20411400000000001000f03c000000000000000000b000000000000000000000000f0f7809
:1741340003d0408000000000000000000003c100040003f4f5b61067
:20414b0004000037ac302000000078002000002001c8968000000000000000000000000086
:20416b0000000000007343e000000000000000000000000000000000d8a040800000000066
:16418b00000000000007a5500400078c96bdc010011c3c0000000f
:2041a10000b0000170c300000000000000100002c000f960400000000000000000000000af
:2041c1000000000000007c3c10000000000000000000000000000000010a04000000000007
:1741e100000000000003c05a000000010baffc010060e7c0000000eb
:2041f80000000014ac302000000078002000000000499680000000000000000000000000a0
:20421800000380000077c3e00000000000038000000000000e0000780000003800000000a8
:16423800000000e1c00000000380200e00000000003678680a00fe
:20424e000000000000c3000000000000000000000000d96000000000000000000000000054
:20426e00000020000000303c00000000000020000000000000800000000000020000000002
:17428e00000000000000000000200401000000000003e40100a0006c
:2042a50000084017ac30200003807800200000007d489680000000000000000000000000a8
:2042c5000000000000023c104000000000000000000000000c00000000000030000003b15b
:1642e50069000000000000000300000817e05800002e69680002ff
:2042fb000001400030c3000000000080000000000742e9600000000000000000000000005d
:20431b0000000000000003c10000000000000000000000000040000000000003000000b0cb
:17433b0028120000000000000010000107328400000144070800000f
:204352000100c014ac302000000078002000001601e89680000000000000000000000000cd
:20437200000000000000000000000000000000000000000000000000000000040000000027
:1643920000000000000000000040080000000000805e055f5a0031
:2043a8000000022000c3000000000080000000000000b96000000000000000000000000077
:2043c8000000000000000000000000000000000000a00000000000000000000040000000f5
:1743e800000000001400000000040070000000000408236491008092
:2043ff0000c00017ac3020100000023c0000000001489680003800000000000000000000e6
:20441f00000000000c00000000000000000000000100000000001c040000000000781000c8
:16443f00000000000000000000000000000000004000026a0000bb
:204455000000000030c3000280008003c0000001c002c960000000000000000000000000a3
:204475000000000000000000000000000000000000d00000000000230000000000000f0025
:17449500000000000000000000000000a00000000a00001ea0800028
:2044ac0000000014ac3020000018b2954001000039e8968000000000000000000000000009
:2044cc00000000018000000000000000000000001800000000000000000000000010000027
:1644ec00000000e00000000000001000000000000024035a080041
:204502000000000000c3000000010b82a80000000402b96000000000000000000000000081
:20452200000000000800000000000000000000000000000000000000000000000000000071
:174542000000000000000000000002109000000000e2e00680000078
:2045590004080017ac302000000000000000001e794896800000000000000000000000002e
:20457900000010098000000000000000000000078000000000000000000000000000e00022
:164599000000000006800000000003801fe05440010002ea02027f
:2045af000021400030c300000000000000000003c002b960000000000000000000000000ba
:2045cf000000000010000000000000000000000000000000000000000000000000000000bc
:1745ef0000000000004000000000000807b284000008000c0000001c
:2046060000000000ac3020000d9b00000000001c71689680000000000000000000000000e5
:20462600000100030e000000000000000001000000f370d01400000000000010000000000a
:1646460000000800000000000110000000000000a006000000009f
:20465c000000000000c300000050a000000000402400b9600000000000000000000000000e
:20467c0000000000010000000000000000000000000b6f2d00000000000000000000000076
:17469c000000004000000000000080500000000004000000000000f3
:2046b300000000000c30200000000000000000160049960000000000000000000000000096
:2046d300000000000000000000000000000000000000000000000006f8c340000038072c5b
:1646f3003e000200001eaa04000000009ecc1800003e00fae30008
:204709000010000000c3000000000000000000000000c96054000000000000000000000040
:20472900000000000000000000000000000000000000000000000003d6ac0410000180074f
:1747490083c00040403e50f0400000000f20e0400003e2bf8c300029
:20476000000000000c302000000effb180000000000000000000000000000000000000009f
:2047800000000000000000000000000000038000000000000e000e037fb040000059b72ccc
:1647a0003e00e00000668a5403a00f0000000000042024583c0a09
:2047b6000000000000c30000000009b8d80000000000000000000000000000000000000087
:2047d60000000000000000000000000000002000000000000080002004dd041000000a07fd
:1747f600c3c008000025f0a040200098000000000000439601c000da
:20480d00000000000c3020000000000000000000000000000000000000000000000000002f
:20482d000000000000000000000000000000010000bfec1800001e02f8c3400000d9b705f7
:16484d006a00400003c0ea048300001e0000000104146818f302cb
:204863008000000000c30000000000000000000000000000000000400000000000000000b2
:204883000000000000000000000000000000000000076f810400002016dc041000050a5a8b
:1748a300e9400c00002640504010000100000000100346410f3000e9
:2048ba00000000000c30200000000000000000000000000000000000000000000000000082
:2048da00000000000000000000004000000000000a00000000001c036fb0400000189770d7
:1648fa003e0000140000000000200000ffbc1800002000ee08004d
:204910000000000000c30000000000000000000000000000000000000000000000000000c4
:2049300000000000000000000000000000000000000000000000000005dd04100301180b4a
:1749500003c0000080380000000000f0018140040001c284e00000f8
:20496700000000000c302000000000000000000000000000000000000000000000000000d4
:204987000000000000000000000000000000008000000000000000040000000000d807e0cd
:1649a7003e0000000001ac0400000901b7b01000000001da50005f
:2049bd000000000000c3000000000000000000000000000000000000000000000000000017
:2049dd000000000000000000000000000000000000000000000000030000000002050007a9
:1749fd0003c00000000019c0410028b8a3330a0100000001050000ff
:204a1400000000000c30200000000000000000200000000000000000000000000000000006
:204a340000000000007ba800000000000000000100000000000000637fb04100018005e005
:164a54003e00000166a4ff14000008005760504000006000000041
:204a6a000000000000c3000000000000000000024000000000000000000000000000000027
:204a8a0000000000000002800100000000000000000000000000000405dd0400002f00066a
:174aaa0003c000000001fdf34000285003ba84000001c00000000087
:204ac100000000000c30200008000000000000000000000000000000000000000000000071
:204ae100000000078000000000000000000000000000000000000e3af8c34100009995a814
:164b01003e000000030fe00400000100fb3e9844000e635e18006d
:204b17000000000000c300000090000000000000000000000000000000000000000000002b
:204b3700000000000000000000000000000000000000000000000020169c04000001080a75
:174b570003c000000443c9a1400000000303c0000001e027b04000d5
:204b6e00000000000c3020000588000000000000000000000000000000000000000000003e
:204b8e00000000030000000000000000000110010000000004001c736fb0410000d99f8502
:164bae006a0040160000000001280f0877605040000403ea400257
:204bc4000000000000c3000000090000000000000000000000000000000000000000000005
:204be4000000000008000000000000000000000000e000000000000404dd040000010a1abb
:174c0400a9400000ac00000000000071033a8600000023d4000000d9
:204c1b00000000000c3020000000000000000000000000000000000000000000000000001d
:204c3b0000000000000000000000010000000000180000000020403a680000000080e730a7
:164c5b003e0000600041ef0480000009563c1800001c007b7f0028
:204c71000000000000c3000000000000000000000000000000000000000000000000000060
:204c91000000000000b0000000000000000000000000000000000004370a000000071002f5
:174cb10083c10000003800f040000000974280000004200f8ff01025
:204cc800000000000c30200000000000000000000000000000000000000000000000000070
:204ce8000000000000000000000000000003800800000000000000735a0020400078173035
:164d08003e00e210000edf140380080836b0100020207bcaf40260
:204d1e000000000000c30000000000000000000000000000000000000000000000000000b2
:204d3e000000000000000000000000000000200070000000000000002700a18000090f065f
:174d5e0043c008408000daf3482018b1032b80840403c40c0fc0108d
:204d7500000000000c302000000000000000000000000000000000000000000000000000c2
:204d950000000000000000000000000000000000180000000000003800000000007995346c
:164db5003e0040034614ead60100000e523c1800000e000000008a
:204dcb000000000000c3000000000000000000000000000000000000000000000000000005
:204deb00000000000000000000000000000000000000000000000004000000000001080e8d
:174e0b0003c004002641cabd401000310743e8040400200000000000
:204e2200000000000c30200000000000000000000000000000000000000000000000000014
:204e420000000000000000000000000000000000187ba95000a0003800000000001815744b
:164e62003e000a020000ef040000010000000000401604000000a2
:204e78000000000000c3000000000000000000000000000000000000000000000000000057
:204e9800000000000000000000000000000000000009391900000004000000000000080a89
:174eb80003c00040240010f04000000800000000020023c00000008f
:204ecf00000000000c30200000000000000000000000000000000000000000000000000067
:204eef00000000000000000000000000000000058100000000010028eca000000038a7f495
:164f0f003e000202e041ca0600020900d33d580000800000000066
:204f25000000000000c3000000000000000000000000000000040000000000001000000095
:204f45000000004000000000000000000000004008b0000000010000010a000004009b0366
:174f650083c000141435505040004050010168000102400000000078
:204f7c00000000000c302000000000000000000000000000000000000000000000000000b9
:204f9c00000000010082280020000000000000000056a800000006015a5000028050a5f410
:164fbc003e0002016694ca0400000000773c10000e0e00000000f7
:204fd2000000000000c30000000000000000000010000000000000000000000000000000ec
:204ff200000000000003414080000000000000000000c2802000c00003050000100d9b07b2
:17501200c3c000001c0000a0400000b005014004000000000000000e
:20502900000000000c3020000000000000000000000000000000000000000000000000000b
:205049000000000000000000000000000000000901fbbcd0800000000cc00200009805f0db
:165069003e0000816701ca040000058000000000000e00000000a9
:20507f000000000000c300000000000000000000000000000000000000000000000000004e
:20509f000000000000000000000000000000000050e1c3ed80000400010c00000001000e70
:1750bf0003c000001401405041000000000000000000200000000011
:2050d600000000000c3020000000000000000000000000000040000000000001000000001d
:2050f60000000400000000000000000000010405815b291000b000000000000040d987e047
:165116003e0041160014aa040104000072bc10401140001af50049
:20512c000000000000c30000000000000000000000000000000000000000000000000000a0
:20514c000000000000000000000000000000000000b3e5d1000400000000000000010a0ebd
:17516c0083c00000940010a06000000005414000000800040fa08084
:2051830000000000000000000000000000000000000000000000000000000000000000000c
:2051a3000000000000000000000000000000000000584020000000040000000000001538e3
:1651c3003e00000060400000000000009e8200000000000ef0409a
:2051d9000000000000000000000000000000000000000000000000000000000000010000b5
:2051f9000000000000000000000000000000000000003000000000038000000000000f02d2
:17521900c3c1000002240000000000500d600020000000000f0400e4
:2052300000000000000000000000000000000000000000000000000000000000000000005e
:2052500000038000000000000000000000000008003a3c201e003402602408380098070561
:165270006a00e00000348af00008051e0000000e0c0000000000eb
:20528600000000000000000000000000000000000000000000000000000000000000000008
:2052a60000002000000000000000000000000000b000803c008002c004de7002000700328d
:1752c600294008000003d05a090100010000000080000000000000a8
:2052dd000000000000000000000000000000000000000000000000000000000000000000b1
:2052fd0000000000005394100000000000000000005a25a010000001eec340100081953c17
:16531d003e0040006780000000000000000000050200000000000e
:2053330000000000000000000000000000000000000000000000000000000000000000005a
:20535300000000001000414321000000000000000000b6580000200027ec04010001180f17
:1753730043c00c0002400000000000000000000000000000000000d2
:20538a00000000000000000000000000000000000000000000000000000000000000000003
:2053aa0000000000000000000100000000000008011a3c20000000004db040000080002383
:1653ca00c0800000000000000000000b0000000000000000000082
:2053e0000000000000000000000000000000000000000000000000000000000000000000ad
:20540000000000000000000000000000000000009090003c200000003ffd0400000f0000c1
:175420003c0000000000000000000050d000000000200000000000f9
:20543700000000000000000000000000000000000000000000000000000000000000000055
:2054570000000000000000000000000000000000007a3c20000c0069eec3400100500000a8
:165477000000000000000000000005000603c80010000000000039
:20548d000000000000000000000000000000000000000000000000000000000010000000ef
:2054ad00000000400000000000000000000000401080803c02010002e7fc04000c0080009b
:1754cd00000000100000000000004000a0403c00010000000000005b
:2054e4000000000000000000000000000000000000000000000000000000000000000000a8
:2055040000000000000000000000000000000000000265a0000000005db0400000001063c0
:16552400c1000000000000000000000000000000000000000000b0
:20553a00000000000000000000000000000000000000000000000000000000000000000051
:20555a0000000000000000000000000000000000108039a404000342fefd04000000080074
:17557a003c10000000000000000000000000000000000000000000ce
:205591000000000000000000000000000000000000000000000000000000000000000000fa
:2055b10000000000010000000000000000000000000225a000001429efc340000018006b60
:1655d100c10000000005ea540000000a369fc00000000000000021
:2055e7000000000000000000000000000000000000000000000000000000000000000000a4
:2056070000000000008000000000000000000000008031a404000027a7ec0400000d0b00d4
:175627003c1000000002505f400000000b3ffc210003c00000000005
:20563e0000000000000000000000000000000000000000000000000000000001000000004b
:20565e0000010400000000000000000000004400000225a0041014045db040104000000053
:16567e00000041000040000000040000000000055c000000000030
:205694000000000000000000000000000000000000000000000000000000000000000000f6
:2056b4000000000000000000000000000000000010803da4020000237ffd040000000000c0
:1756d400000000000028000000000000000000001a0000000000007d
:2056eb0000000000000000000000000000000000000000000000000000000000000000009f
:20570b0000000000000000000000000000000000197a3c2000002062cc834000107807fff0
:16572b00c5000002e025c0800000000000000000001c0000000040
:20574100000000000000000000000000000000000000000000000000000000000000000048
:20576100000000000000000000000000000000000190003c100001403ecc2400000088b79d
:175781003cd000022600cd00000000000000000000016000000000af
:205798000000000000000000000000000000000000000000000000000000000000000000f1
:2057b800000380001e000000000000000000000999123c200e000001eeb0403800000b7b75
:1657d800c500000000058050000100000000000e000000ccf54011
:2057ee0000000000000000000000000000000000000000000000000000000000000000009b
:20580e00000020000100000000000000000000009990803c008000000ede04020000007a88
:17582e003cd00000003810050002000000000000800000060a530025
:20584500000000000000000000000000000000000000000000000000000000000000000043
:205865000000100001000000000000000000000000123c2000000002cc83403000188377d1
:165885002d800202463fafa020000000000000040000384af040b2
:20589b000010000000000000000000000000000000000000000000000000000000000000dd
:2058bb000000028000f0000000000000000000000000803c000000003edc24032000905a54
:1758db00b9d000000600f0f20800000000000000c000400c0fa01072
:2058f200000000000000000000000000000000000000000000000000000000000000000096
:2059120000000000180000000000000000000000001a3c2000a0406aeea740c00070032273
:16593200810000020255c0a00000a10000000000048101ecf540dd
:2059480000000000000000000000000000000000000000000000000000000000000000003f
:20596800000000000000000000000000000000000000003c000408003f95a4100380000cc0
:175988002810000e1c24d0000002000800000000000400040a501036
:20599f0000000000000000000000000000000000000000000000000000000000e000000008
:2059bf0000000000000000000040000000000000001a3c2000000e72cc8340000000f7f814
:1659df00050400004001e010200000010000000000200000000037
:2059f500000000000000000000000000000000000000000000000000000000000000000092
:205a1500000000000000000000020000000000000000003c00000362fe8c2408000f1ab738
:175a350000d000000020500220000000b00000000800c2000000007e
:205a4c0000000000000000000000000000000000000000000000000000000000000000003a
:205a6c0000000000010000000000000000000000001a3c2000000004000000000070072bfd
:165a8c00c10000004034e80000000009f701402000040000000082
:205aa2000000000000000000000000000000000000000000000000000000000000000000e4
:205ac200000000000080000000000000000000000000803c0000000380000000000f80b4c2
:175ae2003e98000006216a0008000001fbc000000000000000000082
:205af90000000000000000000000000000000000000000000000000000000000000000008d
:205b19000000000000d669d00000000000000020001a3c2000001428000000000071e03208
:165b3900810100006021e4302800000e0000000000007000000099
:205b4f00000000000000000000000000000000000000000000000000000000000000000036
:205b6f0000000000000df40d20000000000000000000803c00000024000000000000807414
:175b8f00141000000003408300000001000000000000040000000010
:205ba6000000000000000000000000000001000000000000000000000000000000000000de
:205bc600000100001d5ffcd420000000000000081a7a3c20040c0071fab0401000d81000f7
:165be6000000080000400000000000005b2800140084024e5a019b
:205bfc00000000000000000000000000000010000000000000000000000000000c0000006d
:205c1c000000000001bdffdd00000000000000005000803c00000003cfde041000050a00ef
:175c3c00000000003c38000000000000004280000014000d05a00055
:205c530000000000000000000000000000000000000000000000000000000000000600002b
:205c73000000030000000000000000000000008000523c2000002061dc0f80000000107272
:165c930081000401e38400080000000053f0d000001e04fcfa00db
:205ca9000000000000000000000000000000000000000000000000000000000000000000db
:205cc900000002000000000000000000000000000400003c100002460180f0000000099017
:175ce900141800003c40000002000000b5bf010000000226d5000088
:205d0000000000000000000000000000000000000000000000000000000000e00000400063
:205d20000000000000000000000000000000000000523c2000000435cb0f8038008000006a
:165d400000000000401cf0f803800000522c100e000000000000ea
:205d5600000000000000000000000000000000000000000000000000000000080000240001
:205d7600000000000000000000000000000000000000003c000000238180f00210090000a2
:175d96000000000002001c0f002000d0b76f410080000000000000f2
:205dad000000000000000000000000000000000000000000000000000000000000000000d6
:205dcd00000000001a0000000000000000000009815215400000067d5a0f80100000807ff0
:165ded00810008000654e0f80000070a72a0d0040000000cf048aa
:205e03008000000000000000000000000000000000000000000000000000000000000000ff
:205e230000000000000000000000000000000200989081540000026602a0f00300000092d1
:175e4300341000c000202c0f00002801956f0500000000010f069809
:205e5a0000000000000000000000000000000000000000000000000000000000000027ee13
:205e7a00270000010056a80000008000000000000077a80000002601d90f80010090033ae6
:165e9a0081002000605415a80000550a562c1000000001fefa00f6
:205eb00000000000000000000000000000000000000000000000000000000000000000f9d9
:205ed000a140000000008280000000000000000800004280000001c003c0f0002003000c62
:175ef000281000000020eda500000109072f41000000003e8500006d
:205f0700000000000000000000000000000000000000000004000000000000000000000076
:205f2700000000000000000000000000000010000c00000000001c05ec0f80000000006c36
:165f4700e1200001669ef0f80000000072e0d00000007e4fac00bb
:205f5d00000000000000000000000000000000000000000000000000000000000000000024
:205f7d0000000000000000000000000000000000f10000000000000280d0f0000000089237
:175f9d000d10000024001d0f00000070056b05000000029df5c01037
:205fb4000000000000000000000000000000000000000000000000000000000001c000000c
:205fd400000000000000000000000000000000000c000000000036757d0f80000070c9a20f
:165ff40095000003e3d605a800002000562c10020c1e3cfcaf00d4
:20600a00000000000000000000000000000000000000000000000000000000000002000074
:20602a000000000000000000000000000000000000000000000002c60090f000000080b4da
:17604a00141000001676c9a500001500076f41000003e63e005000de
:2060610000000000000000000000000000000000000000000400000000000000000000001b
:206081000000000000000000000000000000000700370140400026604b0f80000001e07a85
:1660a10081000002677605a80000000072e0d0000000041e0f0089
:2060b7000000000000000000000000000000000000000000000000000000000000000000c9
:2060d700000000000000000000000000000000000803c0000000004002d0f000000000b428
:1760f700141000801468e8a500000090056f05000000020100f000e9
:20610e000000000000000000000000000000000000000000000000000000004000038000ae
:20612e00000000000000000000000000000000000883040040002065e90f80100000036a08
:16614e0081000003661ff0f80100200e532c1044000c205c8b0233
:2061640000000000000000000000000000000000000000000000000000000000000000001b
:2061840000000000000000000000000000000000010b34808600004383f0f00041090808b5
:1761a400281000000400280f00000000072f4100000023c208b0104d
:2061bb000000000000000000000000000000000000000000000000000000000000000000c4
:2061db00000000000a00000000000000000000000007bc1000000061ce0f8000001815f2ea
:1661fb0080000000005da0f80000000a3840200000000400000073
:2062110000000000000000000000000000000000000000000000000000000000000000006d
:2062310000000000000000000000000000000000000043c10000000401f0f04000000f0c09
:17625100280000000038190f04000050a03c0000006003c00000005b
:20626800000000000000000000000000000000000000000000000000000000000000000016
:20628800000380000000000000000000000380000000000000000065df0f80380000013ba9
:1662a8000d080002005db0f800030500123c200e0080006e004012
:2062be000000000000000000000000000000000000000000000000000000000000000000c0
:2062de000000200000000000000000000000200200000000000000064090f0020000001c7a
:1762fe0032d450003c281a0f00000050a0003c04801240340a050061
:20631500000000000000000000000000000000000000000000000000000000000000000068
:206335000000000500000000000000000003000000000000004020655d0f8000000180000e
:16635500000000000655c0f8000005003225a004a140015c5a4047
:20636b00000000000000000000000000000000000000000000000000000000000000000012
:20638b0000000000180000000000000000003000000000000002014203c0f00000010000b1
:1763ab00000000003c203f0f0000380000aa58004008025e05050045
:2063c2000000000000000000000000000000000000000000000000000000000000000000bb
:2063e200000000018000000000000000000000000000000000000665405a8000000007afdf
:1664020045800002665580f800038000123c200000000000000099
:20641800000000000000000000000000000000000000000000000000000000000000000064
:206438000000000000000000000000000000000000000000000002420e9a50000000085ea2
:17645800e85020001c643f0f0000000000803c00000000000000004b
:20646f0000000000000000000000000000000000000000000000000000000000000000000d
:20648f00000000000000000000400000000003800000000000000e75ed0f800010000839da
:1664af0040020000001e15a80001800a123c20000000014e006012
:2064c5000000000000000000000000000000000000000000000000000000000000000000b7
:2064e5000000000000000000000a00000000000000000000000000278190f000000000b4b1
:17650500280800001c38c8a50000000000803c000000001e050400ab
:20651c0000000000000000000000000000000000000000000000000000000000000000005f
:20653c0000000000005ab0d840000000000000000000000000002e3b615a80030000e00096
:16655c0000000000c296d0f8001005001a3c200005163000000033
:20657200000000000000000000000000000000000000000000000000000000000000000009
:20659200000000000005271d00000000000000080000000000000362ccaa50000000180055
:1765b200000000001e781c0f0002000800003c000000e000000000eb
:2065c9000000000000000000000000000000000000000000000000000000000000000000b2
:2065e900000000000000000000000000000000001c00000000002673605a80000071e93b0e
:166609000d00000267be15a8000000001a3c2000401c015c00401b
:20661f0000000000000000000000000000000000000000000000000000000000000000005b
:20663f00000000000000000000000000000000000100000000000042beda500000009eb7bb
:17665f00b0120000047ceea50000000000003c000202401f050500a6
:20667600000000000000000000000000000000000000000000000000000000000000000004
:20669600000100000000000000000000000100000000000000003c717c0f80100000e0003a
:1666b60000000222c65fc0f80000000e1a3c2004000000ee004017
:2066cc000000000000000000000000000000000000000000000000000000000000000000ae
:2066ec000000000000000000000000000000000000f000000000004403a0f00000001000b7
:17670c000000004004203a0f0000000100803c00000000340a0600c8
