:02000000ff00ff
:080002004c6174746963650030
:17000a00694345637562653220323032302e31322e32373934330071
:15002100506172743a2069434534305550354b2d53473438002c
:1b003600446174653a204d617220313120323032352032333a35313a34330086
:0200510000ffae
:040053007eaa997e6a
:02005700510056
:0200590001059f
:03005b00920020f0
:03005e006202b388
:03006100720150d9
:0300640082000017
:02006700110086
:02006900010193
:20006b00000000000000000000000010000000000000400000000000010000000000000420
:20008b000000000000001000000000000040000000001000000000000040000000000001b4
:1600ab0000000000000004000000000000100000000000004000eb
:2000c1000000000000000000000000020000000000000800000000000020000000000000f5
:2000e10080000000000002000000000000080000000002000000000000080000000000006b
:1701010020000000000000800000000000020000000000000800003d
:200118000000000000000000000000000000000000000000000000000000000000000000c7
:200138000000000000000000000000000000000000000000000000000000000100000000a6
:160158000000000000000000000000000000000000000000000091
:20016e00000000000000000000000000000000000000000000000000000000000000000071
:20018e00000000000000000000000000000000000000000000000000000000000000000051
:1701ae0010000000000000000000000000000000000000000000002a
:2001c50000000000000000000000000000000000000000000000000000000000000000001a
:2001e5000000000000000000000000000000000000000000000000000000000000000000fa
:1602050000000000000000000000000000000000000000000000e3
:20021b000000000000000000000000000000000000000000000000000000000000000000c3
:20023b0000000000000000000000000000000000000000000000000000000000000004009f
:17025b0000000000000000000000000000000000000000000000008c
:2002720000000000000000000000000000000000000000000000000000000000000000006c
:20029200000000000000000000000d0000000000000000000000000000000000000004003b
:1602b2000000000000000000000000000000000000000000000036
:2002c800000000000000000000000000000000000000000000000000000000000000000016
:2002e8000000000000000000000000000000000000000000000000000000000000000000f6
:170308000000000000000000000000000000000000000000000000de
:20031f000000000000000000000000000000000000000000000000000000000000000000be
:20033f000000000000401000000000000000000000401000000000010040000000000800b5
:16035f000000000000000000000000000000000000000000000088
:20037500000000000000000000000000000000000000000000000000000000000000000068
:20039500000000000000000000000000000000000000000000000000000000000000000048
:1703b500000000000000000000000000000000000000000000000031
:2003cc00000000000000000000000000000000000000000000000000000000000000000011
:2003ec00000000000000000000000000008000000000000000000000000000000000000071
:16040c0000000000000000000000000000000000000000000000da
:200422000000000000000000000000000000000000000000000000000000000000000000ba
:20044200000000000000000000000000000400000000000000000000000000000000000096
:1704620000000000000000000000000000000000000000000400007f
:20047900000000000000000000000000000000000000000000000000000000000000000063
:20049900000000000000000000000000000000000000000000000000000000000000000043
:1604b900000000000000000000000000000000000000000000002d
:2004cf0000000000000000000000000000000000000000000000000000000000000000000d
:2004ef000000010000000000000000000000010000400000000400010000000000000000a6
:17050f000000000000000000000000000000000000000000000000d5
:200526000000000000000000000000000000000000000000000000000000000000000000b5
:200546000000100000400000000000000000100000400000000000010000000000000000f4
:1605660000000000000000000000000000000000000080000000ff
:20057c0000000000000000000000000000000000000000000000000000000000000000005f
:20059c0000000000000000000000000000000000000000000000000000000000000000003f
:1705bc000000000000000400000000000000000000003000000000f4
:2005d300000000000c302000000000000000000000000000000000000000000000000000ac
:2005f3000000000000000000000000000000000000000000000000000000000000000000e8
:1606130000000000000000000000000000000000000000000000d1
:200629000000000000c30000000000000000000000000000000000000000000000000000ee
:20064900000000000000000000000000000000000000000000000000000000000000000091
:1706690000000000000000000000000000000000000000000000007a
:20068000000000000c302000000000000000000000000000000000000000000000000000fe
:2006a00000000000000000000000000000000000000000000000000000000000000000003a
:1606c0000000000000000000000000000000000000000000000024
:2006d6000000000000c3000000000000000000000000000000000000000000000000000041
:2006f6000000000000000000000000000000000000000000000000000000000000000000e4
:170716000000000000000000000000000000000000000000000000cc
:20072d00000000000c30200000000000000000000000000000000000000000000000000050
:20074d0000000000000000000000000000000000000000000000000000000000000000008c
:16076d000000000000000000000000000000000000000000000076
:200783000000000000c3000000000000000000000000000000000000000000000000000093
:2007a300000000000000000000000000000000000000000000000000000000000000000036
:1707c30000000000000000000000000000000000000000000000001f
:2007da00000000000c302000000000000000000000000000000000000000000000000000a3
:2007fa0000004000000000000000000000004000000000000000000000000000000000005f
:16081a0000000000000000000000000000000000000000000000c8
:200830000000000000c30000000000000000000000000000000000000000000000000000e5
:20085000000000000000000000000000000000000000000000000000000000000000000088
:17087000000000000000000000000000000000000000000000000071
:20088700000000000c302000000000000000000000000000000000000000000000000000f5
:2008a700000000000000000000000000000000000000000000000000000000000000000031
:1608c700000000000000000000000000000000000000000000001b
:2008dd000000000000c3000000000000000000000000000000000000000000000000000038
:2008fd000000000000000000000000000000000000000000000000000000000000000000db
:17091d000000000000000000000000000000000000000000000000c3
:20093400000000000c30200000000000000000000000000000000000000000000000000047
:20095400000000000000000000000000000000000000000000000000000000000000000083
:16097400000000000000000000000000000000000000000000006d
:20098a000000000000c300000000000000000000000000000000000000000000000000008a
:2009aa0000000000000000000000000000000000000000000000000000000000000000002d
:1709ca00000000000000000000000000000000000000000000000016
:2009e100000000000c3020000000000000000000000000000000000000000000000000009a
:200a01000000000000000000000000000000000000000000000000000000000000000000d5
:160a210000000000000000000000000000000000000000000000bf
:200a37000000000000c30000000000000000000000000000000000000000000000000000dc
:200a570000000000000000000000000000000000000000000000000000000000000000007f
:170a7700000000000000000000000000000000000000000000000068
:200a8e00000000000c302000000000000000000000000000000000000000000000000000ec
:200aae00000000000000000000000000000000000000000000000000000000000000000028
:160ace000000000000000000000000000000000000000000000012
:200ae4000000000000c300000000000000000000000000000000000000000000000000002f
:200b04000000000000000000000000000000000000000000000000000000000000000000d1
:170b24000000000000000000000000000000000000000000000000ba
:200b3b00000000000c3020000000000000000000000000000000000000000000000000003e
:200b5b0000000000000000000000000000000000000000000000000000000000000000007a
:160b7b000000000000000000000000000000000000000000000064
:200b91000000000000c3000000000000000000000000000000000000000000000000000081
:200bb100000000000000000000000000000000000000000000000000000000000000000024
:170bd10000000000000000000000000000000000000000000000000d
:200be800000000000c30200000000000000000000000000000000000000000000000000091
:200c08000000000000000000000000000000000000000000000000000000000000000000cc
:160c280000000000000000000000000000000000000000000000b6
:200c3e000000000000c30000000000000000000000000000000000000000000000000000d3
:200c5e00000000000000000000000000000000000000000000000000000000000000000076
:170c7e0000000000000000000000000000000000000000000000005f
:200c9500000000000c302000000000000000000000000000040000000000000000000000df
:200cb50000000000000000000000000000000000000000000000000000000000000000001f
:160cd5000000000000000000000000000000000000000000000009
:200ceb000000000000c3000000000000000000000000000000000000000000000000000026
:200d0b000000000000000000000000000000000000000000000000000000000000000000c8
:170d2b000000000000000000000000000000000000000000000000b1
:200d4200000000000c30200000000000000000000000000000000000000000000000000035
:200d6200000000000000000000000000000000000000000000000000000000000000000071
:160d8200000000000000000000000000000000000000000000005b
:200d98000000000000c3000000000000000000000000000000000000000000000000000078
:200db80000000000000000000000000000000000000000000000000000000000000000001b
:170dd800000000000000000000000000000000000000000000000004
:200def00000000000c30200000000000000000000000000000000000000000000000000088
:200e0f000000000000000000000000000000000000000000000000000000000000000000c3
:160e2f0000000000000000000000000000000000000000000000ad
:200e45000000000000c30000000000000000000000000000000000000000000000000000ca
:200e650000000000000000000000000000000000000000000000000000000000000000006d
:170e8500000000000000000000000000000000000000000000000056
:200e9c00000000000c302000000000000000000000000000000000000000000000000000da
:200ebc00000000000000000000000000000000000000000000000000000000000000000016
:160edc000000000000000000000000000000000000000000000000
:200ef2000000000000c300000000000000000000000000000000000000000000000000001d
:200f12000000000000000000000000000000000000000000000000000000000000000000bf
:170f32000000000000000000000000000000000000000000000000a8
:200f4900000000000c3020000000000000000000000000000000000000000000000000002c
:200f6900000000000000000000000000000000000000000000000000000000000000000068
:160f89000000000000000000000000000000000000000000000052
:200f9f000000000000c300000000000000000000000000000000000000000000000000006f
:200fbf00000000000000000000000000000000000000000000000000000000000000000012
:170fdf000000000000000000000000000000000000000000000000fb
:200ff600000000000c3020000000000000000000000000000000000000000000000000007f
:201016000000000000000000000000000000000000000000000000000000000000000000ba
:1610360000000000000000000000000000000000000000000000a4
:20104c000000000000c30000000000000000000000000000000000000000000000000000c1
:20106c00000000000000000000000000000000000000000000000000000000000000000064
:17108c0000000000000000000000000000000000000000000000004d
:2010a300000000000c302000000000000000000000000000000000000000000000000000d1
:2010c30000000000000000000000000000000000000000000000000000000000000000000d
:1610e30000000000000000000000000000000000000000000000f7
:2010f9000000000000c3000000000000000000000000000000000000000000000000000014
:201119000000000000000000000000000000000000000000000000000000000000000000b6
:1711390000000000000000000000000000000000000000000000009f
:20115000000000000c30200000000000000000000000000000000000000000000000000023
:2011700000000000000000000000000000000000000000000000000000000000000000005f
:161190000000000000000000000000000000000000000000000049
:2011a6000000000000c3000000000000000000000000000000000000000000000000000066
:2011c600000000000000000000000000000000000000000000000000000000000000000009
:1711e6000000000000000000000000000000000000000000000000f2
:2011fd00000000000c30200000000000000000000000000000000000000000000000000076
:20121d000000000000000000000000000000000000000000000000000000000000000000b1
:16123d00000000000000000000000000000000000000000000009b
:201253000000000000c30000000000000000000000000000000000000000000000000000b8
:2012730000000000000000000000000000000000000000000000000000000000000000005b
:17129300000000000000000000000000000000000000000000000044
:2012aa00000000000c302000000000000000000000000000000000000000000000000000c8
:2012ca00000000000000000001000000000000000000000000000000000000000000000003
:1612ea0000000000000000000000000000000000000000000000ee
:201300000000000000c300000000000000000000000000000000000000000000000000000a
:2013200000000000000000000010000000000000000000000000000000000000000000009d
:17134000000000000000000000000000000000000000000000000096
:20135700000000000c3020000000000000000000000000000000000000000000000000001a
:20137700000000000000000000000000000000000000000000000000000000000000000056
:161397000000000000000000000000000000000000000000000040
:2013ad000000000000c300000000000000000000000000000000000000000000000000005d
:2013cd00000000000000000000000000000000000000000000000000000000000000000000
:1713ed000000000000000000000000000000000000000000000000e9
:20140400000000000c3020000000000000000000000000000000000000000000000000006c
:201424000000000000000000000000000000000000000000000000000000000000000000a8
:161444000000000000000000000000000000000000000000000092
:20145a000000000000c30000000000000000000000000000000000000000000000000000af
:20147a00000000000000000000000000000000000000000000000000000000000000000052
:17149a0000000000000000000000000000000000000000000000003b
:2014b100000000000c302000000000000000000000000000000000000000000000000000bf
:2014d1000000000000000000000000000000000000000000000000000000000000000000fb
:1614f10000000000000000000000000000000000000000000000e5
:201507000000000000c3000000000000000000000000000000000000000000000000000001
:201527000000000000000000000000000000000000000000000000000000000000000000a4
:1715470000000000000000000000000000000000000000000000008d
:20155e00000000000c30200000000000000000000000000000000000000000000000000011
:20157e0000000000000000000000000000000000000000000000000000000000000000004d
:16159e000000000000000000000000000000000000000000000037
:2015b4000000000000c3000000000000000000000000000000000000000000000000000054
:2015d4000000000000000000000000000000000000000000000000000000000000000000f7
:1715f4000000000000000000000000000000000000000000000000e0
:20160b00000000000c30200000000000000000000000000000000000000000000000000063
:20162b000000000000000000000000000000000000000000000000000000000000000f216f
:16164b0043000000000000000000000000000000000068000000de
:201661000000000000c30000000000000000000000000000000000000000000000000000a6
:201681000000000000000000000000000000000000000000000000000000000000000870d1
:1716a100015880000000000000000000000000000000000000000059
:2016b800000000000c302000000000000000000000000000000000000000000000000000b6
:2016d8000000000000000000000000000000000000000000000000000000003a00000f2188
:1616f8004302e01000000000038008000000000e0000000000000e
:20170e000000000000c30000000000000000000000000000000000000000000000000000f8
:20172e00000000000000000000000000000000180000000000000000000000021000003041
:17174e0001500800000000000020005000000000800000000000003b
:20176500000000000c30200000000000000000000000000000000000000000000000000008
:201785000000000000000000000000000000000000000000000000000000001000019d2175
:1617a50043000000000000000000000000000000000000000000eb
:2017bb000000000000c300000000000000000000000000000000000000000000000000004b
:2017db0000000000000000000000000000000000000000000000000000000001000008786d
:1717fb0001580000000000000000000000000000000000000000007e
:20181200000000000c3020000000000000000000000000000000000000000000000000005a
:201832000000000000000000000000000000000000000000000000000000000000181d2140
:1618520043001000000000000000000000295000000000000000b4
:201868000000000000c300000000000000000000000000000000000000000000000000009d
:201888000000000000000000000000000000000000000000000000000000000003000838fd
:1718a80001504100000000000000000003016800000000000000002b
:2018bf00000000000c302000000000000000000000000000000000000000000000000000ad
:2018df000000000000000000000000000000000000000000000000000000000000000fa139
:1618ff004302000000000a540000078000000000000000000000a9
:201915000000000000c30000000000000000000000000000000000000000000000000000ef
:2019350000000000000000000000000000000000000000000000000000000000040000701e
:17195500015000000003c05a0000000000000000000000000000000d
:20196c00000000000c302000000000000000000000000000000000000000000000000000ff
:20198c000000000000000000000000000000000000000000000000000000000000700da11d
:1619ac0043020000000000000000000000000000000000000000e0
:2019c2000000000000c3000000000000000000000000000000000000000000000000000042
:2019e2000000000000000000000000000000000000000000000000000000000000000030b5
:171a020001500000000000000000000000000000000000000000007c
:201a1900000000000c30200000000000000000000000000000000000000000000000000051
:201a39000000000000000000000000000000000000000000000080000000000100980da1c6
:161a59004300000007800000000000000000000000000008f05065
:201a6f008000000000c3000000000000000000000000000000000000000000000000000014
:201a8f000000000000000000000000000000000000000000000014000000000008010078a2
:171aaf0001540000000000000000000000000000000000010f0000bb
:201ac600000000000c302000000000000000000000000000000000000000000000000000a4
:201ae6000000000000000000000000000000000000000000000000000000001040f18fa16f
:161b0600430001000000000000040000063c12001000000000001d
:201b1c000000000000c30000000000000000000000000000000000000000000000000000e6
:201b3c00000000000000000000000000000000000000000000000000000000000001003850
:171b5c000150100000000000000000000003c000100000000000003e
:201b7300000000000c302800000000000000000000000000000000000000000000000000ee
:201b930000000000000000000000000000000000000000000000000000000000000007210a
:161bb30043000000000000000000000000000000000000000000d9
:201bc9000000000000c3000000000000000000000000000000000000000000000000000039
:201be90000000000000000000000000000000000000000000000000000000000001000b01c
:171c090001590000000000000000000000000000000000000000006a
:201c2000000000000c302380000003bc1800000000000000000000000000000000000000ee
:201c400000000000000000000000000000000000000000000e0000000000003a38000721dc
:161c6000430200020000000003800800000000000000000000009c
:201c76000000000000c3102020000003c14000000000000000000000000000000000000037
:201c960000000000000000000000000000000000000000000080000000000002100000f0ac
:171cb600015000000400000000200050000000000000000000000052
:201ccd00000000000c3020000000000000000000000000000000000000000000000000009b
:201ced000000000000000000000000000000000000000000000000000000003000019521f0
:161d0d0043000000000000000100000e000000000000000000006e
:201d23000000000000c31000000000000000000000000000000000000000000000000000cd
:201d430000000000000000000000000000000000000000000000000000000003000008b8bd
:171d63000150400000000000003000000000000000000000000000a8
:201d7a00000000000c3020000000000000002e00000000000080000000000000000000003f
:201d9a000000000000000000000000000000000000000000000000000000000000181521db
:161dba0043000000000000000000000000000000000000000000d0
:201dd0000000000000c310010000000000000000000000000000000000000000000000001f
:201df00000000000000000000000000000000000000000000000000000000000000008f8d3
:171e100001504000000000000000000000000000000000000000002a
:201e2700000000000c3020000000000000000000000000000000000000000000000000003f
:201e470000000000000000000000000000000000000000000000000000000000000007a1d3
:161e670043020000003dea500000000000000000000000000000a9
:201e7d000000000000c3100040000000000001000000000000000000000000000000000031
:201e9d000000004000000000000000000000004000000000000100000000000004000bb0e5
:171ebd0001500010000050aa00404000000000000100000000000032
:201ed400000000000c32200000000000000000000000000000000000000000000000000090
:201ef400000000000000000000000000000000000000000000002602fe054000000005a1bd
:161f14004302000000000000000000000000000000000000000072
:201f2a00000c000000c30000000000000000002000000000000000000000000000000000a8
:201f4a000000000000000000000000000000000000000000000001c00d0af400000000f0bb
:171f6a0001500000000000000000000000000000000000000000000f
:201f8100000000000c3020000780000000000000000000000000000000000000000000005d
:201fa10000000000000000000000000000000400000000000010000000000000009885a14e
:161fc10043040000000000000000000000000000000000000000c3
:201fd7000000000000c310000008000000000000000000000000000000000000000000000f
:201ff7000000000000000000000000000000000000000000000000000000000000010bb806
:17201700015000001c00000000000000f00000000000000000000055
:20202e00000000000c30210400000000000010000000000000000000000000000000000021
:20204e0000000400000000000000000000000400000000000410007800000010788187a1ad
:16206e0043020100000000000104000e1fa950401000000000009b
:202084000000000000c3004108000000000000000000000000000000000000000000000030
:2020a40000000000000000000000000000000000000000000000000400000000000100f81f
:1720c4000150000000380000000000000f41550000000000000000d7
:2020db00010000278c3028000500f7b50040000000000000000000000000000000000000e8
:2020fb0000000000000000000000000000000000000000000000000000000000000017218d
:16211b0043000014000000000000800000000000000000000000d7
:202131000010000370c3000000000d685c0000000000000000000000000000000000000077
:202151000000000000000000000000000000000000000000000000000000000000000a90d4
:172171000159002000000000000000000000000000000000000000dd
:2021880000000701ac30200000000000000000000000000000000000000000000000000033
:2021a8000000000000000000000000000000000000000000000014000000003a00700f2129
:1621c800430200000000000000005000000000000000000000006c
:2021de000000004010c31000000000000000000800000000000000000000000000000000b6
:2021fe0000000000000000000000000000000000000000000000000240000002100000105d
:17221e00015000000000000000003200000000000000000000000026
:20223500000000018c3024000500978000200000000000000000000000000000000000006c
:20225500000000000000000000000000000000000000000000000060180f00500001b521bb
:16227500430200000000000000000000000000000000000000000e
:20228b000000000010c3000000000d43fc0000000000000000000000000000000000000014
:2022ab000000000000000000000000000000000000000000000000000000f0030000189870
:1722cb000150000000000000000000000000000000000000000000ab
:2022e20001000701ac302040001a000000002000000000000000000000000000000000005d
:202302000000000000000000000000000000000000000000000000006af5000000181f2104
:162322004302000000000000000000000000000000000000000060
:202338000000004010c3100000000000000000000000000000000000000000000000000062
:202358000000000000000000000000000000000000000000000000000f0a008000000818ac
:172378000150000000000000000000000000000000000000000000fd
:20238f00000000000c302000000000000000000000000000000000000000000000000000d2
:2023af00000000000000000000000000000000000000000000001e006e743000000007a136
:1623cf0043020a00000000000008000000000000000000000000a1
:2023e5000000000000c3100000000000000000000000000000000000000000000000000005
:2024050000000000000000000000000000000000000000000000000001e7400000000090ff
:1724250001500040000000000000000000000000000000000000000f
:20243c00000000000c322000400000000000000000000000000000000000000000000000e2
:20245c000000000000000000000000000000000000000000000000000000000000000da1b2
:16247c0043020a00000000000000100000000000000000000000eb
:202492000000000000c3000000000000000000000000000000000000000000000000000067
:2024b2000000000000000000000000000000000000000000000000000000000000000010fa
:1724d200015000400000000000000200000000000000000000000060
:2024e900000000000c30200000000000000000000000000000000000000000000000000077
:2025090000000000000000000000000000000000000000000000040000000000009985a1ef
:162529004300000000000000000000000000000000000000000059
:20253f000000000000c3100000d000000000000000000000000000000000000000000000d9
:20255f00000000000000000000000000000000000000000000000022400000000001009861
:17257f000150100000000000000000000000000000000000000000e4
:2025960000000001ac30200000000000000000000000000000000000000000000000000028
:2025b6000000000000000000000000000000000000000000000000020ea0011000818fa193
:1625d60043040400000000000000000000000000000000000000a4
:2025ec000000000010c300010800e000000000000000000000000000000000000000000013
:20260c00000000000000000000000000000000000000000000000000040500140001001878
:17262c00015000a000000000000000000000000000000000000000a6
:202643000010004fcc302000000000000000000000000000000000000000000000000000fc
:202663000000000000000000000000000000000018572804000000604e08000000000721de
:16268300430000000040000000000000ff1480200000000000000b
:202699000010803270c300000000000000000000000000000000000000000000000000002c
:2026b90000000000000000000000000000000000000d43d4000000000fe00000200000b01e
:1726d90001530000003c0000000000b003af040000000000000000f4
:2026f0000000001fec3020000000000000000000000000000000000000000000000000006f
:2027100000000000000000000000000000000000000000000e202005fe02123902000721e1
:162730004302e000001fc0a003800380bafe002e000c00000000f7
:202746000000000030c3000000000000000000000000000000000000000000000000000080
:2027660000000000000000000000000000000000000000000080004382002002084000f0b4
:172786000150080a0000000a00200008d37de80080000000000000ef
:20279d000000000fcc302000000000000000000000000000000000000000000000000000f1
:2027bd00000000000000000000000000000000080f0000000c0080001cf040300001952126
:1627dd0043024001e01da40023000018b3bd400c000000000000c8
:2027f3000000000030c30000000000000000000000000000000000000000000000000000d3
:202813000000000000000000000000000000000011b0000000c01400000f0493000008b8aa
:17283300015004000003e0000010000007c14040c00000000000003e
:20284a000100001fec30200000000000000000000000000000000000000000000000000012
:20286a00000000000000000000000000000000001e72a9440000466400a54002000005211a
:16288a00430200100034c5a23c00000007b890800000000000003d
:2028a0000000000030c300001800000000000000000000000000000000000000000000000d
:2028c000000000000000000000000000000000000109c2a8000008039c05a490000000f8ac
:1728e000015001003433501a190000000b0345000000000000000052
:2028f7000000000fcc30200000000000000000000000000000000000000000000000000096
:20291700000000000000000000000000000000000000000000000003daa52000000017a146
:16293700430200000001cb142000001e0000000000000400000023
:20294d000000000030c3000000000000000000000000000000000000000000000000000077
:20296d00000000000000000000000000000000000000000000000140070aa004000009b09b
:17298d0001500000003bc072404000f0f00000000000038000000092
:2029a4000000071fec302000000000000000000000000000000000000000000000000000b1
:2029c400000000000000000000000000000000000e5aa944000004007af50180b0180b21b6
:1629e40041010001c00000000000058000000000000006dca5408e
:2029fa000000000030c30000000000000000000000000000000000000000000000000000ca
:202a1a0000000000000000000000000000000000010dc2a84000e000260500001000003891
:172a3a000290000036000000000000b000000000000003c70aa40095
:202a51000000000fcc3020000000000000000000000000000000000000000000000000003a
:202a7100000000000000000000000000000000001e00000000001475e1a5084000989000a8
:162a91000000044002800000000000019b295040000020000000f4
:202aa7000000000030c300000000000000000000000000000000000000000000000000001c
:202ac7000000000000000000000000000000000000000000000002460e9660000001190089
:172ae70000000000006c0000000000008942a90000000400000000f4
:202afe0000000701ec30200000000000000000000000000000000000000000000000000074
:202b1e00000000000000000000000000000000000000000004001e7f6ea000100380000055
:162b3e00000040c1400000000100038113281044008000000000ac
:202b54000000000010c300000000000000000000000000000000000000000000000000008e
:202b7400000000000000000000000000000000000000000000000002360f508000710000b9
:172b9400000000000200000000000008fb03d500001000000000003d
:202bab00000000000c302000000000000000000000000000000000000000000000000000ae
:202bcb00000000000000000000000000000000000bbb948020002002cf5220000080058187
:162beb009b000000001caf52002000180000000000000358a010d9
:202c01000010000000c30000000000000000000000000000000000000000000000000000e0
:202c210000000000000000000000000000000000f0eb6f08000003420dac2000000300021e
:172c410019901000002340a000010000000000000000001c0f500044
:202c5800000000000c30200000000000000000000000000000000000000000000000000000
:202c780000000000000000000000000000038008193aff002e000000fafc203802000326b8
:162c98005b00e000068caa342380480000000000000c0000000084
:202cae000000000000c3000000000000000000000000000000000000000000000000000043
:202cce000000000000000000000000000000203871eff1e0008000003cc7800201d0000b7c
:172cee00e5941800000010a341200210000000000000000000000018
:202d0500000000000c30200000000000000000000000000000000000000000000000000052
:202d25000000000000000000000000000003000f99d2a9500c000001dea540100001e5a2b0
:162d45005b00400a0280000000000000033c1800002000000000da
:202d5b000000000000c3000000000000000000000000000000000000000000000000000095
:202d7b0000000000000000000000000000000000f0fd8155000000c3e50554030000180356
:172d9b002596240144000000000000000003c10000004000000000f9
:202db200000000000c302000000000000000000000000000000000000000000000000000a5
:202dd200000000000000000000000000000000001e37bd50000146000000000005b8072252
:162df2005b200000004000000080000037f99000002000000000b0
:202e08000000000000c30000000000000000000000000000000000000000000000000000e7
:202e2800000000000000000000000000000000000105c28100000000000000000283800b31
:172e4800e5940001002800000000000009bd69000000400000000062
:202e5f00000000000c302000000000000000000000000000000000000000000000000000f7
:202e7f0000000000000000000000000000000000001aa95000402e04fea540000080052224
:162e9f005b8400014007a080000007813f3e8020000e036ca028ec
:202eb5000000000000c300000000000000000000000000000000000000000000000000003a
:202ed5000000000000000000000000000000000000f98155040202630d0aa400000d0c0bc4
:172ef500259000003600fe00000000008b7b9c000000201c0f5000a0
:202f0c00000000000c30200000000000000000000000000000000000000000000000000049
:202f2c0000000000000000000000000000000003801abd50002036040de44000803003a2fb
:162f4c005b0400e8003eaa520000038f07300080000000000000a5
:202f62000000000000c300000000000000000000000000000000000000000000000000008c
:202f82000000000000000000000000000000000008c50281000402c295fd840010090003e5
:172fa200e590000140035055000000088043000000000000000000ef
:202fb900000000000c3020000000000000000000000000000000000000000010000000008c
:202fd9000000000000000000000000000000000001f2a950400020075ea540000000f52627
:162ff9005b0000014381ae2420000700133c024000000000000018
:20300f000000000000c30000000000000000000000000000000000000000000000000000de
:20302f000000000000000000000000000000000090890155000001c22f05541000000b0aa2
:17304f00a5900000360350d1404000000b828000000000000000004e
:20306600000000000c302000000000000000000000000000000000000000000000000000ee
:20308600000000000000000000000000000128500e1029500400406a5ea04110050013a65f
:1630a6005b4040c06014ef540500058106300080001c0000000065
:2030bc000000000000c3000010000000000000000000000000000000000000000000000021
:2030dc000000000000000000000000000000000200092a65000000027d0f540000200d0328
:1730fc00259200000000f050400200088003000000e02000000000f9
:20311300000000000c30200000007214380000000000000000000000000000000000000082
:2031330000000008010000000000000000000009993f83e000002003ee5200000080132217
:163153005b00000006eff080000008001800200000003000000036
:203169000000000000c3000000000f00150900000000000000000000000000000000000056
:203189000000000070f0000000000000000000001080203c000002438fbc200000030d0218
:1731a900259140000023fe0000000070002000000000000000000068
:2031c000000000000c3023880000721438000000000000000000000000000000000000004a
:2031e0000003800800161404000000000000000d0b3f83e00e0e2000ebfc003804000722d4
:163200005b0000020634880023800d1cf214302e00000018c5404c
:203216000000000000c3002110000b00150400000000000000002b00000000000000000055
:20323600000020007000814040000000000000009080e03c008002c3fdf780020020000bd5
:17325600e590400014017000082000b109001500800240349ca400fa
:20326d00000000000c3020000019521438000000000000000000000000000000000000002e
:20328d0000000000007385188000000000000000003b03e00c001e60eca5401000000322e3
:1632ad005b0000000664b08000000018f244b00c0000037ca040ad
:2032c3000000000000c3000000008f80150000000000000000000000000000000000000004
:2032e30000000000000140c100000000000000000000a43c00000000150aa40101004003e1
:173303002590000000287a000000000001ae1104c00142c70f54006b
:20331a00000000000c30200001815214380080000000000000000003b28000000000000062
:20333a0000000000000000000000000000000803815b83e00000043d7ca04000003803222f
:16335a005b00080366d6f0800000018bd214302000000000000089
:203370000000000000c3000000008b80150000000000000000000000002800000200000030
:203390000000000000000000000000000000000008e0643c000000076f0f54000000c00bf1
:1733b000659200000429eb000000000089801500000002c000000017
:2033c700000000000c302000001e7a1432000000000000000000800fb868080000000000f5
:2033e700000000000000000000000000000000070c1bc3e000000023eca5400000f0f722f8
:163407005b000000002ee08000000000fa14302000000000000068
:20341d000000000000c3000000000f00150400000000000000000f001c0000000000000079
:20343d00000000000000000000000000000000000100303c00000004250aa400010d0b030f
:17345d00259010000034df0000000100010015001000000000000059
:20347400000000000c30200800005a1438100000000000000000800000000000000000009e
:203494000000000000000000000000000000000d9bf016a8000e3605d8a040028200032614
:1634b4005b0000014280000000000000da1430200e207800000000
:2034ca000004000000c3000100000b00150000000000000000000f000000000000000000eb
:2034ea000000000000000000000000000000000010af3e94000002c2ac0f54000040000b13
:17350a00e59800003640000000000000090015000003c400000000d2
:20352100000000000c302000599e5a14302000000000000000000010000000000000000069
:203541000000000001000000000000000000000b8e1b43e0000004056ca540010000e7262a
:163561005b4000014280000000000181da14301000002000000026
:203577000000000000c3000000100f80150200a0000000000000000f00000000000000000c
:2035970000000000908000000000000000000000b8f0e43c00000002270aa40028070c0228
:1735b700a5920000366c00000000000081801500000000000000000e
:2035ce00000000000c30210008187a1430000000000000000007001000000000000000008b
:2035ee000001000000000000000000000000000b1d1fc3e0050020045af54010003017a61d
:16360e005b000011c726ca5209000818fa143044400000f8a54168
:203624000000000000c3000010100b80152400a0000000000000500f0000000040000000a0
:2036440000000000000000000000000000000000f9d02c3c801401436c0a040001000b03d4
:17366400e5901000802e50aa0000001009801500020000140aa400b0
:20367b00000000000c3020000180521438000020680000000000000000000000000000002c
:20369b0000000000000000000000000000000000185e03e000010007ee520000308007a215
:1636bb005b0000004624f34004200001721430200014024a340072
:2036d1000000000000c3004000f0010015100001c0000000000000000000000000000000ff
:2036f100000000000000000000000000000000000000303c10000003b7cc20100003000282
:17371100259140000200d85800010000c900151000000035ca40103b
:20372800000000000c302b8000001214180e006000000000000000000000000000000000ee
:20374800000000000e000000000140000000000f0076c3e00e002004db8800380001c3a6b3
:163768005b20e0120014ef500380c0007214302e0000016ada20ff
:20377e000000000000c30020000091002900800140000000000000000000000000000000cd
:20379e000000003801000000000008000000000098007c3c00800042fdf110120000000a9e
:1737be00659018000402e05010200200050015008000001ebf1000f8
:2037d500000000000c302410081e000000000000024bf700000001e0000000000000000019
:2037f50000000000001ea9402000000000000029815343e00c000064cea54030000007a271
:163815005b80c0000700ce24200008195214302c001401dea00073
:20382b000000000000c3000080f000000000000340368f3100000010000000000000000001
:20384b0000000000000bc2a880000000000000009880b43c00000006660aa4030000000340
:17386b0025980c00000350d1400000b0898015004000029e0f5010fc
:20388200000000000c30200050005643d800000068000000000000033a80000000000000e4
:2038a200000000000000000000000000000000000f7b83e000000074dbad0000000003a278
:1638c2005b010c000020aa30002851815214302100006fcef5109b
:2038d8000000000000c31001180003f0350000000000000000000500f40000000080000043
:2038f8000000000000c0000000000000000000001180643c00000007bdf3d0000200000b2b
:17391800e59000400001d95310001000858015000000023d05000038
:20392f00000000000c3020000b9cb3a9d000400020ecc24000008003e8048c000000000000
:20394f000000000001000000000000000000010f0c3bc3e00000002bcaa00000008007a29f
:16396f005b84000002c1ee24204000007a143020001e00dee2432f
:203985000000000000c300400071ef702d040a0007ad8e5410000f00d80000000000000087
:2039a500000000000080000000000000000000001100303c000001c0050fa200000d000b76
:1739c50025900000006740d14000000009001500000342010e2400e8
:2039dc00000000000c302428010000000000001e00000000008201c00000000000000000e1
:2039fc000000000000000000000080000000000d8ef816a8000000000ea342003801c7a245
:163a1c005b0000000007cf80040800405a143020000000000000d9
:203a32000000000000c3000000980000000000002000000000005010000000000800000091
:203a52000000000000000000000010000000000010abbe94000000003505340000001c0ba2
:173a7200e59011066403c87a000200000500150000000240000000aa
:203a8900000000000c3020000f8033a9d000000000000000000000f0000000000000000096
:203aa900000000000000000000000000000000098e5b43e00080203d7ea040000238f7a2da
:163ac9005b04040267e4f880000009805a143020801e66daf501a4
:203adf000000000000c3004000709b702d040000000000000000001f0000000000000000f9
:203aff0000000000000000000000000000000000b0f0e03c000001c63e0f540000400b0b2d
:173b1f00a59400a01c60d82200800010098015000403422d05000097
:203b3600000400000c302100001c3bb3d004014000000000010000000000000000000000ee
:203b5600000000200000000000000000000000051a5000200400000558f540100031c7a65c
:163b76005b0048000014ca04010188187a1430040020040000002c
:203b8c000000800000c30080000107372d04000000000000002800000000000000000000be
:203bac000000000500000000000000000000000000802800000001421f0a040000031903bd
:173bcc00659010043401f0fa40402010058015000001c3c0000000ec
:203be30001000037ac302000000053e9500000000379f7000000000000000000000000008f
:203c03000000000000560d08000000000000080008380020004120634e520000000007a6bd
:163c23005b200000000dd52200000000721430000000015bf0808a
:203c39000010000270c3004000f003fe85000000000cdff000000000000000000000000095
:203c590000000000d0037690000000000000010011003c001000a8c42dfc2100000000025c
:173c7900259100000002dec1000000000f0015100000000280f01027
:203c9000000000018c302b8058081369500020160400000001000000000000000000000045
:203cb000000010000a932b480000000000001028001840200e002400eefc003a048003a2a5
:163cd0005b20e00000000000038b00007214300000200168aa808c
:203ce6000000003c10c3002028b10f3685200400020000000028000000000000000000009e
:203d060000000080010978bc0000000000000285b0002c00008001e03fa78002002b000b7d
:173d2600e5920800000000000021000003001500000240020aa010d0
:203d3d0000000001ac3024000801000000000036007e5f0000000000000000000000000049
:203d5d0000000000000000000000000000000008183040200c0000004ca54030000087a200
:163d7d005b01c001c01dea540000001952143000000005c8aa8052
:203d93000000000010c300000070e00000000001400005f0000000000000000000000000b7
:203db30000000000d0000000000000000000000091002800000003c0070aa40120001003bb
:173dd30025904c0000017055404000008f801500000002400aa01072
:203dea00010000018c302008400000000000000006fcdf02000000000000000000000000b0
:203e0a000000000000000000000000000000000780100020000026701bd1400000000526f4
:163e2a005b00000603edef800000018152143000002061c8aa8037
:203e40000000003c10c301411a0000000000000142950ff000000000000000000000000020
:203e60000000000000000000000000000000000008e03c00000000602d8e24000000000bd4
:173e8000e59020000422ec7a1000180083801500000244000aa010ca
:203e9700000000000c303000001c00000000000062eccf0300000000000000000000000063
:203eb700000000000000000000000000000000458110402000000020daf5200000801023f3
:163ed700c1000a036057ea50000007007a143000000001c8aa805e
:203eed008000000000c3000000f100000000000004270cb004000000000000000000000096
:203f0d0000000000f0f00000000000000000000200f0b800000000422e050000000d0d007b
:173f2d003c1020402428d055100000080f001500000000020aa00078
:203f4400080000000c303000080abe309000000064000000000000000000000400000000f1
:203f64000000002000000000000000000000000300300020000080000ce242020000000018
:163f8400000000100620ce24200040005a143000010001c8aa800d
:203f9a000040000000c3000028b009379500000346400000000000000000000020000000ae
:203fba00000000050000000000000000000000000000b80000001403ad0d140010000c0029
:173fda00000000000003c0d14000280003001502000800020aa00402
:203ff100001000000c302000000053e950000000016a0a0000000000000000000000000043
:20401100000000000000000000000000000000080c523c2000000064def540000000000056
:16403100000000000237ea500000098e5a14302000366de8aa81fb
:204047000000000000c300400000937e8500000000160000000000000000000000000000aa
:2040670000000000f00000000000000000000008f0902fc0000000020f05040000000c00ac
:174087000000000000737055080000100f801500000142800aa000c1
:20409e00000000018c302100000a00000000016000000000000000000000000000000000b9
:2040be000000038000000000000000000000000780023c000400000178f5401000000000d8
:1640de00000040006021ae24210008187a143040003601e8aa80b1
:2040f4000000000010c3010000000000000000024000000000000000000000000000000096
:2041140000000000000000000000000000000000080003c0800000022c0a041000030c00e5
:17413400000000000033d0d14000001003801500000140000aa004c9
:20414b000000001eec302000000000000000000000000000000000000000000000000000fa
:20416b00000000000032a950000000000000000000784020000020637da100000000077217
:16418b0094000000075da030000000007214300000000168aa800d
:2041a1000010003bd0c3000020f000000000000002400000000000000000000000000000ce
:2041c10000000000f00342a90000000000000000000038000000a2c027ed10000005001429
:1741e10015400000007f6a87004000000f001510000000020aa05092
:2041f8000000005d8c30239000000000000040002800000000000000000000000000000073
:204218000003938800000000000000000003800001f214320e002005dac3423800800903d6
:164238009d08e001601dea50838040007214300000000168aa80a7
:20424e008000002410c300202800000000000000040000000000000000000000000000008d
:20426e0000002080d0000000000000000000200000dd001500800043bc0c7482200700b056
:17428e002050080002024055002002000b0015800003c3c20aa00014
:2042a50000020014ac302000070000000000000000000000000000000000000000000000e0
:2042c5000003000000000000000100000000180019d204b2008080064cf020700051877200
:1642e5009440400166208e242000001952143000000004e8aa8091
:2042fb000000243820c300000008000000000000000000000000000000000000000000005c
:20431b00000000000090000000000000000002800089be11000410036e0a0003000f0a5c11
:17433b00154004000241d0d1400000008f801540000003420aa0108b
:2043520001006005cc302021000000000000000007e85a0800000000000000000000000057
:204372000000000000000000000000000000000981d2143200402401fda740000000182bfd
:16439200890800020014bad0000061805214300000006468aa8077
:2043a8000000020030c30000180000000000000013e5e5800000000000000000000000008b
:2043c8000000000000000000000000000000000010dd8015000a03e327a1b40000000eb029
:1743e800345000002403da3d00402b000b801540006006420aa0104f
:2043ff0000000714cc302000038033a15000000000000000000000000000000000000000c0
:20441f000000000380000000000000000000004000da1430404006075efa200000000d6b1f
:16443f003c040000e03dca040000081e7a143800000001e8aa803d
:204455008000004030c30000000001693d00000000000000000000000000000000000000ed
:2044750000000000b0000000000000000000000200090015000200022f8e7000000000b670
:17449500d68000000201c0f5400000d00f001500000000000aa00024
:2044ac0000000045ec3020010000000000000000000000000000000000000000000000006e
:2044cc000000000000000000000000000000000000da14300000002c0cc0020000f1d3ac48
:1644ec00c0040001c33dea54000003985a143000000060e8aa018b
:204502000000003c20c300000000000000000000000000000000000000000000000000007a
:2045220000000000000000000000000000000000000d001580000002010c00000003985ecf
:17454200e9400000020060aa400000080b001520006003c20aa000d6
:204559000001e3d4ec302000000000000000000003d85a0000010000000000000000000018
:20457900000000000000000000000000000000019efa1430210086000cf040000098fd725b
:164599009500000067eeca040000099e7a1410000000000000000f
:2045af0000003e3c20c300000200800000000002401d0a0080000000000000000000000024
:2045cf00000000000000000000000000000000000009801500101002800f04800001083cb4
:1745ef002a9000001c21e0f5400000100f80152000000000000000d5
:204606000003e001ac302120000000000000000c2a5e5202000000000000000000000000ab
:204626000001002000163d50000000000001000599fa143024001464d8a00010000009bde9
:16464600c0044000c73fea5401005801b3c190000000007c5a00e2
:20465c000000140000c30100010000000000000000370a0000000000000000000000000024
:20467c0000000004000d02810000000000000000108d801500000006420a010000000af308
:17469c0016000000003fe0aa4000001083740d2000004035055000ea
:2046b300040000000c302000039a1059a00000007800000000000000000000000000000069
:2046d300000000000000000000000000000000001c72143000000002db52080800008db277
:1646f3009d0000026075e430000008097e03e000000005ca0f8059
:2047090000b0000000c30000020100a99800040004000000000000000000000000000000d1
:2047290000000000000000000000000000000000000d0015300000403dbc2000000310d3df
:1747490000d0000026255b4a0040001180603c000000034000f020d9
:20476000000000000c30200800015225a0100000796e00000004300000000000c0000000d2
:2047800000038020000000000000000000038000007214300e002003fafc0038008003b2a9
:1647a0009500e0000764bda00000098b7b03e00e0e200448f0c09c
:2047b6000000000000c300810000c0ba58000003c03e00508000208000000000000000005c
:2047d6000000200400000000000000000000200000090015208001c037c780820007003ebb
:1747f6004a9008000073dcf20040001080703c008002c34200f48012
:20480d00100000000c30200008091225a000001e0400000000000000000000000000000015
:20482d00000040000000000000000000000040001d5214320c006061caa520000081832aac
:16484d008000c0020646ef50000007187816a0000020000996c0bc
:204863004100000000c300000030d03a5800000023c00000000000000000000000000000bc
:2048830000000400000000000000000000000400008d8015000002426f0550000181000061
:1748a30028000c002436f0a01000007007a694000002c00086940043
:2048ba00000000000c30200007801a25a0100000600000000200000000000000000020cfbb
:2048da005000035580000000000c00000000000181721432000000640ce242000281916345
:1648fa00cd0a0c026060ca342000001d5743e00000000068f0c036
:204910000000000000c30000000000be58000000000000000010000b00000000040000d0bf
:20493000fa0000020800000000000000000000000089801500000003350d1400004d0bb0e4
:174950003ed200c00422505340000001b0f43c000009c00200f48057
:20496700000000000c30200000005225a00000000000000000000000000000000007acef1b
:2049870072200000000000000000000000000000007a143040001c3cdffc00000099900024
:1649a700000000000021ab10040009807056a000000001e8f0e072
:2049bd000000000000c30000200080be58010000000000000000000000000000000064f00c
:2049dd00ff000000000000000000000000000000000d001500000003b7e7808001010900ed
:1749fd000000000000324d72000000d0c32294000000000000f40075
:204a1400000000000c30200018003265a00000000000000000008000000000000040000017
:204a340000005300000000000000000000000800005a143000002001eb5200000018192eac
:164a540091000a006006ca34202800185056a000010001c8f0c825
:204a6a004000000000c3000028b000ba580100000000000000000500000000000026000013
:204a8a000000008000000000000000000000010000090015200003c02dfc201000000936f2
:174aaa00ee100040000030a340000001cf2294000008000200f40020
:204ac100000000000c30200049995265a000001c01585f00000000800000000000004000ac
:204ae10000000000000000000000000000000009985a1430200000054aa54000000003ea35
:164b0100800000006255ef54000007015243e00000202168f0c04e
:204b17000000000000c300000099903a58010000230305f0000000100000000000003c0098
:204b370000000000000000000000000000000000100d801500000002050554000000000448
:174b5700280040000222e0a040000070b0643c000000400000f418ef
:204b6e00000000000c30200009813a65a01000000158df020000000bbe8000080000000f58
:204b8e00f10900500006bc1000a0000000010058187a143004001c2cf8f540110100086b1e
:164bae004d0a40420024ef800000099d5fc3e404002021e8f0c0fc
:204bc4000000000000c300000098903e5800000000240ff00000000016d002400000000005
:204be400ff210002000003c101040000000000001009801501000006340a0400006000541b
:174c040038d000003c23687a0040009990ec3c000003400200f50085
:204c1b0000e000000c302000201a1225a000000000c00080040401e0000000000000000003
:204c3b00000000001b02bc10000000000000000000f2143000000c05fbd8000000780530a9
:164c5b0015010001671c80f800000f1d1383e00000000548f0c092
:204c71000000000000c300002501e0ae581000000002000020000010000000000000000012
:204c91000000000001e043c10000000000000000000b001511000002278d82000009001c90
:174cb10003d000000000100f0200001080203c100000024000f4c402
:204cc800000000000c30200000013225a000000001e8f08080050010000000000200000088
:204ce800000390000002bc100000000000038380007214304e800000080f0038200000381a
:164d08003c000001e69de0f80000019f5b03e00e000004e8f0e055
:204d1e004000000000c300000000c03658000000000000f00000000c00000000001c00000c
:204d3e00000022b8000003c10400000000002000000b0015008400c00100f0060000000434
:174d5e0003c000008240100f0000389180f03c008000034200f4006c
:204d7500140800000c302000001e3225a000000004c8f0800000000dfe80000000003def9e
:204d9500720000170f03bc10000000000000000019d2143000000c000c1f40000080002849
:164db5003c000000065580f8000008191f83e00000202968f0c0d5
:204dcb000121000000c300000001802658000000034000f20000000093d80000000002dd65
:204deb00ff11000009f003c10000000000000000008b80152000000014e2f49000210c00f4
:174e0b0003c040000020200f00000030d0a43c000002c38000f50420
:204e2200000000000c3020204b807265a00000007d68f080000080000000000000000000dd
:204e42000000002000023c1000a00000000000018052143010000003de074043ad00077389
:164e6200e82800016395c0f8000050085703e00002200068f0f07d
:204e78000000000000c300000230002a580000c0030200f0100103000000000000000000da
:204e980000000004f00043c10404000000000000000b801500000003ec85f410300000189a
:174eb800140000000240200f0000020100e43c000002c00200f40083
:204ecf00040000000c30200009883265a000001c39c8f08100007800000000000000400055
:204eef00000000000006bc1000004000000000000efa143000000470ec2740000000e57029
:164f0f001504000000048f080000098e3016a000000001e8f0c8ba
:204f25000020000000c300004098002658010800240000f0000000000000000000003400e2
:204f450000000040000003c10000000000000040000b0015020100e017e2f40404000018f8
:174f650003d400100000000f000040d0c3ba94010100000000f41018
:204f7c00000000000c30200000007225a000010000e996800000f1cbe690040011e000005b
:204f9c0000000000000029502000000000000000005a143000080c23ce07600000b800009a
:164fbc000000001400168f08000008007856a00004400048f0e04c
:204fd2000000000000c300000000002e580100080242b96010000b905760000004a43400d2
:204ff2000000003000090169000000000000000000eb0015020000242d85f500000500002a
:1750120000000000bc00000f000000d0cf2294000008030200f50065
:20502900000000000c30200001803265a000002005c9968180000003b28000100000000089
:20504900000004000007bc10000000000000000980fa143000100e30fc2741020000800075
:16506900000000c260068f0800000101d056a00000000148aa694e
:20507f000000000000c300000008002a580100024242d9600010000000280000002c0000a0
:20509f0000000000700003c10000000000000000100b80150200000416e2f50010001000fa
:1750bf00000000000400200f00000038b3269400000000020aa50051
:2050d600000000000c30200408007265a000001c00e89680800001cfe37c0400000067d0d7
:2050f600800174000002bc100001400000010408197a143004101c03cc074150d900e178e9
:165116001500050003968f0a00240100180020041020000af0604c
:20512c000000000000c3000000d0003a580100002002b960000007105e71c000002434ce36
:20514c0000000780900043c10000080000000000108b8015000000026c85f400100000d425
:17516c0003d2008e0040200f00000038002c0000000340010f04009f
:2051830000000000000000032199fa3c0020401c0048f08080000007643e00000007a5df31
:2051a300c00000071e5819b20000000000000000007214301000000400000000380009eaef
:1651c300e0000002004c8f080000001d50002000000028080f0045
:2051d900000000000000000004009f003c520200000000f04000000a03c3c0000024036834
:2051f900f800000059a0b9990000000000000000000f00151000000200000000000000fe1f
:175219009d0000001c38200f04000001c03c00100000000100f1005b
:2052300000000000000000000d800603c020001c01400080000078953c3e000003c2c000ff
:20525000000380000a1265b20000000000038000007214301e000000080f00000018a06002
:165270003c00000400048f080040000e104020000000000a0f0076
:205286000000000000000000189801003c000000000200000000891f03c3c00000362c0089
:2052a6000000200000a03e590000000000002000000b0015008000034100f0000005800018
:1752c60003c00000bc3c200f0000200000b800000000028000f1009c
:2052dd00000000000000005000180603c00000003860008000041987343e000002033ef01f
:2052fd00800000080e5a25b200000000000001001952143010400003cf35500002f9f8017f
:16531d006800000000148f0a00000b80700020000014620e5a006c
:205333000000000000000004800100003c04000000000000000000000b43c000001c03d98f
:2053530000000000f1002e590000000000000000008f8015000a000026a3d50000478af035
:17537300294000003c3c000f000000b800b00000000002a50a50804a
:20538a00000000000000000001800283c02000007160008000009995643e000000066ec8c0
:2053aa0003280307803a25b0010800000000100180521432000094007e275043a001f80187
:1653ca006800004000048f080000001c50002000041401580f007e
:2053e0000000000000000000100809403c0000a00002000000000d080b03c00000003a60f1
:205400000008000058f0a6592400000000000280000b8015000010303fe1f410100b1990cf
:175420002940000c0000000f01000000e02400000000000300f08079
:205437000000000000000000000000000000000001c00080000010e7b03e0000020797850a
:20545700f00000000e1265b840000000000000001c7a143000000003ce35410028580df624
:16547700e0000001470c8f0800000f00184020000000000a0f2094
:20548d0000000000000000000000000000000000000000000004009f0643c00000044020ef
:2054ad005f000040010026590000000000000040010f00152001000026e3d410040000f356
:1754cd009d0040000200000f000040d800bc00000100000100f00014
:2054e400000000000000000001988203c020000001c00080000010a5e43e0000006054edf1
:20550400f0201000007a25b00000000000000000005a1430004080006e274902855807ea0c
:165524002c00000000068f080000000078002000000602180f20c1
:20553a000000000000000000000003403c000000000000000000209b0743c000003c35603c
:20555a00ff0002000090aa592400000000000038f00b0015020814003fe1f414042000dfe8
:17557a00a2c000000000200f00000000003000000000000d00f0005c
:20559100000000000000000000000000000000a665c000800000f1d5e83e000001e00000e2
:2055b10000000007801a65b000000000000000099c7a141010001c3bcf35400038800fb2bd
:1655d100e000000000148f080000000f5a7c20200000061e5a2076
:2055e7000000000000000000000000000000001266420000000001980bc3c000000224009d
:20560700000000000800aa592500000000000000110f80150000034266e3d614000500f22f
:17562700dd000000000020f000000001b0afc000000002250a5000de
:20563e000000000000000000001a8683c040000001c00080004081d5b43e0000000705c094
:20565e00a0010400081225b0000000000001040801073c1804101c7000000000521087e7bf
:16567e006c00000000068f080004070e023c00201200041a0f2037
:20569400000000000000000000510b003c000000000200000000010d0e43c000002442c017
:2056b400000000300090b6590400000000000002108003c10000140400000000400f905a5c
:1756d40020400000000000f0000000790003c0800000020000f000c1
:2056eb000000000000000000000a5a968000001c0040008000000087203e000000401eea1c
:20570b0000000000001a65b210000000000000010016a008200006054000800800100feb81
:16572b0060000000001c8f08000000005783c0000000006bd1403f
:2057410080000000000000000050000168040000020000004000001b0643c1000002001092
:20576100a0000000000032591000000000000000d8012c0083000022429000000000885b8e
:17578100f9000000000020f00400000000003c200000100ec52400a1
:205798000000000000000008050897210080009c0140008038000007683e000002001fe859
:2057b80000038007813265b0000c0000000000210000000000000604e89680400101f068b0
:1657d8003c000000001c8f08000308008396800e402064f8a000be
:2057ee000000000000000001009105037800001400020000020000000683c000000401e83b
:20580e000000200070d0ba592000000000000001080000000008002240c96000002f0f000d
:17582e0003c00000000020f00001001007029440800647c20a008089
:2058450000000000000000000d00f62980000014386000800000000023c1020003428ca80c
:20586500002000000f5225b000000000000000070b3fbdc000a03464499680010070f135d1
:16588500ec001001e00c8f08000008180783c8000020006aa000f1
:20589b000010000000000000001081a26800000022c0000000000d00003c100000066de0b4
:2058bb000000000001d0ae590000000000000000099fabfc0000024640b9600800001e924d
:1758db005ec00100020000f0000000100b003c00000040020a000002
:2058f2000000000000000020080b93788000001439600080000000800000000001e006a89c
:2059120002a000000e7a25b00000000000000189803bbdc0808000614896804100f99f31eb
:16593200ec000000000e8f0800002198829680000000006ef362ba
:2059480000000000000000000030f3251c0000002002000000000010000000000000034066
:20596800000080000100b6590000000000000004100d03cc0004000402a960000809193e24
:17598800dec00000800020f000000500074294200000000e0f740443
:20599f000000000000000000000cda29800000200008f000000000000000000000069fd8c4
:2059bf00000000038c7a65b800000000000000000ebb200080002420c89680000058f5f1d9
:1659df00f4000001601c8f08000000018783c000001600000000c9
:2059f500000000000000000000b00be268000002c0000f000000000000000000001427ec95
:205a15000000000001f0a259000000000000020001c54000000000e242c9600800000adf3f
:175a3500df4000001c0000f00100000081003c040001e0000000008c
:205a4c000000000000000000010c16a1000000002149bf0040000000000000000166efefc8
:205a6c0070000007001a25b0000000000000000388bb600000000401499680001038876972
:165a8c00f404000160548f0800000001869688000000000000001b
:205aa200000000000000000000388d7778000000001dda700000000000000000061428fe89
:205ac200ff0800007800b2590000000000000000198fe0000000006000896000000010b6a3
:175ae2001f400000002800f000000000870294000000c24000000017
:205af9000000000000000000000077a10000002000eae000000098000000000001c2ddcf84
:205b190070000003803a25b000000000000000070c00000000000001e99681000091c1b94b
:165b3900f4000016078e8f08000001808783c001000600000000ce
:205b4f0000004000000000000010d16bb4000002c027c400000021000000000000262afcdc
:205b6f00ff00000008003a5900000000000000000100000000000000029960000005805ba0
:175b8f00df400000943c00f0000000000b003c2010000000000000a9
:205ba6000000000000000000031effe9800000000169a40010000000000000000342d6af6e
:205bc600702100000f5a65b000000000000000000000000000014004c996800010d809f9a2
:165be600f4000800000c8f080000200086968004008000000000ca
:205bfc0000000000000000000010d77668000000001dd800000000000000000000142ad0c1
:205c1c00ff080030f0b0b2590000000000000000708000000000080342c9600402090f7290
:175c3c001f480040000000f0000005100742942000000000000000a8
:205c53000000000000000000000000000000000020c8f08000000001aa04000003679d8a99
:205c730000000008005265b0000000000000000001f3e00000000060c896800001818f651a
:165c9300f400000240468f080000000000000000000e284a5a000e
:205ca900000000000000000000000000000000000401a0f0080000005fa08000001e001091
:205cc900a0000008f000be59100000000000000000f5bc000000000400c96040000f105669
:175ce9001f4000001e2420f004000000000000000000200005a10029
:205d00000000000000000000000000000000000000089680000001c00000000000063cc89a
:205d200000238008001225b00000000000000000003a028400008001e896800100d99060c8
:165d40003c00000006148f080390000000000000000000000000cd
:205d5600000000000000000000000000000000000000f6900000001000000000000041d086
:205d760000002000f0002e590000000000000000d000c0280000000002a96010000f9e04f2
:175d960003c00000344020f00022800000000000000000000000000d
:205dad000000000000000000000000000000000400c8f080000071b5637c000000030df88d
:205dcd00000000001e5265b00000000000000028000283c00040a034e99680000000efb50d
:165ded00f400000006168f08000000003bc29020002e000000001e
:205e030000000000000000000000000000000000300200f00000000c5f31c000000037dcee
:205e23000000000001c0ae590400000000000000f000003c010a164240e9620000100072f7
:175e43001f404000006c00f000000000077ab5440000400000000093
:205e5a000000000000000008000000000000000000c8f080000001ad6be800000163800ef5
:205e7a00700028031e1a25b0000140000000000500fe200000003e24c996800010f019b1f1
:165e9a00ec00000a03848f08001088000000000000000000000046
:205eb00000000000000000010000000000000000100200f00000000096fe4020000200cf0a
:205ed000db00010008002e590000080000000000080b30000010064642a961000007091331
:175ef0005ec00001240000f0010000b00000000000000000000000b7
:205f07000000000000000000000000000000000665e8f08000000000703c400001600080ea
:205f2700f0800000005265b0000000000000000788f3420200001401e996800004d8e7a541
:165f4700f400000000008f080000010006bc104000000040a500c1
:205f5d0000000000000000000000000000000000264000f008000d000403c00000002810ba
:205f7d000f0000000000aa5900000000000000000105bc000000036282b960800125101e5c
:175f9d001f400000000009f0000000000003c10000000016000000bb
:205fb4000000000000000000000000000000000604e8f080000000e000000000000000008b
:205fd40000002190007225b000000000000040030e00000000401601499681038211c8014e
:165ff400680000c400068f0800000380000000000100000000004a
:20600a0000000000000000000000000000000000224200f0000000100000000000240000ee
:20602a00000001020000ae59000000000000000000f000000002040002b960003850105053
:17604a0029400000800000f000020008000000000008000000000054
:206061000000000000000000000000000000000000e8f08000005005620000000342e4a047
:20608100800008079e5225b0400000000000400f000303c00000160149968080000013ed60
:1660a100f400000000148f080000078100000000000000000000c2
:2060b70000000000000000000000000000000000038000f0800000805ef0802000142b78b1
:2060d700000000000000ae5900000000000000007080403c0100000002a9600000550edee9
:1760f7001f400000000020f000000008c0000000000000000000005b
:20610e000000000000000000400000000000002061e8f0800000000000000000000015a89b
:20612e00002100000e7225b000000000000010231cf6420400009e71c89680810170e7e5a5
:16614e00bc00000000168fa00100810000295240400000000000bd
:2061640000000000000000002a00000000000002440200f00000000000000000002428600d
:206184000008003800002e590000000000000085000b30000008000780996000282f8ffb0b
:1761a40027c00001400060fa01000000030169800000000000000074
:2061bb000000000000000003000000000000001c0168f080000000000000000013e6400093
:2061db0000000000007265b000000000000000080156760000002064e99681000001d038bb
:1661fb003c0000000354a0f00000000000000000000003caf54069
:20621100c0000000000000000010000000000000000000f04000000000000000001c7800d9
:20623100000000000080365930000000000000009089af6000000246c289604000090900a1
:1762510003c000000030100f08000000000000000000000c05a480e7
:206268000000000000000000400000000000000001c8d400000000000000000000605fea90
:2062880000039000001a25b00000000000038007800203c000002064499688002898b0004a
:1662a8000000000200000000000000000000000e000604000000c6
:2062be0000000000000000000200000000000000003e81700000000000000000000220105d
:2062de00a000220090003a59000000000000200008e0403c000002478299600000099b00cf
:1762fe0000000008040000000000000000000000800002800000007b
:206315000000000000000000000000000000000000000000000000000000000000407ea802
:2063350000200187807225b0000000000000000001bb0e9000400401489688000000006074
:166355003c000002c040a0f0000000000000000002200000000042
:20636b000000000000000000000000000000000000000000000000000000000000003e7064
:20638b000020000000003259000000000000000000e9a0e12002002302f9600000000b042e
:1763ab0003c000000436d00f000000000000000000004000000000bf
:2063c2000000000000000000010000000000002000000000000000000000000002004eef5b
:2063e20050000000007a25b000000000000000001e9f89d060014005c9968802000013e163
:16640200f40000000000a0f0000000000000000000000000000000
:20641800000000000000000018000000000000014000000000000000000000000024243093
:20643800f50000000000ba590000000000000000010bb07d0000000240b960000000093a65
:176458006f8000000000000f1000010000000000000000000000001e
:20646f000000000000000000070cb321000100000000000000000000000000000040778fdf
:20648f0070282808007225b0100000000000008100bb4d5040000079e896800000101165b8
:1664af00ec0000000060a0f00000001e00000000000000000000dd
:2064c5000000000000000000000005a378001000000000000000000000000000000028e07f
:2064e500ff0001007000265900000000000000105009b4f5800000000089608001008a1b07
:176505001ec000000020500f00000000000000000000000000000022
:20651c00000000000000000840000000000000000000000000000000000000000200408055
:20653c00f1000000017225b000000000000003200f9f89d400000030e896800030f0100179
:16655c0068000000000080f0000000000000000000007bf9f240ab
:206572000000000000000001020000000000000000000000000000000000000000142810ba
:206592000f00000000d0ba59200000000000000501abf07d010004078299600000058dd0d0
:1765b200294200004000100f00400000000000000000442f8f0404be
:2065c90000000000000000000000000000000000300000000000000000000000016684c8cf
:2065e900000000000e7225b0000000000000000000bb0d5440003e71c89680000280096960
:16660900ec000000038080f00000000083280000000000000000f1
:20661f00000000000000000000000000000000000380000000000000000000000800014887
:20663f000000000090002a5900000000000000000009b0f5c000e16000a96000004700ff2a
:17665f005ec000000040100f08000000074140000000c00000000057
:206676000000000000000000000000000000000000000000000000000000000001e27ccfd6
:20669600700900070e7a3c1420000000000100059a00000000022000689680010000e9a1a1
:1666b600f40000400000e0f1000081000000000400002000000024
:2066cc000000000000000000000000000000000000000000000000000000000000007159e4
:2066ec00ff0000000107003d000000000000000000000000000001c002d960000800103ef8
:17670c006f8400040000100f00000008000000000000000000000058
