:02000000ff00ff
:080002004c6174746963650030
:17000a00694345637562653220323032302e31322e32373934330071
:15002100506172743a2069434534305550354b2d53473438002c
:1a003600446174653a204a616e203320323032352031343a30393a313900b7
:0200500000ffaf
:040052007eaa997e6b
:02005600510057
:020058000105a0
:03005a00920020f1
:03005d006202b389
:03006000720150da
:0300630082000018
:02006600110087
:02006800010194
:20006a00000000000000000000000010000000000000400000000000010000000000000421
:20008a000000000000001000000000000040000000001000000000000040000000000001b5
:1600aa0000000000000004000000000000100000000800004000e4
:2000c0000000000000000000000000020000000000000800000000000020000000000000f6
:2000e00080000000000002000000000000080000000002000000000000080000000000006c
:17010000200000000000008000000000000200000000f0000800004e
:200117000000000000000000000000000000000000000000000000000000000000000000c8
:200137000000000000000000000000000000000000000000000000000000000100000000a7
:160157000000000000000000000000000000000000000000000092
:20016d00000000000000000000000000000000000000000000000000000000000000000072
:20018d00000000000000000000000000000000000000000000000000000000000000000052
:1701ad0010000000000000000000000000000000000000000000002b
:2001c40000000000000000000000000000000000000000000000000000000000000000001b
:2001e4000000000000000000000000000000000000000000000000000000000000000000fb
:1602040000000000000000000000000000000000000000000000e4
:20021a000000000000000000000000000000000000000000000000000000000000000000c4
:20023a000000000000000000000000000000000000000000000000000000000000000000a4
:17025a0000000000000000000000000000000000000000000000008d
:2002710000000000000000000000000000000000000000000000000000000000000000006d
:20029100000000000000000000000d000000000000000000000000000000000000000c0034
:1602b1000000000000000000000000000000000000000000000037
:2002c700000000000000000000000000000000000000000000000000000000000000000017
:2002e7000000000000000000000000000000000000000000000000000000000000000000f7
:170307000000000000000000000000000000000000000000000000df
:20031e000000000000000000000000000000000000000000000000000000000000000000bf
:20033e000000000000401000000000000000000000401000000000010040000000000800b6
:16035e000000000000000000000000000000000000000000000089
:20037400000000000000000000000000000000000000000000000000000000000000000069
:20039400000000000000000000000000000000000000000000000000000000000000000049
:1703b400000000000000000000000000000000000000000000000032
:2003cb00000000000000000000000000000000000000000000000000000000000000000012
:2003eb00000000000000000000000000008000000000000000000000000000000000000072
:16040b000000000000000000000000000000000000000000c0001b
:200421000000000000000000000000000000000000000000000000000000000000000000bb
:20044100000000000000000000000000000400000000000000000000000000000000000097
:1704610000000000000000000000000000000000000000000c000078
:20047800000000000000000000000000000000000000000000000000000000000000000064
:20049800000000000000000000000000000010000000000000000000000000000000000034
:1604b800000000000000000000000000000000000000000000002e
:2004ce0000000000000000000000000000000000000000000000000000000000000000000e
:2004ee000000010000000000000000000000010000000000000400000000000000000000e8
:17050e000000000000000000000000000000000000000000000000d6
:200525000000000000000000000000000000000000000000000000000000000000000000b6
:200545000000100000400000000000000000000000400000000000110000000000000000f5
:160565000000000000000000000000000000000000000000000080
:20057b00000000000000000000000000000000000000000000000000000000000000000060
:20059b00000000000000000000000000000000000000000000000000000000000000000040
:1705bb00000000000000040000000000000000000000000000000025
:2005d200000000000c302000000000000000000000000000000000000000000000000000ad
:2005f2000000000000000000000000000000000000000000000000000000000000000000e9
:1606120000000000000000000000000000000000000000000000d2
:200628000000000000c30000000000000000000000000000000000000000000000000000ef
:20064800000000000000000000000000000000000000000000000000000000000000000092
:1706680000000000000000000000000000000000000000000000007b
:20067f00000000000c302000000000000000000000000000000000000000000000000000ff
:20069f0000000000000000000000000000000000000000000000000000000000000000003b
:1606bf000000000000000000000000000000000000000000000025
:2006d5000000000000c3000000000000000000000000000000000000000000000000000042
:2006f5000000000000000000000000000000000000000000000000000000000000000000e5
:170715000000000000000000000000000000000000000000000000cd
:20072c00000000000c30200000000000000000000000000000000000000000000000000051
:20074c0000000000000000000000000000000000000000000000000000000000000000008d
:16076c000000000000000000000000000000000000000000000077
:200782000000000000c3000000000000000000000000000000000000000000000000000094
:2007a200000000000000000000000000000000000000000000000000000000000000000037
:1707c200000000000000000000000000000000000000000000000020
:2007d900000000000c302000000000000000000000000000000000000000000000000000a4
:2007f9000000400000000000000000000000000000000000000000000000000000000000a0
:1608190000000000000000000000000000000000000000000000c9
:20082f000000000000c30000000000000000000000000000000000000000000000000000e6
:20084f00000000000000000000000000000000000000000000000000000000000000000089
:17086f00000000000000000000000000000000000000000000000072
:20088600000000000c302000000000000000000000000000000000000000000000000000f6
:2008a6000000000000000000000000000000000000000000004000000000000000000000f2
:1608c600000000000000000000000000000000000000000000001c
:2008dc000000000000c3000000000000000000000000000000000000000000000000000039
:2008fc000000000000000000000000000000000000000000000a00000000000000000000d2
:17091c000000000000000000000000000000000000000000000000c4
:20093300000000000c30200000000000000000000000000000000000000000000000000048
:20095300000000000000000000000000000000000000000000000000000000000000000084
:16097300000000000000000000000000000000000000000000006e
:200989000000000000c300000000000000000000000000000000000000000000000000008b
:2009a90000000000000000000000000000000000000000000000000000000000000000002e
:1709c900000000000000000000000000000000000400000000000013
:2009e000000000000c3020000000000000000000000000000000000000000000000000009b
:200a00000000000000000000000000000000000000000000000000000000000000000000d6
:160a200000000000000000000000000000000000000000000000c0
:200a36000000000000c30000000000000000000000000000000000000000000000000000dd
:200a5600000000000000000000000000000000000000000000000000000000000000000080
:170a7600000000000000000000000000000000000000000000000069
:200a8d00000000000c302000000000000000000000000000000000000000000000000000ed
:200aad00000000000000000000000000000000000000000000000000000000000000000029
:160acd000000000000000000000000000000000000000000000013
:200ae3000000000000c3000000000000000000000000000000000000000000000000000030
:200b03000000000000000000000000000000000000000000000000000000000000000000d2
:170b23000000000000000000000000000000000000000000000000bb
:200b3a00000000000c3020000000000000000000000000000000000000000000000000003f
:200b5a0000000000000000000000000000000000000000000000000000000000000000007b
:160b7a000000000000000000000000000000000000000000000065
:200b90000000000000c3000000000000000000000000000000000000000000000000000082
:200bb000000000000000000000000000000000000000000000000000000000000000000025
:170bd00000000000000000000000000000000000000000000000000e
:200be700000000000c30200000000000000000000000000000000000000000000000000092
:200c07000000000000000000000000000000000000000000000000000000000000000000cd
:160c270000000000000000000000000000000000000000000000b7
:200c3d000000000000c30000000000000000000000000000000000000000000000000000d4
:200c5d00000000000000000000000000000000000000000000000000000000000000000077
:170c7d00000000000000000000000000000000000000000000000060
:200c9400000000000c302000000000000000000000000000000000000000000000000000e4
:200cb4000000400000000000000000000000000000000000000000000000000000000000e0
:160cd400000000000000000000000000000000000000000000000a
:200cea000000000000c3000000000000000000000000000000000000000000000000000027
:200d0a000000000000000000000000000000000000000000000000000000000000000000c9
:170d2a000000000000000000000000000000000000000000000000b2
:200d4100000000000c30200000000000000000000000000000000000000000000000000036
:200d6100000000000000000000000000000000000000000000000000000000000000000072
:160d8100000000000000000000000000000000000000000000005c
:200d97000000000000c3000000000000000000000000000000000000000000000000000079
:200db70000000000000000000000000000000000000000000000000000000000000000001c
:170dd700000000000000000000000000000000000000000000000005
:200dee00000000000c30200000000000000000000000000000000000000000000000000089
:200e0e000000000000000000000000000000000000000000000000000000000000000000c4
:160e2e0000000000000000000000000000000000000000000000ae
:200e44000000000000c30000000000000000000000000000000000000000000000000000cb
:200e640000000000000000000000000000000000000000000000000000000000000000006e
:170e8400000000000000000000000000000000000000000000000057
:200e9b00000000000c302000000000000000000000000000000000000000000000000000db
:200ebb00000000000000000000000000000000000000000000000000000000000000000017
:160edb000000000000000000000000000000000000000000000001
:200ef1000000000000c300000000000000000000000000000000000000000000000000001e
:200f11000000000000000000000000000000000000000000000000000000000000000000c0
:170f31000000000000000000000000000000000000000000000000a9
:200f4800000000000c3020000000000000000000000000000000000000000000000000002d
:200f6800000000000000000000000000000000000000000000000000000000000000000069
:160f88000000000000000000000000000000000000000000000053
:200f9e000000000000c3000000000000000000000000000000000000000000000000000070
:200fbe00000000000000000000000000000000000000000000000000000000000000000013
:170fde000000000000000000000000000000000000000000000000fc
:200ff500000000000c30200000000000000000000000000000000000000000000000000080
:201015000000000000000000000000000000000000000000000000000000000000000000bb
:1610350000000000000000000000000000000000000000000000a5
:20104b000000000000c30000000000000000000000000000000000000000000000000000c2
:20106b00000000000000000000000000000000000000000000000000000000000000000065
:17108b0000000000000000000000000000000000000000000000004e
:2010a200000000000c302000000000000000000000000000000000000000000000000000d2
:2010c20000000000000000000000000000000000000000000000000000000000000000000e
:1610e20000000000000000000000000000000000000000000000f8
:2010f8000000000000c3000000000000000000000000000000000000000000000000000015
:201118000000000000000000000000000000000000000000000000000000000000000000b7
:171138000000000000000000000000000000000000000000000000a0
:20114f00000000000c30200000000000000000000000000000000000000000000000000024
:20116f00000000000000000000000000000000000000000000000000000000000000000060
:16118f00000000000000000000000000000000000000000000004a
:2011a5000000000000c3000000000000000000000000000000000000000000000000000067
:2011c50000000000000000000000000000000000000000000000000000000000000000000a
:1711e5000000000000000000000000000000000000000000000000f3
:2011fc00000000000c30200000000000000000000000000000000000000000000000000077
:20121c000000000000000000000000000000000000000000000000000000000000000000b2
:16123c00000000000000000000000000000000000000000000009c
:201252000000000000c30000000000000000000000000000000000000000000000000000b9
:2012720000000000000000000000000000000000000000000000000000000000000000005c
:17129200000000000000000000000000000000000000000000000045
:2012a900000000000c302000000000000000000000000000000000000000000000000000c9
:2012c900000000000000000001000000000000000000000000000000000000000000000004
:1612e90000000000000000000000000000000000000000000000ef
:2012ff000000000000c300000000000000000000000000000000000000000000000000000c
:20131f0000000000000000000010000000000000000000000000000000000000000000009e
:17133f00000000000000000000000000000000000000000000000097
:20135600000000000c3020000000000000000000000000000000000000000000000000001b
:20137600000000000000000000000000000000000000000000000000000000000000000057
:161396000000000000000000000000000000000000000000000041
:2013ac000000000000c300000000000000000000000000000000000000000000000000005e
:2013cc00000000000000000000000000000000000000000000000000000000000000000001
:1713ec000000000000000000000000000000000000000000000000ea
:20140300000000000c3020000000000000000000000000000000000000000000000000006d
:201423000000000000000000000000000000000000000000000000000000000000000000a9
:161443000000000000000000000000000000000000000000000093
:201459000000000000c30000000000000000000000000000000000000000000000000000b0
:20147900000000000000000000000000000000000000000000000000000000000000000053
:1714990000000000000000000000000000000000000000000000003c
:2014b000000000000c302000000000000000000000000000000000000000000000000000c0
:2014d0000000000000000000000000000000000000000000000000000000000000000000fc
:1614f00000000000000000000000000000000000000000000000e6
:201506000000000000c3000000000000000000000000000000000000000000000000000002
:201526000000000000000000000000000000000000000000000000000000000000000000a5
:1715460000000000000000000000000000000000000000000000008e
:20155d00000000000c30200000000000000000000000000000000000000000000000000012
:20157d0000000000000000000000000000000000000000000000000000000000000000004e
:16159d000000000000000000000000000000000000000000000038
:2015b3000000000000c3000000000000000000000000000000000000000000000000000055
:2015d3000000000000000000000000000000000000000000000000000000000000000000f8
:1715f3000000000000000000000000000000000000000000000000e1
:20160a00000000000c30200000000000000000000000000000000000000000000000000064
:20162a00000000000000000000000000000000000000000000000000000000003000000070
:16164a00000000000000000000000000000000000000000000008a
:201660000000000000c30000000000000000000000000000000000000000000000000000a7
:2016800000000000000000000000000000000000000000000000000000000000000000004a
:1716a000000000000000000000000000000000000000000000000033
:2016b700000000000c302000000000000000000000000000000000000000000000000000b7
:2016d7000000000000000000000000000000000000000000000000000000000000000000f3
:1616f7000000e00000000000000000000000000e0000001af041a4
:20170d000000000000c30000000000000000000000000000000000000000000000000000f9
:20172d0000000000000000000000000000000000000000000000000000000000000000009c
:17174d0000000800000000000000000000000000800000010f0000ed
:20176400000000000c30200000000000000000000000000000000000000000000000000009
:20178400000000000000000000000000000000000000000000000000000000000000000045
:1617a40000000000000000000000000000000000000038000000f7
:2017ba000000000000c300000000000000000000000000000000000000000000000000004c
:2017da000000000000000000000000000000000000000000000000000000000000000000ef
:1717fa000000000000000000000000000000000000000000000000d8
:20181100000000000c3020000000000000000000000000000000000000000000000000005b
:20183100000000000000000000000000000000000000000000000000000000000000000097
:16185100000000020000000000000000000000000000600000001f
:201867000000000000c300000000000000000000000000000000000000000000000000009e
:20188700000000000000000000000000000000000000000000000000000000000000000041
:1718a700000000001c0000000000000000000000000000000000000e
:2018be00000000000c302000000000000000000000000000000000000000000000000000ae
:2018de000000000000000000000000000000000000000000000000000000000000000000ea
:1618fe0000000000000000000000000000000000000000000000d4
:201914000000000000c30000000000000000000000000000000000000000000000000000f0
:20193400000000000000000000000000000000000000000000000000000000000000000093
:1719540000000000000000000000000000000000000000000000007c
:20196b00000000000c30200000000000000000000000000000000000000000000000000000
:20198b0000000000000000000000000000000000000000000000000000000000000000003c
:1619ab00000000000041cf04800000000000000000000000000092
:2019c1000000000000c3000000000000000000000000000000000000000000000000000043
:2019e1000000000000000000000000000000000000000000000000000000000000000000e6
:171a010000000000002010f0000000000000000000000000000000ae
:201a1800000000000c30200000000000000000000000000000000000000000000000000052
:201a380000000000000000000000000000000000000000000000000000000000000000008e
:161a5800000000000001af040000000000000000010000000000c3
:201a6e000000000000c3000000000000000000000000000000000000000000000000000095
:201a8e00000000000000000000000000000000000000000000000000000000000000000038
:171aae0000000000000000f000000000000000000008000000000029
:201ac500000000000c302000000000000000000000000000000000000000000000000000a5
:201ae5000000000000000000000000000000000000000000000000000000000000000000e1
:161b0500000001000000000000000000000000001000000af0407f
:201b1b000000000000c30000000000000000000000000000000000000000000000000000e7
:201b3b0000000000000000000000000000000000000000000000000000000000000000008a
:171b5b0000000000000000000000000000000000000000010f000063
:201b7200000000000c30208000000000000000000000000000000000000000000000000077
:201b9200000000000000000000000000000000000000000000000060000000000001a00032
:161bb200000000000000000000000000000000000000000000001d
:201bc8000000000000c30040000000000000000000000000000000000000000000000000fa
:201be8000000000000000000000000000000000000000000000000020000000000000000db
:171c0800000000000000000000000000800000000000000000000045
:201c1f00000000000c30200000000000000000000000000000000000000000000000000049
:201c3f000000000000000000000000000000000000000000000000000000003c00780000d1
:161c5f000000000000000000038000080000000e000000000000d6
:201c75000000000000c300400000000000000000000000000000000000000000000000004c
:201c95000000000000000000000000000000000000000000000000000000000200008000ad
:171cb500000000000000000000200091000000000000000000000067
:201ccc00000000000c3020000000000000000000000000000000000000000000000000009c
:201cec000000000000000000000000000000000000000000000000000000003000000000a8
:161d0c0000000000000000000100000000000000000000000000c0
:201d22000000000000c300400000000000000000000000000000000000000000000000009e
:201d4200000000000000000000000000000000000000000000000000000000000000000081
:171d62000000000000000000001000700000000000000000000000ea
:201d7900000000000c302000000000000000000000000000000000000000000000000000ee
:201d9900000000000000000000000000000040000000000000000000c8a52000000000005d
:161db900000000000000000000000000000000000006000000000e
:201dcf000000000000c30040000000000000000000000000000000000000000000000000f1
:201def00000000000000000000000000000000000000000000000000250aa0000000000005
:171e0f000000000000000000000008000000000000000000000000b4
:201e2600000000000c30200000000000000000000000000000000000000000000000000040
:201e4600000000000000000000000000000000000000000000008000000000000000116289
:161e66008100000000000000000000009aa8102000000000000073
:201e7c000000000000c3004000000000000000000000000000000000000000000000000043
:201e9c000000000000000000000000000000004000000000000102c00000000004000cb85b
:171ebc003d50001000000000000040000183e90001000000000000c4
:201ed300000000000c30200000000000000000000000000000000000000000000000000093
:201ef3000000000000000000000000000000000000000000000000000000000000000000cf
:161f1300000000000000000000000000000000000000001a0f602f
:201f29000000000000c3004000000000000000000000000000000000000000000000000095
:201f4900000000000000000000000000000000000000000000000000000000000000000078
:171f6900000000000000000000000000000000000000000000f4006d
:201f8000000000000c302000000000000000000000000000000000000000000000000000e5
:201fa0000000000000000000000000000000040000000000000000000000000040000000dd
:161fc000000000000000000000000000000000000000000000000b
:201fd6000000000000c30040000000000000000000000000000000000000000000000000e8
:201ff6000000000000000000000000000000000000000000000000000000000000000000cb
:172016000000000000000000000000000000000000000000000000b3
:20202d00001400000c30200000000000000000000000000000000000000000000000000023
:20204d0000000000000000000000000000000400000000000010000000000010400000000f
:16206d000000010000000000010400000000000510000000000042
:202083000000800000c30040000000000000000000000000000000000000000000000000ba
:2020a30000000000000000000000000000000000000000000000000000000000000000001d
:1720c300000000000000000000000000000000000100000000000005
:2020da0001000021cc30208000000000000000000000000000000000000000000000000028
:2020fa000000000000000000000000000000000000000000000400604e08000000780dbccb
:16211a00d0020002005eca500000000c0000000000000000000057
:2021300000100001c0c30040000000000000000000000000000000000000000000000000bb
:2021500000000000000000000000000000000000000000000000034007a00000000080f60f
:1721700029000000042040aa0000000100000000000003800000009d
:20218700000000000c302000000000000000000000000000000000000000000000000000dc
:2021a70000000000000000000000000000038000000000000e0000000000003c008019fbb7
:1621c7003c020002000000000380400000000000000001dca00082
:2021dd000000000000c30040000000000000000000000000000000000000000000000000df
:2021fd000000000000000000000000000000200000000000008000000000000200070e57b4
:17221d00d6800000040000000020000000000000000000000a000026
:2022340000000001cc3020000000000000000000000000000000000000000000000000006d
:2022540000000000000000000000000000030007000000000c0214000ef070300050013b14
:16227400d50000000654ca50030050000000000000006000000058
:20228a000000000000c3004000000000000000000000000000000000000000000000000031
:2022aa00000000000000000000000000000000000800000000480020000f040000008050c1
:1722ca0028100000003e60aa1010020000000000000000000000005b
:2022e100010400000c3020000000000000000000000000000000000000000000000000007c
:202301000000000000000000000000000000000000000000000000600ef0700000000000ee
:16232100000000000014ca00000000000000000000006348a50078
:202337000000800000c30040080000000000000000000000000000000000000000000000fb
:20235700000000000000000000000000000000000000000000000000000f0400000500004e
:17237700000000000000f0f501000800000000000002c03f055014f7
:20238e00000000000c302000000000000000000000000000000000000000000000000000d3
:2023ae000000000000000000000000000000000000000000000014000000000010000000eb
:1623ce000000000143fcca5010000001000000000000000000008e
:2023e4000000000000c3010000000000000000000000000000000000000000000000000015
:20240400000000000000000000000000000000000000000000000403800000000000000031
:1724240000000000027840aa00000000f0000000000000000000004d
:20243b000000c0000c30200000000000000000000000000000000000000000000000000065
:20245b00000000000000000000000000000000000057a81000000000000000003000000022
:16247b0000000000004000000000001a000000000c0000000000e5
:202491000000000000c3004000000000000000000000000000000000000000000000000028
:2024b10000000000000000000000000000000000000f43d580000000000000000000000064
:1724d100000000000020000000000010000000000001d000000000f3
:2024e800000000000c30240000000000000000000000000000000000000000000000000074
:20250800000000000000000000000000000000000000000000021405eca500000280100075
:1625280000000002002cca5000000000ba281040000c0000000017
:20253e000000000000c30000000000000000000000000000000000000000000000000000ba
:20255e00000000000000000000000000000000000080000000000362060550080005080008
:17257e00000000001c02e0aa0000000003c3d50000002000000000e3
:202595000000c0000c3020000000000000000000000000000000000000000000000000000a
:2025b500000000000000000000000000000100000e000000040000055ab100100001d9aa4f
:1625d5009502000000000000010000000000000000000768a50044
:2025eb004000000000c31000000000000000000000000000000000000000000000000000bd
:20260b0000000000000000000000000000000030010000000000000201cb108000001af80e
:17262b002a9000003c0000000000000000000000000003d705500073
:202642000000000eec3020000000000000000000000000000000000000000000000000002e
:2026620000000000000000000000000000000020007214300040366d4066e0000001bfb9a0
:16268200400000000037ca540000010196948020008004c000801d
:2026980000101c02f0c3000000000000000000000000000000000000000000000000000041
:2026b8000000000000000000000000000000000000ff0015080001428286640000000ab07d
:1726d80000000000142ad05540000008e36f800000ec0200a00000e0
:2026ef000000000cec3020084000000000000000000000000000000000000000000000003b
:20270f0000000000000000000000000000038000007214300e00366d4896e00400d9bd69ff
:16272f0068a9e000002faf54038800000000000e200001c850c0df
:202745000000000010c300010200000000000000000000000000000000000000000000009e
:2027650000000000000000000000000000002000000b00150080e1428289640000010df400
:1727850009405800242ac0a040200000000000008000003c0054007e
:20279c0000000017ec302000000000000000000000000000000000000000000000000000ca
:2027bc0000000000000000000000000000010000195214300c40006d6896e00000500073f3
:1627dc009008c00007bdca540300001a00000000001461e812c061
:2027f2000000000020c30000000000000000000000000000000000000000000000000000e4
:2028120000000000000000000000000000001000008f801500c2000280996404000080b0fd
:1728320036001c00004270aa40700000000000000020003c984400f9
:20284900010006c5ac302000000000000000000000000000000000000000000000000000a7
:2028690000000000000000000000000000000001815214300080366d6896e0000081900025
:16288900000000016024081400000001000000000166054850c0d3
:20289f000000006c10c30000000000000000000000000000000000000000000000000000da
:2028bf0000000000000000000000000000000000008b8015000401428099641000050a00f6
:1728df00000000001402cde740000800a00000000008423e00540054
:2028f6000001e00cec30200000000000000000000000000000000000000000000000000099
:20291600000000000000000000000000000000000c7a1430000000016996d001000011e80d
:1629360028000002020000000000000196b68040001c016850c0bd
:20294c0000001c3000c300000000000000000000000000000000000000000000000000005c
:20296c0000000000000000000000000000000000010f00150000800002896404280d080076
:17298c00028000003c40000000000000f36fc40000c0003c005400c0
:2029a3000000c21fec302000000000000000000000000000000000000000000000000000f7
:2029c30000000000000000000000000000000000005a1430000000016996d0860038113a7d
:1629e3009402000203f4ca0400000000000000000000016850c008
:2029f9000000026420c3000000000000000000000000000000000000000000000000000075
:202a190000000000000000000000000000000000000b0015000000000289640010000df879
:172a39002a8000003c7ee0f540000090000000000000003c005400ed
:202a50000001c71fcc30200000000000000000000000000000000000000000000000000063
:202a7000000000000000000000000000000000098c5a143000401471c996c000009801ecaa
:162a900020000001e7bdca5400018008000000000606396850c007
:202aa6000000246420c30000000000000000000000000000000000000000000000000000a5
:202ac60000000000000000000000000000000000110f8015000003600099648000090c3e08
:172ae600400000003c2050aa4000000100000000000003be005400ed
:202afd000000e39dcc302000000000000000400000000000000000000000000000000000dd
:202b1d0000000000000000000000000000010008187a143004000001c996c00000800161b3
:162b3d00000840001024ea041100000193295004008061e850c01d
:202b53000000243410c3000000000000000002000000000000000000000000000000000035
:202b730000000000000000000000000000000000100b80150000000000996484000b0e9860
:172b9300000000000102e0f540000800efc2a9000001c03e0054005e
:202baa00000000000c3020800000000000000000000000000000000000000000000000002f
:202bca000000000000000000000000000000000000721430000c366d4896e00000001bf8b5
:162bea0020000000001caf50000001987343e000400003c850c050
:202c00000010000000c30000000000000000000000000000000000000000000000000000e1
:202c20000000000000000000000000000000000000030015100001428289644400070dfe64
:172c4000000000000001c0a00100000100603c000800002c005440b6
:202c5700000000000c302008400000000000000000000000000000000000000000000000b9
:202c770000000000000000000000000000038050007214300e00366d4896e03c00d9bb2a4b
:162c97000008ea000000ea342000018a7283e00e000001c850c0b0
:202cad000000000000c300011a000000000000000000000000000000000000000000000029
:202ccd000000000000000000000000000000200200050015008001428289641a00050a5cf4
:172ced00000008400001c05340000278f0a03c008000002c005400ee
:202d0400000000000c30200000000000000000000000000000000000000000000000000053
:202d240000000000000000000000000000030008195214300c40006d6896c010005191b4b8
:162d440020004002078cef50000009993a83e0000000674850c047
:202d5a000000800000c3000000000000000000000000000000000000000000000000000016
:202d7a000000000000000000000000000000100070838015004200028099660100000a3a99
:172d9a0040000c000441f0a0010000d890743c000000022e00540064
:202db100020000000c3020084000000000000000000000000000000000000000000000005c
:202dd10000000000000000000000000000000001815214300000366d6896c0000081c1ec3b
:162df100200000100000ea34200008195056a0000006054850c094
:202e07000040000000c3000112000000000000000000000000000000000000000000000095
:202e27000000000000000000000000000000000000858015000001428099640c000100d6ce
:172e4700000001000002c0534000009199a694000000022e00540036
:202e5e00000000000c302000000000000000000000000000000000000000000000000000f8
:202e7e0000000000000000000000000000000020007a1430000400016996e00000501f7093
:162e9e0020000401c38000000000098d36c3e00001007be850c0d3
:202eb4000000000000c300000000000000000000000000000000000000000000000000003b
:202ed40000000000000000000000000000000000b0e300150000000342896400200d883b14
:172ef400c0000020024000000000309880303c000008042c00540065
:202f0b00000000000c3020201000000000000000000000000000000000000000000000001a
:202f2b0000000000000000000000000000000000005a1430000000016996e0000050a7aa67
:162f4b0094800000001eea5008000999b016a0402000056850c017
:202f61000000000000c300000000000000000000000000000000000000000000000000008d
:202f810000000000000000000000000000000000000500150000000002896600000d90f098
:172fa100154000020000c05500000018813e94000000032c005400bf
:202fb800000000000c3020000000000000000000000000000000000000000000000000009d
:202fd80000000000000000000000000000000009805a143000401401c996c8000000a03b5b
:162ff800890800026040ce242000081a56c3e0000626036850c0bc
:20300e000000000000c30000000000000000000000000000000000000000000000000000df
:20302e000000000000000000000000000000000010038015000003600099640402801b5485
:17304e00345000003e21c0d140000011e0743c000000402e00540054
:20306500000000000c302000000000000000000000000000000000000000000000000000ef
:2030850000000000000000000000000000010008187a143004000001c996c0100019c0003f
:1630a5000000400060000000000000001ec3e004202061e850c116
:2030bb000000000000c3000010000000000000000000000000000000000000000000000022
:2030db000000000000000000000000000000000010058015000000000099640400000b001f
:1730fb0000000000000000000000000000f43c000080402e0054004c
:20311200000000000c302080000000000000000000000000000000000000000000000000c1
:203132000000000000000000000000000000000000f214300000366d4896c0000470093554
:16315200c0000000005cb430000009987a83e000000039c850c0d8
:203168008000000000c3000000000000000000000000000000000000000000000000000004
:20318800000000000000000000000000000000000007001510000142828964d000208016c3
:1731a800960200003c3c7d850000001180a03c10000003a400544046
:2031bf00000000000c30200000000000000000000000000000000000000000000000000094
:2031df000000000000000000000000000003800000f214300e00366d4896f03c00800f02cb
:1631ff009400e000003caa50080809817283e00e000001c850d0aa
:203215000000000000c30000000000000000000000000000000000000000000000000000d6
:2032350000000000000000000000000000002000000300150080014282896402000f00b24c
:17325500d9800806000350550000005890a03c008000002400540097
:20326c00000000000c302000000000000000000000000000000000000000000000000000e6
:20328c000000000000000000000000000003000019d214300ca0006d6896c030048095735d
:1632ac00898840000701ae242010098132c3e0100000654850c085
:2032c2000000800000c30000000000000000000000000000000000000000000000000000a9
:2032e200000000000000000000000000000010000087801500c000028099641100250d0c12
:1733020038900400007350d14002009890783c0000000226005500b9
:20331900000000000c302008400000000000000000000000000000000000000000000000f0
:203339000000000000000000000000000000000181d214300000366d6896e00000580502fc
:1633590005000000001caa5008200b815856a0000006054850d0ce
:20336f000000000000c3000102000000000000000000000000000000000000000000000078
:20338f0000000000000000000000000000000000008380150000014280996480000080da6c
:1733af00b9d000000031f0550001009889369401000002260054009f
:2033c600000000000c3020000000000000000000000000000000000000000000000000008b
:2033e6000000000000000000000000000000000001fa1430000000016996c0800001893787
:16340600e08000000000ee242000019e7e83e000000001e850e085
:20341c000000000000c30000000000000000000000000000000000000000000000000000cd
:20343c000000000000000000000000000000000000c70015000040000289649000000e16b1
:17345c009e800000000340d14000000990243c000000002400540076
:20347300000000000c302010000000000000000000000000000000000000000000000000cd
:203493000000000000000000000000000000000700da1430000000016996c140050187baac
:1634b300800000000045cf8000000988b856a0006000016850c0d7
:2034c9000000000000c3000000000000000000000000000000000000000000000000000020
:2034e90000000000000000000000000000000000000300150000000002896400002010d4b8
:173509003d4000000027db7a00000071013294000e00002400548074
:20352000000000000c3020000000000000000000000000000000000000000000000000002f
:203540000000000000000000000000000000000980da143000001421c996c1000019802aac
:163560008d0800006640000000001018d856a000a026016850c0e5
:203576000000000000c3000000000000000000000000000000000000000000000000000072
:2035960000000000000000000000000000000000100780150000036400996404000010f4fd
:1735b60014d800001c2000000000020109a29400000040260054805a
:2035cd00000000000c30200040000000000000000000000000000000000000000000000042
:2035ed000000000000000000000000000001000f18fa143004000001c996c15010180000bb
:16360d0000004014000000000000090130002004002061e850c07c
:203623000000000000c30000000000000000000000000000000000000000000000000000c4
:20364300000000300000000000000000000000001003801500000000009964000100000091
:1736630000000000000000000000001090b400000000402600540042
:20367a00000000000c30208000000000000000000000000000000000000000000000000054
:20369a000000000180000000000000000000000000f214300000366d4896c00000b809f265
:1636ba00950000020015a4310000050c304020000e1c03c850c0d3
:2036d0004000000000c31000020000000000000000000000000000000000000000000000c5
:2036f0000000000000000000000000000000000000e3001510004142828964c800038f94d2
:17371000155000000c3edb4a000000d800b40010000020340054404a
:20372700000000000c30200000000000000000000000000000000000000000000000000026
:2037470000000020405fa9440000000000038000007214300e0000014896d03c0071d7aa92
:163767008100e000c000000000281b8a7800200e000001c850c0df
:20377d000000000000c3004000000000000000000000000000000000000000000000000029
:20379d0000000005000142a80000000000002000000f0015008000000289650a00009d5c65
:1737bd003e900800023000000000005100380000800000040054008c
:2037d400000000000c30202800005f1540200000000000000000000000000000000000007d
:2037f4000000000000000000000000000001000019d214300c00006d6896c0300051bd729e
:163814009500c0000726ea5400000000180020000000674850c0e7
:20382a000004000000c30040020000415400000000000000000000000000000000000000e0
:20384a000000000000000000000000000000100000838015004000028099658000010d3cac
:17386a002a904c003c76405540000000003c000000400236005400b2
:20388100000000000c302000080000000000000000000000000000000000000000000000c3
:2038a1000000002580000000000000000000000000521430000036016896d00000d0e97b93
:1638c100d5020000004000000000001a300020000006714850c0a1
:2038d7000000000000c3004008300000000000800000000000000000000000000000000016
:2038f70000000005080000000000e00000000000000f80150000014000996404000300b02b
:17391700281000003c3800000000000000b0000000000006005500e2
:20392e00000000000c3030000000000000000000000000000000000000000000000000000d
:20394e000000000000000000000000000000000000fa14300000000008f04000000009f2e8
:16396e00950400000055acb00000071f10002000200003e850e068
:203984000000000000c3000018000000000000001000000000000000000000000000000038
:2039a400000000000000000000000000000000000003001500000003800f07000381005c72
:1739c4002a9000000022db5b00000008e020000000600034005400ea
:2039db00000000000c302000000e0000000000000000000000000000000000000000000062
:2039fb000000000000000000000000000000000180ba141000000000000000000000e7b3b3
:163a1b00d50400000000000000000001180020000000016850e0ea
:203a31000000000000c300400000000000000008000000000000000000000000000000006a
:203a51000000000000000000000000000000000030030029000000000000000000010018e0
:173a7100141000000028000000000000d0240000000800040054009e
:203a8800000000000c32202800000000000000000000000000000000000000000000000098
:203aa80000000000000000000000000000000009810000000000000000000000070005f276
:163ac800950400020794ea540000080c18402000202603e8506007
:203ade000002000000c3000000000000000000000000000000000000000000000000000003
:203afe000000000000000000000000000000000010c00000000000000000000000700094d4
:173b1e002a9000000c0060aa4000009000ac00000400403600540076
:203b3500000000000c30200000000000000000000000000000000000000000000000000014
:203b5500000000000e00000000000000000100080000000004000000000000100058edab35
:163b7500d50040000065d03000000180023c000400a00400000059
:203b8b000000000000c3100000000000000000000000000000000000000000000000000047
:203bab0000000000000000000000000000000010100000000000000000000000000080b8a2
:173bcb00281000000023fa4b000000080003c0010010420000000025
:203be20001000000ec30200007015059a02000000000000000000000000000000000000015
:203c02000000000500000000000000000000004000000000000400046100800038500ba938
:163c2200480000000797c522000000003a8940004020016af500fc
:203c380040100002d0c310000070c03d980000000000000000000000000000000000000072
:203c5800000000000000000000000000000000000000000000000003c08000000040003a8f
:173c7800f04010000043dbc2000000000d6838000000c0040a00009a
:203c8f00000000000c30200017001225a000000000000000000000000000000000000000cb
:203caf0000038000000000000000000000000005003328002e003c03c850c038008003af63
:163ccf00e002e000003cbfc203830181d2bf000e00003a40e74a0e
:203ce5000000000000c30080020000ba5880000000000000000000000000000000000000e8
:203d0500000020000000000000000000000000000800828040800140140054020387005728
:173d25005e8008000002fa7800200008936de0008000001404240069
:203d3c0000000000ec302000080e5a25a000000000000000000000000000000000000000f6
:203d5c000003000000000000000000000000000100829400610080654912c030000180001b
:163d7c000000c000060000000300019972a9400c0420700fd100f3
:203d92000000000010c30040003000ba58400000000000000000000000000000000000007c
:203db20000000000000000000000000000000000009f42802008100226b84400000500002f
:173dd2000000000004000000003000189381540440004405ee20107b
:203de900010000000c302000000f1225a00000000000000000000000000000000000000077
:203e090000000000000000000000000000000005000000000000266f4850c00000f005b200
:163e290095000002e00daa5400000800033890800000005ee2422c
:203e3f000000000000c300403800d03e5804000000000000000000000000000000000000be
:203e5f0000000000000000000000000000000000080000000000a1c216005400000100f479
:173e7f002a9000003602c0aa40000010950345000001c0000e2400b0
:203e9600000000400c302000000a1225a0200000000000000000000000000000000000006f
:203eb600000000000013a9504000000000000000017e280000008001e850c001020017bbab
:163ed600d5000003e73dca04000008005aa94000000062ecf8007b
:203eec000000002c00c310000001003e580000000000000000000000000000000000000020
:203f0c000000000000074155000000000000002870d08280000010002400540008400db001
:173f2c00281000001c6160f5400000f0070154000000030fbb5010bb
:203f4300000000000c30200800005225a000200000000000000000000000000000000000c3
:203f63000000000000000000000000000000000000faa948000000036850c0000081c9f39b
:163f83003c040000460daa540003818103b890800000635c030005
:203f99000000000000c30041000000b658800008000000000000000000000000000000006e
:203fb90000000000000000000000000000000000000701548000000014005400000b1e5625
:173fd90029400000024260aa40002800850345000000c02ed4b080f3
:203ff000000000400c303000050a1a25a040000000000000000000000000000000000000d7
:204010000000000101000000000000000000000000000000004006016850c0000080196cca
:164030000c01000003ecaa040000071ddaa950000000047ef50161
:204046000000002c00c3000000d9b03e58000000000000000000000000000000000000004c
:204066000000000008d00000000000000000020000000000000a000026005400000b0eb211
:1740860021c00000007940f54000000987815500000002070a0000db
:20409d00000000000c302000000e5a25a0100000000000000000000000000000000000006a
:2040bd00000100000000000000000000000000018986a80004016063e850c01005800000d5
:1640dd000000400000000000010001019f6b4004021e0640e742ad
:2040f3000000000000c30040080000b6580000000000000000000000000000000000000094
:204113000000001800000000000000000000000011df014000000840160054000229000066
:174133000000000000000000000000089fe0bc0000002224042400c4
:20414a0000000006cc302000039b5225a0000000000000000000000000000000000000007e
:20416a0000000000000000000000000000000000009b284000001c01c850c000009993e829
:16418a003e000002000daf540000000000000000000000000000cf
:2041a0000010000160c300000070c02e589000000000000000000000000000000000000085
:2041c00000000000000000000000000000000000d005638800000020140054400081080ec0
:1741e00003c000000c2060a041000000c000000000000000000000d8
:2041f700000006df8c30200000001225a00008800000000000000000000000000000000088
:204217000000000000000000000a000000000007000000000e000001c850c004029811b828
:164237003e00e803e7a5aa040380001c0000000000003800000037
:20424d000000006c10c300000000e0a658200a040000000000000000000000000000000006
:20426d000000000400000000000000000000000008b00000008000000400550000598902b8
:17428d0003c008003c4240fa40200001000000000000000000000036
:2042a4000001601ccc302000081a5a25a00000000000000000000000000000000000000020
:2042c400000000000000000000000000000010000000000000001c654850c000000001b838
:1642e4003e00c00000000000000000183e14000000140000000048
:2042fa000000020030c30000003000ae5880000000000000000000000000000000000000f9
:20431a0000000000000000000000000000000281000000000000002216005400000000066e
:17433a0043c000000020000000000000004140660000200000000042
:204351000100001ccc30240008011225a0000000000000000000000000000000000000002f
:204371000000000000000000000a00000000000500000000000006054850c001000191b86f
:164391003e000a0b60058f540000000092851080000000000000d4
:2043a7000000000030c3000000f0d0265801020000000000000000000000000000000000c2
:2043c7000000000000000000000a00000000000008000000000000020600540028070e0e1d
:1743e70043c000016600c050400000000bc0c1400000000000000039
:2043fe001001c7cfec30200000005a25a0000000000000000000000000000000000000009d
:20441e00000000000000000000000000000000000c0783c0200f8001e850c0008058077829
:16443e003e800001e78eaf54001000000000000000000000000021
:2044540001003e7c20c300000000002e580100000000000000000000000000000000000023
:20447400000000000000000000000000000000000000403c200000001400540010800d0384
:1744940043c00000000070a0400200000000000000000000000000bc
:2044ab000001c7ddcc30202a80001a25a02040000000000000000000000000000000000047
:2044cb0000001000000000000000000000000000001f3e84000000016850c0050219b3fc98
:1644eb003e0000d843a5ef540000078e00000001400000000000a4
:204501000000006c10c30001840000a658000a0000000000000000000000000000000000ce
:204521000000020400000000000000000000000000f0c3e80000e000040054000855080339
:1745410003c00001c040c05040000008000000001000000000000037
:204558000400c39fcc30200000001225a000000000000000000000000000000000000000ea
:2045780000000000000000000000000000000000000000000100a6016850c000001995fc59
:164598003e000000005eef540000000000000000000001f8fa003b
:2045ae0000a0007c20c300000000002e584000000000000000000000000000000000000028
:2045ce0000000000000000000000000000000000000000000010104016005400000f990754
:1745ee0043c00000002c70a04000000000000000000000030fa08005
:204605001003e000cc3020029000023c0010000000000000000000000000000000000000a6
:20462500000000100000000000000000000000000000000004002061e850c000029995f8c0
:164645003e004008c0248a0401000000000000004000000ac0025a
:20465b0001002e3c00c3000038000003c00004000000000000000000000000000000000012
:20467b000000000600000000000010000000000000d0000000000040060054100049990f9e
:17469b0003c00009403c50fa4000000000000000000002800c001098
:2046b200000000000c3020010f00184020000000035eaf40000001e00000000000000000d3
:2046d20000000000000000000000000000000000005ae05000014003c850c0000019953c38
:1646f2003e000000e026f030000010005a94105000006aeae500b7
:204708000010000000c3000000f0003800000000002f0a57000000100000000000000000f6
:20472800000000000000000000000000000000005003fd6d20000000040054c00000180262
:1747480043c100000002c887000002000fb8850000000016ec0000b5
:20475f00000000000c30200007011a65a80e80000000000038000000000000e00000000009
:20477f0000000000000000000000000000038000009729d00e402001c850c00000b9d578ba
:16479f003e00e001402f8fc00380080000000000000000fef001ad
:2047b5000000000000c300000030f03e5800840000000000020000000000000800000000dd
:2047d5000000000000000000000000000000200000033295848803c03c005410000109065b
:1747f50003c0080614006e7800200010000000000000003e0500006f
:20480c00040800000c302000280d5225a0000000040000000000000b270502000007800014
:20482c000000400000000000000000000000400000000000000000674850c08000b981b8bb
:16484c003e00c000000000000000080000000000002000daa52091
:204862000001000000c300000030c032580000000280000000000000bfb6d210000000001f
:20488200000004000000000000000000000004000090000000000002060054000001000e13
:1748a20043c000000000000000000010000000000001c02c0aa00055
:2048b900000000000c30200000015225a000a000697da860000400000000000000000000d9
:2048d9000000000000000000000000000000000801000000000006054850e00000181538ce
:1648f9003e00000002000000000000019f3c0400000404fe502112
:20490f000000000000c300000000c0ae58800000002ffa54040000000000000100000000fd
:20492f0000000000000000000000000000000000d0b00000000a00023e0054000000080f33
:17494f0003c0000000400000000000d0954280000000428205008cd2
:20496600000000000c302000081a3a25a800400038000000000000f32295220000001dec5f
:20498600148002800000000000000000000000098000000000000003e850c0000058090511
:1649a6006a0000000025ca5400000008db3990800004045aa00020
:2049bc000000000000c30000005100a258000000040000000000000fbc1410100000037f48
:2049dc00db4140000000000000000000000000001000000000004000040056000000803afb
:1749fc0029400000000340554000000101416900000002030a001098
:204a1300000000000c302000000e1a65a000000000000000003800100000000000000000b2
:204a33000000000000000000000000000000000f99fb6150000000016850c000009005fc05
:164a53003e000000e040000000000001000000000c006c00000076
:204a69000000000000c30000100100ae58800000038000000000000e0000000000800000c2
:204a890000000030000000000000000000000000b0e5351d200000003c00540800090a0229
:174aa90003c00000023c000000000000f00000000000028000000083
:204ac000000000000c302000011a3225a000001402dec1680000700b23050300000780001e
:204ae0000000000000000000000000000000000000033c10400026036850c00000d195fc24
:164b00003e000002000000000000059a5b3e80000c04045aa00099
:204b16000000000000c30000000000ba58020000202fee7400000080bfb6d2000140780077
:204b360000000000000000000000000000000000000003c101000443860054800009190fc8
:174b560043c000001c000000000002000043e880000022830a0010bd
:204b6d00000000000c30200001007225a004000000000000100070000000004208000000c6
:204b8d000000000000000000000000000001000188bf7dd244802061e850c0000018970480
:164bad000200480000000000011000000000000040160000000041
:204bc3000000000000c300000000e0a25800000003000000000000800000000001403c0035
:204be30000000020000000000000000000000000000577d5001400403e00540800009903b7
:174c0300000000000000000000000000000000000248000000000050
:204c1a00000000000c302040080e5a65a000008000000000000000000000000000000000e9
:204c3a0000004000009fb2dc00000000000000000036948800000003c850c0000000058437
:164c5a0002000000001ec030800000000000000000266258e240b2
:204c70000000000000c300042030003a58300000000000000000000000000000000000004b
:204c900000000000000f7e056000000000000000000b2f04000000003c00544800000002fa
:174cb000400100000002fb4b00000000000000000000400d8524006e
:204cc700000000000c30200818011a25a00e00000400000038050000000000e00000000042
:204ce7000003820100000000000000000003800000b2be080e0000034850c0003801c500c5
:164d07000200e020000cbf80038000000000000e0400655f81402f
:204d1d000000000000c3000106f090a6580080000280000002003000000000080080000072
:204d3d000000200008000000000000000000200000f5f1e8008000002c005400000f0e0221
:174d5d00800008000002ffb5002000000000000080000605b5b400ed
:204d7400000000000c30200000017a25a000000001edc1600000000fbb2d0000000000007d
:204d94000000002000000000000000000003280019000000000006674850c0002098170007
:164db4000200c000060cea5400000000000000000034004aa000b9
:204dca000006000000c300000000c0a258040000001fadb404000000bf205440000000004b
:204dea000000000400000000000000000000000000d00000000000023e00540000098e0b9f
:174e0a00000000000003c0554000000000000000000040000a0000ef
:204e2100000000000c302000000f7a25a000a0160000000000007800000000000400000095
:204e410000000380000000000000000000000008009ba950000006034850c00100800784c5
:164e610002000000000eef540000001800000000000604faf34297
:204e77000000000000c3000000f0c0ae582000000000000000000080000000000080000082
:204e970000000038000000000000000000000000700f8155000000002e005400080b0003d6
:174eb700800000000001c0a04000000000000000000002660fb40494
:204ece00000000000c302000500d7265a040408038000000000000000000000000002ffc31
:204eee00b41000400000000000000000000000058100000000400003e850c0000080170048
:164f0e0002000003e7c000000000080007bc10000000005ea00008
:204f24000000000000c300002200a0ae58000b10000000000004070f00000000100002ff9c
:204f44008140404000000000000000000000004000a00000000300003c005400040d0f0376
:174f6400400000102c200000000040500043c140010000030a0200b6
:204f7b00000000000c30200805803265a000000001d9e460003800036d1582021003c000c4
:204f9b000000020000000000000000000000000f00bbb2c8000000736850c001380001800b
:164fbb0002000000c0000000000000000000000000000618a0015f
:204fd1000000000000c30001000000ae58000000002dff4404200009fbd450000000340006
:204ff100000000b000000000000000000000000058036d6c000000002c0054080809000221
:17501100c00000000c0000000002000000000000000242dd05000094
:20502800040000000c30200047803a65a000000e00000000000000000000000000000000f4
:20504800000006801e00000000000000000004011a574d080000a003e85040006880118441
:1650680002000103c70eea5400000000000000000000021e0541b3
:20507e000020000000c300000000f02258000000000000000000000e0000000000000000b7
:20509e0000000002010000000000000000000000000fb290000034403e005480000f0b0bf3
:1750be00000000000e00c05540000000000000000000002400ac08a0
:2050d500000000000c302000010e7225a00410000000000013c000000000004100020000ef
:2050f500000104001e00000000000000000104000000000004102074000000004230002336
:16511500c000410000000000010400005b3d540450003c00000002
:20512b000000000000c300000001f03658800000024000000028000e0000000000006400c6
:20514b000000010000e0000000000000000000000080000000000042000000000049000058
:17516b003c004000003c0000000000009083d500000042c00000008b
:205182000000000000000000000f5225a80000166ac9e040800000a00000000000068000d0
:2051a200000000000000000000000000000000000976a8000000000000000000008017012e
:1651c2006a000000003785a00000080056fc200004200358fa001e
:2051d80000080000000000000000c02658100000003fdfa40000001000000000002440002b
:2051f8000000000000000000000000000000000001d0c280000008000000000000070e1057
:17521800294080000001d0550000007000a03c40000343cfa500002a
:20522f00000000000000000008007a65a00ea01669fdc160b80081a0000000e8000681af96
:20524f00040800000000000000000000000000050a0000000e003660000000380000112314
:16526f00c302e00203c0000000000800322aa00000a07c0000009f
:2052850000000000000000000030002e58008000002fbe74020001000000000800804000a7
:2052a500f0401000000000000000000000000000090000000080004400000002000f0e08b5
:1752c50003d04800046c0000000000500082a8400006c3c000000004
:2052dc00000000000000000020083225a000000006cbe06000000091730500000003018fe6
:2052fc0004000000000000000000000000000000001a1d020000200000000000000005a38d
:16531c00c340000007ad85a000000001322aa000001c3f6a0a00d3
:20533200000000000000000004f100b65800000002bfdfa41000001adff6d05000000010e5
:20535200f04100000000000000000000000000000000f5d00000014000000000000f0f00e6
:1753720003d200000002505500000100a082a8400003e3bc05f00006
:20538900000000000000000000003225a0000020040000000000580d7b91000000c000af09
:2053a900040000400000000001000000000000000000000000001c6000000000008001a3ff
:1653c900c300000000018964200008003a2aa00000142a5a5f00fa
:2053df0000000000000000000000803a580000014280000000000000ba7d1040081c00101e
:2053ff00f041028000000000000000000000000070e00000000000000000000000070f086d
:17541f0003d2000024000069490000500002a840000366ee00a0009a
:2054360010100000000000000d8f7a65a00000002adbe04100008003a31580000007008fa4
:20545600040000000000000000000000000000000000000000000e027981400000000523c0
:16547600c3200001e00180f00000001b3a2aa8000000017c5a00ed
:20548c00010000000000000040d0a02258000100003edfa600040f00df32d01010000010ed
:2054ac00f0410040000000000000000000000040009000000001002205a5b400040000001a
:1754cc0003d000100000100f00000000a002a800000003870550009e
:2054e300000000000000000003817a65a000004005fcc161000000e000000000100041cf43
:205503000408004000000000000000000000000001ba3c00400000040000000038000022a7
:165523005b2000000000000000000d9b3a2aa80040003a7a5f00f0
:2055390000000000000000000008a0b258000008032f8e740000000000000000408038105c
:20555900f040002200000000000000000000000000a5c28080010002000000000000000274
:17557900da50000c003c000000000050a082a8000a03c42f00a000ef
:20559000000000000000000028003225a000000002d9e060800001e000000000020281af2c
:2055b00004100300000000000000000000000000017e28000000000279a440000080002618
:1655d0005b20000000000000000000003a2aa800000003dc5a0005
:2055e60000000000000000000454002e58000000003fdfa40000000000000000003c400089
:20560600f040000000000000000000000000000000e00280200000002da7e4000001000217
:175626001a50000000000000000030000082a8000009c00505500086
:20563d0000000000000000040d9a3a25a004100071fdc16112c01005e6000041000004ec01
:20565d00a40004000000000000000000000004080000000004100000dab540104000002620
:16567d005b2041004035c5f000000000122aa80040003b4c5f0027
:205693000000000000000000005400a658000060042f8e7400100080d24000000e0002de80
:2056b300c1604100000000000000000000000000500000000000000017c5a4100000000293
:1756d300da5020000002700a000000000002a8000a00042f00a00073
:2056ea000000000000000000000a7a25a000002000edc54000008011bfdc0000000000cf4a
:20570a000400000000000000000000000000000800333c12000000000000000000001523ba
:16572a00c34200000014e5a000000800722aa000001e04400080a5
:2057400000000000000000000001e026581004a140378c750000050c92ffc000000000104b
:20576000f0400000300000000000000000000000100183e90100000000000000000f0e002e
:1757800003d100000001f0aa00000050f002a850002162c0b0000076
:205797000000000000000000000a1a25a00e002000000000000090a9fb9c08e8016201efc8
:2057b7000403828000000000004000000003800000000000000000017aa00138000011237e
:1657d700c320000000000000000000017a2aa0000e0005c80fa00a
:2057ed0000000000000000000001b0ae580080014000000000000589383dc0080282401085
:20580d00f04030000000000000080000000020000000000000000000020a008a000f0e0838
:17582d0003d200000000000000000000e082a84000000241e0f10031
:20584400000000000000000000091265a00000002800000000000013620008000000018fef
:2058640004080008000000000001400000000008000000000000000000000000008007a39d
:16588400c3000000000000000000000102332200000479c15aa0bb
:20589a0000100000000000000001d0be58000000040000000000000f1400000000000010c0
:2058ba00f0400000d0000000000008000000000010000000000000000000000000070f00a0
:1758da0003d0600000300000000000f0e023300000002026da5114ac
:2058f100000000000000000000003a65a8000016000000000000199df200a90010000000d9
:20591100000000000000000000a0000000000009800000000000146800000000020001a32b
:16593100c3400000000000000001080002332000000600c896801b
:205947000000000000000000000000b2580000200000000000000d1a540002200400000075
:205967000000028000000000000400000000000090000000000000200000000000400f0893
:1759870003d020000000000000000070002f304000002000f960107e
:20599e00100000000000000001017225a000020068ecc5610000180000000000000200000a
:2059be00000000000000000000000000000000031a0000000000000000000000000000228a
:1659de005b20000000000000000040005a2aa800800001c896806d
:2059f40001000000000000000030b0365800000000378c740000008000000000000000006d
:205a140000000000000000000000000000000000010000000000000000000000000000026f
:175a34001a52000000000000000000000002a8000401c00289600095
:205a4b00000000000000000001017a25a00000002b5ae46100001019ba000000020041cf3b
:205a6b000408000000002950000000000000000018f6b4500000000000000000380000222a
:165a8b005b20000000000000000000001a2aa8000000016896801f
:205aa10000000000000000000008a03258000000042edf840000008dd2c00000001c3800ab
:205ac100f04000280005016900000000000000005005aa8500000000000000000000000278
:175ae100da50000000000000000000000082a8000a000240f96000b5
:205af800000000000000001008001a0cc000000078ecc56100007800000000020000018ffc
:205b1800040800000000000000000000000000001a00000000000000000000000000002621
:165b38005b000001c000000000000800522aa800002605c8968006
:205b4e00000000000000000000500db3300000080037fc7400000100000000000000000047
:205b6e00f040000000000000000000000000000001000000000000000000000000000002e4
:175b8e001a54000002380000000000900002a8000000c202a9600051
:205ba50000000000000000000d88000000040000000000000000100000000042000381cfa2
:205bc5000401000000102950400000000001000500ff141020000000000000100000002673
:165be5005b0000000000000000000018122aa800000000689680d5
:205bfb00000000000000000000510000000000100000000000018000000000000000001098
:205c1b00f0404000000002950000000000000000000b03e90000000000000000000f00025a
:175c3b00da50400000000000000000010082a80000000002f9600062
:205c52000000000000000000001e56155020000000000000000001e93860000002001c0099
:205c7200080000080002bc140000000000000000000000000000000000000000000000260a
:165c92005b4400000017c5a0000008005a2aa40000200148968032
:205ca80000000000000000000000a0415500000140000000000001107a070000000c000eb9
:205cc80000000000d00043c1000000000000000000000000000000000000000000000f02d7
:175ce8001a5100000001d0aa000000500002a81000024002a960c0a8
:205cff000000000000000380001c00000000804607ea5f0000008010000000e00260448931
:205d1f006c0780000e0000000000000000000000000000000a00000000000038008010226f
:165d3f005b00000000000000000000003a2aa000000005e89680ec
:205d550000000000000000200001a00000000408022e0ff000030b0d00000008002e340ca1
:205d750096402000010000000000e00000000000000000000000000000000002000d0e0218
:175d9500da52400000000000000000900002a84000000240b9608036
:205dac0000000000000000000d0000000000000400dcff0200008000000000080140549933
:205dcc006c00000001063c100000000000000000000000000000000000000000008017a3be
:165dec00c30400000000000000000000722aa800000c69499680c2
:205e0200404000000000000000d0000000000000400c0df0000003000000000040143c0d47
:205e22009650000000e043c10000000000000000000000000000000000000000000f0e0079
:175e420003d0400000000000000008000082a80000000682b9600063
:205e590000000000000000200001f238100000002a7a802b4000001be200000008020689a9
:205e79006c00000000073c100000000000000000000000000000200000000000000011a376
:165e9900c30000000000000000000000122aa000000061c896a0f5
:205eaf0000000000000000010000ed67e9050002460700000800000cd70000000004000f43
:205ecf0096500000000043c10000000000000000000000000000004000000000000f0f0863
:175eef0003d200000c000000000000f00002a84000000400b96000c4
:205f060010000000000000000000000000004024000000000038100ff200080001c0148958
:205f26006e00000000000000000000000000000000000000000000001a0f4000000005235c
:165f4600c30600000000000000000100322aa0000000054896801c
:205f5c0001000000000000000000000000000a016000000000000000180000000024002a53
:205f7c009640000000000000000000000000000000000000000000000000f48000000000bb
:175f9c0003d0000000000000000000f80002a84000000282896010bc
:205fb3000000000000000000000000000000001c20fd0800000018000000000000000699d6
:205fd3006e000000000000000000000000000000000000000000000200a540001000012325
:165ff300c320000007000000000008001a2aa8000000014896815a
:20600900000000000000000038000000000000006216e000000003800000000000003c2afe
:206029009640000000900000000000000000000000000000000000001405a48000000008ac
:1760490003d4000000000000000000b00002a80000000002b96000f4
:206060000000000000000000010016b45040001e017a0800000080057a80000002401e89bc
:206080006c000010000000000000000000000000000000000000000000000000000005a3dc
:1660a000c3000001e0000000000000017a2aa80000140148968086
:2060b6000000000000000000000807eb8d0000000005e00000000d00002800000014242cc5
:2060d600966040020000000000000000000000000000000000000000000000000000000072
:1760f60003d200000000000000000000d082a80000000002d9600089
:20610d0000000000000001400000f63810000000200000000280d810000000440000169976
:20612d006d1100000010295000000000000000000000000004000000000000101080002681
:16614d005b0000000000000000000000322aa001401e0068968008
:20616300000000000000000400000d67e98300004400000000100d880000000000003028f7
:2061830096600000000002950000000000000000000000000000000000000000000f00025e
:1761a300da5200200000000000000000f002a84002002002b9600082
:2061ba000000000000000000000000000000000e00580800000000800000000002e0548918
:2061da006e0000001e06bc100000000000000000000000000000000000000000000005231f
:1661fa00c30400000000000000000f805a2aa00000200169968075
:2062100040000000000000000000000000000001c01db0000000001000000000000e302d25
:2062300096444000000003c10000000000000000000000000000000000000000000f0f0052
:1762500003d3000000000000000000700002a85004024000e9604028
:206267000000000000000000000000000000000e700000000000000bbbdc00e000001e9960
:206287006c03800000073c100000000000000000000000000020000000000038000010222b
:1662a7005b0400000000000000000000122aa00000200069968007
:2062bd0040000000000000000000000000000001c000000000000000ba7fc0080000000db2
:2062dd0096402000000003c10000e00000000000000000000004000000000002000f0e02e2
:1762fd00da50400000000000000000000002a84000024000a96000eb
:206314000000000000000000000000000000000172ca0800000004000000000000065c9925
:206334006c0000000e06bc100000000000000000000000000000000000000000008015a3c5
:16635400c304000000000000000000005a2aa000001e6969968042
:20636a00400000000000000000000000000000000787800000000000000000000000640a57
:20638a0096400000310043c1040000000000000000000000000000000000000000070e00cf
:1763aa0003d4000000000000000000000082a84000002400c960004e
:2063c1000000000000000000000000000000000000000000000000000000000003c6049956
:2063e1006c000000010000000000000000000000000000000000000000000001088001a302
:16640100c34000000000000000000b017a2aa0000026016996808c
:2064170000000000000000000000000000000000000000000000000000000000003c400fda
:2064370096400000f0b00000000000000000000000000000000000000000000000070008c0
:1764570003d000000000000000000070d082a8400002e000a96000c6
:20646e0010100000000000000000000000010020600000000000000000000000024004899e
:20648e006c10000000023c1000000000000000000000000000000000000000000000002202
:1664ae005b2200000001e0f0000000003a2aa800000001689680ff
:2064c40001000000000000000000000000001000440000000000000000000000000c200c2b
:2064e40096400000000043c1000000000000000000000000000000000000000000000002bc
:176504001a5000000000100f000000900082a80000000000a9600034
:20651b000000000000000000000000000000010c6e1c0a00000001b87280000a000314896a
:20653b006c0020000000000000004000000000000000000000000000000000000000012350
:16655b00c3200000000000000000000a322aa800002001499680b9
:2065710000000000000000000000000000000008064500500000000ab41400400000002c29
:2065910096480000900000000000e80000000000000000000000000000000000000000088c
:1765b10003d400004000000000000000a002a80000014002a9600026
:2065c8000000000000000000000000000000001e34ee4002010059a00000000000001e8990
:2065e8006c0000000002bc100000000000000000000000000000000000000000000007a3af
:16660800c32000000000000000000000822a88000000696896817d
:20661e0000000000000000000000000000000000023f00000028000000000000000c0009de
:20663e0096400000000003c10400000000000000000000000000000000000000000000009e
:17665e0003d0400000000000000000000501540000000000896000cf
:206675000000000000000000000000000000000063ec4002000500073a800040036016995c
:206695006c0100000002bc100000000000000000000000000000000000000010008001a277
:1666b500a904000000400000000000183e968000001601c9968080
:2066cb0000000000000000000004000000000000040e000000002000082800008016202a69
:2066eb0096400000000043c1000000000000000000000000000000000000000000150000a0
:17670b002a90000000280000000000000181540000000002a96000b4
