:02000000ff00ff
:080002004c6174746963650030
:17000a00694345637562653220323032302e31322e32373934330071
:15002100506172743a2069434534305550354b2d53473438002c
:1b003600446174653a204a756c20323420323032352032323a32363a34380071
:0200510000ffae
:040053007eaa997e6a
:02005700510056
:0200590001059f
:03005b00920020f0
:03005e006202b388
:03006100720150d9
:0300640082000017
:02006700110086
:02006900010193
:20006b00000000000000000000000010000000000000400000000000010000000000000420
:20008b000000000000001000000000000040000000001000000000000040000000000001b4
:1600ab0000000000000004000000000000100000000000004000eb
:2000c1000000000000000000000000020000000000000800000000000020000000000000f5
:2000e10080000000000002000000000000080000000002000000000000080000000000006b
:1701010020000000000000800000000000020000000000000800003d
:200118000000000000000000000000000000000000000000000000000000000000000000c7
:200138000000000000000000000000000000000000000000000000000000000100000000a6
:160158000000000000000000000000000000000000000000000091
:20016e00000000000000000000000000000000000000000000000000000000000000000071
:20018e00000000000000000000000000000000000000000000000000000000000000000051
:1701ae0010000000000000000000000000000000000000000000002a
:2001c50000000000000000000000000000000000000000000000000000000000000000001a
:2001e5000000000000000000000000000000000000000000000000000000000000000000fa
:1602050000000000000000000000000000000000000000000000e3
:20021b000000000000000000000000000000000000000000000000000000000000000000c3
:20023b000000000000000000000000000000000000000000000000000000000000000000a3
:17025b0000000000000000000000000000000000000000000000008c
:2002720000000000000000000000000000000000000000000000000000000000000000006c
:20029200000000000000000000000000000000000000000000000000000000000000440008
:1602b2000000000000000000000000000000000000000000000036
:2002c800000000000000000000000000000000000000000000000000000000000000000016
:2002e8000000000000000000000000000000000000000000000000000000000000000000f6
:170308000000000000000000000000000000000000000000000000de
:20031f000000000000000000000000000000000000000000000000000000000000000000be
:20033f000000000000401000000000000000000000401000000000010040000000000800b5
:16035f000000000000000000000000000000000000000000000088
:20037500000000000000000000000000000000000000000000000000000000000000000068
:20039500000000000000000000000000000000000000000000000000000000000000000048
:1703b500000000000000000000000000000000000000000000000031
:2003cc00000000000000000000000000000000000000000000000000000000000000000011
:2003ec000000000000000000000000000000000000000000000000000000000000000000f1
:16040c0000000000000000000000000000000000000000000000da
:200422000000000000000000000000000000000000000000000000000000000000000000ba
:2004420000000000000000000000000000000000000000000000000000000000000000009a
:1704620000000000000000000000000000000000000000000400007f
:20047900000000000000000000000000000000000000000000000000000000000000000063
:20049900000010000000000000000000000000000000000000000000000000000000000033
:1604b900000000000000000000000000000000000000000000002d
:2004cf0000000000000000000000000000000000000000000000000000000000000000000d
:2004ef000000010000000000000000000000010000000000000400010000000000000000e6
:17050f000000000000000000000000000000000000000000000000d5
:200526000000000000000000000000000000000000000000000000000000000000000000b5
:20054600000000000040000000000000000000000040000000000001000000000000000014
:1605660000000000000000000000000000000000000080000000ff
:20057c0000000000000000000000000000000000000000000000000000000000000000005f
:20059c000000000000000000000000000000000000400000000000000000000000000000ff
:1705bc000000000000000000000000000000000000007800000000b0
:2005d300000000000c302000000000000000000000000000000000000000000000000000ac
:2005f3000000000000000000000000000000000000000000000000000000000000000000e8
:1606130000000000000000000000000000000000000000000000d1
:200629000000000000c30000000000000000000000000000000000000000000000000000ee
:20064900000000000000000000000000000000000000000000000000000000000000000091
:1706690000000000000000000000000000000000000000000000007a
:20068000000000000c302000000000000000000000000000000000000000000000000000fe
:2006a00000000000000000000000000000000000000000000000000000000000000000003a
:1606c0000000000000000000000000000000000000000000000024
:2006d6000000000000c3000000000000000000000000000000000000000000000000000041
:2006f6000000000000000000000000000000000000000000000000000000000000000000e4
:170716000000000000000000000000000000000000000000000000cc
:20072d00000000000c30200000000000000000000000000000000000000000000000000050
:20074d0000000000000000000000000000000000000000000000000000000000000000008c
:16076d000000000000000000000000000000000000000000000076
:200783000000000000c3000000000000000000000000000000000000000000000000000093
:2007a300000000000000000000000000000000000000000000000000000000000000000036
:1707c30000000000000000000000000000000000000000000000001f
:2007da00000000000c302000000000000000000000000000000000000000000000000000a3
:2007fa000000000000000000000000000000000000000000000000000000000000000000df
:16081a0000000000000000000000000000000000000000000000c8
:200830000000000000c30000000000000000000000000000000000000000000000000000e5
:20085000000000000000000000000000000000000000000000000000000000000100000087
:17087000000000000000000000000000000000000000000000000071
:20088700000000000c302000000000000000000000000000000000000000000000000000f5
:2008a700000000000000000000000000000000000000000000000000000000000000000031
:1608c700000000000000000000000000000000000000000000001b
:2008dd000000000000c3000000000000000000000000000000000000000000000000000038
:2008fd000000000000000000000000000000000000000000000000000000000000000000db
:17091d000000000000000000000000000000000000000000000000c3
:20093400000000000c30200000000000000000000000000000000000000000000000000047
:20095400000000000000000000000000000000000000000000000000000000000000000083
:16097400000000000000000000000000000000000000000000006d
:20098a000000000000c300000000000000000000000000000000000000000000000000008a
:2009aa0000000000000000000000000000000000000000000000000000000000000000002d
:1709ca00000000000000000000000000000000000000000000000016
:2009e100000000000c3020000000000000000000000000000000000000000000000000009a
:200a01000000000000000000000000000000000000000000000000000000000000000000d5
:160a210000000000000000000000000000000000000000000000bf
:200a37000000000000c30000000000000000000000000000000000000000000000000000dc
:200a570000000000000000000000000000000000000000000000000000000000000000007f
:170a7700000000000000000000000000000000000000000000000068
:200a8e00000000000c302000000000000000000000000000000000000000000000000000ec
:200aae00000000000000000000000000000000000000000000000000000000000000000028
:160ace000000000000000000000000000000000000000000000012
:200ae4000000000000c300000000000000000000000000000000000000000000000000002f
:200b04000000000000000000000000000000000000000000000000000000000000000000d1
:170b24000000000000000000000000000000000000000000000000ba
:200b3b00000000000c3020000000000000000000000000000000000000000000000000003e
:200b5b0000000000000000000000000000000000000000000000000000000000000000007a
:160b7b000000000000000000000000000000000000000000000064
:200b91000000000000c3000000000000000000000000000000000000000000000000000081
:200bb100000000000000000000000000000000000000000000000000000000000000000024
:170bd10000000000000000000000000000000000000000000000000d
:200be800000000000c30200000000000000000000000000000000000000000000000000091
:200c08000000000000000000000000000000000000000000000000000000000000000000cc
:160c280000000000000000000000000000000000000000000000b6
:200c3e000000000000c30000000000000000000000000000000000000000000000000000d3
:200c5e00000000000000000000000000000000000000000000000000000000000000000076
:170c7e0000000000000000000000000000000000000000000000005f
:200c9500000000000c302000000000000000000000000000000000000000000000000000e3
:200cb50000000000000000000000000000000000000000000000000000000000000000001f
:160cd5000000000000000000000000000000000000000000000009
:200ceb000000000000c3000000000000000000000000000000000000000000000000000026
:200d0b000000000000000000000000000000000000000000000000000000000000000000c8
:170d2b000000000000000000000000000000000000000000000000b1
:200d4200000000000c30200000000000000000000000000000000000000000000000000035
:200d6200000000000000000000000000000000000000000000000000000000000000000071
:160d8200000000000000000000000000000000000000000000005b
:200d98000000000000c3000000000000000000000000000000000000000000000000000078
:200db80000000000000000000000000000000000000000000000000000000000000000001b
:170dd800000000000000000000000000000000000000000000000004
:200def00000000000c30200000000000000000000000000000000000000000000000000088
:200e0f000000000000000000000000000000000000000000000000000000000000000000c3
:160e2f0000000000000000000000000000000000000000000000ad
:200e45000000000000c30000000000000000000000000000000000000000000000000000ca
:200e650000000000000000000000000000000000000000000000000000000000000000006d
:170e8500000000000000000000000000000000000000000000000056
:200e9c00000000000c302000000000000000000000000000000000000000000000000000da
:200ebc00000000000000000000000000000000000000000000000000000000000000000016
:160edc000000000000000000000000000000000000000000000000
:200ef2000000000000c300000000000000000000000000000000000000000000000000001d
:200f12000000000000000000000000000000000000000000000000000000000000000000bf
:170f32000000000000000000000000000000000000000000000000a8
:200f4900000000000c3020000000000000000000000000000000000000000000000000002c
:200f6900000000000000000000000000000000200000000000000000000000000000000048
:160f89000000000000000000000000000000000000000000000052
:200f9f000000000000c300000000000000000000000000000000000000000000000000006f
:200fbf0000000000000000000000000000000005000000000000000000000000000000000d
:170fdf000000000000000000000000000000000000000000000000fb
:200ff600000000000c3020000000000000000000000000000000000000000000000000007f
:201016000000000000000000000000000000000000000000000000000000000000000000ba
:1610360000000000000000000000000000000000000000000000a4
:20104c000000000000c30000000000000000000000000000000000000000000000000000c1
:20106c00000000000000000000000000000000000000000000000000000000000000000064
:17108c0000000000000000000000020000000000000000000000004b
:2010a300000000000c302000000000000000000000000000000000000000000000000000d1
:2010c30000000000000000000000000000000000000000000000000000000000000000000d
:1610e30000000000000000000000000000000000000000000000f7
:2010f9000000000000c3000000000000000000000000000000000000000000000000000014
:201119000000000000000000000000000000000000000000000000000000000000000000b6
:1711390000000000000000000000000000000000000000000000009f
:20115000000000000c30200000000000000000000000000000000000000000000000000023
:2011700000000000000000000000000000000000000000000000000000000000000000005f
:161190000000000000000000000000000000000000000000000049
:2011a6000000000000c3000000000000000000000000000000000000000000000000000066
:2011c600000000000000000000000000000000000000000000000000000000000000000009
:1711e6000000000000000000000000000000000000000000000000f2
:2011fd00000000000c30200000000000000000000000000000000000000000000000000076
:20121d000000000000000000000000000000000000000000000000000000000000000000b1
:16123d00000000000000000000000000000000000000000000009b
:201253000000000000c30000000000000000000000000000000000000000000000000000b8
:2012730000000000000000000000000000000000000000000000000000000000000000005b
:17129300000000000000000000000000000000000000000000000044
:2012aa00000000000c302000000000000000000000000000000000000000000000000000c8
:2012ca00000000000000000001000000000000000000000000000000000000000000000003
:1612ea0000000000000000000000000000000000000000000000ee
:201300000000000000c300000000000000000000000000000000000000000000000000000a
:2013200000000000000000000010000000000000000000000000000000000000000000009d
:17134000000000000000000000000000000000000000000000000096
:20135700000000000c3020000000000000000000000000000000000000000000000000001a
:20137700000000000000000000000000000000000000000000000000000000000000000056
:161397000000000000000000000000000000000000000000000040
:2013ad000000000000c300000000000000000000000000000000000000000000000000005d
:2013cd00000000000000000000000000000000000000000000000000000000000000000000
:1713ed000000000000000000000000000000000000000000000000e9
:20140400000000000c3020000000000000000000000000000000000000000000000000006c
:201424000000000000000000000000000000000000000000000000000000000000000000a8
:161444000000000000000000000000000000000000000000000092
:20145a000000000000c30000000000000000000000000000000000000000000000000000af
:20147a00000000000000000000000000000000000000000000000000000000000000000052
:17149a0000000000000000000000000000000000000000000000003b
:2014b100000000000c302000000000000000000000000000000000000000000000000000bf
:2014d1000000000000000000000000000000000000000000000000000000000000000000fb
:1614f10000000000000000000000000000000000000000000000e5
:201507000000000000c3000000000000000000000000000000000000000000000000000001
:201527000000000000000000000000000000000000000000000000000000000000000000a4
:1715470000000000000000000000000000000000000000000000008d
:20155e00000000000c30200000000000000000000000000000000000000000000000000011
:20157e0000000000000000000000000000000000000000000000000000000000000000004d
:16159e000000000000000000000000000000000000000000000037
:2015b4000000000000c3000000000000000000000000000000000000000000000000000054
:2015d4000000000000000000000000000000000000000000000000000000000000000000f7
:1715f4000000000000000000000000000000000000000000000000e0
:20160b00000000000c30200000000000000000000000000000000000000000000000000063
:20162b0000000000000000000000000000000000000000000000000000000000000000009f
:16164b000000000000000000000000000000000000000000000089
:201661000000000000c30000000000000000000000000000000000000000000000000000a6
:20168100000000000000000000000000000000000000000000000000000000000000000049
:1716a100000000000000000000000000000000000000000000000032
:2016b800000000000c30238000000000000000000000000000000000000000000000000033
:2016d8000000000000000000000000000000000000000000000000000000003800000000ba
:1616f80000000000000000000000000000000000000000000000dc
:20170e000000000000c30020000000000000000000000000000000000000000000000000d8
:20172e00000000000000000000000000000000000000000000000000000000020000000099
:17174e00000000000000000000000000000000000000000000000084
:20176500000000000c30230000000000000000000000000000000000000000000000000005
:20178500000000000000000000000000000000000000000000008000000000000080000044
:1617a500000000000000000000000000000000000000000000002e
:2017bb000000000000c300300000000000000000000000000000000000000000000000001b
:2017db0000000000000000000000000000000000000000000000100000000000000f0000cf
:1717fb00000000000000000000000000000000000080000000000057
:20181200000000000c30200000080000000000000000000000000000000000000000000052
:20183200000000000000000000000000000000000000000000000000000000000000000096
:161852000000000000000000000000000000000000000000000080
:201868000000000000c300000001000000000000000000000000000000000000000000009c
:20188800000000000000000000000000000000000000000000000000000000000000000040
:1718a800000000000000000000000000000000000000000000000029
:2018bf00000000000c302000000c37e9105000000000000000000000000000000000000021
:2018df000000000000000000000000000000000000000000000000000000000000000000e9
:1618ff0000000000000000000000000000000000000000000000d3
:201915000000000000c30000400007edf100000000000000000000000000000000000000ca
:20193500000000000000000000000000000000000000000000000000000000000000000092
:1719550000000000000000000000000000000000000000000000007b
:20196c00000000000c302000000000000000000000000000000000000000000000000000ff
:20198c0000000000000000000000000000000000000000000000000000000000000000003b
:1619ac000000000000000000000000000000000000000000000025
:2019c2000000000000c3000000000000000000000000000000000000000000000000000042
:2019e2000000000000000000000000000000000000000000000000000000000000000000e5
:171a02000000000000000000000000000000000000000000000000cd
:201a1900000000000c302000039c00000000000000000000000000000000000000000000b2
:201a3900000000000000000000000000000000000000000000000000000000000000002b62
:161a5900c1000000000000000000000000000000000000000000b6
:201a6f000000000000c3000000010000000000000000000000000000000000000000000093
:201a8f00000000000000000000000000000000000000000000000000000000000000000037
:171aaf003c00100000000000000000000000000000000000000000d4
:201ac600000000000c3021040000000000000000000000000000000000000000000000009f
:201ae6000000000000000000000000000000000000000000000000000000000040000000a0
:161b060000000000000000000000000000000000000000000000c9
:201b1c000000000000c3000000008000000000000000000000000000000000000000000066
:201b3c00000000000000000000000000000000000000000000000000000000000000000089
:171b5c00000000000000000000000000000000000000000000000072
:201b7300000000000c30200000001bbd4000000003ffa440000000000000000000001c10cc
:201b9300080000001a00000000000000000000000000000000000000000000000000000010
:161bb30000000000000000000000000006bc10000000000000004a
:201bc9000000000000c3004000000083d4000000003da7c41000000b000000000000002cb3
:201be9000000000000000000000000000000000000000000000000000000000000000000dc
:171c09000000000000000000000000000003c00400000000000000fd
:201c2000000000000c3023800f1c5e3dc08e0080000000000018000170e000e000001c8f3d
:201c40000c0010000000000000000000000000000000000000000000000000000000000068
:161c60000000000000000000038000000000000e0000001af04093
:201c76008000000000c3102000b10503fc0080140000000000000000db8f0408000000001c
:201c96000f410280d00000000000000000000000000000000000000000000000000000008c
:171cb60000000000000000000020000000000000800000010f000067
:201ccd00000000000c302100000fb283d88c00000000000000000010000000000006548ff9
:201ced000c0040000112828000000000000000000000000000000000000000003000000046
:161d0d0000000000000000000000000000000000000000000000c0
:201d23000000000000c300700070ef403500c000000000000000000e00000000000020208b
:201d43000f40040000a0c028000000000000000000000000000000000000000000000000a5
:171d6300000000000000000000000000000000000000000000000069
:201d7a000a0000000c302000070037e91000001e0000000000000000000000000060148f8b
:201d9a000c00000d80de0080800000000000000000000000000000000000000000000000b2
:161dba0000000000000000000000000000000000000060000000b3
:201dd0000040000000c300400000f76df10400000000000000000000000000000000002037
:201df0000f400000500500000400000000000000000000000000000000000000000000002b
:171e100000000000000000000000003000000000000000000000008b
:201e2700000000000c302000070000000000000000000000000000000000000000001e8f8b
:201e47000c000000000000000000000000000000000000000000000000000000000000006f
:161e670000000000000000000000000000000000001e0000000047
:201e7d000000000000c30100403800000000010000000000000400000000000010000000f4
:201e9d000f4000400000000000000000000000400000000000010000000000000400000051
:171ebd0000000010000000000000400000000000010020000000009d
:201ed400000000000c3020000000b7e9100000000000000000020000000000000003968fb8
:201ef4000c00100000000000000000000000000000000000000000000000000000000000b2
:161f140000000000000000000000000000000000000000000000b7
:201f2a000000000000c300400000016df10404000380000000005b0000000000001400003b
:201f4a000f40008000000000000000000000000000000000000000000000000000000000a8
:171f6a00000000000000000000000000000000000000000000000060
:201f8100000000000c302000080000000000010023ffa440000800000000000000600e8fd0
:201fa100080800000000000000000000000000000000000000000000000000000000000010
:161fc10000001000000000000000000000000000000000000000fa
:201fd7000000000000c301000070000000000008042da7c410000f000000000000002820ab
:201ff7000f00000000000000000000000000000000000000000000000000000000000000bb
:172017000000000000000000000000000000000000000000000000b2
:20202e00000000000c322104001e00000004100070000000004000000000004102061e8f57
:20204e000c10040000000000000000000000040000000000001000000000000040000000fe
:16206e000000010000000000000400000000000010000000a54062
:202084000000000000c300000000000000000080460000000000000000000000400400204f
:2020a4000f40000000000000000000000000000000000000000000000000000000000000cd
:1720c400000000000000000000000000000000000000000c05a00054
:2020db000100003fec3020000000b3f050000020006e0a00000000000000000000001c8f33
:2020fb000c0000058a7210d0000000000000000000000000000000000000000000000000d8
:16211b0000000000000000000000000000000000000000000000ae
:2021310000100000c0c3004022000b730d000001402e05a0000000000000000000000000fa
:202151000f440000000f6f0d00000000000000000000000000000000000000000000000090
:17217100000000000000000000000000000000000000000000000057
:2021880000000001cc30238b8700d3e0000000003a6af70000340003797c00e000001c8f00
:2021a80008039328007310d0000000000000000000000000000000000000000000000000fe
:1621c800000000000000000003800000000000000000000000007e
:2021de000000000000c3006000080d7700000a00068eaff0000000000c17c008000000000a
:2021fe000f0020841009a30d00000000000000000000000000000000000000000000000045
:17221e00000000000000000000200000000000000000000000000089
:2022350000000001ec322100451e1b948080000e6bccf72280000003337c08000000548fbc
:202255000c0000001a83a5900000000000000000000000000000000000000000000000008b
:1622750000000000000000000000001c00295000000000000000be
:20228b000000000000c30030000007010800000140170f3000000000383fc0000000202022
:2022ab000f410200000141a5000000000000000000000000000000000000000000000000da
:1722cb000000000000000000000000010d0168000000000000000085
:2022e20001000001cc302000070e5f295080003600000000010059a00000000000000c8590
:202302005000102000000000000c000000000000000000000000000000000000000000002f
:1623220000000000000000000000000000000000000000000000a5
:202338000000000000c31001020993c2850000014000000000080000000000000000000083
:2023580055000085000000000000000000000000000000000000000000000000000000008b
:1723780000000000000000000000000000000000000000000000004e
:20238f00000000000c3020004180b3f05000000064ec5f00000070e000000000020000001d
:2023af00000000000072471000000000000000000000000000000000000000000000000045
:1623cf0000000000000000000000000000000000000000000000f8
:2023e5000000000000c3100100000b7b0d000080068105f000000f9f0000000000140000b3
:2024050000000000d00f60f100000000000000000000000000000000000000000000000087
:172425000000000000000000000000000000000000000000000000a0
:20243c00000200000c302008001f5bbf50000006006adf0200000000000000000000000040
:20245c000000130000000000000c0000000000000000000000000000000000000000000041
:16247c00000000000000000000000000000000000000000000004a
:2024920000001c0000c310000091a33a958000e020160ff0000000000000000000000000a3
:2024b200000002000000000000000000000000000000000000000000000000000000000008
:1724d2000000000000000000000000000000000000000000000000f3
:2024e900000000000c3020000f0f000000000000047e00000285001f7ebc00000360000094
:20250900000000000b000000000000000000000000000000000000000000000000000000a7
:16252900000000000000000000000000000000000000000000009c
:20253f000000000000c310000259800000000002426e00a00000000e5ad6c8100004000062
:20255f0000000000d18000000000000000000000000000000000000000000000000000000b
:17257f00000000000000000000000000000000000000000000000045
:2025960000020001cc3021000780000000000620024a0a00000001c0000000400000000001
:2025b600000100000000000000000000000000000000000000000000000000000000000004
:1625d60000000000000000000000000000000000000000000000ef
:2025ec0000001c0000c308010000000000000001c0150000000009100000000000000000f8
:20260c000000010500000000000000000000000000000000000000000000000000000000a8
:17262c00000000000000000000000000000000000000000000000097
:202643000000069dac322000001e7016a0000000000000000000000063c14000026055a0d7
:20266300200000081a000000000000000000000000000000000000000000000000000f21e5
:1626830043020000000000000000000000000000000000000000fc
:2026990000100043c0c3000000010502940800000000000000000000003c1c00002625d82c
:2026b900000000005000000000000000000000000000000000000000000000000000003081
:1726d900015080000000000000000000000000000000000000000019
:2026f0000000000eac302000739e7303e00e0000040000003a0430000000000000000000d9
:202710000003800301000000000000000000000000000000000100000000003800000f21b9
:162730004300e00000000000000000000000000e00000000000062
:202746000000000010c31000020990403c008400024000000212008000000000000000001f
:202766000000210000d00000000000000000000000000000000000000000000200000070f0
:17278600015048000000000000000000000000008000000000000023
:20279d0000020604ac322000038f5603e000000000000000100000e000000000080040000f
:2027bd000000000000063c18000000000000000000000000010000000000000000019d21e2
:1627dd0043000002000000000000000000000000000000000000a1
:2027f3000000244020c30000000880803c0000000280000003000900000000000054340025
:2028130000000000000003c1000000000000000000000000000000000000000000000838a1
:17283300015040002c000000000000000000000000000000000000d1
:20284a000102601dac322002819d7683e0000400000000000000000000000000014016801c
:20286a000000000000000000000000000000000000000000000000000000000000981d2178
:16288a0043000000000000000000000000000000000000000000f5
:2028a0000000260000c30000000180c03c000000000000000000a0000000000000023b587d
:2028c00001000000000000000000000000000000000000000000080000000000000108786e
:1728e000015040000000000000000000000000001000000000000040
:2028f70004000704cc32200000007a03e000000000000000000000002bc1800000000000cb
:202917000000000000000000000000000000000000000000000000000000000000000da1f2
:16293700430400000000000000002000000000000000040000001f
:20294d0000a0000030c30000000090403c0000000280000000000000003c100000000000fd
:20296d0000000000000000000000000000000000000000000000000000000000000000301a
:17298d0001500000000000000000040000000000000002400000009c
:2029a4000000079dcc32200000005a83e0000080006ca060000000000000000000000000a8
:2029c4000000400018000000000000000000000000000000000000000000000000000da1ed
:1629e400430400000000000000000000000000000000000cf06139
:2029fa0000003c6010c30000000000403c0000200037e60400000000000000000000000091
:202a1a00000000000000000000000000000000000000000000000000000000000007007025
:172a3a0001500000000000000000000000000000000000010f000024
:202a510000e3e205cc30200009985e03e000002028000000000000000000000000e0000075
:202a71000000000000000000000000000000000000000000000000000000000000980da1ff
:162a9100430000000000af048000000000000000000000000000b9
:202aa70000001e4030c32000001000c03c0000014000000000000000000000000000000051
:202ac7000000000000000000000000000000000000000000000000000000000000010038b6
:172ae70001504000000000f001000000000000000000000000000056
:202afe0000140781ec30200088187e03e0040000006ea050100000807bc1000000000000b1
:202b1e0000010000001658d0100000000000000000000000000000000000001000018fa107
:162b3e00430400000000000000000000000000000000000000003a
:202b54000000000010c30800001000c03c0000800037e60400000010043c10400000000039
:202b7400000000000009770d00000000000000000000000000000000000000000007007835
:172b94000150000000000000000000000000000000000000000000d9
:202bab00000000000c30200001807016a00001003f6e8400000200057fc2000002028dbe3e
:202bcb00040000001c7258c00000000000000180000000000000366c4a0f80000018072104
:162beb004300000000000000000000000000000000000000000091
:202c01000010000000c31000000005029410000006bfade00000000f0b03c000001400ca18
:202c210080600000000f6f0c200000000000000000000000000000428280f00000000b903a
:172c41000151000140000000000000000000000000000000000000e9
:202c5800000000000c30200005000283e00e2000000e5a0000000000265a00e0016696aff4
:202c7800a400000000768044b0000000000380000007bc100000366c6a0f80380000012163
:162c98004100000000000000004000000000000000800000000025
:202cae000000000000c31000000800603c00800000340a500000000003da4008014000ce4d
:202cce00f9e00000000040044400000000002000f00003c30000014282c0f0020000001820
:172cee000290400000000000000400000000000000100000000000e9
:202d0500000000000c302000839c023c200c001e015a95020000001723c2000001620d9eaf
:202d2500040000000a06a80000000000000001800003bc1000002665ca0f8000000000009e
:162d45000000000000000000000000000000000000000000000078
:202d5b000000000000c300000009003bc0004000226706500000000a0803c000001400cabf
:202d7b0080600000010d01404000000000000000000003c1000002664390f00000000000da
:172d9b00000000000000000000000000000000000000000000000021
:202db200000000000c3020000000f23ea800000c6c0000000004000123c2000003c045aab9
:202dd200150000000a00000000000000000000030006bc1000002665cb0f80000000000008
:162df20000000000000000000008000000000000000000000000c3
:202e08000000000000c30000000003802800000027400000000007000803c000001428cef9
:202e280020400000d00000000002000000000000080003c10000026643d0f0000000000021
:172e4800000000200000000000000000000000000000000000000053
:202e5f00000000000c30200005007a3c28002000304d00500200000723c2000002400dbf2b
:202e7f008400000000000000000000000000000780033c10000006007b0f800000000000c9
:162e9f0000002000000000000000000000000000000000000000fd
:202eb5000000000000c3000000000083c0000000c3cfa1040010000b0003c000002600dae2
:202ed500fee0000000000000000a000000000000080003c10000000002c0f0000000000077
:172ef5000000000000000000000000000000000000000000000000c6
:202f0c00020000000c30208001007a3c20000000016c08400000000323c2001000001ea283
:202f2c00540000000000000000000000000000079e063c10000166747b0f80000000000055
:162f4c000000000000000000000800000000000040000000000027
:202f62000040000000c3000000000083c04000080026e2460028070b0803c00100000179f3
:202f8200a5480000000000000000000000000000000003c30002084600c0f000000000007c
:172fa200000000000000000000000000000000000200000000000016
:202fb900000000000c3020000d9c1a3c20000026680e014080000005a3c2000002000d9f08
:202fd9008400000918000000000000000000020000073c10000000645b0f80000080000010
:162ff90000000000000000000000000000000000000000000000c2
:20300f000000000000c3000000100003c0010009c6ccf02400000d0d0003c000002400da80
:20302f00fee00000990000000000000000000000900043c30000000201d0f00000010000b0
:17304f0000000000000000000000000000000000000000000000006a
:20306600000000000c302000000a023c200400007000000000000013a3c2004000068000d4
:20308600000000000000000000408000000100078080295000000061fb0f801000000000ee
:1630a6000000100000000000000000000000000000000000000004
:2030bc000000000000c3000000009033c0000080040000000000070f0803c0000000400009
:2030dc000000000000000000000210000000002008030169000000000380f00000000000ba
:1730fc000000010000000000000000000000000010000000000000ac
:20311300000000000c3020408000323c200180167068950000000000225a00000000000072
:2031330000000007015859b010000000000000000000000000021601cb0f80000070100010
:16315300000000000000000000000000bfe3d020000000000000d4
:203169000000000000c3000400000083c0101080003dc9a000002d0b031a41004000000020
:203189000000000010a0b599000000000000000000000000000800000080f04000050d005e
:1731a90000000000000000000000000003fb3d2400000000000000b0
:2031c000000000000c3020000000027c20000016001c0f000000000f225800e001e000006a
:2031e00000038025887225b0000000000003800000063c100e402001ca0f80020100e96867
:163200006000e0e80000000003805500ff60500e000000000000fb
:203216000000000000c3000000000033c0000000000c00f00000000bf30cc0080002000012
:203236000000201901f022592000000000002000700003c1008a01400080f00010200ede08
:173256008100080140000000002002080fa1294480000000000000d0
:20326d00000000000c302000000a3a3c2000202062e89502000400a0000000c00000018f30
:20328d00040300001b3a25b00000000000000000000000000000260008f0408000000da85d
:1632ad008008c0c000000000030000080000000c000000000000ec
:2032c3000000000000c3000000010083c0000401400f09a0000000100000000c00000000cb
:2032e300f040300001b02e5940000000000000000000000000000260000f040000070e5415
:1733030000020c0000000000003000d1000000004000000000000064
:20331a00000000000c302000018a023c0800000661ea5a00000000000000000000000000bb
:20333a0000000000011225b000060000000002800000000000000000000000010098b000ba
:16335a00000000000680000000400000ff76d4000a80380000008c
:203370000000000000c3000000010003c0000000000105a000000000000000000000000010
:203390000000000000b03a59200000000000000400000000000000000000000020031d0076
:1733b000000000001c000000000400d00fab950104140000000000ae
:2033c700000000000c302000001a000000000126034895020100f0800000000000000000f6
:2033e70000000800005265b8000a0000000000000007bc1000000000000000000000000072
:16340700000000000000ef0400000000bfa3d800000006eea048a6
:20341d000000000000c300000000000000000002c2dd09a0080809900000000000000000d9
:20343d00000001000000b2590000000000000001000043c30000000000000000000000005c
:17345d0000000000000000f05000007003f33d80000003b7fe060037
:20347400000000000c30200005985a83c000000060fa5a000000500000000000000001efae
:20349400040000011e1a65b800400000000000200000000000000000000000028000096271
:1634b40080000001c2bfbd0400000f8abaa05a00200020000000b2
:2034ca000000000000c30000000000403c00000346c205a0000000000000000000000010e3
:2034ea00f0400000f1f0a2590000400000000004000000000000000000000000380700949f
:17350a00000000000200ddc041000030036b05000000000000000027
:20352100000000000c30200000000000000000002a489502000038033bdc42000007c0efdb
:203541000400000f9e3a65b000000000000000000000000000002600000000000000000044
:16356100000000600201af040001000e00000000000070000000bf
:203577000000000000c300000000000000000000042d09a00000008a1effc20000003010ee
:20359700f04000003900ba5920000000000000000000000000000040000000000000000038
:1735b700000000000c4000f04800000000000000000002c0000000b7
:2035ce00000000000c30200000008683c0400014016c0f0000008019a600004000078000e2
:2035ee0000012807001265b0000a000000014000000000000400000000000000025007f3cb
:16360e00e8044000e00000000100038b0000000400000000000007
:203624000000000000c3000000000b403c000000200300f004000b0f3f800a000000000042
:20364400000001000800a6592000040000000400008000000000e000000000000040801006
:17366400294830000200000000000008e000000000000000000000c4
:20367b00000000000c302000001c100020000036027cdb40000050057fdc00000006000002
:20369b0000000000017a25b2002000000000000000000000000420075c0a00000839eb7868
:1636bb0020000000003fd8f40000058a1819a0000000000000006e
:2036d1000000000000c308000000008000080002400e8ebd00000080373fc0000000000035
:2036f1000000000000d03259110000000000000000000000000003c2ff000000001300fb7b
:1737110000000000000278cf48400000003198000000000000000007
:20372800000000000c302000000e5a3c200e000070000000000180136280000000000fef6f
:20374800700380259a5a25b200000000000380000003bc180000006c5980000000100000cf
:163768000000e000004ecdb4001005005a25a00e0000000000005a
:20377e000000000000c30800380100003c048008000000000000270e04280000000000ffff
:20379e00ff00200509c0b6590100000000002000000003c10000000755a0000000008000ae
:1737be0000000800243ffdcb48008000003e580080000000000000e3
:2037d500000000000c3020000b80523c28000006627c8140000000897a000800000384cf31
:2037f500702100001a3a65b0000001000003000000033c10000080037c800000008011381f
:1638150028004000023fd8f5001085005a25a00c00000000000067
:20382b000000000000c30800003800003c000000200ea41500000f1f140000000000437062
:20384b00ff001020010036594000000000001000000003c1400003c3ce9000000081080895
:17386b0002800c0000427ecf50000000003a580040001000000000f7
:20388200000000000c302400038e523c20000100000a5a000000000fe3dc0000000021ef44
:2038a200500043081c3265b000000000000000000807bc1000aebe0400000000050009347b
:1638c20020000008007fdfb500002d803225a000a000040000006d
:2038d8000000000000c30000000100003c00000000050a5084000f005affc000000002c003
:2038f800fa0004007100be594000000000000000010003c1040411c3800000000020003673
:173918000000000f403efba55000009000a25800000003800000000e
:20392f00000000000c3220000500723c200000000000000000008000000000000146800000
:20394f00000000001f7265b80000000000000007810000000004002c7f80000028d1ad2a23
:16396f000008000966bfc8f6800008011225a000000004000000ea
:203985000000000000c30000200000003c000000000000000000070f0000000000002800c5
:2039a50000000000d1b03a59000040000000000008d00000000000063ea00000000f0ab425
:1739c50000000001402e7ecf400000f4e0be5800000003c000000042
:2039dc00000000000c32200000005a25a000000400000000000000033a8000000002b4c80f
:2039fc0000003ba7815265b800008000000000000806bc1200001c20ce80030028b8100000
:163a1c0000000000060ec816100008005265a000000064000000cf
:203a32000000000000c30000300000b258000000c000000000000f000c28000000002afc4e
:203a5200000002b50890aa590002040000000005010043c1000002642e00020000058800cf
:173a720000000080006ffcc140000070003e58000000034000000008
:203a8900000000000c302000000a7265a000000000000000000001e5aa0008000800400060
:203aa9000000000d001a65b8000000000000200100073c1800004620000000001080df3434
:163ac9002000020040400000000007097265a000000000000000be
:203adf000000000000c300800050a0ae580000000000000000280000d00000000240300024
:203aff00000000017800a6590000000000000100080043c1000008040000000000050a3bcc
:173b1f008000004002380000000000d9f032580000c0000000000082
:203b3600000000000c30200000007265a00400000000000000000080000000000147800050
:203b56000001002f007265b0000040000001000100000000000000380000000000f1a03a53
:163b76008000440942a7ddb5100001817a65a00400007bfd8f4194
:203b8c000000000000c30800000000a658020000000000000000000f0000000040000000ff
:203bac0000000015f0b022598002080000000000080000000000024000000000000b801456
:173bcc0014000021442efee540000078b03a58000a00002fbcf5086c
:203be30001e0003cec30200000007a3c2000003e00e0668000000000000000001007808f69
:203c030004000007081a25bc0000000000000007800000000000200000000000007000007c
:163c2300000000000036ba54000000005a25a80000000000000020
:203c390000100000f0c30800000000003c140000e000f66000000f0f0000000000003c10b0
:203c5900f040000278003a59100400000000000008000000000005c000000000000d8000a0
:173c790000000000000379085102800000b2581000000000000000c3
:203c900000000001cc30200010007800200000007168968000028019620000e0000001ef93
:203cb00004038005801225b0000a00000000020000000000000096024cf7000038d1a5fe6e
:163cd0000000e009c047a8f50000801a5225a00e00002b6e8f5119
:203ce6000000000000c3080000000000000000080000c96000000d0e5f00000800003c0004
:203d0600f040200000003e590000000000000000000000000000d40015bff000000180138a
:173d260080000880022b7dcf5000000000b6580080000025ccf41032
:203d3d0004080000ec30200380007800200000047d48968000000000000000c00000000064
:203d5d00000300000e7a65b400000000000000000e00000000208003daf702000080152a5f
:163d7d000088c000007cbfb40000059b1a65a00ca08000d9fb40fa
:203d93000021000010c3080000000080000000000742e960000003000000000c00000000f3
:203db300000030000100365900000000000000000100000000000143150f300000090a3450
:173dd30000020c00003f59a540403000a0be58004410003faa559006
:203dea0001000001cc302000400078002000010401e89680000000000000000000000000bf
:203e0a00000010071a5a25b000080000000040001e77a00000001c04000000010258a000a0
:163e2a00000000c803c7ad05000000015225a000001e0000000008
:203e40000000000000c3080002000080000000004002896000000f000000000000000000db
:203e6000000000800800265940000000000006800001f000000003c3800000002855900031
:173e80000000000000277cc040020000a03e58000000000000000050
:203e9700000000000c322010000070002000001c39689680000078082bd4000000000000bb
:203eb700000040078e3265b840000000000000070000000000000000000000000078097c83
:163ed7002000000166bebfb41000081f5265a040001c38000000fb
:203eed000000000000c300028000000000000001e400c96000000000903e80000000000014
:203f0d000000040009002e59000020000000000008000000000003c3c00000000047807219
:173f2d0080000000000359a5404000f090ba580000000340000000a7
:203f4400000000000c322000000070002000001c70499680000001c13bdc08000000018f13
:203f6400040000000e3a25b80000000000000300005697c000400000000000010200016cb4
:163f8400200000014007b8f4000000003265a0000140000000009b
:203f9a000000240000c3000000000000000000002400d96000000010f43fc020000024106c
:203fba00f0400004d1b0365900000000000000000000c17c000a00000000000028500036ae
:173fda000000000000037ccf5000000000be58000008000000000014
:203ff100040800000c302000050a70002000001e78689680020000ef720000000002200a06
:20401100540000070e1265b800000000000000001e0000000000000179fe000110000de261
:16403100008c00000266ba5610000f997a25a0000000700000000e
:204047000021002400c300800050a080000000000002b960000000181fc00200020042c049
:204067005a40000008803e59000000000000000000000000000003c004fff0002010401446
:1740870000002000242b590840000071e03a5804000000000000002b
:20409e0000000001cc3020000d9b70002000000079489680000000000000004001e0008f26
:2040be0004011008085265b0000001000000000008000000004080796ccb020002d8000001
:1640de00000040000007a8f41000091f7225a00400000000000076
:2040f4000000000000c300401850a080000000000000d960000000000000000000020010d6
:20411400f04000807000b65900000000000000000000000000021400140db0000045000030
:174134000000000024037fcf40000098b0ba58000000000000000065
:20414b000400002fcc302000000078002001002001c89680000001e00000000010038000f9
:20416b0000000000001a25b000000000000000000107bc1800000604000000000801cda6e3
:16418b003d80000000000000000003803265a200002002fab04099
:2041a10000b0000370c300000000000000101002c000f96040000019000000000000400044
:2041c1000000000090c02659140000000000000000d003c100080003c000000000001c7f01
:1741e10073d80000000000000000000800be5810000243bc9e04802b
:2041f8000000001fec302000000078002000000000499680000039c1325420e000000000d5
:2042180000038005805a25b80000010000038000008029580e4c00004e0050380000000092
:164238000000e00000400000000008003265a80e002000000000db
:20424e000000000030c3000000000000000000000000d96000000010da5940080000000099
:20426e000000200070002a590000000000002000000b01690088000007050002080f0f00cc
:17428e0000000800003c0000000000d00032580080024000000000b9
:2042a5000008000fcc30200380007800200000007d48968000000010000000c8000001af48
:2042c50004070047805225b800000000000100000006bc14000200000000003000000da220
:1642e5003d20000000000000000010001225a2000000000000007d
:2042fb000001400030c3000000000080000000000742e9600000000d00000004000000103c
:20431b00f0401000300022590000000000001000000003c100000000000000010000007f43
:17433b00b3d220000000000000000000003a58000000000000000034
:204352000100021fec302000000078002000001601e89680000000000000000a0000000036
:2043720000000007803a25b000000000000000000000000000400000000000000000000055
:1643920000000000004180f0084000003a25a400002004000000f5
:2043a8000000004030c3000000000080000000000000b960000000000000000040003c00ad
:2043c8000000000000002a59040000000000000070000000000a00000000000000000a00ca
:1743e800000000a0002c100f0004000000b258000003c3800000007f
:2043ff0000c0000fcc3020100000023c00004000014896800000000000000000000001cff6
:20441f0004000000005265b0000000000000000000000000000000000000000000801da2d3
:16443f003d4000000360ccc000000f8c3a65a000201622ce4300b8
:204455000000000030c3000280708003c0000a01c002c96000000d0000000000080c2400e4
:20447500f040000000c022590400800000000000000000000008a0000000000000070e7ffc
:1744950033d01000007ddfcc000000f800a2582008004005c4200092
:2044ac000000021fec3020000018b3154000000039e896800000000bb6540200004000cf16
:2044cc0004000000007225b0000000000000000009073c104040000000000000000011ff99
:1644ec00ed0400020000ef501001bf897a65a0000004005ef50356
:204502008000004030c3000000010b82a80000000402b96000000f00921940000002000095
:20452200f0400000b0002a59040000000000000001d043c1000a00000000000000000e9293
:17454200e95800000c02d0fa00000271e03e58001000002c0da00077
:204559000408000fcc302000000000000000001e7948968000000000000000000000008f87
:2045790004000001005225b0400000000000030000000000000200700000000002780da614
:164599003d04000007bfa0550000071f7225a8000020056e700b9d
:2045af000021400030c300000000000000000003c002b960000000000000000000000010aa
:2045cf00f040000000002a5904002000000000000000000000002404000000000000007e4f
:1745ef0073da00000000fd0688000009e0be58000001428207018091
:2046060000000201ec3020000d9b00000000001c7168968000000000000000400000000062
:20462600000100001c7a3c1030000000000100080000000004000000000000100038017f8c
:16464600ed044000404000000010019f3a65a804601c2000000016
:20465c000000004010c300000050a000000000402400b960000000000000000000000000be
:20467c00000000000005803d20000000000000007000000000000000000000002000009a12
:17469c00e95800000020000000008079b03a58000400000000000067
:2046b300000000000c30200000009bb1800100000348f0080000000000000000000000007b
:2046d3000000000000000000000e0000000010200000000000000004eaf0c0000000e58482
:1646f300020000c00217eaa20000081f7a25a0100000017a004019
:204709000010000000c3000000000ff0e4001000000c00f04400000000000000000000008a
:20472900000000000000000000000000000000000000000000000003c390f0800009100a87
:174749004000010000436daa000000f1c0b258100000001d0a0404c4
:20476000000000000c302000000e00000000000000000000000000000000000000000000cf
:204780000003800000033c10000000000000000f809fc0000e000000c8f0c8000081f57cd9
:1647a0003e000408001eef50000000003a25a01e062c006e02405d
:2047b6000000000000c3000000000000000000000000000000000000000000000000000020
:2047d60000002000000003c10200000000000000780d6100418000000000f08000090d07a9
:1747f60003c00021000020f500000000002658008042602cf00400f3
:20480d00000000000c3020000000000000000020000000000000000000000000000000000f
:20482d00000100000e0000000000000000000000000000000c048004c8f0c840001803806d
:16484d0002000008020faf50000007001225a00c409c02ec004047
:204863000000000000c3000000000000000000014000000000000000000000000000000031
:20488300000030000000000000002000000000000000000000c00003c000f0000000000a48
:1748a30000000001404000f50000000000aa5820c0102007e0460049
:2048ba00000000000c30200000000000000000000000000000000000000000000000000082
:2048da00000000000000000000000000000000000000000000000000c8f0c8408070970077
:1648fa00020000c0000eef50000040003225a0000000006f524061
:204910000000000000c30000000000000000000000000000000000000000000000000000c4
:204930000000000000000000000000000000000000d00000000000000200f00000009d0305
:1749500000000000242430f50000000000a65820080242ac8a5400ef
:20496700000000000c302000080000000000000000000000000000000000000000000000cc
:20498700000003880000000000008000000000400000000000401428c8f0c0000079e30570
:1649a7006a00000003a0cf50001058091225a040009c32cc074065
:2049bd000000000000c3000000900000000000000000000000000000000000000000000087
:2049dd0000000000b0000000000014000000000000000000000001428200f080000010fbb6
:1749fd00294000801c35d0fa000402f0e0a6580000e02405e0f400ee
:204a1400000000000c30200000000000000000200000000000000000000000000000000006
:204a3400000000000000000000000000000000000000000001001468e8f0c80000f9e180eb
:164a540002000400c314cf52000380001225a02000003bca00408f
:204a6a000000000000c3000000000000000000024000000000000000000000000000000027
:204a8a000000000000000000000000000000000000000000000001428000f008000100034d
:174aaa00c00000203c7c30f500000010002658000000043405040069
:204ac100000000000c30200000010000000000000000000000000000000000000000000078
:204ae100000000000000000000000000000029000000000000040070e8f0c8010078c1043a
:164b010002000000c35ddaa0002807801225a040009c7800000028
:204b17000000000000c300000000c0000000000000000000000000000000000000000000fb
:204b37000000000000000000000000000000020000000000000000040000f08008008f0a47
:174b5700c00000002e78fcaa0003300000ba580000000600000000f0
:204b6e00000000000c302000000800000000000000000000000000000000000000000000c3
:204b8e00000100000000000000000000000000000e00000000000000e8f0c0000000e5a5d6
:164bae00a6000009e214caa0000000010225800400000000000036
:204bc4000000000000c300000001000000000000000000000000000000000000000000000d
:204be4000000000000000000000000000000000001000000000000000200f20000000002ba
:174c04005a4000002c01f9aa20000000eb25a420000000000000003b
:204c1b00000000000c3020000000000000000000000000000000000000000000000000001d
:204c3b00000000000000000000000000000000800000000000008000e8f0c000001813a5f1
:164c5b00a6000060003deaa00000050016e15400000004fc836043
:204c71000000000000c3000000000000000000000000000000000000000000000000000060
:204c91000000002800000000000000000000020000000000000014038200f0c00000890304
:174cb1005a4100001c02fcaa000000089b3969000000038d9c140008
:204cc800000000000c30200000000000000000000000000000000000000000000000000070
:204ce80000000000000000000000000000000000000000000e014000c8f0c04000781325f5
:164d0800a600000000058f52038000000000000e000002cbb040bb
:204d1e000000000000c30000000000000000000000000000000000000000000000000000b2
:204d3e000000000000000000000000000000000000000000008008000000f10000000f0ac3
:174d5e001a4000003c3c00f500200090000000008000000ddd060057
:204d7500000000000c302000000000000001000000000000000000000000000000000000c1
:204d9500000000000000000000000000000001000800000004000000c8f0c000800187a1d0
:164db500a6000040001def500100000000000000001c68fcc34022
:204dcb000000000000c30000000000000000100000000000000000000000000000000000f5
:204deb000000010000000000000000000000000100000000004000000000f08010001002d4
:174e0b005a4000001c0030f500100000000000000000240eac0600c1
:204e2200000000000c30200000000000000000000000000000000000000000000000000014
:204e4200000000000000000000000000000000000000000000800000c8f0c0400080f7257c
:164e6200a6000000002dcaa00000080000000000000002dfb04024
:204e78000000000000c3000000000000000000000000000000000000000000000000000057
:204e98000000000000000000000000000000000000000000000000000200f10000091902e3
:174eb8009a4000003c02deaa000000f0000000000000000ddd041055
:204ecf00000000000c30200000000000000000000000000000000000000000000000000067
:204eef00000000000000000000000000000000800000000000001428c8f0c000000003a5c7
:164f0f00a60006020321ef52000000000000000001400000000038
:204f25000000000000c3000000000000000000000000000000000000000000001000000099
:204f45000000004000000000000000000000004000000000000101428200f090040f0a0a5f
:174f6500da4000103c41c0fa00044000f0000000010bc000000000d4
:204f7c00000000000c302000000000000000000000000000000000000000000000000000b9
:204f9c000000000000000000000000000000000780bae9c000001468e8f0c8000059b1a144
:164fbc00a6000002422feaa00000000000000000200420000000f8
:204fd2000000000000c30000000000000000000000000000000000000000000000000000fc
:204ff200000000000000000000000000000000001807739c020011428000f08000000a0a18
:175012001a4000001c34cdaa0000000000000000041424000000002a
:20502900000000000c3020000000000000000000000000000000000000000000000000000b
:20504900000000000000000000000000000000800000000000000000e8f0c00000501721a7
:16506900a6000003e04ecf50000000000000000200002000000019
:20507f000000000000c300000000000000000000000000000000000000000000000000004e
:20509f000000000000000000000000000000000000000000000000000000f01800000e0ad1
:1750bf00da4000002e3c10f500003800000000000000040000000015
:2050d600000000000c3020000000000000000000000000000000000000000001000000005d
:2050f600000004000000000000000000000004000000000000100000e8f0c0004000032582
:16511600a6000102c006faa00104010c9f80100511c02acfb04179
:20512c000000000000c30000000000000000000000000000000000000000000000000000a0
:20514c000000000000000000000000000000000090000000000000000200f00800050002b2
:17516c00da4000001e396aaa00000010074141800014000ddd04008c
:2051830000000000000000000000000000000000000000000000000000000000000000000c
:2051a30000000800000000000000000000000080003f954800000000e8f0c80000019121f5
:1651c300a6000a0000001e700028500000000000016001def740a9
:2051d900400000000000000000000000000000000000000000000000000000000000000076
:2051f90000000000000000000000000000000000000d8154000000000200f0c00000190adf
:17521900da41000024034cdb00010200000000000008400d8fa4107a
:2052300000000000000000000000000000000000000000000000000000000000000000005e
:2052500000000000000000000000000000000000000000000e000000c8f0c800000007a108
:16527000a600000043b4faa00380001e76bd400e00007800000057
:20528600000000000000000000000000000000000000000000000000000000000000000008
:2052a6000000000000000000000000000000000000000000008040000000f08000000002b6
:1752c6009a400000020248aa002020000003d4a080000400000000c6
:2052dd000000000000000000000000000000000000000000000000000000000000000000b1
:2052fd00000000000000000000000000000000000800000004000070c8f0c0400081e7a154
:16531d00a6000417e7aecaa0032800003e1610804000007ea0202d
:2053330000000000000000000000000000000000000000000000000000000000000000005a
:20535300000000000000000000000000000001000100000000c000040000f08000090002f9
:175373005a4000000c03ddaa00311100074001800a0000020a0000d3
:20538a00000000000000000000000000000000000000000000000000000000000000000003
:2053aa00000000000000000001000000000000000000000000000000c8f0c000000007a1c2
:1653ca00a600001443deef52000007000000000001400000000069
:2053e0000000000000000000000000000000000000000000000000000000000000000000ad
:205400000000000000000000000000000000000000000000000000000200f1800000000b0e
:175420001a400000822c10f500000000000000000000000000000068
:20543700000000000000000000000000000000000000000000000000000000000000000055
:20545700000000400000000000000000000014800000000000001428c8f0c000005003a1b9
:16547700a600000017add99000221000000000000c00000000000e
:20548d000000000000000000000000000000000000000000000000000000000000000000ff
:2054ad000000000000000000000000000000004100000000000041428200f28000050a0315
:1754cd001a40000000356b66000540000000000001004000000000e2
:2054e4000000000000000000000000000000000000000000000000000000000000000000a8
:20550400000000000000000000000000000004000c00000000001468e8f0c8000059b7212a
:16552400a6000002e075caa00004070000000000100000000000ef
:20553a00000000000000000000000000000000000000000000000000000000000000000051
:20555a000000000000000000000000000000000000000000000061428000f10000004a0bc8
:17557a009a4000001e3f6aaa000000080000000000000000000000c7
:205591000000000000000000000000000000000000000000000000000000000000000000fa
:2055b100000000000000000000000000000040000000000000008000e8f0c0000080a7a1ba
:1655d100a6000415c33decc0002801080000000000000000000028
:2055e7000000000000000000000000000000000000000000000000000000000000000000a4
:205607000000000000000000000000000000020000000000000000000000f0800005000b01
:175627005a400000c066e8cc00010000000000000000c00000000037
:20563e0000000000000000000000000000000000000000000000000000000000000000004c
:20565e00000000000000000000000000000004080000000000100000e8f0c0004050a3a5a0
:16567e00a6000001e201cf50010420000000000410200400000010
:205694000000000000000000000000000000000000000000000000000000000000000000f6
:2056b40000000000000000000000000000000000b0000000000000000200f20000050a0b18
:1756d4005a4000002e43d0fa00000400000000000001438000000022
:2056eb0000000000000000000000000000000000000000000000000000000010000000008f
:20570b00000000000000000000000000000000079e173d4800000000e8f0d00000f8052573
:16572b00a600000002000e700000200003bc1000000000fe5020e5
:20574100000000000000000000000000000000000000000000000000000000010000000047
:2057610000000000000000000000000000000000000043d4000000000200f0c00007090a45
:175781001a4100000041cbdb000005000003c10000a000030500045a
:205798000000000000000000000000000000000000000000000000000000000000000000f1
:2057b8000000000000000000000000000000000f9e763d480e00000008f000000001f3250a
:1657d800a60004000381df300380000007bc100000807ade000050
:2057ee0000000000000000000000000000000000000000000000000000000000000000009b
:20580e0000000000000000000000000000000000f10083d400800000000f000000070f0b82
:17582e009a400020007819f3002000000043c1000010003f0a001058
:20584500000000000000000000000000000000000000000000000000000000000000000043
:20586500000000000000000000000000000000079ebe2a800c02000000000000008011a1d6
:16588500a60000100781df300100000006bc18000000780000006d
:20589b000010000000000000000000000000000000000000000000000000000000000000dd
:2058bb00000000000000000000000000000000000103e9548040000000000000000f0f0aa4
:1758db001a40000080400ff3002000000003c1000020000000000096
:2058f200000000000000000000000000000000000000000000000000000000000000000096
:20591200000000000000000000000000000000078072bd480000000000000000001003a1c3
:16593200a6000000003fcff00000000000000000009e000000001d
:2059480000000000000000000000000000000000000000000000000000000000000000003f
:2059680000000000000000000000000000000000080043d40000000000000000000080037d
:175988009a4000000000ee0000000090000000000050200000000040
:20599f000000000000000000000000000000000000000000000000000000000000000000e8
:2059bf000000000000000000000000000000000000f26a80008000000000000100801525b1
:1659df00a6000a41e027f99000030000000000000000000000002e
:2059f500000000000000000000000000000000000000000000000000000000000000000092
:205a150000000000000000000000000000000000000b6aa8800000038000000000070f0239
:175a35005a40000000366d990000000000000000040002400000003e
:205a4c0000000000000000000000000000000000000000000000000000000000000000003a
:205a6c00000000000000000000000000000000030c3ebd4000000068000000000000012542
:165a8c00a6000409c700cf5000000000000000000c002800000037
:205aa2000000000000000000000000000000000000000000000000000000000000000000e4
:205ac2000000000000000000000000000000000079c083d48000000000000000000f000b9a
:175ae200da4000212464d0fa00000000000000000000000000000020
:205af90000000000000000000000000000000000000000000000000000000000000000008d
:205b1900000000000000000000000000000000010c3e6a800040000000000001008017213e
:165b3900a6000001c025faa000000000000000000000066e380084
:205b4f008000000000000000000000000000000000000000000000000000000000000000b6
:205b6f0000000000000000000000000000000000b90f22a88000000000000000228f0e0b3a
:175b8f001a4000041c03feaa0000007000000000000002d7b182005e
:205ba6000000000000000000000000000000000000000000000000000000000000000000df
:205bc60000000000000000000000000000000000000039c80000000000000000008015a188
:165be600a6000ce1c234faa00110201c0000000000802800000091
:205bfc00000000000000000000000000000000000000000000000000000000000000000089
:205c1c000000000000000000000000000000000000093b6c040000000000000000070f029c
:175c3c001a4000e03c666daa00028401000000000010028000000045
:205c5300000000000000000000000000000000000000000000000000000000000000000031
:205c7300000000000000000000000000000028400136e6400000000160008000000007a1c3
:165c9300a5000000005eaf0880002000000000000c00056baa007b
:205ca9000000000000000000000000000000000000000000000000000000000000000000db
:205cc9000000000000000000000000000000000a00e9626420000400020000200000000bb1
:175ce9009a4520000024390f00002800000000000a17c385baa080ce
:205d0000000000000000000000000000000000000000000000000000000000000000000083
:205d20000000000000000000000000000003800800063d40000000014896803800000000be
:165d4000000000e0001e8f088380079e000000000000040000000c
:205d560000000000000000000000000000000000000000000000000000000000000000002d
:205d760000000000000000000000000000002000700303e82000000002f96006000000000e
:175d9600000000000000200f1020000800000000000003c0000000cc
:205dad000000000000000000000000000000000000000000000000000000000000000000d6
:205dcd0000000000000000000000000000010009185fe80200240068c89680100001c00010
:165ded0000000420005c8f098300250082881200002000daa0002a
:205e030000000000000000000000000000000000000000000000000000000000000000007f
:205e230000000000000000000000000000000200f80d6d7c0000600000d9600300000000d3
:175e4300000000000024200f00100050d57841000003c3c30a000470
:205e5a00000000000000000000000000000000000000000000000000000000000000000028
:205e7a00000000000000000000000000000000001a07bc1000000005c89680000000000038
:165e9a0000000000001c8f0880000100f68292000020786cf500bb
:205eb0000000000000000000000000000000000000000000000000000000000000000000d2
:205ed00000000000000000000000000000000000d18003c10000000282f9600000000000c0
:175ef000000000010000200f00000008090169000003c3830f500444
:205f070000000000000000000000000000000000000000000000000000000000000000007a
:205f27000000000000000000000000000000000f0057968000c01c70e89680000000000094
:165f470000001400001e8f08080000003e169000000c7ddeaa017d
:205f5d00000000000000000000000000000000000000000000000000000000000000000024
:205f7d0000000000000000000000000000000200700338040200000780d960000000000091
:175f9d00000000000000000f00000000f7801504000007beeaa000ff
:205fb4000000000000000000000000000000000000000000000000000000000000000000cd
:205fd4000000000040000000000000000000000008d7294080009c01e8968000000000000a
:165ff40000000000029e8f080800000c000000000000005caa0145
:20600a00000000000000000000000000000000000000000000000000000000000000000076
:20602a0000000000000000000000000000000000008b43bc2400140002f9600000400000f9
:17604a00000000000028000f0000000000000000000003cfaaa000ec
:2060610000000000000000000000000000000000000000000000000000000000000000001f
:20608100000000000000000000000000000000030003bc1000000e39c896800000180000f0
:1660a1000000043002809968080011000283c0000a1e3ccaf500b1
:2060b7000000000000000000000000000000000000000000000000000000000000000000c9
:2060d70000000000000000000000000000000001100003c12000402382e9600010008000f6
:1760f7000000000080280d690002070800003c00000007400f510080
:20610e00000000000000000000000000000000000000000000000000000000000000000071
:20612e00000000000000000000000000000100078100000000000038c896800000000000b2
:16614e000000000146c09968090380000283c000000001cef5019d
:2061640000000000000000000000000000000000000000000000000000000000000000001b
:2061840000000000000000000000000000000000388000000000000002d9600400000f00f5
:1761a4000000000014280d690000000000003c000003c0020f5000d2
:2061bb000000000000000000000000000000000000000000000000000000000000000000c4
:2061db00000000000000000000000000000031100a00000000000001e8968002009815307b
:1661fb003e000000001c8f088402000000000000400000000000d7
:2062110000000000000000000000000000000000000000000000000000000000000000006d
:2062310000000000000000000000000000000281d00000000000000002d960405001090223
:1762510003c080000000200f04000400000000000a000000000000b2
:20626800000000000000000000000000000000000000000000000000000000000000000016
:20628800000000000000000000000000000380080000000000000001e89680000019957846
:1662a8003e000000001c8f08000000000603c00000240000000002
:2062be000000000000000000000000000000000000000000000000000000000000000000c0
:2062de0000000000000000000000000000002000100000000000000002f960000000990676
:1762fe0003c000000100200f0100000090403c000001e000000000a8
:20631500000000000000000000000000000000000000000000000000000000000000000068
:20633500000000000000000000000000000100078077e4c000004000c896800000998580e9
:1663550002000014001e8f08800000000383c0000e000000000093
:20636b00000000000000000000000000000000000000000000000000000000000000000012
:20638b0000000000000000000000000000002018f80562700400000000d960000009900a0b
:1763ab00400000808000000f0000000000003c0000600000000000f0
:2063c2000000000000000000000000000000000000000000000000000000000000000000bb
:2063e20000000000000000000000000000000000003aaa8800000001c896800004800500c7
:16640200020000c0000e8f08900000000383c00000000000000047
:20641800000000000000000000000000000000000000000000000000000000000000000064
:206438000000000000000000000000000000000000a582a80000000002f9600000090e0bf8
:17645800c00000000000200f0040000000003c0000000000000000c2
:20646f0000000000000000000000000000000000000000000000000000000000000000000d
:20648f00000000000000000000000000000003c000073c1820001c74e8968000001005808c
:1664af0002000001401c8f08080050000383c00000000000000043
:2064c5000000000000000000000000000000000000000000000000000000000000000000b7
:2064e50000000000000000000000000000000002000003c10400000700d96000000080030a
:17650500c00000000000000f00400a0000403c0000000000000000ea
:20651c0000000000000000000000000000000000000000000000000000000000000000005f
:20653c00000000000000000000000000000000078000000000001c38c99680000098138456
:16655c0002000000001c8f08100000000383c000008001d9aa001a
:20657200000000000000000000000000000000000000000000000000000000000000000009
:206592000000000000000000000000000000000008c000000000100002d960000009890242
:1765b200000000000028000f0100000000403c000010001e8aa010b6
:2065c9000000000000000000000000000000000000000000000000000000000000000000b2
:2065e900000000000000000000000000000000800016d60200000e3dc896800000019384e3
:1666090002000201628c8f080800050a0783c00000003800000058
:20661f0000000000000000000000000000000000000000000000000000000000000000005b
:20663f0000000000000000000000000000000000b001e29c0000002302e960000000190283
:17665f00400000401428000f00003050a0003c000001c40000000038
:20667600000000000000000000000000000000000000000000000000000000000000000004
:206696000000000000000000000000000001000000963bc040000028c896a0000000e38485
:1666b60002000010029e8f08080005000783c0000000000000002e
:2066cc000000000000000000000000000000000000000000000000000000000000000000ae
:2066ec000000000000000000000000000000000000cd27fc00000006c2d960000000100a83
:17670c00400000001400200f0000005000003c000000000000000067
