:02000000ff00ff
:080002004c6174746963650030
:17000a00694345637562653220323032302e31322e32373934330071
:15002100506172743a2069434534305550354b2d53473438002c
:1b003600446174653a204a616e20313320323032352032333a32323a35360089
:0200510000ffae
:040053007eaa997e6a
:02005700510056
:0200590001059f
:03005b00920020f0
:03005e006202b388
:03006100720150d9
:0300640082000017
:02006700110086
:02006900010193
:20006b00000000000000000000000010000000000000400000000000010000000000000420
:20008b000000000000001000000000000040000000001000000000000040000000000001b4
:1600ab0000000000000004000000000000100000000000004000eb
:2000c1000000000000000000000000020000000000000800000000000020000000000000f5
:2000e10080000000000002000000000000080000000002000000000000080000000000006b
:17010100200000000000008000000000000200000000d0000800006d
:200118000000000000000000000000000000000000000000000000000000000000000000c7
:200138000000000000000000000000000000000000000000000000000000000100000000a6
:160158000000000000000000000000000000000000000000000091
:20016e00000000000000000000000000000000000000000000000000000000000000000071
:20018e00000000000000000000000000000000000000000000000000000000000000000051
:1701ae0010000000000000000000000000000000000000000000002a
:2001c50000000000000000000000000000000000000000000000000000000000000000001a
:2001e5000000000000000000000000000000000000000000000000000000000000000000fa
:1602050000000000000000000000000000000000000000000000e3
:20021b000000000000000000000000000000000000000000000000000000000000000000c3
:20023b000000000000000000000000000000000000000000000000000000000000000000a3
:17025b0000000000000000000000000000000000000000000000008c
:2002720000000000000000000000000000000000000000000000000000000000000000006c
:20029200000000000000000000000d0000000000000000000000000000000001000004003a
:1602b2000000000000000000000000000000000000000000000036
:2002c800000000000000000000000000000000000000000000000000000000000000000016
:2002e8000000000000000000000000000000000000000000000000000000000000000000f6
:170308000000000000000000000000000000000000000000000000de
:20031f000000000000000000000000000000000000000000000000000000000000000000be
:20033f000000000000401000000000000000000000401000000000010040000000000800b5
:16035f000000000000000000000000000000000000000000000088
:20037500000000000000000000000000000000000000000000000000000000000000000068
:20039500000000000000000000000000000000000000000000000000000000000000000048
:1703b500000000000000000000000000000000000000000000000031
:2003cc00000000000000000000000000000000000000000000000000000000000000000011
:2003ec00000000000000000000000000008000000000000000000000000000000000000071
:16040c000000000000000000000000000000000000000000c0001a
:200422000000000000000000000000000000000000000000000000000000000000000000ba
:20044200000000000000000000000000000400000000000000000000000000000000000096
:1704620000000000000000000000000000000000000000000c000077
:20047900000000000000000000000000000000000000000000000000000000000000000063
:200499000000100000000000000000000000000000000000004000000000000000000000f3
:1604b900000000000000000000000000000000000000000000002d
:2004cf0000000000000000000000000000000000000000000000000000000000000000000d
:2004ef000000010000400000000000000000010000000000000400000000000000000000a7
:17050f000000000000000000000000000000000000000000000000d5
:200526000000000000000000000000000000000000000000000000000000000000000000b5
:200546000000000001400000000000000000000000c0000000000001000000000000000093
:16056600000000000000000000000000000000000000000000007f
:20057c0000000000000000000000000000000000000000000000000000000000000000005f
:20059c0000000000000000000000000000000000000000000000000000000000000000003f
:1705bc00000000000000040000000000000000000000000000000024
:2005d300000000000c302000000000000000000000000000000000000000000000000000ac
:2005f3000000000000000000000000000000000000000000000000000000000000000000e8
:1606130000000000000000000000000000000000000000000000d1
:200629000000000000c30000000000000000000000000000000000000000000000000000ee
:20064900000000000000000000000000000000000000000000000000000000000000000091
:1706690000000000000000000000000000000000000000000000007a
:20068000000000000c302000000000000000000000000000000000000000000000000000fe
:2006a00000000000000000000000000000000000000000000000000000000000000000003a
:1606c0000000000000000000000000000000000000000000000024
:2006d6000000000000c3000000000000000000000000000000000000000000000000000041
:2006f6000000000000000000000000000000000000000000000000000000000000000000e4
:170716000000000000000000000000000000000000000000000000cc
:20072d00000000000c30200000000000000000000000000000000000000000000000000050
:20074d00000000000000000000000000000000000000000000000000000000002800000064
:16076d000000000000000000000000000000000000000000000076
:200783000000000000c3000000000000000000000000000000000000000000000000000093
:2007a300000000000000000000000000000000000000000000000000000000000000000036
:1707c30000000000000000000000000000000000000000000000001f
:2007da00000000000c302000000000000000000000000000000000000000000000000000a3
:2007fa000000000000000000000000000000000000000000000000000000000000000000df
:16081a0000000000000000000000000000000000000000000000c8
:200830000000000000c30000000000000000000000000000000000000000000000000000e5
:20085000000000000000000000000000000000000000000000000000000000000000000088
:17087000000000000000000000000000000000000000000000000071
:20088700000000000c302000000000000000000000000000000000000000000000000000f5
:2008a700000000200000000000000000000000000000000000000000000000000000000011
:1608c700000000000000000000000000000000000000000000001b
:2008dd000000000000c3000000000000000000000000000000000000000000000000000038
:2008fd000000000400000000000000000000000000000000000000000000000000000000d7
:17091d000000000000000000000000000000000000000000000000c3
:20093400000000000c30200000000000000000000000000000000000000000000000000047
:20095400000000000000000000000000000000000000000000000000000000000000000083
:16097400000000000000000000000000000000000000000000006d
:20098a000000000000c300000000000000000000000000000000000000000000000000008a
:2009aa0000000000000000000000000000000000000000000000000000000000000000002d
:1709ca00000000000000000000000000000000000000000000000016
:2009e100000000000c3020000000000000000000000000000000000000000000000000009a
:200a01000000000000000000000000000000000000000000000000000000000000000000d5
:160a210000000000000000000000000000000000000000000000bf
:200a37000000000000c30000000000000000000000000000000000000000000000000000dc
:200a570000000000000000000000000000000000000000000000000000000000000000007f
:170a7700000000000000000000000000000000000000000000000068
:200a8e00000000000c302000000000000000000000000000000000000000000000000000ec
:200aae00000000000000000000000000000000000000000000000000000000000000000028
:160ace000000000000000000000000000000000000000000000012
:200ae4000000000000c300000000000000000000000000000000000000000000000000002f
:200b04000000000000000000000000000000000000000000000000000000000000000000d1
:170b24000000000000000000000000000000000000000000000000ba
:200b3b00000000000c3020000000000000000000000000000000000000000000000000003e
:200b5b0000000000000000000000000000000000000000000000000000000000000000007a
:160b7b000000000000000000000000000000000000000000000064
:200b91000000000000c3000000000000000000000000000000000000000000000000000081
:200bb100000000000000000000000000000000000000000000000000000000000000000024
:170bd10000000000000000000000000000000000000000000000000d
:200be800000000000c30200000000000000000000000000000000000000000000000000091
:200c08000000000000000000000000000000000000000000000000000000000000000000cc
:160c280000000000000000000000000000000000000000000000b6
:200c3e000000000000c30000000000000000000000000000000000000000000000000000d3
:200c5e00000000000000000000000000000000000000000000000000000000000000000076
:170c7e0000000000000000000000000000000000000000000000005f
:200c9500000000000c302000000000000000000000000000000000000000000000000000e3
:200cb50000000000000000000000000000000000000000000000000000000000000000001f
:160cd5000000000000000000000000000000000000000000000009
:200ceb000000000000c3000000000000000000000000000000000000000000000000000026
:200d0b000000000000000000000000000000000000000000000000000000000000000000c8
:170d2b000000000000000000000000000000000000000000000000b1
:200d4200000000000c30200000000000000000000000000000000000000000000000000035
:200d6200000000000000000000000000000000000000000000000000000000000000000071
:160d8200000000000000000000000000000000000000000000005b
:200d98000000000000c3000000000000000000000000000000000000000000000000000078
:200db80000000000000000000000000000000000000000000000000000000000000000001b
:170dd800000000000000000000000000000000000000000000000004
:200def00000000000c30200000000000000000000000000000000000000000000000000088
:200e0f000000000000000000000000000000000000000000000000000000000000000000c3
:160e2f0000000000000000000000000000000000000000000000ad
:200e45000000000000c30000000000000000000000000000000000000000000000000000ca
:200e650000000000000000000000000000000000000000000000000000000000000000006d
:170e8500000000000000000000000000000000000000000000000056
:200e9c00000000000c302000000000000000000000000000000000000000000000000000da
:200ebc00000000000000000000000000000000000000000000000000000000000000000016
:160edc000000000000000000000000000000000000000000000000
:200ef2000000000000c300000000000000000000000000000000000000000000000000001d
:200f12000000000000000000000000000000000000000000000000000000000000000000bf
:170f32000000000000000000000000000000000000000000000000a8
:200f4900000000000c3020000000000000000000000000000000000000000000000000002c
:200f6900000000000000000000000000000000000000000000000000000000000000000068
:160f89000000000000000000000000000000000000000000000052
:200f9f000000000000c300000000000000000000000000000000000000000000000000006f
:200fbf00000000000000000000000000000000000000000000000000000000000000000012
:170fdf000000000000000000000000000000000000000000000000fb
:200ff600000000000c3020000000000000000000000000000000000000000000000000007f
:201016000000000000000000000000000000000000000000000000000000000000000000ba
:1610360000000000000000000000000000000000000000000000a4
:20104c000000000000c30000000000000000000000000000000000000000000000000000c1
:20106c00000000000000000000000000000000000000000000000000000000000000000064
:17108c0000000000000000000000000000000000000000000000004d
:2010a300000000000c302000000000000000000000000000000000000000000000000000d1
:2010c3000000000000000000000000000000002000000000000000000000000000000000ed
:1610e30000000000000000000000000000000000000000000000f7
:2010f9000000000000c3000000000000000000000000000000000000000000000000000014
:201119000000000000000000000000000000000500000000000000000000000000000000b1
:1711390000000000000000000000000000000000000000000000009f
:20115000000000000c30200000000000000000000000000000000000000000000000000023
:2011700000000000000000000000000000000000000000000000000000000000000000005f
:161190000000000000000000000000000000000000000000000049
:2011a6000000000000c3000000000000000000000000000000000000000000000000000066
:2011c600000000000000000000000000000000000000000000000000000000000000000009
:1711e6000000000000000000000000000000000000000000000000f2
:2011fd00000000000c30200000000000000000000000000000000000000000000000000076
:20121d000000000000000000000000000000000000000000000000000000000000000000b1
:16123d00000000000000000000000000000000000000000000009b
:201253000000000000c30000000000000000000000000000000000000000000000000000b8
:2012730000000000000000000000000000000000000000000000000000000000000000005b
:17129300000000000000000000000000000000000000000000000044
:2012aa00000000000c302000000000000000000000000000000000000000000000000000c8
:2012ca000000400000000000010000000000000000000000000000000000000000000000c3
:1612ea0000000000000000000000000000000000000000000000ee
:201300000000000000c300000000000000000000000000000000000000000000000000000a
:20132000000004000000000000100000000000000000000000000000000000000000000099
:17134000000000000000000000000000000000000000000000000096
:20135700000000000c3020000000000000000000000000000000000000000000000000001a
:20137700000000000000000000000000000000000000000000000000000000000000000056
:161397000000000000000000000000000000000000000000000040
:2013ad000000000000c300000000000000000000000000000000000000000000000000005d
:2013cd00000000000000000000000000000000000000000000000000000000000000000000
:1713ed000000000000000000000000000000000000000000000000e9
:20140400000000000c3020000000000000000000000000000000000000000000000000006c
:201424000000000000000000000000000000000000000000000000000000000000000000a8
:161444000000000000000000000000000000000000000000000092
:20145a000000000000c30000000000000000000000000000000000000000000000000000af
:20147a00000000000000000000000000000000000000000000000000000000000000000052
:17149a0000000000000000000000000000000000000000000000003b
:2014b100000000000c302000000000000000000000000000000000000000000000000000bf
:2014d1000000000000000000000000000000000000000000000000000000000000000000fb
:1614f1000000000000000000000280000000000000000000000063
:201507000000000000c3000000000000000000000000000000000000000000000000000001
:201527000000000000000000000000000000000000000000000000000000000000000000a4
:1715470000000000000000000000000000000000000000000000008d
:20155e00000000000c30200000000000000000000000000000000000000000000000000011
:20157e0000000000000000000000000000000000000000000000000000000000000000004d
:16159e000000000000000000000000000000000000000000000037
:2015b4000000000000c3000000000000000000000000000000000000000000000000000054
:2015d4000000000000000000000000000000000000000000000000000000000000000000f7
:1715f4000000000000000000000000000000000000000000000000e0
:20160b00000000000c30200000000000000000000000000000000000000000000000000063
:20162b0000000000000000000000000000000000000000000000000000000000000000009f
:16164b000000000000000000000000000000000000000000000089
:201661000000000000c30000000000000000000000000000000000000000000000000000a6
:20168100000000000000000000000000000000000000000000000000000000000000000049
:1716a100000000000000000000000000000000000000000000000032
:2016b800000000000c302000000000000000000000000000000000000000000000000000b6
:2016d8000000000000000000000000000000000000000000000000000000003800000000ba
:1616f8000000000000000000038000000000000e0000000e0f40ee
:20170e000000000000c30000000000000000000000000000000000000000000000000000f8
:20172e00000000000000000000000000000000000000000000000000000000020000000099
:17174e00000000000000000000000000000000000000000000f41080
:20176500000000000c30200000000000000000000000000000000000000000000000000008
:20178500000000000000000000000000000000000000000000000000000000300000000014
:1617a500000000000000000000000000000000000000000000002e
:2017bb000000000000c300000000000000000000000000000000000000000000000000004b
:2017db000000000000000000000000000000000000000000000000000000000300000000eb
:1717fb000000000000000000000000000000000000000000000000d7
:20181200000000000c3020000000000000000000000000000000000000000000000000005a
:20183200000000000000000000000000000000000000000000000000000000000000000096
:161852000000000000000000000000000000000000000000000080
:201868000000000000c300000000000000000000000000000000000000000000000000009d
:20188800000000000000000000000000000000000000000000000000000000000000000040
:1718a800000000000000000000000000000000000000000000000029
:2018bf00000000000c302000000000000000000000000000000000000000000000000000ad
:2018df000000000000000000000000000000000000000000000000000000000000000000e9
:1618ff0000000000000000000000000000000000000000000000d3
:201915000000000000c30000000000000000000000000000000000000000000000000000ef
:201935000000000000000000000000000000000000000000000000000000000004000a0084
:1719550000000000000000000000400000000000010000000000003a
:20196c00000000000c302000000000000000000000000000000000000000000000000000ff
:20198c0000000000000000000000000000000000000000000000000000000000000000003b
:1619ac000000000000000000000000000000000000000000000025
:2019c2000000000000c3000000000000000000000000000000000000000000000000000042
:2019e2000000000000000000000000000000000000000000000000000000000000000000e5
:171a02000000000000000000000000000000000000000000000000cd
:201a1900000000000c30200000000000000000000000000000000000000000000000000051
:201a3900000000200000000000000000000040000000000000000000000000000001c77aeb
:161a59009500000000000000000005800000000000060000000057
:201a6f000000000000c3000000000000000000000000000000000000000000000000000094
:201a8f0000000005000000000000000000000000000000000000000000000000004b10b027
:171aaf002a9000000000000000000000000000000000000000000066
:201ac600000000000c302000000000000000000000000000000000000000000000000000a4
:201ae600000000000000000000000000000000000000000000000000000000104000000090
:161b060000000000000000000100000003bc1004000000000000f5
:201b1c000000000000c30000000000000000000000000000000000000000000000000000e6
:201b3c00000000000000000000000000000000000000000000000000000000000001000088
:171b5c000000000000000000000040000003c1040100000000000069
:201b7300000000000c302000000000000000000000000000000000000000000000000000f6
:201b9300000000000000000000000000000000000000000000000000000000000080077a31
:161bb30094020000002ff5220000000930002000001c00000000cb
:201bc9000000000000c30040000000000000000000000000000000000000000000000000f9
:201be9000000000000000000000000000000000000000000000000000000000000010010cb
:171c09002a8000000002dfd000000000803c000000000000000000ad
:201c2000000000000c30200000000000000000000000000000000000000000000000000048
:201c400000000000000000000000000000000000000000000e000000000000000000000076
:161c600000000000003fdad0038000007214300e0000000000003e
:201c76000000000000c300400000000000000000000000000000000000000000000000004b
:201c96000000000000000000000000000000000000000000008000000000000000000000ae
:171cb600000000001c03fc3e102000000900150180000000000000ef
:201ccd00000000000c3020000000000000000000000000000000000000000000000000009b
:201ced00000040000000000000000000000000000000000000000000000000000000000097
:161d0d0000000000001eca50080000183a04b01c0000000000005e
:201d23000000000000c300400000000000000000000000000000000000000000000000009d
:201d430000000400000000000000000000000000000000000000000000000000000000007c
:171d6300000000000002d0aa000000000b261100c0000000000000eb
:201d7a00000000000c302400000000000000000000000000000000000000000000000000e9
:201d9a00000000000000000000000000000000000000000000000000000000000000000029
:161dba0000000000600000000000018152143000000000dca540da
:201dd0000000000000c3000000000000000000000000000000000000000000000000000030
:201df0000000000000000000000000000000000000000000000000000000000000000000d3
:171e1000000000000000000000000000898015011000000605540429
:201e2700000000000c3020000000000000000000000000000000000000000000000000003f
:201e47000000000000000000000000000000000000000000000000000ef048000000000035
:161e67000000000003400000000007017a14300000000400000058
:201e7d000000000000c3004000000000000000000000000000000000000000000000000042
:201e9d00000000000000000000000000000000410000000000010000000f000004000000d0
:171ebd00000000100060000000004008eb00150101000380000000d1
:201ed400000000000c30200000000000000000000000000000000000000000000000000092
:201ef4000000000000000000000000000000000000000000000000000000000000000000ce
:161f1400000001004007af50080005005a143000000000000000c5
:201f2a000000000000c3004000000000000000000000000000000000000000000000000094
:201f4a00000000000000000000000000000000000000000000000000000000000000000077
:171f6a00000000000226c0a020000000090015010002400000000057
:201f8100000000000c302400000000000000000000000000000000000000000000000000e0
:201fa100000000000000000000000000000000000000000000002000000000000080000080
:161fc10000000a00000000000000018a5a14300000007000000067
:201fd7000000000000c3000000000000000000000000000000000000000000000000000027
:201ff70000000000000000000000000000000200000000000000034000000000000700007e
:172017000000000000000000000000000b8015010000000000000011
:20202e00000000000c30200000000000000000000000000000000000000000000000000036
:20204e0000000000000000000000000000000400000000000010000000000000408000009e
:16206e000000010202c00000010408187a143004100000000000a0
:202084000000000000c3004000000000000000000000000000000000000000000000000039
:2020a40000000000000000000000000000000000000000000000000000000000000b000011
:1720c400000000003c64000000000010098015010080000000000036
:2020db00010006808c30200000000000000000000000000000000000000000000000000082
:2020fb000000000000000000000000000000000000000000000000000000000000000000c5
:16211b0000000000007cc302000000007214301000003d49f040f1
:202131000010004350c30040000000000000000000000000000000000000000000000000e8
:2021510000000000000000000000000000000000000000000000000000000000000000006e
:1721710000000000002e7e78000000000f001510000007fdcf4400e8
:20218800000000000c302000000000000000000000000000000000000000000000000000db
:2021a8000000000000000000000000000000000000000000000000000000003800000000df
:1621c8000000e0020040000003c00000f214300e20200000a56093
:2021de000000000000c30040000000000000000000000000000000000000000000000000de
:2021fe000000000000000000000000000000000000000000000000000000000200000000bf
:17221e00000008003c280000002038000b0015018000401405a40047
:20223500000006808c30200000000000000000000000000000000000000000000000000027
:20225500000000000000000000000000000000000000000000000000000000100001e00078
:1622750000004000078000000000001952143000402002eef44059
:20228b000000004010c30040000000000000000000000000000000000000000000000000e0
:2022ab0000000000000000000000000000000000000000000000000000000003000500000b
:1722cb000000040000000000000000008f80154000e040059b840050
:2022e200010000000c3024000000000000000000000000000000000000000000000000007b
:2023020000004000000000000000000000000000000000000000000000000000000000007b
:16232200000000000027ca5400000181d21430000000046ea000b6
:202338000000000000c30000000000000000000000000000000000000000000000000000c2
:20235800000004000000000000000000000000000000000000000000000000000000000061
:17237800000000000002c055400000008b801501000002000a0000ca
:20238f00000000000c302000000000000000000000000000000000000000000000000000d2
:2023af0000000000000000000000000000001080000000000000000000000000000000007e
:1623cf0000000008063ccfc0100000007a143000020001caf00094
:2023e5000000000000c30040000000000000000000000000000000000000000000000000d5
:202405000000000000000000000000000000000000000000000000000000000000000000b7
:172425000000000000027e78000001000f001501000000260a000052
:20243c00000000000c30200000000000000000000000000000000000000000000000000024
:20245c00000000000000000000000000000000000000000000000000000000000000e00080
:16247c000000080267b5ca500020501ada143000202c000ec00246
:202492000000000000c3004000000000000000000000000000000000000000000000000027
:2024b2000000000000000000000000000000000000000000000000000000000000091900e8
:1724d200000000402c40e0aa010002000b00154000e360000c00000b
:2024e900000000000c30240000000000000000000000000000000000000000000000000073
:202509000000000000000000000000000000008000000000000200000000000100000d7aa8
:1625290081000808e00000000000099e5a143000000e277c814074
:20253f004000000000c3000000000000000000000000000000000000000000000000000079
:20255f00000000000000000000000000000000000000000000000000000000000020003408
:17257f003d50000002240000000000100f801501000002069a7400c7
:20259600000000000c302000000000000000000000000000000000000000000000000000c9
:2025b6000000000000000000000000000000000000000000000000000000001001000bf2f7
:1625d600950040000000000001000818fa14304401000008053039
:2025ec004000000000c300401000000000000000000000000000000000000000000000007c
:20260c000000000000000000000000000000000000000000000000000000000000200fb8c7
:17262c001550000000000000000000100b8015000048001500a18400
:202643000000003fec302000000000000000000000000000000000000000000000000000fc
:20266300000000000000000000000000000000000000000000001e007d3000000000152d4a
:1626830048000040000df03000000000f214300000263cea0f807b
:2026990000100002f0c300000000000000000000000000000000000000000000000000005c
:2026b90000000000000000000000000000000000000000000000040394ba520000000e97b5
:1726d900b08040000001ee4b100000000d0015100000420180f0004b
:2026f0000000001cec30200000000000000000000000000000000000000000000000000072
:2027100000000000000000000000000000038008000000000e0016037afc003800000f6ad0
:162730008002e000001efbc003a80018f2143000001c3cea0f808e
:202746000000000030c3000000000000000000000000000000000000000000000000000080
:2027660000000000000000000000000000002000f0000000008000000e878006000000f4b4
:172786003d4008003402ceb501210001090015400022420380f000a6
:20279d000000001fec302000000000000000000000000000000000000000000000000000c1
:2027bd0000000000000000000000000000030000000000000c001e00000000100000e000df
:1627dd000000c0000000000000000019d2143400001c74de0f80f6
:2027f3000000000030c30000000000000000000000000000000000000000000000000000d3
:20281300000000000000000000000000000030000000000000c000000000000300030b00a4
:1728330000000c0000000000000000008d8015000000064190f00099
:20284a000100001cec302000500000000000000000000000000000000000000000000000c5
:20286a00000000000000000000000000000000000000000000801638000000040081e17b9f
:16288a00f08000000000000000000199d21430004120747a0f803a
:2028a0000000000030c3000000000000000000000000000000000000000000000000000025
:2028c00000000000000000000000000000000000000000000004000400000000000100da15
:1728e0009e000000002c0000000000018980158000034781d0f000ed
:2028f7000000001fec30200000000000000000000000000000000000000000000000000066
:20291700000000000000000000000000000000000c000000000000000000000002000dfa8b
:162937009400040002afaa5500000000fa143050001c64e15a8079
:20294d000000000030c3000000000000000000000000000000000000000000000000000077
:20296d00000000000000000000000000000000000100000000000000000000000000003415
:17298d0015401000000070aa400000000d0015000001e396ca5000be
:2029a4000000001cec3020004000000000000000000000000000000000000000000000007b
:2029c40000000000000000000000000000000000003e2950004006005ca54000000008733a
:1629e400890800000200000000000000da143000003e20c05aa014
:2029fa000000002430c30000020000000000000000000000000000000000000000000000a4
:202a1a000000000000000000000000000000000000ab8155000800401e0aa400000100f016
:172a3a003450000000400000000000000900154000a063e6fa500030
:202a51000000021fec30200000000000000000000000000000000000000000000000000008
:202a7100000000000000000000000000000000001e000000000000200000000000180000ef
:162a9100000000414380000000000980da143000000001790f807b
:202aa7000000004030c30000000000000000000000000000000000000000000000000000dc
:202ac7000000000000000000000000000000000001000000000000400000000000000000ae
:172ae7000000000002000000000000100d801540000003c090f000a1
:202afe000000001cec30200010000000000000000000000000000000000000000000000050
:202b1e0000000000000000000000000000010000000000000400000000000010001800006a
:162b3e00000044014000000001000818fa143000000002c15a8000
:202b54000000002430c300001000000000000000000000000000000000000000000000003a
:202b74000000000000000000000000000000000000000000000000000000000000000a0037
:172b940000000020160000000000001009801520000803a4ba52006b
:202bab00000000000c302000000000000000000000000000000000000000000000000000ae
:202bcb00000000000000000000000000000011200000000000000063790800000050000085
:162beb0000000002001faa520000000072143201002630ce0f804b
:202c01000010000000c30000000000000000000000000000000000000000000000000000e0
:202c21000000000000000000000000000000000000000000000000002780000002090000e1
:172c410000000006242650aa004000000300151000a0438180f040b6
:202c5800000000000c302023d000000000000000000000000000000000000000000000000d
:202c78000000000000000000000000000003800000000000000020797a80223800000df2cd
:162c9800950000060024fda003800000f2143000003c304a0f80cc
:202cae000000000000c3000020000000000000000000000000000000000000000000000023
:202cce000000000000000000000000000000200000000000000001c3d500000200000074b7
:172cee00155000000403ddd3102000000b0015200003c00380f0000d
:202d0500000000000c30200000000000000000000000000000000000000000000000000052
:202d2500000000000000000000000000000310270000000000020000cc0a10101001eb3a26
:162d450081000000062de252000000185a143800003c74ff0fa074
:202d5b000000000000c3000000000000000000000000000000000000000000000000000095
:202d7b00000000000000000000000000000030000800000000000342c200a003002008b876
:172d9b003d5000002c03f81c00000500030015000003c78380f00077
:202db200000000000c30200010000000000000000000000000000000000000000000000095
:202dd20000000000000000000000000000000000000000000000142ccea50040185803bfbc
:162df200894000000675ca0008000980d2143000000c717a0f8090
:202e08000000000000c30000100000000000000000000000000000000000000000000000d7
:202e2800000000000000000000000000000000000000000000000027a60aa0000000000b08
:172e480078900000002370f5000102f00b80150000002401d0f0006b
:202e5f00000000000c302000000000000000000000000000000000000000000000000000f7
:202e7f00000000000000000000000000000000001a00000000000e73ca5000020001a000db
:162e9f0000000042e2afaa50100000007a143000001e61405aa0c9
:202eb5000000000000c300000000000000000000000000000000000000000000000000003a
:202ed500000000000000000000000000000000010000000000084027bd00020000000000ae
:172ef500000000003e4050aa000000f0030015000003e014ca500035
:202f0c00000000000c30202800000000000000000000000000000000000000000000000021
:202f2c00000000000000000000000000000000001800000000000603eea5000280389f7206
:162f4c0095000001e2dee0000000000eda14300000203de15a80f5
:202f62000000000000c300000000000000000000000000000000000000000000000000008c
:202f820000000000000000000000000000000000f0000000000000000e0aa00413808afc6a
:172fa2002a9000003c794c10000000010b0015000003c61c9a50005d
:202fb900000000000c3020000000000000000000000000000000000000000000000000009c
:202fd900000000000000000000000000000010001eb3a81400001e01fea0200000f0897273
:162ff90081400003c2dce5a0380009807a141000082000590f806c
:20300f000000000000c30000000000000000000000000000000000000000000000000000de
:20302f00000000000000000000000000000000000093c3d5000001e01e0f5000001700b031
:17304f003d5000401c7ce02528000010038015000000c382d0f0002b
:20306600000000000c302020100000000000000000000000000000000000000000000000be
:203086000000000000000000000000000001000000d72948000020740000001004000172c6
:1630a60095000200e28fab102900084100000000000604e0008075
:2030bc000000000000c3000000000000000000000000000000000000000000000000000031
:2030dc0000000000000000000000000000000000000b02a8020000c60000000000410bd437
:1730fc002a901000246010b1080008108000000000000300b000005b
:20311300000000000c3020000001000000000000000000000000000000000000000000003f
:2031330000000000000000000000000000000100000000000000802a7b0800000201afbae2
:16315300810000140624e2520000000057a94800000068e0008063
:203169000000000000c300000000d0000000000000000000000000000000000000000000b3
:20318900000000000000000000000000000000000000000000081004158000000050009491
:1731a9003d5040000401e80d000000000341540000000002f000407e
:2031c000000000000c30200000000000000000000000000000000000000000000000000093
:2031e000000000000000000000000000000380080000000000003e00000000380071f3e288
:163200009580e056001fcad2038000001ec0c000000000c0008051
:203216000000000000c30000000000000000000000000000000000000000000000000000d5
:203236000000000000000000000000000000200070000000000001e000000002028009dc9e
:173256002a900800ac265a1f00200000afb2940000000000f000004f
:20326d00000000000c302000000000000000000000000000000000000000000000000000e5
:20328d000000000000000000000000000001210008000000000080004a08003000000df2f6
:1632ad00810040e0038000000300081e57a95000001605e10080f2
:2032c3000000000000c3000000000000000000000000000000000000000000000000000028
:2032e300000000000000000000000000000030280100000000000002cfe0000300000b9023
:173303003d580c0024000000001000100341550000000342e0000010
:20331a00000000000c30200000000000000000000000000000000000000000000000000037
:20333a00000000000000000000000000000000000000000000001c040ee40000008007e2f8
:16335a009500000600278a0400000d001ef3c0000004016000804a
:203370000000000000c3000003000000000000000000000000000000000000000000000077
:20339000000000000000000000000000000000000000000000000023edfd81001005009cde
:1733b0002a900000842b50f5400000b00fb2940000000000b0000063
:2033c700000000000c3020000000000000000000000000000000000000000000000000008a
:2033e700000000000000000000000000000000800000000000000e61def5004000000fe2d3
:16340700810102000017af500000000100000000002e78c100802d
:20341d000000000000c300000000e0000000000000000000000000000000000000000000ec
:20343d000000000000000000000000000000000100000000000003639e05000000000098cd
:17345d003d5000403c03e05020000070e000000000c3c002f0000037
:20347400000000000c302000000000000000000000000000000000000000000000000000dc
:203494000000000000000000000000000000000000fe294040000438ed0800000010000030
:1634b400000000000020ee2420000181f2a81000000078e00080ac
:2034ca000000000000c30000280000000000000000000000000000000000000000000000f7
:2034ea000000000000000000000000000000000000070154000000239fc00000000f0800cd
:17350a0000000000003f50d140000000afc3d5000803c000c0000038
:20352100000000000c3020000000000000000000000000000000000000000000000000002e
:20354100000000000000000000000000000000000087b890c0001473def5000002008000ff
:1635610000000a08078000000000018ff762000000007448f080a6
:203577000000000000c3000000000000000000000000000000000000000000000000000071
:203597000000000000000000000000000000000100010345000005e65705000400400b0034
:1735b70000000001440000000000040185a44400000007c2af0000ce
:2035ce00000000000c30200800001315400000000000000000000000000000000000000011
:2035ee00000000000000000000000000000100098000000000003c05df0800100000ebe22e
:16360e00950040006020db1401000001f73f8080000e2408f00000
:203624008000000000c30001000000c154010000000000000000000000000000000000002c
:203644000000000000000000000000000000000030000000000000420ed00000000d1b945a
:173664002a9000000023cb724100000095439421000003c00f000095
:20367b00000000000c30200000015059a00000000000000000000000000000000000000089
:20369b0000000000000000000000000000000010007019b00000000000000000000009f8c5
:1636bb00200102000234e52000005800bf73c00000402061008010
:2036d1000000000000c310000000d03d98040000000000000000000000000000000000005d
:2036f100000000000000000000000000000000001000b19940000342000000000000003e9c
:173711008000000600027bc2100002b00fb21c0400000400900000a5
:20372800000000000c30241007001a25a0000000000000000000000000000000000000002b
:2037480000000000000000000000000000038000007225b80e002020000000380001c00048
:163768000000e0020046afc0038008185e28000e0c1605c850c07e
:20377e000000000000c300008000e0b25820000000000000000000000000000000000000de
:20379e00000000000000000000000000000020000000b259208000440000000200001000ea
:1737be00000008000c3ffb780060001000828000800002a400540042
:2037d500000000000c30202800007225a020000000000000000000000000000000000000f9
:2037f50000000000000000000000000000030010007265b80400346400a540100071c7f257
:1638150094004814e605aa5400000800bf40c020a156654812c067
:20382b000000000000c300400070003e580000000000000000000000000000000000000074
:20384b00000000000000000000000000000010000090b2590240a1620405a407000010bced
:17386b002a8008408226e0aa400000b00fb21c000000020ea8440059
:20388200000000000c30200040001265a02000000000000000000000000000000000000053
:2038a20000000000000000000000000000000000007a25b8000000000af060000400000051
:1638c20000000000007f8f5400000008bfe200000006014850c086
:2038d8000000000000c30040000000b25800000000000000000000000000000000000000c3
:2038f800000000000000000000000000000000000000365900000000000f0400018000008d
:17391800000000401c2d40a0400000b00b7044000000002600540006
:20392f00000000000c30202807007a25a0200000000000000000000000000000000000008e
:20394f00000000000000000000000000000020050b7a65b80000000358a500000100d000c0
:16396f00000000900037aa540000000c733f8080000001e850c0c6
:203985000000000000c301000000003a5800000000000000000000000000000000000000cc
:2039a5000000000000000000000000000000000050e0b25986000000070aa0040020080064
:1739c500000000000036e0554000000101c394000002400c00540045
:2039dc00000000000c30240007007225a0200000000000000000000000000000000000000d
:2039fc0000000000000000000000000000000005007a65b040000007eaa011000081c000f4
:163a1c00000002000040000000200b9c06b000800000016850c0dc
:203a32000000000000c300000000003e58000408000000000000000000000000000000000f
:203a5200000000000000000000000000000000005000b25902000002250f5000000700006a
:173a720000000000003c0000000000790043000000080024005400c5
:203a8900000000000c3020005b8f1a25a020000000000000000000000000000000000000d8
:203aa900000000000000000000000000000000000a7a25b00000000358a5004080000b7267
:163ac900950008056040000000001001dfd41000000601e850c0d2
:203adf000000000000c301000030c03a580000000000000000000000000000000000000081
:203aff000000000000000000000000000000000000a0a259800000002d0aa0001000003c69
:173b1f001550404082200000000002008d6049000000000e0054006e
:203b3600000000000c322000080b7265a02000000000000000000000000000000000000067
:203b5600000000000000000000000000000100050a7a25b004000600000000103051dffb7b
:163b7600d5014000e014fb14012003097ef4d004002065e850c030
:203b8c000000000000c300000031c03e5800000000000000000000000000000000000000cf
:203bac000000000000000000000000000000000000a0ae59800000000000000000000e982c
:173bcc001410000080000ab14000000985668d800040422600540046
:203be30001000020ec30200000015a25a00000000000000000000000000000000000000045
:203c030000000000000000000000000000000000007225b000018023c850c00205000fb216
:163c230095000041c00ee520000000197e83e000000003c850c00d
:203c390000100000d0c301000000d03e5890000000000000000000000000000000000000d1
:203c5900000000000000000000000000000000001000b259d00018041c005420102700304d
:173c79002a9010000203fbc10100003190703c000000001c0054408b
:203c9000000000000c30202000001a25a010000000000000000000000000000000000000a9
:203cb00000000000000000000000000000038000007225b00e000001c850c0380080173242
:163cd0008100e000001cbf80000009993a83e00e000003c850c0fa
:203ce6000000000000c301010000e0b658000000000000000000000000000000000000000b
:203d0600000000000000000000000000000020000000b2594480000024005402000f0c3cdd
:173d26003d5008000003fd7a004000f090303c008000000c0054006b
:203d3d0000000000ec30200000003a25a0200000000000000000000000000000000000000b
:203d5d00000000000000000000000000000310a0007265b21c0140674850c01008380d325f
:163d7d0095014000063fea04000001805056a8000000674850c099
:203d93000000000010c300400070003e5800000000000000000000000000000000000000f7
:203db300000000000000000000000000000010000090b259004000021e00540203900ab83a
:173dd300155008000003d0f540000008c9a294000000021e005400e9
:203dea00010000000c30202800001225a0000000000000000000000000000000000000005d
:203e0a0000000000000000000000000000000000007a25b0100006054850c0000411e5e3f9
:163e2a00d5000000002dea54000009981016a0004006074850c036
:203e40000000000000c31000007000b65840000000000000000000000000000000000000d1
:203e6000000000000000000000000000000000000000365922000002260054000000003cd9
:173e8000281000001c0150aa40000099a93694000a00020e00540022
:203e9700000000000c302000000a3a25a02000000000000000000000000000000000000086
:203eb700000000000000000000000000000003050a7a65b800000007e850c00000101fb262
:163ed7009500000203a4ca04002009993e83e000000003e850c06b
:203eed000000000000c30040000100be58000000000000000000000000000000000000009b
:203f0d000000000000000000000000000000020050e0b25902000003dc00540000070e18f5
:173f2d002a9010003c03d0f540010010d0b83c010000001c00540029
:203f4400000000000c302420439c7225a020010000000000000000000000000000000000a6
:203f640000000000000000000000000000000005007a65b0000000016850c0003880e5b2e1
:163f840081000001e3bfea50000008197ec3e0000c04036850c0fc
:203f9a000000240000c3000000000036580000000000000000000000000000000000000092
:203fba00000000000000000000000000000000005000b2598600000024005400000d193038
:173fda003d5800000040d0550000009180203c000000000c00540009
:203ff100000000000c302000038a5225a000000000000000000000000000000000000000b0
:20401100000000000000000000000000000000000a7a25b0000026036850c0000071c3b2af
:164031009540000003e1ce2420280101f056a0000026036850c0fd
:204047000000002400c300400009003e584000000000000000000000000000000000000053
:204067000000000000000000000000000000000000a0a259240800401e0054000000005868
:174087002a9000000063c0d140010008e9b694000000401e00540046
:20409e00000000000c3020000000023c002000000000000000000000000000000000000048
:2040be00000000000000000000000000000100050a7a25b004002461e850c0100000013ab7
:1640de008140400066c000000000070036c3e004002463e850c042
:2040f4000000000000c3000000000003c00004000000000000000000000000000000000022
:204114000000000000000000000000000000000000a0ae592000006026005400000f0f309c
:174134003d50000024780000000000f800e43c000000400e00548011
:20414b0004000027ac302400001c78002000000000000000000001e0000000000000000094
:20416b0000000000000000000000000000000380007225b800008021c850c8020351c16961
:16418b000c00000a600582500000401f7a83e000000001c850d0ac
:2041a1000030000370c3000000f000b00000000000000000000000000000000000000000f8
:2041c100000000000000000000000000000000001000b259120014040c005440505110d771
:1741e100e14400017c00db2c0000003080303c100000000c00544052
:2041f8000000031dcc302410239c1225a80e008000000000380000000000000000000000f3
:2042180000004300000000000000000000038000007225b21e000001c850c83802b9c53f81
:16423800e040e80403d7ef54000049815a83e00e000001c850c0d9
:20424e000000002410c300020199003658008010000000000200000000000000000000009d
:20426e00000000000000000000000000000020000000b2590080000024005403004b801e21
:17428e00de8008400035d0a0400002d090b03c008000001400540454
:2042a50000c0000fec30240007801a25a00000000000000000000000000000000000000084
:2042c50000000000000000000000000000031030007265b00c0000654850c0100071a00025
:1642e5000000400407800000000009997a83e0000000654850e09c
:2042fb000000000030c300000008003a580000000000000000000000000000000000000016
:20431b00000000000000000000000000000010050090b25906c000020e0054020000100096
:17433b00000008009c4000000000009990e43c000000420e0054009a
:204352000100021dec30200287801a65a000000000000000000000000000000000000000c7
:2043720000001380000000000000000000000000007a25b0000006054850c0000001f17a7a
:1643920081000000479def800008099f3a83e0004006054850c051
:2043a8000000007c30c30080180090265801000000000000000000000000000000000000df
:2043c8000000028000000000000000000000000000003659060000022600540000000e94a0
:1743e8003e9000000202ec7a0000189880743c0000000216005480ba
:2043ff000001e24ccc302000000e3a65a000002000000000000000113a9581000000000085
:20441f00000000000000000000000000000003850a7a65b870000001e850c00000700b620e
:16443f0095400003e60cd5200000099976c3e800000001e850e0cc
:204455000000027c10c300000090002a58000002c00000000000000fbc14104000000000f3
:204475000000000000000000000000000000000050f0b259000002400c005400000080d4e6
:17449500155000002463dec100000010e0203c000000400c00540099
:2044ac00000007cd8c30200185003a25a00080000400000000000000000000040000000033
:2044cc0000001020000000000000000000000005007a65b0000000016850c002000009fa8e
:1644ec008100000000578a040000000036c3e0000000016850c101
:204502000000006c30c300008000a0a658000000020000000000000000000000a00000007a
:20452200000000840000000000000000000000005000b2598600000024005400000000900c
:174542003d5800000039f0f5400000d000a03c00000000140054005b
:204559000000c79dec302000051e7a25a020000003ee64408000000000000000000000000b
:20457900000000000000000000000000000000000a7a25b2000026796850c0000031876296
:16459900954000020794ea5400002780d816a0000026016850c187
:2045af000000007c20c300000000002a5800000003afc9140800100800000000000000005c
:2045cf000000000000000000000000000000000000a0a259200000400e00540000070074f4
:1745ef002a9000000c02c055408001f809a294000000400e0054003e
:204606000003e7c1ec30200200017265a0040000000000001002000000000000000000001d
:20462600000013a00000000000000000000100050a7a25b044002061e850c0100070e92b11
:16464600d50440086385ca04000008017000200440a061e850c0b1
:20465c0000003c3c00c3000285b0a0ae580200400340000000004000000000000000000061
:20467c000000028400000000000000000000000000a0ae59240000402600540002809010f1
:17469c00141000014001d0f540800090902400000a14401600548090
:2046b300000800000c302000079c1a25a000008006ecc1408000000000000000000000000e
:2046d30000000000000000000000000000000380007225b000008003c850c8000001ebb9f5
:1646f3004840000af01cf5220000001c38402000000003c850c06d
:204709000011400000c30000007800ba5850001002adadb480000000000000000000000002
:20472900000000000000000000000000000000000000b259310000000c00544000001097ed
:17474900b080000f5e005ec10000000100b800100000003c00554003
:20476000000000000c302000081e3225a00e00006bccfa40380001e0000000000000000028
:2047800000000000000000000000000000038000007225b80e000003c850c838000011bf4e
:1647a000f080e00ae005ef800000001a3040200e000003c850c0c2
:2047b6000000000000c3000000f0002258008000000f0f0512008000000000000000000081
:2047d600000000000000000000000000000020000000b259018000000c00540200000ffbab
:1747f6001e0008015e03ce7a0000000000a8000080c0002c00550073
:20480d0000e000000c302000071e7a25a000001600000000000000000000000000000000d5
:20482d00000000000000000000000000000100001e7a25b80c0000674850c0100000092be6
:16484d00d5004a01466f8a5400000580104020000080674850c06e
:204863000000000000c30000000100225800000000000000000000000000000000000000f7
:204883000000000000000000000000000000300001003659024000020e005402000008fca9
:1748a30028100840003ac0554000000000ac00000004023e005504a6
:2048ba00000000000c30200007005225a010800006efc140c100008000000000000000009d
:2048da0000000000000000000000000000000000007a25b2400006074850c00000180000b0
:1648fa0000000000003eaf508000001e504020000006034850c0bc
:204910000000000000c30000000000ba58000400028fbe7480083000000000000000000033
:204930000000000000000000000000000000000000003659040000020e0054000000000070
:1749500000000000000070a000000030003000000000002e0054104e
:20496700000000000c3020000f0e3225a040000076ecc140c000000000000000000000005d
:20498700000000000000000000000000000003850a023c1040400003e850c00004700ff33f
:1649a700d500000000618a3420000f0118002000000003e850c1a2
:2049bd000000000000c30000005100aa58000000066d9db4000000000000000004000000fc
:2049dd000000000000000000000000000000000050a003c100020003cc005400002080fc45
:1749fd0028104000003fc05340000090f0b000000000003c005400d9
:204a1400000000000c30200000001a25a000000c02efcb40000070000000000400000000cb
:204a34000000000000000000000000000000000000000000000004036850c000001087eb61
:164a5400d4040403602eca040000071c7040200000003b6850c06b
:204a6a000000000000c300000000002658040000238fe4260000000000000000a00000008b
:204a8a000000000000000000000000000000000000000000000001600c0054000000903883
:174aaa0014000020362450f54000000900b800000004042c00548019
:204ac100000000000c30200009007a65a000000072edcb40800000e0000000000000000027
:204ae100000000000000000000000000000003000a000000000026036850c00000101833ac
:164b0100898800020040000000000018327c2020002603e85040a4
:204b17000000000000c3000000b800aa58000000042de815000000000000000000000000d3
:204b37000000000000000000000000000000000000a00000000000400e005400000008f024
:174b5700345000081c20000000003801003fc0000000403e005480f5
:204b6e00000000000c302028081a7a25a004002602efc1401000000f6f2d06040000000061
:204b8e00000000000000000000000000000100050000000004002063e850c0100000e00092
:164bae00000040006786af800000590c023c002400a03c000000f2
:204bc4000000000000c30001005080b2580000c2600f9e76041000003e605800a80000003c
:204be4000000000000000000000000000000002850000000000000400e005400000008008f
:174c04000000000000404b7a000002900003c00200004600000000f7
:204c1b00000000000c30200000003265a000000001d8e0608000000000000000000000004d
:204c3b00000000000000000000000000000000080c5a294810000003c850c8000000000087
:164c5b000000000000000000000000000000000000000000000043
:204c71000000000000c300002800002658100000000ebfa404000000000000000000000035
:204c910000000000000000000000000000000000f10142a8000000000c0054400000000087
:174cb1000000000000000000000000000000000000000000000000ec
:204cc800000000000c30200003813a25a00e001670cbc160780000000000000000000000f5
:204ce80000000380000000000000000000000000000000000e001e03c850c8380001e00001
:164d08000000e00000000000038000008029500e800100000000aa
:204d1e000000000000c300003808d03658008000043dbe740200000000000000000000001f
:204d3e0000000000000000000000000000000000000000000080000004005402000010006b
:174d5e000000090000000000002038000b01680084000000000000e5
:204d7500000000000c30200800003a65a0000e007c6ea5480000780f7b150200000000007d
:204d950000000000000000000000000000000020000000000400006f4850c000000180335f
:164db500c1000004000000000000100000000000001600000000fd
:204dcb000000000000c300000000003658000000028fbab41000008036b1d0100000000021
:204deb00000000000000000000000000000000040000000000c000060e0054000001000477
:174e0b003c08000080000000000002000000000000000000000000ca
:204e2200000000000c30200017007a25a0000000040000000080000000000000000000003a
:204e4200000000000000000000000000000000080000000000000003c850c000000007abbb
:164e6200d4210000000000000020000a5ba8000000000000000018
:204e78000000000000c300000208003a580000000280000000100000000000000000000029
:204e980000000000000000000000000000000000b00000000000000006005400000000549c
:174eb80028000000002000000001000100828002080240000000004b
:204ecf00000000000c302008050b3a25a040000038000000000000000000000000000000d8
:204eef00000000000000000000000000000000000000000000000003e850c0000000c07870
:164f0f003c84000003800000000000000000000000000000000049
:204f25000000000000c300001000b0b6580001024400000000040000000000000000000090
:204f45000000000000000000000000000000004800000000000100000c005400040000049b
:174f650003c2401000400000000000000000000001000000000000df
:204f7c00000000000c30200005885a65a000010000cac1410280000000000000000000007e
:204f9c00000000400000000000000000000000000000000000002602e85040004000083a93
:164fbc0080800100004000000000000800000000000603eba440be
:204fd2000000000000c300000031c03a58000008003dbe74040009000000000000000000f5
:204ff2000000000000000000000000000000000000000000000001400c00a400000000f4ba
:175012001402500000200000000000000000000000e0000eab8400e4
:20502900000000000c3020000d807a25a000000000000000000080000000000000000000bf
:20504900000000000000000000000000000000000000000000402660000000000001e7e1b8
:16506900d04100000036c5040000018007bc1600800000faa000ad
:20507f00c000000000c3000022d000ba580000040340000000000b00000000000000000038
:20509f00000000000000000000000000000000000000000000000040000000000000000fa2
:1750bf00dd0210000002f0fa400000000003c000040000000a0000ee
:2050d600000000000c3020000d1b7a65a004100000cac141104000100000000a000000006d
:2050f600000003a000000000000000000000040000000000041020000000000040701000ff
:1651160000004300000000000004000000000004b400280000005c
:20512c000000000000c3000000d0b0a258800000003dde760400000c000000000000000005
:20514c000000000500000000000000000000000000000000000000400000000000008a0074
:17516c000000004000000000000001f00000000004000400000000f3
:20518300000000000000000000007a25a000002006ccc160c00000000000000000000000fa
:2051a300000000071a7203e000000000000000000000000000000000dff09000008007e2ae
:1651c3009404000000000000000005010000000000160000000022
:2051d900000000000000000000d0b0be58100001429dbdb4000000000000000000000000bf
:2051f900000000000900403c0800000000000000000000000000000000c0f0000001001444
:175219002a8020000000000000000000e00000000002600000000072
:20523000000000000000000005001265a00e002001fed1603800701000000000000000002c
:20525000000380070c5a3c3400000000000000000000000000000078c8aa90000000e00084
:165270000000000000000000038020000000000000000000000085
:2052860000000000000000003808003a580080a1402eed360200000e000000000000000074
:2052a600000020000800003d00000000000000000000000000000000000aa00100000000d8
:1752c6000000000e0000000000200400b000000000000000000000ef
:2052dd00000000000000000000003a25a00000006acdc140800000e06bc1000000000000ee
:2052fd00000000058e123c3000000000000000000000000000000001c8aa8000000000008d
:16531d00000000000000000000000000000000000000000000007a
:205333000000000000000000000000b258000000001d8db404000000043c1040000000005e
:20535300000000000900003d20000000000000000000000000000000020aa1000000000027
:17537300000000000000000000000000000000000000000000000023
:20538a00000000000000002017005a25a000000001eee440000000900000000a0000000000
:2053aa00000040058e523c3001000000000000000000000000000001c8aa8000000000005e
:1653ca0000000000000000000020000000000000000000000000ad
:2053e00000000000000000010208003a58000000002ccf4510100f1b000000004000000046
:20540000000000000900803d60000000000000000000000000000000020aa10000000000b9
:17542000000000000000000000010000a000000000000000000000d4
:20543700100000000000000021017225a000000c38000000000000006bc10000000000007c
:2054570000008000001a3c324000000000000000000000000000140068aa80000000000047
:1654770000000000000000000000078000000000000e000000008a
:20548d0001000000000000004510a0b6580001602000000000040000003c1010100000000a
:2054ad00000000400000003d00000000000000400000000000010140020aa1000000000033
:1754cd000000000000000000000040f8000000000000000000000090
:2054e4000000000000000000001b1225a000014001eee4410205000d6b05050000000000d8
:2055040000000000005a3c3840000000000000000000000000001c01e8aa8000000000004a
:165524000000000000000000000010190000000000400000000008
:20553a0000000000000000003800b0b258000008002dcf46000020001fb6d0000000000050
:20555a00000000000000803d00000000000000000000000000000140000aa1000000000088
:17557a00000000000000000000003a00800000000008000000000058
:20559100000000000000000008099a4cc000006662ccc1400000800000000000000000002e
:2055b10000000008001a3c3800000000000000000000000000000028e8aa88000000000002
:1655d100000000000000000000100000db2150000000004dfa0021
:2055e700000000000000000000d0bb3f30000002641d8db6040007000000000000000000d9
:20560700000000001000803d20000000000000000000000000000002800aa000000000006a
:175627000000000000000000000000000bb22d0000000004e5001089
:20563e000000000000000004000900000004101439e8e44112c0000063c1020100000000d8
:20565e000001040000523c3000000000000004000000000000101429e8aa900000000000f6
:16567e000000000000000000010450009a3d5000200e000000006c
:2056940000000000000000000030a000000000c0202dcf4604000000043c100000000000b0
:2056b400000000000000003d20000000000000000000000000000140020aa0000009000083
:1756d4000000000000000000000002000be3f50100e00000000000f9
:2056eb0000000000000000000500173d50300100000000000000000073c10002000040004f
:20570b00000000071a123c30200000000000000000f3bd5000000001c8aa90000001e77163
:16572b007c0000000000000000400001faee0000000001fe8b0039
:20574100000000000000000000000b2a85000000000000000000070f003c10000000240008
:205761000000000009f0803d1000000000000000000d814101000000000aa0400000105c3c
:17578100028000000000000000040030eff6e0040000002ea8b010fc
:20579800000000000000038005000000000e0000000000003880801063c102e00000008f7e
:2057b800040380070e5a3c3400000000000380000000000000000000c8aa90000001e329d9
:1657d8006800040800000000000320087e760000008026d9b800f1
:2057ee0000000000000000200000000000008000000000000212a70c003c100800000010d0
:20580e00f04020000900003d04000000000020000000000000000000000aa0002000007086
:17582e001540002140000000000004f1e5bf9004001007bfd7400093
:20584500000000000000000005003e381800000003cdcb48000080006bc100000000000021
:20586500000000000e123c3200000000000300000000000000000001c8aa800000781531e1
:165885007c0000000000000000000800b7ab0000001c03eaaf006f
:20589b00001000000000000000780b2bd50100000016c81404000b0a043c104000000000be
:2058bb00000000000100003d40000000000030000000000000000000020aa10000000f580b
:1758db00028000000000000000000070ff72b0040007e01ee0a0100a
:2058f2000000000000000000000000000000015600000000000000110001800000000000ad
:205912000000000580523c3200000000000000000e00000000000001c8aa800000800f2977
:1659320068000000000000000010500efe6e0001003e7adbb800d1
:2059480080000000000000000000a00000000008000000000001000ed03fd0000000000029
:20596800000000000800803d40000000000000000000000000000000000aa100000f005808
:17598800154000000000000000008291aff1d0001002c03f97400048
:20599f001000000000000000000000000000001400000000008501e80295000000000000bf
:2059bf0000000000001a3c3000000000000000080000000000002000e8aa80000070000197
:1659df006800000000000000000009007e7e804000002000000065
:2059f500010000000000000000009000000000002000000000102000b0169000000000005b
:205a1500000000000000003d200000000000000070000000000001c0020aa10000078f5050
:175a35002940000000000000000000d809fe8000000006c0000000cc
:205a4c0000000000000000000180b2f058000000000000000280700023c10200000041cfd7
:205a6c000400000000123c380000000000000000000783c8000e2060e8aa00000001cb2929
:165a8c00680000080000000000100700feae00004f407c000000c6
:205aa2000000000000000000000003af6d0600004000000000000109043c100000002810ed
:205ac200f04100010000803d20000000000000000000003c000003c0000aa10000501f9804
:175ae200154000014000000000008000eff9d004020807800000004a
:205af900000000000000000020003fbe1020000004000000000080003bc10000000001efd0
:205b190004100000001a2a9000000000000000001f00000000000c00000000000000e00079
:165b39000000000000000000000000007ea80040001401fbb80028
:205b4f00000000000000000005000b29412000000340000000000700003c10000000000006
:205b6f00f0400000000082a94400000000000000f0e00000000003c3c000000000091900ff
:175b8f000000000000000000000000f0004280000000202edb8000a4
:205ba60000000000000001000800b2b0504400000000000010000001f30504400200000091
:205bc60000010000000000000000000000010005800303c0000000001c0f0000100003a98b
:165be60068000000000000000000500c97e64020400402dab80030
:205bfc00000000000000000000d003ab6d06000000000000000000005b76d2104014000091
:205c1c00000000000000000000000000000000000000003c020000000000f000081000988a
:175c3c00154000000000000000000291f57e94000ac2423ed74000ff
:205c530000000000000000000800f6c20000000005cea0000000380584020000000000003b
:205c730000000000000000000000000000000000000000000000060000000000000000000b
:165c930000000000000000000000010050402000000065e0008085
:205ca900000000000000000000f00d780000000003420a0000000080028000000e00000007
:205cc90000000000000000000000000000000000000000000000002000000000000000009b
:175ce900000000000000000000000000f03c000000000682d0002000
:205d00000000000000000000078c3aa008900000026c800238050005265b01e002000000e8
:205d200000000000000000000000000000000000000000000e000000000000000000000055
:165d400000000000000000000000071c7203e800000061410080ab
:205d5600000000000000000000090f400001100002cf00000200050003a590080034000078
:205d760000000000000000000000000000000000000000000080000000000000000000008d
:175d960000000000000000000000000100603c0000000400e0000075
:205dad000000000000000000038a1e02000000007000000000001817225b8000020000008b
:205dcd000000000000000000000000000000000000000000000000005af05000000000001c
:165ded0000000000000000000000098a7016a820001605400080e4
:205e030000000000000000000009056000000000028000000000058f0b65900000240000d7
:205e23000000000000000000000000000000000000000000000000000000f410000000005b
:175e43000000000000000000000000d809ae9403000002429000004e
:205e5a000000000000000000000800000000a14638fa0a000000b9e1a25b80000000018f56
:205e7a000400000000000000000000000000000000000000000020000000000000000000e4
:165e9a000000000000000000000000183040200000000041008089
:205eb00000000000000000000001900000000448040fd0d000000b1a02e590000040000066
:205ed000f0410000000000000000000000000000000000000000024000000000000000003f
:175ef00000000000000000000000001100a8000000000282b00000ae
:205f070000000000000000038000000000000e0e6f5eff0200000005265b8400000000af54
:205f2700040000000000000000000000000000000000000000000000000000000000000056
:165f470000000000000000000000000170002000000000400080f3
:205f5d000000000000000000000000000000000006560df00000000802e590000c00000040
:205f7d00f040000000000000000000000000000000000000000000000000000000000000d4
:175f9d0000000000000000000000000080a8000000000282900000b1
:205fb4000000000000000028080000000000003c024a5f0002808007225b0400000000002c
:205fd4000000000000000000000000000000000000000000000000000000000000000000ad
:165ff40000000000000000000000000030402000000c004100803a
:20600a0000000000000000010050000000000043623f0ff0000015000225904000400000f6
:20602a00000000000000000000000000000000000000000000000000000000000000000056
:17604a0000000000000000000000000000a4000000002002900000e9
:2060610000000000000000000801000000000c2001ebf70000001005a65b060000000000eb
:206081000000000000000000000000000000000000000000000000000000000000000000ff
:1660a10000000000000000000000018170402000002001c0008036
:2060b700000000000000000000708000000000034237cff00000000c0be590000000000012
:2060d7000000000000000000000000000000000000000000000000000000000000000000a9
:1760f70000000000000000000000000080ac00000001400090000095
:20610e00000000000000000001000000000000600568f702100000f3a65b05400000000061
:20612e0000000000000000000000000000000000000000000400000000000000000000004d
:16614e0000000000000000000000000e30402000002004410080b8
:2061640000000000000000000000000000000003424f0f300000011b03e5900000000000b4
:206184000000000000000000000000000000000000000000000000000000000000000000fb
:1761a40000000000000000000000000100a0000000014282c00000be
:2061bb0000000000000000030000000000000e947000000000000005265b00000000000029
:2061db000000000000000000000000000000000000000000000000000000000000000000a4
:1661fb0000000000004000000040000150002000002005c0008038
:2062110000000000000000000000000000000014c40000000000000002a59340000000001b
:2062310000000000000000000000000000000000000000000000000000000000000000004d
:1762510000000000003c000000000070d0ac00100000c242a000401a
:2062680000000000000000000b8000000000000028000000380001f3a65b02000400000030
:20628800000380000000000000000000000000000000000000000000000000000000000073
:1662a800000000020000000000000800580020000000016000807d
:2062be00000000000000000000b0000000000000024000000200070c0a659040000000007a
:2062de00000020000000000000000000000000000000000000000000000000000000000080
:1762fe00000000002c000000000000b000ac000000a00002f000006f
:20631500000000000000000003897642000000007000000000000005a65b000000000dc8d9
:20633500010000000102bc1400000000000000000000000000000000000000000000000074
:1663550000000000004000000000039c50402000000601c000805c
:20636b0000000000000000000000cda000000000000000000000030802259040000000cfd4
:20638b000000000000d043c10000000000000000000000000000000000000000000000001e
:1763ab00000000000024000000000000a0b80000002020029000008d
:2063c2000000000000000000000053900080003d615a80000000b9c3a65b00000000000063
:2063e20000004000000000000000000000000000000000000000000000000000000000005b
:1664020000000000000000000000001a10002000000061e0008079
:20641800000000000000000000000d4000000001d01ef00000018b8003a5904000000000b4
:20643800000000000000000000000000000000000000000000000000000000000000000044
:17645800000000000000000000000000002c000000c00402f000004b
:20646f000000000000000010200000000000001c0378800200000007a65b040001c00000f7
:20648f000000000000000000000000000000000000000000000000000000000000000000ed
:1664af00000000000700000000000000504020000c2001c10080b2
:2064c50000000000000000009500000000000000403d0000000000000be59000000600001f
:2064e50000000000000000000000000000000000000000000000080000000000000000008f
:1765050000000000000000000000001000a0000000014002c00000cc
:20651c0000000000000000000000000000000000685a8002c0050005a25b040001e000006f
:20653c0000000000000000000000000000000000000000000000000000000000000000003f
:16655c000000000000000000000000003000200000a000c00080f9
:2065720000000000000000000000000000000000040500008000030c0ae5900000020000f0
:206592000000000000000000000000000000000000000000000000000000000000000000e9
:1765b200000000000000000000000000002c000000114000f0000065
:2065c9000000000000000000001c00000000000033fd800000003805265b0400000780009d
:2065e900000000000000000000000000000000000000000000000000000000000000000092
:1666090000000000000000000000000050002000000005c00080c6
:20661f0000000000000000002801900000000000c39f9000000000000a6590000000400071
:20663f0000000000000000000000000000000000000000000000000000000000000000003b
:17665f0000000000000000000000000000a8000000000242800000b8
:206676000000000000000000000000000000000c30ce800010000097225b04020000000050
:206696000001000000000000000000000000000000000000000000000000000000000000e3
:1666b6000000000000068fa00000010010002000001669e0008089
:2066cc00000000000000000000000000000000000225c0000001010b02e590004000000003
:2066ec0000000000000000000000000000000000000000000000000000000000000000008e
:17670c00000000000002db500000000000ac000000000000f00000ad
