:02000000ff00ff
:080002004c6174746963650030
:17000a00694345637562653220323032302e31322e32373934330071
:15002100506172743a2069434534305550354b2d53473438002c
:1a003600446174653a20417072203420323032352030303a30393a323600b3
:0200500000ffaf
:040052007eaa997e6b
:02005600510057
:020058000105a0
:03005a00920020f1
:03005d006202b389
:03006000720150da
:0300630082000018
:02006600110087
:02006800010194
:20006a00000000000000000000000010000000000000400000000000010000000000000421
:20008a000000000000001000000000000040000000001000000000000040000000000001b5
:1600aa0000000000000004000000000000100000000000004000ec
:2000c0000000000000000000000000020000000000000800000000000020000000000000f6
:2000e00080000000000002000000000000080000000002000000000000080000000000006c
:1701000020000000000000800000000000020000000000000800003e
:200117000000000000000000000000000000000000000000000000000000000000000000c8
:200137000000000000000000000000000000000000000000000000000000000100000000a7
:160157000000000000000000000000000000000000000000000092
:20016d00000000000000000000000000000000000000000000000000000000000000000072
:20018d00000000000000000000000000000000000000000000000000000000000000000052
:1701ad0010000000000000000000000000000000000000000000002b
:2001c40000000000000000000000000000000000000000000000000000000000000000001b
:2001e4000000000000000000000000000000000000000000000000000000000000000000fb
:1602040000000000000000000000000000000000000000000000e4
:20021a000000000000000000000000000000000000000000000000000000000000000000c4
:20023a000000000000000000000000000000000000000000000000000000000000000000a4
:17025a0000000000000000000000000000000000000000000000008d
:2002710000000000000000000000000000000000000000000000000000000000000000006d
:20029100000000000000000000000d000000000000000000000000000000000000000c0034
:1602b1000000000000000000000000000000000000000000000037
:2002c700000000000000000000000000000000000000000000000000000000000000000017
:2002e7000000000000000000000000000000000000000000000000000000000000000000f7
:170307000000000000000000000000000000000000000000000000df
:20031e000000000000000000000000000000000000000000000000000000000000000000bf
:20033e000000000000401000000000000000000000401000000000010040000000000800b6
:16035e000000000000000000000000000000000000000000000089
:20037400000000000000000000000000000000000000000000000000000000000000000069
:20039400000000000000000000000000000000000000000000000000000000000000000049
:1703b400000000000000000000000000000000000000000000000032
:2003cb00000000000000000000000000000000000000000000000000000000000000000012
:2003eb00000000000000000000000000008000000000000000000000000000000000000072
:16040b0000000000000000000000000000000000000000000000db
:200421000000000000000000000000000000000000000000000000000000000000000000bb
:20044100000000000000000000000000000400000000000000000000000000000000000097
:1704610000000000000000000000000000000000000000000c000078
:20047800000000000000000000000000000000000000000000000000000000000000000064
:200498000000100000000000000000000000000000000000004000000000000000000000f4
:1604b8000000000000000000000000000000000000070000000027
:2004ce0000000000000000000000000000000000000000000000000000000000000000000e
:2004ee000000010000000000000000000000010000000000000400000000000000000000e8
:17050e000000000000000000000000000000000000000800000000ce
:200525000000000000000000000000000000000000000000000000000000000000000000b6
:20054500000000000040000000000000000000000040000000000001000000000000000015
:160565000000000000000000000000000000000000000000000080
:20057b00000000000000000000000000000000000000000000000000000000000000000060
:20059b00000000000000000000000000000000000040000000000000000000000000000000
:1705bb00000000000000040000000000000000000000000000000025
:2005d200000000000c302000000000000000000000000000000000000000000000000000ad
:2005f2000000000000000000000000000000000000000000000000000000000000000000e9
:1606120000000000000000000000000000000000000000000000d2
:200628000000000000c30000000000000000000000000000000000000000000000000000ef
:20064800000000000000000000000000000000000000000000000000000000000000000092
:1706680000000000000000000000000000000000000000000000007b
:20067f00000000000c302000000000000000000000000000000000000000000000000000ff
:20069f0000000000000000000000000000000000000000000000000000000000000000003b
:1606bf000000000000000000000000000000000000000000000025
:2006d5000000000000c3000000000000000000000000000000000000000000000000000042
:2006f5000000000000000000000000000000000000000000000000000000000000000000e5
:170715000000000000000000000000000000000000000000000000cd
:20072c00000000000c30200000000000000000000000000000000000000000000000000051
:20074c0000000000000000000000000000000000000000000000000000000000000000008d
:16076c000000000000000000000000000000000000000000000077
:200782000000000000c3000000000000000000000000000000000000000000000000000094
:2007a200000000000000000000000000000000000000000000000000000000000000000037
:1707c200000000000000000000000000000000000000000000000020
:2007d900000000000c302000000000000000000000000000000000000000000000000000a4
:2007f9000000000000000000000000000000000000000000000000000000000000000000e0
:1608190000000000000000000000000000000000000000000000c9
:20082f000000000000c30000000000000000000000000000000000000000000000000000e6
:20084f00000000000000000000000000000000000000000000000000000000000000000089
:17086f00000000000000000000000000000000000000000000000072
:20088600000000000c302000000000000000000000000000000000000000000000000000f6
:2008a600000000000000000000000000000000000000000000000000000000000000000032
:1608c600000000000000000000000000000000000000000000001c
:2008dc000000000000c3000000000000000000000000000000000000000000000000000039
:2008fc000000000000000000000000000000000000000000000000000000000000000000dc
:17091c000000000000000000000000000000000000000000000000c4
:20093300000000000c30200000000000000000000000000000000000000000000000000048
:20095300000000000000000000000000000000000000000000000000000000000000000084
:16097300000000000000000000000000000000000000000000006e
:200989000000000000c300000000000000000000000000000000000000000000000000008b
:2009a90000000000000000000000000000000000000000000000000000000000000000002e
:1709c900000000000000000000000000000000000000000000000017
:2009e000000000000c3020000000000000000000000000000000000000000000000000009b
:200a00000000000000000000000000000000000000000000000000000000000000000000d6
:160a200000000000000000000000000000000000000000000000c0
:200a36000000000000c30000000000000000000000000000000000000000000000000000dd
:200a5600000000000000000000000000000000000000000000000000000000000000000080
:170a7600000000000000000000000000000000000000000000000069
:200a8d00000000000c302000000000000000000000000000000000000000000000000000ed
:200aad00000000000000000000000000000000000000000000000000000000000000000029
:160acd000000000000000000000000000000000000000000000013
:200ae3000000000000c3000000000000000000000000000000000000000000000000000030
:200b03000000000000000000000000000000000000000000000000000000000000000000d2
:170b23000000000000000000000000000000000000000000000000bb
:200b3a00000000000c3020000000000000000000000000000000000000000000000000003f
:200b5a0000000000000000000000000000000000000000000000000000000000000000007b
:160b7a000000000000000000000000000000000000000000000065
:200b90000000000000c3000000000000000000000000000000000000000000000000000082
:200bb000000000000000000000000000000000000000000000000000000000000000000025
:170bd00000000000000000000000000000000000000000000000000e
:200be700000000000c30200000000000000000000000000000000000000000000000000092
:200c07000000000000000000000000000000000000000000000000000000000000000000cd
:160c270000000000000000000000000000000000000000000000b7
:200c3d000000000000c30000000000000000000000000000000000000000000000000000d4
:200c5d00000000000000000000000000000000000000000000000000000000000000000077
:170c7d00000000000000000000000000000000000000000000000060
:200c9400000000000c302000000000000000000000000000000000000000000000000000e4
:200cb400000000000000000000000000000000200000000000000000000000000000000000
:160cd400000000000000000000000000000000000000000000000a
:200cea000000000000c3000000000000000000000000000000000000000000000000000027
:200d0a000000000000000000000000000000000400000000000000000000000000000000c5
:170d2a000000000000000000000000000000000000000000000000b2
:200d4100000000000c30200000000000000000000000000000000000000000000000000036
:200d6100000000000000000000000000000000000000000000000000000000000000000072
:160d8100000000000000000000000000000000000000000000005c
:200d97000000000000c3000000000000000000000000000000000000000000000000000079
:200db70000000000000000000000000000000000000000000000000000000000000000001c
:170dd700000000000000000000000000000000000000000000000005
:200dee00000000000c30200000000000000000000000000000000000000000000000000089
:200e0e000000000000000000000000000000000000000000000000000000000000000000c4
:160e2e0000000000000000000000000000000000000000000000ae
:200e44000000000000c30000000000000000000000000000000000000000000000000000cb
:200e640000000000000000000000000000000000000000000000000000000000000000006e
:170e8400000000000000000000000000000000000000000000000057
:200e9b00000000000c302000000000000000000000000000000000000000000000000000db
:200ebb00000000000000000000000000000000000000000000000000000000000000000017
:160edb000000000000000000000000000000000000000000000001
:200ef1000000000000c300000000000000000000000000000000000000000000000000001e
:200f11000000000000000000000000000000000000000000000000000000000000000000c0
:170f31000000000000000000000000000000000000000000000000a9
:200f4800000000000c3020000000000000000000000000000000000000000000000000002d
:200f6800000000000000000000000000000000000000000000000000000000000000000069
:160f88000000000000000000000000000000000000000000000053
:200f9e000000000000c3000000000000000000000000000000000000000000000000000070
:200fbe00000000000000000000000000000000000000000000000000000000000000000013
:170fde000000000000000000000000000000000000000000000000fc
:200ff500000000000c30200000000000000000000000000000000000000000000000000080
:201015000000000000000000000000000000000000000000000000000000000000000000bb
:1610350000000000000000000000000000000000000000000000a5
:20104b000000000000c30000000000000000000000000000000000000000000000000000c2
:20106b00000000000000000000000000000000000000000000000000000000000000000065
:17108b00000000000000000000000800000000000000000000000046
:2010a200000000000c302000000000000000000000000000000000000000000000000000d2
:2010c20000000000000000000000000000000000000000000000000000000000000000000e
:1610e20000000000000000000000000000000000000000000000f8
:2010f8000000000000c3000000000000000000000000000000000000000000000000000015
:201118000000000000000000000000000000000000000000000000000000000000000000b7
:171138000000000000000000000000000000000000000000000000a0
:20114f00000000000c30200000000000000000000000000000000000000000000000000024
:20116f00000000000000000000000000000000000000000000000000000000000000000060
:16118f00000000000000000000000000000000000000000000004a
:2011a5000000000000c3000000000000000000000000000000000000000000000000000067
:2011c50000000000000000000000000000000000000000000000000000000000000000000a
:1711e5000000000000000000000000000000000000000000000000f3
:2011fc00000000000c30200000000000000000000000000004000000000000000000000073
:20121c000000000000000000000000000000000000000000000000000000000000000000b2
:16123c00000000000000000000000000000000008000000000001c
:201252000000000000c30000000000000000000000000000000000000000000000000000b9
:2012720000000000000000000000000000000000000000000000000000000000000000005c
:17129200000000000000000000000000000000000000000000000045
:2012a900000000000c302000000000000000000000000000000000000000000000000000c9
:2012c900000000000000000001000000000000000000000000000000000000000000000004
:1612e90000000000000000000000000000000000000000000000ef
:2012ff000000000000c300000000000000000000000000000000000000000000000000000c
:20131f0000000000000000000010000000000000000000000000000000000000000000009e
:17133f00000000000000000000000000000000000000000000000097
:20135600000000000c3020000000000000000000000000000000000000000000000000001b
:20137600000000000000000000000000000000000000000000000000000000000000000057
:161396000000000000000000000000000000000000000000000041
:2013ac000000000000c300000000000000000000000000000000000000000000000000005e
:2013cc00000000000000000000000000000000000000000000000000000000000000000001
:1713ec000000000000000000000000000000000000000000000000ea
:20140300000000000c3020000000000000000000000000000000000000000000000000006d
:201423000000000000000000000000000000000000000000000000000000000000000000a9
:161443000000000000000000000000000000000000000000000093
:201459000000000000c30000000000000000000000000000000000000000000000000000b0
:20147900000000000000000000000000000000000000000000000000000000000000000053
:1714990000000000000000000000000000000000000000000000003c
:2014b000000000000c302000000000000000000000000000000000000000000000000000c0
:2014d0000000000000000000000000000000000000000000000000000000000000000000fc
:1614f00000000000000000000000000000000000000000000000e6
:201506000000000000c3000000000000000000000000000000000000000000000000000002
:201526000000000000000000000000000000000000000000000000000000000000000000a5
:1715460000000000000000000000000000000000000000000000008e
:20155d00000000000c30200000000000000000000000000000000000000000000000000012
:20157d0000000000000000000000000000000000000000000000000000000000000000004e
:16159d000000000000000000000000000000000000000000000038
:2015b3000000000000c3000000000000000000000000000000000000000000000000000055
:2015d3000000000000000000000000000000000000000000000000000000000000000000f8
:1715f3000000000000000000000000000000000000000000000000e1
:20160a00000000000c30200000000000000000000000000000000000000000000000000064
:20162a000000000000000000000000000000000000000000000000000000000000000000a0
:16164a00000000000000000000000000000000000000000000008a
:201660000000000000c30000000000000000000000000000000000000000000000000000a7
:2016800000000000000000000000000000000000000000000000000000000000000000004a
:1716a000000000000000000000000000000000000000000000000033
:2016b700000000000c302000000000000000000000000000000000000000000000000000b7
:2016d700000380000000000000000000000000000000000000000000000000000000000070
:1616f7000000000000000000000000000000000e0000000af04095
:20170d000000000000c30000000000000000000000000000000000000000000000000000f9
:20172d0000002000000000000000000000000000000000000000000000000000000000007c
:17174d0000000000000000000000000000000000800000010f0100f4
:20176400000000000c30200000000000000000000000000000000000000000000000000009
:20178400000000000000000000000000000000000000000000000000000000000000000045
:1617a40000000000000000000000000000000000000060000000cf
:2017ba000000000000c300000000000000000000000000000000000000000000000000004c
:2017da000000000000000000000000000000000000000000000000000000000000000000ef
:1717fa000000000000000000000000000000000000000000000000d8
:20181100000000000c3020000000000000000000000000000000000000000000000000005b
:20183100000000000003bc18000000000000000000000000000000000000000000000000c0
:16185100000000000000000000000000000000000000000cf04045
:201867000000000000c300000000000000000000000000000000000000000000000000009e
:2018870000000000000043c00000000000000000000000000000200000000000000000001e
:1718a70000000000000000000000000000000000000000010f00001a
:2018be00000000000c302000000000000000000000000000000000000000000000000000ae
:2018de000000000000000000000000000000000000000000000000000000000038000000b2
:1618fe0000000000000000000000000000000000000004000000d0
:201914000000000000c30000000000000000000000000000000000000000000000000000f0
:20193400000000000000000000000000000000000000000000000000000000000000000093
:1719540000000000000000000000000000000000000003c0000000b9
:20196b00000000000c30200000000000000000000000000000000000000000000000000000
:20198b0000000000000000000000000000000000000000000000000000000000000000003c
:1619ab000000000000000000000000000000000000000000000026
:2019c1000000000000c3000000000000000000000000000000000000000000000000000043
:2019e1000000000000000000000000000000000000000000000000000000000000000000e6
:171a01000000000000000000000000000000000000000000000000ce
:201a1800000000000c30200000000000000000000000000000000000000000000000000052
:201a3800000000001a00000000000000000000000000000000000000000000000000000074
:161a58000000000000000000000000000000000000000000000078
:201a6e000000000000c3000000000000000000000000000000000000000000000000000095
:201a8e00000000000100000000000000000000000000000000000000000000000000000037
:171aae00000000000000000000000000000000000000000000000021
:201ac500000000000c302000000000000000000000000000000000000000000000000000a5
:201ae5000000040000000000000000000000000000000000000000000000000000000000dd
:161b050000000000000000000000000000000000100000000000ba
:201b1b000000000000c30000000000000000000000000000000000000000000000000000e7
:201b3b0000000000000000000000000000000000000000000000000000000000000000008a
:171b5b00000000000000000000000000000000000000000000000073
:201b7200000000000c30280000003e954000000000000000000000000000000000000000dc
:201b9200000000000000000000000000000000000000000000000000000000000000000033
:161bb2000000000000000000000000000000000004000000000019
:201bc8000000000000c3000000000fc1540100000000000000000000000000000000000015
:201be8000000000000000000000000000000000000000000000000000000000000000000dd
:171c08000000000000000000000000000000000000000000000000c5
:201c1f00000000000c30200000000000000000000000000000040000000000000000000045
:201c3f0000000000000000000000000000000000000000000e000000000000000000000077
:161c5f0000000000000000000380000000000000000000000000ec
:201c75000000000000c3100000000000000000080000000000000000000000000000000074
:201c95000000000000000000000000000000000000000000008000000000000000000000af
:171cb5000000000000000000002000000000000000000000000000f8
:201ccc00000000000c3220000000000000000000000000000000000000000000000000009a
:201cec000000000000000000000000000000000000000000000000000000000000000000d8
:161d0c0000000000000000000000000000000000000000000000c1
:201d22000000000000c30000000000000000000000000000000000000000000000000000de
:201d4200000000000000000000000000000000000000000000000000000000000000000081
:171d620000000000000000000000000000000000000000000000006a
:201d7900000000000c322000000000000000210000000000000000000000000000000000cb
:201d990000000000000000000000000000000000000000000000000000000000000000002a
:161db9000000000000000000000000000000000000000000000014
:201dcf000000000000c300000000b0000000100000000000000080000000000000000000f1
:201def000000000000000000000000000000000000000000000000000000000000000000d4
:171e0f000000000000000000000000000000000000000000000000bc
:201e2600000000000c3220000000000000000000000000000000000000000000000000003e
:201e460000000000000000000000000000000000000000000000000000000000000000007c
:161e66000000000000000000000000000000000000000000000066
:201e7c000000000000c300004000000000000000000000000004000000000000000000003f
:201e9c000000004000000000000000000000004000000000000100000000000004000000a1
:171ebc000000001000000000000040000000000009000000000000b6
:201ed300000000000c322000000a0000000000000000000000000000000000000000000087
:201ef30000000000000000000000000000000000000000000000000000a5400000000000ea
:161f130000000000000000000000000007bc1000000000000000e5
:201f29000000000000c30000000100000000000000000000000000000000000000000000d4
:201f49000000000000000000000000000000000000000000000000001c05a20000000000b5
:171f69000000000000000000000000000043c08000000000000000de
:201f8000000000000c30a000001c0000000000000000000000000000000000000000000049
:201fa000000000000000000000000000000000000000000000002000000000000000000001
:161fc000000000000000000000000000000000000000000000000b
:201fd6000000000000c3000000010000000000000000000000000000000000000000000027
:201ff600000000000000000000000000000000000000000000000340000000000000000088
:172016000000000000000000000000000000000000000000000000b3
:20202d00000000000c322004000000000000010000000000004000000000000000000000f0
:20204d0000000400000000000000000000000400000000000010000000000000400000001b
:16206d0000000100000000000004001e000000001000000000002a
:202083000000000000c300000000000000000000000000000000000000000000000000007a
:2020a30000000000000000000000000000000000000000000000000000000000000000001d
:1720c300000000000000000000000001000000000100000000000004
:2020da000100000fcc302800000000000000000000000000000000000000000000000000b2
:2020fa000000000000000000000000000000000000000000000000000000000000000000c6
:16211a000000000000000000000000010029500000000000000035
:2021300000100003f0c30000000000000000000000000000000000000000000000000000c9
:2021500000000000000000000000000000000000000000000000000000000000000000006f
:17217000000000000000000000000000d90168000000000000000016
:2021870000000000ec30238000000000000000000000000000040000000000000000000075
:2021a700000000000000000000000000000380000000000000000000000000000000000095
:1621c7000000000000000000038000000000000e0000000e0f4014
:2021dd008000000010c3102000000000000004080000000000000000000000000000000053
:2021fd000000000000000000000000000000200000000000000000000000000000000000a2
:17221d00000000000000000000200000000000000000000000f40096
:2022340000000001cc3220000000000000000000000000000000000000000000000000006b
:2022540000000000000000000000000000000000000000000000000000000000000000006a
:16227400000000000000000000000800000000000000000000004c
:20228a000000000010c3000000000000000000000000000000000000000000000000000061
:2022aa00000000000000000000000000000000000000000000000000000000000000000014
:1722ca000000000000000000000000100000000000000000000000ed
:2022e10001000000ec3220000000000000002000000000000000000000000000000000007e
:202301000000000000000000000000000000000000000000000000000000000400000000b8
:1623210000000000000000000000000000000000000000000000a6
:202337000000000010c30000000000000000100000000000004080000000000000000000e3
:20235700000000000000000000000000000000009000000000000000000000004000000096
:1723770000000000000000000000000000000000000000000000004f
:20238e00000000000c322000000000000000000000000000000000000000000000000000d1
:2023ae0000000000000000000000000000000000000000000000000000000000000000000f
:1623ce0000000000000000000000000000000000000000000000f9
:2023e4000000000000c3000000000000000000000000000000000000000000000000000016
:202404000000000000000000000000000000000000000000000000000000000000000000b8
:172424000000000000000000000000000000000000000000000000a1
:20243b00000002000c32200001000000000000000000000000000000000000000000000020
:20245b00000000000000000000000000000000000000000000000000000000000000000061
:16247b00000000000000000000000000000000000000000000004b
:202491000000004000c3000000000000000000000000000000000000000000000000000028
:2024b10000000000000000000000000000000000000000000000000000000000000000000b
:1724d1000000000000000000000000000000000000000000000000f4
:2024e800000002000c30a0000000073c124000000000000000000000000000000000000061
:20250800000000000000000000000000000000000006bc10200000000000000000000000c1
:1625280000000000000000000000000002bc1400000600000000c5
:20253e000000004000c3000000000003c100000000000000000000000000000000000000b6
:20255e0000000000000000000000000000000000000003c00000000000000000000000009a
:17257e000000000000000000000000000003c0010000000000000082
:2025950000000000ec302100000000000000000000000000000000000000000000000000e9
:2025b500000000000000000000000000000000000000000000000000000000000000000006
:1625d50000000000000000000000000000000004000000000000ec
:2025eb000000000010c30800000000000000000000000000000000000000000000000000f5
:20260b000000000000000000000000000000000000000000000000000000000000000000af
:17262b00000000000000000000000000000000000000000000000098
:2026420000400017ac322000000000000000a0000000000000000000000000000000000083
:20266200000000000000000000000000000000000000000000000000000000000000000058
:162682000000000000000000000000000000000000000000000042
:202698000010002270c30000000000000000000000000000000000000000000000000000bd
:2026b800000000000000000000000000000000000000000000000000000000000000000002
:1726d8000000000000000000000000000000000000000000000000eb
:2026ef00000000478c30200000000000000020000000000000000000000000000000000088
:20270f000000000000000000000000000000000000000000000014000000000030780038b6
:16272f003c0200c000000000000000000000000e0000000af0404e
:202745008000002430c30000000000000000040000000000000000000000000000000000d9
:202765000000000000000000000000000000000000000000000000200000000000008000b4
:1727850003c00000000000000000000000000000000000000f040067
:20279c0004000017ac30200000000000000000000000000000000000000000000000000006
:2027bc00000000000000000000000000000000000000168800040000000000000079e0689a
:1627dc003c00000000000000000000000000000080140000000017
:2027f2000020000030c30000000000000000000000000000000000000000000000000000b4
:20281200000000000000000000000000000000000007029400000000000000000000900079
:1728320003c0000000000000000000000000000004000000000000c8
:20284900010000478c3020000000000000000000000000000000000000000000000000004b
:202869000000000000000000000000000000000000fb020000000000000000000000e0284a
:162889003c000000000000000000000000000000000000000000fd
:20289f000000002430c3000000000000000000000000000000000000000000000000000002
:2028bf0000000000000000000000000000000000000f34000000000000000000000d100099
:1728df0003c0400000000000000000000000000000000000000000df
:2028f60000000017ac302000000000000000001c0000000000000000000000000000000093
:20291600000000000000000000000000000000000a3f0200000000000000000000000078de
:162936003c0400000000000000000000000000000000000000004b
:20294c000000000030c3000000000000000000002000000000000000000000000000000058
:20296c00000000000000000000000000000000009007bc00000004000000000000000004f0
:17298c0003c000000000000000000000000000000000000000000071
:2029a300000000078c3020000000000000000000040000000000000000000000000000002d
:2029c300000000000000000000000000000000011e00000000000000000000000000007065
:1629e3003c0400000000000000000000000000004000000000005e
:2029f9000000000030c3000000000000000000000240000000000000000000000000000089
:202a190000000000000000000000e0000000000009000000000000000000000000000b04a5
:172a390003c000000000000000000000000000000a000000000000b9
:202a500000000017ac302000100000000000002038cfd400800000000000000000000000c8
:202a7000000000000000000000000000000000070800000000000000180f00000038006078
:162a90003c020000000000000000000000000000000000000000f2
:202aa6000000000030c300000000000000000003c43cd170000000000000000000000000d9
:202ac6000000000000000000000000000000000009000000000000000000f0040000800073
:172ae60003c000000000000000000000000000000000000000000016
:202afd00000000018c302000000000000000000000000000000000000000000000000000dc
:202b1d000000000000000000000000000000000500f3e000100e0000000000000000056a33
:162b3d0080000000000000000000000000000004000000000000fe
:202b53000000000010c300000000000000000000000000000000000000000000000000008f
:202b73000000000000000000000000000000000000abb000000000000000000000000a0cd1
:172b93002808004000000000000000000000000000000000000000bb
:202baa00000000000c302000000000000000000000000000000000000000000000000000af
:202bca00000000000000000000000000000000070a3ba00000000405eab800000001a1842e
:162bea0002000400065fed80000000005603c020000030080f106d
:202c00000010000000c30000000000000000000000000000000000000000000000000000e1
:202c20000000000000000000000000000000000008b9e800010003c2248b800000001002e4
:172c4000800000003c2268d8000000b000003c800000040100f000fe
:202c5700000000000c302000004000000000000000000000000000000000000000000000c1
:202c7700000000100000000000000000000000000e0000000ea01600080f003803d8e72426
:162c97008700e00b600080f2000007800783c0004000000c0f10a7
:202cad000000000000c3000000000000000000000000000000000000000000000000000044
:202ccd000000000200000000000000000000000051000000008402400100f002003b9ff30e
:172ced00921a08010400100f0000000000003c010a00000000f000c1
:202d0400000000000c30200000000000000000000000000000000000000000000000000053
:202d2400000000000000000000000000000000030ad21400000020385d3f40000000012443
:162d440087410000000d90340000081a00000000000000000000be
:202d5a000000000000c3000000000000000000000000000000000000000000000000000096
:202d7a0000000000000000000000000000000000099bc000000803c434a25490000f0aba79
:172d9a00521400000003ef5b5100001000000000000000000000000e
:202db100000000000c302000000000000000000000000000000000000000000000000000a6
:202dd100000020000000000000000000000000000a9ea000800e16015a744000005807a4c4
:162df10087010000005df306000820000283c80000000000000079
:202e07000000000000c30000000000000000000000000000000000000000000000000000e8
:202e270000000100000000000000000000000000d19940000000e0025e8a4504000080fb52
:172e4700d21400400022fcb54100050000403c0000000000000000b9
:202e5e00000000000c302000000000000000000000000000000000000000000000000000f8
:202e7e00000000000000000000000000000000081c133000800000000000000000d0152543
:162e9e00ef800000023cc034100000003e3288000000001e0f0147
:202eb4000000000000c300000000000000000000000000000000000000000000000000003b
:202ed40000000000000000000000000000000000110d4308000004000000000000058ebb23
:172ef400bb5400000043df5b4000000007bf28000003c00000f0005a
:202f0b00000000000c3020000000000000000000000000000000000000000000000000004a
:202f2b00000000000000000000000000000028000afb38c0c0a004006b52410000000326d6
:162f4b005a00000142a6e0800028001e00000000400e0000000039
:202f61000000000000c300000000000000000000000000000000000000000000000000008d
:202f810000000000000000000000e0000000010000af830c81040000058e240000000002d3
:172fa100658000002643590010010001000000000a00200000000036
:202fb800000000000c3020000000000000000000000000000000000000000000000000009d
:202fd80000000000000000000000000000000007800683c0000000005b0341000079d326f8
:162ff8005a000002038dd0340000010d000000010000001c0f0099
:20300e000000000000c30000000000000000000000000000000000000000000000000000df
:20302e00000000000000000000000000000002000880403c0200024035a5b40000001e028a
:17304e00258000000c43ff5b41000008d00000000000000000f0888c
:20306500000000000c302000000000000000000000000000000000000000000000000000ef
:20308500000000000000000000a14000000000001883a00004000000000000100011e722e1
:1630a5005a04400407a7c8008000078897a2c8000e2000000000bf
:2030bb000000000000c3000000000000000000000000000000000000000000000000000032
:2030db000000000000000000000408000000000000e52d00000002400000000000058a0adc
:1730fb00a5800002a47f490000000009017d1c000000c000000000c8
:20311200000000000c3020000009000000000000021d020000000000000000000000000017
:203132000000000f815819b400000000000000001e00000000401c0459d8000000000322f4
:163152005a200002026fdb800010000007bc10000000781ef05066
:203168000000000000c300000001b00000000000000ca01000000000000000000000000017
:2031880000000000d0b0b59900000000000000000000000000020022258d800800070003f1
:1731a800258100003c3cddb8010200008003c100000000000f040003
:2031bf00000000000c302380000093295800011c00000000380100e3ffdc000000000000e9
:2031df0000038007881225b400000000000000099fff82000f00147c080f0000000003a64b
:1631ff005a8000200797f7d003800000033c100e0e00000000006d
:20321500000e000000c300200000ffa6850000082000000002000000727fc00000000000a3
:20323500000020000900be590000000000000000799364000090c2664100f0002040000b75
:1732550025800000002e4c7d002000000003c1408000000000000022
:20326c00000000000c302000a8000000000000003800000000000000000000000000000006
:20328c00000000000c7a25b4000000000000000018f7e00000008001eb7a600000800526e3
:1632ac005a0000000600c0f000000000033c1400000000000000a9
:2032c2000000000000c3000000d00000000000000400000000000000000000000000000055
:2032e2000000000001002e590000000000000000010f7400000003402e9b8410000f090305
:17330200e58040000000000f010000000043c10000000000000000fb
:20331900000000000c3020100800000000008114000000000000000000000000000000008b
:203339000000200f0e7a65b00000000000000000001b568000008606dc256000007805a6a7
:163359005a000001e020a5a000000000023c1400000c0000000060
:20336f000000000000c3000280d000000000040820000000000000000000000000000000fd
:20338f0000000100f1f0be594000000000000000000b26b400001403fea1d5100000000362
:1733af00a58040080200d0a500400000e043c100006000000000009f
:2033c600000000000c30202808005a695040000000000000000000d0000000000000000038
:2033e60000000000001a65b800000000000000000e9fa00000000005eb254000009807222d
:163406005a000001e02feb800000081e00000000000000000000b5
:20341c000000000000c3000001500376850000000000000000000d1b000000000000000056
:20343c000000000000e0ae594400000000000000f0092c00000000032ee1d4980009800b0e
:17345c00e58000002403c9b8000000119000000000000000000000ab
:20347300000000000c3020004001063c1000013402fa5a000280000000000000000000003d
:2034930000000050007225b00000000000000305010703c000008006ce2540401858072619
:1634b3005a000002f2a6d7d00028000f7f56d800400060000000e4
:2034c9000000000000c300000000a043c10100c8c004050000128f00000000000000000049
:2034e9000000000200002259400000000000000000d0403c040015423ea1d6002800080377
:17350900e5800000263e6c7d00010001dfee2d0402000000000000f7
:20352000000000000c302000000052695040002000ee520200008000000000000000000002
:2035400000000007801a65b000000000000000098077828000400401eb2560000050a526e3
:163560005a000000060feb8000000001073c18000000000000001f
:203576000000000000c300000000037685000002c0340a000000070b000000000000000062
:203596000000000000902a592400000000000000f0904028000000202ef1d40400050b0bc4
:1735b600a58020000043d8b800000000f043c10000000000000000f2
:2035cd00000000000c30212000010000000001400000000010007003328580000000000065
:2035ed00000100000e1265b0000000000000000d8a3b90008440142b7d8000010050a12212
:16360d005a0000404200000001030008033c1804000403faa4407f
:203623000000000000c300000000a000000000000000000000000080fb4810000000000051
:203643000000000091902a592400e0000000008050af80000000000245b000002005090398
:17366300a580000016680000000002110043c1000081e02c95e4840c
:20367a00000000000c302000070e00000000001c686dfd200000781133f8000000420000bb
:20369a0000000000015a65b410000000000000000007bc1000800002dc802000001887a27a
:1636ba005a0000000056f6f0000000007283e000000000180f0068
:2036d0000000000000c301000009f00000000000040de5a004000f0d367fc00000064000ac
:2036f0000000000000b03a591000000000000000000003c1400000000ca00018000090030c
:17371000658300000436489f0000000000003c080000000100f00064
:20372700000000000c302380018013e1500000360400000000010000000000000002878f8b
:2037470070038105811a65b40000000000038000000000000e00200158255a000200e52223
:163767005a0000000024e7d0000000007016a0000a142c1e0f007a
:20377d000000000000c30120000801b13d440001c380000000000d0000000000003466e939
:20379d00ff00200008f0ae59200000000000200000900000008002402e01d40000401f0af0
:1737bd002580000024334e7d00000000030294000003660000f1003b
:2037d400000000000c3220008f81000000000006007df520000000000000000000000000cf
:2037f400000000081e5225b000000000000000070002bc1000002e380c0f00000081c522aa
:163814005a2002014280e0f0000000195383e000448000180f00d5
:20382a000000000000c3000000d8b000000000002015efb00400000d00000000000000004e
:20384a0000000000f1f0ae590000000000000000900003c1400003e00000f000000b000301
:17386a00a58000001e02c00f0000005080c03c0002f4000000f00081
:20388100000000000c322000038013e15400011603dc0a0000020010717c000000000eca27
:2038a10000001008011265b0000800000000000000073c1000008000000000002881c5a2dc
:1638c1005a20004a0047e7b0200000005383e0000000001c0f004e
:2038d7000000000000c30000000809b13d040008203c00000000d00ed02bc00000000010fe
:2038f700a000000070e0a2594000000000000000000003c140001000000000000007000b60
:17391700a58000010c35f0b70000000000c03c00000002c100f000dc
:20392e00000000000c302000000a3aad10400020620e5f000400818df3dc00000007c588b8
:20394e0000200000015225b8000000000000000000000000008a062000000001000015a69d
:16396e005a00000207ccf6f000000d013a3c20000000001a0f0061
:203984000000000000c301000000093ae184000140150af0000007001a3fc00000002bf02c
:2039a4000000000200c03659000000000000000000000000000000068000000000000d031c
:1739c400658000000c236d9f00000050a0803c000000000100f0002f
:2039db00000000000c30200057005ac3d04001762878df020000581bbbdc880002028defe2
:2039fb0070000000007a25b000014000000000000002bc1040403c014e2560000000a7a601
:163a1b005a000002038ec6f00000001a323c20000000001e0f001d
:203a31000000000000c3010002089b303500000244260ff000028f0af83fc0000014007e18
:203a5100ff0000000000aa590000080000000000900003c1000202602ea1d61000000a03d1
:173a7100658000003c694f6f0000000000803c200000038100f100a5
:203a8800000000000c30280001009fabd0100006205c5a2201005800000000000006afef94
:203aa800700000079c5225b000000000000000400000000000001428ca2541400110a1a284
:163ac8005a000002e01ee0f00000598a7a3c20008020020e0f0145
:203ade000000000000c3000000000b256d04000027bc05800023000000000000001401f8cc
:203afe00ff00000008003a590000000000000202000000000000040036d1d4000005000b1b
:173b1e00e58040000e24200f00000210a0003c000002c02400f004c2
:203b3500000000000c302100000013e15840014e0400000000000000000000000166c0000d
:203b550000010007087225b0000080000001000000063c14040080014e25404000b001a257
:163b75005a00000142f5e7d000000800323c2000000638180f00f6
:203b8b000000000000c3010000500db13d040000024000000010000a000000000000280083
:203bab00000001080000aa590000140000000000f00043c1000010002fa1d480000b000a9d
:173bcb00658000000022ce7d0000005000003c000000200000f000f5
:203be200010000278c302040000000000000001e00000000000000000000000000001cd86d
:203c020000000008011a25b0000000000000000000000000004146036e2550000080832218
:163c22005a000000e007e7b0000000003a3c2000202001de0f8070
:203c3800001a000370c301050000000000000000000000000000000000000000000003ed26
:203c58000000000070f02a591000000000000000f0000000000201601681d508000f100370
:173c7800a58100008421df7b0000380000003c900403c00000f02035
:203c8f0000000681ac302380000800000000000064000000000080000000000000064000dd
:203caf0000039007001265b00000000000038000005717c00e4000077e2570040080012670
:163ccf005a000002e000d3c00000201c3a3c200e0e000048f0c822
:203ce5000000004010c301200001f00000000003c3c00000000009000000000000006400a7
:203d0500000020000800a25940000000000020000000017c0080040335a2e48000070003d2
:173d2500658000023e24183c0100000100803c048000c3c000f40031
:203d3c00000000018c3220000000000000000000055af500000000100000000000001d8a7d
:203d5c00000000071a1a65b0000000000000100900577dc000001c025a7468000050a126df
:163d7c005a000009e027d7b0802805983a3c2040000001e8f0c08c
:203d92000000000010c30040000000000000008003c20f500000000e000000000000241018
:203db200a000000009002e59400000000000000890f5fbfc800001401585850002009f0b71
:173dd200258000010203cd7b0001000100803c0000e0000200f480d3
:203de90001000681ac322000000000000000203e007ef702000080000000000000602ce86b
:203e0900002000079e7265b0000e0000000000001c000000000014040af0400004000726a0
:163e29005a00000063a697d000000000523c20000c8000c8f0e0e7
:203e3f000000004010c300400010000000000403c0070ff00000870000000000000203e0c7
:203e5f00000000000000a25900000000000000040000000000000063000f04040020000b9f
:173e7f00a5800000240158be0000000000803c200000000200f400fa
:203e9600000000000c3020000000000000000000027ca00200000005abd40000016695ef21
:203eb60050000000001a65b0000000000000002000000000000c00201af041000010172689
:163ed6005a800001e264df50100000017a3c20000000000996c040
:203eec004000000000c3004000000000000000000007040080000000043d400000142830fb
:203f0c00f500000000902a5900000000000000050000000000000000000f050000000f0263
:173f2c00258000003e764bfb100000009083c02000000380f69400cf
:203f4300000000000c3020000000000000000000680000000000580000000000014007b842
:203f630000000100001265b000000000000000551a00000000840001785b40000000a52248
:163f83005a0000a142f605a00028050a523c200000040068f0c04f
:203f99000000000000c30040000000000000000000000000000000000000000000002aeeed
:203fb9000000000000002259040000000000000210000000000000402da8b6100011000b60
:173fd900e5800000003840a500010000a003c0000000000200f48075
:203ff000000000000c303000100000000000000070000000000081a0000000000342decfb2
:20401000700000001c1a25b00000000000000050000703c010402000000000018090b722a1
:164030005a000001e20dc7b0201800001a3c2000002000e8f0c053
:204046004000000000c300000000000000000000000000000000050000000000001429dd38
:20406600ff0000000000365900008000000000020000403c000201400000000028078f0aa3
:17408600a5800000000170b7000100000083c0000000400000f4045a
:20409d0000000001ac3021000700fe7090400000716ea00000000009ba0084000206fec82c
:2040bd0000010050005265b0000000000001000580969d10140000697d3f41000080032243
:1640dd005a00002003a4d3c000000001323c200400002468f0c04a
:2040f3000000000010c30100000005679500000000010a000010000037800000001428ebdf
:20411300000002030000a2590008000000000000000369612000000014b1a400000d000a17
:17413300e58000003c69c8ff000004009083c0000001c74000f410c1
:20414a0000000034cc30200000000000000040000000000000009181383e00000142c0003a
:20416a0000000000017a25b2000000000000000500967fc0000000000000000038800d2321
:16418a00c0000003c040a0f0080000005a3c2200000004c8f0c888
:2041a00000100003c0c308000000000000000a0000000000000001000203c00000366000fb
:2041c00000000000f0f0b2591000000000000000000d3afc0400000000000000000b005042
:1741e00003c100400420400f000000000003c0100000020200f44046
:2041f7000006001d8c30200000000000000000000000000000007993816a00000802840a1a
:2042170050038000005a65b000000000000000019a0000000e001406005a0000028008019d
:16423700680000020000a0f0802800001a3c200e0e1c01e8f0c088
:20424d0000002c0020c31000000000000000000800000000000000083b6940100134434076
:20426d000000200000003e5900000000000000000900000000800002440a500420010050dc
:17428d00294000001c00100f00010030d003c02080e0000200f480bc
:2042a4000000001eec302000000000000000400000000000000000153c3e0000000024802d
:2042c400a02000030c7a25b00000000000004000180383c200002020000000000051a000eb
:1642e400000000000700a0f000000800523c2200000000e8f0c8d5
:2042fa000000040000c30800000000000000080000000000000000080f03c00000002c5077
:20431a00040000000000a25900000000000000000000403c800002c0000000000001800045
:17433a00000000003c02400f000000500003c0000004000000f400d4
:204351000300061eec30200120000000000080000000000000059807b83e0000014000006d
:20437100000000070e7265b200000000000050001882968401000603da25500002d810281f
:164391003c000001e007c7b0200008003a3c2000000001e8f0c81c
:2043a7000040004000c30802000000000000040000000000000001000e43c00000022c0065
:2043c700000000000900be59000000000000000001094294041000200ea1d48000050e0488
:1743e70003c00000000150b7000000d00003c0400000000000f480ad
:2043fe000000401eec3220000000000000000000000000000000d085f83e000000005d8a91
:20441e0000000000007a25b00000000000000000000000000000a000eb2548000000082807
:16443e003c4000004004a6f0000000007a3c200000262868aa6874
:204454000000000010c3000000000000000000000000000000000b1d0303c000000032d085
:20447400000000089000aa59200000000000000000000000000015403c91d4100007001050
:1744940003c020003629cd9f080000000003c020000040000aa48406
:2044ab000804001fac322010004000000000000000000000000010a5fc3e000000003680d3
:2044cb0010300000005265b000000000000000000100000000040603cc25400000000030bb
:1644eb003c000a00603fe400080020001a3c20000016000c0f0023
:204501000000002010c300000000000000000000000000000000098e0203c00000000350f8
:20452100000040000000be59200000000000000000800000000000000ea1d7880000000075
:1745410003c200401428dc4a000004100083c0000000200000f00095
:204558000003e79fec302000000000000000000000000000000000a3fc3e000000000000a1
:20457800000000000e7a25b01000000000000000008603c4000000380000000000000569c3
:16459800ec000403c29ea6f000000000723c20000080000c0f00bb
:2045ae0000003e6010c300800000000000000000000000000000050a0643c000001c0000c8
:2045ce00000000000100a659000000000000000000fb403c0400000000000000000000361c
:1745ee009ec200001e00cf9f010038300003c00008c0000000f000e6
:2046050000004241cc302000000000000000000000000000000051eb056a0000000000004b
:204625000001000000da3c1000000000000000070000000004000003ca254002800001018d
:1646450068000003e717c7d0000001807a3c2004000478080f0071
:20465b000004043810c301000000000000000080000000000000050aba6940000000000039
:20467b000000000000ef803d010000000000000000000000000000000fa1d41010000000ce
:17469b00168040002f01ca7d000000180003c0000000200100f000cf
:2046b200000000000c30201020000000000000000561668000008007383e000000003c8552
:2046d2000c000000000000000000000000000001995816a0000e007cc00080000000102911
:1646f200688000000007d500080000007a3c22000000000000000e
:204708000010000000c308008500b000000000000300d660000001080a03c100000002402f
:2047280005420000000000000000000000000000108b32940000000202d0000000000ff0f6
:17474800294000003c00fca1014000000083c01000e003c0000000e1
:20475f00000000000c30200000080203c000001e0148968038000001383e00e005403c85ff
:20477f000c000000000000000000000000000009995816a00e008005c850c00000000138ba
:16479f003c80000007acee7020200800723c22000020001e0f00d2
:2047b5000000000000c30940000003403c4000000002d960020000000b03c0080080244022
:2047d500054000020000000000000000000000001083a29400800403a40054000000000c29
:1747f50003c000000003e0d7000100900083c0000000400000f080ac
:20480c00100800000c3020000000000000000020714996800000000023c104000006748541
:20482c000c0000000000000000000000000000000e3b83e000000060e812c000008000001a
:16484c00000000000600a030380000003a3c20000000601a0f0029
:204862000101400000c300000000000000000002c602f96080000000003c100000002260c0
:20488200054000000000000000000000000000000100e43c000000003e984400000f000087
:1748a20000000000002c1003000008000003c0000000002c00f004d5
:2048b900000000000c302000000080168021002e21689680008000000000000000607485a6
:2048d9000c000000000000000000000000000000081383e0000006054850c000020003f1dc
:1648f900408000026014f40000002000323c20000c06020a5a2039
:20490f000006000000c3000018000902940000034002c9600000000000000000000020601a
:20492f00054000000000000000000000000000009100643c0000000226005400005000081e
:17494f00140040002c01ea85000004000003c000000140150a5000ea
:20496600040000000c302000018000000000001e79499681000018000000000000003e857e
:204986000c00000000000000000000000000000d88b056a00000003de850c0000000000095
:1649a60000000003e3ecc7e000000801023c20000040061a0f208c
:2049bc000020000000c300000000000000000000c000e960000000000000000000000240ad
:2049dc00054000000000000000000000000002001193a294000000037c00540000000000c7
:1749fc00000000003c21e8db080000f0a037c0000800020400f000f7
:204a13000a0000000c3020000000000000000000716996810005000000000000e00036858c
:204a33000c00000000000000000000000000000f0877c3e0000000396850c0000000000075
:164a5300000000004216e40000000d803a3c20000000061a5a0173
:204a69000000000000c30000000000000000000007c0f9600000000000000000000000400a
:204a8900054000000000000000000000000000005990203c000000002400540000070f00f5
:174aa900000000003e41cf85000000500003c00000a002140a500000
:204ac000040800000c302100000000000000000000e89681000050100000000002603685f1
:204ae0000c0000000000000000000000000000011b3fc3e0004006696850c0000000800005
:164b0000000000014015c5001010001b723c20000000021a0f0050
:204b16000021400000c3000000000000000000000002c9600000050f0000000000040260b6
:204b36000540000000000000000000000000000008a0643c000200003e005400000010002e
:174b56000000000014242050000200009083c0000000002c00f0109f
:204b6d00000000000c302000000000000000001c3c499681100000000000004002063e85f9
:204b8d000c000000000000000000000000000005813ac3e0040060006850c00000000000bd
:164bad0000000001675ec080300028019a3e8010001c00080f00f8
:204bc3000000000000c300000000000000000000234289600000000000000000000400605d
:204be3000540000000000000000000000000000000a0e43c000008402600560000000000e9
:174c030000000000007c300800000470a703e80000c0000100f080af
:204c1a0000e000000c302000019850002000000001699680000000003bc1000000601c85b8
:204c3a000c000000000000000000000000000008185016a000000063c850c0000050833cde
:164c5a001d0000000014d400000000001f7dc800062060eb010069
:204c70000000000000c3000000090080000800000000d96040000000003c102000003a4071
:204c9000054c000000000000000000000000000010f32294100000042c005440000098d2bc
:174cb00043d400060000cc85000000000f73cc0400044006a0b18012
:204cc700000000000c30200008011a3c200000000548968038000000000000e000000485ee
:204ce70004800800000000000000000000000009995383e00e000001c850c03800009f28e3
:164d070009400001c000cf302000010007828800401601fd0800ff
:204d1d000000000000c300000030e0003c0400000342d9600200000000000008000000607b
:204d3d000a40010000000000000000000000000070b0303c008000002400540200001997d5
:174d5d0040100000022010f3000000d00b401401020042cca00000ea
:204d7400140000000c30200008015a3c200000207148968000000000000000000000000001
:204d94000000000000000000000000000000000f003b83e0000000674850c0300000a16062
:164db4001500000242afef500000080072814080002002e840029b
:204dca0001a0000000c300000090c0803c040002c602e960000000000000000080000000c2
:204dea00000000000000000000000000000000007000743c000000022e005403000010747e
:174e0a0003d2000006027ef7010000f00b80240000e143ed0000008e
:204e2100000000000c30200800011a3c2000002e216896800000000033c1000000000000d5
:204e4100000000000000000000000000000000001c3b83e0000006054850c00400780bb9f4
:164e610041000001400cf50000000500de294004001e781a5f0059
:204e77000000000000c300010000c0803c0000034002c96000000000043c320000000000fb
:204e970000000000000000000000000000000000f100e43c00000002260054004000809816
:174eb700295200002400da4209000008bd0140000002641d0af0009d
:204ece00040000000c3020000100523c2000001c79489681000000007bc10000080000007d
:204eee000000000000000000000000000000000981f856a000000003e850c0000051a1f946
:164f0e0041800003605ec4000100210bb3a94081004e3b58f50027
:204f24000020000000c30000400000003c000000e000e9600004000d003c12001000000076
:204f44000000004000000000000000000000004050832694000104002c00540004000c7c2f
:174f6400169000181428ca85000040188b03dc00010022c60500003d
:204f7b00000000000c30200000007225a040000001689681000000000000000000000000c3
:204f9b000000280000000000000000000000280f9b5fc3e0000000016850c00000800f7181
:164fbb004180400406dff20000000d1ab7bec0800c0638cef5001b
:204fd1000000000000c30000000000a25800000003c0c96000028000000000000000000095
:204ff1000000000000000000000000000000010058e0a03c00000003a400540000030d90f0
:175011002950000ca420d83400000050e303e804000346c20f5000a7
:20502800000800000c302000000c3225a040001c00c89681000000003bc10000020001efd8
:20504800040000000000000000000000000000059b5fc3e0000226036850c00000d1c1a1cc
:1650680001800001e60cf4200020050b1b480000001402cef7023a
:20507e000001400000c300000000003e580000002000c9600000070e043c30200004000086
:20509e00f048000000000000000000000000000000a0603c800000402e005400000b007eb3
:1750be00401000003c00cda000000050f3780000040360360ff00487
:2050d500000000000c30200400007225a80000000068968112448000000000410000000086
:2050f5000000240000000000000000000000040d819056a005102061e850c01040000db0c4
:16511500010400166275af702000038bfb94000050140078e00278
:20512b000000000000c30000000000a6580000000002c96000000b0000000000001c000051
:20514b000000001000000000000000000000000010aba694001000402600540000000a94d7
:17516b00281000008469e0ff00000000af000000020020350a000019
:2051820000000000000000000000723c2800000003e8f0004000000000000000000000001c
:2051a20000000000000000000000000000000059813016a000200003c850c00000019000a1
:1651c2000000000346259f70000000007059b0002020686ef700d4
:2051d8004000000000000000000000003c100000003400f1500000080000000000000000ae
:2051f800000000000000000000000000000000021083a294100400002c00544000000900ef
:17521800000000002403eeff00000000003199800400c29fcff000fd
:20522f000000000000000000000000002000000001dca602380031e0000000e0000001cfc1
:20524f0004800000000000000006000000000000007383e00e000601c850c0380000032097
:16526f001400e001401daf722ba000003265b00000046aea8000cc
:2052850000000000000000000000003c00000003c00d065006000000000000080000000099
:2052a500f04000000000000000001400000000000000a03c008003402c0054020000090477
:1752c50001400900000050ff00210070f0ae590000000006a000000b
:2052dc0000000000000000000999780020000400620e5a001000b8d32e540000000000008d
:2052fc0000000000000000000000000000000000183383e000000003c8504030000007b1a1
:16531c00490ac002600de524210000017a25b0000014005d080006
:2053320000000000000000000099900000000000003d0a500500058b5ba680400000000045
:20535200000000000000000000000000000000380000643c0000a0002e0054010000000838
:17537200149004002628305241200000e0b259040003403fe00000fa
:205389000000000000000000000000402000000078ea5a000000f8000000000000000000f0
:2053a9000000000000000000010000000000000000023c000000000000000000000009f0ac
:1653c900144000200284b400000180001a25b800000066484002b8
:2053df0000000000000000000000003c00000000040105a010000700000000000080000031
:2053ff000000028000000000000000000000000000b003c000000002c0000000000000b81f
:17541f0003c0000600264b4a00000070f0ae5900000002bd000000cc
:205436000000000000000000000050002000002463dc8402000001e1a94900000000000029
:205456000000000000000000000000000000000f8e000000000001700000000000581fb001
:1654760001080008428000000010000c5a25b044001c0218e002a6
:20548c0000000000000000000000000000000000640d0de004040000f6d698001000000026
:2054ac000000000000000000000000000000004050000000000140040000000004050e787c
:1754cc000210101124700000000040b0c0325900010340340d001032
:2054e30000000000000000000000500020000020200000000000000f6c0900000000000075
:205503000000000000000000000000000000000000faa800000000027d064004200080007d
:16552300000004040035ce30000403007a25b04000062ffe8000ee
:205539000000000000000000000000000000000246c00000000280001a401800009c0000ba
:2055590000000000000000000000000000000000000d4000000000023580348003050e0064
:17557900000000a0002bdcfb0000003000ae59000001e63ec000005d
:205590000000000000000000800050002000002604de5a01000004e1ac090000000000000e
:2055b000000000000000000000000000000001059f0000000000660400000000007987b418
:1655d00009020001e000a030200100003265b000a014285a8002e9
:2055e60000000000000000000110808000000000620305a000000010f7c0101000000000a3
:205606000000000000000000000000000000000000a000000000004200000000000080fb27
:17562600c0100000023810030000003000a25902000026ff000010ee
:20563d0000000000000000000000500020000000646c9502104071ef6c0900418000000090
:20565d00000000000000000000000000000004010000000004180000000000114211e3b80d
:16567d00410241c5665ec400010400097a65b04112942a1cf70283
:2056930000000000000000000010808000000002c62c09a0040000101a801010000000007c
:2056b3000000000000000000000000000000000000000000000000000000000000009e3aff
:1756d3004010000082216fa400000001f0b25900001426cc0fb000f9
:2056ea000008000000000000000070002000000001ce0f800000000d6691000000000000a6
:20570a000000000000000000000000000000000180000000000056034ef54000001987671b
:16572a0094000015628eee70000021003a65b000000000ce0a002a
:2057400000014000000000000000000000100000000100f020000000532012000000000062
:205760000000000000000000000000000000000000000000000000023e9f14040009807e2b
:1757800077c00000346feefa00002800f02a5914000002c300a0102c
:205797000000000000000000000000002000000001dc0f8038007009efbd00e0000000af7a
:2057b70004800000000000000000000000038008003ee9100e002000df0f10380000807038
:1657d7000c0a0202001c8500038000001265b00e00000000000049
:2057ed0000000000000000000000003c00000000000000f00200000b1bab720800002410ef
:20580d00f04000000000000000000000000020001001ad790080004004b0e00200001f007f
:17582d0000c000402c2830501820000000be5900800802c0000000f7
:2058440014e00000000000000001780020000000654c0f80000051800000000000062ec8aa
:20586400040000000000000000000000000000001833a8000c200004000000300018a00015
:16588400000000006705df70010001003a25b2000000055e50404d
:20589a0001300000000000000000d00000000000020200f000000d80000000000034026dc9
:2058ba00c24800000000000000000000000000000000828000c4600380000001008080001a
:1758da000000000002406dff00a00008003259000040020e0f54180b
:2058f10000000000000000000000004020000026255a0f80000038adefbd0000000006fa72
:2059110004000000000000000000000000000005019ab4d0a0000004f8a008020000017592
:1659310000020001f0578052000001003265b000000c00000000f0
:2059470000000000000000000000003c00000003460300f000010d101bab7000000000fd77
:20596700604000000000000000000000000000000087430d0400e002820a000000000096a1
:1759870056003000003c00050000000800be59200000000000000003
:20599e0004080000000000000000023c0040002439ec0f8000000000000000000040000047
:2059be00000000000000000000000000000000001e3f2800000000616cf00000101099339b
:1659de004c0800006724c7f0300007001225b04001002800000096
:2059f400002140000000000000000003c0000001e40100f0000000000000000000022c006b
:205a14000000000000000000000000000000000010004280000002c40f0fa00000000ef41a
:175a340036c20000024240ff080018b0e0325902000044000000005f
:205a4b0000000000000000000001000000000000016c0f80000080002bc1020000020000ce
:205a6b00000000000000000000000000000000019dfbb014000000041cc0020000000528af
:165a8b00d10a00014715f100101001087225b0000006627aa55095
:205aa10000000000000000000000800000000003c3c000f000000d00043c30000000000072
:205ac1000000000000000000000000000000000001a3fb6900000002010c008000010f34ea
:175ae1000f100000002acda10102800900be59040000000e0af40044
:205af800000000000000000000008283c0000026017a0f800000000de6910000000280afe4
:205b1800040000000000000000000000000001001e002950000000705aa5000000108120b1
:165b38001d020000637da080202800083225b000000000000000e1
:205b4e00000000000000000000108b403c00000043c200f000000000532012000000400066
:205b6e00f0c80000000000000000000000000000b0030169200001440d00a00000008df6ad
:175b8e00c3d000001636700000000001e02a5900000002c00000008b
:205ba5000000000000000000000000000000002061fc0f801000800d6fbd024000000000c9
:205bc500000000000000000000000000000120001c00000004000628000000100304ad2865
:165be50001020000601ca400210000007265b805a000025af05096
:205bfb0000000000000000000010800000000000400300f000000d0013ab7000000000008c
:205c1b0000000000000000000000000000000100110000000000002000000000003500768c
:175c3b00421000000000500000028000c0b659000000402e0fa4003e
:205c52000000000000000003000000000000000001de0f80000001c5e7c2000000003dcb4a
:205c7200f40000000000000000000000000000000000000000000060e90a40000019e5f697
:165c920094000000603c0e70000007801225b010000004000000cc
:205ca80000000000000000000000000000000000000000f0400000100283c000000003ce86
:205cc800a7c0000000000000000000000000000000000000000000041fe02404000990deb3
:175ce800d6c00000063bceff000010000032591100600340000000b2
:205cff00000000000000000000010000000000006ddc0f80000078e523c200e00200000088
:205d1f0000000000000000000000000000000000000000000e0000246e004000000003e899
:165d3f00f00000e3c286a500039000003a25b04e0000000000009e
:205d550000000000000000000000d00000000000034100f0000000800803c008003c00009b
:205d7500000000000000000000000000000000000000000000800007660a04040009001ee8
:175d95006f000000047b68420120000000ae590080c34000000000b4
:205dac0000c000000000000303980000000000202068f080400071a123c2000000002eca32
:205dcc00040000000000000000000000000000000000000004000638000000000010a1219f
:165dec007c000000670eba70010017807225b00000147eeed14016
:205e020000000000000000000008000000000002c0020f00000000000803c000000003ce09
:205e2200904800000000000000000000000000000000000000c000200000000000000004a4
:175e420017c0000000385bf700200000902a592000002777ba141019
:205e59000000000000000000019c5683c00000002168fa800000f807a3c20000000000008c
:205e7900000000000000000000000000000000000000000000001e216e00400000019be898
:165e990000080000670eef70000000003a25b2000000706a5031ab
:205eaf000000000000000000000000c03c000001c41600a000000b800803c0000000000006
:205ecf00000000000000000000000000000000000000000000000024240a0404008018bc05
:175eef0020000000003bdcff0000000000be5900000400000500083e
:205f060004000000000000000500bba10080008001e8f08000000001a3c200000340000014
:205f2600000000000000000000000000000000000000000000001c025e5040000054abbb95
:165f460094000001603fa0500000080c7265b000a10003cb854151
:205f5c00002000000000000000000d037880001000020f00080000000803c000001e0000eb
:205f7c00000000000000000000000000000000000000000000000022b705a4040000001669
:175f9c0037c0000000007909010280b0d03259200000000fb8b4004c
:205fb300000000000000000007805696800000800148f0800000800523c2020000400000f6
:205fd300000000000000000000000000000028500000000000000069ee4040000019d0284e
:165ff3000c080003c034a080200020003265b0000020745ca00056
:206009000000000000000000000800016800000003c20f02000007000003c0000000000066
:2060290000000000000000000000000000000102000000000000000026c814040000480006
:1760490000c0000016006000000005b0c0be59200a0046020a000002
:20606000000000000000000000003b21008000260168f0800100800723c2000001e04000b7
:206080000000000000000000000000000000010000000000000014686805400000000b309b
:1660a0000008000142a1e4f02000000e3265b000000007fef3427b
:2060b6008000000000000000005005037880000040000f00102807000003c000003638003b
:2060d6000000000000000000000000000000000000000000000400001700f4040000087817
:1760f600020000001429c08f000200b0d0b259020000022d0fb40480
:20610d00000000000000000000181f96800000000468f080000001a3a3c20040020206df17
:20612d0030000000000000000000000000000000000000000400176acff740000058a8781f
:16614d0008080a00e6bfa500010000007265b044400004000000c8
:206163000000000000000000000000c168040003c2420f00080000000003c000001c03ce21
:206183000300000000000000000000000000000000000000000001425fdf5500000000b46f
:1761a300004000000e22400000000000d0be59000201c38000000008
:2061ba000000000000000000000000000000000000c8f080000001d1a3c200000000000056
:2061da00000000000000000000000000000000200052d410000000626c08400000500000e9
:1661fa00000000e1c727c004000027801225b80000000000000066
:206210000000000000000000000000000000000000020f004000001a0003c100000000003f
:206230000000000000000000000000000000000000b9a4492000000417e0a41000000000d9
:17625000000000001e43e802410004d00032591000600000000000dc
:206267000000000000000000000000000000000001e8f0800000180527500000000000002a
:2062870000000000000000000000000000038000001628001e0000634e104038800011f856
:1662a7009024e0800716e100038100003a65b00e0000037ef2601b
:2062bd000000000000000000000000000000000000000f00000000007b8ac00000000000ed
:2062dd000000000000000000000000000000200000b0c2800080000424d184821000097e79
:1762fd00c7000800004248a11020000000be59048000001cbf0404e2
:20631400000000000000000000000000000000000148f080000081a000000000000000008f
:20633400000000000000000000000000000000080037019004202622ec054034000005f3b0
:16635400c808c001c0000000010007807225b000014004000000ce
:20636a000000000000000000000000000000000040000f00000003000000000000000000c1
:20638a000000000000000000000000000000000010ff340d02c00267f7e0148140000e04ba
:1763aa003c8004008200000000200000002a5904000003c000000030
:2063c100000000000000000000000000000000000008f000000000000000000000000000c4
:2063e100000000000000000000000000000000000000000000000665da4040000080aff6b2
:16640100d40000004216e100000000003265b0000014000000001d
:206417000000000000000000000000000000000000000f0000000000000000000000000056
:20643700000000000000000000000000000000000000000000000027adb8148000010f52c3
:17645700efc00000000278a11040000000be590200000000000000fb
:20646e000000000000000000000000000000000060000000000000000000000000000000ae
:20648e00000000000000000000000000000000838100000000200c24da40400000000078c8
:1664ae000c0800000040000000000000023c10400000000af041bb
:2064c4000000000000000000000000000000000004000000000000000000000000000000b4
:2064e40000000000000000000000000000000000088000000004006283e4041000000f0020
:1765040000c00000003c000000000030d003c106000000010f0400a6
:20651b00000000000000000000000000000000000000000000000007a210000000000000a7
:20653b0000000000000000000000000000000007000000000000203bdce3400002808000dd
:16655b0000000020c015f50210000001000000000000000000002d
:2065710000000000000000000000000000000000000000000000000096b78000000000003d
:206591000000000000000000000000000000000000000000000000c424af341000170000f8
:1765b1000000000a00024e8108000000c00000000000000000000030
:2065c8000000000000000000000000000000000000000000000000000000000000000000b3
:2065e800000000000000000000000000000000000e000000000156025ee740000018097016
:1666080009000000660000000040000000000000000000000000cd
:20661e0000000000000000000000000000000000000000000000010000000000000000005b
:20663e0000000000000000000000000000000000000000000000000036def480000108d7d4
:17665e008290000004000000000600b0000000000040000000000019
:2066750000000000000000000000000000000006000000000000900000000000000000006f
:20669500000000000000000000000000000100000000000004003e01ec5f00500011a76ce2
:1666b50091004a02661ea2400100000010295804001600000000e0
:2066cb0000000000000000000000000000000000200000000000030000000000000000008c
:2066eb000000000000000000000000000000000000000000000001600c005000000900f7d2
:17670b00441000001c01e91401000004c00295010001c000000000eb
