:02000000ff00ff
:080002004c6174746963650030
:17000a00694345637562653220323032302e31322e32373934330071
:15002100506172743a2069434534305550354b2d53473438002c
:1b003600446174653a204a756c20323420323032352032333a33373a30390071
:0200510000ffae
:040053007eaa997e6a
:02005700510056
:0200590001059f
:03005b00920020f0
:03005e006202b388
:03006100720150d9
:0300640082000017
:02006700110086
:02006900010193
:20006b00000000000000000000000010000000000000400000000000010000000000000420
:20008b000000000000001000000000000040000000001000000000000040000000000001b4
:1600ab0000000000000004000000000000100000000000004000eb
:2000c1000000000000000000000000020000000000000800000000000020000000000000f5
:2000e10080000000000002000000000000080000000002000000000000080000000000006b
:1701010020000000000000800000000000020000000000000800003d
:200118000000000000000000000000000000000000000000000000000000000000000000c7
:200138000000000000000000000000000000000000000000000000000000000100000000a6
:160158000000000000000000000000000000000000000000000091
:20016e00000000000000000000000000000000000000000000000000000000000000000071
:20018e00000000000000000000000000000000000000000000000000000000000000000051
:1701ae0010000000000000000000000000000000000000000000002a
:2001c50000000000000000000000000000000000000000000000000000000000000000001a
:2001e5000000000000000000000000000000000000000000000000000000000000000000fa
:1602050000000000000000000000000000000000000000000000e3
:20021b000000000000000000000000000000000000000000000000000000000000000000c3
:20023b000000000000000000000000000000000000000000000000000000000000000000a3
:17025b0000000000000000000000000000000000000000000000008c
:2002720000000000000000000000000000000000000000000000000000000000000000006c
:20029200000000000000000000000000000000000000000000000000000000000000040048
:1602b2000000000000000000000000000000000000000000000036
:2002c800000000000000000000000000000000000000000000000000000000000000000016
:2002e8000000000000000000000000000000000000000000000000000000000020000000d6
:170308000000000000000000000000000000000000000000000000de
:20031f000000000000000000000000000000000000000000000000000000000000000000be
:20033f000000000000401000000000000000000000401000000000010040000000000800b5
:16035f000000000000000000000000000000000000078000000001
:20037500000000000000000000000000000000000000000000000000000000000000000068
:20039500000000000000000000000000000000000000000000000000000000000000000048
:1703b500000000000000000000000000000000000000080000000029
:2003cc00000000000000000000000000000000000000000000000000000000000000000011
:2003ec000000000000000000000000000000000000000000004000000000000000000000b1
:16040c00000000000000000000000000000000000000000040009a
:200422000000000000000000000000000000000000000000000000000000000000000000ba
:2004420000000000000000000000000000000000000000000000000000000000000000009a
:1704620000000000000000000000000000000000000000000c000077
:20047900000000000000000000000000000000000000000000000000000000000000000063
:20049900000000000000000000000000000000000000000000000000000000000000000043
:1604b900000000000000000000000000000000000000000000002d
:2004cf0000000000000000000000000000000000000000000000000000000000000000000d
:2004ef000000010000000000000000000000010000000000000400000000000000000000e7
:17050f000000000000000000000000000000000000000000000000d5
:200526000000000000000000000000000000000000000000000000000000000000000000b5
:20054600000000000440000000000000000000000040000000000001000000000000000010
:16056600000000000000000000000000000000000000000000007f
:20057c0000000000000000000000000000000000000000000000000000000000000000005f
:20059c0000000000000000000000000000000000001000000000000000000000000000002f
:1705bc00000000000000000000000000000000000000000000000028
:2005d300000000000c302000000000000000000000000000000000000000000000000000ac
:2005f3000000100000000000000000000000000000000000000000000000000000000000d8
:1606130000000000000000000000000000000000000000000000d1
:200629000000000000c30000000000000000000000000000000000000000000000000000ee
:20064900000000800000000000000000000000000000000000000000000000000800000009
:1706690000000000000000000000000000000000000000000000007a
:20068000000000000c302000000000000000000000000000000000000000000000000000fe
:2006a00000000000000000000000000000000000000000000000000000000000000000003a
:1606c0000000000000000000000000000000000000000000000024
:2006d6000000000000c3000000000000000000000000000000000000000000000000000041
:2006f6000000000000000000000000000000000000000000000000000000000000000000e4
:170716000000000000000000000000000000000000000000000000cc
:20072d00000000000c30200000000000000000000000000000000000000000000000000050
:20074d0000000000000000000000000000000000000000000000000000000000000000008c
:16076d000000000000000000000000000000000000000000000076
:200783000000000000c3000000000000000000000000000000000000000000000000000093
:2007a300000000000000000000000000000000000000000000000000000000000000000036
:1707c30000000000000000000000000000000000000000000000001f
:2007da00000000000c302000000000000000000000000000000000000000000000000000a3
:2007fa000000000000000000000000000000000000000000000000000000000000000000df
:16081a0000000000000000000000000000000000000000000000c8
:200830000000000000c30000000000000000000000000000000000000000000000000000e5
:20085000000000000000000000000000000000000000000000000000000000000000000088
:17087000000000000000000000000000000000000000000000000071
:20088700000000000c302000000000000000000000000000000000000000000000000000f5
:2008a700000000000000000000000000000000000000000000000000000000000000000031
:1608c700000000000000000000000000000000000000000000001b
:2008dd000000000000c3000000000000000000000000000000000000000000000000000038
:2008fd000000000000000000000000000000000000000000000000000000000000000000db
:17091d000000000000000000000000000000000000000000000000c3
:20093400000000000c30200000000000000000000000000000000000000000000000000047
:20095400000000000000000000000000000000000000000000000000000000000000000083
:16097400000000000000000000000000000000000000000000006d
:20098a000000000000c300000000000000000000000000000000000000000000000000008a
:2009aa0000000000000000000000000000000000000000000000000000000000000000002d
:1709ca00000000000000000000000000000000000000000000000016
:2009e100000000000c3020000000000000000000000000000000000000000000000000009a
:200a01000000000000000000000000000000000000000000000000000000000000000000d5
:160a210000000000000000000000000000000000000000000000bf
:200a37000000000000c30000000000000000000000000000000000000000000000000000dc
:200a570000000000000000000000000000000000000000000000000000000000000000007f
:170a7700000000000000000000000000000000000000000000000068
:200a8e00000000000c302000000000000000000000000000000000000000000000000000ec
:200aae00000000000000000000000000000000000000000000000000000000000000000028
:160ace000000000000000000000000000000000000000000000012
:200ae4000000000000c300000000000000000000000000000000000000000000000000002f
:200b04000000000000000000000000000000000000000000000000000000000000000000d1
:170b24000000000000000000000000000000000000000000000000ba
:200b3b00000000000c3020000000000000000000000000000000000000000000000000003e
:200b5b0000000000000000000000000000000000000000000000000000000000000000007a
:160b7b000000000000000000000000000000000000000000000064
:200b91000000000000c3000000000000000000000000000000000000000000000000000081
:200bb100000000000000000000000000000000000000000000000000000000000000000024
:170bd10000000000000000000000000000000000000000000000000d
:200be800000000000c30200000000000000000000000000000000000000000000000000091
:200c08000000000000000000000000000000000000000000000000000000000000000000cc
:160c280000000000000000000000000000000000000000000000b6
:200c3e000000000000c30000000000000000000000000000000000000000000000000000d3
:200c5e00000000000000000000000000000000000000000000000000000000000000000076
:170c7e0000000000000000000000000000000000000000000000005f
:200c9500000000000c302000000000000000000000000000000000000000000000000000e3
:200cb50000000000000000000000000000000000000000000000000000000000000000001f
:160cd5000000000000000000000000000000000000000000000009
:200ceb000000000000c3000000000000000000000000000000000000000000000000000026
:200d0b000000000000000000000000000000000000000000000000000000000000000000c8
:170d2b000000000000000000000000000000000000000000000000b1
:200d4200000000000c30200000000000000000000000000000000000000000000000000035
:200d6200000000000000000000000000000000000000000000000000000000000000000071
:160d8200000000000000000000000000000000000000000000005b
:200d98000000000000c3000000000000000000000000000000000000000000000000000078
:200db80000000000000000000000000000000000000000000000000000000000000000001b
:170dd800000000000000000000000000000000000000000000000004
:200def00000000000c30200000000000000000000000000000000000000000000000000088
:200e0f000000000000000000000000000000000000000000000000000000000000000000c3
:160e2f0000000000000000000000000000000000000000000000ad
:200e45000000000000c30000000000000000000000000000000000000000000000000000ca
:200e650000000000000000000000000000000000000000000000000000000000000000006d
:170e8500000000000000000000000000000000000000000000000056
:200e9c00000000000c302000000000000000000000000000000000000000000000000000da
:200ebc00000000000000000000000000000000000000000000000000000000000000000016
:160edc000000000000000000000000000000000000000000000000
:200ef2000000000000c300000000000000000000000000000000000000000000000000001d
:200f12000000000000000000000000000000000000000000000000000000000000000000bf
:170f32000000000000000000000000000000000000000000000000a8
:200f4900000000000c3020000000000000000000000000000000000000000000000000002c
:200f6900000000000000000000000000000000000000000000000000000000000000000068
:160f89000000000000000000000000000000000000000000000052
:200f9f000000000000c300000000000000000000000000000000000000000000000000006f
:200fbf00000000000000000000000000000000000000000000000000000000000000000012
:170fdf000000000000000000000000000000000000000000000000fb
:200ff600000000000c3020000000000000000000000000000000000000000000000000007f
:201016000000000000000000000000000000000000000000000000000000000000000000ba
:1610360000000000000000000000000000000000000000000000a4
:20104c000000000000c30000000000000000000000000000000000000000000000000000c1
:20106c00000000000000000000000000000000000000000000000000000000000000000064
:17108c0000000000000000000000000000000000000000000000004d
:2010a300000000000c302000000000000000000000000000000000000000000000000000d1
:2010c3000000000000000000000000000000100000000000000000000000000000000000fd
:1610e30000000000000000000000000000000000000000000000f7
:2010f9000000000000c3000000000000000000000000000000000000000000000000000014
:20111900000000000000000000000000000000800000000000000000000000000000000036
:1711390000000000000000000000000000000000000000000000009f
:20115000000000000c30200000000000000000000000000000000000000000000000000023
:2011700000000000000000000000000000000000000000000e000000000000000000000051
:161190000000000000000000000000000000000e0000000000003b
:2011a6000000000000c3000000000000000000000000000000000000000000000000000066
:2011c600000000000000000000000000000000000000000000800000000000000000000089
:1711e600000000000000000000000000000000008000000000000072
:2011fd00000000000c30200000000000000000000000000000000000000000000000000076
:20121d000000000000000000000000000000000000000000000000000000000000000000b1
:16123d00000000000000000000000000000000000000000000009b
:201253000000000000c30000000000000000000000000000000000000000000000000000b8
:2012730000000000000000000000000000000000000000000000000000000000000000005b
:17129300000000000000000000000000000000000000000000000044
:2012aa00000000000c302000000000000000000000000000000000000000000000000000c8
:2012ca00000000000000000001000000000000000000000000001e001af04000000000009b
:1612ea0000000000000000000000000000000000000000000000ee
:201300000000000000c300000000000000000000000000000000000000000000000000000a
:20132000000000000000000000100000000000000000000000000000000f0080000000000e
:17134000000000000000000000000000000000000000030000000093
:20135700000000000c3020000000000000000000000000000000000000000000000000001a
:20137700000000000000000000000000000000000000000000000000000000000000000056
:16139700000000000000000000000000000000000000001af060d6
:2013ad000000000000c300000000000000000000000000000000000000000000000000005d
:2013cd00000000000000000000000000000000000000000000000000000000000000000000
:1713ed0000000000000000000000000000000000000000010f0000d9
:20140400000000000c3020000000000000000000000000000000000000000000000000006c
:201424000000000000000000000000000000000000000000000000000000000000000000a8
:161444000000000000000000000000000000000000000000000092
:20145a000000000000c30000000000000000000000000000000000000000000000000000af
:20147a00000000000000000000000000000000000000000000000000000000000000000052
:17149a0000000000000000000000000000000000000000000000003b
:2014b100000000000c302000000000000000000000000000000000000000000000000000bf
:2014d1000000000000000000000000000000000000000000000000000000000000000000fb
:1614f10000000000000000000000000000000000000000000000e5
:201507000000000000c3000000000000000000000000000000000000000000000000000001
:201527000000000000000000000000000000000000000000000000000000000000000000a4
:1715470000000000000000000000000000000000000000000000008d
:20155e00000000000c30200000000000000000000000000000000000000000000000000011
:20157e0000000000000000000000000000002800000000000000000200a55000000000002e
:16159e000000000000000000000000000000000000000000000037
:2015b4000000000000c3000000000000000000000000000000000000000000000000000054
:2015d4000000000000000000000000000000010000000000000000d01c05a0000000000065
:1715f4000000000000000000000000000000000000000000000000e0
:20160b00000000000c30200000000000000000000000000000000000000000000000000063
:20162b00000000000b9a50d0000000000000000000000000000000000000000000000000da
:16164b000000000000000000000000000000000000000000000089
:201661000000000000c30000000000000000000000000000000000000000000000000000a6
:201681000000000001e1770d000000000000000000000000000000000000000000000000e3
:1716a100000000000000000000000000000000000000000000000032
:2016b800000000000c302000000000000000000000000000000000000000000000000000b6
:2016d8000003800500722590000000000003800000568710000000000000000000000000d3
:1616f8000000e0000000ef04080000000000000000000000000001
:20170e000000000000c30000000000000000000000000000000000000000000000000000f8
:20172e0000002000d800425900000000000020000007b0f1600000000000000000000000e0
:17174e0000000800000010f00000000000000000000000000000007c
:20176500000000000c30200000000000000000000000000000000000000000000000000008
:20178500000000000000000000000000000000000e00000000000000000000000000000036
:1617a500000000000000000000000000000000000000000000002e
:2017bb000000000000c300000000000000000000000000000000000000000000000000004b
:2017db000000000000000000000000000000000000000000000000000000000000000000ee
:1717fb000000000000000000000001000000000000000000000000d6
:20181200000000000c3020000000000000000000000000000000000000000000000000005a
:2018320000000000000000000000000000000007000000000000000000000000000000008f
:161852000000000000000000000000000000000000000000000080
:201868000000000000c300000000000000000000000000000000000000000000000000009d
:20188800000000000000000000000000000000000000000000000000000000000000000040
:1718a800000000000000000000000000000000000000000000000029
:2018bf00000000000c302000000000000000000000000000000000000000000000000000ad
:2018df00000000000000000000000000000000018000000000000000000000000000000068
:1618ff0000000000000000000000000000000000000000000000d3
:201915000000000000c30000000000000000000000000000000000000000000000000000ef
:20193500000000400000000000000000000000400000000000000000000000000000000012
:1719550000000000000000000000000000000000000000000000007b
:20196c00000000000c302000000000000000000000000000000000000000000000000000ff
:20198c0000000000000000000000000000000000000000000000000000000000000000003b
:1619ac000000000000000000000000000000000000000000000025
:2019c2000000000000c3000000000000000000000000000000000000000000000000000042
:2019e2000000000000b0000000000000000000000000000000000000000000000000000035
:171a02000000000000000000000000000000000000000000000000cd
:201a1900000000000c30200000000000000000000000000000000000000000000000000051
:201a390000000001800000000000000000000000000000000000800000000000000000008c
:161a590000000000078000000000000000000000000000000000f0
:201a6f000000000000c3000000000000000000000000000000000000000000000000000094
:201a8f00000000000000000000000000000000001000000000001000000000000000000017
:171aaf000000000000000000000000000000000000800000000000a0
:201ac600000000000c302000000000000000000000000000000000000000000000000000a4
:201ae6000001040000000000000000000001040000000000001000000000000000000000c6
:161b060000000100000000000000000000000000100000000000b8
:201b1c000000000000c30000000000000000000000000000000000000000000000000000e6
:201b3c00000000000000000000000000000000000000000000000000000000000000000089
:171b5c00000000000000000000000000000000000000000000000072
:201b7300000000000c30200000000000000000000000000000000000000000000060440052
:201b93000800000581000000000000000000000000000000000000000000000000000000a4
:161bb300000000000000000000000000000000000000000000001c
:201bc9000000000000c30800000000000000000000000000000000000000000000023c09ea
:201be9000000000000a000000000000000000000000000000000000000000000000000003c
:171c09000000000000000000000000000000000000000000000000c4
:201c2000000000000c30200000000000000000000000000000000000000000e000001c8fbd
:201c40000c0000058a000000000000000000000000000000000000000000000000000000e9
:161c600000000000000000000380000000000000002000000000cb
:201c76000000000000c308000000000000000000000000000000000000000008000000007b
:201c96000f40000001000000000000000000010000000000000000000000000000000000dd
:171cb6000000000000000000002000f0000000000003c00000000044
:201ccd00000000000c30200000000000000000000000000000000000000000000206548fb0
:201ced000c0000051a1aa80000000000000000000077d8c00001400000000000000000009a
:161d0d0000000000000000000300000800000000000000000000b5
:201d23000000000000c3080000000000000000000000000000000000000000000024202071
:201d43000f4000005000828000000000000000000003ef0c000008000000000000000000d9
:171d63000000000000000000003000010000000000000240000000f6
:201d7a00000000000c30240000000000000001000000000000000000000000080060148fdd
:201d9a000c00000d1a57808880000000000000000a068040a00000000000000000000000a7
:161dba000000000000000000000000000000000000000000000013
:201dd0000000000000c30000000000000000000000000000000000000000000040000020d0
:201df0000f40000058014000000000000000000001034008e400200000000000000000009b
:171e10000000000000000000000000000000000000000000000000bb
:201e2700000000000c322000000000000000000000000000000000000000000000001e8f90
:201e47000c00000000f3c088000000000000285b8000000000000000000000000000000031
:161e670000000000000000000000070000000000000c0000000052
:201e7d000000000000c300004000000000000000000000000004000000000000100000002e
:201e9d000f400040000da800800000000000014278000000000100000000000004000000a1
:171ebd000000001000000000000040080000000001000000000000b5
:201ed400000000000c32200000000000000000000000000000000000000000000000168feb
:201ef4000c00000000d2420800000000000021000000000000000000000000000000000085
:161f14000000000000000000000000001a8010000000000000000d
:201f2a000000000000c30000000000000000002000000000000000000000000000000000b4
:201f4a000f4000000005e000800000000000010800000000000000000000000000000000ba
:171f6a0000000000000000000000000003428104000003c0000000d3
:201f8100000000000c30200000000000000000000000000000000000000000000060148fe1
:201fa100080000000000000000000000000000000100000000000000000000000000000017
:161fc10000000000000000000000000800000000001c034c5f0038
:201fd7000000000000c30080000000000000000000000000000000000000000000000000a7
:201ff7000f000000d0b00000000000000000000000e000000000000000000000000000005b
:17201700000000000000000000000001000000000000200600f0009b
:20202e00000000000c302004000000000000000000000000004000000000004102061e8ffc
:20204e000c0004000e000000000000000000040001000000001000000000000040000000ff
:16206e0000000100000000000104000000000000100003dca503bf
:202084008000000000c30800000000000000000000000000000000000000000000040020cd
:2020a4000f40000001000000000000000000000000f00000000000000000000000000000dc
:1720c400000000000000000000000000000000000003c01d058000a0
:2020db000100003fec302000000000000000000000000000000000000000000000001c8fbe
:2020fb000c0001059a07bc10000000000000000000000000000000614e0f80000000000008
:16211b0000000000038000000000078000000000000c7a4eaf40e1
:2021310040100000c0c3080000008000000000000000000000000000000000000000000033
:202151000f440000000003c1800000000000000000a000000000000000c0f0000000000087
:1721710000000000407c000000000008000000000000002d00f40072
:2021880002000001cc302380001a0000000000000000000000000000000000e000001e8fee
:2021a800080380000000000000000000000380400000000000000061cc0f803800000000d5
:1621c8000000e00000000000038000000000000e0140000000004f
:2021de000046000000c3082028000000000000000000000000000000000000080000002060
:2021fe000f002000000000000000000000002002000000000000000381d0f002000000002a
:17221e000000080000000000002000000000000080a8000000000059
:2022350000000001ec30230000000000000000000000000000080000000000000000548f5e
:202255000c0000000a000000000000000000000000000000000020055e0f80000000000041
:162275000000c000000000000000001a0000000c000003c8fa4068
:20228b000000000000c30830000000000000000000000000000000000000000000002020f8
:2022ab000f400000000000000000000000000000000000000000004202f0f00000000000a0
:1722cb0000000400000000000000000100000000c000002f05a4104f
:2022e20001000001cc302008000000000000010000000000000000000000000000001e8512
:20230200500000050003bc100000000000000000180000000000266cfc0f80000000003b27
:16232200c10010000000000000000700000000008000000000004d
:202338000000000000c30801000000000000000000000000000000000000000000000000b9
:2023580055000000500003c1800000000000000070000000000000460190f0000000000441
:172378003c00110c00000000000000080000000004000000000000e9
:20238f00000000000c322000000000000000000000000000000000000000000000000000d0
:2023af00000000000003bc14000000000000000000000000000024296d0f800000000000f2
:1623cf0000000000000000000000000000000000000028000000d0
:2023e5000000000000c3000000000000000000000000000000000000000000000000000015
:2024050000000000000003c3000000000000000000000000000000e780e0f00000000000ba
:17242500000000000020000000000000000000000000000000000080
:20243c00020000000c3220000180023c10400000000000000000000000000000040000000d
:20245c000000000000da90d00000000000000003805a400800002421615a80000000000081
:16247c0000000002000000000000018056d010400140001c85402f
:202492000040240000c300000000e043c1000020000000000000000000000000008000007f
:2024b200000000000005670d00000000000000000807e900010011e3bcda5000008000003e
:1724d200000000003c0000000000000001b108000018037dd4a4806d
:2024e900000000000c302000001e9f15400000000000000000000000000000000200000063
:2025090000000005000000000000000000000009000000000000067d7d0f80000000c00055
:162529000000000000000000000000000000000000003800000064
:20253f000000000000c3080000000b815401000000000000000000000000000000040000cc
:20255f000000000018000000000000000000000038e00000000001c742b0f0000000000082
:17257f0000000000000000000000100000000000000003c000000072
:2025960000000001cc302100000000000000000000000000000000000000004001668000e0
:2025b6000001000000da90d0000000000001002000db895000001e06615a80000000000096
:1625d600000040000005ca54011000000000000400400000000037
:2025ec00000a240000c300400000000000000000000000000000400000000000000000005e
:20260c0000000000f005630d00000000000000000003bf95000001c37e9a500000000000c6
:17262c00000000000002600541028000000000000008000000000065
:20264300000000078c3020010000000000000016004f24200000000b6bdd80000000000017
:20266300000000001a000000000000000000000000000000000000014f0f80000500000059
:1626830000000000000000000000200000000000000060c0008081
:202699000010000140c3100000000000000000000014e20004000000777cb0000000000060
:2026b90000000000000000000000000000000000000000000000000000f0f04000200000c1
:1726d90000000000240000000000040090000000000004020000200c
:2026f00002006017ac3020000000f7e00000000000000000380000a073c101e000003ec78c
:20271000040380001a03bc100000000000038000000000000e000001cc0f8000000000004c
:162730000000e0000024c8060380000000000000002679ce0f8042
:202746000044020000c3000000000bfc000000200000000002000d10003c1008000001fed1
:2027660010402020000003c38000000000002000000000000080000001f0f00000000000fc
:17278600000008000001da00402000000000000000026001c0f000e6
:20279d00000040078c3020000000000000000014000000000000000b63dd8000000000001a
:2027bd000000000000023c100000400000000000000000000000200008f040000000000016
:1627dd0000004002020000000100079e37b6c000882665490f8064
:2027f3000000020000c3000000000000000000002000000000000d00777cb0000000000031
:2028130000000000000043c104000800000000000000000000000040000f06000000000040
:1728330000000c003c400000001000310dfb7c0400026203e0f00006
:20284a000b046017ac302000050000000000000000000000000000000000000000003ee7c2
:20286a000400080000073c1800000000000000000007bc1000000000000000000000000014
:16288a0000000002003fc00600000000f2a01880000665590f80b4
:2028a0000000020000c300000000000000000000000000000000000b00000000000001fe49
:2028c00010400000000003c30000000000000000000003c30000000000000000000000001c
:1728e000000000003c0150a0400038000380010000004602a0f000e0
:2028f700000000078c3020000000bf4280000000000000000000701d3011000001403cdf33
:202917005400000000063c10000000000000000000000000000000000000000000000000fa
:1629370000000000004000000000000800000000000e79f90f8033
:20294d000000000000c3000000000f7010000000000000000000008e7369100000022fcca1
:20296d00f9e00000000043c18000000000000000000000000000000380000000000000006a
:17298d000000000000280000000000010000000000000000d0f0004a
:2029a40000000017ac302000030cdb8000800000000000000000f000000000000200000024
:2029c4000000000800000000000000000000000000000000000000000000000000000000eb
:1629e400000000000000000000000700000000004020057b0f8067
:2029fa000000000000c3000000b10f4004800000000000000000018000000000001c0000d9
:202a1a0000000000f0000000000000000000000000000000000000000000000000000000ac
:172a3a00000000000024000000000000000000000c02c3c190f0004f
:202a5100000000078c302000000c00000000002000000000000000000000000002028000d2
:202a71000000000700000000000000000000000000000000000046040000000000000000f4
:162a910000000000000000000000079d53e0100000062d6b0f801b
:202aa7000000000000c300000000000000000000c00000000000000000000000003c400010
:202ac7000000000000000000000000000000000000000000000009c34000000000000000e3
:172ae7000000000000000000000000018f780100000003c2c0f0005a
:202afe0000040001ac302000000c000000000006000000001000700365c104400347bfe7c8
:202b1e0004010000000000000000000000010007800000000400007800000000000000008e
:162b3e0000004001600000000100570000000000002e61ea0f8080
:202b54000000000000c300000000d0000000000020000000000000803b041000001e41ee92
:202b74001040000000000000000000000000000008000000000000000000000000000000e9
:172b9400000000001e000000000002008000000000006002f0f00048
:202bab00000000000c3020000000fff05800011e04000000000080a7abc2000400000000ac
:202bcb00000000000000000000000000000000000000000000800069c850c0000000000029
:162beb0000000402003ea40400200f0877201000041e05dd0f8077
:202c01000010000000c30000000007770d00000003c0000000000f100203c000a00000000e
:202c21000000000000000000000000000000010000000000000400003c0054a0000000005e
:172c4100000000a00400d84200000079a9bc010100002240c0f0408c
:202c5800000000000c30238000010000000000000469e00000000003a3c200e000020000e5
:202c7800000380001e0000000000000000000001803328000e000001c850c00000000000d8
:162c98000000e00000000000039000007a201800007601d90f8022
:202cae000000000000c300200000e0000000000002b7cf00000000000803c00800004000a8
:202cce0000002000010000000000000000000000000082800080000024005480000000004b
:172cee000000080000000000002280000f640100000a400080f000f7
:202d0500000000000c3023000000ffb058000000040000000000801123c200400007800007
:202d25000003000000000000000000000000000000b30680800000654850c0000000000015
:162d450000000000000000000300001e77201000002665405a800b
:202d5b000000000000c30030000007730d0000040280000000000f0f0803c00c0000400023
:202d7b000000300000000000000000000000000000038000000000023e0054800000000071
:172d9b0000000000002400000010000009a0018000026216fa5000ff
:202db2000a0400000c302000000000000000000000000000000000a0265a000400038000f0
:202dd2000000000000000000000000000000100000bf8808800006054850c000000000009f
:162df2000000000000000000000000007a2018000006655a0f80c5
:202e08000040800000c300000000000000000000000000000008001003da4000a000400012
:202e280000000000000000000000000000000000000180000000000226005480000000000d
:172e4800000000000000000000000000017c010000002642c0f000dd
:202e5f00002000000c3020008000000000000200000000000000000723c200000000000069
:202e7f000000000000063c10000000000000000d9b00000000000001e850c0000000000040
:162e9f00000000000000000000000001fbbc1000200e01eb0f80ac
:202eb5000000000000c300000070000000000000034000000000000b0003c00000000000b9
:202ed50000000000000043c1040000000000000050a00000000000003c005408000000004d
:172ef500000000000000000000000000dbc281000403e000d0f00001
:202f0c00000000000c302000000100000000001c60ce50000000000323c20000000001af16
:202f2c00040800000000000000000000000018080177a800000c00016850c00000000000b4
:162f4c000000000200400000000005005729500000363de80f806e
:202f6200000e000000c300000000d00000000000200700000000000c0803c0004000001060
:202f8200f040000000000000000000000000018050a740000000000024005480000000004f
:172fa200000000000c200000000000089fc029000002c64180f000e3
:202fb900000000000c302000000efff05000401431df30000000000523c2000000000000d1
:202fd900000000000e000000000000000000000500000000000026796850c00000000000ae
:162ff90000000000003eb0040000000800000000002679fa0f80a0
:20300f000000000000c30000000107670d800002e42cf34000000d000803c00000000000c5
:20302f000000000001000000000000000000000050000000000000403e0054080000000056
:17304f00000000000002dc5200000001b000000000004003c0f00096
:20306600000000000c30210005810000000000003a0e0f2000000005a3c200400000200a1c
:20308600541100000000000000000000000000059a000000040c2061e850c000000000009d
:1630a60000004000000000000100050100000000002665fb0f80b8
:2030bc000000000000c300000090a00000000001c42c00f000000d0b0803c00000000240fb
:2030dc005a4000000000000000000000000000000000000000000040260054800000000000
:1730fc00000000002c00000000000008c000000000004203d0f000c4
:20311300000000000c30200000003800200020066e5c950000000000225a0000024005aef2
:20313300340400000132f8d0000000000000000000f3600000000601c850c0000080000097
:1631530000000000004d80a00000080000000000000001cd0f8094
:203169000000000000c300001000008000080400028ed65000000d00021a41000054035818
:20318900fbc0000000e96e85a00000000000000000b7b400000000003c0054c0000d000027
:1731a900000000000030200a000000700000000000024000c0f04013
:2031c000000000000c3020000000723c2800002024180f000000f0eba65800e0000014b7ce
:2031e0000403801000000000000000000000005000f22000ae014001c85040380200000054
:163200000000e000c01784002000530017000800007e07c15a80cb
:203216000000000000c30000000090003c000061468400f1000001107a0cc0080000006b23
:20323600104020020000000000000000000000000003c000448000000600a48200500f00f4
:17325600000008003c296000000002000f01400000e84394ca500069
:20326d00000800000c3020000000323c2000000023fc950201000000000000000162000035
:20328d0000030000003af8d80000000000000000007be00000000000000000100001e000c8
:1632ad0000000000078ec5a02429800f000000000026654b0f80d0
:2032c3000000000000c30000000000803c000000040609a000280000000000000000400051
:2032e3000000300000f96e8504000000000000000003b000000000000000000300001000e5
:17330300000000001443602519000000b000000000026602a0f00014
:20331a00000000000c30200000007a3c2800a00669da0f00010001ab7e10000000004000e6
:20333a00000000001e000000000000000000000000000000000000000000000080000000d5
:16335a000000000002008f050000080e00000000012c01ca0f802a
:203370000000000000c30000000090003c000000000300f0040800007f3b400000803800fd
:203390000000003800000000000000000000000000000000000000000000000000000000e5
:1733b00000000000000010f0200000d10000000000024002d0f00011
:2033c700000000000c302000051c723c2000000074dc950000080018783c000000000000e2
:2033e70000000007007af8d0400000000000000f0000000000000000000000000000177e99
:16340700950010014234d1020000001c9a82800180043808f00152
:20341d000000000000c30000000100003c00000007f6e9a00000000f1403c0100000000013
:20343d00000000000009ee85800000000000000030000000000000000000000000000e1a1b
:17345d004118010000434900200000010b400000100000000f0200e5
:20347400000000000c302028000e1a25a000006e61680f000038f00000000000000000ef6a
:203494000400280380000000000000000000000b000000000000000000000000000000005e
:1634b400000000000280af302000000156e00000403e00000000cc
:2034ca000000000000c30000100000b258010001600100f00400070c00000000400000005b
:2034ea00f0600100080000000000000000000000f8e0000000000000000000000000000091
:17350a0000000000000010f3208000909be80002020260000000008e
:20352100000000000c302028538a7265a0000004607c9502000000000000000000600000db
:20354100000000081f72f8d040000000000000081f00000000002060000000000000100012
:1635610000000000000000000000a001000000002026607f082066
:203577000000000000c300000058a0a658800000202609a00000000000000000000000000c
:2035970000000001b0d96e850400000000000000708000000000c0440000000000000a0095
:1735b700000000000000000000000400e00000000400400590000040
:2035ce00000000000c30200003807265a000000006180f200000819df7cc00401400000005
:2035ee0000010000015a21504000000000000001010000000400000000000010008009b35e
:16360e000940000000000000000180000000000000400758050038
:203624000000000000c30000280800ae5802000003ad00f000000b1f9b8c00000800000092
:203644000000000000cdff1d800000000000000108e0000000000000000000000005007f90
:17366400f010000000000000000000000000000000ea431e0f5000a5
:20367b0004c000000c30240300007a3c2000008000c0668000000001b210000000005fbe2c
:20369b00350800000176d838000000000000010700df3c0000000000000000000000000028
:1636bb00000000000000000000034f005f828000a000616a50008b
:2036d10000a0000000c30000000000003c5000100000f6600000000c7bfb400000003dccb9
:2036f100a1400000f0b061810000000000000000080d83d4000000000000000000000000ea
:173711000000000000280000000000f0004028000400000205010411
:20372800000000000c322000000078002000002400c89680388001e0000000e004003efbd3
:20374800c40380000ff2613800000000000000300cf7bdc0000e00000000000100000000c1
:163768000000e001400000000000001e1710008e00000000000057
:20377e000000000000c300000000000000000063e000f96002000000000000080e80014de6
:20379e00a4602000f1ed28490000000000000000000b77fc00000000000000000800000012
:1737be00000008000000000000000050f50000008000000000000027
:2037d500000000000c302000000078002000000020c99680100000000000004001c01fbaf7
:2037f500d403000d9b7261300000000000000000189fb9c080002000000000000000000062
:163815000000c00040000000000008089ec20000002025ff0800e1
:20382b000080400000c3080000000080000000000402d9600100000000000004000201ec3f
:20384b002c61100050a9a44904000000000000005007c3ec0000014000000000000000008f
:17386b0000000c00000000000001007089f80000000243b5f000005e
:20388200000000000c3024000000780020000020014996800000d8000000000004003efb99
:2038a200c400000800f277b800000000000000000c772000804000000000000ab0000000fc
:1638c200000000000000000000000001000000000000000ef040b1
:2038d8000000000000c300000000008000000001c002a96000000f80000000000e8c016d2a
:2038f800a461003070fdbedd000000000000000000e1c000000a0340000000000000000085
:173918000000000c00300000000000f0f0000000000002c00f0000ab
:20392f00042800000c303000000070002000003c38699680000170000000000001401dbad4
:20394f00d4080000005265a000000000000000081e8717c000000000000000000800000099
:16396f000000000000000000000000090000000000000000000039
:2039850000a0000000c300000000000000000001e400c9600000210000000000000001ccc3
:2039a5002c60002000f03e580000000000000000110742bc000000000000000000000000ba
:1739c500000000000000000000010000a00000000001c00000000089
:2039dc00000000000c30a000000070002000002039e996800080000b6a81400000072eed2f
:2039fc00a4000050085265a000000000000000899f77b7c08000000400000000200000009e
:163a1c0000001a0000000000000008003f80045000060000000059
:203a32000000000000c300000000000000000042c7c0f9600000000050001000001c414c86
:203a5200c2600000010036580000000000000000b1db43fc00000003c00000000000000015
:173a72000000014000000000000000b0a1c028210010200000000072
:203a890000c800000c302010050a70002000001e7ce99680000039800000000000400000b8
:203aa90000000029995225a000000000000000079e978000000000035b20090000000000e1
:163ac90000000000021788040000000132a94000000400080560b5
:203adf000080000000c320028050a08000000003c38289600000001000000000001600001b
:203aff00000000051080a258000000000000000008033c40000000001cd0000400000000a1
:173b1f000000000000416900410000008dc140000000201d00a00039
:203b3600000000000c3020000d9b70002000001c05c89680100000000000004a0766c0afa6
:203b5600040900000f5265a000000000000000079f53394c80000e000000000000000000d0
:163b760000004400000000000020079c36080080003670df2418b3
:203b8c00c000000000c300800050a080000000002340e960004000000000000040942800be
:203bac00f040000000d0a658000200000000001858f58300000000200000000000000000f1
:173bcc00000000000000000000010009bf8000000002e7b4c2528068
:203be3000120003fec302400000178002000000001e8968000000007783e0000006204a3c4
:203c0300e2000000017a25a00000000000002000080000000000003800000000100000000f
:163c230000000000000ce75600000580000000000080000000003d
:203c390000100000c0c300001800a000001000000000f960400000000003c0800002614b86
:203c59003c000000f0e02658100000000000000000c00000000000000000000000000b00e6
:173c7900000000000002cffa4000000000000000004003c000000026
:203c900000000001cc302400001e78002000000001c8968000001007783e00e010000000a1
:203cb00000000010007a25a0000000000003800000000000000c0000000000000000000016
:163cd0000000e000001cca74078000010000000e014000000000cd
:203ce6000000000000c3000000010000000000000000c960000020800003c0080ca40000b6
:203d06000000000270e02e5800000000000020000000000000001400000000000000000091
:173d2600000008000001dc43402000009000000080080240000000a4
:203d3d0004280001ec322003010078002000000001c9968002800195783e00c002460000a9
:203d5d0000000300015a65a010000000000100000ff7a0001000000000000000000000001c
:163d7d000000000006800000030000185f28002440006000000044
:203d930000a1400000c3000102000080000000000002d960001000080c03c00c0026400055
:203db3000000000070f0ae58000000000000300000dfb000000000000000000000000000cb
:173dd300000000000040000000100000004280004201c000000000c4
:203dea0001000001cc3024000180780020000e0001e8968000009815303e00000000000056
:203e0a00000010201f3a25a200000000000000001fbba00000400003ee0800000000100085
:163e2a0000000800100000000000000053cd58008000615d744000
:203e40000000000000c3000000000080000000000000f960000001080c03c00000000000ee
:203e60000000028500e0aa5800000000000000000193e400200a00003f90000000000e005a
:173e80000000004000000000000000f001b2d4400400029eba500482
:203e970004e000000c3020002000023c0000a03e01c99680000080f5e03e0000000000001c
:203eb70000000000003a65a000000000000000000056f8d800000029ec80020000d8000017
:163ed7000000000060000000000000005f014000000000000000d5
:203eed0000a0000000c3008005000003c0000002c382c9600001070e0003c00000000000c1
:203f0d00000000000000225820000000000000007009f149000800041d0000000005000019
:173f2d0000000000002c0000000000008d417c0100004000000000c6
:203f4400000000000c302000001d16968800002000c8968000000005f03e00000000068eeb
:203f640034882801011a25a0000000000000000f00bea918000c00000000000000000326b5
:163f840000000000034000000000071a00000000a0200000000003
:203f9a0000003c0000c300800000c08168020002c3c2f9600000000d0403c0000000025fc8
:203fba005260410008d0be582000000000000000b0ed6fd1000000000000000000000036d3
:173fda00c00800000020000000000008000000000001c0000000001f
:203ff100044800000c30200300009f318000201c7dc9968000009805b03e0000000740004b
:2040110000000001007225a02004000000000050090000000000143800000000000000008e
:1640310000000003c6afe004000007003ffc5220002001eb00401d
:2040470040a1400000c3008000000be8d80004002382f960000001000c03c00000007000e8
:2040670000000000b8903a58000000000000000200d000000000002000000000000000006d
:17408700000000000402eb5200000008076684000063c00e98b088e5
:20409e0000000001cc3030000d9b00000000001c38c8968000003997b03e004000000000fd
:2040be0000000009801265a400000000000100001e0000000000003c0000000038000000ab
:1640de000000400000000000000000010000000000207ffaf540bd
:2040f40000003c0000c300000050a00000000003e400f96000000f8e0803c0000000000015
:204114000000000098903e580000000000000400f100000000000342c000000000000000d3
:17413400000000002400000000000000800000000001c61fee5000ac
:20414b000010002f8c3020000000b3b09040000003e8f00800000007383e000000000fdeb9
:20416b003400030b8f1265a200000000000000000000000000000000000000000000080240
:16418b0095000400002cfff000000000f2c0120000006000000046
:2041a10000100000c0c301000000093f69000000000e00f0480000000403c100000001dbcf
:2041c100a160000050a026581000000000000000000000000000040000000000000000b0ab
:1741e100168000a00027ce00010000000d608020000000000000008e
:2041f8000000e70eac3023800000bff3d240000002dca60a00000017703e00e00000018fac
:204218000400000d815a25a000000000000000050adb82000e0c000200a540380000000030
:164238000000e0000001ef300380001a0000000e00200000a560a0
:20424e000000000030c3012000009d6b2d000003c03509a00000500c0403c0080024000017
:20426e00f041003870f0ae588000000000000000510f6800008000002c05a4820000000042
:17428e000000080000001cf301200010000000008000403405a01028
:2042a5000000071d8c3223038008b3b09040020000eca00002858003a3c2204000078dde67
:2042c50034081028001225a200000000000000001e1e60020400007bfac14000008003e908
:1642e500410000000000000000000000000000000004040000007a
:2042fb000000000030c300100001093b6900000000000a0000102500083c000c000041fb27
:20431b00a1600284f0d0be580000000000000000d00ba00000c000042ece5410000100087d
:17433b00140040000000000000000100800000000000230000000073
:204352000100001eec32200008000000000000000400000000040003a3ea0400080736f80d
:20437200560800100f1225a000000000000000051e9b420000408000000000000080000097
:1643920000000000000000000128000e00000000000000cb0040d3
:2043a8000000000020c3000000f09000000000c3430000000000210850028000010042ee60
:2043c800c740002801e0aa58000000000000000008016400000215c000000000000100007e
:1743e8000000000000000000000100010000000000000024d52000a3
:2043ff000002005dec3020100900b3b09040001e02fa5a0080000005a3c2000000e68000f3
:20441f00000000001e3225a000008000000010079fb7020000a02000000000000000002b8e
:16443f00c10000e1e00000000000001a00000000800000ef01401b
:204455000000142830c301008030f9336900000140040a0000000000083c0200000200003b
:20447500000000007000b258000010000000008008a7b800000441c00000000000000000b1
:174495003c0000000000000000000000000000000003c0168030004b
:2044ac000001405ecc302000080000000000003c04000000000201c1a3c2040a016236f825
:2044cc0054100000001225a000000000000010071e0000000100003bfda76002000180009d
:1644ec0000000000060000000000080000000000000622cb004079
:204502000000042830c3010000500000000000026200000000005f1f083c0000400002efd2
:20452200c760000000003e580000000000000000090000000000000217f835001000090054
:17454200000000000c00000000000050000000000000040cd5200001
:204559000001601dec3020038908b3b090202000021a0f0000009815a3c2000a004000cf6b
:20457900040000201c1a65a000000000000000070ebb0200000000000000000000000000f1
:16459900000000e20000000000000b00b642000000000000000027
:2045af000000002020c301000070092f69000000002d00f00000010e003c0200000000006d
:2045cf00f0400004019022580000000000000004090dac002208400000000000000000005d
:1745ef00000000000c000000000000b803f800200003c00000000013
:2046060000020240cc303100200a0000000000000400000000000087a3c200440200400083
:20462600000020101c7a65a000000000000008038056e000240080780000000000000802c2
:1646460095004000426e90040000059e7bbd48040000000000001e
:20465c000000143c00c3000005000000000000000240000000000000083c0200a0142800c2
:20467c00000000000100ae58010000000000010008d3f40020001402c00000000000005000
:17469c00168000000072df52000000000083d4000000000000000077
:2046b300000000000c30200000000000000000000000000000000007a3c2000010e05416c5
:2046d3006c0000070e5a65a80000000000000000015b705000000004fbf0c0400011e78458
:1646f30002000000403deaa00000000000000000000000000000a8
:204709000010000000c301002000000000000003c3c0000000000000083c010000003c0b8a
:2047290066404000f800a2581000080000000000b0cbaf95600000030280f0000003900257
:17474900000000000100dfaa000000000000000000000000000000cf
:20476000000000000c302380000000000000001c000000000000000027c220e012070689ad
:204780006c002855001265a00000000000038000011369d01e000000c8f0c0012810053441
:1647a0003e000000e01dcf50001320000000000e00000000000068
:2047b6000000000000c301a0000000000000000002c000000000000002fc000800ac780c87
:2047d60096404002f8f02258000000000000200000b36e0d428803c00000f080080980036a
:1747f60003c00000020020f5080085000000000080000000000000c5
:20480d00000000000c3023000000000000010000280000000000000723c2204000471689d1
:20482d006c000008015225a400000000000100000003bc1004000000c8f0c0000018010472
:16484d0002000000005def5000000000fb6a840c000004000000be
:204863000000000000c3003000000000000000600680000000000000003c0004001c002ad6
:204883009641010070e0a2580000000000001000000003c1014000000000f0800010000b53
:1748a300c0000000003810f5000000000ff2a800c000034000000055
:2048ba00000000000c3020000700000000000000385a5f000200000023c0040a01e3869994
:2048da006c000008011225a800008000000000000f3369d010000000c8f0c00030000704ac
:1648fa0002000408001def5000102000000000000c000000000002
:204910000000000000c300000008000000000003c00305f000380008003c00004002282cef
:2049300096410038f0e03e58000010000000000001836e0d600003c00200f10000000002cb
:1749500000000021400010f50800840000000000000000000000005e
:20496700000000000c302000000abfd6906000000178df02800000000000000000c30c9903
:204987006e100000001225a000000000000001890080295000009428c8f0c0000091f3344c
:1649a7003e0000000047cf500000100c000000000000000af060e0
:2049bd000000000000c3000000000f6929020400003c0ff000000000000000000000002a0b
:2049dd00965000000000a2582000000000000000f0c30169200001428200f100000f8f0b1e
:1749fd0003c00000003810f50001000100000000000000010f040489
:204a1400000000000c302000058077b090200140024a5a02013000000000000a01c01c9930
:204a34006e002000001a25a400000000000000a8013b69d000001468e8f0e10000f1b300fb
:164a5400020000e3e7cdd990000008000000000040000000000002
:204a6a000000000000c3000000000b7b69000008003d0a400020000000000000460200097a
:204a8a00964001000000a258000000000000000050f3ee0d210001428000f00000018e0a90
:174aaa00000000001c39fc99000000f0000000000200000000000019
:204ac100000000000c302000010e00000000000078000000000000000000000001604499b4
:204ae1006e000000015225a80000000000000000005b705000040000e8f0c0000078038471
:164b010002000043e781cf300000000000000000000038000000ba
:204b17000000000000c3000000190000000000001400000000000700000000004002300f06
:204b37009640800800e022580000000000000000f00bbf95640804000000f0080000000be4
:174b5700400000001c000df3000000000000000000000400000000e7
:204b6e00000000000c302100000e000000000014007f8000000000100000004a00021489b0
:204b8e006e00280040923c0400000000000101001e1b69d800000000e8f0c0000000e12545
:164bae00a6000000025eeaa00010200f000000040000000000001e
:204bc4000000000000c300000001a0000000000003b6fc0010000009000000004000402ff0
:204be4009660011b0005003c00000000000000000003ee0d000000000200f0080009080352
:174c0400da400000007b68aa0000ac04f00000000000000000000052
:204c1b00000000000c302000000000000000002004000000000000a00000000000005c9964
:204c3b006c0000050006bc1400000000000000071eb62a8800020000e8f0c0401800e52589
:164c5b00a6000ac3e005daa00000000156509800000000e066c02c
:204c71000000000000c300010000000000000001c380000000000d100000000000243c0e90
:204c910096540000000003c1000400000000000008e166a8000000000200f05020001002e6
:174cb100da4100000e01ccaa00000000f93e808100000002f66400b8
:204cc800000000000c302000000000000000001e000000000000000b7bdc00e00a000c9961
:204ce8006c0390001a06bc1000000000000000070e3abd400e0c0000c8f0c000380015a1f5
:164d0800a6000001e01dcf500393a11efa089c4e000001c996c071
:204d1e000000000000c300000000000000000003c00000000000000b737fc008012c000af3
:204d3e0096502000010003c104000000000000009d0043d4408000000000f0900000090287
:174d5e00da400000000000f50020840801e8848080000000c96400e9
:204d7500000000000c302000000000000000214003ccf700000000000000004000001c99a6
:204d95006c03000000063c1000000000000000070e1b3d4804000020c8f0d00108f017a527
:164db500a60000000005cf5003000800f3281804000000e996c09d
:204dcb000000000000c3000000000000000000080007dff00000000b0000000400002428cc
:204deb0096481100100043c10000800000000000090043d400c000000000f0802009890a19
:174e0b005a400000000000f5003000f005c2bc0080000002a96400cf
:204e2200000000000c3020000000000000000000297ef70b00000183b2800000024696894e
:204e42006c0020070806bc10000000000000000000baaa8801000000c8f0c002009883a1c0
:164e6200a6000000003dcaa000102f0000000000005c01c996c032
:204e78000000000000c300000000000000000000040e0ff00000000004280000000e400bc1
:204e980096400100180043c10000000000000000000762a8001000000200f1000019800a50
:174eb8005a40000000004faa0002b5180000000000480380b9640099
:204ecf00000000000c302000000000000000001624000000000001b32a00080000468c99dc
:204eef006c0000000902bc1000000000000010571e17bd4800001428c8f0e00000000721c3
:164f0f00a60000000786ef500000051c5e3d5000000130c996c0be
:204f25000000000000c300004000000000000008078000000000050afc0000001006000cad
:204f45009640004000e003c10000200000000042090003d4001301428200f0000001080a75
:174f65009a400010004010f5000040d88b40142401000402f9640087
:204f7c00000000000c302000000000000000001d0048f500000000116a000c0002068489c3
:204f9c006c000020007ff8da40000000000000d80057664000401468e8f0e001800017a552
:164fbc00a6000003e79dfaa0000380000303c040100c31e996c003
:204fd2000000000000c30000000000000000000002410f500000090a940000400014000d52
:204ff2009640000400017d490000000000000202f00ba198800a01428000f00038000f0b37
:175012009a4000003c007caa0000000000003c0000c01300e96400ef
:20502900000000000c3020000000000000000000027cf702000001d00000000002025e99c8
:205049006e0000400000000000010000000000000000000000000000e8f0e000008015a1aa
:16506900a6000003c7cecf50000008090303c000000c31c996c0a1
:20507f000000000000c30000000000000000008003ec0ff00000001d000000000034280b5c
:20509f009640000000000000000000000000000000000000000000000000f000000f0e030b
:1750bf001a4000003e7c30f50000005080003c010001e000f9640056
:2050d600000000000c3020040000000000000094000000000000d80be2000041e1e01c994a
:2050f6006c0104038e002950000000000000050808faaa8000500000e8f0e0004081b32149
:16511600a60001004785faa00014200800168004104c30e996c0d5
:20512c000000000000c30000000000000000000400000000000005007fc000000016002d15
:20514c009648000008fb016900000000000000007107a554800a00000200f000000f0e0be3
:17516c009a400000023dcfaa00028500070294040009e402e9640036
:205183000000000000000000000000000000000000000000000000036600000000079c8977
:2051a3006c0000001a023c1000000000000020000ebbb30800000000e8f0d000009991257d
:1651c300a60000000000af040000019936801000000000e996c0de
:2051d900000000000000000000000000000000000000000000000000b7c000000000000e31
:2051f90096440000010043c10000000000000100010f7f30000000000200f0c00009990a99
:175219001a410000000010f0400018099d01410200000000f9644044
:20523000000000000000000000000000000000000000000000001980000000e000070e8947
:205250006c0380071a00000000000000000000070087bd440e400000c8f0d080309801215f
:16527000a600e0000000cf04038029815282901e000001e896c0e1
:20528600000000000000000000000000000000000000000000000090000000080040000927
:2052a60096402000090000000000000000000000080343e8008a00000000f00000098c02a2
:1752c6001a400800000000f0402004989342950080000000c964006c
:2052dd0000000000000000000000000000000000000000000000000bfe0000c001e38c89ef
:2052fd006c0300000e063c1800000000000000000003bd480c000100c8f0d000007001a10b
:16531d00a60040040041ef048300070810168004000000c996c001
:20533300000000000000000000000000000000000000000000000000b38000040000202ad9
:2053530096403002010043c10000000000000000000f43e800c000000000f004000000023d
:175373005a400800003c10f0581000080001680080000002f964008d
:20538a000000000000000000000000000000000000000000000000eb7600000000001e99eb
:2053aa006c0000058006bc1801000000000010000ef7ea8800400000c8f0c00000f015a52e
:1653ca00a600000000200a54001020000203c000a14000e896c095
:2053e00000000000000000000000000000000003c3c0000000000000b20000000000002d48
:2054000096400000080003c1000000000000000001036154000200000200f180000d0902a4
:17542000da4000000003c05a410285f000403c0004080002c96400cf
:2054370000000000000000000000000000000000000000000000d9b37bd4000000c24c99d3
:205457006c00000380f3b8d820000000000000001e063cc400101428c8f0c000000017a103
:16547700a600010200000000000007810203c000000c34c896c0cb
:20548d000000000000000000000000000000000003c000000000050a003d40001002700e20
:2054ad009640004008037949000020000000004800003bcc000101428200f10000000e0abe
:1754cd009a4000101c00000000004000d0403c0001002742e964007f
:2054e400000000000000000000000000000000000000000000005893bbdc080000069499eb
:205504006c000008008029500000000000000007817eaa8000009468e8f0e000000013a57e
:16552400a600010000000000000b80000603c00050ae30e996c009
:20553a0000000000000000000000000000000000000000000000050ab03fc0000044282ff8
:20555a0096400000d0010169000000000000000008eb7ea8800015428000f08000000f0a27
:17557a009a400000000000000000000000003c000a16c642e964008f
:205591000000000000000000000000000000002001daf500000050073280000002428689ae
:2055b1006e00000f8f033c1010000000000000071e8079c000000020e8f0c000008007252d
:1655d100a6000a0000000000004000000603c000000e00e996c0be
:2055e70000000000000000000000000000000001c0000f500000000a0c2800000014002f03
:205607009640000031d003c10000000000000000089d3b6c200000040000f080000f0002f7
:175627005a40000a000000000004180000003c0000800002c96400c1
:20563e00000000000000000000000000000000006becf7020000d1a5b7dc004101634e8977
:20565e006e0104000002bc10000000000000040788bbaa8000100000e8f0c00042801325d1
:16567e00a600410000000000010400000603c004100c30c996c0f2
:205694000000000000000000000000000000000000370ff000000500ff3fc0000000302b62
:2056b40096400000000043c100000000000002000101a554800000000200f080005f0e0b95
:1756d4009a400000003c00000000000000403c040001c002e9640019
:2056eb000000000000000000000000000000000000000000000000000000000000001699f0
:20570b006e0000001a063c10000000000000030000dfbfc000000000e8f0d040000013a1a7
:16572b00a60000006604c0020000000a533c2000000000c896c0bf
:20574100000000000000000000000000000000000000000000000000000000000000380c04
:2057610096440000010003c10400000000000000000bf000400000000200f04000000f0306
:175781009a410000002a60ff00000000a0fc3c2000000000c9645038
:20579800000000000000000000000000000000000000000000000000000000e001c01689b1
:2057b8006c83800f8003bc12000000000000000000873d400e04800008f00000000011253e
:1657d800a600e0c00380cf04001025007a3c201e0000016896c037
:2057ee00000000000000000000000000000000000000000000000000000000080002000f82
:20580e0096402000780043c10000000000000001000d43e840801000000f000000000b0adb
:17582e009a400800000010f041008450a0003c0080000002f96410a1
:205845000000000000000000000000000000000000000000000000000000004000078689ed
:205865006c0300000000000000000000000000078037e6480400002000000000000007217c
:16588500a600400000248580000000005a3c2004410000e896c0c5
:20589b00401000000000000000000000000000000000000000000000000000040000000e8b
:2058bb00964010000000000000000000000000000005aa6400c000040000000003830c037b
:1758db005a400000000359a701000000e0803c208a000000c96400a5
:2058f2000000000000000000000000000000000000000000000000000000000001c05499e8
:205912006e00000001063c1000000000000000070006bcc8004c0000000000000081f7253a
:16593200a60000000701ef0400102001123c2000000039e896c0a8
:2059480000000000000000000000000000000000000000000000000000000000001e3428c5
:205968009640000000e003c10000000000000000089037cc0000040000000000000f1c0ad1
:17598800da400000004010f041008500c0803c2000000000f96404eb
:20599f000000000000000000000000000000000000000000000000000000000001600c99e2
:2059bf006c00000000023c1000000000000001081eb3ea800000000000000000018007a59d
:1659df00a60000016044ee7010000018123c2040002e38e996c08e
:2059f500000000000000000000000000000000000000000000000000000000000002000a86
:205a15009640000000f043c10000000000000000b10fa954800000000000000000270f0331
:175a35001a400000003df9180000000100803c000000c380f9640055
:205a4c000000000000000000000000000000000000000000000000000000000002021c9981
:205a6c006c0000000000000000000000000000010007bd44004080680000000000f803255d
:165a8c00a600000800168ef0102800001a3c20000c1c01e896c0ad
:205aa2000000000000000000000000000000000000000000000000000000000000140028a8
:205ac20096410000000000000000000000000000089743e8000a000000000000000780038f
:175ae200da400001000278ff0001000000003c2000000000d9640877
:205af9000000000000000000000000000000010000000000000000000000000000420e99a3
:205b19006c0000001c06bc10000000000000008780bba64400a40000000000000070e52548
:165b3900a60000006047eaa0200000181a3c2020000005e996c16c
:205b4f0000000000000000000000000000000000000000000000a000000000000000202a4c
:205b6f0096490000000043c10000000000000000980f3a640000000000000000008f9002cd
:175b8f005a400000002820aa0800000100003c2000000300f96400ae
:205ba600000000000000000000000000000000000000000000000000000000400000368fda
:205bc600060100000000000000000000000000081f83bd440040000000000000008015a197
:165be600a600400207a01e70001001001a3c2004402c30c896c146
:205bfc00000000000000000000000000000000000000000000000000000000000000034046
:205c1c000f400000000000000000000000000000f0c303e8000a040000000000000f0f0a45
:175c3c00da4000001441c9db0800800000803c200202e402d96400b3
:205c5300000000000000000000000000000000000000000000000000000000000000000031
:205c7300000000000000000000000000000000000000000000000004c166c00000000721fe
:165c9300a5200016003405a8000000005a3c2200000004c896c065
:205ca9000000000000000000000000000000000000000000000000000000000000000000db
:205cc900000000000000000000000000000000000000000000000003c0e665000000000ba2
:175ce9009a410000840248a50200000000803c3000424200896440b7
:205d0000000000000000000000000000000000000000000000000000000000000000000083
:205d2000000000000000000000000000000000000a0000000e00207c6996c03800000000b8
:165d4000000000020654e0f800000100523c200e000001c996c03c
:205d560000000000000000000000000000000000000000000000000000000000000000002d
:205d760000000000000000000000000000000000f0000000008003c782d965020000000011
:175d96000000000024741c0f0000000800803c2080000000d9640092
:205dad000000000000000000000000000000000000000000000000000000000000000000d6
:205dcd000000000000000000000000000000000000000000040020014996c8100000e000fa
:165ded000000000266540008000000081a3c2004004001e896c0db
:205e030000000000000000000000000000000000000000000000000000000000000000007f
:205e23000000000000000000000000000000020100000000000003c000e964030000000049
:175e43000000000026642e000000000100003c208060000289640064
:205e5a00000000000000000000000000000000000000000000000000000000000000000028
:205e7a00000000000000000000000000000000000000000000000005c996c80000000000dc
:165e9a00000000006054000800430781323c2000000001c996c0bd
:205eb0000000000000000000000000000000000000000000000000000000000000000000d2
:205ed000000000000000000000000000000000000000000000000003c2d9640000000000b0
:175ef0000000000002242f0000000000c0803c2000000000c964007d
:205f070000000000000000000000000000000000000000000000000000000000000000007a
:205f2700000000000000000000000000000001000000000000000e014996c00000000000ab
:165f470000000000628c10080000000e323c2000000e0008f0009c
:205f5d00000000000000000000000000000000000000000000000000000000000000000024
:205f7d00000000000000000000000000000000000000000000000000008964800000000097
:175f9d00000000000040280000000000f0803c20000000000f00109a
:205fb4000000000000000000000000000000000000000000000000000000000000000000cd
:205fd400000000000000000000000000000000000000000000000071c996c000000000001d
:165ff400000000000016100800000000723c2000000c700000001f
:20600a00000000000000000000000000000000000000000000000000000000000000000076
:20602a0000000000000000000000000000000000000000000000000002b9648000000000b7
:17604a0000000000002c0e000000000000003c0400002000000000a5
:2060610000000000000000000000000000000000000000000000000000000000000000001f
:206081000000000000000000000000000000008008000000000000706996c0000018000030
:1660a100000000154716100800000700723c2000200c000000005e
:2060b7000000000000000000000000000000000000000000000000000000000000000000c9
:2060d7000000000000000000000000000000020101000000000000040289648400008e00a0
:1760f7000000000c022c2e000000000880803c200460200000000042
:20610e00000000000000000000000000000000000000000000000000000000000000000071
:20612e000000000000000000000000000000000000f62a8004001c004996c00000000000f2
:16614e0000000001400e1008000000005a3c2004000004080f01fe
:2061640000000000000000000000000000000000000000000000000000000000000000001b
:2061840000000000000000000000000000000000000982a80100000002b964840000000024
:1761a40000000000360029000000000000003c200000034100f000f5
:2061bb000000000000000000000000000000000000000000000000000000000000000000c4
:2061db00000000000000000000000000000000000000000000002004c996c8000000000455
:1661fb0002000002664e000800000000323c220021342c405a0023
:2062110000000000000000000000000000000000000000000000000000000000000000006d
:206231000000000000000000000000000000000000000000000003c3c0e964400000000337
:1762510040008000266428000400000000803c10046ac34005a000de
:20626800000000000000000000000000000000000000000000000000000000000000000016
:2062880000000000000000000000000000000000000000000e000001c996c000000003269f
:1662a8005a000002664c0008000000011a3c2200000000080f003a
:2062be000000000000000000000000000000000000000000000000000000000000000000c0
:2062de0000000000000000000000000000000000000000000080000002d965000000000bd5
:1762fe00658000002664080000000000e0803c000000000100f00085
:20631500000000000000000000000000000000000000000000000000000000000000000068
:206335000000000000000000000000000000000000000000040020054996c100000003a2da
:166355005a000000000c0008000000000225a000000000080f00e6
:20636b00000000000000000000000000000000000000000000000000000000000000000012
:20638b000000000000000000000000000000000100000000000003c3c0e964000000000b13
:1763ab002580000e0000090000000000003da4600001400100f000ac
:2063c2000000000000000000000000000000000000000000000000000000000000000000bb
:2063e2000000000000000000000000000000000000000000000000004996c00000000726cf
:166402005a000000000c000800000900723c2000000000405a00a5
:20641800000000000000000000000000000000000000000000000000000000000000000064
:2064380000000000000000000000000000000000000000000000000002d9640800000003fa
:1764580065800000000029000000003000003c200001c38005a000aa
:20646f0000000000000000000000000000000000000000000000000000000000000000000d
:20648f00000000000000000000000000000008800000000000201c00e896c000008007263e
:1664af005a000001428c1008000000085a3c20000000001a0f00af
:2064c5000000000000000000000000000000000000000000000000000000000000000000b7
:2064e500000000000000000000000000000000000000000000008000008964800009080b8e
:17650500e5800000366c28000000000000003c400000000100f000e3
:20651c0000000000000000000000000000000000000000000000000000000000000000005f
:20653c00000000000000000000000000000000000000000000002e39e896c000008087266d
:16655c005a000001438e1008000000007a3c2000000020005a0095
:20657200000000000000000000000000000000000000000000000000000000000000000009
:206592000000000000000000000000000000000000000000000002e002b964080009080bc4
:1765b20065800000362c08000000000000803c4000a000140a500079
:2065c9000000000000000000000000000000000000000000000000000000000000000000b2
:2065e900000000000000000000000000000000000000000000000038e996c000001993a6c9
:166609005a000000000e10080000059a7a3c20402e00001a0f00ef
:20661f0000000000000000000000000000000000000000000000000000000000000000005b
:20663f0000000000000000000000000000000000000000000000200000c966040000990b44
:17665f0025800000000009000000000000803c200400000000f000a6
:20667600000000000000000000000000000000000000000000000000000000000000000004
:20669600000000000000000000000000000000000000000004001c75e996c000001887a6cb
:1666b6005a000000000e10080000001a5a3c2000000002005a0022
:2066cc000000000000000000000000000000000000000000000000000000000000000000ae
:2066ec0000000000000000000000000000000000000000000000000742f9648400008003e1
:17670c00658010000000290000000000f0003c0100c0002c0a5000e5
